{
  "_format": "hh-sol-artifact-1",
  "contractName": "RandomNumberConsumerMumbai",
  "sourceName": "contracts/RandomNumberConsumerMumbai.sol",
  "abi": [
    {
      "inputs": [],
      "stateMutability": "nonpayable",
      "type": "constructor"
    },
    {
      "anonymous": false,
      "inputs": [
        {
          "indexed": true,
          "internalType": "address",
          "name": "sender",
          "type": "address"
        },
        {
          "indexed": false,
          "internalType": "bytes32",
          "name": "requestId",
          "type": "bytes32"
        },
        {
          "indexed": false,
          "internalType": "uint256",
          "name": "randomness",
          "type": "uint256"
        }
      ],
      "name": "RandomnessFulfilled",
      "type": "event"
    },
    {
      "anonymous": false,
      "inputs": [
        {
          "indexed": true,
          "internalType": "address",
          "name": "sender",
          "type": "address"
        }
      ],
      "name": "RandomnessRequested",
      "type": "event"
    },
    {
      "inputs": [],
      "name": "getRandomNumber",
      "outputs": [
        {
          "internalType": "bytes32",
          "name": "requestId",
          "type": "bytes32"
        }
      ],
      "stateMutability": "nonpayable",
      "type": "function"
    },
    {
      "inputs": [],
      "name": "randomResult",
      "outputs": [
        {
          "internalType": "uint256",
          "name": "",
          "type": "uint256"
        }
      ],
      "stateMutability": "view",
      "type": "function"
    },
    {
      "inputs": [
        {
          "internalType": "bytes32",
          "name": "requestId",
          "type": "bytes32"
        },
        {
          "internalType": "uint256",
          "name": "randomness",
          "type": "uint256"
        }
      ],
      "name": "rawFulfillRandomness",
      "outputs": [],
      "stateMutability": "nonpayable",
      "type": "function"
    },
    {
      "inputs": [
        {
          "internalType": "bytes32",
          "name": "",
          "type": "bytes32"
        }
      ],
      "name": "requestIdToAddress",
      "outputs": [
        {
          "internalType": "address",
          "name": "",
          "type": "address"
        }
      ],
      "stateMutability": "view",
      "type": "function"
    },
    {
      "inputs": [],
      "name": "withdrawLink",
      "outputs": [],
      "stateMutability": "nonpayable",
      "type": "function"
    }
  ],
  "bytecode": "0x60c060405234801561001057600080fd5b50738c7382f9d8f56b33781fe506e897a4f1e2d1725573326c977e6efc84e512bb9c30f76e30c160ed06fb8173ffffffffffffffffffffffffffffffffffffffff1660a08173ffffffffffffffffffffffffffffffffffffffff1660601b815250508073ffffffffffffffffffffffffffffffffffffffff1660808173ffffffffffffffffffffffffffffffffffffffff1660601b8152505050507f6e75b569a01ef56d18cab6a8e71e6600d6ce853834d4a5748b720d06f878b3a460001b600181905550655af3107a400060028190555060805160601c60a05160601c610d596101286000396000818161024e01526105f001526000818160f6015281816101330152818161032201526105b40152610d596000f3fe608060405234801561001057600080fd5b50600436106100575760003560e01c806342619f661461005c5780638dc654a21461007a57806394985ddd14610084578063bc64beee146100a0578063dbdff2c1146100d0575b600080fd5b6100646100ee565b6040516100719190610aea565b60405180910390f35b6100826100f4565b005b61009e6004803603810190610099919061082c565b61024c565b005b6100ba60048036038101906100b591906107ff565b6102e8565b6040516100c7919061099f565b60405180910390f35b6100d861031b565b6040516100e59190610a21565b60405180910390f35b60035481565b7f000000000000000000000000000000000000000000000000000000000000000073ffffffffffffffffffffffffffffffffffffffff1663a9059cbb337f000000000000000000000000000000000000000000000000000000000000000073ffffffffffffffffffffffffffffffffffffffff166370a08231306040518263ffffffff1660e01b815260040161018a919061099f565b60206040518083038186803b1580156101a257600080fd5b505afa1580156101b6573d6000803e3d6000fd5b505050506040513d601f19601f820116820180604052508101906101da919061086c565b6040518363ffffffff1660e01b81526004016101f79291906109ba565b602060405180830381600087803b15801561021157600080fd5b505af1158015610225573d6000803e3d6000fd5b505050506040513d601f19601f8201168201806040525081019061024991906107d2565b50565b7f000000000000000000000000000000000000000000000000000000000000000073ffffffffffffffffffffffffffffffffffffffff163373ffffffffffffffffffffffffffffffffffffffff16146102da576040517f08c379a00000000000000000000000000000000000000000000000000000000081526004016102d190610aca565b60405180910390fd5b6102e482826104b2565b5050565b60046020528060005260406000206000915054906101000a900473ffffffffffffffffffffffffffffffffffffffff1681565b60006002547f000000000000000000000000000000000000000000000000000000000000000073ffffffffffffffffffffffffffffffffffffffff166370a08231306040518263ffffffff1660e01b8152600401610379919061099f565b60206040518083038186803b15801561039157600080fd5b505afa1580156103a5573d6000803e3d6000fd5b505050506040513d601f19601f820116820180604052508101906103c9919061086c565b101561040a576040517f08c379a000000000000000000000000000000000000000000000000000000000815260040161040190610aaa565b60405180910390fd5b6104186001546002546105b0565b90503373ffffffffffffffffffffffffffffffffffffffff167f6871e329198b319adcce5196458d56b81939284c334a427d776ebdc356dd5acb60405160405180910390a2336004600083815260200190815260200160002060006101000a81548173ffffffffffffffffffffffffffffffffffffffff021916908373ffffffffffffffffffffffffffffffffffffffff16021790555090565b60006004600084815260200190815260200160002060009054906101000a900473ffffffffffffffffffffffffffffffffffffffff16905060008190508073ffffffffffffffffffffffffffffffffffffffff1663d6bfea28846040518263ffffffff1660e01b81526004016105289190610aea565b600060405180830381600087803b15801561054257600080fd5b505af1158015610556573d6000803e3d6000fd5b505050508173ffffffffffffffffffffffffffffffffffffffff167fa40da1e296d475e9959b7a591f9d774ee7dd7b5da4d6e3637081b7a752bd3cc385856040516105a2929190610a3c565b60405180910390a250505050565b60007f000000000000000000000000000000000000000000000000000000000000000073ffffffffffffffffffffffffffffffffffffffff16634000aea07f000000000000000000000000000000000000000000000000000000000000000084866000604051602001610624929190610a3c565b6040516020818303038152906040526040518463ffffffff1660e01b8152600401610651939291906109e3565b602060405180830381600087803b15801561066b57600080fd5b505af115801561067f573d6000803e3d6000fd5b505050506040513d601f19601f820116820180604052508101906106a391906107d2565b5060006106c5846000306000808981526020019081526020016000205461070f565b90506001600080868152602001908152602001600020546106e69190610b32565b60008086815260200190815260200160002081905550610706848261074b565b91505092915050565b6000848484846040516020016107289493929190610a65565b6040516020818303038152906040528051906020012060001c9050949350505050565b60008282604051602001610760929190610973565b60405160208183030381529060405280519060200120905092915050565b60008151905061078d81610cde565b92915050565b6000813590506107a281610cf5565b92915050565b6000813590506107b781610d0c565b92915050565b6000815190506107cc81610d0c565b92915050565b6000602082840312156107e8576107e7610c50565b5b60006107f68482850161077e565b91505092915050565b60006020828403121561081557610814610c50565b5b600061082384828501610793565b91505092915050565b6000806040838503121561084357610842610c50565b5b600061085185828601610793565b9250506020610862858286016107a8565b9150509250929050565b60006020828403121561088257610881610c50565b5b6000610890848285016107bd565b91505092915050565b6108a281610b88565b82525050565b6108b181610ba6565b82525050565b6108c86108c382610ba6565b610c0d565b82525050565b60006108d982610b05565b6108e38185610b10565b93506108f3818560208601610bda565b6108fc81610c55565b840191505092915050565b6000610914602b83610b21565b915061091f82610c66565b604082019050919050565b6000610937601f83610b21565b915061094282610cb5565b602082019050919050565b61095681610bd0565b82525050565b61096d61096882610bd0565b610c17565b82525050565b600061097f82856108b7565b60208201915061098f828461095c565b6020820191508190509392505050565b60006020820190506109b46000830184610899565b92915050565b60006040820190506109cf6000830185610899565b6109dc602083018461094d565b9392505050565b60006060820190506109f86000830186610899565b610a05602083018561094d565b8181036040830152610a1781846108ce565b9050949350505050565b6000602082019050610a3660008301846108a8565b92915050565b6000604082019050610a5160008301856108a8565b610a5e602083018461094d565b9392505050565b6000608082019050610a7a60008301876108a8565b610a87602083018661094d565b610a946040830185610899565b610aa1606083018461094d565b95945050505050565b60006020820190508181036000830152610ac381610907565b9050919050565b60006020820190508181036000830152610ae38161092a565b9050919050565b6000602082019050610aff600083018461094d565b92915050565b600081519050919050565b600082825260208201905092915050565b600082825260208201905092915050565b6000610b3d82610bd0565b9150610b4883610bd0565b9250827fffffffffffffffffffffffffffffffffffffffffffffffffffffffffffffffff03821115610b7d57610b7c610c21565b5b828201905092915050565b6000610b9382610bb0565b9050919050565b60008115159050919050565b6000819050919050565b600073ffffffffffffffffffffffffffffffffffffffff82169050919050565b6000819050919050565b60005b83811015610bf8578082015181840152602081019050610bdd565b83811115610c07576000848401525b50505050565b6000819050919050565b6000819050919050565b7f4e487b7100000000000000000000000000000000000000000000000000000000600052601160045260246000fd5b600080fd5b6000601f19601f8301169050919050565b7f4e6f7420656e6f756768204c494e4b202d2066696c6c20636f6e74726163742060008201527f7769746820666175636574000000000000000000000000000000000000000000602082015250565b7f4f6e6c7920565246436f6f7264696e61746f722063616e2066756c66696c6c00600082015250565b610ce781610b9a565b8114610cf257600080fd5b50565b610cfe81610ba6565b8114610d0957600080fd5b50565b610d1581610bd0565b8114610d2057600080fd5b5056fea264697066735822122092ed905e96b2f6cd5dd2cf6a9b50cd10aa53a54c3fc9015d6b6efe9dfb9fe10b64736f6c63430008070033",
  "linkReferences": {},
  "deployedLinkReferences": {}
}