{
  "contracts/EtherPrediction.sol": {
    "EtherPrediction": {
      "abi": [
        {
          "inputs": [
            {
              "internalType": "address",
              "name": "aggregator",
              "type": "address"
            },
            {
              "internalType": "int256",
              "name": "_targetPrice",
              "type": "int256"
            },
            {
              "internalType": "uint256",
              "name": "_targetTime",
              "type": "uint256"
            },
            {
              "internalType": "uint256",
              "name": "_deadline",
              "type": "uint256"
            }
          ],
          "stateMutability": "nonpayable",
          "type": "constructor"
        },
        {
          "inputs": [],
          "name": "claimPrize",
          "outputs": [],
          "stateMutability": "nonpayable",
          "type": "function"
        },
        {
          "inputs": [
            {
              "internalType": "address",
              "name": "user",
              "type": "address"
            }
          ],
          "name": "claimablePrize",
          "outputs": [
            {
              "internalType": "uint256",
              "name": "",
              "type": "uint256"
            }
          ],
          "stateMutability": "view",
          "type": "function"
        },
        {
          "inputs": [],
          "name": "getDetails",
          "outputs": [
            {
              "internalType": "contract AggregatorV3Interface",
              "name": "",
              "type": "address"
            },
            {
              "components": [
                {
                  "internalType": "uint256",
                  "name": "higher",
                  "type": "uint256"
                },
                {
                  "internalType": "uint256",
                  "name": "lower",
                  "type": "uint256"
                }
              ],
              "internalType": "struct EtherPrediction.Bet",
              "name": "",
              "type": "tuple"
            },
            {
              "internalType": "int256",
              "name": "",
              "type": "int256"
            },
            {
              "internalType": "int256",
              "name": "",
              "type": "int256"
            },
            {
              "internalType": "uint256",
              "name": "",
              "type": "uint256"
            },
            {
              "internalType": "uint256",
              "name": "",
              "type": "uint256"
            },
            {
              "internalType": "bool",
              "name": "",
              "type": "bool"
            },
            {
              "internalType": "uint256",
              "name": "",
              "type": "uint256"
            },
            {
              "components": [
                {
                  "internalType": "uint256",
                  "name": "higher",
                  "type": "uint256"
                },
                {
                  "internalType": "uint256",
                  "name": "lower",
                  "type": "uint256"
                }
              ],
              "internalType": "struct EtherPrediction.Bet",
              "name": "",
              "type": "tuple"
            }
          ],
          "stateMutability": "view",
          "type": "function"
        },
        {
          "inputs": [],
          "name": "getLatestPrice",
          "outputs": [
            {
              "internalType": "int256",
              "name": "",
              "type": "int256"
            }
          ],
          "stateMutability": "view",
          "type": "function"
        },
        {
          "inputs": [
            {
              "internalType": "address",
              "name": "a",
              "type": "address"
            }
          ],
          "name": "getUserBet",
          "outputs": [
            {
              "components": [
                {
                  "internalType": "uint256",
                  "name": "higher",
                  "type": "uint256"
                },
                {
                  "internalType": "uint256",
                  "name": "lower",
                  "type": "uint256"
                }
              ],
              "internalType": "struct EtherPrediction.Bet",
              "name": "",
              "type": "tuple"
            }
          ],
          "stateMutability": "view",
          "type": "function"
        },
        {
          "inputs": [],
          "name": "obtainPrice",
          "outputs": [],
          "stateMutability": "nonpayable",
          "type": "function"
        },
        {
          "inputs": [
            {
              "internalType": "bool",
              "name": "higher",
              "type": "bool"
            }
          ],
          "name": "placeBet",
          "outputs": [],
          "stateMutability": "payable",
          "type": "function"
        }
      ],
      "evm": {
        "bytecode": {
          "linkReferences": {},
          "object": "60806040523480156200001157600080fd5b506040516200145e3803806200145e833981810160405281019062000037919062000120565b8181106200007c576040517f08c379a00000000000000000000000000000000000000000000000000000000081526004016200007390620001b9565b60405180910390fd5b836000806101000a81548173ffffffffffffffffffffffffffffffffffffffff021916908373ffffffffffffffffffffffffffffffffffffffff16021790555082600581905550816006819055508060078190555050505050620002d6565b600081519050620000ec8162000288565b92915050565b6000815190506200010381620002a2565b92915050565b6000815190506200011a81620002bc565b92915050565b600080600080608085870312156200013d576200013c62000234565b5b60006200014d87828801620000db565b94505060206200016087828801620000f2565b9350506040620001738782880162000109565b9250506060620001868782880162000109565b91505092959194509250565b6000620001a1602d83620001db565b9150620001ae8262000239565b604082019050919050565b60006020820190508181036000830152620001d48162000192565b9050919050565b600082825260208201905092915050565b6000620001f9826200020a565b9050919050565b6000819050919050565b600073ffffffffffffffffffffffffffffffffffffffff82169050919050565b6000819050919050565b600080fd5b7f54686520646561646c696e652068617320746f206265206265666f726520746860008201527f652074617267657454696d652e00000000000000000000000000000000000000602082015250565b6200029381620001ec565b81146200029f57600080fd5b50565b620002ad8162000200565b8114620002b957600080fd5b50565b620002c7816200022a565b8114620002d357600080fd5b50565b61117880620002e66000396000f3fe6080604052600436106100705760003560e01c80638e15f4731161004e5780638e15f473146100e5578063c96adb0114610110578063ecfe99021461014d578063fbbf93a01461016457610070565b806307e3dee514610075578063096a3778146100b257806370740ac9146100ce575b600080fd5b34801561008157600080fd5b5061009c60048036038101906100979190610928565b610197565b6040516100a99190610d48565b60405180910390f35b6100cc60048036038101906100c79190610955565b610308565b005b3480156100da57600080fd5b506100e3610487565b005b3480156100f157600080fd5b506100fa61061a565b6040516101079190610c32565b60405180910390f35b34801561011c57600080fd5b5061013760048036038101906101329190610928565b6106c8565b6040516101449190610d2d565b60405180910390f35b34801561015957600080fd5b50610162610735565b005b34801561017057600080fd5b506101796107fa565b60405161018e99989796959493929190610ba4565b60405180910390f35b6000801515600360009054906101000a900460ff16151514156101bd5760009050610303565b6000600554600454131561024d57600060016000015411156102435760016000015464e8d4a51000600860008673ffffffffffffffffffffffffffffffffffffffff1673ffffffffffffffffffffffffffffffffffffffff168152602001908152602001600020600001546102329190610e06565b61023c9190610dd5565b9050610248565b600090505b6102c9565b6000600180015411156102c357600180015464e8d4a51000600860008673ffffffffffffffffffffffffffffffffffffffff1673ffffffffffffffffffffffffffffffffffffffff168152602001908152602001600020600101546102b29190610e06565b6102bc9190610dd5565b90506102c8565b600090505b5b600064e8d4a5100060018001546001600001546102e69190610d7f565b836102f19190610e06565b6102fb9190610dd5565b905080925050505b919050565b6000341161034b576040517f08c379a000000000000000000000000000000000000000000000000000000000815260040161034290610cad565b60405180910390fd5b600754421061038f576040517f08c379a000000000000000000000000000000000000000000000000000000000815260040161038690610ced565b60405180910390fd5b801561040f5734600860003373ffffffffffffffffffffffffffffffffffffffff1673ffffffffffffffffffffffffffffffffffffffff16815260200190815260200160002060000160008282546103e79190610d7f565b9250508190555034600160000160008282546104039190610d7f565b92505081905550610484565b34600860003373ffffffffffffffffffffffffffffffffffffffff1673ffffffffffffffffffffffffffffffffffffffff16815260200190815260200160002060010160008282546104619190610d7f565b925050819055503460018001600082825461047c9190610d7f565b925050819055505b50565b60065442116104cb576040517f08c379a00000000000000000000000000000000000000000000000000000000081526004016104c290610c8d565b60405180910390fd5b600360009054906101000a900460ff1661051a576040517f08c379a000000000000000000000000000000000000000000000000000000000815260040161051190610c4d565b60405180910390fd5b600061052533610197565b90506000811161056a576040517f08c379a000000000000000000000000000000000000000000000000000000000815260040161056190610d0d565b60405180910390fd5b60003373ffffffffffffffffffffffffffffffffffffffff168260405161059090610b8f565b60006040518083038185875af1925050503d80600081146105cd576040519150601f19603f3d011682016040523d82523d6000602084013e6105d2565b606091505b5050905080610616576040517f08c379a000000000000000000000000000000000000000000000000000000000815260040161060d90610ccd565b60405180910390fd5b5050565b60008060008054906101000a900473ffffffffffffffffffffffffffffffffffffffff1673ffffffffffffffffffffffffffffffffffffffff1663feaf968c6040518163ffffffff1660e01b815260040160a06040518083038186803b15801561068357600080fd5b505afa158015610697573d6000803e3d6000fd5b505050506040513d601f19601f820116820180604052508101906106bb9190610982565b5050509150508091505090565b6106d06108a5565b600860008373ffffffffffffffffffffffffffffffffffffffff1673ffffffffffffffffffffffffffffffffffffffff168152602001908152602001600020604051806040016040529081600082015481526020016001820154815250509050919050565b6006544211610779576040517f08c379a000000000000000000000000000000000000000000000000000000000815260040161077090610c8d565b60405180910390fd5b60001515600360009054906101000a900460ff161515146107cf576040517f08c379a00000000000000000000000000000000000000000000000000000000081526004016107c690610c6d565b60405180910390fd5b6107d761061a565b6004819055506001600360006101000a81548160ff021916908315150217905550565b60006108046108a5565b6000806000806000806108156108a5565b60008054906101000a900473ffffffffffffffffffffffffffffffffffffffff166001600454600554600654600754600360009054906101000a900460ff1661085d33610197565b610866336106c8565b87604051806040016040529081600082015481526020016001820154815250509750985098509850985098509850985098509850909192939495969798565b604051806040016040528060008152602001600081525090565b6000813590506108ce816110cf565b92915050565b6000813590506108e3816110e6565b92915050565b6000815190506108f8816110fd565b92915050565b60008151905061090d81611114565b92915050565b6000815190506109228161112b565b92915050565b60006020828403121561093e5761093d610f5c565b5b600061094c848285016108bf565b91505092915050565b60006020828403121561096b5761096a610f5c565b5b6000610979848285016108d4565b91505092915050565b600080600080600060a0868803121561099e5761099d610f5c565b5b60006109ac88828901610913565b95505060206109bd888289016108e9565b94505060406109ce888289016108fe565b93505060606109df888289016108fe565b92505060806109f088828901610913565b9150509295509295909350565b610a0681610e72565b82525050565b610a1581610ec8565b82525050565b610a2481610e7e565b82525050565b6000610a37602083610d6e565b9150610a4282610f61565b602082019050919050565b6000610a5a602083610d6e565b9150610a6582610f8a565b602082019050919050565b6000610a7d602483610d6e565b9150610a8882610fb3565b604082019050919050565b6000610aa0600083610d63565b9150610aab82611002565b600082019050919050565b6000610ac3601f83610d6e565b9150610ace82611005565b602082019050919050565b6000610ae6601583610d6e565b9150610af18261102e565b602082019050919050565b6000610b09603383610d6e565b9150610b1482611057565b604082019050919050565b6000610b2c601a83610d6e565b9150610b37826110a6565b602082019050919050565b604082016000820151610b586000850182610b71565b506020820151610b6b6020850182610b71565b50505050565b610b7a81610ea8565b82525050565b610b8981610ea8565b82525050565b6000610b9a82610a93565b9150819050919050565b600061016082019050610bba600083018c610a0c565b610bc7602083018b610b42565b610bd4606083018a610a1b565b610be16080830189610a1b565b610bee60a0830188610b80565b610bfb60c0830187610b80565b610c0860e08301866109fd565b610c16610100830185610b80565b610c24610120830184610b42565b9a9950505050505050505050565b6000602082019050610c476000830184610a1b565b92915050565b60006020820190508181036000830152610c6681610a2a565b9050919050565b60006020820190508181036000830152610c8681610a4d565b9050919050565b60006020820190508181036000830152610ca681610a70565b9050919050565b60006020820190508181036000830152610cc681610ab6565b9050919050565b60006020820190508181036000830152610ce681610ad9565b9050919050565b60006020820190508181036000830152610d0681610afc565b9050919050565b60006020820190508181036000830152610d2681610b1f565b9050919050565b6000604082019050610d426000830184610b42565b92915050565b6000602082019050610d5d6000830184610b80565b92915050565b600081905092915050565b600082825260208201905092915050565b6000610d8a82610ea8565b9150610d9583610ea8565b9250827fffffffffffffffffffffffffffffffffffffffffffffffffffffffffffffffff03821115610dca57610dc9610efe565b5b828201905092915050565b6000610de082610ea8565b9150610deb83610ea8565b925082610dfb57610dfa610f2d565b5b828204905092915050565b6000610e1182610ea8565b9150610e1c83610ea8565b9250817fffffffffffffffffffffffffffffffffffffffffffffffffffffffffffffffff0483118215151615610e5557610e54610efe565b5b828202905092915050565b6000610e6b82610e88565b9050919050565b60008115159050919050565b6000819050919050565b600073ffffffffffffffffffffffffffffffffffffffff82169050919050565b6000819050919050565b600069ffffffffffffffffffff82169050919050565b6000610ed382610eda565b9050919050565b6000610ee582610eec565b9050919050565b6000610ef782610e88565b9050919050565b7f4e487b7100000000000000000000000000000000000000000000000000000000600052601160045260246000fd5b7f4e487b7100000000000000000000000000000000000000000000000000000000600052601260045260246000fd5b600080fd5b7f507269636520686173206e6f74206265656e206f627461696e6564207965742e600082015250565b7f50726963652068617320616c7265616479206265656e206f627461696e65642e600082015250565b7f74617267657454696d6520686173206e6f74206265656e20726561636865642060008201527f7965742e00000000000000000000000000000000000000000000000000000000602082015250565b50565b7f6d73672e76616c75652068617320746f206265206d6f7265207468616e203000600082015250565b7f4661696c656420746f2073656e642045746865722e0000000000000000000000600082015250565b7f596f752063616e277420706c616365206265747320616e796d6f72652c20646560008201527f61646c696e652077617320726561636865642e00000000000000000000000000602082015250565b7f596f7520646964206e6f742077696e20616e79207072697a652e000000000000600082015250565b6110d881610e60565b81146110e357600080fd5b50565b6110ef81610e72565b81146110fa57600080fd5b50565b61110681610e7e565b811461111157600080fd5b50565b61111d81610ea8565b811461112857600080fd5b50565b61113481610eb2565b811461113f57600080fd5b5056fea26469706673582212203f2e43363929cbbbe474586209fa5bc0b61fe011349979f0573c86b3014ae35b64736f6c63430008070033",
          "opcodes": "PUSH1 0x80 PUSH1 0x40 MSTORE CALLVALUE DUP1 ISZERO PUSH3 0x11 JUMPI PUSH1 0x0 DUP1 REVERT JUMPDEST POP PUSH1 0x40 MLOAD PUSH3 0x145E CODESIZE SUB DUP1 PUSH3 0x145E DUP4 CODECOPY DUP2 DUP2 ADD PUSH1 0x40 MSTORE DUP2 ADD SWAP1 PUSH3 0x37 SWAP2 SWAP1 PUSH3 0x120 JUMP JUMPDEST DUP2 DUP2 LT PUSH3 0x7C JUMPI PUSH1 0x40 MLOAD PUSH32 0x8C379A000000000000000000000000000000000000000000000000000000000 DUP2 MSTORE PUSH1 0x4 ADD PUSH3 0x73 SWAP1 PUSH3 0x1B9 JUMP JUMPDEST PUSH1 0x40 MLOAD DUP1 SWAP2 SUB SWAP1 REVERT JUMPDEST DUP4 PUSH1 0x0 DUP1 PUSH2 0x100 EXP DUP2 SLOAD DUP2 PUSH20 0xFFFFFFFFFFFFFFFFFFFFFFFFFFFFFFFFFFFFFFFF MUL NOT AND SWAP1 DUP4 PUSH20 0xFFFFFFFFFFFFFFFFFFFFFFFFFFFFFFFFFFFFFFFF AND MUL OR SWAP1 SSTORE POP DUP3 PUSH1 0x5 DUP2 SWAP1 SSTORE POP DUP2 PUSH1 0x6 DUP2 SWAP1 SSTORE POP DUP1 PUSH1 0x7 DUP2 SWAP1 SSTORE POP POP POP POP POP PUSH3 0x2D6 JUMP JUMPDEST PUSH1 0x0 DUP2 MLOAD SWAP1 POP PUSH3 0xEC DUP2 PUSH3 0x288 JUMP JUMPDEST SWAP3 SWAP2 POP POP JUMP JUMPDEST PUSH1 0x0 DUP2 MLOAD SWAP1 POP PUSH3 0x103 DUP2 PUSH3 0x2A2 JUMP JUMPDEST SWAP3 SWAP2 POP POP JUMP JUMPDEST PUSH1 0x0 DUP2 MLOAD SWAP1 POP PUSH3 0x11A DUP2 PUSH3 0x2BC JUMP JUMPDEST SWAP3 SWAP2 POP POP JUMP JUMPDEST PUSH1 0x0 DUP1 PUSH1 0x0 DUP1 PUSH1 0x80 DUP6 DUP8 SUB SLT ISZERO PUSH3 0x13D JUMPI PUSH3 0x13C PUSH3 0x234 JUMP JUMPDEST JUMPDEST PUSH1 0x0 PUSH3 0x14D DUP8 DUP3 DUP9 ADD PUSH3 0xDB JUMP JUMPDEST SWAP5 POP POP PUSH1 0x20 PUSH3 0x160 DUP8 DUP3 DUP9 ADD PUSH3 0xF2 JUMP JUMPDEST SWAP4 POP POP PUSH1 0x40 PUSH3 0x173 DUP8 DUP3 DUP9 ADD PUSH3 0x109 JUMP JUMPDEST SWAP3 POP POP PUSH1 0x60 PUSH3 0x186 DUP8 DUP3 DUP9 ADD PUSH3 0x109 JUMP JUMPDEST SWAP2 POP POP SWAP3 SWAP6 SWAP2 SWAP5 POP SWAP3 POP JUMP JUMPDEST PUSH1 0x0 PUSH3 0x1A1 PUSH1 0x2D DUP4 PUSH3 0x1DB JUMP JUMPDEST SWAP2 POP PUSH3 0x1AE DUP3 PUSH3 0x239 JUMP JUMPDEST PUSH1 0x40 DUP3 ADD SWAP1 POP SWAP2 SWAP1 POP JUMP JUMPDEST PUSH1 0x0 PUSH1 0x20 DUP3 ADD SWAP1 POP DUP2 DUP2 SUB PUSH1 0x0 DUP4 ADD MSTORE PUSH3 0x1D4 DUP2 PUSH3 0x192 JUMP JUMPDEST SWAP1 POP SWAP2 SWAP1 POP JUMP JUMPDEST PUSH1 0x0 DUP3 DUP3 MSTORE PUSH1 0x20 DUP3 ADD SWAP1 POP SWAP3 SWAP2 POP POP JUMP JUMPDEST PUSH1 0x0 PUSH3 0x1F9 DUP3 PUSH3 0x20A JUMP JUMPDEST SWAP1 POP SWAP2 SWAP1 POP JUMP JUMPDEST PUSH1 0x0 DUP2 SWAP1 POP SWAP2 SWAP1 POP JUMP JUMPDEST PUSH1 0x0 PUSH20 0xFFFFFFFFFFFFFFFFFFFFFFFFFFFFFFFFFFFFFFFF DUP3 AND SWAP1 POP SWAP2 SWAP1 POP JUMP JUMPDEST PUSH1 0x0 DUP2 SWAP1 POP SWAP2 SWAP1 POP JUMP JUMPDEST PUSH1 0x0 DUP1 REVERT JUMPDEST PUSH32 0x54686520646561646C696E652068617320746F206265206265666F7265207468 PUSH1 0x0 DUP3 ADD MSTORE PUSH32 0x652074617267657454696D652E00000000000000000000000000000000000000 PUSH1 0x20 DUP3 ADD MSTORE POP JUMP JUMPDEST PUSH3 0x293 DUP2 PUSH3 0x1EC JUMP JUMPDEST DUP2 EQ PUSH3 0x29F JUMPI PUSH1 0x0 DUP1 REVERT JUMPDEST POP JUMP JUMPDEST PUSH3 0x2AD DUP2 PUSH3 0x200 JUMP JUMPDEST DUP2 EQ PUSH3 0x2B9 JUMPI PUSH1 0x0 DUP1 REVERT JUMPDEST POP JUMP JUMPDEST PUSH3 0x2C7 DUP2 PUSH3 0x22A JUMP JUMPDEST DUP2 EQ PUSH3 0x2D3 JUMPI PUSH1 0x0 DUP1 REVERT JUMPDEST POP JUMP JUMPDEST PUSH2 0x1178 DUP1 PUSH3 0x2E6 PUSH1 0x0 CODECOPY PUSH1 0x0 RETURN INVALID PUSH1 0x80 PUSH1 0x40 MSTORE PUSH1 0x4 CALLDATASIZE LT PUSH2 0x70 JUMPI PUSH1 0x0 CALLDATALOAD PUSH1 0xE0 SHR DUP1 PUSH4 0x8E15F473 GT PUSH2 0x4E JUMPI DUP1 PUSH4 0x8E15F473 EQ PUSH2 0xE5 JUMPI DUP1 PUSH4 0xC96ADB01 EQ PUSH2 0x110 JUMPI DUP1 PUSH4 0xECFE9902 EQ PUSH2 0x14D JUMPI DUP1 PUSH4 0xFBBF93A0 EQ PUSH2 0x164 JUMPI PUSH2 0x70 JUMP JUMPDEST DUP1 PUSH4 0x7E3DEE5 EQ PUSH2 0x75 JUMPI DUP1 PUSH4 0x96A3778 EQ PUSH2 0xB2 JUMPI DUP1 PUSH4 0x70740AC9 EQ PUSH2 0xCE JUMPI JUMPDEST PUSH1 0x0 DUP1 REVERT JUMPDEST CALLVALUE DUP1 ISZERO PUSH2 0x81 JUMPI PUSH1 0x0 DUP1 REVERT JUMPDEST POP PUSH2 0x9C PUSH1 0x4 DUP1 CALLDATASIZE SUB DUP2 ADD SWAP1 PUSH2 0x97 SWAP2 SWAP1 PUSH2 0x928 JUMP JUMPDEST PUSH2 0x197 JUMP JUMPDEST PUSH1 0x40 MLOAD PUSH2 0xA9 SWAP2 SWAP1 PUSH2 0xD48 JUMP JUMPDEST PUSH1 0x40 MLOAD DUP1 SWAP2 SUB SWAP1 RETURN JUMPDEST PUSH2 0xCC PUSH1 0x4 DUP1 CALLDATASIZE SUB DUP2 ADD SWAP1 PUSH2 0xC7 SWAP2 SWAP1 PUSH2 0x955 JUMP JUMPDEST PUSH2 0x308 JUMP JUMPDEST STOP JUMPDEST CALLVALUE DUP1 ISZERO PUSH2 0xDA JUMPI PUSH1 0x0 DUP1 REVERT JUMPDEST POP PUSH2 0xE3 PUSH2 0x487 JUMP JUMPDEST STOP JUMPDEST CALLVALUE DUP1 ISZERO PUSH2 0xF1 JUMPI PUSH1 0x0 DUP1 REVERT JUMPDEST POP PUSH2 0xFA PUSH2 0x61A JUMP JUMPDEST PUSH1 0x40 MLOAD PUSH2 0x107 SWAP2 SWAP1 PUSH2 0xC32 JUMP JUMPDEST PUSH1 0x40 MLOAD DUP1 SWAP2 SUB SWAP1 RETURN JUMPDEST CALLVALUE DUP1 ISZERO PUSH2 0x11C JUMPI PUSH1 0x0 DUP1 REVERT JUMPDEST POP PUSH2 0x137 PUSH1 0x4 DUP1 CALLDATASIZE SUB DUP2 ADD SWAP1 PUSH2 0x132 SWAP2 SWAP1 PUSH2 0x928 JUMP JUMPDEST PUSH2 0x6C8 JUMP JUMPDEST PUSH1 0x40 MLOAD PUSH2 0x144 SWAP2 SWAP1 PUSH2 0xD2D JUMP JUMPDEST PUSH1 0x40 MLOAD DUP1 SWAP2 SUB SWAP1 RETURN JUMPDEST CALLVALUE DUP1 ISZERO PUSH2 0x159 JUMPI PUSH1 0x0 DUP1 REVERT JUMPDEST POP PUSH2 0x162 PUSH2 0x735 JUMP JUMPDEST STOP JUMPDEST CALLVALUE DUP1 ISZERO PUSH2 0x170 JUMPI PUSH1 0x0 DUP1 REVERT JUMPDEST POP PUSH2 0x179 PUSH2 0x7FA JUMP JUMPDEST PUSH1 0x40 MLOAD PUSH2 0x18E SWAP10 SWAP9 SWAP8 SWAP7 SWAP6 SWAP5 SWAP4 SWAP3 SWAP2 SWAP1 PUSH2 0xBA4 JUMP JUMPDEST PUSH1 0x40 MLOAD DUP1 SWAP2 SUB SWAP1 RETURN JUMPDEST PUSH1 0x0 DUP1 ISZERO ISZERO PUSH1 0x3 PUSH1 0x0 SWAP1 SLOAD SWAP1 PUSH2 0x100 EXP SWAP1 DIV PUSH1 0xFF AND ISZERO ISZERO EQ ISZERO PUSH2 0x1BD JUMPI PUSH1 0x0 SWAP1 POP PUSH2 0x303 JUMP JUMPDEST PUSH1 0x0 PUSH1 0x5 SLOAD PUSH1 0x4 SLOAD SGT ISZERO PUSH2 0x24D JUMPI PUSH1 0x0 PUSH1 0x1 PUSH1 0x0 ADD SLOAD GT ISZERO PUSH2 0x243 JUMPI PUSH1 0x1 PUSH1 0x0 ADD SLOAD PUSH5 0xE8D4A51000 PUSH1 0x8 PUSH1 0x0 DUP7 PUSH20 0xFFFFFFFFFFFFFFFFFFFFFFFFFFFFFFFFFFFFFFFF AND PUSH20 0xFFFFFFFFFFFFFFFFFFFFFFFFFFFFFFFFFFFFFFFF AND DUP2 MSTORE PUSH1 0x20 ADD SWAP1 DUP2 MSTORE PUSH1 0x20 ADD PUSH1 0x0 KECCAK256 PUSH1 0x0 ADD SLOAD PUSH2 0x232 SWAP2 SWAP1 PUSH2 0xE06 JUMP JUMPDEST PUSH2 0x23C SWAP2 SWAP1 PUSH2 0xDD5 JUMP JUMPDEST SWAP1 POP PUSH2 0x248 JUMP JUMPDEST PUSH1 0x0 SWAP1 POP JUMPDEST PUSH2 0x2C9 JUMP JUMPDEST PUSH1 0x0 PUSH1 0x1 DUP1 ADD SLOAD GT ISZERO PUSH2 0x2C3 JUMPI PUSH1 0x1 DUP1 ADD SLOAD PUSH5 0xE8D4A51000 PUSH1 0x8 PUSH1 0x0 DUP7 PUSH20 0xFFFFFFFFFFFFFFFFFFFFFFFFFFFFFFFFFFFFFFFF AND PUSH20 0xFFFFFFFFFFFFFFFFFFFFFFFFFFFFFFFFFFFFFFFF AND DUP2 MSTORE PUSH1 0x20 ADD SWAP1 DUP2 MSTORE PUSH1 0x20 ADD PUSH1 0x0 KECCAK256 PUSH1 0x1 ADD SLOAD PUSH2 0x2B2 SWAP2 SWAP1 PUSH2 0xE06 JUMP JUMPDEST PUSH2 0x2BC SWAP2 SWAP1 PUSH2 0xDD5 JUMP JUMPDEST SWAP1 POP PUSH2 0x2C8 JUMP JUMPDEST PUSH1 0x0 SWAP1 POP JUMPDEST JUMPDEST PUSH1 0x0 PUSH5 0xE8D4A51000 PUSH1 0x1 DUP1 ADD SLOAD PUSH1 0x1 PUSH1 0x0 ADD SLOAD PUSH2 0x2E6 SWAP2 SWAP1 PUSH2 0xD7F JUMP JUMPDEST DUP4 PUSH2 0x2F1 SWAP2 SWAP1 PUSH2 0xE06 JUMP JUMPDEST PUSH2 0x2FB SWAP2 SWAP1 PUSH2 0xDD5 JUMP JUMPDEST SWAP1 POP DUP1 SWAP3 POP POP POP JUMPDEST SWAP2 SWAP1 POP JUMP JUMPDEST PUSH1 0x0 CALLVALUE GT PUSH2 0x34B JUMPI PUSH1 0x40 MLOAD PUSH32 0x8C379A000000000000000000000000000000000000000000000000000000000 DUP2 MSTORE PUSH1 0x4 ADD PUSH2 0x342 SWAP1 PUSH2 0xCAD JUMP JUMPDEST PUSH1 0x40 MLOAD DUP1 SWAP2 SUB SWAP1 REVERT JUMPDEST PUSH1 0x7 SLOAD TIMESTAMP LT PUSH2 0x38F JUMPI PUSH1 0x40 MLOAD PUSH32 0x8C379A000000000000000000000000000000000000000000000000000000000 DUP2 MSTORE PUSH1 0x4 ADD PUSH2 0x386 SWAP1 PUSH2 0xCED JUMP JUMPDEST PUSH1 0x40 MLOAD DUP1 SWAP2 SUB SWAP1 REVERT JUMPDEST DUP1 ISZERO PUSH2 0x40F JUMPI CALLVALUE PUSH1 0x8 PUSH1 0x0 CALLER PUSH20 0xFFFFFFFFFFFFFFFFFFFFFFFFFFFFFFFFFFFFFFFF AND PUSH20 0xFFFFFFFFFFFFFFFFFFFFFFFFFFFFFFFFFFFFFFFF AND DUP2 MSTORE PUSH1 0x20 ADD SWAP1 DUP2 MSTORE PUSH1 0x20 ADD PUSH1 0x0 KECCAK256 PUSH1 0x0 ADD PUSH1 0x0 DUP3 DUP3 SLOAD PUSH2 0x3E7 SWAP2 SWAP1 PUSH2 0xD7F JUMP JUMPDEST SWAP3 POP POP DUP2 SWAP1 SSTORE POP CALLVALUE PUSH1 0x1 PUSH1 0x0 ADD PUSH1 0x0 DUP3 DUP3 SLOAD PUSH2 0x403 SWAP2 SWAP1 PUSH2 0xD7F JUMP JUMPDEST SWAP3 POP POP DUP2 SWAP1 SSTORE POP PUSH2 0x484 JUMP JUMPDEST CALLVALUE PUSH1 0x8 PUSH1 0x0 CALLER PUSH20 0xFFFFFFFFFFFFFFFFFFFFFFFFFFFFFFFFFFFFFFFF AND PUSH20 0xFFFFFFFFFFFFFFFFFFFFFFFFFFFFFFFFFFFFFFFF AND DUP2 MSTORE PUSH1 0x20 ADD SWAP1 DUP2 MSTORE PUSH1 0x20 ADD PUSH1 0x0 KECCAK256 PUSH1 0x1 ADD PUSH1 0x0 DUP3 DUP3 SLOAD PUSH2 0x461 SWAP2 SWAP1 PUSH2 0xD7F JUMP JUMPDEST SWAP3 POP POP DUP2 SWAP1 SSTORE POP CALLVALUE PUSH1 0x1 DUP1 ADD PUSH1 0x0 DUP3 DUP3 SLOAD PUSH2 0x47C SWAP2 SWAP1 PUSH2 0xD7F JUMP JUMPDEST SWAP3 POP POP DUP2 SWAP1 SSTORE POP JUMPDEST POP JUMP JUMPDEST PUSH1 0x6 SLOAD TIMESTAMP GT PUSH2 0x4CB JUMPI PUSH1 0x40 MLOAD PUSH32 0x8C379A000000000000000000000000000000000000000000000000000000000 DUP2 MSTORE PUSH1 0x4 ADD PUSH2 0x4C2 SWAP1 PUSH2 0xC8D JUMP JUMPDEST PUSH1 0x40 MLOAD DUP1 SWAP2 SUB SWAP1 REVERT JUMPDEST PUSH1 0x3 PUSH1 0x0 SWAP1 SLOAD SWAP1 PUSH2 0x100 EXP SWAP1 DIV PUSH1 0xFF AND PUSH2 0x51A JUMPI PUSH1 0x40 MLOAD PUSH32 0x8C379A000000000000000000000000000000000000000000000000000000000 DUP2 MSTORE PUSH1 0x4 ADD PUSH2 0x511 SWAP1 PUSH2 0xC4D JUMP JUMPDEST PUSH1 0x40 MLOAD DUP1 SWAP2 SUB SWAP1 REVERT JUMPDEST PUSH1 0x0 PUSH2 0x525 CALLER PUSH2 0x197 JUMP JUMPDEST SWAP1 POP PUSH1 0x0 DUP2 GT PUSH2 0x56A JUMPI PUSH1 0x40 MLOAD PUSH32 0x8C379A000000000000000000000000000000000000000000000000000000000 DUP2 MSTORE PUSH1 0x4 ADD PUSH2 0x561 SWAP1 PUSH2 0xD0D JUMP JUMPDEST PUSH1 0x40 MLOAD DUP1 SWAP2 SUB SWAP1 REVERT JUMPDEST PUSH1 0x0 CALLER PUSH20 0xFFFFFFFFFFFFFFFFFFFFFFFFFFFFFFFFFFFFFFFF AND DUP3 PUSH1 0x40 MLOAD PUSH2 0x590 SWAP1 PUSH2 0xB8F JUMP JUMPDEST PUSH1 0x0 PUSH1 0x40 MLOAD DUP1 DUP4 SUB DUP2 DUP6 DUP8 GAS CALL SWAP3 POP POP POP RETURNDATASIZE DUP1 PUSH1 0x0 DUP2 EQ PUSH2 0x5CD JUMPI PUSH1 0x40 MLOAD SWAP2 POP PUSH1 0x1F NOT PUSH1 0x3F RETURNDATASIZE ADD AND DUP3 ADD PUSH1 0x40 MSTORE RETURNDATASIZE DUP3 MSTORE RETURNDATASIZE PUSH1 0x0 PUSH1 0x20 DUP5 ADD RETURNDATACOPY PUSH2 0x5D2 JUMP JUMPDEST PUSH1 0x60 SWAP2 POP JUMPDEST POP POP SWAP1 POP DUP1 PUSH2 0x616 JUMPI PUSH1 0x40 MLOAD PUSH32 0x8C379A000000000000000000000000000000000000000000000000000000000 DUP2 MSTORE PUSH1 0x4 ADD PUSH2 0x60D SWAP1 PUSH2 0xCCD JUMP JUMPDEST PUSH1 0x40 MLOAD DUP1 SWAP2 SUB SWAP1 REVERT JUMPDEST POP POP JUMP JUMPDEST PUSH1 0x0 DUP1 PUSH1 0x0 DUP1 SLOAD SWAP1 PUSH2 0x100 EXP SWAP1 DIV PUSH20 0xFFFFFFFFFFFFFFFFFFFFFFFFFFFFFFFFFFFFFFFF AND PUSH20 0xFFFFFFFFFFFFFFFFFFFFFFFFFFFFFFFFFFFFFFFF AND PUSH4 0xFEAF968C PUSH1 0x40 MLOAD DUP2 PUSH4 0xFFFFFFFF AND PUSH1 0xE0 SHL DUP2 MSTORE PUSH1 0x4 ADD PUSH1 0xA0 PUSH1 0x40 MLOAD DUP1 DUP4 SUB DUP2 DUP7 DUP1 EXTCODESIZE ISZERO DUP1 ISZERO PUSH2 0x683 JUMPI PUSH1 0x0 DUP1 REVERT JUMPDEST POP GAS STATICCALL ISZERO DUP1 ISZERO PUSH2 0x697 JUMPI RETURNDATASIZE PUSH1 0x0 DUP1 RETURNDATACOPY RETURNDATASIZE PUSH1 0x0 REVERT JUMPDEST POP POP POP POP PUSH1 0x40 MLOAD RETURNDATASIZE PUSH1 0x1F NOT PUSH1 0x1F DUP3 ADD AND DUP3 ADD DUP1 PUSH1 0x40 MSTORE POP DUP2 ADD SWAP1 PUSH2 0x6BB SWAP2 SWAP1 PUSH2 0x982 JUMP JUMPDEST POP POP POP SWAP2 POP POP DUP1 SWAP2 POP POP SWAP1 JUMP JUMPDEST PUSH2 0x6D0 PUSH2 0x8A5 JUMP JUMPDEST PUSH1 0x8 PUSH1 0x0 DUP4 PUSH20 0xFFFFFFFFFFFFFFFFFFFFFFFFFFFFFFFFFFFFFFFF AND PUSH20 0xFFFFFFFFFFFFFFFFFFFFFFFFFFFFFFFFFFFFFFFF AND DUP2 MSTORE PUSH1 0x20 ADD SWAP1 DUP2 MSTORE PUSH1 0x20 ADD PUSH1 0x0 KECCAK256 PUSH1 0x40 MLOAD DUP1 PUSH1 0x40 ADD PUSH1 0x40 MSTORE SWAP1 DUP2 PUSH1 0x0 DUP3 ADD SLOAD DUP2 MSTORE PUSH1 0x20 ADD PUSH1 0x1 DUP3 ADD SLOAD DUP2 MSTORE POP POP SWAP1 POP SWAP2 SWAP1 POP JUMP JUMPDEST PUSH1 0x6 SLOAD TIMESTAMP GT PUSH2 0x779 JUMPI PUSH1 0x40 MLOAD PUSH32 0x8C379A000000000000000000000000000000000000000000000000000000000 DUP2 MSTORE PUSH1 0x4 ADD PUSH2 0x770 SWAP1 PUSH2 0xC8D JUMP JUMPDEST PUSH1 0x40 MLOAD DUP1 SWAP2 SUB SWAP1 REVERT JUMPDEST PUSH1 0x0 ISZERO ISZERO PUSH1 0x3 PUSH1 0x0 SWAP1 SLOAD SWAP1 PUSH2 0x100 EXP SWAP1 DIV PUSH1 0xFF AND ISZERO ISZERO EQ PUSH2 0x7CF JUMPI PUSH1 0x40 MLOAD PUSH32 0x8C379A000000000000000000000000000000000000000000000000000000000 DUP2 MSTORE PUSH1 0x4 ADD PUSH2 0x7C6 SWAP1 PUSH2 0xC6D JUMP JUMPDEST PUSH1 0x40 MLOAD DUP1 SWAP2 SUB SWAP1 REVERT JUMPDEST PUSH2 0x7D7 PUSH2 0x61A JUMP JUMPDEST PUSH1 0x4 DUP2 SWAP1 SSTORE POP PUSH1 0x1 PUSH1 0x3 PUSH1 0x0 PUSH2 0x100 EXP DUP2 SLOAD DUP2 PUSH1 0xFF MUL NOT AND SWAP1 DUP4 ISZERO ISZERO MUL OR SWAP1 SSTORE POP JUMP JUMPDEST PUSH1 0x0 PUSH2 0x804 PUSH2 0x8A5 JUMP JUMPDEST PUSH1 0x0 DUP1 PUSH1 0x0 DUP1 PUSH1 0x0 DUP1 PUSH2 0x815 PUSH2 0x8A5 JUMP JUMPDEST PUSH1 0x0 DUP1 SLOAD SWAP1 PUSH2 0x100 EXP SWAP1 DIV PUSH20 0xFFFFFFFFFFFFFFFFFFFFFFFFFFFFFFFFFFFFFFFF AND PUSH1 0x1 PUSH1 0x4 SLOAD PUSH1 0x5 SLOAD PUSH1 0x6 SLOAD PUSH1 0x7 SLOAD PUSH1 0x3 PUSH1 0x0 SWAP1 SLOAD SWAP1 PUSH2 0x100 EXP SWAP1 DIV PUSH1 0xFF AND PUSH2 0x85D CALLER PUSH2 0x197 JUMP JUMPDEST PUSH2 0x866 CALLER PUSH2 0x6C8 JUMP JUMPDEST DUP8 PUSH1 0x40 MLOAD DUP1 PUSH1 0x40 ADD PUSH1 0x40 MSTORE SWAP1 DUP2 PUSH1 0x0 DUP3 ADD SLOAD DUP2 MSTORE PUSH1 0x20 ADD PUSH1 0x1 DUP3 ADD SLOAD DUP2 MSTORE POP POP SWAP8 POP SWAP9 POP SWAP9 POP SWAP9 POP SWAP9 POP SWAP9 POP SWAP9 POP SWAP9 POP SWAP9 POP SWAP9 POP SWAP1 SWAP2 SWAP3 SWAP4 SWAP5 SWAP6 SWAP7 SWAP8 SWAP9 JUMP JUMPDEST PUSH1 0x40 MLOAD DUP1 PUSH1 0x40 ADD PUSH1 0x40 MSTORE DUP1 PUSH1 0x0 DUP2 MSTORE PUSH1 0x20 ADD PUSH1 0x0 DUP2 MSTORE POP SWAP1 JUMP JUMPDEST PUSH1 0x0 DUP2 CALLDATALOAD SWAP1 POP PUSH2 0x8CE DUP2 PUSH2 0x10CF JUMP JUMPDEST SWAP3 SWAP2 POP POP JUMP JUMPDEST PUSH1 0x0 DUP2 CALLDATALOAD SWAP1 POP PUSH2 0x8E3 DUP2 PUSH2 0x10E6 JUMP JUMPDEST SWAP3 SWAP2 POP POP JUMP JUMPDEST PUSH1 0x0 DUP2 MLOAD SWAP1 POP PUSH2 0x8F8 DUP2 PUSH2 0x10FD JUMP JUMPDEST SWAP3 SWAP2 POP POP JUMP JUMPDEST PUSH1 0x0 DUP2 MLOAD SWAP1 POP PUSH2 0x90D DUP2 PUSH2 0x1114 JUMP JUMPDEST SWAP3 SWAP2 POP POP JUMP JUMPDEST PUSH1 0x0 DUP2 MLOAD SWAP1 POP PUSH2 0x922 DUP2 PUSH2 0x112B JUMP JUMPDEST SWAP3 SWAP2 POP POP JUMP JUMPDEST PUSH1 0x0 PUSH1 0x20 DUP3 DUP5 SUB SLT ISZERO PUSH2 0x93E JUMPI PUSH2 0x93D PUSH2 0xF5C JUMP JUMPDEST JUMPDEST PUSH1 0x0 PUSH2 0x94C DUP5 DUP3 DUP6 ADD PUSH2 0x8BF JUMP JUMPDEST SWAP2 POP POP SWAP3 SWAP2 POP POP JUMP JUMPDEST PUSH1 0x0 PUSH1 0x20 DUP3 DUP5 SUB SLT ISZERO PUSH2 0x96B JUMPI PUSH2 0x96A PUSH2 0xF5C JUMP JUMPDEST JUMPDEST PUSH1 0x0 PUSH2 0x979 DUP5 DUP3 DUP6 ADD PUSH2 0x8D4 JUMP JUMPDEST SWAP2 POP POP SWAP3 SWAP2 POP POP JUMP JUMPDEST PUSH1 0x0 DUP1 PUSH1 0x0 DUP1 PUSH1 0x0 PUSH1 0xA0 DUP7 DUP9 SUB SLT ISZERO PUSH2 0x99E JUMPI PUSH2 0x99D PUSH2 0xF5C JUMP JUMPDEST JUMPDEST PUSH1 0x0 PUSH2 0x9AC DUP9 DUP3 DUP10 ADD PUSH2 0x913 JUMP JUMPDEST SWAP6 POP POP PUSH1 0x20 PUSH2 0x9BD DUP9 DUP3 DUP10 ADD PUSH2 0x8E9 JUMP JUMPDEST SWAP5 POP POP PUSH1 0x40 PUSH2 0x9CE DUP9 DUP3 DUP10 ADD PUSH2 0x8FE JUMP JUMPDEST SWAP4 POP POP PUSH1 0x60 PUSH2 0x9DF DUP9 DUP3 DUP10 ADD PUSH2 0x8FE JUMP JUMPDEST SWAP3 POP POP PUSH1 0x80 PUSH2 0x9F0 DUP9 DUP3 DUP10 ADD PUSH2 0x913 JUMP JUMPDEST SWAP2 POP POP SWAP3 SWAP6 POP SWAP3 SWAP6 SWAP1 SWAP4 POP JUMP JUMPDEST PUSH2 0xA06 DUP2 PUSH2 0xE72 JUMP JUMPDEST DUP3 MSTORE POP POP JUMP JUMPDEST PUSH2 0xA15 DUP2 PUSH2 0xEC8 JUMP JUMPDEST DUP3 MSTORE POP POP JUMP JUMPDEST PUSH2 0xA24 DUP2 PUSH2 0xE7E JUMP JUMPDEST DUP3 MSTORE POP POP JUMP JUMPDEST PUSH1 0x0 PUSH2 0xA37 PUSH1 0x20 DUP4 PUSH2 0xD6E JUMP JUMPDEST SWAP2 POP PUSH2 0xA42 DUP3 PUSH2 0xF61 JUMP JUMPDEST PUSH1 0x20 DUP3 ADD SWAP1 POP SWAP2 SWAP1 POP JUMP JUMPDEST PUSH1 0x0 PUSH2 0xA5A PUSH1 0x20 DUP4 PUSH2 0xD6E JUMP JUMPDEST SWAP2 POP PUSH2 0xA65 DUP3 PUSH2 0xF8A JUMP JUMPDEST PUSH1 0x20 DUP3 ADD SWAP1 POP SWAP2 SWAP1 POP JUMP JUMPDEST PUSH1 0x0 PUSH2 0xA7D PUSH1 0x24 DUP4 PUSH2 0xD6E JUMP JUMPDEST SWAP2 POP PUSH2 0xA88 DUP3 PUSH2 0xFB3 JUMP JUMPDEST PUSH1 0x40 DUP3 ADD SWAP1 POP SWAP2 SWAP1 POP JUMP JUMPDEST PUSH1 0x0 PUSH2 0xAA0 PUSH1 0x0 DUP4 PUSH2 0xD63 JUMP JUMPDEST SWAP2 POP PUSH2 0xAAB DUP3 PUSH2 0x1002 JUMP JUMPDEST PUSH1 0x0 DUP3 ADD SWAP1 POP SWAP2 SWAP1 POP JUMP JUMPDEST PUSH1 0x0 PUSH2 0xAC3 PUSH1 0x1F DUP4 PUSH2 0xD6E JUMP JUMPDEST SWAP2 POP PUSH2 0xACE DUP3 PUSH2 0x1005 JUMP JUMPDEST PUSH1 0x20 DUP3 ADD SWAP1 POP SWAP2 SWAP1 POP JUMP JUMPDEST PUSH1 0x0 PUSH2 0xAE6 PUSH1 0x15 DUP4 PUSH2 0xD6E JUMP JUMPDEST SWAP2 POP PUSH2 0xAF1 DUP3 PUSH2 0x102E JUMP JUMPDEST PUSH1 0x20 DUP3 ADD SWAP1 POP SWAP2 SWAP1 POP JUMP JUMPDEST PUSH1 0x0 PUSH2 0xB09 PUSH1 0x33 DUP4 PUSH2 0xD6E JUMP JUMPDEST SWAP2 POP PUSH2 0xB14 DUP3 PUSH2 0x1057 JUMP JUMPDEST PUSH1 0x40 DUP3 ADD SWAP1 POP SWAP2 SWAP1 POP JUMP JUMPDEST PUSH1 0x0 PUSH2 0xB2C PUSH1 0x1A DUP4 PUSH2 0xD6E JUMP JUMPDEST SWAP2 POP PUSH2 0xB37 DUP3 PUSH2 0x10A6 JUMP JUMPDEST PUSH1 0x20 DUP3 ADD SWAP1 POP SWAP2 SWAP1 POP JUMP JUMPDEST PUSH1 0x40 DUP3 ADD PUSH1 0x0 DUP3 ADD MLOAD PUSH2 0xB58 PUSH1 0x0 DUP6 ADD DUP3 PUSH2 0xB71 JUMP JUMPDEST POP PUSH1 0x20 DUP3 ADD MLOAD PUSH2 0xB6B PUSH1 0x20 DUP6 ADD DUP3 PUSH2 0xB71 JUMP JUMPDEST POP POP POP POP JUMP JUMPDEST PUSH2 0xB7A DUP2 PUSH2 0xEA8 JUMP JUMPDEST DUP3 MSTORE POP POP JUMP JUMPDEST PUSH2 0xB89 DUP2 PUSH2 0xEA8 JUMP JUMPDEST DUP3 MSTORE POP POP JUMP JUMPDEST PUSH1 0x0 PUSH2 0xB9A DUP3 PUSH2 0xA93 JUMP JUMPDEST SWAP2 POP DUP2 SWAP1 POP SWAP2 SWAP1 POP JUMP JUMPDEST PUSH1 0x0 PUSH2 0x160 DUP3 ADD SWAP1 POP PUSH2 0xBBA PUSH1 0x0 DUP4 ADD DUP13 PUSH2 0xA0C JUMP JUMPDEST PUSH2 0xBC7 PUSH1 0x20 DUP4 ADD DUP12 PUSH2 0xB42 JUMP JUMPDEST PUSH2 0xBD4 PUSH1 0x60 DUP4 ADD DUP11 PUSH2 0xA1B JUMP JUMPDEST PUSH2 0xBE1 PUSH1 0x80 DUP4 ADD DUP10 PUSH2 0xA1B JUMP JUMPDEST PUSH2 0xBEE PUSH1 0xA0 DUP4 ADD DUP9 PUSH2 0xB80 JUMP JUMPDEST PUSH2 0xBFB PUSH1 0xC0 DUP4 ADD DUP8 PUSH2 0xB80 JUMP JUMPDEST PUSH2 0xC08 PUSH1 0xE0 DUP4 ADD DUP7 PUSH2 0x9FD JUMP JUMPDEST PUSH2 0xC16 PUSH2 0x100 DUP4 ADD DUP6 PUSH2 0xB80 JUMP JUMPDEST PUSH2 0xC24 PUSH2 0x120 DUP4 ADD DUP5 PUSH2 0xB42 JUMP JUMPDEST SWAP11 SWAP10 POP POP POP POP POP POP POP POP POP POP JUMP JUMPDEST PUSH1 0x0 PUSH1 0x20 DUP3 ADD SWAP1 POP PUSH2 0xC47 PUSH1 0x0 DUP4 ADD DUP5 PUSH2 0xA1B JUMP JUMPDEST SWAP3 SWAP2 POP POP JUMP JUMPDEST PUSH1 0x0 PUSH1 0x20 DUP3 ADD SWAP1 POP DUP2 DUP2 SUB PUSH1 0x0 DUP4 ADD MSTORE PUSH2 0xC66 DUP2 PUSH2 0xA2A JUMP JUMPDEST SWAP1 POP SWAP2 SWAP1 POP JUMP JUMPDEST PUSH1 0x0 PUSH1 0x20 DUP3 ADD SWAP1 POP DUP2 DUP2 SUB PUSH1 0x0 DUP4 ADD MSTORE PUSH2 0xC86 DUP2 PUSH2 0xA4D JUMP JUMPDEST SWAP1 POP SWAP2 SWAP1 POP JUMP JUMPDEST PUSH1 0x0 PUSH1 0x20 DUP3 ADD SWAP1 POP DUP2 DUP2 SUB PUSH1 0x0 DUP4 ADD MSTORE PUSH2 0xCA6 DUP2 PUSH2 0xA70 JUMP JUMPDEST SWAP1 POP SWAP2 SWAP1 POP JUMP JUMPDEST PUSH1 0x0 PUSH1 0x20 DUP3 ADD SWAP1 POP DUP2 DUP2 SUB PUSH1 0x0 DUP4 ADD MSTORE PUSH2 0xCC6 DUP2 PUSH2 0xAB6 JUMP JUMPDEST SWAP1 POP SWAP2 SWAP1 POP JUMP JUMPDEST PUSH1 0x0 PUSH1 0x20 DUP3 ADD SWAP1 POP DUP2 DUP2 SUB PUSH1 0x0 DUP4 ADD MSTORE PUSH2 0xCE6 DUP2 PUSH2 0xAD9 JUMP JUMPDEST SWAP1 POP SWAP2 SWAP1 POP JUMP JUMPDEST PUSH1 0x0 PUSH1 0x20 DUP3 ADD SWAP1 POP DUP2 DUP2 SUB PUSH1 0x0 DUP4 ADD MSTORE PUSH2 0xD06 DUP2 PUSH2 0xAFC JUMP JUMPDEST SWAP1 POP SWAP2 SWAP1 POP JUMP JUMPDEST PUSH1 0x0 PUSH1 0x20 DUP3 ADD SWAP1 POP DUP2 DUP2 SUB PUSH1 0x0 DUP4 ADD MSTORE PUSH2 0xD26 DUP2 PUSH2 0xB1F JUMP JUMPDEST SWAP1 POP SWAP2 SWAP1 POP JUMP JUMPDEST PUSH1 0x0 PUSH1 0x40 DUP3 ADD SWAP1 POP PUSH2 0xD42 PUSH1 0x0 DUP4 ADD DUP5 PUSH2 0xB42 JUMP JUMPDEST SWAP3 SWAP2 POP POP JUMP JUMPDEST PUSH1 0x0 PUSH1 0x20 DUP3 ADD SWAP1 POP PUSH2 0xD5D PUSH1 0x0 DUP4 ADD DUP5 PUSH2 0xB80 JUMP JUMPDEST SWAP3 SWAP2 POP POP JUMP JUMPDEST PUSH1 0x0 DUP2 SWAP1 POP SWAP3 SWAP2 POP POP JUMP JUMPDEST PUSH1 0x0 DUP3 DUP3 MSTORE PUSH1 0x20 DUP3 ADD SWAP1 POP SWAP3 SWAP2 POP POP JUMP JUMPDEST PUSH1 0x0 PUSH2 0xD8A DUP3 PUSH2 0xEA8 JUMP JUMPDEST SWAP2 POP PUSH2 0xD95 DUP4 PUSH2 0xEA8 JUMP JUMPDEST SWAP3 POP DUP3 PUSH32 0xFFFFFFFFFFFFFFFFFFFFFFFFFFFFFFFFFFFFFFFFFFFFFFFFFFFFFFFFFFFFFFFF SUB DUP3 GT ISZERO PUSH2 0xDCA JUMPI PUSH2 0xDC9 PUSH2 0xEFE JUMP JUMPDEST JUMPDEST DUP3 DUP3 ADD SWAP1 POP SWAP3 SWAP2 POP POP JUMP JUMPDEST PUSH1 0x0 PUSH2 0xDE0 DUP3 PUSH2 0xEA8 JUMP JUMPDEST SWAP2 POP PUSH2 0xDEB DUP4 PUSH2 0xEA8 JUMP JUMPDEST SWAP3 POP DUP3 PUSH2 0xDFB JUMPI PUSH2 0xDFA PUSH2 0xF2D JUMP JUMPDEST JUMPDEST DUP3 DUP3 DIV SWAP1 POP SWAP3 SWAP2 POP POP JUMP JUMPDEST PUSH1 0x0 PUSH2 0xE11 DUP3 PUSH2 0xEA8 JUMP JUMPDEST SWAP2 POP PUSH2 0xE1C DUP4 PUSH2 0xEA8 JUMP JUMPDEST SWAP3 POP DUP2 PUSH32 0xFFFFFFFFFFFFFFFFFFFFFFFFFFFFFFFFFFFFFFFFFFFFFFFFFFFFFFFFFFFFFFFF DIV DUP4 GT DUP3 ISZERO ISZERO AND ISZERO PUSH2 0xE55 JUMPI PUSH2 0xE54 PUSH2 0xEFE JUMP JUMPDEST JUMPDEST DUP3 DUP3 MUL SWAP1 POP SWAP3 SWAP2 POP POP JUMP JUMPDEST PUSH1 0x0 PUSH2 0xE6B DUP3 PUSH2 0xE88 JUMP JUMPDEST SWAP1 POP SWAP2 SWAP1 POP JUMP JUMPDEST PUSH1 0x0 DUP2 ISZERO ISZERO SWAP1 POP SWAP2 SWAP1 POP JUMP JUMPDEST PUSH1 0x0 DUP2 SWAP1 POP SWAP2 SWAP1 POP JUMP JUMPDEST PUSH1 0x0 PUSH20 0xFFFFFFFFFFFFFFFFFFFFFFFFFFFFFFFFFFFFFFFF DUP3 AND SWAP1 POP SWAP2 SWAP1 POP JUMP JUMPDEST PUSH1 0x0 DUP2 SWAP1 POP SWAP2 SWAP1 POP JUMP JUMPDEST PUSH1 0x0 PUSH10 0xFFFFFFFFFFFFFFFFFFFF DUP3 AND SWAP1 POP SWAP2 SWAP1 POP JUMP JUMPDEST PUSH1 0x0 PUSH2 0xED3 DUP3 PUSH2 0xEDA JUMP JUMPDEST SWAP1 POP SWAP2 SWAP1 POP JUMP JUMPDEST PUSH1 0x0 PUSH2 0xEE5 DUP3 PUSH2 0xEEC JUMP JUMPDEST SWAP1 POP SWAP2 SWAP1 POP JUMP JUMPDEST PUSH1 0x0 PUSH2 0xEF7 DUP3 PUSH2 0xE88 JUMP JUMPDEST SWAP1 POP SWAP2 SWAP1 POP JUMP JUMPDEST PUSH32 0x4E487B7100000000000000000000000000000000000000000000000000000000 PUSH1 0x0 MSTORE PUSH1 0x11 PUSH1 0x4 MSTORE PUSH1 0x24 PUSH1 0x0 REVERT JUMPDEST PUSH32 0x4E487B7100000000000000000000000000000000000000000000000000000000 PUSH1 0x0 MSTORE PUSH1 0x12 PUSH1 0x4 MSTORE PUSH1 0x24 PUSH1 0x0 REVERT JUMPDEST PUSH1 0x0 DUP1 REVERT JUMPDEST PUSH32 0x507269636520686173206E6F74206265656E206F627461696E6564207965742E PUSH1 0x0 DUP3 ADD MSTORE POP JUMP JUMPDEST PUSH32 0x50726963652068617320616C7265616479206265656E206F627461696E65642E PUSH1 0x0 DUP3 ADD MSTORE POP JUMP JUMPDEST PUSH32 0x74617267657454696D6520686173206E6F74206265656E207265616368656420 PUSH1 0x0 DUP3 ADD MSTORE PUSH32 0x7965742E00000000000000000000000000000000000000000000000000000000 PUSH1 0x20 DUP3 ADD MSTORE POP JUMP JUMPDEST POP JUMP JUMPDEST PUSH32 0x6D73672E76616C75652068617320746F206265206D6F7265207468616E203000 PUSH1 0x0 DUP3 ADD MSTORE POP JUMP JUMPDEST PUSH32 0x4661696C656420746F2073656E642045746865722E0000000000000000000000 PUSH1 0x0 DUP3 ADD MSTORE POP JUMP JUMPDEST PUSH32 0x596F752063616E277420706C616365206265747320616E796D6F72652C206465 PUSH1 0x0 DUP3 ADD MSTORE PUSH32 0x61646C696E652077617320726561636865642E00000000000000000000000000 PUSH1 0x20 DUP3 ADD MSTORE POP JUMP JUMPDEST PUSH32 0x596F7520646964206E6F742077696E20616E79207072697A652E000000000000 PUSH1 0x0 DUP3 ADD MSTORE POP JUMP JUMPDEST PUSH2 0x10D8 DUP2 PUSH2 0xE60 JUMP JUMPDEST DUP2 EQ PUSH2 0x10E3 JUMPI PUSH1 0x0 DUP1 REVERT JUMPDEST POP JUMP JUMPDEST PUSH2 0x10EF DUP2 PUSH2 0xE72 JUMP JUMPDEST DUP2 EQ PUSH2 0x10FA JUMPI PUSH1 0x0 DUP1 REVERT JUMPDEST POP JUMP JUMPDEST PUSH2 0x1106 DUP2 PUSH2 0xE7E JUMP JUMPDEST DUP2 EQ PUSH2 0x1111 JUMPI PUSH1 0x0 DUP1 REVERT JUMPDEST POP JUMP JUMPDEST PUSH2 0x111D DUP2 PUSH2 0xEA8 JUMP JUMPDEST DUP2 EQ PUSH2 0x1128 JUMPI PUSH1 0x0 DUP1 REVERT JUMPDEST POP JUMP JUMPDEST PUSH2 0x1134 DUP2 PUSH2 0xEB2 JUMP JUMPDEST DUP2 EQ PUSH2 0x113F JUMPI PUSH1 0x0 DUP1 REVERT JUMPDEST POP JUMP INVALID LOG2 PUSH5 0x6970667358 0x22 SLT KECCAK256 EXTCODEHASH 0x2E NUMBER CALLDATASIZE CODECOPY 0x29 0xCB 0xBB 0xE4 PUSH21 0x586209FA5BC0B61FE011349979F0573C86B3014AE3 JUMPDEST PUSH5 0x736F6C6343 STOP ADDMOD SMOD STOP CALLER "
        },
        "methodIdentifiers": {
          "claimPrize()": "70740ac9",
          "claimablePrize(address)": "07e3dee5",
          "getDetails()": "fbbf93a0",
          "getLatestPrice()": "8e15f473",
          "getUserBet(address)": "c96adb01",
          "obtainPrice()": "ecfe9902",
          "placeBet(bool)": "096a3778"
        }
      }
    }
  }
}