{
  "contracts/EtherBets.sol": {
    "EtherBetsFactory": {
      "abi": [
        {
          "anonymous": false,
          "inputs": [
            {
              "indexed": false,
              "internalType": "address",
              "name": "lottery",
              "type": "address"
            }
          ],
          "name": "NewLottery",
          "type": "event"
        },
        {
          "inputs": [
            {
              "internalType": "uint256",
              "name": "",
              "type": "uint256"
            }
          ],
          "name": "contracts",
          "outputs": [
            {
              "internalType": "address",
              "name": "",
              "type": "address"
            }
          ],
          "stateMutability": "view",
          "type": "function"
        },
        {
          "inputs": [
            {
              "internalType": "string",
              "name": "_name",
              "type": "string"
            },
            {
              "internalType": "uint256",
              "name": "_betCost",
              "type": "uint256"
            },
            {
              "internalType": "uint8",
              "name": "_maximumNumber",
              "type": "uint8"
            },
            {
              "internalType": "uint8",
              "name": "_picks",
              "type": "uint8"
            },
            {
              "internalType": "uint256",
              "name": "_timeBetweenDraws",
              "type": "uint256"
            },
            {
              "internalType": "address",
              "name": "_VRF",
              "type": "address"
            }
          ],
          "name": "newEtherBets",
          "outputs": [
            {
              "internalType": "address",
              "name": "",
              "type": "address"
            }
          ],
          "stateMutability": "nonpayable",
          "type": "function"
        }
      ],
      "evm": {
        "bytecode": {
          "linkReferences": {},
          "object": "608060405234801561001057600080fd5b50613ad0806100206000396000f3fe60806040523480156200001157600080fd5b50600436106200003a5760003560e01c806309c1570e146200003f578063474da79a1462000075575b600080fd5b6200005d6004803603810190620000579190620002ae565b620000ab565b6040516200006c91906200040f565b60405180910390f35b6200009360048036038101906200008d919062000369565b6200019d565b604051620000a291906200040f565b60405180910390f35b600080878787878787604051620000c290620001dd565b620000d3969594939291906200042c565b604051809103906000f080158015620000f0573d6000803e3d6000fd5b5090506000819080600181540180825580915050600190039060005260206000200160009091909190916101000a81548173ffffffffffffffffffffffffffffffffffffffff021916908373ffffffffffffffffffffffffffffffffffffffff1602179055507fdbb18653dafc4962dc966dac250a14155f0c8a5040e55c5c59ed5f4acb69f5be816040516200018791906200040f565b60405180910390a1809150509695505050505050565b60008181548110620001ae57600080fd5b906000526020600020016000915054906101000a900473ffffffffffffffffffffffffffffffffffffffff1681565b613417806200068483390190565b600062000202620001fc84620004c9565b620004a0565b90508281526020810184848401111562000221576200022062000615565b5b6200022e84828562000566565b509392505050565b600081359050620002478162000635565b92915050565b600082601f83011262000265576200026462000610565b5b813562000277848260208601620001eb565b91505092915050565b60008135905062000291816200064f565b92915050565b600081359050620002a88162000669565b92915050565b60008060008060008060c08789031215620002ce57620002cd6200061f565b5b600087013567ffffffffffffffff811115620002ef57620002ee6200061a565b5b620002fd89828a016200024d565b96505060206200031089828a0162000280565b95505060406200032389828a0162000297565b94505060606200033689828a0162000297565b93505060806200034989828a0162000280565b92505060a06200035c89828a0162000236565b9150509295509295509295565b6000602082840312156200038257620003816200061f565b5b6000620003928482850162000280565b91505092915050565b620003a6816200051b565b82525050565b6000620003b982620004ff565b620003c581856200050a565b9350620003d781856020860162000575565b620003e28162000624565b840191505092915050565b620003f8816200054f565b82525050565b620004098162000559565b82525050565b60006020820190506200042660008301846200039b565b92915050565b600060c0820190508181036000830152620004488189620003ac565b9050620004596020830188620003ed565b620004686040830187620003fe565b620004776060830186620003fe565b620004866080830185620003ed565b6200049560a08301846200039b565b979650505050505050565b6000620004ac620004bf565b9050620004ba8282620005ab565b919050565b6000604051905090565b600067ffffffffffffffff821115620004e757620004e6620005e1565b5b620004f28262000624565b9050602081019050919050565b600081519050919050565b600082825260208201905092915050565b600062000528826200052f565b9050919050565b600073ffffffffffffffffffffffffffffffffffffffff82169050919050565b6000819050919050565b600060ff82169050919050565b82818337600083830152505050565b60005b838110156200059557808201518184015260208101905062000578565b83811115620005a5576000848401525b50505050565b620005b68262000624565b810181811067ffffffffffffffff82111715620005d857620005d7620005e1565b5b80604052505050565b7f4e487b7100000000000000000000000000000000000000000000000000000000600052604160045260246000fd5b600080fd5b600080fd5b600080fd5b600080fd5b6000601f19601f8301169050919050565b62000640816200051b565b81146200064c57600080fd5b50565b6200065a816200054f565b81146200066657600080fd5b50565b620006748162000559565b81146200068057600080fd5b5056fe60806040523480156200001157600080fd5b506040516200341738038062003417833981810160405281019062000037919062000254565b85600090805190602001906200004f929190620000e1565b508460018190555083600260006101000a81548160ff021916908360ff16021790555082600260016101000a81548160ff021916908360ff1602179055508160078190555080600860006101000a81548173ffffffffffffffffffffffffffffffffffffffff021916908373ffffffffffffffffffffffffffffffffffffffff1602179055505050505050506200052c565b828054620000ef90620003ef565b90600052602060002090601f0160209004810192826200011357600085556200015f565b82601f106200012e57805160ff19168380011785556200015f565b828001600101855582156200015f579182015b828111156200015e57825182559160200191906001019062000141565b5b5090506200016e919062000172565b5090565b5b808211156200018d57600081600090555060010162000173565b5090565b6000620001a8620001a28462000338565b6200030f565b905082815260208101848484011115620001c757620001c6620004be565b5b620001d4848285620003b9565b509392505050565b600081519050620001ed81620004de565b92915050565b600082601f8301126200020b576200020a620004b9565b5b81516200021d84826020860162000191565b91505092915050565b6000815190506200023781620004f8565b92915050565b6000815190506200024e8162000512565b92915050565b60008060008060008060c08789031215620002745762000273620004c8565b5b600087015167ffffffffffffffff811115620002955762000294620004c3565b5b620002a389828a01620001f3565b9650506020620002b689828a0162000226565b9550506040620002c989828a016200023d565b9450506060620002dc89828a016200023d565b9350506080620002ef89828a0162000226565b92505060a06200030289828a01620001dc565b9150509295509295509295565b60006200031b6200032e565b905062000329828262000425565b919050565b6000604051905090565b600067ffffffffffffffff8211156200035657620003556200048a565b5b6200036182620004cd565b9050602081019050919050565b60006200037b8262000382565b9050919050565b600073ffffffffffffffffffffffffffffffffffffffff82169050919050565b6000819050919050565b600060ff82169050919050565b60005b83811015620003d9578082015181840152602081019050620003bc565b83811115620003e9576000848401525b50505050565b600060028204905060018216806200040857607f821691505b602082108114156200041f576200041e6200045b565b5b50919050565b6200043082620004cd565b810181811067ffffffffffffffff821117156200045257620004516200048a565b5b80604052505050565b7f4e487b7100000000000000000000000000000000000000000000000000000000600052602260045260246000fd5b7f4e487b7100000000000000000000000000000000000000000000000000000000600052604160045260246000fd5b600080fd5b600080fd5b600080fd5b600080fd5b6000601f19601f8301169050919050565b620004e9816200036e565b8114620004f557600080fd5b50565b6200050381620003a2565b81146200050f57600080fd5b50565b6200051d81620003ac565b81146200052957600080fd5b50565b612edb806200053c6000396000f3fe6080604052600436106101355760003560e01c8063682904a5116100ab5780639204c9b71161006f5780639204c9b71461041f578063a126285b1461044a578063a195bcca14610475578063c45821f41461048c578063ccbac9f5146104c9578063d6bfea28146104f457610135565b8063682904a5146103355780636a93111c14610372578063752ca0041461038e578063780d8b73146103cb5780637aa2a299146103f457610135565b806339b52225116100fd57806339b52225146102235780634e45f095146102605780635c975abb1461029d5780635cbbd635146102c8578063650a031a146102f3578063676c902f1461031e57610135565b806306c5c0c81461013a57806306fdde03146101655780630eecae2114610190578063113da88a146101bb57806332a6d979146101f8575b600080fd5b34801561014657600080fd5b5061014f61051d565b60405161015c91906121de565b60405180910390f35b34801561017157600080fd5b5061017a610523565b604051610187919061207c565b60405180910390f35b34801561019c57600080fd5b506101a56105b1565b6040516101b291906121de565b60405180910390f35b3480156101c757600080fd5b506101e260048036038101906101dd91906113af565b6105b7565b6040516101ef9190612061565b60405180910390f35b34801561020457600080fd5b5061020d610658565b60405161021a9190612061565b60405180910390f35b34801561022f57600080fd5b5061024a60048036038101906102459190611492565b61066b565b6040516102579190612061565b60405180910390f35b34801561026c57600080fd5b5061028760048036038101906102829190611425565b6106d3565b6040516102949190612222565b60405180910390f35b3480156102a957600080fd5b506102b2610707565b6040516102bf9190612061565b60405180910390f35b3480156102d457600080fd5b506102dd61071a565b6040516102ea91906121de565b60405180910390f35b3480156102ff57600080fd5b50610308610720565b6040516103159190612222565b60405180910390f35b34801561032a57600080fd5b50610333610733565b005b34801561034157600080fd5b5061035c60048036038101906103579190611425565b610886565b6040516103699190611fdf565b60405180910390f35b61038c600480360381019061038791906113af565b6109d6565b005b34801561039a57600080fd5b506103b560048036038101906103b09190611452565b610b77565b6040516103c29190611fc4565b60405180910390f35b3480156103d757600080fd5b506103f260048036038101906103ed91906113af565b610bc5565b005b34801561040057600080fd5b50610409610c65565b60405161041691906121de565b60405180910390f35b34801561042b57600080fd5b50610434610c6b565b6040516104419190612222565b60405180910390f35b34801561045657600080fd5b5061045f610c7e565b60405161046c9190611fc4565b60405180910390f35b34801561048157600080fd5b5061048a610ca4565b005b34801561049857600080fd5b506104b360048036038101906104ae91906113af565b610e51565b6040516104c091906121de565b60405180910390f35b3480156104d557600080fd5b506104de610eb9565b6040516104eb91906121de565b60405180910390f35b34801561050057600080fd5b5061051b60048036038101906105169190611425565b610ebf565b005b60075481565b600080546105309061249c565b80601f016020809104026020016040519081016040528092919081815260200182805461055c9061249c565b80156105a95780601f1061057e576101008083540402835291602001916105a9565b820191906000526020600020905b81548152906001019060200180831161058c57829003601f168201915b505050505081565b60045481565b600080600090505b82518160ff16101561064d576000838260ff16815181106105e3576105e2612970565b5b602002602001015160ff16148061062b5750600260009054906101000a900460ff1660ff16838260ff168151811061061e5761061d612970565b5b602002602001015160ff16115b1561063a576000915050610653565b808061064590612888565b9150506105bf565b50600190505b919050565b600a60009054906101000a900460ff1681565b600080600090505b82518160ff1610156106c7578360ff16838260ff168151811061069957610698612970565b5b602002602001015160ff1614156106b45760019150506106cd565b80806106bf90612888565b915050610673565b50600090505b92915050565b600381815481106106e357600080fd5b9060005260206000209060209182820401919006915054906101000a900460ff1681565b600860149054906101000a900460ff1681565b60065481565b600260009054906101000a900460ff1681565b600860149054906101000a900460ff16610782576040517f08c379a00000000000000000000000000000000000000000000000000000000081526004016107799061217e565b60405180910390fd5b600a60009054906101000a900460ff166107d1576040517f08c379a00000000000000000000000000000000000000000000000000000000081526004016107c89061219e565b60405180910390fd5b6107dc600954610886565b600390805190602001906107f192919061120e565b507ffebf534a11985149a5c6f9db799e3fd83bee80a2726a5b1ea9aa7fea0cbe6a216003600454604051610826929190612031565b60405180910390a1610836610fb1565b600460008154809291906108499061283f565b91905055506000600860146101000a81548160ff0219169083151502179055506000600a60006101000a81548160ff021916908315150217905550565b6060600260019054906101000a900460ff1660ff1667ffffffffffffffff8111156108b4576108b361299f565b5b6040519080825280602002602001820160405280156108e25781602001602082028036833780820191505090505b5090506000805b600260019054906101000a900460ff1660ff168260ff1610156109cf5760006001600260009054906101000a900460ff1660ff1686846040516020016109309291906121f9565b6040516020818303038152906040528051906020012060001c61095391906128b2565b61095d919061230e565b9050610969818561066b565b156109825781806109799061283f565b925050506108e9565b80848460ff168151811061099957610998612970565b5b602002602001019060ff16908160ff168152505082806109b890612888565b93505081806109c69061283f565b925050506108e9565b5050919050565b6001543414610a1a576040517f08c379a0000000000000000000000000000000000000000000000000000000008152600401610a11906120de565b60405180910390fd5b60001515600860149054906101000a900460ff16151514610a70576040517f08c379a0000000000000000000000000000000000000000000000000000000008152600401610a679061213e565b60405180910390fd5b610a7981610bc5565b60056000610a8683610e51565b600454604051602001610a9a9291906121f9565b6040516020818303038152906040528051906020012060001c8152602001908152602001600020339080600181540180825580915050600190039060005260206000200160009091909190916101000a81548173ffffffffffffffffffffffffffffffffffffffff021916908373ffffffffffffffffffffffffffffffffffffffff1602179055503373ffffffffffffffffffffffffffffffffffffffff167fdb457a8286185fe9d46c5c69e68ed86df699c2c02066412781e9dd9a12af4b4582600454604051610b6c929190612001565b60405180910390a250565b60056020528160005260406000208181548110610b9357600080fd5b906000526020600020016000915091509054906101000a900473ffffffffffffffffffffffffffffffffffffffff1681565b610bce816105b7565b610c0d576040517f08c379a0000000000000000000000000000000000000000000000000000000008152600401610c049061209e565b60405180910390fd5b600260019054906101000a900460ff1660ff16815114610c62576040517f08c379a0000000000000000000000000000000000000000000000000000000008152600401610c599061215e565b60405180910390fd5b50565b60015481565b600260019054906101000a900460ff1681565b600860009054906101000a900473ffffffffffffffffffffffffffffffffffffffff1681565b60075460065442610cb59190612395565b11610cf5576040517f08c379a0000000000000000000000000000000000000000000000000000000008152600401610cec906120fe565b60405180910390fd5b60001515600860149054906101000a900460ff16151514610d4b576040517f08c379a0000000000000000000000000000000000000000000000000000000008152600401610d429061211e565b60405180910390fd5b6001600860146101000a81548160ff021916908315150217905550426006819055506000600860009054906101000a900473ffffffffffffffffffffffffffffffffffffffff1690508073ffffffffffffffffffffffffffffffffffffffff1663dbdff2c16040518163ffffffff1660e01b8152600401602060405180830381600087803b158015610ddc57600080fd5b505af1158015610df0573d6000803e3d6000fd5b505050506040513d601f19601f82011682018060405250810190610e1491906113f8565b507f9ac10fb18c93d33ad7b0a941897aef048d0f8d30756684e82b4552ba12764d45600454604051610e4691906121de565b60405180910390a150565b6000806000905060005b83518160ff161015610eaf576001848260ff1681518110610e7f57610e7e612970565b5b6020026020010151610e9191906123c9565b60ff166001901b821791508080610ea790612888565b915050610e5b565b5080915050919050565b60095481565b600860009054906101000a900473ffffffffffffffffffffffffffffffffffffffff1673ffffffffffffffffffffffffffffffffffffffff163373ffffffffffffffffffffffffffffffffffffffff1614610f4f576040517f08c379a0000000000000000000000000000000000000000000000000000000008152600401610f46906121be565b60405180910390fd5b806009819055506001600a60006101000a81548160ff0219169083151502179055507f546aca7b2683440b8f02fa95faeb8efc79dd0f16af3d815a002742ea6f76116c600954600454604051610fa69291906121f9565b60405180910390a150565b600060056000611036600380548060200260200160405190810160405280929190818152602001828054801561102c57602002820191906000526020600020906000905b82829054906101000a900460ff1660ff1681526020019060010190602082600001049283019260010382029150808411610ff55790505b5050505050610e51565b60045460405160200161104a9291906121f9565b6040516020818303038152906040528051906020012060001c81526020019081526020016000208054806020026020016040519081016040528092919081815260200182805480156110f157602002820191906000526020600020905b8160009054906101000a900473ffffffffffffffffffffffffffffffffffffffff1673ffffffffffffffffffffffffffffffffffffffff16815260200190600101908083116110a7575b50505050509050600081511415611108575061120c565b60008151476111179190612364565b905060005b825181101561120857600083828151811061113a57611139612970565b5b602002602001015190506000808273ffffffffffffffffffffffffffffffffffffffff168560405161116b90611faf565b60006040518083038185875af1925050503d80600081146111a8576040519150601f19603f3d011682016040523d82523d6000602084013e6111ad565b606091505b5091509150816111f2576040517f08c379a00000000000000000000000000000000000000000000000000000000081526004016111e9906120be565b60405180910390fd5b50505080806112009061283f565b91505061111c565b5050505b565b82805482825590600052602060002090601f016020900481019282156112a45791602002820160005b8382111561127557835183826101000a81548160ff021916908360ff1602179055509260200192600101602081600001049283019260010302611237565b80156112a25782816101000a81549060ff0219169055600101602081600001049283019260010302611275565b505b5090506112b191906112b5565b5090565b5b808211156112ce5760008160009055506001016112b6565b5090565b60006112e56112e084612262565b61223d565b90508083825260208201905082856020860282011115611308576113076129d3565b5b60005b85811015611338578161131e888261139a565b84526020840193506020830192505060018101905061130b565b5050509392505050565b600082601f830112611357576113566129ce565b5b81356113678482602086016112d2565b91505092915050565b60008151905061137f81612e60565b92915050565b60008135905061139481612e77565b92915050565b6000813590506113a981612e8e565b92915050565b6000602082840312156113c5576113c46129dd565b5b600082013567ffffffffffffffff8111156113e3576113e26129d8565b5b6113ef84828501611342565b91505092915050565b60006020828403121561140e5761140d6129dd565b5b600061141c84828501611370565b91505092915050565b60006020828403121561143b5761143a6129dd565b5b600061144984828501611385565b91505092915050565b60008060408385031215611469576114686129dd565b5b600061147785828601611385565b925050602061148885828601611385565b9150509250929050565b600080604083850312156114a9576114a86129dd565b5b60006114b78582860161139a565b925050602083013567ffffffffffffffff8111156114d8576114d76129d8565b5b6114e485828601611342565b9150509250929050565b60006114fa8383611f91565b60208301905092915050565b61150f8161240a565b82525050565b6000611520826122b3565b61152a81856122e1565b93506115358361228e565b8060005b8381101561156657815161154d88826114ee565b9750611558836122d4565b925050600181019050611539565b5085935050505092915050565b600061157e826122be565b61158881856122e1565b9350836115948461229e565b60006001156118c1575b836001602003820110156118c05781546115c0886115bb836124ce565b611f91565b6020880197506115d8886115d3836125ec565b611f91565b6020880197506115f0886115eb8361270a565b611f91565b6020880197506116088861160383612758565b611f91565b6020880197506116208861161b83612772565b611f91565b602088019750611638886116338361278c565b611f91565b6020880197506116508861164b836127a6565b611f91565b60208801975061166888611663836127c0565b611f91565b6020880197506116808861167b836127da565b611f91565b60208801975061169888611693836127f4565b611f91565b6020880197506116b0886116ab836124e8565b611f91565b6020880197506116c8886116c383612502565b611f91565b6020880197506116e0886116db8361251c565b611f91565b6020880197506116f8886116f383612536565b611f91565b6020880197506117108861170b83612550565b611f91565b602088019750611728886117238361256a565b611f91565b6020880197506117408861173b83612584565b611f91565b602088019750611758886117538361259e565b611f91565b6020880197506117708861176b836125b8565b611f91565b60208801975061178888611783836125d2565b611f91565b6020880197506117a08861179b83612606565b611f91565b6020880197506117b8886117b383612620565b611f91565b6020880197506117d0886117cb8361263a565b611f91565b6020880197506117e8886117e383612654565b611f91565b602088019750611800886117fb8361266e565b611f91565b6020880197506118188861181383612688565b611f91565b6020880197506118308861182b836126a2565b611f91565b60208801975061184888611843836126bc565b611f91565b6020880197506118608861185b836126d6565b611f91565b60208801975061187888611873836126f0565b611f91565b6020880197506118908861188b83612724565b611f91565b6020880197506118a8886118a38361273e565b611f91565b6020880197506001830192505060208101905061159e565b5b600115611dac578154848210156118f1576118e4886118df836124ce565b611f91565b6020880197506001820191505b848210156119185761190b88611906836125ec565b611f91565b6020880197506001820191505b8482101561193f576119328861192d8361270a565b611f91565b6020880197506001820191505b84821015611966576119598861195483612758565b611f91565b6020880197506001820191505b8482101561198d576119808861197b83612772565b611f91565b6020880197506001820191505b848210156119b4576119a7886119a28361278c565b611f91565b6020880197506001820191505b848210156119db576119ce886119c9836127a6565b611f91565b6020880197506001820191505b84821015611a02576119f5886119f0836127c0565b611f91565b6020880197506001820191505b84821015611a2957611a1c88611a17836127da565b611f91565b6020880197506001820191505b84821015611a5057611a4388611a3e836127f4565b611f91565b6020880197506001820191505b84821015611a7757611a6a88611a65836124e8565b611f91565b6020880197506001820191505b84821015611a9e57611a9188611a8c83612502565b611f91565b6020880197506001820191505b84821015611ac557611ab888611ab38361251c565b611f91565b6020880197506001820191505b84821015611aec57611adf88611ada83612536565b611f91565b6020880197506001820191505b84821015611b1357611b0688611b0183612550565b611f91565b6020880197506001820191505b84821015611b3a57611b2d88611b288361256a565b611f91565b6020880197506001820191505b84821015611b6157611b5488611b4f83612584565b611f91565b6020880197506001820191505b84821015611b8857611b7b88611b768361259e565b611f91565b6020880197506001820191505b84821015611baf57611ba288611b9d836125b8565b611f91565b6020880197506001820191505b84821015611bd657611bc988611bc4836125d2565b611f91565b6020880197506001820191505b84821015611bfd57611bf088611beb83612606565b611f91565b6020880197506001820191505b84821015611c2457611c1788611c1283612620565b611f91565b6020880197506001820191505b84821015611c4b57611c3e88611c398361263a565b611f91565b6020880197506001820191505b84821015611c7257611c6588611c6083612654565b611f91565b6020880197506001820191505b84821015611c9957611c8c88611c878361266e565b611f91565b6020880197506001820191505b84821015611cc057611cb388611cae83612688565b611f91565b6020880197506001820191505b84821015611ce757611cda88611cd5836126a2565b611f91565b6020880197506001820191505b84821015611d0e57611d0188611cfc836126bc565b611f91565b6020880197506001820191505b84821015611d3557611d2888611d23836126d6565b611f91565b6020880197506001820191505b84821015611d5c57611d4f88611d4a836126f0565b611f91565b6020880197506001820191505b84821015611d8357611d7688611d7183612724565b611f91565b6020880197506001820191505b84821015611daa57611d9d88611d988361273e565b611f91565b6020880197506001820191505b505b8694505050505092915050565b611dc28161241c565b82525050565b6000611dd3826122c9565b611ddd81856122fd565b9350611ded818560208601612469565b611df6816129e2565b840191505092915050565b6000611e0e6046836122fd565b9150611e1982612b93565b606082019050919050565b6000611e316014836122fd565b9150611e3c82612c08565b602082019050919050565b6000611e546020836122fd565b9150611e5f82612c31565b602082019050919050565b6000611e776036836122fd565b9150611e8282612c5a565b604082019050919050565b6000611e9a601b836122fd565b9150611ea582612ca9565b602082019050919050565b6000611ebd6024836122fd565b9150611ec882612cd2565b604082019050919050565b6000611ee06000836122f2565b9150611eeb82612d21565b600082019050919050565b6000611f036023836122fd565b9150611f0e82612d24565b604082019050919050565b6000611f266032836122fd565b9150611f3182612d73565b604082019050919050565b6000611f496027836122fd565b9150611f5482612dc2565b604082019050919050565b6000611f6c6027836122fd565b9150611f7782612e11565b604082019050919050565b611f8b81612452565b82525050565b611f9a8161245c565b82525050565b611fa98161245c565b82525050565b6000611fba82611ed3565b9150819050919050565b6000602082019050611fd96000830184611506565b92915050565b60006020820190508181036000830152611ff98184611515565b905092915050565b6000604082019050818103600083015261201b8185611515565b905061202a6020830184611f82565b9392505050565b6000604082019050818103600083015261204b8185611573565b905061205a6020830184611f82565b9392505050565b60006020820190506120766000830184611db9565b92915050565b600060208201905081810360008301526120968184611dc8565b905092915050565b600060208201905081810360008301526120b781611e01565b9050919050565b600060208201905081810360008301526120d781611e24565b9050919050565b600060208201905081810360008301526120f781611e47565b9050919050565b6000602082019050818103600083015261211781611e6a565b9050919050565b6000602082019050818103600083015261213781611e8d565b9050919050565b6000602082019050818103600083015261215781611eb0565b9050919050565b6000602082019050818103600083015261217781611ef6565b9050919050565b6000602082019050818103600083015261219781611f19565b9050919050565b600060208201905081810360008301526121b781611f3c565b9050919050565b600060208201905081810360008301526121d781611f5f565b9050919050565b60006020820190506121f36000830184611f82565b92915050565b600060408201905061220e6000830185611f82565b61221b6020830184611f82565b9392505050565b60006020820190506122376000830184611fa0565b92915050565b6000612247612258565b9050612253828261280e565b919050565b6000604051905090565b600067ffffffffffffffff82111561227d5761227c61299f565b5b602082029050602081019050919050565b6000819050602082019050919050565b60008190508160005260206000209050919050565b600081519050919050565b600081549050919050565b600081519050919050565b6000602082019050919050565b600082825260208201905092915050565b600081905092915050565b600082825260208201905092915050565b600061231982612452565b915061232483612452565b9250827fffffffffffffffffffffffffffffffffffffffffffffffffffffffffffffffff03821115612359576123586128e3565b5b828201905092915050565b600061236f82612452565b915061237a83612452565b92508261238a57612389612912565b5b828204905092915050565b60006123a082612452565b91506123ab83612452565b9250828210156123be576123bd6128e3565b5b828203905092915050565b60006123d48261245c565b91506123df8361245c565b9250828210156123f2576123f16128e3565b5b828203905092915050565b600060ff82169050919050565b600061241582612432565b9050919050565b60008115159050919050565b6000819050919050565b600073ffffffffffffffffffffffffffffffffffffffff82169050919050565b6000819050919050565b600060ff82169050919050565b60005b8381101561248757808201518184015260208101905061246c565b83811115612496576000848401525b50505050565b600060028204905060018216806124b457607f821691505b602082108114156124c8576124c7612941565b5b50919050565b60006124e16124dc836129f3565b6123fd565b9050919050565b60006124fb6124f683612b5f565b6123fd565b9050919050565b600061251561251083612b6c565b6123fd565b9050919050565b600061252f61252a83612b86565b6123fd565b9050919050565b600061254961254483612a00565b6123fd565b9050919050565b600061256361255e83612a0d565b6123fd565b9050919050565b600061257d61257883612a1a565b6123fd565b9050919050565b600061259761259283612a27565b6123fd565b9050919050565b60006125b16125ac83612a34565b6123fd565b9050919050565b60006125cb6125c683612a41565b6123fd565b9050919050565b60006125e56125e083612a4e565b6123fd565b9050919050565b60006125ff6125fa83612b79565b6123fd565b9050919050565b600061261961261483612a5b565b6123fd565b9050919050565b600061263361262e83612a68565b6123fd565b9050919050565b600061264d61264883612a82565b6123fd565b9050919050565b600061266761266283612a8f565b6123fd565b9050919050565b600061268161267c83612a9c565b6123fd565b9050919050565b600061269b61269683612aa9565b6123fd565b9050919050565b60006126b56126b083612ab6565b6123fd565b9050919050565b60006126cf6126ca83612ac3565b6123fd565b9050919050565b60006126e96126e483612ad0565b6123fd565b9050919050565b60006127036126fe83612add565b6123fd565b9050919050565b600061271d61271883612a75565b6123fd565b9050919050565b600061273761273283612aea565b6123fd565b9050919050565b600061275161274c83612af7565b6123fd565b9050919050565b600061276b61276683612b04565b6123fd565b9050919050565b600061278561278083612b11565b6123fd565b9050919050565b600061279f61279a83612b1e565b6123fd565b9050919050565b60006127b96127b483612b2b565b6123fd565b9050919050565b60006127d36127ce83612b38565b6123fd565b9050919050565b60006127ed6127e883612b45565b6123fd565b9050919050565b600061280761280283612b52565b6123fd565b9050919050565b612817826129e2565b810181811067ffffffffffffffff821117156128365761283561299f565b5b80604052505050565b600061284a82612452565b91507fffffffffffffffffffffffffffffffffffffffffffffffffffffffffffffffff82141561287d5761287c6128e3565b5b600182019050919050565b60006128938261245c565b915060ff8214156128a7576128a66128e3565b5b600182019050919050565b60006128bd82612452565b91506128c883612452565b9250826128d8576128d7612912565b5b828206905092915050565b7f4e487b7100000000000000000000000000000000000000000000000000000000600052601160045260246000fd5b7f4e487b7100000000000000000000000000000000000000000000000000000000600052601260045260246000fd5b7f4e487b7100000000000000000000000000000000000000000000000000000000600052602260045260246000fd5b7f4e487b7100000000000000000000000000000000000000000000000000000000600052603260045260246000fd5b7f4e487b7100000000000000000000000000000000000000000000000000000000600052604160045260246000fd5b600080fd5b600080fd5b600080fd5b600080fd5b6000601f19601f8301169050919050565b60008160001c9050919050565b60008160681c9050919050565b60008160701c9050919050565b60008160781c9050919050565b60008160801c9050919050565b60008160881c9050919050565b60008160901c9050919050565b60008160981c9050919050565b60008160a01c9050919050565b60008160a81c9050919050565b60008160101c9050919050565b60008160b01c9050919050565b60008160b81c9050919050565b60008160c01c9050919050565b60008160c81c9050919050565b60008160d01c9050919050565b60008160d81c9050919050565b60008160e01c9050919050565b60008160e81c9050919050565b60008160f01c9050919050565b60008160f81c9050919050565b60008160181c9050919050565b60008160201c9050919050565b60008160281c9050919050565b60008160301c9050919050565b60008160381c9050919050565b60008160401c9050919050565b60008160481c9050919050565b60008160501c9050919050565b60008160581c9050919050565b60008160081c9050919050565b60008160601c9050919050565b7f4e756d62657273206d757374206265206c6172676572207468616e203020616e60008201527f64206c657373207468616e206f7220657175616c20746f206d6178696d756d4e60208201527f756d6265722e0000000000000000000000000000000000000000000000000000604082015250565b7f4661696c656420746f2073656e64204574686572000000000000000000000000600082015250565b7f6d73672e76616c756520646f6573206e6f74206d6174636820626574436f7374600082015250565b7f596f75206d7573742077616974206c6f6e676572206265666f726520616e6f7460008201527f686572206472617720697320617661696c61626c652e00000000000000000000602082015250565b7f41206472617720697320616c72656164792068617070656e696e670000000000600082015250565b7f42657473206172652070617573656420746f206472617720746865206e756d6260008201527f6572732e00000000000000000000000000000000000000000000000000000000602082015250565b50565b7f4e756d62657273206d757374206d61746368206578706563746564206c656e6760008201527f74682e0000000000000000000000000000000000000000000000000000000000602082015250565b7f5468652067616d652068617320746f2062652070617573656420666f72206e7560008201527f6d6265727320746f20626520647261776e2e0000000000000000000000000000602082015250565b7f5468652072616e646f6d206e756d62657220686173206e6f74206265656e206660008201527f6574636865642e00000000000000000000000000000000000000000000000000602082015250565b7f4f6e6c7920746865205652462063616e20736574207468652072616e646f6d2060008201527f6e756d6265722e00000000000000000000000000000000000000000000000000602082015250565b612e6981612428565b8114612e7457600080fd5b50565b612e8081612452565b8114612e8b57600080fd5b50565b612e978161245c565b8114612ea257600080fd5b5056fea2646970667358221220e46bc51b63acacdf58cc9e247efa740da7cd5b6110fb8f2cd74d7f77afdfcff364736f6c63430008070033a2646970667358221220398d3db0cab690c777703d043a4e48b166eb771110246ecdd5f5ada4fa6c3d5c64736f6c63430008070033",
          "opcodes": "PUSH1 0x80 PUSH1 0x40 MSTORE CALLVALUE DUP1 ISZERO PUSH2 0x10 JUMPI PUSH1 0x0 DUP1 REVERT JUMPDEST POP PUSH2 0x3AD0 DUP1 PUSH2 0x20 PUSH1 0x0 CODECOPY PUSH1 0x0 RETURN INVALID PUSH1 0x80 PUSH1 0x40 MSTORE CALLVALUE DUP1 ISZERO PUSH3 0x11 JUMPI PUSH1 0x0 DUP1 REVERT JUMPDEST POP PUSH1 0x4 CALLDATASIZE LT PUSH3 0x3A JUMPI PUSH1 0x0 CALLDATALOAD PUSH1 0xE0 SHR DUP1 PUSH4 0x9C1570E EQ PUSH3 0x3F JUMPI DUP1 PUSH4 0x474DA79A EQ PUSH3 0x75 JUMPI JUMPDEST PUSH1 0x0 DUP1 REVERT JUMPDEST PUSH3 0x5D PUSH1 0x4 DUP1 CALLDATASIZE SUB DUP2 ADD SWAP1 PUSH3 0x57 SWAP2 SWAP1 PUSH3 0x2AE JUMP JUMPDEST PUSH3 0xAB JUMP JUMPDEST PUSH1 0x40 MLOAD PUSH3 0x6C SWAP2 SWAP1 PUSH3 0x40F JUMP JUMPDEST PUSH1 0x40 MLOAD DUP1 SWAP2 SUB SWAP1 RETURN JUMPDEST PUSH3 0x93 PUSH1 0x4 DUP1 CALLDATASIZE SUB DUP2 ADD SWAP1 PUSH3 0x8D SWAP2 SWAP1 PUSH3 0x369 JUMP JUMPDEST PUSH3 0x19D JUMP JUMPDEST PUSH1 0x40 MLOAD PUSH3 0xA2 SWAP2 SWAP1 PUSH3 0x40F JUMP JUMPDEST PUSH1 0x40 MLOAD DUP1 SWAP2 SUB SWAP1 RETURN JUMPDEST PUSH1 0x0 DUP1 DUP8 DUP8 DUP8 DUP8 DUP8 DUP8 PUSH1 0x40 MLOAD PUSH3 0xC2 SWAP1 PUSH3 0x1DD JUMP JUMPDEST PUSH3 0xD3 SWAP7 SWAP6 SWAP5 SWAP4 SWAP3 SWAP2 SWAP1 PUSH3 0x42C JUMP JUMPDEST PUSH1 0x40 MLOAD DUP1 SWAP2 SUB SWAP1 PUSH1 0x0 CREATE DUP1 ISZERO DUP1 ISZERO PUSH3 0xF0 JUMPI RETURNDATASIZE PUSH1 0x0 DUP1 RETURNDATACOPY RETURNDATASIZE PUSH1 0x0 REVERT JUMPDEST POP SWAP1 POP PUSH1 0x0 DUP2 SWAP1 DUP1 PUSH1 0x1 DUP2 SLOAD ADD DUP1 DUP3 SSTORE DUP1 SWAP2 POP POP PUSH1 0x1 SWAP1 SUB SWAP1 PUSH1 0x0 MSTORE PUSH1 0x20 PUSH1 0x0 KECCAK256 ADD PUSH1 0x0 SWAP1 SWAP2 SWAP1 SWAP2 SWAP1 SWAP2 PUSH2 0x100 EXP DUP2 SLOAD DUP2 PUSH20 0xFFFFFFFFFFFFFFFFFFFFFFFFFFFFFFFFFFFFFFFF MUL NOT AND SWAP1 DUP4 PUSH20 0xFFFFFFFFFFFFFFFFFFFFFFFFFFFFFFFFFFFFFFFF AND MUL OR SWAP1 SSTORE POP PUSH32 0xDBB18653DAFC4962DC966DAC250A14155F0C8A5040E55C5C59ED5F4ACB69F5BE DUP2 PUSH1 0x40 MLOAD PUSH3 0x187 SWAP2 SWAP1 PUSH3 0x40F JUMP JUMPDEST PUSH1 0x40 MLOAD DUP1 SWAP2 SUB SWAP1 LOG1 DUP1 SWAP2 POP POP SWAP7 SWAP6 POP POP POP POP POP POP JUMP JUMPDEST PUSH1 0x0 DUP2 DUP2 SLOAD DUP2 LT PUSH3 0x1AE JUMPI PUSH1 0x0 DUP1 REVERT JUMPDEST SWAP1 PUSH1 0x0 MSTORE PUSH1 0x20 PUSH1 0x0 KECCAK256 ADD PUSH1 0x0 SWAP2 POP SLOAD SWAP1 PUSH2 0x100 EXP SWAP1 DIV PUSH20 0xFFFFFFFFFFFFFFFFFFFFFFFFFFFFFFFFFFFFFFFF AND DUP2 JUMP JUMPDEST PUSH2 0x3417 DUP1 PUSH3 0x684 DUP4 CODECOPY ADD SWAP1 JUMP JUMPDEST PUSH1 0x0 PUSH3 0x202 PUSH3 0x1FC DUP5 PUSH3 0x4C9 JUMP JUMPDEST PUSH3 0x4A0 JUMP JUMPDEST SWAP1 POP DUP3 DUP2 MSTORE PUSH1 0x20 DUP2 ADD DUP5 DUP5 DUP5 ADD GT ISZERO PUSH3 0x221 JUMPI PUSH3 0x220 PUSH3 0x615 JUMP JUMPDEST JUMPDEST PUSH3 0x22E DUP5 DUP3 DUP6 PUSH3 0x566 JUMP JUMPDEST POP SWAP4 SWAP3 POP POP POP JUMP JUMPDEST PUSH1 0x0 DUP2 CALLDATALOAD SWAP1 POP PUSH3 0x247 DUP2 PUSH3 0x635 JUMP JUMPDEST SWAP3 SWAP2 POP POP JUMP JUMPDEST PUSH1 0x0 DUP3 PUSH1 0x1F DUP4 ADD SLT PUSH3 0x265 JUMPI PUSH3 0x264 PUSH3 0x610 JUMP JUMPDEST JUMPDEST DUP2 CALLDATALOAD PUSH3 0x277 DUP5 DUP3 PUSH1 0x20 DUP7 ADD PUSH3 0x1EB JUMP JUMPDEST SWAP2 POP POP SWAP3 SWAP2 POP POP JUMP JUMPDEST PUSH1 0x0 DUP2 CALLDATALOAD SWAP1 POP PUSH3 0x291 DUP2 PUSH3 0x64F JUMP JUMPDEST SWAP3 SWAP2 POP POP JUMP JUMPDEST PUSH1 0x0 DUP2 CALLDATALOAD SWAP1 POP PUSH3 0x2A8 DUP2 PUSH3 0x669 JUMP JUMPDEST SWAP3 SWAP2 POP POP JUMP JUMPDEST PUSH1 0x0 DUP1 PUSH1 0x0 DUP1 PUSH1 0x0 DUP1 PUSH1 0xC0 DUP8 DUP10 SUB SLT ISZERO PUSH3 0x2CE JUMPI PUSH3 0x2CD PUSH3 0x61F JUMP JUMPDEST JUMPDEST PUSH1 0x0 DUP8 ADD CALLDATALOAD PUSH8 0xFFFFFFFFFFFFFFFF DUP2 GT ISZERO PUSH3 0x2EF JUMPI PUSH3 0x2EE PUSH3 0x61A JUMP JUMPDEST JUMPDEST PUSH3 0x2FD DUP10 DUP3 DUP11 ADD PUSH3 0x24D JUMP JUMPDEST SWAP7 POP POP PUSH1 0x20 PUSH3 0x310 DUP10 DUP3 DUP11 ADD PUSH3 0x280 JUMP JUMPDEST SWAP6 POP POP PUSH1 0x40 PUSH3 0x323 DUP10 DUP3 DUP11 ADD PUSH3 0x297 JUMP JUMPDEST SWAP5 POP POP PUSH1 0x60 PUSH3 0x336 DUP10 DUP3 DUP11 ADD PUSH3 0x297 JUMP JUMPDEST SWAP4 POP POP PUSH1 0x80 PUSH3 0x349 DUP10 DUP3 DUP11 ADD PUSH3 0x280 JUMP JUMPDEST SWAP3 POP POP PUSH1 0xA0 PUSH3 0x35C DUP10 DUP3 DUP11 ADD PUSH3 0x236 JUMP JUMPDEST SWAP2 POP POP SWAP3 SWAP6 POP SWAP3 SWAP6 POP SWAP3 SWAP6 JUMP JUMPDEST PUSH1 0x0 PUSH1 0x20 DUP3 DUP5 SUB SLT ISZERO PUSH3 0x382 JUMPI PUSH3 0x381 PUSH3 0x61F JUMP JUMPDEST JUMPDEST PUSH1 0x0 PUSH3 0x392 DUP5 DUP3 DUP6 ADD PUSH3 0x280 JUMP JUMPDEST SWAP2 POP POP SWAP3 SWAP2 POP POP JUMP JUMPDEST PUSH3 0x3A6 DUP2 PUSH3 0x51B JUMP JUMPDEST DUP3 MSTORE POP POP JUMP JUMPDEST PUSH1 0x0 PUSH3 0x3B9 DUP3 PUSH3 0x4FF JUMP JUMPDEST PUSH3 0x3C5 DUP2 DUP6 PUSH3 0x50A JUMP JUMPDEST SWAP4 POP PUSH3 0x3D7 DUP2 DUP6 PUSH1 0x20 DUP7 ADD PUSH3 0x575 JUMP JUMPDEST PUSH3 0x3E2 DUP2 PUSH3 0x624 JUMP JUMPDEST DUP5 ADD SWAP2 POP POP SWAP3 SWAP2 POP POP JUMP JUMPDEST PUSH3 0x3F8 DUP2 PUSH3 0x54F JUMP JUMPDEST DUP3 MSTORE POP POP JUMP JUMPDEST PUSH3 0x409 DUP2 PUSH3 0x559 JUMP JUMPDEST DUP3 MSTORE POP POP JUMP JUMPDEST PUSH1 0x0 PUSH1 0x20 DUP3 ADD SWAP1 POP PUSH3 0x426 PUSH1 0x0 DUP4 ADD DUP5 PUSH3 0x39B JUMP JUMPDEST SWAP3 SWAP2 POP POP JUMP JUMPDEST PUSH1 0x0 PUSH1 0xC0 DUP3 ADD SWAP1 POP DUP2 DUP2 SUB PUSH1 0x0 DUP4 ADD MSTORE PUSH3 0x448 DUP2 DUP10 PUSH3 0x3AC JUMP JUMPDEST SWAP1 POP PUSH3 0x459 PUSH1 0x20 DUP4 ADD DUP9 PUSH3 0x3ED JUMP JUMPDEST PUSH3 0x468 PUSH1 0x40 DUP4 ADD DUP8 PUSH3 0x3FE JUMP JUMPDEST PUSH3 0x477 PUSH1 0x60 DUP4 ADD DUP7 PUSH3 0x3FE JUMP JUMPDEST PUSH3 0x486 PUSH1 0x80 DUP4 ADD DUP6 PUSH3 0x3ED JUMP JUMPDEST PUSH3 0x495 PUSH1 0xA0 DUP4 ADD DUP5 PUSH3 0x39B JUMP JUMPDEST SWAP8 SWAP7 POP POP POP POP POP POP POP JUMP JUMPDEST PUSH1 0x0 PUSH3 0x4AC PUSH3 0x4BF JUMP JUMPDEST SWAP1 POP PUSH3 0x4BA DUP3 DUP3 PUSH3 0x5AB JUMP JUMPDEST SWAP2 SWAP1 POP JUMP JUMPDEST PUSH1 0x0 PUSH1 0x40 MLOAD SWAP1 POP SWAP1 JUMP JUMPDEST PUSH1 0x0 PUSH8 0xFFFFFFFFFFFFFFFF DUP3 GT ISZERO PUSH3 0x4E7 JUMPI PUSH3 0x4E6 PUSH3 0x5E1 JUMP JUMPDEST JUMPDEST PUSH3 0x4F2 DUP3 PUSH3 0x624 JUMP JUMPDEST SWAP1 POP PUSH1 0x20 DUP2 ADD SWAP1 POP SWAP2 SWAP1 POP JUMP JUMPDEST PUSH1 0x0 DUP2 MLOAD SWAP1 POP SWAP2 SWAP1 POP JUMP JUMPDEST PUSH1 0x0 DUP3 DUP3 MSTORE PUSH1 0x20 DUP3 ADD SWAP1 POP SWAP3 SWAP2 POP POP JUMP JUMPDEST PUSH1 0x0 PUSH3 0x528 DUP3 PUSH3 0x52F JUMP JUMPDEST SWAP1 POP SWAP2 SWAP1 POP JUMP JUMPDEST PUSH1 0x0 PUSH20 0xFFFFFFFFFFFFFFFFFFFFFFFFFFFFFFFFFFFFFFFF DUP3 AND SWAP1 POP SWAP2 SWAP1 POP JUMP JUMPDEST PUSH1 0x0 DUP2 SWAP1 POP SWAP2 SWAP1 POP JUMP JUMPDEST PUSH1 0x0 PUSH1 0xFF DUP3 AND SWAP1 POP SWAP2 SWAP1 POP JUMP JUMPDEST DUP3 DUP2 DUP4 CALLDATACOPY PUSH1 0x0 DUP4 DUP4 ADD MSTORE POP POP POP JUMP JUMPDEST PUSH1 0x0 JUMPDEST DUP4 DUP2 LT ISZERO PUSH3 0x595 JUMPI DUP1 DUP3 ADD MLOAD DUP2 DUP5 ADD MSTORE PUSH1 0x20 DUP2 ADD SWAP1 POP PUSH3 0x578 JUMP JUMPDEST DUP4 DUP2 GT ISZERO PUSH3 0x5A5 JUMPI PUSH1 0x0 DUP5 DUP5 ADD MSTORE JUMPDEST POP POP POP POP JUMP JUMPDEST PUSH3 0x5B6 DUP3 PUSH3 0x624 JUMP JUMPDEST DUP2 ADD DUP2 DUP2 LT PUSH8 0xFFFFFFFFFFFFFFFF DUP3 GT OR ISZERO PUSH3 0x5D8 JUMPI PUSH3 0x5D7 PUSH3 0x5E1 JUMP JUMPDEST JUMPDEST DUP1 PUSH1 0x40 MSTORE POP POP POP JUMP JUMPDEST PUSH32 0x4E487B7100000000000000000000000000000000000000000000000000000000 PUSH1 0x0 MSTORE PUSH1 0x41 PUSH1 0x4 MSTORE PUSH1 0x24 PUSH1 0x0 REVERT JUMPDEST PUSH1 0x0 DUP1 REVERT JUMPDEST PUSH1 0x0 DUP1 REVERT JUMPDEST PUSH1 0x0 DUP1 REVERT JUMPDEST PUSH1 0x0 DUP1 REVERT JUMPDEST PUSH1 0x0 PUSH1 0x1F NOT PUSH1 0x1F DUP4 ADD AND SWAP1 POP SWAP2 SWAP1 POP JUMP JUMPDEST PUSH3 0x640 DUP2 PUSH3 0x51B JUMP JUMPDEST DUP2 EQ PUSH3 0x64C JUMPI PUSH1 0x0 DUP1 REVERT JUMPDEST POP JUMP JUMPDEST PUSH3 0x65A DUP2 PUSH3 0x54F JUMP JUMPDEST DUP2 EQ PUSH3 0x666 JUMPI PUSH1 0x0 DUP1 REVERT JUMPDEST POP JUMP JUMPDEST PUSH3 0x674 DUP2 PUSH3 0x559 JUMP JUMPDEST DUP2 EQ PUSH3 0x680 JUMPI PUSH1 0x0 DUP1 REVERT JUMPDEST POP JUMP INVALID PUSH1 0x80 PUSH1 0x40 MSTORE CALLVALUE DUP1 ISZERO PUSH3 0x11 JUMPI PUSH1 0x0 DUP1 REVERT JUMPDEST POP PUSH1 0x40 MLOAD PUSH3 0x3417 CODESIZE SUB DUP1 PUSH3 0x3417 DUP4 CODECOPY DUP2 DUP2 ADD PUSH1 0x40 MSTORE DUP2 ADD SWAP1 PUSH3 0x37 SWAP2 SWAP1 PUSH3 0x254 JUMP JUMPDEST DUP6 PUSH1 0x0 SWAP1 DUP1 MLOAD SWAP1 PUSH1 0x20 ADD SWAP1 PUSH3 0x4F SWAP3 SWAP2 SWAP1 PUSH3 0xE1 JUMP JUMPDEST POP DUP5 PUSH1 0x1 DUP2 SWAP1 SSTORE POP DUP4 PUSH1 0x2 PUSH1 0x0 PUSH2 0x100 EXP DUP2 SLOAD DUP2 PUSH1 0xFF MUL NOT AND SWAP1 DUP4 PUSH1 0xFF AND MUL OR SWAP1 SSTORE POP DUP3 PUSH1 0x2 PUSH1 0x1 PUSH2 0x100 EXP DUP2 SLOAD DUP2 PUSH1 0xFF MUL NOT AND SWAP1 DUP4 PUSH1 0xFF AND MUL OR SWAP1 SSTORE POP DUP2 PUSH1 0x7 DUP2 SWAP1 SSTORE POP DUP1 PUSH1 0x8 PUSH1 0x0 PUSH2 0x100 EXP DUP2 SLOAD DUP2 PUSH20 0xFFFFFFFFFFFFFFFFFFFFFFFFFFFFFFFFFFFFFFFF MUL NOT AND SWAP1 DUP4 PUSH20 0xFFFFFFFFFFFFFFFFFFFFFFFFFFFFFFFFFFFFFFFF AND MUL OR SWAP1 SSTORE POP POP POP POP POP POP POP PUSH3 0x52C JUMP JUMPDEST DUP3 DUP1 SLOAD PUSH3 0xEF SWAP1 PUSH3 0x3EF JUMP JUMPDEST SWAP1 PUSH1 0x0 MSTORE PUSH1 0x20 PUSH1 0x0 KECCAK256 SWAP1 PUSH1 0x1F ADD PUSH1 0x20 SWAP1 DIV DUP2 ADD SWAP3 DUP3 PUSH3 0x113 JUMPI PUSH1 0x0 DUP6 SSTORE PUSH3 0x15F JUMP JUMPDEST DUP3 PUSH1 0x1F LT PUSH3 0x12E JUMPI DUP1 MLOAD PUSH1 0xFF NOT AND DUP4 DUP1 ADD OR DUP6 SSTORE PUSH3 0x15F JUMP JUMPDEST DUP3 DUP1 ADD PUSH1 0x1 ADD DUP6 SSTORE DUP3 ISZERO PUSH3 0x15F JUMPI SWAP2 DUP3 ADD JUMPDEST DUP3 DUP2 GT ISZERO PUSH3 0x15E JUMPI DUP3 MLOAD DUP3 SSTORE SWAP2 PUSH1 0x20 ADD SWAP2 SWAP1 PUSH1 0x1 ADD SWAP1 PUSH3 0x141 JUMP JUMPDEST JUMPDEST POP SWAP1 POP PUSH3 0x16E SWAP2 SWAP1 PUSH3 0x172 JUMP JUMPDEST POP SWAP1 JUMP JUMPDEST JUMPDEST DUP1 DUP3 GT ISZERO PUSH3 0x18D JUMPI PUSH1 0x0 DUP2 PUSH1 0x0 SWAP1 SSTORE POP PUSH1 0x1 ADD PUSH3 0x173 JUMP JUMPDEST POP SWAP1 JUMP JUMPDEST PUSH1 0x0 PUSH3 0x1A8 PUSH3 0x1A2 DUP5 PUSH3 0x338 JUMP JUMPDEST PUSH3 0x30F JUMP JUMPDEST SWAP1 POP DUP3 DUP2 MSTORE PUSH1 0x20 DUP2 ADD DUP5 DUP5 DUP5 ADD GT ISZERO PUSH3 0x1C7 JUMPI PUSH3 0x1C6 PUSH3 0x4BE JUMP JUMPDEST JUMPDEST PUSH3 0x1D4 DUP5 DUP3 DUP6 PUSH3 0x3B9 JUMP JUMPDEST POP SWAP4 SWAP3 POP POP POP JUMP JUMPDEST PUSH1 0x0 DUP2 MLOAD SWAP1 POP PUSH3 0x1ED DUP2 PUSH3 0x4DE JUMP JUMPDEST SWAP3 SWAP2 POP POP JUMP JUMPDEST PUSH1 0x0 DUP3 PUSH1 0x1F DUP4 ADD SLT PUSH3 0x20B JUMPI PUSH3 0x20A PUSH3 0x4B9 JUMP JUMPDEST JUMPDEST DUP2 MLOAD PUSH3 0x21D DUP5 DUP3 PUSH1 0x20 DUP7 ADD PUSH3 0x191 JUMP JUMPDEST SWAP2 POP POP SWAP3 SWAP2 POP POP JUMP JUMPDEST PUSH1 0x0 DUP2 MLOAD SWAP1 POP PUSH3 0x237 DUP2 PUSH3 0x4F8 JUMP JUMPDEST SWAP3 SWAP2 POP POP JUMP JUMPDEST PUSH1 0x0 DUP2 MLOAD SWAP1 POP PUSH3 0x24E DUP2 PUSH3 0x512 JUMP JUMPDEST SWAP3 SWAP2 POP POP JUMP JUMPDEST PUSH1 0x0 DUP1 PUSH1 0x0 DUP1 PUSH1 0x0 DUP1 PUSH1 0xC0 DUP8 DUP10 SUB SLT ISZERO PUSH3 0x274 JUMPI PUSH3 0x273 PUSH3 0x4C8 JUMP JUMPDEST JUMPDEST PUSH1 0x0 DUP8 ADD MLOAD PUSH8 0xFFFFFFFFFFFFFFFF DUP2 GT ISZERO PUSH3 0x295 JUMPI PUSH3 0x294 PUSH3 0x4C3 JUMP JUMPDEST JUMPDEST PUSH3 0x2A3 DUP10 DUP3 DUP11 ADD PUSH3 0x1F3 JUMP JUMPDEST SWAP7 POP POP PUSH1 0x20 PUSH3 0x2B6 DUP10 DUP3 DUP11 ADD PUSH3 0x226 JUMP JUMPDEST SWAP6 POP POP PUSH1 0x40 PUSH3 0x2C9 DUP10 DUP3 DUP11 ADD PUSH3 0x23D JUMP JUMPDEST SWAP5 POP POP PUSH1 0x60 PUSH3 0x2DC DUP10 DUP3 DUP11 ADD PUSH3 0x23D JUMP JUMPDEST SWAP4 POP POP PUSH1 0x80 PUSH3 0x2EF DUP10 DUP3 DUP11 ADD PUSH3 0x226 JUMP JUMPDEST SWAP3 POP POP PUSH1 0xA0 PUSH3 0x302 DUP10 DUP3 DUP11 ADD PUSH3 0x1DC JUMP JUMPDEST SWAP2 POP POP SWAP3 SWAP6 POP SWAP3 SWAP6 POP SWAP3 SWAP6 JUMP JUMPDEST PUSH1 0x0 PUSH3 0x31B PUSH3 0x32E JUMP JUMPDEST SWAP1 POP PUSH3 0x329 DUP3 DUP3 PUSH3 0x425 JUMP JUMPDEST SWAP2 SWAP1 POP JUMP JUMPDEST PUSH1 0x0 PUSH1 0x40 MLOAD SWAP1 POP SWAP1 JUMP JUMPDEST PUSH1 0x0 PUSH8 0xFFFFFFFFFFFFFFFF DUP3 GT ISZERO PUSH3 0x356 JUMPI PUSH3 0x355 PUSH3 0x48A JUMP JUMPDEST JUMPDEST PUSH3 0x361 DUP3 PUSH3 0x4CD JUMP JUMPDEST SWAP1 POP PUSH1 0x20 DUP2 ADD SWAP1 POP SWAP2 SWAP1 POP JUMP JUMPDEST PUSH1 0x0 PUSH3 0x37B DUP3 PUSH3 0x382 JUMP JUMPDEST SWAP1 POP SWAP2 SWAP1 POP JUMP JUMPDEST PUSH1 0x0 PUSH20 0xFFFFFFFFFFFFFFFFFFFFFFFFFFFFFFFFFFFFFFFF DUP3 AND SWAP1 POP SWAP2 SWAP1 POP JUMP JUMPDEST PUSH1 0x0 DUP2 SWAP1 POP SWAP2 SWAP1 POP JUMP JUMPDEST PUSH1 0x0 PUSH1 0xFF DUP3 AND SWAP1 POP SWAP2 SWAP1 POP JUMP JUMPDEST PUSH1 0x0 JUMPDEST DUP4 DUP2 LT ISZERO PUSH3 0x3D9 JUMPI DUP1 DUP3 ADD MLOAD DUP2 DUP5 ADD MSTORE PUSH1 0x20 DUP2 ADD SWAP1 POP PUSH3 0x3BC JUMP JUMPDEST DUP4 DUP2 GT ISZERO PUSH3 0x3E9 JUMPI PUSH1 0x0 DUP5 DUP5 ADD MSTORE JUMPDEST POP POP POP POP JUMP JUMPDEST PUSH1 0x0 PUSH1 0x2 DUP3 DIV SWAP1 POP PUSH1 0x1 DUP3 AND DUP1 PUSH3 0x408 JUMPI PUSH1 0x7F DUP3 AND SWAP2 POP JUMPDEST PUSH1 0x20 DUP3 LT DUP2 EQ ISZERO PUSH3 0x41F JUMPI PUSH3 0x41E PUSH3 0x45B JUMP JUMPDEST JUMPDEST POP SWAP2 SWAP1 POP JUMP JUMPDEST PUSH3 0x430 DUP3 PUSH3 0x4CD JUMP JUMPDEST DUP2 ADD DUP2 DUP2 LT PUSH8 0xFFFFFFFFFFFFFFFF DUP3 GT OR ISZERO PUSH3 0x452 JUMPI PUSH3 0x451 PUSH3 0x48A JUMP JUMPDEST JUMPDEST DUP1 PUSH1 0x40 MSTORE POP POP POP JUMP JUMPDEST PUSH32 0x4E487B7100000000000000000000000000000000000000000000000000000000 PUSH1 0x0 MSTORE PUSH1 0x22 PUSH1 0x4 MSTORE PUSH1 0x24 PUSH1 0x0 REVERT JUMPDEST PUSH32 0x4E487B7100000000000000000000000000000000000000000000000000000000 PUSH1 0x0 MSTORE PUSH1 0x41 PUSH1 0x4 MSTORE PUSH1 0x24 PUSH1 0x0 REVERT JUMPDEST PUSH1 0x0 DUP1 REVERT JUMPDEST PUSH1 0x0 DUP1 REVERT JUMPDEST PUSH1 0x0 DUP1 REVERT JUMPDEST PUSH1 0x0 DUP1 REVERT JUMPDEST PUSH1 0x0 PUSH1 0x1F NOT PUSH1 0x1F DUP4 ADD AND SWAP1 POP SWAP2 SWAP1 POP JUMP JUMPDEST PUSH3 0x4E9 DUP2 PUSH3 0x36E JUMP JUMPDEST DUP2 EQ PUSH3 0x4F5 JUMPI PUSH1 0x0 DUP1 REVERT JUMPDEST POP JUMP JUMPDEST PUSH3 0x503 DUP2 PUSH3 0x3A2 JUMP JUMPDEST DUP2 EQ PUSH3 0x50F JUMPI PUSH1 0x0 DUP1 REVERT JUMPDEST POP JUMP JUMPDEST PUSH3 0x51D DUP2 PUSH3 0x3AC JUMP JUMPDEST DUP2 EQ PUSH3 0x529 JUMPI PUSH1 0x0 DUP1 REVERT JUMPDEST POP JUMP JUMPDEST PUSH2 0x2EDB DUP1 PUSH3 0x53C PUSH1 0x0 CODECOPY PUSH1 0x0 RETURN INVALID PUSH1 0x80 PUSH1 0x40 MSTORE PUSH1 0x4 CALLDATASIZE LT PUSH2 0x135 JUMPI PUSH1 0x0 CALLDATALOAD PUSH1 0xE0 SHR DUP1 PUSH4 0x682904A5 GT PUSH2 0xAB JUMPI DUP1 PUSH4 0x9204C9B7 GT PUSH2 0x6F JUMPI DUP1 PUSH4 0x9204C9B7 EQ PUSH2 0x41F JUMPI DUP1 PUSH4 0xA126285B EQ PUSH2 0x44A JUMPI DUP1 PUSH4 0xA195BCCA EQ PUSH2 0x475 JUMPI DUP1 PUSH4 0xC45821F4 EQ PUSH2 0x48C JUMPI DUP1 PUSH4 0xCCBAC9F5 EQ PUSH2 0x4C9 JUMPI DUP1 PUSH4 0xD6BFEA28 EQ PUSH2 0x4F4 JUMPI PUSH2 0x135 JUMP JUMPDEST DUP1 PUSH4 0x682904A5 EQ PUSH2 0x335 JUMPI DUP1 PUSH4 0x6A93111C EQ PUSH2 0x372 JUMPI DUP1 PUSH4 0x752CA004 EQ PUSH2 0x38E JUMPI DUP1 PUSH4 0x780D8B73 EQ PUSH2 0x3CB JUMPI DUP1 PUSH4 0x7AA2A299 EQ PUSH2 0x3F4 JUMPI PUSH2 0x135 JUMP JUMPDEST DUP1 PUSH4 0x39B52225 GT PUSH2 0xFD JUMPI DUP1 PUSH4 0x39B52225 EQ PUSH2 0x223 JUMPI DUP1 PUSH4 0x4E45F095 EQ PUSH2 0x260 JUMPI DUP1 PUSH4 0x5C975ABB EQ PUSH2 0x29D JUMPI DUP1 PUSH4 0x5CBBD635 EQ PUSH2 0x2C8 JUMPI DUP1 PUSH4 0x650A031A EQ PUSH2 0x2F3 JUMPI DUP1 PUSH4 0x676C902F EQ PUSH2 0x31E JUMPI PUSH2 0x135 JUMP JUMPDEST DUP1 PUSH4 0x6C5C0C8 EQ PUSH2 0x13A JUMPI DUP1 PUSH4 0x6FDDE03 EQ PUSH2 0x165 JUMPI DUP1 PUSH4 0xEECAE21 EQ PUSH2 0x190 JUMPI DUP1 PUSH4 0x113DA88A EQ PUSH2 0x1BB JUMPI DUP1 PUSH4 0x32A6D979 EQ PUSH2 0x1F8 JUMPI JUMPDEST PUSH1 0x0 DUP1 REVERT JUMPDEST CALLVALUE DUP1 ISZERO PUSH2 0x146 JUMPI PUSH1 0x0 DUP1 REVERT JUMPDEST POP PUSH2 0x14F PUSH2 0x51D JUMP JUMPDEST PUSH1 0x40 MLOAD PUSH2 0x15C SWAP2 SWAP1 PUSH2 0x21DE JUMP JUMPDEST PUSH1 0x40 MLOAD DUP1 SWAP2 SUB SWAP1 RETURN JUMPDEST CALLVALUE DUP1 ISZERO PUSH2 0x171 JUMPI PUSH1 0x0 DUP1 REVERT JUMPDEST POP PUSH2 0x17A PUSH2 0x523 JUMP JUMPDEST PUSH1 0x40 MLOAD PUSH2 0x187 SWAP2 SWAP1 PUSH2 0x207C JUMP JUMPDEST PUSH1 0x40 MLOAD DUP1 SWAP2 SUB SWAP1 RETURN JUMPDEST CALLVALUE DUP1 ISZERO PUSH2 0x19C JUMPI PUSH1 0x0 DUP1 REVERT JUMPDEST POP PUSH2 0x1A5 PUSH2 0x5B1 JUMP JUMPDEST PUSH1 0x40 MLOAD PUSH2 0x1B2 SWAP2 SWAP1 PUSH2 0x21DE JUMP JUMPDEST PUSH1 0x40 MLOAD DUP1 SWAP2 SUB SWAP1 RETURN JUMPDEST CALLVALUE DUP1 ISZERO PUSH2 0x1C7 JUMPI PUSH1 0x0 DUP1 REVERT JUMPDEST POP PUSH2 0x1E2 PUSH1 0x4 DUP1 CALLDATASIZE SUB DUP2 ADD SWAP1 PUSH2 0x1DD SWAP2 SWAP1 PUSH2 0x13AF JUMP JUMPDEST PUSH2 0x5B7 JUMP JUMPDEST PUSH1 0x40 MLOAD PUSH2 0x1EF SWAP2 SWAP1 PUSH2 0x2061 JUMP JUMPDEST PUSH1 0x40 MLOAD DUP1 SWAP2 SUB SWAP1 RETURN JUMPDEST CALLVALUE DUP1 ISZERO PUSH2 0x204 JUMPI PUSH1 0x0 DUP1 REVERT JUMPDEST POP PUSH2 0x20D PUSH2 0x658 JUMP JUMPDEST PUSH1 0x40 MLOAD PUSH2 0x21A SWAP2 SWAP1 PUSH2 0x2061 JUMP JUMPDEST PUSH1 0x40 MLOAD DUP1 SWAP2 SUB SWAP1 RETURN JUMPDEST CALLVALUE DUP1 ISZERO PUSH2 0x22F JUMPI PUSH1 0x0 DUP1 REVERT JUMPDEST POP PUSH2 0x24A PUSH1 0x4 DUP1 CALLDATASIZE SUB DUP2 ADD SWAP1 PUSH2 0x245 SWAP2 SWAP1 PUSH2 0x1492 JUMP JUMPDEST PUSH2 0x66B JUMP JUMPDEST PUSH1 0x40 MLOAD PUSH2 0x257 SWAP2 SWAP1 PUSH2 0x2061 JUMP JUMPDEST PUSH1 0x40 MLOAD DUP1 SWAP2 SUB SWAP1 RETURN JUMPDEST CALLVALUE DUP1 ISZERO PUSH2 0x26C JUMPI PUSH1 0x0 DUP1 REVERT JUMPDEST POP PUSH2 0x287 PUSH1 0x4 DUP1 CALLDATASIZE SUB DUP2 ADD SWAP1 PUSH2 0x282 SWAP2 SWAP1 PUSH2 0x1425 JUMP JUMPDEST PUSH2 0x6D3 JUMP JUMPDEST PUSH1 0x40 MLOAD PUSH2 0x294 SWAP2 SWAP1 PUSH2 0x2222 JUMP JUMPDEST PUSH1 0x40 MLOAD DUP1 SWAP2 SUB SWAP1 RETURN JUMPDEST CALLVALUE DUP1 ISZERO PUSH2 0x2A9 JUMPI PUSH1 0x0 DUP1 REVERT JUMPDEST POP PUSH2 0x2B2 PUSH2 0x707 JUMP JUMPDEST PUSH1 0x40 MLOAD PUSH2 0x2BF SWAP2 SWAP1 PUSH2 0x2061 JUMP JUMPDEST PUSH1 0x40 MLOAD DUP1 SWAP2 SUB SWAP1 RETURN JUMPDEST CALLVALUE DUP1 ISZERO PUSH2 0x2D4 JUMPI PUSH1 0x0 DUP1 REVERT JUMPDEST POP PUSH2 0x2DD PUSH2 0x71A JUMP JUMPDEST PUSH1 0x40 MLOAD PUSH2 0x2EA SWAP2 SWAP1 PUSH2 0x21DE JUMP JUMPDEST PUSH1 0x40 MLOAD DUP1 SWAP2 SUB SWAP1 RETURN JUMPDEST CALLVALUE DUP1 ISZERO PUSH2 0x2FF JUMPI PUSH1 0x0 DUP1 REVERT JUMPDEST POP PUSH2 0x308 PUSH2 0x720 JUMP JUMPDEST PUSH1 0x40 MLOAD PUSH2 0x315 SWAP2 SWAP1 PUSH2 0x2222 JUMP JUMPDEST PUSH1 0x40 MLOAD DUP1 SWAP2 SUB SWAP1 RETURN JUMPDEST CALLVALUE DUP1 ISZERO PUSH2 0x32A JUMPI PUSH1 0x0 DUP1 REVERT JUMPDEST POP PUSH2 0x333 PUSH2 0x733 JUMP JUMPDEST STOP JUMPDEST CALLVALUE DUP1 ISZERO PUSH2 0x341 JUMPI PUSH1 0x0 DUP1 REVERT JUMPDEST POP PUSH2 0x35C PUSH1 0x4 DUP1 CALLDATASIZE SUB DUP2 ADD SWAP1 PUSH2 0x357 SWAP2 SWAP1 PUSH2 0x1425 JUMP JUMPDEST PUSH2 0x886 JUMP JUMPDEST PUSH1 0x40 MLOAD PUSH2 0x369 SWAP2 SWAP1 PUSH2 0x1FDF JUMP JUMPDEST PUSH1 0x40 MLOAD DUP1 SWAP2 SUB SWAP1 RETURN JUMPDEST PUSH2 0x38C PUSH1 0x4 DUP1 CALLDATASIZE SUB DUP2 ADD SWAP1 PUSH2 0x387 SWAP2 SWAP1 PUSH2 0x13AF JUMP JUMPDEST PUSH2 0x9D6 JUMP JUMPDEST STOP JUMPDEST CALLVALUE DUP1 ISZERO PUSH2 0x39A JUMPI PUSH1 0x0 DUP1 REVERT JUMPDEST POP PUSH2 0x3B5 PUSH1 0x4 DUP1 CALLDATASIZE SUB DUP2 ADD SWAP1 PUSH2 0x3B0 SWAP2 SWAP1 PUSH2 0x1452 JUMP JUMPDEST PUSH2 0xB77 JUMP JUMPDEST PUSH1 0x40 MLOAD PUSH2 0x3C2 SWAP2 SWAP1 PUSH2 0x1FC4 JUMP JUMPDEST PUSH1 0x40 MLOAD DUP1 SWAP2 SUB SWAP1 RETURN JUMPDEST CALLVALUE DUP1 ISZERO PUSH2 0x3D7 JUMPI PUSH1 0x0 DUP1 REVERT JUMPDEST POP PUSH2 0x3F2 PUSH1 0x4 DUP1 CALLDATASIZE SUB DUP2 ADD SWAP1 PUSH2 0x3ED SWAP2 SWAP1 PUSH2 0x13AF JUMP JUMPDEST PUSH2 0xBC5 JUMP JUMPDEST STOP JUMPDEST CALLVALUE DUP1 ISZERO PUSH2 0x400 JUMPI PUSH1 0x0 DUP1 REVERT JUMPDEST POP PUSH2 0x409 PUSH2 0xC65 JUMP JUMPDEST PUSH1 0x40 MLOAD PUSH2 0x416 SWAP2 SWAP1 PUSH2 0x21DE JUMP JUMPDEST PUSH1 0x40 MLOAD DUP1 SWAP2 SUB SWAP1 RETURN JUMPDEST CALLVALUE DUP1 ISZERO PUSH2 0x42B JUMPI PUSH1 0x0 DUP1 REVERT JUMPDEST POP PUSH2 0x434 PUSH2 0xC6B JUMP JUMPDEST PUSH1 0x40 MLOAD PUSH2 0x441 SWAP2 SWAP1 PUSH2 0x2222 JUMP JUMPDEST PUSH1 0x40 MLOAD DUP1 SWAP2 SUB SWAP1 RETURN JUMPDEST CALLVALUE DUP1 ISZERO PUSH2 0x456 JUMPI PUSH1 0x0 DUP1 REVERT JUMPDEST POP PUSH2 0x45F PUSH2 0xC7E JUMP JUMPDEST PUSH1 0x40 MLOAD PUSH2 0x46C SWAP2 SWAP1 PUSH2 0x1FC4 JUMP JUMPDEST PUSH1 0x40 MLOAD DUP1 SWAP2 SUB SWAP1 RETURN JUMPDEST CALLVALUE DUP1 ISZERO PUSH2 0x481 JUMPI PUSH1 0x0 DUP1 REVERT JUMPDEST POP PUSH2 0x48A PUSH2 0xCA4 JUMP JUMPDEST STOP JUMPDEST CALLVALUE DUP1 ISZERO PUSH2 0x498 JUMPI PUSH1 0x0 DUP1 REVERT JUMPDEST POP PUSH2 0x4B3 PUSH1 0x4 DUP1 CALLDATASIZE SUB DUP2 ADD SWAP1 PUSH2 0x4AE SWAP2 SWAP1 PUSH2 0x13AF JUMP JUMPDEST PUSH2 0xE51 JUMP JUMPDEST PUSH1 0x40 MLOAD PUSH2 0x4C0 SWAP2 SWAP1 PUSH2 0x21DE JUMP JUMPDEST PUSH1 0x40 MLOAD DUP1 SWAP2 SUB SWAP1 RETURN JUMPDEST CALLVALUE DUP1 ISZERO PUSH2 0x4D5 JUMPI PUSH1 0x0 DUP1 REVERT JUMPDEST POP PUSH2 0x4DE PUSH2 0xEB9 JUMP JUMPDEST PUSH1 0x40 MLOAD PUSH2 0x4EB SWAP2 SWAP1 PUSH2 0x21DE JUMP JUMPDEST PUSH1 0x40 MLOAD DUP1 SWAP2 SUB SWAP1 RETURN JUMPDEST CALLVALUE DUP1 ISZERO PUSH2 0x500 JUMPI PUSH1 0x0 DUP1 REVERT JUMPDEST POP PUSH2 0x51B PUSH1 0x4 DUP1 CALLDATASIZE SUB DUP2 ADD SWAP1 PUSH2 0x516 SWAP2 SWAP1 PUSH2 0x1425 JUMP JUMPDEST PUSH2 0xEBF JUMP JUMPDEST STOP JUMPDEST PUSH1 0x7 SLOAD DUP2 JUMP JUMPDEST PUSH1 0x0 DUP1 SLOAD PUSH2 0x530 SWAP1 PUSH2 0x249C JUMP JUMPDEST DUP1 PUSH1 0x1F ADD PUSH1 0x20 DUP1 SWAP2 DIV MUL PUSH1 0x20 ADD PUSH1 0x40 MLOAD SWAP1 DUP2 ADD PUSH1 0x40 MSTORE DUP1 SWAP3 SWAP2 SWAP1 DUP2 DUP2 MSTORE PUSH1 0x20 ADD DUP3 DUP1 SLOAD PUSH2 0x55C SWAP1 PUSH2 0x249C JUMP JUMPDEST DUP1 ISZERO PUSH2 0x5A9 JUMPI DUP1 PUSH1 0x1F LT PUSH2 0x57E JUMPI PUSH2 0x100 DUP1 DUP4 SLOAD DIV MUL DUP4 MSTORE SWAP2 PUSH1 0x20 ADD SWAP2 PUSH2 0x5A9 JUMP JUMPDEST DUP3 ADD SWAP2 SWAP1 PUSH1 0x0 MSTORE PUSH1 0x20 PUSH1 0x0 KECCAK256 SWAP1 JUMPDEST DUP2 SLOAD DUP2 MSTORE SWAP1 PUSH1 0x1 ADD SWAP1 PUSH1 0x20 ADD DUP1 DUP4 GT PUSH2 0x58C JUMPI DUP3 SWAP1 SUB PUSH1 0x1F AND DUP3 ADD SWAP2 JUMPDEST POP POP POP POP POP DUP2 JUMP JUMPDEST PUSH1 0x4 SLOAD DUP2 JUMP JUMPDEST PUSH1 0x0 DUP1 PUSH1 0x0 SWAP1 POP JUMPDEST DUP3 MLOAD DUP2 PUSH1 0xFF AND LT ISZERO PUSH2 0x64D JUMPI PUSH1 0x0 DUP4 DUP3 PUSH1 0xFF AND DUP2 MLOAD DUP2 LT PUSH2 0x5E3 JUMPI PUSH2 0x5E2 PUSH2 0x2970 JUMP JUMPDEST JUMPDEST PUSH1 0x20 MUL PUSH1 0x20 ADD ADD MLOAD PUSH1 0xFF AND EQ DUP1 PUSH2 0x62B JUMPI POP PUSH1 0x2 PUSH1 0x0 SWAP1 SLOAD SWAP1 PUSH2 0x100 EXP SWAP1 DIV PUSH1 0xFF AND PUSH1 0xFF AND DUP4 DUP3 PUSH1 0xFF AND DUP2 MLOAD DUP2 LT PUSH2 0x61E JUMPI PUSH2 0x61D PUSH2 0x2970 JUMP JUMPDEST JUMPDEST PUSH1 0x20 MUL PUSH1 0x20 ADD ADD MLOAD PUSH1 0xFF AND GT JUMPDEST ISZERO PUSH2 0x63A JUMPI PUSH1 0x0 SWAP2 POP POP PUSH2 0x653 JUMP JUMPDEST DUP1 DUP1 PUSH2 0x645 SWAP1 PUSH2 0x2888 JUMP JUMPDEST SWAP2 POP POP PUSH2 0x5BF JUMP JUMPDEST POP PUSH1 0x1 SWAP1 POP JUMPDEST SWAP2 SWAP1 POP JUMP JUMPDEST PUSH1 0xA PUSH1 0x0 SWAP1 SLOAD SWAP1 PUSH2 0x100 EXP SWAP1 DIV PUSH1 0xFF AND DUP2 JUMP JUMPDEST PUSH1 0x0 DUP1 PUSH1 0x0 SWAP1 POP JUMPDEST DUP3 MLOAD DUP2 PUSH1 0xFF AND LT ISZERO PUSH2 0x6C7 JUMPI DUP4 PUSH1 0xFF AND DUP4 DUP3 PUSH1 0xFF AND DUP2 MLOAD DUP2 LT PUSH2 0x699 JUMPI PUSH2 0x698 PUSH2 0x2970 JUMP JUMPDEST JUMPDEST PUSH1 0x20 MUL PUSH1 0x20 ADD ADD MLOAD PUSH1 0xFF AND EQ ISZERO PUSH2 0x6B4 JUMPI PUSH1 0x1 SWAP2 POP POP PUSH2 0x6CD JUMP JUMPDEST DUP1 DUP1 PUSH2 0x6BF SWAP1 PUSH2 0x2888 JUMP JUMPDEST SWAP2 POP POP PUSH2 0x673 JUMP JUMPDEST POP PUSH1 0x0 SWAP1 POP JUMPDEST SWAP3 SWAP2 POP POP JUMP JUMPDEST PUSH1 0x3 DUP2 DUP2 SLOAD DUP2 LT PUSH2 0x6E3 JUMPI PUSH1 0x0 DUP1 REVERT JUMPDEST SWAP1 PUSH1 0x0 MSTORE PUSH1 0x20 PUSH1 0x0 KECCAK256 SWAP1 PUSH1 0x20 SWAP2 DUP3 DUP3 DIV ADD SWAP2 SWAP1 MOD SWAP2 POP SLOAD SWAP1 PUSH2 0x100 EXP SWAP1 DIV PUSH1 0xFF AND DUP2 JUMP JUMPDEST PUSH1 0x8 PUSH1 0x14 SWAP1 SLOAD SWAP1 PUSH2 0x100 EXP SWAP1 DIV PUSH1 0xFF AND DUP2 JUMP JUMPDEST PUSH1 0x6 SLOAD DUP2 JUMP JUMPDEST PUSH1 0x2 PUSH1 0x0 SWAP1 SLOAD SWAP1 PUSH2 0x100 EXP SWAP1 DIV PUSH1 0xFF AND DUP2 JUMP JUMPDEST PUSH1 0x8 PUSH1 0x14 SWAP1 SLOAD SWAP1 PUSH2 0x100 EXP SWAP1 DIV PUSH1 0xFF AND PUSH2 0x782 JUMPI PUSH1 0x40 MLOAD PUSH32 0x8C379A000000000000000000000000000000000000000000000000000000000 DUP2 MSTORE PUSH1 0x4 ADD PUSH2 0x779 SWAP1 PUSH2 0x217E JUMP JUMPDEST PUSH1 0x40 MLOAD DUP1 SWAP2 SUB SWAP1 REVERT JUMPDEST PUSH1 0xA PUSH1 0x0 SWAP1 SLOAD SWAP1 PUSH2 0x100 EXP SWAP1 DIV PUSH1 0xFF AND PUSH2 0x7D1 JUMPI PUSH1 0x40 MLOAD PUSH32 0x8C379A000000000000000000000000000000000000000000000000000000000 DUP2 MSTORE PUSH1 0x4 ADD PUSH2 0x7C8 SWAP1 PUSH2 0x219E JUMP JUMPDEST PUSH1 0x40 MLOAD DUP1 SWAP2 SUB SWAP1 REVERT JUMPDEST PUSH2 0x7DC PUSH1 0x9 SLOAD PUSH2 0x886 JUMP JUMPDEST PUSH1 0x3 SWAP1 DUP1 MLOAD SWAP1 PUSH1 0x20 ADD SWAP1 PUSH2 0x7F1 SWAP3 SWAP2 SWAP1 PUSH2 0x120E JUMP JUMPDEST POP PUSH32 0xFEBF534A11985149A5C6F9DB799E3FD83BEE80A2726A5B1EA9AA7FEA0CBE6A21 PUSH1 0x3 PUSH1 0x4 SLOAD PUSH1 0x40 MLOAD PUSH2 0x826 SWAP3 SWAP2 SWAP1 PUSH2 0x2031 JUMP JUMPDEST PUSH1 0x40 MLOAD DUP1 SWAP2 SUB SWAP1 LOG1 PUSH2 0x836 PUSH2 0xFB1 JUMP JUMPDEST PUSH1 0x4 PUSH1 0x0 DUP2 SLOAD DUP1 SWAP3 SWAP2 SWAP1 PUSH2 0x849 SWAP1 PUSH2 0x283F JUMP JUMPDEST SWAP2 SWAP1 POP SSTORE POP PUSH1 0x0 PUSH1 0x8 PUSH1 0x14 PUSH2 0x100 EXP DUP2 SLOAD DUP2 PUSH1 0xFF MUL NOT AND SWAP1 DUP4 ISZERO ISZERO MUL OR SWAP1 SSTORE POP PUSH1 0x0 PUSH1 0xA PUSH1 0x0 PUSH2 0x100 EXP DUP2 SLOAD DUP2 PUSH1 0xFF MUL NOT AND SWAP1 DUP4 ISZERO ISZERO MUL OR SWAP1 SSTORE POP JUMP JUMPDEST PUSH1 0x60 PUSH1 0x2 PUSH1 0x1 SWAP1 SLOAD SWAP1 PUSH2 0x100 EXP SWAP1 DIV PUSH1 0xFF AND PUSH1 0xFF AND PUSH8 0xFFFFFFFFFFFFFFFF DUP2 GT ISZERO PUSH2 0x8B4 JUMPI PUSH2 0x8B3 PUSH2 0x299F JUMP JUMPDEST JUMPDEST PUSH1 0x40 MLOAD SWAP1 DUP1 DUP3 MSTORE DUP1 PUSH1 0x20 MUL PUSH1 0x20 ADD DUP3 ADD PUSH1 0x40 MSTORE DUP1 ISZERO PUSH2 0x8E2 JUMPI DUP2 PUSH1 0x20 ADD PUSH1 0x20 DUP3 MUL DUP1 CALLDATASIZE DUP4 CALLDATACOPY DUP1 DUP3 ADD SWAP2 POP POP SWAP1 POP JUMPDEST POP SWAP1 POP PUSH1 0x0 DUP1 JUMPDEST PUSH1 0x2 PUSH1 0x1 SWAP1 SLOAD SWAP1 PUSH2 0x100 EXP SWAP1 DIV PUSH1 0xFF AND PUSH1 0xFF AND DUP3 PUSH1 0xFF AND LT ISZERO PUSH2 0x9CF JUMPI PUSH1 0x0 PUSH1 0x1 PUSH1 0x2 PUSH1 0x0 SWAP1 SLOAD SWAP1 PUSH2 0x100 EXP SWAP1 DIV PUSH1 0xFF AND PUSH1 0xFF AND DUP7 DUP5 PUSH1 0x40 MLOAD PUSH1 0x20 ADD PUSH2 0x930 SWAP3 SWAP2 SWAP1 PUSH2 0x21F9 JUMP JUMPDEST PUSH1 0x40 MLOAD PUSH1 0x20 DUP2 DUP4 SUB SUB DUP2 MSTORE SWAP1 PUSH1 0x40 MSTORE DUP1 MLOAD SWAP1 PUSH1 0x20 ADD KECCAK256 PUSH1 0x0 SHR PUSH2 0x953 SWAP2 SWAP1 PUSH2 0x28B2 JUMP JUMPDEST PUSH2 0x95D SWAP2 SWAP1 PUSH2 0x230E JUMP JUMPDEST SWAP1 POP PUSH2 0x969 DUP2 DUP6 PUSH2 0x66B JUMP JUMPDEST ISZERO PUSH2 0x982 JUMPI DUP2 DUP1 PUSH2 0x979 SWAP1 PUSH2 0x283F JUMP JUMPDEST SWAP3 POP POP POP PUSH2 0x8E9 JUMP JUMPDEST DUP1 DUP5 DUP5 PUSH1 0xFF AND DUP2 MLOAD DUP2 LT PUSH2 0x999 JUMPI PUSH2 0x998 PUSH2 0x2970 JUMP JUMPDEST JUMPDEST PUSH1 0x20 MUL PUSH1 0x20 ADD ADD SWAP1 PUSH1 0xFF AND SWAP1 DUP2 PUSH1 0xFF AND DUP2 MSTORE POP POP DUP3 DUP1 PUSH2 0x9B8 SWAP1 PUSH2 0x2888 JUMP JUMPDEST SWAP4 POP POP DUP2 DUP1 PUSH2 0x9C6 SWAP1 PUSH2 0x283F JUMP JUMPDEST SWAP3 POP POP POP PUSH2 0x8E9 JUMP JUMPDEST POP POP SWAP2 SWAP1 POP JUMP JUMPDEST PUSH1 0x1 SLOAD CALLVALUE EQ PUSH2 0xA1A JUMPI PUSH1 0x40 MLOAD PUSH32 0x8C379A000000000000000000000000000000000000000000000000000000000 DUP2 MSTORE PUSH1 0x4 ADD PUSH2 0xA11 SWAP1 PUSH2 0x20DE JUMP JUMPDEST PUSH1 0x40 MLOAD DUP1 SWAP2 SUB SWAP1 REVERT JUMPDEST PUSH1 0x0 ISZERO ISZERO PUSH1 0x8 PUSH1 0x14 SWAP1 SLOAD SWAP1 PUSH2 0x100 EXP SWAP1 DIV PUSH1 0xFF AND ISZERO ISZERO EQ PUSH2 0xA70 JUMPI PUSH1 0x40 MLOAD PUSH32 0x8C379A000000000000000000000000000000000000000000000000000000000 DUP2 MSTORE PUSH1 0x4 ADD PUSH2 0xA67 SWAP1 PUSH2 0x213E JUMP JUMPDEST PUSH1 0x40 MLOAD DUP1 SWAP2 SUB SWAP1 REVERT JUMPDEST PUSH2 0xA79 DUP2 PUSH2 0xBC5 JUMP JUMPDEST PUSH1 0x5 PUSH1 0x0 PUSH2 0xA86 DUP4 PUSH2 0xE51 JUMP JUMPDEST PUSH1 0x4 SLOAD PUSH1 0x40 MLOAD PUSH1 0x20 ADD PUSH2 0xA9A SWAP3 SWAP2 SWAP1 PUSH2 0x21F9 JUMP JUMPDEST PUSH1 0x40 MLOAD PUSH1 0x20 DUP2 DUP4 SUB SUB DUP2 MSTORE SWAP1 PUSH1 0x40 MSTORE DUP1 MLOAD SWAP1 PUSH1 0x20 ADD KECCAK256 PUSH1 0x0 SHR DUP2 MSTORE PUSH1 0x20 ADD SWAP1 DUP2 MSTORE PUSH1 0x20 ADD PUSH1 0x0 KECCAK256 CALLER SWAP1 DUP1 PUSH1 0x1 DUP2 SLOAD ADD DUP1 DUP3 SSTORE DUP1 SWAP2 POP POP PUSH1 0x1 SWAP1 SUB SWAP1 PUSH1 0x0 MSTORE PUSH1 0x20 PUSH1 0x0 KECCAK256 ADD PUSH1 0x0 SWAP1 SWAP2 SWAP1 SWAP2 SWAP1 SWAP2 PUSH2 0x100 EXP DUP2 SLOAD DUP2 PUSH20 0xFFFFFFFFFFFFFFFFFFFFFFFFFFFFFFFFFFFFFFFF MUL NOT AND SWAP1 DUP4 PUSH20 0xFFFFFFFFFFFFFFFFFFFFFFFFFFFFFFFFFFFFFFFF AND MUL OR SWAP1 SSTORE POP CALLER PUSH20 0xFFFFFFFFFFFFFFFFFFFFFFFFFFFFFFFFFFFFFFFF AND PUSH32 0xDB457A8286185FE9D46C5C69E68ED86DF699C2C02066412781E9DD9A12AF4B45 DUP3 PUSH1 0x4 SLOAD PUSH1 0x40 MLOAD PUSH2 0xB6C SWAP3 SWAP2 SWAP1 PUSH2 0x2001 JUMP JUMPDEST PUSH1 0x40 MLOAD DUP1 SWAP2 SUB SWAP1 LOG2 POP JUMP JUMPDEST PUSH1 0x5 PUSH1 0x20 MSTORE DUP2 PUSH1 0x0 MSTORE PUSH1 0x40 PUSH1 0x0 KECCAK256 DUP2 DUP2 SLOAD DUP2 LT PUSH2 0xB93 JUMPI PUSH1 0x0 DUP1 REVERT JUMPDEST SWAP1 PUSH1 0x0 MSTORE PUSH1 0x20 PUSH1 0x0 KECCAK256 ADD PUSH1 0x0 SWAP2 POP SWAP2 POP SWAP1 SLOAD SWAP1 PUSH2 0x100 EXP SWAP1 DIV PUSH20 0xFFFFFFFFFFFFFFFFFFFFFFFFFFFFFFFFFFFFFFFF AND DUP2 JUMP JUMPDEST PUSH2 0xBCE DUP2 PUSH2 0x5B7 JUMP JUMPDEST PUSH2 0xC0D JUMPI PUSH1 0x40 MLOAD PUSH32 0x8C379A000000000000000000000000000000000000000000000000000000000 DUP2 MSTORE PUSH1 0x4 ADD PUSH2 0xC04 SWAP1 PUSH2 0x209E JUMP JUMPDEST PUSH1 0x40 MLOAD DUP1 SWAP2 SUB SWAP1 REVERT JUMPDEST PUSH1 0x2 PUSH1 0x1 SWAP1 SLOAD SWAP1 PUSH2 0x100 EXP SWAP1 DIV PUSH1 0xFF AND PUSH1 0xFF AND DUP2 MLOAD EQ PUSH2 0xC62 JUMPI PUSH1 0x40 MLOAD PUSH32 0x8C379A000000000000000000000000000000000000000000000000000000000 DUP2 MSTORE PUSH1 0x4 ADD PUSH2 0xC59 SWAP1 PUSH2 0x215E JUMP JUMPDEST PUSH1 0x40 MLOAD DUP1 SWAP2 SUB SWAP1 REVERT JUMPDEST POP JUMP JUMPDEST PUSH1 0x1 SLOAD DUP2 JUMP JUMPDEST PUSH1 0x2 PUSH1 0x1 SWAP1 SLOAD SWAP1 PUSH2 0x100 EXP SWAP1 DIV PUSH1 0xFF AND DUP2 JUMP JUMPDEST PUSH1 0x8 PUSH1 0x0 SWAP1 SLOAD SWAP1 PUSH2 0x100 EXP SWAP1 DIV PUSH20 0xFFFFFFFFFFFFFFFFFFFFFFFFFFFFFFFFFFFFFFFF AND DUP2 JUMP JUMPDEST PUSH1 0x7 SLOAD PUSH1 0x6 SLOAD TIMESTAMP PUSH2 0xCB5 SWAP2 SWAP1 PUSH2 0x2395 JUMP JUMPDEST GT PUSH2 0xCF5 JUMPI PUSH1 0x40 MLOAD PUSH32 0x8C379A000000000000000000000000000000000000000000000000000000000 DUP2 MSTORE PUSH1 0x4 ADD PUSH2 0xCEC SWAP1 PUSH2 0x20FE JUMP JUMPDEST PUSH1 0x40 MLOAD DUP1 SWAP2 SUB SWAP1 REVERT JUMPDEST PUSH1 0x0 ISZERO ISZERO PUSH1 0x8 PUSH1 0x14 SWAP1 SLOAD SWAP1 PUSH2 0x100 EXP SWAP1 DIV PUSH1 0xFF AND ISZERO ISZERO EQ PUSH2 0xD4B JUMPI PUSH1 0x40 MLOAD PUSH32 0x8C379A000000000000000000000000000000000000000000000000000000000 DUP2 MSTORE PUSH1 0x4 ADD PUSH2 0xD42 SWAP1 PUSH2 0x211E JUMP JUMPDEST PUSH1 0x40 MLOAD DUP1 SWAP2 SUB SWAP1 REVERT JUMPDEST PUSH1 0x1 PUSH1 0x8 PUSH1 0x14 PUSH2 0x100 EXP DUP2 SLOAD DUP2 PUSH1 0xFF MUL NOT AND SWAP1 DUP4 ISZERO ISZERO MUL OR SWAP1 SSTORE POP TIMESTAMP PUSH1 0x6 DUP2 SWAP1 SSTORE POP PUSH1 0x0 PUSH1 0x8 PUSH1 0x0 SWAP1 SLOAD SWAP1 PUSH2 0x100 EXP SWAP1 DIV PUSH20 0xFFFFFFFFFFFFFFFFFFFFFFFFFFFFFFFFFFFFFFFF AND SWAP1 POP DUP1 PUSH20 0xFFFFFFFFFFFFFFFFFFFFFFFFFFFFFFFFFFFFFFFF AND PUSH4 0xDBDFF2C1 PUSH1 0x40 MLOAD DUP2 PUSH4 0xFFFFFFFF AND PUSH1 0xE0 SHL DUP2 MSTORE PUSH1 0x4 ADD PUSH1 0x20 PUSH1 0x40 MLOAD DUP1 DUP4 SUB DUP2 PUSH1 0x0 DUP8 DUP1 EXTCODESIZE ISZERO DUP1 ISZERO PUSH2 0xDDC JUMPI PUSH1 0x0 DUP1 REVERT JUMPDEST POP GAS CALL ISZERO DUP1 ISZERO PUSH2 0xDF0 JUMPI RETURNDATASIZE PUSH1 0x0 DUP1 RETURNDATACOPY RETURNDATASIZE PUSH1 0x0 REVERT JUMPDEST POP POP POP POP PUSH1 0x40 MLOAD RETURNDATASIZE PUSH1 0x1F NOT PUSH1 0x1F DUP3 ADD AND DUP3 ADD DUP1 PUSH1 0x40 MSTORE POP DUP2 ADD SWAP1 PUSH2 0xE14 SWAP2 SWAP1 PUSH2 0x13F8 JUMP JUMPDEST POP PUSH32 0x9AC10FB18C93D33AD7B0A941897AEF048D0F8D30756684E82B4552BA12764D45 PUSH1 0x4 SLOAD PUSH1 0x40 MLOAD PUSH2 0xE46 SWAP2 SWAP1 PUSH2 0x21DE JUMP JUMPDEST PUSH1 0x40 MLOAD DUP1 SWAP2 SUB SWAP1 LOG1 POP JUMP JUMPDEST PUSH1 0x0 DUP1 PUSH1 0x0 SWAP1 POP PUSH1 0x0 JUMPDEST DUP4 MLOAD DUP2 PUSH1 0xFF AND LT ISZERO PUSH2 0xEAF JUMPI PUSH1 0x1 DUP5 DUP3 PUSH1 0xFF AND DUP2 MLOAD DUP2 LT PUSH2 0xE7F JUMPI PUSH2 0xE7E PUSH2 0x2970 JUMP JUMPDEST JUMPDEST PUSH1 0x20 MUL PUSH1 0x20 ADD ADD MLOAD PUSH2 0xE91 SWAP2 SWAP1 PUSH2 0x23C9 JUMP JUMPDEST PUSH1 0xFF AND PUSH1 0x1 SWAP1 SHL DUP3 OR SWAP2 POP DUP1 DUP1 PUSH2 0xEA7 SWAP1 PUSH2 0x2888 JUMP JUMPDEST SWAP2 POP POP PUSH2 0xE5B JUMP JUMPDEST POP DUP1 SWAP2 POP POP SWAP2 SWAP1 POP JUMP JUMPDEST PUSH1 0x9 SLOAD DUP2 JUMP JUMPDEST PUSH1 0x8 PUSH1 0x0 SWAP1 SLOAD SWAP1 PUSH2 0x100 EXP SWAP1 DIV PUSH20 0xFFFFFFFFFFFFFFFFFFFFFFFFFFFFFFFFFFFFFFFF AND PUSH20 0xFFFFFFFFFFFFFFFFFFFFFFFFFFFFFFFFFFFFFFFF AND CALLER PUSH20 0xFFFFFFFFFFFFFFFFFFFFFFFFFFFFFFFFFFFFFFFF AND EQ PUSH2 0xF4F JUMPI PUSH1 0x40 MLOAD PUSH32 0x8C379A000000000000000000000000000000000000000000000000000000000 DUP2 MSTORE PUSH1 0x4 ADD PUSH2 0xF46 SWAP1 PUSH2 0x21BE JUMP JUMPDEST PUSH1 0x40 MLOAD DUP1 SWAP2 SUB SWAP1 REVERT JUMPDEST DUP1 PUSH1 0x9 DUP2 SWAP1 SSTORE POP PUSH1 0x1 PUSH1 0xA PUSH1 0x0 PUSH2 0x100 EXP DUP2 SLOAD DUP2 PUSH1 0xFF MUL NOT AND SWAP1 DUP4 ISZERO ISZERO MUL OR SWAP1 SSTORE POP PUSH32 0x546ACA7B2683440B8F02FA95FAEB8EFC79DD0F16AF3D815A002742EA6F76116C PUSH1 0x9 SLOAD PUSH1 0x4 SLOAD PUSH1 0x40 MLOAD PUSH2 0xFA6 SWAP3 SWAP2 SWAP1 PUSH2 0x21F9 JUMP JUMPDEST PUSH1 0x40 MLOAD DUP1 SWAP2 SUB SWAP1 LOG1 POP JUMP JUMPDEST PUSH1 0x0 PUSH1 0x5 PUSH1 0x0 PUSH2 0x1036 PUSH1 0x3 DUP1 SLOAD DUP1 PUSH1 0x20 MUL PUSH1 0x20 ADD PUSH1 0x40 MLOAD SWAP1 DUP2 ADD PUSH1 0x40 MSTORE DUP1 SWAP3 SWAP2 SWAP1 DUP2 DUP2 MSTORE PUSH1 0x20 ADD DUP3 DUP1 SLOAD DUP1 ISZERO PUSH2 0x102C JUMPI PUSH1 0x20 MUL DUP3 ADD SWAP2 SWAP1 PUSH1 0x0 MSTORE PUSH1 0x20 PUSH1 0x0 KECCAK256 SWAP1 PUSH1 0x0 SWAP1 JUMPDEST DUP3 DUP3 SWAP1 SLOAD SWAP1 PUSH2 0x100 EXP SWAP1 DIV PUSH1 0xFF AND PUSH1 0xFF AND DUP2 MSTORE PUSH1 0x20 ADD SWAP1 PUSH1 0x1 ADD SWAP1 PUSH1 0x20 DUP3 PUSH1 0x0 ADD DIV SWAP3 DUP4 ADD SWAP3 PUSH1 0x1 SUB DUP3 MUL SWAP2 POP DUP1 DUP5 GT PUSH2 0xFF5 JUMPI SWAP1 POP JUMPDEST POP POP POP POP POP PUSH2 0xE51 JUMP JUMPDEST PUSH1 0x4 SLOAD PUSH1 0x40 MLOAD PUSH1 0x20 ADD PUSH2 0x104A SWAP3 SWAP2 SWAP1 PUSH2 0x21F9 JUMP JUMPDEST PUSH1 0x40 MLOAD PUSH1 0x20 DUP2 DUP4 SUB SUB DUP2 MSTORE SWAP1 PUSH1 0x40 MSTORE DUP1 MLOAD SWAP1 PUSH1 0x20 ADD KECCAK256 PUSH1 0x0 SHR DUP2 MSTORE PUSH1 0x20 ADD SWAP1 DUP2 MSTORE PUSH1 0x20 ADD PUSH1 0x0 KECCAK256 DUP1 SLOAD DUP1 PUSH1 0x20 MUL PUSH1 0x20 ADD PUSH1 0x40 MLOAD SWAP1 DUP2 ADD PUSH1 0x40 MSTORE DUP1 SWAP3 SWAP2 SWAP1 DUP2 DUP2 MSTORE PUSH1 0x20 ADD DUP3 DUP1 SLOAD DUP1 ISZERO PUSH2 0x10F1 JUMPI PUSH1 0x20 MUL DUP3 ADD SWAP2 SWAP1 PUSH1 0x0 MSTORE PUSH1 0x20 PUSH1 0x0 KECCAK256 SWAP1 JUMPDEST DUP2 PUSH1 0x0 SWAP1 SLOAD SWAP1 PUSH2 0x100 EXP SWAP1 DIV PUSH20 0xFFFFFFFFFFFFFFFFFFFFFFFFFFFFFFFFFFFFFFFF AND PUSH20 0xFFFFFFFFFFFFFFFFFFFFFFFFFFFFFFFFFFFFFFFF AND DUP2 MSTORE PUSH1 0x20 ADD SWAP1 PUSH1 0x1 ADD SWAP1 DUP1 DUP4 GT PUSH2 0x10A7 JUMPI JUMPDEST POP POP POP POP POP SWAP1 POP PUSH1 0x0 DUP2 MLOAD EQ ISZERO PUSH2 0x1108 JUMPI POP PUSH2 0x120C JUMP JUMPDEST PUSH1 0x0 DUP2 MLOAD SELFBALANCE PUSH2 0x1117 SWAP2 SWAP1 PUSH2 0x2364 JUMP JUMPDEST SWAP1 POP PUSH1 0x0 JUMPDEST DUP3 MLOAD DUP2 LT ISZERO PUSH2 0x1208 JUMPI PUSH1 0x0 DUP4 DUP3 DUP2 MLOAD DUP2 LT PUSH2 0x113A JUMPI PUSH2 0x1139 PUSH2 0x2970 JUMP JUMPDEST JUMPDEST PUSH1 0x20 MUL PUSH1 0x20 ADD ADD MLOAD SWAP1 POP PUSH1 0x0 DUP1 DUP3 PUSH20 0xFFFFFFFFFFFFFFFFFFFFFFFFFFFFFFFFFFFFFFFF AND DUP6 PUSH1 0x40 MLOAD PUSH2 0x116B SWAP1 PUSH2 0x1FAF JUMP JUMPDEST PUSH1 0x0 PUSH1 0x40 MLOAD DUP1 DUP4 SUB DUP2 DUP6 DUP8 GAS CALL SWAP3 POP POP POP RETURNDATASIZE DUP1 PUSH1 0x0 DUP2 EQ PUSH2 0x11A8 JUMPI PUSH1 0x40 MLOAD SWAP2 POP PUSH1 0x1F NOT PUSH1 0x3F RETURNDATASIZE ADD AND DUP3 ADD PUSH1 0x40 MSTORE RETURNDATASIZE DUP3 MSTORE RETURNDATASIZE PUSH1 0x0 PUSH1 0x20 DUP5 ADD RETURNDATACOPY PUSH2 0x11AD JUMP JUMPDEST PUSH1 0x60 SWAP2 POP JUMPDEST POP SWAP2 POP SWAP2 POP DUP2 PUSH2 0x11F2 JUMPI PUSH1 0x40 MLOAD PUSH32 0x8C379A000000000000000000000000000000000000000000000000000000000 DUP2 MSTORE PUSH1 0x4 ADD PUSH2 0x11E9 SWAP1 PUSH2 0x20BE JUMP JUMPDEST PUSH1 0x40 MLOAD DUP1 SWAP2 SUB SWAP1 REVERT JUMPDEST POP POP POP DUP1 DUP1 PUSH2 0x1200 SWAP1 PUSH2 0x283F JUMP JUMPDEST SWAP2 POP POP PUSH2 0x111C JUMP JUMPDEST POP POP POP JUMPDEST JUMP JUMPDEST DUP3 DUP1 SLOAD DUP3 DUP3 SSTORE SWAP1 PUSH1 0x0 MSTORE PUSH1 0x20 PUSH1 0x0 KECCAK256 SWAP1 PUSH1 0x1F ADD PUSH1 0x20 SWAP1 DIV DUP2 ADD SWAP3 DUP3 ISZERO PUSH2 0x12A4 JUMPI SWAP2 PUSH1 0x20 MUL DUP3 ADD PUSH1 0x0 JUMPDEST DUP4 DUP3 GT ISZERO PUSH2 0x1275 JUMPI DUP4 MLOAD DUP4 DUP3 PUSH2 0x100 EXP DUP2 SLOAD DUP2 PUSH1 0xFF MUL NOT AND SWAP1 DUP4 PUSH1 0xFF AND MUL OR SWAP1 SSTORE POP SWAP3 PUSH1 0x20 ADD SWAP3 PUSH1 0x1 ADD PUSH1 0x20 DUP2 PUSH1 0x0 ADD DIV SWAP3 DUP4 ADD SWAP3 PUSH1 0x1 SUB MUL PUSH2 0x1237 JUMP JUMPDEST DUP1 ISZERO PUSH2 0x12A2 JUMPI DUP3 DUP2 PUSH2 0x100 EXP DUP2 SLOAD SWAP1 PUSH1 0xFF MUL NOT AND SWAP1 SSTORE PUSH1 0x1 ADD PUSH1 0x20 DUP2 PUSH1 0x0 ADD DIV SWAP3 DUP4 ADD SWAP3 PUSH1 0x1 SUB MUL PUSH2 0x1275 JUMP JUMPDEST POP JUMPDEST POP SWAP1 POP PUSH2 0x12B1 SWAP2 SWAP1 PUSH2 0x12B5 JUMP JUMPDEST POP SWAP1 JUMP JUMPDEST JUMPDEST DUP1 DUP3 GT ISZERO PUSH2 0x12CE JUMPI PUSH1 0x0 DUP2 PUSH1 0x0 SWAP1 SSTORE POP PUSH1 0x1 ADD PUSH2 0x12B6 JUMP JUMPDEST POP SWAP1 JUMP JUMPDEST PUSH1 0x0 PUSH2 0x12E5 PUSH2 0x12E0 DUP5 PUSH2 0x2262 JUMP JUMPDEST PUSH2 0x223D JUMP JUMPDEST SWAP1 POP DUP1 DUP4 DUP3 MSTORE PUSH1 0x20 DUP3 ADD SWAP1 POP DUP3 DUP6 PUSH1 0x20 DUP7 MUL DUP3 ADD GT ISZERO PUSH2 0x1308 JUMPI PUSH2 0x1307 PUSH2 0x29D3 JUMP JUMPDEST JUMPDEST PUSH1 0x0 JUMPDEST DUP6 DUP2 LT ISZERO PUSH2 0x1338 JUMPI DUP2 PUSH2 0x131E DUP9 DUP3 PUSH2 0x139A JUMP JUMPDEST DUP5 MSTORE PUSH1 0x20 DUP5 ADD SWAP4 POP PUSH1 0x20 DUP4 ADD SWAP3 POP POP PUSH1 0x1 DUP2 ADD SWAP1 POP PUSH2 0x130B JUMP JUMPDEST POP POP POP SWAP4 SWAP3 POP POP POP JUMP JUMPDEST PUSH1 0x0 DUP3 PUSH1 0x1F DUP4 ADD SLT PUSH2 0x1357 JUMPI PUSH2 0x1356 PUSH2 0x29CE JUMP JUMPDEST JUMPDEST DUP2 CALLDATALOAD PUSH2 0x1367 DUP5 DUP3 PUSH1 0x20 DUP7 ADD PUSH2 0x12D2 JUMP JUMPDEST SWAP2 POP POP SWAP3 SWAP2 POP POP JUMP JUMPDEST PUSH1 0x0 DUP2 MLOAD SWAP1 POP PUSH2 0x137F DUP2 PUSH2 0x2E60 JUMP JUMPDEST SWAP3 SWAP2 POP POP JUMP JUMPDEST PUSH1 0x0 DUP2 CALLDATALOAD SWAP1 POP PUSH2 0x1394 DUP2 PUSH2 0x2E77 JUMP JUMPDEST SWAP3 SWAP2 POP POP JUMP JUMPDEST PUSH1 0x0 DUP2 CALLDATALOAD SWAP1 POP PUSH2 0x13A9 DUP2 PUSH2 0x2E8E JUMP JUMPDEST SWAP3 SWAP2 POP POP JUMP JUMPDEST PUSH1 0x0 PUSH1 0x20 DUP3 DUP5 SUB SLT ISZERO PUSH2 0x13C5 JUMPI PUSH2 0x13C4 PUSH2 0x29DD JUMP JUMPDEST JUMPDEST PUSH1 0x0 DUP3 ADD CALLDATALOAD PUSH8 0xFFFFFFFFFFFFFFFF DUP2 GT ISZERO PUSH2 0x13E3 JUMPI PUSH2 0x13E2 PUSH2 0x29D8 JUMP JUMPDEST JUMPDEST PUSH2 0x13EF DUP5 DUP3 DUP6 ADD PUSH2 0x1342 JUMP JUMPDEST SWAP2 POP POP SWAP3 SWAP2 POP POP JUMP JUMPDEST PUSH1 0x0 PUSH1 0x20 DUP3 DUP5 SUB SLT ISZERO PUSH2 0x140E JUMPI PUSH2 0x140D PUSH2 0x29DD JUMP JUMPDEST JUMPDEST PUSH1 0x0 PUSH2 0x141C DUP5 DUP3 DUP6 ADD PUSH2 0x1370 JUMP JUMPDEST SWAP2 POP POP SWAP3 SWAP2 POP POP JUMP JUMPDEST PUSH1 0x0 PUSH1 0x20 DUP3 DUP5 SUB SLT ISZERO PUSH2 0x143B JUMPI PUSH2 0x143A PUSH2 0x29DD JUMP JUMPDEST JUMPDEST PUSH1 0x0 PUSH2 0x1449 DUP5 DUP3 DUP6 ADD PUSH2 0x1385 JUMP JUMPDEST SWAP2 POP POP SWAP3 SWAP2 POP POP JUMP JUMPDEST PUSH1 0x0 DUP1 PUSH1 0x40 DUP4 DUP6 SUB SLT ISZERO PUSH2 0x1469 JUMPI PUSH2 0x1468 PUSH2 0x29DD JUMP JUMPDEST JUMPDEST PUSH1 0x0 PUSH2 0x1477 DUP6 DUP3 DUP7 ADD PUSH2 0x1385 JUMP JUMPDEST SWAP3 POP POP PUSH1 0x20 PUSH2 0x1488 DUP6 DUP3 DUP7 ADD PUSH2 0x1385 JUMP JUMPDEST SWAP2 POP POP SWAP3 POP SWAP3 SWAP1 POP JUMP JUMPDEST PUSH1 0x0 DUP1 PUSH1 0x40 DUP4 DUP6 SUB SLT ISZERO PUSH2 0x14A9 JUMPI PUSH2 0x14A8 PUSH2 0x29DD JUMP JUMPDEST JUMPDEST PUSH1 0x0 PUSH2 0x14B7 DUP6 DUP3 DUP7 ADD PUSH2 0x139A JUMP JUMPDEST SWAP3 POP POP PUSH1 0x20 DUP4 ADD CALLDATALOAD PUSH8 0xFFFFFFFFFFFFFFFF DUP2 GT ISZERO PUSH2 0x14D8 JUMPI PUSH2 0x14D7 PUSH2 0x29D8 JUMP JUMPDEST JUMPDEST PUSH2 0x14E4 DUP6 DUP3 DUP7 ADD PUSH2 0x1342 JUMP JUMPDEST SWAP2 POP POP SWAP3 POP SWAP3 SWAP1 POP JUMP JUMPDEST PUSH1 0x0 PUSH2 0x14FA DUP4 DUP4 PUSH2 0x1F91 JUMP JUMPDEST PUSH1 0x20 DUP4 ADD SWAP1 POP SWAP3 SWAP2 POP POP JUMP JUMPDEST PUSH2 0x150F DUP2 PUSH2 0x240A JUMP JUMPDEST DUP3 MSTORE POP POP JUMP JUMPDEST PUSH1 0x0 PUSH2 0x1520 DUP3 PUSH2 0x22B3 JUMP JUMPDEST PUSH2 0x152A DUP2 DUP6 PUSH2 0x22E1 JUMP JUMPDEST SWAP4 POP PUSH2 0x1535 DUP4 PUSH2 0x228E JUMP JUMPDEST DUP1 PUSH1 0x0 JUMPDEST DUP4 DUP2 LT ISZERO PUSH2 0x1566 JUMPI DUP2 MLOAD PUSH2 0x154D DUP9 DUP3 PUSH2 0x14EE JUMP JUMPDEST SWAP8 POP PUSH2 0x1558 DUP4 PUSH2 0x22D4 JUMP JUMPDEST SWAP3 POP POP PUSH1 0x1 DUP2 ADD SWAP1 POP PUSH2 0x1539 JUMP JUMPDEST POP DUP6 SWAP4 POP POP POP POP SWAP3 SWAP2 POP POP JUMP JUMPDEST PUSH1 0x0 PUSH2 0x157E DUP3 PUSH2 0x22BE JUMP JUMPDEST PUSH2 0x1588 DUP2 DUP6 PUSH2 0x22E1 JUMP JUMPDEST SWAP4 POP DUP4 PUSH2 0x1594 DUP5 PUSH2 0x229E JUMP JUMPDEST PUSH1 0x0 PUSH1 0x1 ISZERO PUSH2 0x18C1 JUMPI JUMPDEST DUP4 PUSH1 0x1 PUSH1 0x20 SUB DUP3 ADD LT ISZERO PUSH2 0x18C0 JUMPI DUP2 SLOAD PUSH2 0x15C0 DUP9 PUSH2 0x15BB DUP4 PUSH2 0x24CE JUMP JUMPDEST PUSH2 0x1F91 JUMP JUMPDEST PUSH1 0x20 DUP9 ADD SWAP8 POP PUSH2 0x15D8 DUP9 PUSH2 0x15D3 DUP4 PUSH2 0x25EC JUMP JUMPDEST PUSH2 0x1F91 JUMP JUMPDEST PUSH1 0x20 DUP9 ADD SWAP8 POP PUSH2 0x15F0 DUP9 PUSH2 0x15EB DUP4 PUSH2 0x270A JUMP JUMPDEST PUSH2 0x1F91 JUMP JUMPDEST PUSH1 0x20 DUP9 ADD SWAP8 POP PUSH2 0x1608 DUP9 PUSH2 0x1603 DUP4 PUSH2 0x2758 JUMP JUMPDEST PUSH2 0x1F91 JUMP JUMPDEST PUSH1 0x20 DUP9 ADD SWAP8 POP PUSH2 0x1620 DUP9 PUSH2 0x161B DUP4 PUSH2 0x2772 JUMP JUMPDEST PUSH2 0x1F91 JUMP JUMPDEST PUSH1 0x20 DUP9 ADD SWAP8 POP PUSH2 0x1638 DUP9 PUSH2 0x1633 DUP4 PUSH2 0x278C JUMP JUMPDEST PUSH2 0x1F91 JUMP JUMPDEST PUSH1 0x20 DUP9 ADD SWAP8 POP PUSH2 0x1650 DUP9 PUSH2 0x164B DUP4 PUSH2 0x27A6 JUMP JUMPDEST PUSH2 0x1F91 JUMP JUMPDEST PUSH1 0x20 DUP9 ADD SWAP8 POP PUSH2 0x1668 DUP9 PUSH2 0x1663 DUP4 PUSH2 0x27C0 JUMP JUMPDEST PUSH2 0x1F91 JUMP JUMPDEST PUSH1 0x20 DUP9 ADD SWAP8 POP PUSH2 0x1680 DUP9 PUSH2 0x167B DUP4 PUSH2 0x27DA JUMP JUMPDEST PUSH2 0x1F91 JUMP JUMPDEST PUSH1 0x20 DUP9 ADD SWAP8 POP PUSH2 0x1698 DUP9 PUSH2 0x1693 DUP4 PUSH2 0x27F4 JUMP JUMPDEST PUSH2 0x1F91 JUMP JUMPDEST PUSH1 0x20 DUP9 ADD SWAP8 POP PUSH2 0x16B0 DUP9 PUSH2 0x16AB DUP4 PUSH2 0x24E8 JUMP JUMPDEST PUSH2 0x1F91 JUMP JUMPDEST PUSH1 0x20 DUP9 ADD SWAP8 POP PUSH2 0x16C8 DUP9 PUSH2 0x16C3 DUP4 PUSH2 0x2502 JUMP JUMPDEST PUSH2 0x1F91 JUMP JUMPDEST PUSH1 0x20 DUP9 ADD SWAP8 POP PUSH2 0x16E0 DUP9 PUSH2 0x16DB DUP4 PUSH2 0x251C JUMP JUMPDEST PUSH2 0x1F91 JUMP JUMPDEST PUSH1 0x20 DUP9 ADD SWAP8 POP PUSH2 0x16F8 DUP9 PUSH2 0x16F3 DUP4 PUSH2 0x2536 JUMP JUMPDEST PUSH2 0x1F91 JUMP JUMPDEST PUSH1 0x20 DUP9 ADD SWAP8 POP PUSH2 0x1710 DUP9 PUSH2 0x170B DUP4 PUSH2 0x2550 JUMP JUMPDEST PUSH2 0x1F91 JUMP JUMPDEST PUSH1 0x20 DUP9 ADD SWAP8 POP PUSH2 0x1728 DUP9 PUSH2 0x1723 DUP4 PUSH2 0x256A JUMP JUMPDEST PUSH2 0x1F91 JUMP JUMPDEST PUSH1 0x20 DUP9 ADD SWAP8 POP PUSH2 0x1740 DUP9 PUSH2 0x173B DUP4 PUSH2 0x2584 JUMP JUMPDEST PUSH2 0x1F91 JUMP JUMPDEST PUSH1 0x20 DUP9 ADD SWAP8 POP PUSH2 0x1758 DUP9 PUSH2 0x1753 DUP4 PUSH2 0x259E JUMP JUMPDEST PUSH2 0x1F91 JUMP JUMPDEST PUSH1 0x20 DUP9 ADD SWAP8 POP PUSH2 0x1770 DUP9 PUSH2 0x176B DUP4 PUSH2 0x25B8 JUMP JUMPDEST PUSH2 0x1F91 JUMP JUMPDEST PUSH1 0x20 DUP9 ADD SWAP8 POP PUSH2 0x1788 DUP9 PUSH2 0x1783 DUP4 PUSH2 0x25D2 JUMP JUMPDEST PUSH2 0x1F91 JUMP JUMPDEST PUSH1 0x20 DUP9 ADD SWAP8 POP PUSH2 0x17A0 DUP9 PUSH2 0x179B DUP4 PUSH2 0x2606 JUMP JUMPDEST PUSH2 0x1F91 JUMP JUMPDEST PUSH1 0x20 DUP9 ADD SWAP8 POP PUSH2 0x17B8 DUP9 PUSH2 0x17B3 DUP4 PUSH2 0x2620 JUMP JUMPDEST PUSH2 0x1F91 JUMP JUMPDEST PUSH1 0x20 DUP9 ADD SWAP8 POP PUSH2 0x17D0 DUP9 PUSH2 0x17CB DUP4 PUSH2 0x263A JUMP JUMPDEST PUSH2 0x1F91 JUMP JUMPDEST PUSH1 0x20 DUP9 ADD SWAP8 POP PUSH2 0x17E8 DUP9 PUSH2 0x17E3 DUP4 PUSH2 0x2654 JUMP JUMPDEST PUSH2 0x1F91 JUMP JUMPDEST PUSH1 0x20 DUP9 ADD SWAP8 POP PUSH2 0x1800 DUP9 PUSH2 0x17FB DUP4 PUSH2 0x266E JUMP JUMPDEST PUSH2 0x1F91 JUMP JUMPDEST PUSH1 0x20 DUP9 ADD SWAP8 POP PUSH2 0x1818 DUP9 PUSH2 0x1813 DUP4 PUSH2 0x2688 JUMP JUMPDEST PUSH2 0x1F91 JUMP JUMPDEST PUSH1 0x20 DUP9 ADD SWAP8 POP PUSH2 0x1830 DUP9 PUSH2 0x182B DUP4 PUSH2 0x26A2 JUMP JUMPDEST PUSH2 0x1F91 JUMP JUMPDEST PUSH1 0x20 DUP9 ADD SWAP8 POP PUSH2 0x1848 DUP9 PUSH2 0x1843 DUP4 PUSH2 0x26BC JUMP JUMPDEST PUSH2 0x1F91 JUMP JUMPDEST PUSH1 0x20 DUP9 ADD SWAP8 POP PUSH2 0x1860 DUP9 PUSH2 0x185B DUP4 PUSH2 0x26D6 JUMP JUMPDEST PUSH2 0x1F91 JUMP JUMPDEST PUSH1 0x20 DUP9 ADD SWAP8 POP PUSH2 0x1878 DUP9 PUSH2 0x1873 DUP4 PUSH2 0x26F0 JUMP JUMPDEST PUSH2 0x1F91 JUMP JUMPDEST PUSH1 0x20 DUP9 ADD SWAP8 POP PUSH2 0x1890 DUP9 PUSH2 0x188B DUP4 PUSH2 0x2724 JUMP JUMPDEST PUSH2 0x1F91 JUMP JUMPDEST PUSH1 0x20 DUP9 ADD SWAP8 POP PUSH2 0x18A8 DUP9 PUSH2 0x18A3 DUP4 PUSH2 0x273E JUMP JUMPDEST PUSH2 0x1F91 JUMP JUMPDEST PUSH1 0x20 DUP9 ADD SWAP8 POP PUSH1 0x1 DUP4 ADD SWAP3 POP POP PUSH1 0x20 DUP2 ADD SWAP1 POP PUSH2 0x159E JUMP JUMPDEST JUMPDEST PUSH1 0x1 ISZERO PUSH2 0x1DAC JUMPI DUP2 SLOAD DUP5 DUP3 LT ISZERO PUSH2 0x18F1 JUMPI PUSH2 0x18E4 DUP9 PUSH2 0x18DF DUP4 PUSH2 0x24CE JUMP JUMPDEST PUSH2 0x1F91 JUMP JUMPDEST PUSH1 0x20 DUP9 ADD SWAP8 POP PUSH1 0x1 DUP3 ADD SWAP2 POP JUMPDEST DUP5 DUP3 LT ISZERO PUSH2 0x1918 JUMPI PUSH2 0x190B DUP9 PUSH2 0x1906 DUP4 PUSH2 0x25EC JUMP JUMPDEST PUSH2 0x1F91 JUMP JUMPDEST PUSH1 0x20 DUP9 ADD SWAP8 POP PUSH1 0x1 DUP3 ADD SWAP2 POP JUMPDEST DUP5 DUP3 LT ISZERO PUSH2 0x193F JUMPI PUSH2 0x1932 DUP9 PUSH2 0x192D DUP4 PUSH2 0x270A JUMP JUMPDEST PUSH2 0x1F91 JUMP JUMPDEST PUSH1 0x20 DUP9 ADD SWAP8 POP PUSH1 0x1 DUP3 ADD SWAP2 POP JUMPDEST DUP5 DUP3 LT ISZERO PUSH2 0x1966 JUMPI PUSH2 0x1959 DUP9 PUSH2 0x1954 DUP4 PUSH2 0x2758 JUMP JUMPDEST PUSH2 0x1F91 JUMP JUMPDEST PUSH1 0x20 DUP9 ADD SWAP8 POP PUSH1 0x1 DUP3 ADD SWAP2 POP JUMPDEST DUP5 DUP3 LT ISZERO PUSH2 0x198D JUMPI PUSH2 0x1980 DUP9 PUSH2 0x197B DUP4 PUSH2 0x2772 JUMP JUMPDEST PUSH2 0x1F91 JUMP JUMPDEST PUSH1 0x20 DUP9 ADD SWAP8 POP PUSH1 0x1 DUP3 ADD SWAP2 POP JUMPDEST DUP5 DUP3 LT ISZERO PUSH2 0x19B4 JUMPI PUSH2 0x19A7 DUP9 PUSH2 0x19A2 DUP4 PUSH2 0x278C JUMP JUMPDEST PUSH2 0x1F91 JUMP JUMPDEST PUSH1 0x20 DUP9 ADD SWAP8 POP PUSH1 0x1 DUP3 ADD SWAP2 POP JUMPDEST DUP5 DUP3 LT ISZERO PUSH2 0x19DB JUMPI PUSH2 0x19CE DUP9 PUSH2 0x19C9 DUP4 PUSH2 0x27A6 JUMP JUMPDEST PUSH2 0x1F91 JUMP JUMPDEST PUSH1 0x20 DUP9 ADD SWAP8 POP PUSH1 0x1 DUP3 ADD SWAP2 POP JUMPDEST DUP5 DUP3 LT ISZERO PUSH2 0x1A02 JUMPI PUSH2 0x19F5 DUP9 PUSH2 0x19F0 DUP4 PUSH2 0x27C0 JUMP JUMPDEST PUSH2 0x1F91 JUMP JUMPDEST PUSH1 0x20 DUP9 ADD SWAP8 POP PUSH1 0x1 DUP3 ADD SWAP2 POP JUMPDEST DUP5 DUP3 LT ISZERO PUSH2 0x1A29 JUMPI PUSH2 0x1A1C DUP9 PUSH2 0x1A17 DUP4 PUSH2 0x27DA JUMP JUMPDEST PUSH2 0x1F91 JUMP JUMPDEST PUSH1 0x20 DUP9 ADD SWAP8 POP PUSH1 0x1 DUP3 ADD SWAP2 POP JUMPDEST DUP5 DUP3 LT ISZERO PUSH2 0x1A50 JUMPI PUSH2 0x1A43 DUP9 PUSH2 0x1A3E DUP4 PUSH2 0x27F4 JUMP JUMPDEST PUSH2 0x1F91 JUMP JUMPDEST PUSH1 0x20 DUP9 ADD SWAP8 POP PUSH1 0x1 DUP3 ADD SWAP2 POP JUMPDEST DUP5 DUP3 LT ISZERO PUSH2 0x1A77 JUMPI PUSH2 0x1A6A DUP9 PUSH2 0x1A65 DUP4 PUSH2 0x24E8 JUMP JUMPDEST PUSH2 0x1F91 JUMP JUMPDEST PUSH1 0x20 DUP9 ADD SWAP8 POP PUSH1 0x1 DUP3 ADD SWAP2 POP JUMPDEST DUP5 DUP3 LT ISZERO PUSH2 0x1A9E JUMPI PUSH2 0x1A91 DUP9 PUSH2 0x1A8C DUP4 PUSH2 0x2502 JUMP JUMPDEST PUSH2 0x1F91 JUMP JUMPDEST PUSH1 0x20 DUP9 ADD SWAP8 POP PUSH1 0x1 DUP3 ADD SWAP2 POP JUMPDEST DUP5 DUP3 LT ISZERO PUSH2 0x1AC5 JUMPI PUSH2 0x1AB8 DUP9 PUSH2 0x1AB3 DUP4 PUSH2 0x251C JUMP JUMPDEST PUSH2 0x1F91 JUMP JUMPDEST PUSH1 0x20 DUP9 ADD SWAP8 POP PUSH1 0x1 DUP3 ADD SWAP2 POP JUMPDEST DUP5 DUP3 LT ISZERO PUSH2 0x1AEC JUMPI PUSH2 0x1ADF DUP9 PUSH2 0x1ADA DUP4 PUSH2 0x2536 JUMP JUMPDEST PUSH2 0x1F91 JUMP JUMPDEST PUSH1 0x20 DUP9 ADD SWAP8 POP PUSH1 0x1 DUP3 ADD SWAP2 POP JUMPDEST DUP5 DUP3 LT ISZERO PUSH2 0x1B13 JUMPI PUSH2 0x1B06 DUP9 PUSH2 0x1B01 DUP4 PUSH2 0x2550 JUMP JUMPDEST PUSH2 0x1F91 JUMP JUMPDEST PUSH1 0x20 DUP9 ADD SWAP8 POP PUSH1 0x1 DUP3 ADD SWAP2 POP JUMPDEST DUP5 DUP3 LT ISZERO PUSH2 0x1B3A JUMPI PUSH2 0x1B2D DUP9 PUSH2 0x1B28 DUP4 PUSH2 0x256A JUMP JUMPDEST PUSH2 0x1F91 JUMP JUMPDEST PUSH1 0x20 DUP9 ADD SWAP8 POP PUSH1 0x1 DUP3 ADD SWAP2 POP JUMPDEST DUP5 DUP3 LT ISZERO PUSH2 0x1B61 JUMPI PUSH2 0x1B54 DUP9 PUSH2 0x1B4F DUP4 PUSH2 0x2584 JUMP JUMPDEST PUSH2 0x1F91 JUMP JUMPDEST PUSH1 0x20 DUP9 ADD SWAP8 POP PUSH1 0x1 DUP3 ADD SWAP2 POP JUMPDEST DUP5 DUP3 LT ISZERO PUSH2 0x1B88 JUMPI PUSH2 0x1B7B DUP9 PUSH2 0x1B76 DUP4 PUSH2 0x259E JUMP JUMPDEST PUSH2 0x1F91 JUMP JUMPDEST PUSH1 0x20 DUP9 ADD SWAP8 POP PUSH1 0x1 DUP3 ADD SWAP2 POP JUMPDEST DUP5 DUP3 LT ISZERO PUSH2 0x1BAF JUMPI PUSH2 0x1BA2 DUP9 PUSH2 0x1B9D DUP4 PUSH2 0x25B8 JUMP JUMPDEST PUSH2 0x1F91 JUMP JUMPDEST PUSH1 0x20 DUP9 ADD SWAP8 POP PUSH1 0x1 DUP3 ADD SWAP2 POP JUMPDEST DUP5 DUP3 LT ISZERO PUSH2 0x1BD6 JUMPI PUSH2 0x1BC9 DUP9 PUSH2 0x1BC4 DUP4 PUSH2 0x25D2 JUMP JUMPDEST PUSH2 0x1F91 JUMP JUMPDEST PUSH1 0x20 DUP9 ADD SWAP8 POP PUSH1 0x1 DUP3 ADD SWAP2 POP JUMPDEST DUP5 DUP3 LT ISZERO PUSH2 0x1BFD JUMPI PUSH2 0x1BF0 DUP9 PUSH2 0x1BEB DUP4 PUSH2 0x2606 JUMP JUMPDEST PUSH2 0x1F91 JUMP JUMPDEST PUSH1 0x20 DUP9 ADD SWAP8 POP PUSH1 0x1 DUP3 ADD SWAP2 POP JUMPDEST DUP5 DUP3 LT ISZERO PUSH2 0x1C24 JUMPI PUSH2 0x1C17 DUP9 PUSH2 0x1C12 DUP4 PUSH2 0x2620 JUMP JUMPDEST PUSH2 0x1F91 JUMP JUMPDEST PUSH1 0x20 DUP9 ADD SWAP8 POP PUSH1 0x1 DUP3 ADD SWAP2 POP JUMPDEST DUP5 DUP3 LT ISZERO PUSH2 0x1C4B JUMPI PUSH2 0x1C3E DUP9 PUSH2 0x1C39 DUP4 PUSH2 0x263A JUMP JUMPDEST PUSH2 0x1F91 JUMP JUMPDEST PUSH1 0x20 DUP9 ADD SWAP8 POP PUSH1 0x1 DUP3 ADD SWAP2 POP JUMPDEST DUP5 DUP3 LT ISZERO PUSH2 0x1C72 JUMPI PUSH2 0x1C65 DUP9 PUSH2 0x1C60 DUP4 PUSH2 0x2654 JUMP JUMPDEST PUSH2 0x1F91 JUMP JUMPDEST PUSH1 0x20 DUP9 ADD SWAP8 POP PUSH1 0x1 DUP3 ADD SWAP2 POP JUMPDEST DUP5 DUP3 LT ISZERO PUSH2 0x1C99 JUMPI PUSH2 0x1C8C DUP9 PUSH2 0x1C87 DUP4 PUSH2 0x266E JUMP JUMPDEST PUSH2 0x1F91 JUMP JUMPDEST PUSH1 0x20 DUP9 ADD SWAP8 POP PUSH1 0x1 DUP3 ADD SWAP2 POP JUMPDEST DUP5 DUP3 LT ISZERO PUSH2 0x1CC0 JUMPI PUSH2 0x1CB3 DUP9 PUSH2 0x1CAE DUP4 PUSH2 0x2688 JUMP JUMPDEST PUSH2 0x1F91 JUMP JUMPDEST PUSH1 0x20 DUP9 ADD SWAP8 POP PUSH1 0x1 DUP3 ADD SWAP2 POP JUMPDEST DUP5 DUP3 LT ISZERO PUSH2 0x1CE7 JUMPI PUSH2 0x1CDA DUP9 PUSH2 0x1CD5 DUP4 PUSH2 0x26A2 JUMP JUMPDEST PUSH2 0x1F91 JUMP JUMPDEST PUSH1 0x20 DUP9 ADD SWAP8 POP PUSH1 0x1 DUP3 ADD SWAP2 POP JUMPDEST DUP5 DUP3 LT ISZERO PUSH2 0x1D0E JUMPI PUSH2 0x1D01 DUP9 PUSH2 0x1CFC DUP4 PUSH2 0x26BC JUMP JUMPDEST PUSH2 0x1F91 JUMP JUMPDEST PUSH1 0x20 DUP9 ADD SWAP8 POP PUSH1 0x1 DUP3 ADD SWAP2 POP JUMPDEST DUP5 DUP3 LT ISZERO PUSH2 0x1D35 JUMPI PUSH2 0x1D28 DUP9 PUSH2 0x1D23 DUP4 PUSH2 0x26D6 JUMP JUMPDEST PUSH2 0x1F91 JUMP JUMPDEST PUSH1 0x20 DUP9 ADD SWAP8 POP PUSH1 0x1 DUP3 ADD SWAP2 POP JUMPDEST DUP5 DUP3 LT ISZERO PUSH2 0x1D5C JUMPI PUSH2 0x1D4F DUP9 PUSH2 0x1D4A DUP4 PUSH2 0x26F0 JUMP JUMPDEST PUSH2 0x1F91 JUMP JUMPDEST PUSH1 0x20 DUP9 ADD SWAP8 POP PUSH1 0x1 DUP3 ADD SWAP2 POP JUMPDEST DUP5 DUP3 LT ISZERO PUSH2 0x1D83 JUMPI PUSH2 0x1D76 DUP9 PUSH2 0x1D71 DUP4 PUSH2 0x2724 JUMP JUMPDEST PUSH2 0x1F91 JUMP JUMPDEST PUSH1 0x20 DUP9 ADD SWAP8 POP PUSH1 0x1 DUP3 ADD SWAP2 POP JUMPDEST DUP5 DUP3 LT ISZERO PUSH2 0x1DAA JUMPI PUSH2 0x1D9D DUP9 PUSH2 0x1D98 DUP4 PUSH2 0x273E JUMP JUMPDEST PUSH2 0x1F91 JUMP JUMPDEST PUSH1 0x20 DUP9 ADD SWAP8 POP PUSH1 0x1 DUP3 ADD SWAP2 POP JUMPDEST POP JUMPDEST DUP7 SWAP5 POP POP POP POP POP SWAP3 SWAP2 POP POP JUMP JUMPDEST PUSH2 0x1DC2 DUP2 PUSH2 0x241C JUMP JUMPDEST DUP3 MSTORE POP POP JUMP JUMPDEST PUSH1 0x0 PUSH2 0x1DD3 DUP3 PUSH2 0x22C9 JUMP JUMPDEST PUSH2 0x1DDD DUP2 DUP6 PUSH2 0x22FD JUMP JUMPDEST SWAP4 POP PUSH2 0x1DED DUP2 DUP6 PUSH1 0x20 DUP7 ADD PUSH2 0x2469 JUMP JUMPDEST PUSH2 0x1DF6 DUP2 PUSH2 0x29E2 JUMP JUMPDEST DUP5 ADD SWAP2 POP POP SWAP3 SWAP2 POP POP JUMP JUMPDEST PUSH1 0x0 PUSH2 0x1E0E PUSH1 0x46 DUP4 PUSH2 0x22FD JUMP JUMPDEST SWAP2 POP PUSH2 0x1E19 DUP3 PUSH2 0x2B93 JUMP JUMPDEST PUSH1 0x60 DUP3 ADD SWAP1 POP SWAP2 SWAP1 POP JUMP JUMPDEST PUSH1 0x0 PUSH2 0x1E31 PUSH1 0x14 DUP4 PUSH2 0x22FD JUMP JUMPDEST SWAP2 POP PUSH2 0x1E3C DUP3 PUSH2 0x2C08 JUMP JUMPDEST PUSH1 0x20 DUP3 ADD SWAP1 POP SWAP2 SWAP1 POP JUMP JUMPDEST PUSH1 0x0 PUSH2 0x1E54 PUSH1 0x20 DUP4 PUSH2 0x22FD JUMP JUMPDEST SWAP2 POP PUSH2 0x1E5F DUP3 PUSH2 0x2C31 JUMP JUMPDEST PUSH1 0x20 DUP3 ADD SWAP1 POP SWAP2 SWAP1 POP JUMP JUMPDEST PUSH1 0x0 PUSH2 0x1E77 PUSH1 0x36 DUP4 PUSH2 0x22FD JUMP JUMPDEST SWAP2 POP PUSH2 0x1E82 DUP3 PUSH2 0x2C5A JUMP JUMPDEST PUSH1 0x40 DUP3 ADD SWAP1 POP SWAP2 SWAP1 POP JUMP JUMPDEST PUSH1 0x0 PUSH2 0x1E9A PUSH1 0x1B DUP4 PUSH2 0x22FD JUMP JUMPDEST SWAP2 POP PUSH2 0x1EA5 DUP3 PUSH2 0x2CA9 JUMP JUMPDEST PUSH1 0x20 DUP3 ADD SWAP1 POP SWAP2 SWAP1 POP JUMP JUMPDEST PUSH1 0x0 PUSH2 0x1EBD PUSH1 0x24 DUP4 PUSH2 0x22FD JUMP JUMPDEST SWAP2 POP PUSH2 0x1EC8 DUP3 PUSH2 0x2CD2 JUMP JUMPDEST PUSH1 0x40 DUP3 ADD SWAP1 POP SWAP2 SWAP1 POP JUMP JUMPDEST PUSH1 0x0 PUSH2 0x1EE0 PUSH1 0x0 DUP4 PUSH2 0x22F2 JUMP JUMPDEST SWAP2 POP PUSH2 0x1EEB DUP3 PUSH2 0x2D21 JUMP JUMPDEST PUSH1 0x0 DUP3 ADD SWAP1 POP SWAP2 SWAP1 POP JUMP JUMPDEST PUSH1 0x0 PUSH2 0x1F03 PUSH1 0x23 DUP4 PUSH2 0x22FD JUMP JUMPDEST SWAP2 POP PUSH2 0x1F0E DUP3 PUSH2 0x2D24 JUMP JUMPDEST PUSH1 0x40 DUP3 ADD SWAP1 POP SWAP2 SWAP1 POP JUMP JUMPDEST PUSH1 0x0 PUSH2 0x1F26 PUSH1 0x32 DUP4 PUSH2 0x22FD JUMP JUMPDEST SWAP2 POP PUSH2 0x1F31 DUP3 PUSH2 0x2D73 JUMP JUMPDEST PUSH1 0x40 DUP3 ADD SWAP1 POP SWAP2 SWAP1 POP JUMP JUMPDEST PUSH1 0x0 PUSH2 0x1F49 PUSH1 0x27 DUP4 PUSH2 0x22FD JUMP JUMPDEST SWAP2 POP PUSH2 0x1F54 DUP3 PUSH2 0x2DC2 JUMP JUMPDEST PUSH1 0x40 DUP3 ADD SWAP1 POP SWAP2 SWAP1 POP JUMP JUMPDEST PUSH1 0x0 PUSH2 0x1F6C PUSH1 0x27 DUP4 PUSH2 0x22FD JUMP JUMPDEST SWAP2 POP PUSH2 0x1F77 DUP3 PUSH2 0x2E11 JUMP JUMPDEST PUSH1 0x40 DUP3 ADD SWAP1 POP SWAP2 SWAP1 POP JUMP JUMPDEST PUSH2 0x1F8B DUP2 PUSH2 0x2452 JUMP JUMPDEST DUP3 MSTORE POP POP JUMP JUMPDEST PUSH2 0x1F9A DUP2 PUSH2 0x245C JUMP JUMPDEST DUP3 MSTORE POP POP JUMP JUMPDEST PUSH2 0x1FA9 DUP2 PUSH2 0x245C JUMP JUMPDEST DUP3 MSTORE POP POP JUMP JUMPDEST PUSH1 0x0 PUSH2 0x1FBA DUP3 PUSH2 0x1ED3 JUMP JUMPDEST SWAP2 POP DUP2 SWAP1 POP SWAP2 SWAP1 POP JUMP JUMPDEST PUSH1 0x0 PUSH1 0x20 DUP3 ADD SWAP1 POP PUSH2 0x1FD9 PUSH1 0x0 DUP4 ADD DUP5 PUSH2 0x1506 JUMP JUMPDEST SWAP3 SWAP2 POP POP JUMP JUMPDEST PUSH1 0x0 PUSH1 0x20 DUP3 ADD SWAP1 POP DUP2 DUP2 SUB PUSH1 0x0 DUP4 ADD MSTORE PUSH2 0x1FF9 DUP2 DUP5 PUSH2 0x1515 JUMP JUMPDEST SWAP1 POP SWAP3 SWAP2 POP POP JUMP JUMPDEST PUSH1 0x0 PUSH1 0x40 DUP3 ADD SWAP1 POP DUP2 DUP2 SUB PUSH1 0x0 DUP4 ADD MSTORE PUSH2 0x201B DUP2 DUP6 PUSH2 0x1515 JUMP JUMPDEST SWAP1 POP PUSH2 0x202A PUSH1 0x20 DUP4 ADD DUP5 PUSH2 0x1F82 JUMP JUMPDEST SWAP4 SWAP3 POP POP POP JUMP JUMPDEST PUSH1 0x0 PUSH1 0x40 DUP3 ADD SWAP1 POP DUP2 DUP2 SUB PUSH1 0x0 DUP4 ADD MSTORE PUSH2 0x204B DUP2 DUP6 PUSH2 0x1573 JUMP JUMPDEST SWAP1 POP PUSH2 0x205A PUSH1 0x20 DUP4 ADD DUP5 PUSH2 0x1F82 JUMP JUMPDEST SWAP4 SWAP3 POP POP POP JUMP JUMPDEST PUSH1 0x0 PUSH1 0x20 DUP3 ADD SWAP1 POP PUSH2 0x2076 PUSH1 0x0 DUP4 ADD DUP5 PUSH2 0x1DB9 JUMP JUMPDEST SWAP3 SWAP2 POP POP JUMP JUMPDEST PUSH1 0x0 PUSH1 0x20 DUP3 ADD SWAP1 POP DUP2 DUP2 SUB PUSH1 0x0 DUP4 ADD MSTORE PUSH2 0x2096 DUP2 DUP5 PUSH2 0x1DC8 JUMP JUMPDEST SWAP1 POP SWAP3 SWAP2 POP POP JUMP JUMPDEST PUSH1 0x0 PUSH1 0x20 DUP3 ADD SWAP1 POP DUP2 DUP2 SUB PUSH1 0x0 DUP4 ADD MSTORE PUSH2 0x20B7 DUP2 PUSH2 0x1E01 JUMP JUMPDEST SWAP1 POP SWAP2 SWAP1 POP JUMP JUMPDEST PUSH1 0x0 PUSH1 0x20 DUP3 ADD SWAP1 POP DUP2 DUP2 SUB PUSH1 0x0 DUP4 ADD MSTORE PUSH2 0x20D7 DUP2 PUSH2 0x1E24 JUMP JUMPDEST SWAP1 POP SWAP2 SWAP1 POP JUMP JUMPDEST PUSH1 0x0 PUSH1 0x20 DUP3 ADD SWAP1 POP DUP2 DUP2 SUB PUSH1 0x0 DUP4 ADD MSTORE PUSH2 0x20F7 DUP2 PUSH2 0x1E47 JUMP JUMPDEST SWAP1 POP SWAP2 SWAP1 POP JUMP JUMPDEST PUSH1 0x0 PUSH1 0x20 DUP3 ADD SWAP1 POP DUP2 DUP2 SUB PUSH1 0x0 DUP4 ADD MSTORE PUSH2 0x2117 DUP2 PUSH2 0x1E6A JUMP JUMPDEST SWAP1 POP SWAP2 SWAP1 POP JUMP JUMPDEST PUSH1 0x0 PUSH1 0x20 DUP3 ADD SWAP1 POP DUP2 DUP2 SUB PUSH1 0x0 DUP4 ADD MSTORE PUSH2 0x2137 DUP2 PUSH2 0x1E8D JUMP JUMPDEST SWAP1 POP SWAP2 SWAP1 POP JUMP JUMPDEST PUSH1 0x0 PUSH1 0x20 DUP3 ADD SWAP1 POP DUP2 DUP2 SUB PUSH1 0x0 DUP4 ADD MSTORE PUSH2 0x2157 DUP2 PUSH2 0x1EB0 JUMP JUMPDEST SWAP1 POP SWAP2 SWAP1 POP JUMP JUMPDEST PUSH1 0x0 PUSH1 0x20 DUP3 ADD SWAP1 POP DUP2 DUP2 SUB PUSH1 0x0 DUP4 ADD MSTORE PUSH2 0x2177 DUP2 PUSH2 0x1EF6 JUMP JUMPDEST SWAP1 POP SWAP2 SWAP1 POP JUMP JUMPDEST PUSH1 0x0 PUSH1 0x20 DUP3 ADD SWAP1 POP DUP2 DUP2 SUB PUSH1 0x0 DUP4 ADD MSTORE PUSH2 0x2197 DUP2 PUSH2 0x1F19 JUMP JUMPDEST SWAP1 POP SWAP2 SWAP1 POP JUMP JUMPDEST PUSH1 0x0 PUSH1 0x20 DUP3 ADD SWAP1 POP DUP2 DUP2 SUB PUSH1 0x0 DUP4 ADD MSTORE PUSH2 0x21B7 DUP2 PUSH2 0x1F3C JUMP JUMPDEST SWAP1 POP SWAP2 SWAP1 POP JUMP JUMPDEST PUSH1 0x0 PUSH1 0x20 DUP3 ADD SWAP1 POP DUP2 DUP2 SUB PUSH1 0x0 DUP4 ADD MSTORE PUSH2 0x21D7 DUP2 PUSH2 0x1F5F JUMP JUMPDEST SWAP1 POP SWAP2 SWAP1 POP JUMP JUMPDEST PUSH1 0x0 PUSH1 0x20 DUP3 ADD SWAP1 POP PUSH2 0x21F3 PUSH1 0x0 DUP4 ADD DUP5 PUSH2 0x1F82 JUMP JUMPDEST SWAP3 SWAP2 POP POP JUMP JUMPDEST PUSH1 0x0 PUSH1 0x40 DUP3 ADD SWAP1 POP PUSH2 0x220E PUSH1 0x0 DUP4 ADD DUP6 PUSH2 0x1F82 JUMP JUMPDEST PUSH2 0x221B PUSH1 0x20 DUP4 ADD DUP5 PUSH2 0x1F82 JUMP JUMPDEST SWAP4 SWAP3 POP POP POP JUMP JUMPDEST PUSH1 0x0 PUSH1 0x20 DUP3 ADD SWAP1 POP PUSH2 0x2237 PUSH1 0x0 DUP4 ADD DUP5 PUSH2 0x1FA0 JUMP JUMPDEST SWAP3 SWAP2 POP POP JUMP JUMPDEST PUSH1 0x0 PUSH2 0x2247 PUSH2 0x2258 JUMP JUMPDEST SWAP1 POP PUSH2 0x2253 DUP3 DUP3 PUSH2 0x280E JUMP JUMPDEST SWAP2 SWAP1 POP JUMP JUMPDEST PUSH1 0x0 PUSH1 0x40 MLOAD SWAP1 POP SWAP1 JUMP JUMPDEST PUSH1 0x0 PUSH8 0xFFFFFFFFFFFFFFFF DUP3 GT ISZERO PUSH2 0x227D JUMPI PUSH2 0x227C PUSH2 0x299F JUMP JUMPDEST JUMPDEST PUSH1 0x20 DUP3 MUL SWAP1 POP PUSH1 0x20 DUP2 ADD SWAP1 POP SWAP2 SWAP1 POP JUMP JUMPDEST PUSH1 0x0 DUP2 SWAP1 POP PUSH1 0x20 DUP3 ADD SWAP1 POP SWAP2 SWAP1 POP JUMP JUMPDEST PUSH1 0x0 DUP2 SWAP1 POP DUP2 PUSH1 0x0 MSTORE PUSH1 0x20 PUSH1 0x0 KECCAK256 SWAP1 POP SWAP2 SWAP1 POP JUMP JUMPDEST PUSH1 0x0 DUP2 MLOAD SWAP1 POP SWAP2 SWAP1 POP JUMP JUMPDEST PUSH1 0x0 DUP2 SLOAD SWAP1 POP SWAP2 SWAP1 POP JUMP JUMPDEST PUSH1 0x0 DUP2 MLOAD SWAP1 POP SWAP2 SWAP1 POP JUMP JUMPDEST PUSH1 0x0 PUSH1 0x20 DUP3 ADD SWAP1 POP SWAP2 SWAP1 POP JUMP JUMPDEST PUSH1 0x0 DUP3 DUP3 MSTORE PUSH1 0x20 DUP3 ADD SWAP1 POP SWAP3 SWAP2 POP POP JUMP JUMPDEST PUSH1 0x0 DUP2 SWAP1 POP SWAP3 SWAP2 POP POP JUMP JUMPDEST PUSH1 0x0 DUP3 DUP3 MSTORE PUSH1 0x20 DUP3 ADD SWAP1 POP SWAP3 SWAP2 POP POP JUMP JUMPDEST PUSH1 0x0 PUSH2 0x2319 DUP3 PUSH2 0x2452 JUMP JUMPDEST SWAP2 POP PUSH2 0x2324 DUP4 PUSH2 0x2452 JUMP JUMPDEST SWAP3 POP DUP3 PUSH32 0xFFFFFFFFFFFFFFFFFFFFFFFFFFFFFFFFFFFFFFFFFFFFFFFFFFFFFFFFFFFFFFFF SUB DUP3 GT ISZERO PUSH2 0x2359 JUMPI PUSH2 0x2358 PUSH2 0x28E3 JUMP JUMPDEST JUMPDEST DUP3 DUP3 ADD SWAP1 POP SWAP3 SWAP2 POP POP JUMP JUMPDEST PUSH1 0x0 PUSH2 0x236F DUP3 PUSH2 0x2452 JUMP JUMPDEST SWAP2 POP PUSH2 0x237A DUP4 PUSH2 0x2452 JUMP JUMPDEST SWAP3 POP DUP3 PUSH2 0x238A JUMPI PUSH2 0x2389 PUSH2 0x2912 JUMP JUMPDEST JUMPDEST DUP3 DUP3 DIV SWAP1 POP SWAP3 SWAP2 POP POP JUMP JUMPDEST PUSH1 0x0 PUSH2 0x23A0 DUP3 PUSH2 0x2452 JUMP JUMPDEST SWAP2 POP PUSH2 0x23AB DUP4 PUSH2 0x2452 JUMP JUMPDEST SWAP3 POP DUP3 DUP3 LT ISZERO PUSH2 0x23BE JUMPI PUSH2 0x23BD PUSH2 0x28E3 JUMP JUMPDEST JUMPDEST DUP3 DUP3 SUB SWAP1 POP SWAP3 SWAP2 POP POP JUMP JUMPDEST PUSH1 0x0 PUSH2 0x23D4 DUP3 PUSH2 0x245C JUMP JUMPDEST SWAP2 POP PUSH2 0x23DF DUP4 PUSH2 0x245C JUMP JUMPDEST SWAP3 POP DUP3 DUP3 LT ISZERO PUSH2 0x23F2 JUMPI PUSH2 0x23F1 PUSH2 0x28E3 JUMP JUMPDEST JUMPDEST DUP3 DUP3 SUB SWAP1 POP SWAP3 SWAP2 POP POP JUMP JUMPDEST PUSH1 0x0 PUSH1 0xFF DUP3 AND SWAP1 POP SWAP2 SWAP1 POP JUMP JUMPDEST PUSH1 0x0 PUSH2 0x2415 DUP3 PUSH2 0x2432 JUMP JUMPDEST SWAP1 POP SWAP2 SWAP1 POP JUMP JUMPDEST PUSH1 0x0 DUP2 ISZERO ISZERO SWAP1 POP SWAP2 SWAP1 POP JUMP JUMPDEST PUSH1 0x0 DUP2 SWAP1 POP SWAP2 SWAP1 POP JUMP JUMPDEST PUSH1 0x0 PUSH20 0xFFFFFFFFFFFFFFFFFFFFFFFFFFFFFFFFFFFFFFFF DUP3 AND SWAP1 POP SWAP2 SWAP1 POP JUMP JUMPDEST PUSH1 0x0 DUP2 SWAP1 POP SWAP2 SWAP1 POP JUMP JUMPDEST PUSH1 0x0 PUSH1 0xFF DUP3 AND SWAP1 POP SWAP2 SWAP1 POP JUMP JUMPDEST PUSH1 0x0 JUMPDEST DUP4 DUP2 LT ISZERO PUSH2 0x2487 JUMPI DUP1 DUP3 ADD MLOAD DUP2 DUP5 ADD MSTORE PUSH1 0x20 DUP2 ADD SWAP1 POP PUSH2 0x246C JUMP JUMPDEST DUP4 DUP2 GT ISZERO PUSH2 0x2496 JUMPI PUSH1 0x0 DUP5 DUP5 ADD MSTORE JUMPDEST POP POP POP POP JUMP JUMPDEST PUSH1 0x0 PUSH1 0x2 DUP3 DIV SWAP1 POP PUSH1 0x1 DUP3 AND DUP1 PUSH2 0x24B4 JUMPI PUSH1 0x7F DUP3 AND SWAP2 POP JUMPDEST PUSH1 0x20 DUP3 LT DUP2 EQ ISZERO PUSH2 0x24C8 JUMPI PUSH2 0x24C7 PUSH2 0x2941 JUMP JUMPDEST JUMPDEST POP SWAP2 SWAP1 POP JUMP JUMPDEST PUSH1 0x0 PUSH2 0x24E1 PUSH2 0x24DC DUP4 PUSH2 0x29F3 JUMP JUMPDEST PUSH2 0x23FD JUMP JUMPDEST SWAP1 POP SWAP2 SWAP1 POP JUMP JUMPDEST PUSH1 0x0 PUSH2 0x24FB PUSH2 0x24F6 DUP4 PUSH2 0x2B5F JUMP JUMPDEST PUSH2 0x23FD JUMP JUMPDEST SWAP1 POP SWAP2 SWAP1 POP JUMP JUMPDEST PUSH1 0x0 PUSH2 0x2515 PUSH2 0x2510 DUP4 PUSH2 0x2B6C JUMP JUMPDEST PUSH2 0x23FD JUMP JUMPDEST SWAP1 POP SWAP2 SWAP1 POP JUMP JUMPDEST PUSH1 0x0 PUSH2 0x252F PUSH2 0x252A DUP4 PUSH2 0x2B86 JUMP JUMPDEST PUSH2 0x23FD JUMP JUMPDEST SWAP1 POP SWAP2 SWAP1 POP JUMP JUMPDEST PUSH1 0x0 PUSH2 0x2549 PUSH2 0x2544 DUP4 PUSH2 0x2A00 JUMP JUMPDEST PUSH2 0x23FD JUMP JUMPDEST SWAP1 POP SWAP2 SWAP1 POP JUMP JUMPDEST PUSH1 0x0 PUSH2 0x2563 PUSH2 0x255E DUP4 PUSH2 0x2A0D JUMP JUMPDEST PUSH2 0x23FD JUMP JUMPDEST SWAP1 POP SWAP2 SWAP1 POP JUMP JUMPDEST PUSH1 0x0 PUSH2 0x257D PUSH2 0x2578 DUP4 PUSH2 0x2A1A JUMP JUMPDEST PUSH2 0x23FD JUMP JUMPDEST SWAP1 POP SWAP2 SWAP1 POP JUMP JUMPDEST PUSH1 0x0 PUSH2 0x2597 PUSH2 0x2592 DUP4 PUSH2 0x2A27 JUMP JUMPDEST PUSH2 0x23FD JUMP JUMPDEST SWAP1 POP SWAP2 SWAP1 POP JUMP JUMPDEST PUSH1 0x0 PUSH2 0x25B1 PUSH2 0x25AC DUP4 PUSH2 0x2A34 JUMP JUMPDEST PUSH2 0x23FD JUMP JUMPDEST SWAP1 POP SWAP2 SWAP1 POP JUMP JUMPDEST PUSH1 0x0 PUSH2 0x25CB PUSH2 0x25C6 DUP4 PUSH2 0x2A41 JUMP JUMPDEST PUSH2 0x23FD JUMP JUMPDEST SWAP1 POP SWAP2 SWAP1 POP JUMP JUMPDEST PUSH1 0x0 PUSH2 0x25E5 PUSH2 0x25E0 DUP4 PUSH2 0x2A4E JUMP JUMPDEST PUSH2 0x23FD JUMP JUMPDEST SWAP1 POP SWAP2 SWAP1 POP JUMP JUMPDEST PUSH1 0x0 PUSH2 0x25FF PUSH2 0x25FA DUP4 PUSH2 0x2B79 JUMP JUMPDEST PUSH2 0x23FD JUMP JUMPDEST SWAP1 POP SWAP2 SWAP1 POP JUMP JUMPDEST PUSH1 0x0 PUSH2 0x2619 PUSH2 0x2614 DUP4 PUSH2 0x2A5B JUMP JUMPDEST PUSH2 0x23FD JUMP JUMPDEST SWAP1 POP SWAP2 SWAP1 POP JUMP JUMPDEST PUSH1 0x0 PUSH2 0x2633 PUSH2 0x262E DUP4 PUSH2 0x2A68 JUMP JUMPDEST PUSH2 0x23FD JUMP JUMPDEST SWAP1 POP SWAP2 SWAP1 POP JUMP JUMPDEST PUSH1 0x0 PUSH2 0x264D PUSH2 0x2648 DUP4 PUSH2 0x2A82 JUMP JUMPDEST PUSH2 0x23FD JUMP JUMPDEST SWAP1 POP SWAP2 SWAP1 POP JUMP JUMPDEST PUSH1 0x0 PUSH2 0x2667 PUSH2 0x2662 DUP4 PUSH2 0x2A8F JUMP JUMPDEST PUSH2 0x23FD JUMP JUMPDEST SWAP1 POP SWAP2 SWAP1 POP JUMP JUMPDEST PUSH1 0x0 PUSH2 0x2681 PUSH2 0x267C DUP4 PUSH2 0x2A9C JUMP JUMPDEST PUSH2 0x23FD JUMP JUMPDEST SWAP1 POP SWAP2 SWAP1 POP JUMP JUMPDEST PUSH1 0x0 PUSH2 0x269B PUSH2 0x2696 DUP4 PUSH2 0x2AA9 JUMP JUMPDEST PUSH2 0x23FD JUMP JUMPDEST SWAP1 POP SWAP2 SWAP1 POP JUMP JUMPDEST PUSH1 0x0 PUSH2 0x26B5 PUSH2 0x26B0 DUP4 PUSH2 0x2AB6 JUMP JUMPDEST PUSH2 0x23FD JUMP JUMPDEST SWAP1 POP SWAP2 SWAP1 POP JUMP JUMPDEST PUSH1 0x0 PUSH2 0x26CF PUSH2 0x26CA DUP4 PUSH2 0x2AC3 JUMP JUMPDEST PUSH2 0x23FD JUMP JUMPDEST SWAP1 POP SWAP2 SWAP1 POP JUMP JUMPDEST PUSH1 0x0 PUSH2 0x26E9 PUSH2 0x26E4 DUP4 PUSH2 0x2AD0 JUMP JUMPDEST PUSH2 0x23FD JUMP JUMPDEST SWAP1 POP SWAP2 SWAP1 POP JUMP JUMPDEST PUSH1 0x0 PUSH2 0x2703 PUSH2 0x26FE DUP4 PUSH2 0x2ADD JUMP JUMPDEST PUSH2 0x23FD JUMP JUMPDEST SWAP1 POP SWAP2 SWAP1 POP JUMP JUMPDEST PUSH1 0x0 PUSH2 0x271D PUSH2 0x2718 DUP4 PUSH2 0x2A75 JUMP JUMPDEST PUSH2 0x23FD JUMP JUMPDEST SWAP1 POP SWAP2 SWAP1 POP JUMP JUMPDEST PUSH1 0x0 PUSH2 0x2737 PUSH2 0x2732 DUP4 PUSH2 0x2AEA JUMP JUMPDEST PUSH2 0x23FD JUMP JUMPDEST SWAP1 POP SWAP2 SWAP1 POP JUMP JUMPDEST PUSH1 0x0 PUSH2 0x2751 PUSH2 0x274C DUP4 PUSH2 0x2AF7 JUMP JUMPDEST PUSH2 0x23FD JUMP JUMPDEST SWAP1 POP SWAP2 SWAP1 POP JUMP JUMPDEST PUSH1 0x0 PUSH2 0x276B PUSH2 0x2766 DUP4 PUSH2 0x2B04 JUMP JUMPDEST PUSH2 0x23FD JUMP JUMPDEST SWAP1 POP SWAP2 SWAP1 POP JUMP JUMPDEST PUSH1 0x0 PUSH2 0x2785 PUSH2 0x2780 DUP4 PUSH2 0x2B11 JUMP JUMPDEST PUSH2 0x23FD JUMP JUMPDEST SWAP1 POP SWAP2 SWAP1 POP JUMP JUMPDEST PUSH1 0x0 PUSH2 0x279F PUSH2 0x279A DUP4 PUSH2 0x2B1E JUMP JUMPDEST PUSH2 0x23FD JUMP JUMPDEST SWAP1 POP SWAP2 SWAP1 POP JUMP JUMPDEST PUSH1 0x0 PUSH2 0x27B9 PUSH2 0x27B4 DUP4 PUSH2 0x2B2B JUMP JUMPDEST PUSH2 0x23FD JUMP JUMPDEST SWAP1 POP SWAP2 SWAP1 POP JUMP JUMPDEST PUSH1 0x0 PUSH2 0x27D3 PUSH2 0x27CE DUP4 PUSH2 0x2B38 JUMP JUMPDEST PUSH2 0x23FD JUMP JUMPDEST SWAP1 POP SWAP2 SWAP1 POP JUMP JUMPDEST PUSH1 0x0 PUSH2 0x27ED PUSH2 0x27E8 DUP4 PUSH2 0x2B45 JUMP JUMPDEST PUSH2 0x23FD JUMP JUMPDEST SWAP1 POP SWAP2 SWAP1 POP JUMP JUMPDEST PUSH1 0x0 PUSH2 0x2807 PUSH2 0x2802 DUP4 PUSH2 0x2B52 JUMP JUMPDEST PUSH2 0x23FD JUMP JUMPDEST SWAP1 POP SWAP2 SWAP1 POP JUMP JUMPDEST PUSH2 0x2817 DUP3 PUSH2 0x29E2 JUMP JUMPDEST DUP2 ADD DUP2 DUP2 LT PUSH8 0xFFFFFFFFFFFFFFFF DUP3 GT OR ISZERO PUSH2 0x2836 JUMPI PUSH2 0x2835 PUSH2 0x299F JUMP JUMPDEST JUMPDEST DUP1 PUSH1 0x40 MSTORE POP POP POP JUMP JUMPDEST PUSH1 0x0 PUSH2 0x284A DUP3 PUSH2 0x2452 JUMP JUMPDEST SWAP2 POP PUSH32 0xFFFFFFFFFFFFFFFFFFFFFFFFFFFFFFFFFFFFFFFFFFFFFFFFFFFFFFFFFFFFFFFF DUP3 EQ ISZERO PUSH2 0x287D JUMPI PUSH2 0x287C PUSH2 0x28E3 JUMP JUMPDEST JUMPDEST PUSH1 0x1 DUP3 ADD SWAP1 POP SWAP2 SWAP1 POP JUMP JUMPDEST PUSH1 0x0 PUSH2 0x2893 DUP3 PUSH2 0x245C JUMP JUMPDEST SWAP2 POP PUSH1 0xFF DUP3 EQ ISZERO PUSH2 0x28A7 JUMPI PUSH2 0x28A6 PUSH2 0x28E3 JUMP JUMPDEST JUMPDEST PUSH1 0x1 DUP3 ADD SWAP1 POP SWAP2 SWAP1 POP JUMP JUMPDEST PUSH1 0x0 PUSH2 0x28BD DUP3 PUSH2 0x2452 JUMP JUMPDEST SWAP2 POP PUSH2 0x28C8 DUP4 PUSH2 0x2452 JUMP JUMPDEST SWAP3 POP DUP3 PUSH2 0x28D8 JUMPI PUSH2 0x28D7 PUSH2 0x2912 JUMP JUMPDEST JUMPDEST DUP3 DUP3 MOD SWAP1 POP SWAP3 SWAP2 POP POP JUMP JUMPDEST PUSH32 0x4E487B7100000000000000000000000000000000000000000000000000000000 PUSH1 0x0 MSTORE PUSH1 0x11 PUSH1 0x4 MSTORE PUSH1 0x24 PUSH1 0x0 REVERT JUMPDEST PUSH32 0x4E487B7100000000000000000000000000000000000000000000000000000000 PUSH1 0x0 MSTORE PUSH1 0x12 PUSH1 0x4 MSTORE PUSH1 0x24 PUSH1 0x0 REVERT JUMPDEST PUSH32 0x4E487B7100000000000000000000000000000000000000000000000000000000 PUSH1 0x0 MSTORE PUSH1 0x22 PUSH1 0x4 MSTORE PUSH1 0x24 PUSH1 0x0 REVERT JUMPDEST PUSH32 0x4E487B7100000000000000000000000000000000000000000000000000000000 PUSH1 0x0 MSTORE PUSH1 0x32 PUSH1 0x4 MSTORE PUSH1 0x24 PUSH1 0x0 REVERT JUMPDEST PUSH32 0x4E487B7100000000000000000000000000000000000000000000000000000000 PUSH1 0x0 MSTORE PUSH1 0x41 PUSH1 0x4 MSTORE PUSH1 0x24 PUSH1 0x0 REVERT JUMPDEST PUSH1 0x0 DUP1 REVERT JUMPDEST PUSH1 0x0 DUP1 REVERT JUMPDEST PUSH1 0x0 DUP1 REVERT JUMPDEST PUSH1 0x0 DUP1 REVERT JUMPDEST PUSH1 0x0 PUSH1 0x1F NOT PUSH1 0x1F DUP4 ADD AND SWAP1 POP SWAP2 SWAP1 POP JUMP JUMPDEST PUSH1 0x0 DUP2 PUSH1 0x0 SHR SWAP1 POP SWAP2 SWAP1 POP JUMP JUMPDEST PUSH1 0x0 DUP2 PUSH1 0x68 SHR SWAP1 POP SWAP2 SWAP1 POP JUMP JUMPDEST PUSH1 0x0 DUP2 PUSH1 0x70 SHR SWAP1 POP SWAP2 SWAP1 POP JUMP JUMPDEST PUSH1 0x0 DUP2 PUSH1 0x78 SHR SWAP1 POP SWAP2 SWAP1 POP JUMP JUMPDEST PUSH1 0x0 DUP2 PUSH1 0x80 SHR SWAP1 POP SWAP2 SWAP1 POP JUMP JUMPDEST PUSH1 0x0 DUP2 PUSH1 0x88 SHR SWAP1 POP SWAP2 SWAP1 POP JUMP JUMPDEST PUSH1 0x0 DUP2 PUSH1 0x90 SHR SWAP1 POP SWAP2 SWAP1 POP JUMP JUMPDEST PUSH1 0x0 DUP2 PUSH1 0x98 SHR SWAP1 POP SWAP2 SWAP1 POP JUMP JUMPDEST PUSH1 0x0 DUP2 PUSH1 0xA0 SHR SWAP1 POP SWAP2 SWAP1 POP JUMP JUMPDEST PUSH1 0x0 DUP2 PUSH1 0xA8 SHR SWAP1 POP SWAP2 SWAP1 POP JUMP JUMPDEST PUSH1 0x0 DUP2 PUSH1 0x10 SHR SWAP1 POP SWAP2 SWAP1 POP JUMP JUMPDEST PUSH1 0x0 DUP2 PUSH1 0xB0 SHR SWAP1 POP SWAP2 SWAP1 POP JUMP JUMPDEST PUSH1 0x0 DUP2 PUSH1 0xB8 SHR SWAP1 POP SWAP2 SWAP1 POP JUMP JUMPDEST PUSH1 0x0 DUP2 PUSH1 0xC0 SHR SWAP1 POP SWAP2 SWAP1 POP JUMP JUMPDEST PUSH1 0x0 DUP2 PUSH1 0xC8 SHR SWAP1 POP SWAP2 SWAP1 POP JUMP JUMPDEST PUSH1 0x0 DUP2 PUSH1 0xD0 SHR SWAP1 POP SWAP2 SWAP1 POP JUMP JUMPDEST PUSH1 0x0 DUP2 PUSH1 0xD8 SHR SWAP1 POP SWAP2 SWAP1 POP JUMP JUMPDEST PUSH1 0x0 DUP2 PUSH1 0xE0 SHR SWAP1 POP SWAP2 SWAP1 POP JUMP JUMPDEST PUSH1 0x0 DUP2 PUSH1 0xE8 SHR SWAP1 POP SWAP2 SWAP1 POP JUMP JUMPDEST PUSH1 0x0 DUP2 PUSH1 0xF0 SHR SWAP1 POP SWAP2 SWAP1 POP JUMP JUMPDEST PUSH1 0x0 DUP2 PUSH1 0xF8 SHR SWAP1 POP SWAP2 SWAP1 POP JUMP JUMPDEST PUSH1 0x0 DUP2 PUSH1 0x18 SHR SWAP1 POP SWAP2 SWAP1 POP JUMP JUMPDEST PUSH1 0x0 DUP2 PUSH1 0x20 SHR SWAP1 POP SWAP2 SWAP1 POP JUMP JUMPDEST PUSH1 0x0 DUP2 PUSH1 0x28 SHR SWAP1 POP SWAP2 SWAP1 POP JUMP JUMPDEST PUSH1 0x0 DUP2 PUSH1 0x30 SHR SWAP1 POP SWAP2 SWAP1 POP JUMP JUMPDEST PUSH1 0x0 DUP2 PUSH1 0x38 SHR SWAP1 POP SWAP2 SWAP1 POP JUMP JUMPDEST PUSH1 0x0 DUP2 PUSH1 0x40 SHR SWAP1 POP SWAP2 SWAP1 POP JUMP JUMPDEST PUSH1 0x0 DUP2 PUSH1 0x48 SHR SWAP1 POP SWAP2 SWAP1 POP JUMP JUMPDEST PUSH1 0x0 DUP2 PUSH1 0x50 SHR SWAP1 POP SWAP2 SWAP1 POP JUMP JUMPDEST PUSH1 0x0 DUP2 PUSH1 0x58 SHR SWAP1 POP SWAP2 SWAP1 POP JUMP JUMPDEST PUSH1 0x0 DUP2 PUSH1 0x8 SHR SWAP1 POP SWAP2 SWAP1 POP JUMP JUMPDEST PUSH1 0x0 DUP2 PUSH1 0x60 SHR SWAP1 POP SWAP2 SWAP1 POP JUMP JUMPDEST PUSH32 0x4E756D62657273206D757374206265206C6172676572207468616E203020616E PUSH1 0x0 DUP3 ADD MSTORE PUSH32 0x64206C657373207468616E206F7220657175616C20746F206D6178696D756D4E PUSH1 0x20 DUP3 ADD MSTORE PUSH32 0x756D6265722E0000000000000000000000000000000000000000000000000000 PUSH1 0x40 DUP3 ADD MSTORE POP JUMP JUMPDEST PUSH32 0x4661696C656420746F2073656E64204574686572000000000000000000000000 PUSH1 0x0 DUP3 ADD MSTORE POP JUMP JUMPDEST PUSH32 0x6D73672E76616C756520646F6573206E6F74206D6174636820626574436F7374 PUSH1 0x0 DUP3 ADD MSTORE POP JUMP JUMPDEST PUSH32 0x596F75206D7573742077616974206C6F6E676572206265666F726520616E6F74 PUSH1 0x0 DUP3 ADD MSTORE PUSH32 0x686572206472617720697320617661696C61626C652E00000000000000000000 PUSH1 0x20 DUP3 ADD MSTORE POP JUMP JUMPDEST PUSH32 0x41206472617720697320616C72656164792068617070656E696E670000000000 PUSH1 0x0 DUP3 ADD MSTORE POP JUMP JUMPDEST PUSH32 0x42657473206172652070617573656420746F206472617720746865206E756D62 PUSH1 0x0 DUP3 ADD MSTORE PUSH32 0x6572732E00000000000000000000000000000000000000000000000000000000 PUSH1 0x20 DUP3 ADD MSTORE POP JUMP JUMPDEST POP JUMP JUMPDEST PUSH32 0x4E756D62657273206D757374206D61746368206578706563746564206C656E67 PUSH1 0x0 DUP3 ADD MSTORE PUSH32 0x74682E0000000000000000000000000000000000000000000000000000000000 PUSH1 0x20 DUP3 ADD MSTORE POP JUMP JUMPDEST PUSH32 0x5468652067616D652068617320746F2062652070617573656420666F72206E75 PUSH1 0x0 DUP3 ADD MSTORE PUSH32 0x6D6265727320746F20626520647261776E2E0000000000000000000000000000 PUSH1 0x20 DUP3 ADD MSTORE POP JUMP JUMPDEST PUSH32 0x5468652072616E646F6D206E756D62657220686173206E6F74206265656E2066 PUSH1 0x0 DUP3 ADD MSTORE PUSH32 0x6574636865642E00000000000000000000000000000000000000000000000000 PUSH1 0x20 DUP3 ADD MSTORE POP JUMP JUMPDEST PUSH32 0x4F6E6C7920746865205652462063616E20736574207468652072616E646F6D20 PUSH1 0x0 DUP3 ADD MSTORE PUSH32 0x6E756D6265722E00000000000000000000000000000000000000000000000000 PUSH1 0x20 DUP3 ADD MSTORE POP JUMP JUMPDEST PUSH2 0x2E69 DUP2 PUSH2 0x2428 JUMP JUMPDEST DUP2 EQ PUSH2 0x2E74 JUMPI PUSH1 0x0 DUP1 REVERT JUMPDEST POP JUMP JUMPDEST PUSH2 0x2E80 DUP2 PUSH2 0x2452 JUMP JUMPDEST DUP2 EQ PUSH2 0x2E8B JUMPI PUSH1 0x0 DUP1 REVERT JUMPDEST POP JUMP JUMPDEST PUSH2 0x2E97 DUP2 PUSH2 0x245C JUMP JUMPDEST DUP2 EQ PUSH2 0x2EA2 JUMPI PUSH1 0x0 DUP1 REVERT JUMPDEST POP JUMP INVALID LOG2 PUSH5 0x6970667358 0x22 SLT KECCAK256 0xE4 PUSH12 0xC51B63ACACDF58CC9E247EFA PUSH21 0xDA7CD5B6110FB8F2CD74D7F77AFDFCFF364736F6C PUSH4 0x43000807 STOP CALLER LOG2 PUSH5 0x6970667358 0x22 SLT KECCAK256 CODECOPY DUP14 RETURNDATASIZE 0xB0 0xCA 0xB6 SWAP1 0xC7 PUSH24 0x703D043A4E48B166EB771110246ECDD5F5ADA4FA6C3D5C64 PUSH20 0x6F6C634300080700330000000000000000000000 "
        },
        "methodIdentifiers": {
          "contracts(uint256)": "474da79a",
          "newEtherBets(string,uint256,uint8,uint8,uint256,address)": "09c1570e"
        }
      }
    }
  }
}