{
  "contracts/EtherBets.sol": {
    "EtherBetsFactory": {
      "abi": [
        {
          "anonymous": false,
          "inputs": [
            {
              "indexed": false,
              "internalType": "address",
              "name": "lottery",
              "type": "address"
            }
          ],
          "name": "NewLottery",
          "type": "event"
        },
        {
          "inputs": [
            {
              "internalType": "uint256",
              "name": "",
              "type": "uint256"
            }
          ],
          "name": "contracts",
          "outputs": [
            {
              "internalType": "address",
              "name": "",
              "type": "address"
            }
          ],
          "stateMutability": "view",
          "type": "function"
        },
        {
          "inputs": [
            {
              "internalType": "string",
              "name": "_name",
              "type": "string"
            },
            {
              "internalType": "uint256",
              "name": "_betCost",
              "type": "uint256"
            },
            {
              "internalType": "uint8",
              "name": "_maximumNumber",
              "type": "uint8"
            },
            {
              "internalType": "uint8",
              "name": "_picks",
              "type": "uint8"
            },
            {
              "internalType": "uint256",
              "name": "_timeBetweenDraws",
              "type": "uint256"
            },
            {
              "internalType": "address",
              "name": "_VRF",
              "type": "address"
            }
          ],
          "name": "newEtherBets",
          "outputs": [
            {
              "internalType": "address",
              "name": "",
              "type": "address"
            }
          ],
          "stateMutability": "nonpayable",
          "type": "function"
        }
      ],
      "evm": {
        "bytecode": {
          "linkReferences": {},
          "object": "608060405234801561001057600080fd5b50613d67806100206000396000f3fe60806040523480156200001157600080fd5b50600436106200003a5760003560e01c806309c1570e146200003f578063474da79a1462000075575b600080fd5b6200005d6004803603810190620000579190620002ae565b620000ab565b6040516200006c91906200040f565b60405180910390f35b6200009360048036038101906200008d919062000369565b6200019d565b604051620000a291906200040f565b60405180910390f35b600080878787878787604051620000c290620001dd565b620000d3969594939291906200042c565b604051809103906000f080158015620000f0573d6000803e3d6000fd5b5090506000819080600181540180825580915050600190039060005260206000200160009091909190916101000a81548173ffffffffffffffffffffffffffffffffffffffff021916908373ffffffffffffffffffffffffffffffffffffffff1602179055507fdbb18653dafc4962dc966dac250a14155f0c8a5040e55c5c59ed5f4acb69f5be816040516200018791906200040f565b60405180910390a1809150509695505050505050565b60008181548110620001ae57600080fd5b906000526020600020016000915054906101000a900473ffffffffffffffffffffffffffffffffffffffff1681565b6136ae806200068483390190565b600062000202620001fc84620004c9565b620004a0565b90508281526020810184848401111562000221576200022062000615565b5b6200022e84828562000566565b509392505050565b600081359050620002478162000635565b92915050565b600082601f83011262000265576200026462000610565b5b813562000277848260208601620001eb565b91505092915050565b60008135905062000291816200064f565b92915050565b600081359050620002a88162000669565b92915050565b60008060008060008060c08789031215620002ce57620002cd6200061f565b5b600087013567ffffffffffffffff811115620002ef57620002ee6200061a565b5b620002fd89828a016200024d565b96505060206200031089828a0162000280565b95505060406200032389828a0162000297565b94505060606200033689828a0162000297565b93505060806200034989828a0162000280565b92505060a06200035c89828a0162000236565b9150509295509295509295565b6000602082840312156200038257620003816200061f565b5b6000620003928482850162000280565b91505092915050565b620003a6816200051b565b82525050565b6000620003b982620004ff565b620003c581856200050a565b9350620003d781856020860162000575565b620003e28162000624565b840191505092915050565b620003f8816200054f565b82525050565b620004098162000559565b82525050565b60006020820190506200042660008301846200039b565b92915050565b600060c0820190508181036000830152620004488189620003ac565b9050620004596020830188620003ed565b620004686040830187620003fe565b620004776060830186620003fe565b620004866080830185620003ed565b6200049560a08301846200039b565b979650505050505050565b6000620004ac620004bf565b9050620004ba8282620005ab565b919050565b6000604051905090565b600067ffffffffffffffff821115620004e757620004e6620005e1565b5b620004f28262000624565b9050602081019050919050565b600081519050919050565b600082825260208201905092915050565b600062000528826200052f565b9050919050565b600073ffffffffffffffffffffffffffffffffffffffff82169050919050565b6000819050919050565b600060ff82169050919050565b82818337600083830152505050565b60005b838110156200059557808201518184015260208101905062000578565b83811115620005a5576000848401525b50505050565b620005b68262000624565b810181811067ffffffffffffffff82111715620005d857620005d7620005e1565b5b80604052505050565b7f4e487b7100000000000000000000000000000000000000000000000000000000600052604160045260246000fd5b600080fd5b600080fd5b600080fd5b600080fd5b6000601f19601f8301169050919050565b62000640816200051b565b81146200064c57600080fd5b50565b6200065a816200054f565b81146200066657600080fd5b50565b620006748162000559565b81146200068057600080fd5b5056fe60806040523480156200001157600080fd5b50604051620036ae380380620036ae833981810160405281019062000037919062000254565b85600090805190602001906200004f929190620000e1565b508460018190555083600260006101000a81548160ff021916908360ff16021790555082600260016101000a81548160ff021916908360ff1602179055508160078190555080600860006101000a81548173ffffffffffffffffffffffffffffffffffffffff021916908373ffffffffffffffffffffffffffffffffffffffff1602179055505050505050506200052c565b828054620000ef90620003ef565b90600052602060002090601f0160209004810192826200011357600085556200015f565b82601f106200012e57805160ff19168380011785556200015f565b828001600101855582156200015f579182015b828111156200015e57825182559160200191906001019062000141565b5b5090506200016e919062000172565b5090565b5b808211156200018d57600081600090555060010162000173565b5090565b6000620001a8620001a28462000338565b6200030f565b905082815260208101848484011115620001c757620001c6620004be565b5b620001d4848285620003b9565b509392505050565b600081519050620001ed81620004de565b92915050565b600082601f8301126200020b576200020a620004b9565b5b81516200021d84826020860162000191565b91505092915050565b6000815190506200023781620004f8565b92915050565b6000815190506200024e8162000512565b92915050565b60008060008060008060c08789031215620002745762000273620004c8565b5b600087015167ffffffffffffffff811115620002955762000294620004c3565b5b620002a389828a01620001f3565b9650506020620002b689828a0162000226565b9550506040620002c989828a016200023d565b9450506060620002dc89828a016200023d565b9350506080620002ef89828a0162000226565b92505060a06200030289828a01620001dc565b9150509295509295509295565b60006200031b6200032e565b905062000329828262000425565b919050565b6000604051905090565b600067ffffffffffffffff8211156200035657620003556200048a565b5b6200036182620004cd565b9050602081019050919050565b60006200037b8262000382565b9050919050565b600073ffffffffffffffffffffffffffffffffffffffff82169050919050565b6000819050919050565b600060ff82169050919050565b60005b83811015620003d9578082015181840152602081019050620003bc565b83811115620003e9576000848401525b50505050565b600060028204905060018216806200040857607f821691505b602082108114156200041f576200041e6200045b565b5b50919050565b6200043082620004cd565b810181811067ffffffffffffffff821117156200045257620004516200048a565b5b80604052505050565b7f4e487b7100000000000000000000000000000000000000000000000000000000600052602260045260246000fd5b7f4e487b7100000000000000000000000000000000000000000000000000000000600052604160045260246000fd5b600080fd5b600080fd5b600080fd5b600080fd5b6000601f19601f8301169050919050565b620004e9816200036e565b8114620004f557600080fd5b50565b6200050381620003a2565b81146200050f57600080fd5b50565b6200051d81620003ac565b81146200052957600080fd5b50565b613172806200053c6000396000f3fe6080604052600436106101405760003560e01c8063682904a5116100b6578063a126285b1161006f578063a126285b14610455578063a195bcca14610480578063c45821f414610497578063ccbac9f5146104d4578063d6bfea28146104ff578063fbbf93a01461052857610140565b8063682904a5146103405780636a93111c1461037d578063752ca00414610399578063780d8b73146103d65780637aa2a299146103ff5780639204c9b71461042a57610140565b806339b522251161010857806339b522251461022e5780634e45f0951461026b5780635c975abb146102a85780635cbbd635146102d3578063650a031a146102fe578063676c902f1461032957610140565b806306c5c0c81461014557806306fdde03146101705780630eecae211461019b578063113da88a146101c657806332a6d97914610203575b600080fd5b34801561015157600080fd5b5061015a61055e565b6040516101679190612475565b60405180910390f35b34801561017c57600080fd5b50610185610564565b604051610192919061224b565b60405180910390f35b3480156101a757600080fd5b506101b06105f2565b6040516101bd9190612475565b60405180910390f35b3480156101d257600080fd5b506101ed60048036038101906101e8919061157e565b6105f8565b6040516101fa9190612230565b60405180910390f35b34801561020f57600080fd5b50610218610699565b6040516102259190612230565b60405180910390f35b34801561023a57600080fd5b5061025560048036038101906102509190611661565b6106ac565b6040516102629190612230565b60405180910390f35b34801561027757600080fd5b50610292600480360381019061028d91906115f4565b610714565b60405161029f91906124b9565b60405180910390f35b3480156102b457600080fd5b506102bd610748565b6040516102ca9190612230565b60405180910390f35b3480156102df57600080fd5b506102e861075b565b6040516102f59190612475565b60405180910390f35b34801561030a57600080fd5b50610313610761565b60405161032091906124b9565b60405180910390f35b34801561033557600080fd5b5061033e610774565b005b34801561034c57600080fd5b50610367600480360381019061036291906115f4565b6108c7565b60405161037491906121ae565b60405180910390f35b6103976004803603810190610392919061157e565b610a17565b005b3480156103a557600080fd5b506103c060048036038101906103bb9190611621565b610bb8565b6040516103cd9190612193565b60405180910390f35b3480156103e257600080fd5b506103fd60048036038101906103f8919061157e565b610c06565b005b34801561040b57600080fd5b50610414610ca6565b6040516104219190612475565b60405180910390f35b34801561043657600080fd5b5061043f610cac565b60405161044c91906124b9565b60405180910390f35b34801561046157600080fd5b5061046a610cbf565b6040516104779190612193565b60405180910390f35b34801561048c57600080fd5b50610495610ce5565b005b3480156104a357600080fd5b506104be60048036038101906104b9919061157e565b610e92565b6040516104cb9190612475565b60405180910390f35b3480156104e057600080fd5b506104e9610efa565b6040516104f69190612475565b60405180910390f35b34801561050b57600080fd5b50610526600480360381019061052191906115f4565b610f00565b005b34801561053457600080fd5b5061053d610ff2565b6040516105559c9b9a9998979695949392919061226d565b60405180910390f35b60075481565b6000805461057190612733565b80601f016020809104026020016040519081016040528092919081815260200182805461059d90612733565b80156105ea5780601f106105bf576101008083540402835291602001916105ea565b820191906000526020600020905b8154815290600101906020018083116105cd57829003601f168201915b505050505081565b60045481565b600080600090505b82518160ff16101561068e576000838260ff168151811061062457610623612c07565b5b602002602001015160ff16148061066c5750600260009054906101000a900460ff1660ff16838260ff168151811061065f5761065e612c07565b5b602002602001015160ff16115b1561067b576000915050610694565b808061068690612b1f565b915050610600565b50600190505b919050565b600a60009054906101000a900460ff1681565b600080600090505b82518160ff161015610708578360ff16838260ff16815181106106da576106d9612c07565b5b602002602001015160ff1614156106f557600191505061070e565b808061070090612b1f565b9150506106b4565b50600090505b92915050565b6003818154811061072457600080fd5b9060005260206000209060209182820401919006915054906101000a900460ff1681565b600860149054906101000a900460ff1681565b60065481565b600260009054906101000a900460ff1681565b600860149054906101000a900460ff166107c3576040517f08c379a00000000000000000000000000000000000000000000000000000000081526004016107ba90612415565b60405180910390fd5b600a60009054906101000a900460ff16610812576040517f08c379a000000000000000000000000000000000000000000000000000000000815260040161080990612435565b60405180910390fd5b61081d6009546108c7565b600390805190602001906108329291906113dd565b507ffebf534a11985149a5c6f9db799e3fd83bee80a2726a5b1ea9aa7fea0cbe6a216003600454604051610867929190612200565b60405180910390a1610877611183565b6004600081548092919061088a90612ad6565b91905055506000600860146101000a81548160ff0219169083151502179055506000600a60006101000a81548160ff021916908315150217905550565b6060600260019054906101000a900460ff1660ff1667ffffffffffffffff8111156108f5576108f4612c36565b5b6040519080825280602002602001820160405280156109235781602001602082028036833780820191505090505b5090506000805b600260019054906101000a900460ff1660ff168260ff161015610a105760006001600260009054906101000a900460ff1660ff168684604051602001610971929190612490565b6040516020818303038152906040528051906020012060001c6109949190612b49565b61099e91906125a5565b90506109aa81856106ac565b156109c35781806109ba90612ad6565b9250505061092a565b80848460ff16815181106109da576109d9612c07565b5b602002602001019060ff16908160ff168152505082806109f990612b1f565b9350508180610a0790612ad6565b9250505061092a565b5050919050565b6001543414610a5b576040517f08c379a0000000000000000000000000000000000000000000000000000000008152600401610a5290612375565b60405180910390fd5b60001515600860149054906101000a900460ff16151514610ab1576040517f08c379a0000000000000000000000000000000000000000000000000000000008152600401610aa8906123d5565b60405180910390fd5b610aba81610c06565b60056000610ac783610e92565b600454604051602001610adb929190612490565b6040516020818303038152906040528051906020012060001c8152602001908152602001600020339080600181540180825580915050600190039060005260206000200160009091909190916101000a81548173ffffffffffffffffffffffffffffffffffffffff021916908373ffffffffffffffffffffffffffffffffffffffff1602179055503373ffffffffffffffffffffffffffffffffffffffff167fdb457a8286185fe9d46c5c69e68ed86df699c2c02066412781e9dd9a12af4b4582600454604051610bad9291906121d0565b60405180910390a250565b60056020528160005260406000208181548110610bd457600080fd5b906000526020600020016000915091509054906101000a900473ffffffffffffffffffffffffffffffffffffffff1681565b610c0f816105f8565b610c4e576040517f08c379a0000000000000000000000000000000000000000000000000000000008152600401610c4590612335565b60405180910390fd5b600260019054906101000a900460ff1660ff16815114610ca3576040517f08c379a0000000000000000000000000000000000000000000000000000000008152600401610c9a906123f5565b60405180910390fd5b50565b60015481565b600260019054906101000a900460ff1681565b600860009054906101000a900473ffffffffffffffffffffffffffffffffffffffff1681565b60075460065442610cf6919061262c565b11610d36576040517f08c379a0000000000000000000000000000000000000000000000000000000008152600401610d2d90612395565b60405180910390fd5b60001515600860149054906101000a900460ff16151514610d8c576040517f08c379a0000000000000000000000000000000000000000000000000000000008152600401610d83906123b5565b60405180910390fd5b6001600860146101000a81548160ff021916908315150217905550426006819055506000600860009054906101000a900473ffffffffffffffffffffffffffffffffffffffff1690508073ffffffffffffffffffffffffffffffffffffffff1663dbdff2c16040518163ffffffff1660e01b8152600401602060405180830381600087803b158015610e1d57600080fd5b505af1158015610e31573d6000803e3d6000fd5b505050506040513d601f19601f82011682018060405250810190610e5591906115c7565b507f9ac10fb18c93d33ad7b0a941897aef048d0f8d30756684e82b4552ba12764d45600454604051610e879190612475565b60405180910390a150565b6000806000905060005b83518160ff161015610ef0576001848260ff1681518110610ec057610ebf612c07565b5b6020026020010151610ed29190612660565b60ff166001901b821791508080610ee890612b1f565b915050610e9c565b5080915050919050565b60095481565b600860009054906101000a900473ffffffffffffffffffffffffffffffffffffffff1673ffffffffffffffffffffffffffffffffffffffff163373ffffffffffffffffffffffffffffffffffffffff1614610f90576040517f08c379a0000000000000000000000000000000000000000000000000000000008152600401610f8790612455565b60405180910390fd5b806009819055506001600a60006101000a81548160ff0219169083151502179055507f546aca7b2683440b8f02fa95faeb8efc79dd0f16af3d815a002742ea6f76116c600954600454604051610fe7929190612490565b60405180910390a150565b606060008060008060008060008060606000806000600154600260009054906101000a900460ff16600260019054906101000a900460ff16600754600654600860149054906101000a900460ff16600454476003600954600a60009054906101000a900460ff168b805461106590612733565b80601f016020809104026020016040519081016040528092919081815260200182805461109190612733565b80156110de5780601f106110b3576101008083540402835291602001916110de565b820191906000526020600020905b8154815290600101906020018083116110c157829003601f168201915b50505050509b508280548060200260200160405190810160405280929190818152602001828054801561115657602002820191906000526020600020906000905b82829054906101000a900460ff1660ff168152602001906001019060208260000104928301926001038202915080841161111f5790505b505050505092509b509b509b509b509b509b509b509b509b509b509b509b50909192939495969798999a9b565b60006005600061120860038054806020026020016040519081016040528092919081815260200182805480156111fe57602002820191906000526020600020906000905b82829054906101000a900460ff1660ff16815260200190600101906020826000010492830192600103820291508084116111c75790505b5050505050610e92565b60045460405160200161121c929190612490565b6040516020818303038152906040528051906020012060001c81526020019081526020016000208054806020026020016040519081016040528092919081815260200182805480156112c357602002820191906000526020600020905b8160009054906101000a900473ffffffffffffffffffffffffffffffffffffffff1673ffffffffffffffffffffffffffffffffffffffff1681526020019060010190808311611279575b505050505090506000815114156112da57506113db565b60008151476112e991906125fb565b905060005b82518110156113d757600083828151811061130c5761130b612c07565b5b6020026020010151905060008173ffffffffffffffffffffffffffffffffffffffff168460405161133c9061217e565b60006040518083038185875af1925050503d8060008114611379576040519150601f19603f3d011682016040523d82523d6000602084013e61137e565b606091505b50509050806113c2576040517f08c379a00000000000000000000000000000000000000000000000000000000081526004016113b990612355565b60405180910390fd5b505080806113cf90612ad6565b9150506112ee565b5050505b565b82805482825590600052602060002090601f016020900481019282156114735791602002820160005b8382111561144457835183826101000a81548160ff021916908360ff1602179055509260200192600101602081600001049283019260010302611406565b80156114715782816101000a81549060ff0219169055600101602081600001049283019260010302611444565b505b5090506114809190611484565b5090565b5b8082111561149d576000816000905550600101611485565b5090565b60006114b46114af846124f9565b6124d4565b905080838252602082019050828560208602820111156114d7576114d6612c6a565b5b60005b8581101561150757816114ed8882611569565b8452602084019350602083019250506001810190506114da565b5050509392505050565b600082601f83011261152657611525612c65565b5b81356115368482602086016114a1565b91505092915050565b60008151905061154e816130f7565b92915050565b6000813590506115638161310e565b92915050565b60008135905061157881613125565b92915050565b60006020828403121561159457611593612c74565b5b600082013567ffffffffffffffff8111156115b2576115b1612c6f565b5b6115be84828501611511565b91505092915050565b6000602082840312156115dd576115dc612c74565b5b60006115eb8482850161153f565b91505092915050565b60006020828403121561160a57611609612c74565b5b600061161884828501611554565b91505092915050565b6000806040838503121561163857611637612c74565b5b600061164685828601611554565b925050602061165785828601611554565b9150509250929050565b6000806040838503121561167857611677612c74565b5b600061168685828601611569565b925050602083013567ffffffffffffffff8111156116a7576116a6612c6f565b5b6116b385828601611511565b9150509250929050565b60006116c98383612160565b60208301905092915050565b6116de816126a1565b82525050565b60006116ef8261254a565b6116f98185612578565b935061170483612525565b8060005b8381101561173557815161171c88826116bd565b97506117278361256b565b925050600181019050611708565b5085935050505092915050565b600061174d82612555565b6117578185612578565b93508361176384612535565b6000600115611a90575b83600160200382011015611a8f57815461178f8861178a83612765565b612160565b6020880197506117a7886117a283612883565b612160565b6020880197506117bf886117ba836129a1565b612160565b6020880197506117d7886117d2836129ef565b612160565b6020880197506117ef886117ea83612a09565b612160565b6020880197506118078861180283612a23565b612160565b60208801975061181f8861181a83612a3d565b612160565b6020880197506118378861183283612a57565b612160565b60208801975061184f8861184a83612a71565b612160565b6020880197506118678861186283612a8b565b612160565b60208801975061187f8861187a8361277f565b612160565b6020880197506118978861189283612799565b612160565b6020880197506118af886118aa836127b3565b612160565b6020880197506118c7886118c2836127cd565b612160565b6020880197506118df886118da836127e7565b612160565b6020880197506118f7886118f283612801565b612160565b60208801975061190f8861190a8361281b565b612160565b6020880197506119278861192283612835565b612160565b60208801975061193f8861193a8361284f565b612160565b6020880197506119578861195283612869565b612160565b60208801975061196f8861196a8361289d565b612160565b60208801975061198788611982836128b7565b612160565b60208801975061199f8861199a836128d1565b612160565b6020880197506119b7886119b2836128eb565b612160565b6020880197506119cf886119ca83612905565b612160565b6020880197506119e7886119e28361291f565b612160565b6020880197506119ff886119fa83612939565b612160565b602088019750611a1788611a1283612953565b612160565b602088019750611a2f88611a2a8361296d565b612160565b602088019750611a4788611a4283612987565b612160565b602088019750611a5f88611a5a836129bb565b612160565b602088019750611a7788611a72836129d5565b612160565b6020880197506001830192505060208101905061176d565b5b600115611f7b57815484821015611ac057611ab388611aae83612765565b612160565b6020880197506001820191505b84821015611ae757611ada88611ad583612883565b612160565b6020880197506001820191505b84821015611b0e57611b0188611afc836129a1565b612160565b6020880197506001820191505b84821015611b3557611b2888611b23836129ef565b612160565b6020880197506001820191505b84821015611b5c57611b4f88611b4a83612a09565b612160565b6020880197506001820191505b84821015611b8357611b7688611b7183612a23565b612160565b6020880197506001820191505b84821015611baa57611b9d88611b9883612a3d565b612160565b6020880197506001820191505b84821015611bd157611bc488611bbf83612a57565b612160565b6020880197506001820191505b84821015611bf857611beb88611be683612a71565b612160565b6020880197506001820191505b84821015611c1f57611c1288611c0d83612a8b565b612160565b6020880197506001820191505b84821015611c4657611c3988611c348361277f565b612160565b6020880197506001820191505b84821015611c6d57611c6088611c5b83612799565b612160565b6020880197506001820191505b84821015611c9457611c8788611c82836127b3565b612160565b6020880197506001820191505b84821015611cbb57611cae88611ca9836127cd565b612160565b6020880197506001820191505b84821015611ce257611cd588611cd0836127e7565b612160565b6020880197506001820191505b84821015611d0957611cfc88611cf783612801565b612160565b6020880197506001820191505b84821015611d3057611d2388611d1e8361281b565b612160565b6020880197506001820191505b84821015611d5757611d4a88611d4583612835565b612160565b6020880197506001820191505b84821015611d7e57611d7188611d6c8361284f565b612160565b6020880197506001820191505b84821015611da557611d9888611d9383612869565b612160565b6020880197506001820191505b84821015611dcc57611dbf88611dba8361289d565b612160565b6020880197506001820191505b84821015611df357611de688611de1836128b7565b612160565b6020880197506001820191505b84821015611e1a57611e0d88611e08836128d1565b612160565b6020880197506001820191505b84821015611e4157611e3488611e2f836128eb565b612160565b6020880197506001820191505b84821015611e6857611e5b88611e5683612905565b612160565b6020880197506001820191505b84821015611e8f57611e8288611e7d8361291f565b612160565b6020880197506001820191505b84821015611eb657611ea988611ea483612939565b612160565b6020880197506001820191505b84821015611edd57611ed088611ecb83612953565b612160565b6020880197506001820191505b84821015611f0457611ef788611ef28361296d565b612160565b6020880197506001820191505b84821015611f2b57611f1e88611f1983612987565b612160565b6020880197506001820191505b84821015611f5257611f4588611f40836129bb565b612160565b6020880197506001820191505b84821015611f7957611f6c88611f67836129d5565b612160565b6020880197506001820191505b505b8694505050505092915050565b611f91816126b3565b82525050565b6000611fa282612560565b611fac8185612594565b9350611fbc818560208601612700565b611fc581612c79565b840191505092915050565b6000611fdd604683612594565b9150611fe882612e2a565b606082019050919050565b6000612000601483612594565b915061200b82612e9f565b602082019050919050565b6000612023602083612594565b915061202e82612ec8565b602082019050919050565b6000612046603683612594565b915061205182612ef1565b604082019050919050565b6000612069601b83612594565b915061207482612f40565b602082019050919050565b600061208c602483612594565b915061209782612f69565b604082019050919050565b60006120af600083612589565b91506120ba82612fb8565b600082019050919050565b60006120d2602383612594565b91506120dd82612fbb565b604082019050919050565b60006120f5603283612594565b91506121008261300a565b604082019050919050565b6000612118602783612594565b915061212382613059565b604082019050919050565b600061213b602783612594565b9150612146826130a8565b604082019050919050565b61215a816126e9565b82525050565b612169816126f3565b82525050565b612178816126f3565b82525050565b6000612189826120a2565b9150819050919050565b60006020820190506121a860008301846116d5565b92915050565b600060208201905081810360008301526121c881846116e4565b905092915050565b600060408201905081810360008301526121ea81856116e4565b90506121f96020830184612151565b9392505050565b6000604082019050818103600083015261221a8185611742565b90506122296020830184612151565b9392505050565b60006020820190506122456000830184611f88565b92915050565b600060208201905081810360008301526122658184611f97565b905092915050565b6000610180820190508181036000830152612288818f611f97565b9050612297602083018e612151565b6122a4604083018d61216f565b6122b1606083018c61216f565b6122be608083018b612151565b6122cb60a083018a612151565b6122d860c0830189611f88565b6122e560e0830188612151565b6122f3610100830187612151565b81810361012083015261230681866116e4565b9050612316610140830185612151565b612324610160830184611f88565b9d9c50505050505050505050505050565b6000602082019050818103600083015261234e81611fd0565b9050919050565b6000602082019050818103600083015261236e81611ff3565b9050919050565b6000602082019050818103600083015261238e81612016565b9050919050565b600060208201905081810360008301526123ae81612039565b9050919050565b600060208201905081810360008301526123ce8161205c565b9050919050565b600060208201905081810360008301526123ee8161207f565b9050919050565b6000602082019050818103600083015261240e816120c5565b9050919050565b6000602082019050818103600083015261242e816120e8565b9050919050565b6000602082019050818103600083015261244e8161210b565b9050919050565b6000602082019050818103600083015261246e8161212e565b9050919050565b600060208201905061248a6000830184612151565b92915050565b60006040820190506124a56000830185612151565b6124b26020830184612151565b9392505050565b60006020820190506124ce600083018461216f565b92915050565b60006124de6124ef565b90506124ea8282612aa5565b919050565b6000604051905090565b600067ffffffffffffffff82111561251457612513612c36565b5b602082029050602081019050919050565b6000819050602082019050919050565b60008190508160005260206000209050919050565b600081519050919050565b600081549050919050565b600081519050919050565b6000602082019050919050565b600082825260208201905092915050565b600081905092915050565b600082825260208201905092915050565b60006125b0826126e9565b91506125bb836126e9565b9250827fffffffffffffffffffffffffffffffffffffffffffffffffffffffffffffffff038211156125f0576125ef612b7a565b5b828201905092915050565b6000612606826126e9565b9150612611836126e9565b92508261262157612620612ba9565b5b828204905092915050565b6000612637826126e9565b9150612642836126e9565b92508282101561265557612654612b7a565b5b828203905092915050565b600061266b826126f3565b9150612676836126f3565b92508282101561268957612688612b7a565b5b828203905092915050565b600060ff82169050919050565b60006126ac826126c9565b9050919050565b60008115159050919050565b6000819050919050565b600073ffffffffffffffffffffffffffffffffffffffff82169050919050565b6000819050919050565b600060ff82169050919050565b60005b8381101561271e578082015181840152602081019050612703565b8381111561272d576000848401525b50505050565b6000600282049050600182168061274b57607f821691505b6020821081141561275f5761275e612bd8565b5b50919050565b600061277861277383612c8a565b612694565b9050919050565b600061279261278d83612df6565b612694565b9050919050565b60006127ac6127a783612e03565b612694565b9050919050565b60006127c66127c183612e1d565b612694565b9050919050565b60006127e06127db83612c97565b612694565b9050919050565b60006127fa6127f583612ca4565b612694565b9050919050565b600061281461280f83612cb1565b612694565b9050919050565b600061282e61282983612cbe565b612694565b9050919050565b600061284861284383612ccb565b612694565b9050919050565b600061286261285d83612cd8565b612694565b9050919050565b600061287c61287783612ce5565b612694565b9050919050565b600061289661289183612e10565b612694565b9050919050565b60006128b06128ab83612cf2565b612694565b9050919050565b60006128ca6128c583612cff565b612694565b9050919050565b60006128e46128df83612d19565b612694565b9050919050565b60006128fe6128f983612d26565b612694565b9050919050565b600061291861291383612d33565b612694565b9050919050565b600061293261292d83612d40565b612694565b9050919050565b600061294c61294783612d4d565b612694565b9050919050565b600061296661296183612d5a565b612694565b9050919050565b600061298061297b83612d67565b612694565b9050919050565b600061299a61299583612d74565b612694565b9050919050565b60006129b46129af83612d0c565b612694565b9050919050565b60006129ce6129c983612d81565b612694565b9050919050565b60006129e86129e383612d8e565b612694565b9050919050565b6000612a026129fd83612d9b565b612694565b9050919050565b6000612a1c612a1783612da8565b612694565b9050919050565b6000612a36612a3183612db5565b612694565b9050919050565b6000612a50612a4b83612dc2565b612694565b9050919050565b6000612a6a612a6583612dcf565b612694565b9050919050565b6000612a84612a7f83612ddc565b612694565b9050919050565b6000612a9e612a9983612de9565b612694565b9050919050565b612aae82612c79565b810181811067ffffffffffffffff82111715612acd57612acc612c36565b5b80604052505050565b6000612ae1826126e9565b91507fffffffffffffffffffffffffffffffffffffffffffffffffffffffffffffffff821415612b1457612b13612b7a565b5b600182019050919050565b6000612b2a826126f3565b915060ff821415612b3e57612b3d612b7a565b5b600182019050919050565b6000612b54826126e9565b9150612b5f836126e9565b925082612b6f57612b6e612ba9565b5b828206905092915050565b7f4e487b7100000000000000000000000000000000000000000000000000000000600052601160045260246000fd5b7f4e487b7100000000000000000000000000000000000000000000000000000000600052601260045260246000fd5b7f4e487b7100000000000000000000000000000000000000000000000000000000600052602260045260246000fd5b7f4e487b7100000000000000000000000000000000000000000000000000000000600052603260045260246000fd5b7f4e487b7100000000000000000000000000000000000000000000000000000000600052604160045260246000fd5b600080fd5b600080fd5b600080fd5b600080fd5b6000601f19601f8301169050919050565b60008160001c9050919050565b60008160681c9050919050565b60008160701c9050919050565b60008160781c9050919050565b60008160801c9050919050565b60008160881c9050919050565b60008160901c9050919050565b60008160981c9050919050565b60008160a01c9050919050565b60008160a81c9050919050565b60008160101c9050919050565b60008160b01c9050919050565b60008160b81c9050919050565b60008160c01c9050919050565b60008160c81c9050919050565b60008160d01c9050919050565b60008160d81c9050919050565b60008160e01c9050919050565b60008160e81c9050919050565b60008160f01c9050919050565b60008160f81c9050919050565b60008160181c9050919050565b60008160201c9050919050565b60008160281c9050919050565b60008160301c9050919050565b60008160381c9050919050565b60008160401c9050919050565b60008160481c9050919050565b60008160501c9050919050565b60008160581c9050919050565b60008160081c9050919050565b60008160601c9050919050565b7f4e756d62657273206d757374206265206c6172676572207468616e203020616e60008201527f64206c657373207468616e206f7220657175616c20746f206d6178696d756d4e60208201527f756d6265722e0000000000000000000000000000000000000000000000000000604082015250565b7f4661696c656420746f2073656e64204574686572000000000000000000000000600082015250565b7f6d73672e76616c756520646f6573206e6f74206d6174636820626574436f7374600082015250565b7f596f75206d7573742077616974206c6f6e676572206265666f726520616e6f7460008201527f686572206472617720697320617661696c61626c652e00000000000000000000602082015250565b7f41206472617720697320616c72656164792068617070656e696e670000000000600082015250565b7f42657473206172652070617573656420746f206472617720746865206e756d6260008201527f6572732e00000000000000000000000000000000000000000000000000000000602082015250565b50565b7f4e756d62657273206d757374206d61746368206578706563746564206c656e6760008201527f74682e0000000000000000000000000000000000000000000000000000000000602082015250565b7f5468652067616d652068617320746f2062652070617573656420666f72206e7560008201527f6d6265727320746f20626520647261776e2e0000000000000000000000000000602082015250565b7f5468652072616e646f6d206e756d62657220686173206e6f74206265656e206660008201527f6574636865642e00000000000000000000000000000000000000000000000000602082015250565b7f4f6e6c7920746865205652462063616e20736574207468652072616e646f6d2060008201527f6e756d6265722e00000000000000000000000000000000000000000000000000602082015250565b613100816126bf565b811461310b57600080fd5b50565b613117816126e9565b811461312257600080fd5b50565b61312e816126f3565b811461313957600080fd5b5056fea2646970667358221220d85d4e32f1f9f98a95f07fffea9fea7be78f1ea6a51466da6b3bdc22bceec91064736f6c63430008070033a2646970667358221220b33e685b1a0c230fef01318aeaf5054466e55170f894f78de56803943db9251b64736f6c63430008070033",
          "opcodes": "PUSH1 0x80 PUSH1 0x40 MSTORE CALLVALUE DUP1 ISZERO PUSH2 0x10 JUMPI PUSH1 0x0 DUP1 REVERT JUMPDEST POP PUSH2 0x3D67 DUP1 PUSH2 0x20 PUSH1 0x0 CODECOPY PUSH1 0x0 RETURN INVALID PUSH1 0x80 PUSH1 0x40 MSTORE CALLVALUE DUP1 ISZERO PUSH3 0x11 JUMPI PUSH1 0x0 DUP1 REVERT JUMPDEST POP PUSH1 0x4 CALLDATASIZE LT PUSH3 0x3A JUMPI PUSH1 0x0 CALLDATALOAD PUSH1 0xE0 SHR DUP1 PUSH4 0x9C1570E EQ PUSH3 0x3F JUMPI DUP1 PUSH4 0x474DA79A EQ PUSH3 0x75 JUMPI JUMPDEST PUSH1 0x0 DUP1 REVERT JUMPDEST PUSH3 0x5D PUSH1 0x4 DUP1 CALLDATASIZE SUB DUP2 ADD SWAP1 PUSH3 0x57 SWAP2 SWAP1 PUSH3 0x2AE JUMP JUMPDEST PUSH3 0xAB JUMP JUMPDEST PUSH1 0x40 MLOAD PUSH3 0x6C SWAP2 SWAP1 PUSH3 0x40F JUMP JUMPDEST PUSH1 0x40 MLOAD DUP1 SWAP2 SUB SWAP1 RETURN JUMPDEST PUSH3 0x93 PUSH1 0x4 DUP1 CALLDATASIZE SUB DUP2 ADD SWAP1 PUSH3 0x8D SWAP2 SWAP1 PUSH3 0x369 JUMP JUMPDEST PUSH3 0x19D JUMP JUMPDEST PUSH1 0x40 MLOAD PUSH3 0xA2 SWAP2 SWAP1 PUSH3 0x40F JUMP JUMPDEST PUSH1 0x40 MLOAD DUP1 SWAP2 SUB SWAP1 RETURN JUMPDEST PUSH1 0x0 DUP1 DUP8 DUP8 DUP8 DUP8 DUP8 DUP8 PUSH1 0x40 MLOAD PUSH3 0xC2 SWAP1 PUSH3 0x1DD JUMP JUMPDEST PUSH3 0xD3 SWAP7 SWAP6 SWAP5 SWAP4 SWAP3 SWAP2 SWAP1 PUSH3 0x42C JUMP JUMPDEST PUSH1 0x40 MLOAD DUP1 SWAP2 SUB SWAP1 PUSH1 0x0 CREATE DUP1 ISZERO DUP1 ISZERO PUSH3 0xF0 JUMPI RETURNDATASIZE PUSH1 0x0 DUP1 RETURNDATACOPY RETURNDATASIZE PUSH1 0x0 REVERT JUMPDEST POP SWAP1 POP PUSH1 0x0 DUP2 SWAP1 DUP1 PUSH1 0x1 DUP2 SLOAD ADD DUP1 DUP3 SSTORE DUP1 SWAP2 POP POP PUSH1 0x1 SWAP1 SUB SWAP1 PUSH1 0x0 MSTORE PUSH1 0x20 PUSH1 0x0 KECCAK256 ADD PUSH1 0x0 SWAP1 SWAP2 SWAP1 SWAP2 SWAP1 SWAP2 PUSH2 0x100 EXP DUP2 SLOAD DUP2 PUSH20 0xFFFFFFFFFFFFFFFFFFFFFFFFFFFFFFFFFFFFFFFF MUL NOT AND SWAP1 DUP4 PUSH20 0xFFFFFFFFFFFFFFFFFFFFFFFFFFFFFFFFFFFFFFFF AND MUL OR SWAP1 SSTORE POP PUSH32 0xDBB18653DAFC4962DC966DAC250A14155F0C8A5040E55C5C59ED5F4ACB69F5BE DUP2 PUSH1 0x40 MLOAD PUSH3 0x187 SWAP2 SWAP1 PUSH3 0x40F JUMP JUMPDEST PUSH1 0x40 MLOAD DUP1 SWAP2 SUB SWAP1 LOG1 DUP1 SWAP2 POP POP SWAP7 SWAP6 POP POP POP POP POP POP JUMP JUMPDEST PUSH1 0x0 DUP2 DUP2 SLOAD DUP2 LT PUSH3 0x1AE JUMPI PUSH1 0x0 DUP1 REVERT JUMPDEST SWAP1 PUSH1 0x0 MSTORE PUSH1 0x20 PUSH1 0x0 KECCAK256 ADD PUSH1 0x0 SWAP2 POP SLOAD SWAP1 PUSH2 0x100 EXP SWAP1 DIV PUSH20 0xFFFFFFFFFFFFFFFFFFFFFFFFFFFFFFFFFFFFFFFF AND DUP2 JUMP JUMPDEST PUSH2 0x36AE DUP1 PUSH3 0x684 DUP4 CODECOPY ADD SWAP1 JUMP JUMPDEST PUSH1 0x0 PUSH3 0x202 PUSH3 0x1FC DUP5 PUSH3 0x4C9 JUMP JUMPDEST PUSH3 0x4A0 JUMP JUMPDEST SWAP1 POP DUP3 DUP2 MSTORE PUSH1 0x20 DUP2 ADD DUP5 DUP5 DUP5 ADD GT ISZERO PUSH3 0x221 JUMPI PUSH3 0x220 PUSH3 0x615 JUMP JUMPDEST JUMPDEST PUSH3 0x22E DUP5 DUP3 DUP6 PUSH3 0x566 JUMP JUMPDEST POP SWAP4 SWAP3 POP POP POP JUMP JUMPDEST PUSH1 0x0 DUP2 CALLDATALOAD SWAP1 POP PUSH3 0x247 DUP2 PUSH3 0x635 JUMP JUMPDEST SWAP3 SWAP2 POP POP JUMP JUMPDEST PUSH1 0x0 DUP3 PUSH1 0x1F DUP4 ADD SLT PUSH3 0x265 JUMPI PUSH3 0x264 PUSH3 0x610 JUMP JUMPDEST JUMPDEST DUP2 CALLDATALOAD PUSH3 0x277 DUP5 DUP3 PUSH1 0x20 DUP7 ADD PUSH3 0x1EB JUMP JUMPDEST SWAP2 POP POP SWAP3 SWAP2 POP POP JUMP JUMPDEST PUSH1 0x0 DUP2 CALLDATALOAD SWAP1 POP PUSH3 0x291 DUP2 PUSH3 0x64F JUMP JUMPDEST SWAP3 SWAP2 POP POP JUMP JUMPDEST PUSH1 0x0 DUP2 CALLDATALOAD SWAP1 POP PUSH3 0x2A8 DUP2 PUSH3 0x669 JUMP JUMPDEST SWAP3 SWAP2 POP POP JUMP JUMPDEST PUSH1 0x0 DUP1 PUSH1 0x0 DUP1 PUSH1 0x0 DUP1 PUSH1 0xC0 DUP8 DUP10 SUB SLT ISZERO PUSH3 0x2CE JUMPI PUSH3 0x2CD PUSH3 0x61F JUMP JUMPDEST JUMPDEST PUSH1 0x0 DUP8 ADD CALLDATALOAD PUSH8 0xFFFFFFFFFFFFFFFF DUP2 GT ISZERO PUSH3 0x2EF JUMPI PUSH3 0x2EE PUSH3 0x61A JUMP JUMPDEST JUMPDEST PUSH3 0x2FD DUP10 DUP3 DUP11 ADD PUSH3 0x24D JUMP JUMPDEST SWAP7 POP POP PUSH1 0x20 PUSH3 0x310 DUP10 DUP3 DUP11 ADD PUSH3 0x280 JUMP JUMPDEST SWAP6 POP POP PUSH1 0x40 PUSH3 0x323 DUP10 DUP3 DUP11 ADD PUSH3 0x297 JUMP JUMPDEST SWAP5 POP POP PUSH1 0x60 PUSH3 0x336 DUP10 DUP3 DUP11 ADD PUSH3 0x297 JUMP JUMPDEST SWAP4 POP POP PUSH1 0x80 PUSH3 0x349 DUP10 DUP3 DUP11 ADD PUSH3 0x280 JUMP JUMPDEST SWAP3 POP POP PUSH1 0xA0 PUSH3 0x35C DUP10 DUP3 DUP11 ADD PUSH3 0x236 JUMP JUMPDEST SWAP2 POP POP SWAP3 SWAP6 POP SWAP3 SWAP6 POP SWAP3 SWAP6 JUMP JUMPDEST PUSH1 0x0 PUSH1 0x20 DUP3 DUP5 SUB SLT ISZERO PUSH3 0x382 JUMPI PUSH3 0x381 PUSH3 0x61F JUMP JUMPDEST JUMPDEST PUSH1 0x0 PUSH3 0x392 DUP5 DUP3 DUP6 ADD PUSH3 0x280 JUMP JUMPDEST SWAP2 POP POP SWAP3 SWAP2 POP POP JUMP JUMPDEST PUSH3 0x3A6 DUP2 PUSH3 0x51B JUMP JUMPDEST DUP3 MSTORE POP POP JUMP JUMPDEST PUSH1 0x0 PUSH3 0x3B9 DUP3 PUSH3 0x4FF JUMP JUMPDEST PUSH3 0x3C5 DUP2 DUP6 PUSH3 0x50A JUMP JUMPDEST SWAP4 POP PUSH3 0x3D7 DUP2 DUP6 PUSH1 0x20 DUP7 ADD PUSH3 0x575 JUMP JUMPDEST PUSH3 0x3E2 DUP2 PUSH3 0x624 JUMP JUMPDEST DUP5 ADD SWAP2 POP POP SWAP3 SWAP2 POP POP JUMP JUMPDEST PUSH3 0x3F8 DUP2 PUSH3 0x54F JUMP JUMPDEST DUP3 MSTORE POP POP JUMP JUMPDEST PUSH3 0x409 DUP2 PUSH3 0x559 JUMP JUMPDEST DUP3 MSTORE POP POP JUMP JUMPDEST PUSH1 0x0 PUSH1 0x20 DUP3 ADD SWAP1 POP PUSH3 0x426 PUSH1 0x0 DUP4 ADD DUP5 PUSH3 0x39B JUMP JUMPDEST SWAP3 SWAP2 POP POP JUMP JUMPDEST PUSH1 0x0 PUSH1 0xC0 DUP3 ADD SWAP1 POP DUP2 DUP2 SUB PUSH1 0x0 DUP4 ADD MSTORE PUSH3 0x448 DUP2 DUP10 PUSH3 0x3AC JUMP JUMPDEST SWAP1 POP PUSH3 0x459 PUSH1 0x20 DUP4 ADD DUP9 PUSH3 0x3ED JUMP JUMPDEST PUSH3 0x468 PUSH1 0x40 DUP4 ADD DUP8 PUSH3 0x3FE JUMP JUMPDEST PUSH3 0x477 PUSH1 0x60 DUP4 ADD DUP7 PUSH3 0x3FE JUMP JUMPDEST PUSH3 0x486 PUSH1 0x80 DUP4 ADD DUP6 PUSH3 0x3ED JUMP JUMPDEST PUSH3 0x495 PUSH1 0xA0 DUP4 ADD DUP5 PUSH3 0x39B JUMP JUMPDEST SWAP8 SWAP7 POP POP POP POP POP POP POP JUMP JUMPDEST PUSH1 0x0 PUSH3 0x4AC PUSH3 0x4BF JUMP JUMPDEST SWAP1 POP PUSH3 0x4BA DUP3 DUP3 PUSH3 0x5AB JUMP JUMPDEST SWAP2 SWAP1 POP JUMP JUMPDEST PUSH1 0x0 PUSH1 0x40 MLOAD SWAP1 POP SWAP1 JUMP JUMPDEST PUSH1 0x0 PUSH8 0xFFFFFFFFFFFFFFFF DUP3 GT ISZERO PUSH3 0x4E7 JUMPI PUSH3 0x4E6 PUSH3 0x5E1 JUMP JUMPDEST JUMPDEST PUSH3 0x4F2 DUP3 PUSH3 0x624 JUMP JUMPDEST SWAP1 POP PUSH1 0x20 DUP2 ADD SWAP1 POP SWAP2 SWAP1 POP JUMP JUMPDEST PUSH1 0x0 DUP2 MLOAD SWAP1 POP SWAP2 SWAP1 POP JUMP JUMPDEST PUSH1 0x0 DUP3 DUP3 MSTORE PUSH1 0x20 DUP3 ADD SWAP1 POP SWAP3 SWAP2 POP POP JUMP JUMPDEST PUSH1 0x0 PUSH3 0x528 DUP3 PUSH3 0x52F JUMP JUMPDEST SWAP1 POP SWAP2 SWAP1 POP JUMP JUMPDEST PUSH1 0x0 PUSH20 0xFFFFFFFFFFFFFFFFFFFFFFFFFFFFFFFFFFFFFFFF DUP3 AND SWAP1 POP SWAP2 SWAP1 POP JUMP JUMPDEST PUSH1 0x0 DUP2 SWAP1 POP SWAP2 SWAP1 POP JUMP JUMPDEST PUSH1 0x0 PUSH1 0xFF DUP3 AND SWAP1 POP SWAP2 SWAP1 POP JUMP JUMPDEST DUP3 DUP2 DUP4 CALLDATACOPY PUSH1 0x0 DUP4 DUP4 ADD MSTORE POP POP POP JUMP JUMPDEST PUSH1 0x0 JUMPDEST DUP4 DUP2 LT ISZERO PUSH3 0x595 JUMPI DUP1 DUP3 ADD MLOAD DUP2 DUP5 ADD MSTORE PUSH1 0x20 DUP2 ADD SWAP1 POP PUSH3 0x578 JUMP JUMPDEST DUP4 DUP2 GT ISZERO PUSH3 0x5A5 JUMPI PUSH1 0x0 DUP5 DUP5 ADD MSTORE JUMPDEST POP POP POP POP JUMP JUMPDEST PUSH3 0x5B6 DUP3 PUSH3 0x624 JUMP JUMPDEST DUP2 ADD DUP2 DUP2 LT PUSH8 0xFFFFFFFFFFFFFFFF DUP3 GT OR ISZERO PUSH3 0x5D8 JUMPI PUSH3 0x5D7 PUSH3 0x5E1 JUMP JUMPDEST JUMPDEST DUP1 PUSH1 0x40 MSTORE POP POP POP JUMP JUMPDEST PUSH32 0x4E487B7100000000000000000000000000000000000000000000000000000000 PUSH1 0x0 MSTORE PUSH1 0x41 PUSH1 0x4 MSTORE PUSH1 0x24 PUSH1 0x0 REVERT JUMPDEST PUSH1 0x0 DUP1 REVERT JUMPDEST PUSH1 0x0 DUP1 REVERT JUMPDEST PUSH1 0x0 DUP1 REVERT JUMPDEST PUSH1 0x0 DUP1 REVERT JUMPDEST PUSH1 0x0 PUSH1 0x1F NOT PUSH1 0x1F DUP4 ADD AND SWAP1 POP SWAP2 SWAP1 POP JUMP JUMPDEST PUSH3 0x640 DUP2 PUSH3 0x51B JUMP JUMPDEST DUP2 EQ PUSH3 0x64C JUMPI PUSH1 0x0 DUP1 REVERT JUMPDEST POP JUMP JUMPDEST PUSH3 0x65A DUP2 PUSH3 0x54F JUMP JUMPDEST DUP2 EQ PUSH3 0x666 JUMPI PUSH1 0x0 DUP1 REVERT JUMPDEST POP JUMP JUMPDEST PUSH3 0x674 DUP2 PUSH3 0x559 JUMP JUMPDEST DUP2 EQ PUSH3 0x680 JUMPI PUSH1 0x0 DUP1 REVERT JUMPDEST POP JUMP INVALID PUSH1 0x80 PUSH1 0x40 MSTORE CALLVALUE DUP1 ISZERO PUSH3 0x11 JUMPI PUSH1 0x0 DUP1 REVERT JUMPDEST POP PUSH1 0x40 MLOAD PUSH3 0x36AE CODESIZE SUB DUP1 PUSH3 0x36AE DUP4 CODECOPY DUP2 DUP2 ADD PUSH1 0x40 MSTORE DUP2 ADD SWAP1 PUSH3 0x37 SWAP2 SWAP1 PUSH3 0x254 JUMP JUMPDEST DUP6 PUSH1 0x0 SWAP1 DUP1 MLOAD SWAP1 PUSH1 0x20 ADD SWAP1 PUSH3 0x4F SWAP3 SWAP2 SWAP1 PUSH3 0xE1 JUMP JUMPDEST POP DUP5 PUSH1 0x1 DUP2 SWAP1 SSTORE POP DUP4 PUSH1 0x2 PUSH1 0x0 PUSH2 0x100 EXP DUP2 SLOAD DUP2 PUSH1 0xFF MUL NOT AND SWAP1 DUP4 PUSH1 0xFF AND MUL OR SWAP1 SSTORE POP DUP3 PUSH1 0x2 PUSH1 0x1 PUSH2 0x100 EXP DUP2 SLOAD DUP2 PUSH1 0xFF MUL NOT AND SWAP1 DUP4 PUSH1 0xFF AND MUL OR SWAP1 SSTORE POP DUP2 PUSH1 0x7 DUP2 SWAP1 SSTORE POP DUP1 PUSH1 0x8 PUSH1 0x0 PUSH2 0x100 EXP DUP2 SLOAD DUP2 PUSH20 0xFFFFFFFFFFFFFFFFFFFFFFFFFFFFFFFFFFFFFFFF MUL NOT AND SWAP1 DUP4 PUSH20 0xFFFFFFFFFFFFFFFFFFFFFFFFFFFFFFFFFFFFFFFF AND MUL OR SWAP1 SSTORE POP POP POP POP POP POP POP PUSH3 0x52C JUMP JUMPDEST DUP3 DUP1 SLOAD PUSH3 0xEF SWAP1 PUSH3 0x3EF JUMP JUMPDEST SWAP1 PUSH1 0x0 MSTORE PUSH1 0x20 PUSH1 0x0 KECCAK256 SWAP1 PUSH1 0x1F ADD PUSH1 0x20 SWAP1 DIV DUP2 ADD SWAP3 DUP3 PUSH3 0x113 JUMPI PUSH1 0x0 DUP6 SSTORE PUSH3 0x15F JUMP JUMPDEST DUP3 PUSH1 0x1F LT PUSH3 0x12E JUMPI DUP1 MLOAD PUSH1 0xFF NOT AND DUP4 DUP1 ADD OR DUP6 SSTORE PUSH3 0x15F JUMP JUMPDEST DUP3 DUP1 ADD PUSH1 0x1 ADD DUP6 SSTORE DUP3 ISZERO PUSH3 0x15F JUMPI SWAP2 DUP3 ADD JUMPDEST DUP3 DUP2 GT ISZERO PUSH3 0x15E JUMPI DUP3 MLOAD DUP3 SSTORE SWAP2 PUSH1 0x20 ADD SWAP2 SWAP1 PUSH1 0x1 ADD SWAP1 PUSH3 0x141 JUMP JUMPDEST JUMPDEST POP SWAP1 POP PUSH3 0x16E SWAP2 SWAP1 PUSH3 0x172 JUMP JUMPDEST POP SWAP1 JUMP JUMPDEST JUMPDEST DUP1 DUP3 GT ISZERO PUSH3 0x18D JUMPI PUSH1 0x0 DUP2 PUSH1 0x0 SWAP1 SSTORE POP PUSH1 0x1 ADD PUSH3 0x173 JUMP JUMPDEST POP SWAP1 JUMP JUMPDEST PUSH1 0x0 PUSH3 0x1A8 PUSH3 0x1A2 DUP5 PUSH3 0x338 JUMP JUMPDEST PUSH3 0x30F JUMP JUMPDEST SWAP1 POP DUP3 DUP2 MSTORE PUSH1 0x20 DUP2 ADD DUP5 DUP5 DUP5 ADD GT ISZERO PUSH3 0x1C7 JUMPI PUSH3 0x1C6 PUSH3 0x4BE JUMP JUMPDEST JUMPDEST PUSH3 0x1D4 DUP5 DUP3 DUP6 PUSH3 0x3B9 JUMP JUMPDEST POP SWAP4 SWAP3 POP POP POP JUMP JUMPDEST PUSH1 0x0 DUP2 MLOAD SWAP1 POP PUSH3 0x1ED DUP2 PUSH3 0x4DE JUMP JUMPDEST SWAP3 SWAP2 POP POP JUMP JUMPDEST PUSH1 0x0 DUP3 PUSH1 0x1F DUP4 ADD SLT PUSH3 0x20B JUMPI PUSH3 0x20A PUSH3 0x4B9 JUMP JUMPDEST JUMPDEST DUP2 MLOAD PUSH3 0x21D DUP5 DUP3 PUSH1 0x20 DUP7 ADD PUSH3 0x191 JUMP JUMPDEST SWAP2 POP POP SWAP3 SWAP2 POP POP JUMP JUMPDEST PUSH1 0x0 DUP2 MLOAD SWAP1 POP PUSH3 0x237 DUP2 PUSH3 0x4F8 JUMP JUMPDEST SWAP3 SWAP2 POP POP JUMP JUMPDEST PUSH1 0x0 DUP2 MLOAD SWAP1 POP PUSH3 0x24E DUP2 PUSH3 0x512 JUMP JUMPDEST SWAP3 SWAP2 POP POP JUMP JUMPDEST PUSH1 0x0 DUP1 PUSH1 0x0 DUP1 PUSH1 0x0 DUP1 PUSH1 0xC0 DUP8 DUP10 SUB SLT ISZERO PUSH3 0x274 JUMPI PUSH3 0x273 PUSH3 0x4C8 JUMP JUMPDEST JUMPDEST PUSH1 0x0 DUP8 ADD MLOAD PUSH8 0xFFFFFFFFFFFFFFFF DUP2 GT ISZERO PUSH3 0x295 JUMPI PUSH3 0x294 PUSH3 0x4C3 JUMP JUMPDEST JUMPDEST PUSH3 0x2A3 DUP10 DUP3 DUP11 ADD PUSH3 0x1F3 JUMP JUMPDEST SWAP7 POP POP PUSH1 0x20 PUSH3 0x2B6 DUP10 DUP3 DUP11 ADD PUSH3 0x226 JUMP JUMPDEST SWAP6 POP POP PUSH1 0x40 PUSH3 0x2C9 DUP10 DUP3 DUP11 ADD PUSH3 0x23D JUMP JUMPDEST SWAP5 POP POP PUSH1 0x60 PUSH3 0x2DC DUP10 DUP3 DUP11 ADD PUSH3 0x23D JUMP JUMPDEST SWAP4 POP POP PUSH1 0x80 PUSH3 0x2EF DUP10 DUP3 DUP11 ADD PUSH3 0x226 JUMP JUMPDEST SWAP3 POP POP PUSH1 0xA0 PUSH3 0x302 DUP10 DUP3 DUP11 ADD PUSH3 0x1DC JUMP JUMPDEST SWAP2 POP POP SWAP3 SWAP6 POP SWAP3 SWAP6 POP SWAP3 SWAP6 JUMP JUMPDEST PUSH1 0x0 PUSH3 0x31B PUSH3 0x32E JUMP JUMPDEST SWAP1 POP PUSH3 0x329 DUP3 DUP3 PUSH3 0x425 JUMP JUMPDEST SWAP2 SWAP1 POP JUMP JUMPDEST PUSH1 0x0 PUSH1 0x40 MLOAD SWAP1 POP SWAP1 JUMP JUMPDEST PUSH1 0x0 PUSH8 0xFFFFFFFFFFFFFFFF DUP3 GT ISZERO PUSH3 0x356 JUMPI PUSH3 0x355 PUSH3 0x48A JUMP JUMPDEST JUMPDEST PUSH3 0x361 DUP3 PUSH3 0x4CD JUMP JUMPDEST SWAP1 POP PUSH1 0x20 DUP2 ADD SWAP1 POP SWAP2 SWAP1 POP JUMP JUMPDEST PUSH1 0x0 PUSH3 0x37B DUP3 PUSH3 0x382 JUMP JUMPDEST SWAP1 POP SWAP2 SWAP1 POP JUMP JUMPDEST PUSH1 0x0 PUSH20 0xFFFFFFFFFFFFFFFFFFFFFFFFFFFFFFFFFFFFFFFF DUP3 AND SWAP1 POP SWAP2 SWAP1 POP JUMP JUMPDEST PUSH1 0x0 DUP2 SWAP1 POP SWAP2 SWAP1 POP JUMP JUMPDEST PUSH1 0x0 PUSH1 0xFF DUP3 AND SWAP1 POP SWAP2 SWAP1 POP JUMP JUMPDEST PUSH1 0x0 JUMPDEST DUP4 DUP2 LT ISZERO PUSH3 0x3D9 JUMPI DUP1 DUP3 ADD MLOAD DUP2 DUP5 ADD MSTORE PUSH1 0x20 DUP2 ADD SWAP1 POP PUSH3 0x3BC JUMP JUMPDEST DUP4 DUP2 GT ISZERO PUSH3 0x3E9 JUMPI PUSH1 0x0 DUP5 DUP5 ADD MSTORE JUMPDEST POP POP POP POP JUMP JUMPDEST PUSH1 0x0 PUSH1 0x2 DUP3 DIV SWAP1 POP PUSH1 0x1 DUP3 AND DUP1 PUSH3 0x408 JUMPI PUSH1 0x7F DUP3 AND SWAP2 POP JUMPDEST PUSH1 0x20 DUP3 LT DUP2 EQ ISZERO PUSH3 0x41F JUMPI PUSH3 0x41E PUSH3 0x45B JUMP JUMPDEST JUMPDEST POP SWAP2 SWAP1 POP JUMP JUMPDEST PUSH3 0x430 DUP3 PUSH3 0x4CD JUMP JUMPDEST DUP2 ADD DUP2 DUP2 LT PUSH8 0xFFFFFFFFFFFFFFFF DUP3 GT OR ISZERO PUSH3 0x452 JUMPI PUSH3 0x451 PUSH3 0x48A JUMP JUMPDEST JUMPDEST DUP1 PUSH1 0x40 MSTORE POP POP POP JUMP JUMPDEST PUSH32 0x4E487B7100000000000000000000000000000000000000000000000000000000 PUSH1 0x0 MSTORE PUSH1 0x22 PUSH1 0x4 MSTORE PUSH1 0x24 PUSH1 0x0 REVERT JUMPDEST PUSH32 0x4E487B7100000000000000000000000000000000000000000000000000000000 PUSH1 0x0 MSTORE PUSH1 0x41 PUSH1 0x4 MSTORE PUSH1 0x24 PUSH1 0x0 REVERT JUMPDEST PUSH1 0x0 DUP1 REVERT JUMPDEST PUSH1 0x0 DUP1 REVERT JUMPDEST PUSH1 0x0 DUP1 REVERT JUMPDEST PUSH1 0x0 DUP1 REVERT JUMPDEST PUSH1 0x0 PUSH1 0x1F NOT PUSH1 0x1F DUP4 ADD AND SWAP1 POP SWAP2 SWAP1 POP JUMP JUMPDEST PUSH3 0x4E9 DUP2 PUSH3 0x36E JUMP JUMPDEST DUP2 EQ PUSH3 0x4F5 JUMPI PUSH1 0x0 DUP1 REVERT JUMPDEST POP JUMP JUMPDEST PUSH3 0x503 DUP2 PUSH3 0x3A2 JUMP JUMPDEST DUP2 EQ PUSH3 0x50F JUMPI PUSH1 0x0 DUP1 REVERT JUMPDEST POP JUMP JUMPDEST PUSH3 0x51D DUP2 PUSH3 0x3AC JUMP JUMPDEST DUP2 EQ PUSH3 0x529 JUMPI PUSH1 0x0 DUP1 REVERT JUMPDEST POP JUMP JUMPDEST PUSH2 0x3172 DUP1 PUSH3 0x53C PUSH1 0x0 CODECOPY PUSH1 0x0 RETURN INVALID PUSH1 0x80 PUSH1 0x40 MSTORE PUSH1 0x4 CALLDATASIZE LT PUSH2 0x140 JUMPI PUSH1 0x0 CALLDATALOAD PUSH1 0xE0 SHR DUP1 PUSH4 0x682904A5 GT PUSH2 0xB6 JUMPI DUP1 PUSH4 0xA126285B GT PUSH2 0x6F JUMPI DUP1 PUSH4 0xA126285B EQ PUSH2 0x455 JUMPI DUP1 PUSH4 0xA195BCCA EQ PUSH2 0x480 JUMPI DUP1 PUSH4 0xC45821F4 EQ PUSH2 0x497 JUMPI DUP1 PUSH4 0xCCBAC9F5 EQ PUSH2 0x4D4 JUMPI DUP1 PUSH4 0xD6BFEA28 EQ PUSH2 0x4FF JUMPI DUP1 PUSH4 0xFBBF93A0 EQ PUSH2 0x528 JUMPI PUSH2 0x140 JUMP JUMPDEST DUP1 PUSH4 0x682904A5 EQ PUSH2 0x340 JUMPI DUP1 PUSH4 0x6A93111C EQ PUSH2 0x37D JUMPI DUP1 PUSH4 0x752CA004 EQ PUSH2 0x399 JUMPI DUP1 PUSH4 0x780D8B73 EQ PUSH2 0x3D6 JUMPI DUP1 PUSH4 0x7AA2A299 EQ PUSH2 0x3FF JUMPI DUP1 PUSH4 0x9204C9B7 EQ PUSH2 0x42A JUMPI PUSH2 0x140 JUMP JUMPDEST DUP1 PUSH4 0x39B52225 GT PUSH2 0x108 JUMPI DUP1 PUSH4 0x39B52225 EQ PUSH2 0x22E JUMPI DUP1 PUSH4 0x4E45F095 EQ PUSH2 0x26B JUMPI DUP1 PUSH4 0x5C975ABB EQ PUSH2 0x2A8 JUMPI DUP1 PUSH4 0x5CBBD635 EQ PUSH2 0x2D3 JUMPI DUP1 PUSH4 0x650A031A EQ PUSH2 0x2FE JUMPI DUP1 PUSH4 0x676C902F EQ PUSH2 0x329 JUMPI PUSH2 0x140 JUMP JUMPDEST DUP1 PUSH4 0x6C5C0C8 EQ PUSH2 0x145 JUMPI DUP1 PUSH4 0x6FDDE03 EQ PUSH2 0x170 JUMPI DUP1 PUSH4 0xEECAE21 EQ PUSH2 0x19B JUMPI DUP1 PUSH4 0x113DA88A EQ PUSH2 0x1C6 JUMPI DUP1 PUSH4 0x32A6D979 EQ PUSH2 0x203 JUMPI JUMPDEST PUSH1 0x0 DUP1 REVERT JUMPDEST CALLVALUE DUP1 ISZERO PUSH2 0x151 JUMPI PUSH1 0x0 DUP1 REVERT JUMPDEST POP PUSH2 0x15A PUSH2 0x55E JUMP JUMPDEST PUSH1 0x40 MLOAD PUSH2 0x167 SWAP2 SWAP1 PUSH2 0x2475 JUMP JUMPDEST PUSH1 0x40 MLOAD DUP1 SWAP2 SUB SWAP1 RETURN JUMPDEST CALLVALUE DUP1 ISZERO PUSH2 0x17C JUMPI PUSH1 0x0 DUP1 REVERT JUMPDEST POP PUSH2 0x185 PUSH2 0x564 JUMP JUMPDEST PUSH1 0x40 MLOAD PUSH2 0x192 SWAP2 SWAP1 PUSH2 0x224B JUMP JUMPDEST PUSH1 0x40 MLOAD DUP1 SWAP2 SUB SWAP1 RETURN JUMPDEST CALLVALUE DUP1 ISZERO PUSH2 0x1A7 JUMPI PUSH1 0x0 DUP1 REVERT JUMPDEST POP PUSH2 0x1B0 PUSH2 0x5F2 JUMP JUMPDEST PUSH1 0x40 MLOAD PUSH2 0x1BD SWAP2 SWAP1 PUSH2 0x2475 JUMP JUMPDEST PUSH1 0x40 MLOAD DUP1 SWAP2 SUB SWAP1 RETURN JUMPDEST CALLVALUE DUP1 ISZERO PUSH2 0x1D2 JUMPI PUSH1 0x0 DUP1 REVERT JUMPDEST POP PUSH2 0x1ED PUSH1 0x4 DUP1 CALLDATASIZE SUB DUP2 ADD SWAP1 PUSH2 0x1E8 SWAP2 SWAP1 PUSH2 0x157E JUMP JUMPDEST PUSH2 0x5F8 JUMP JUMPDEST PUSH1 0x40 MLOAD PUSH2 0x1FA SWAP2 SWAP1 PUSH2 0x2230 JUMP JUMPDEST PUSH1 0x40 MLOAD DUP1 SWAP2 SUB SWAP1 RETURN JUMPDEST CALLVALUE DUP1 ISZERO PUSH2 0x20F JUMPI PUSH1 0x0 DUP1 REVERT JUMPDEST POP PUSH2 0x218 PUSH2 0x699 JUMP JUMPDEST PUSH1 0x40 MLOAD PUSH2 0x225 SWAP2 SWAP1 PUSH2 0x2230 JUMP JUMPDEST PUSH1 0x40 MLOAD DUP1 SWAP2 SUB SWAP1 RETURN JUMPDEST CALLVALUE DUP1 ISZERO PUSH2 0x23A JUMPI PUSH1 0x0 DUP1 REVERT JUMPDEST POP PUSH2 0x255 PUSH1 0x4 DUP1 CALLDATASIZE SUB DUP2 ADD SWAP1 PUSH2 0x250 SWAP2 SWAP1 PUSH2 0x1661 JUMP JUMPDEST PUSH2 0x6AC JUMP JUMPDEST PUSH1 0x40 MLOAD PUSH2 0x262 SWAP2 SWAP1 PUSH2 0x2230 JUMP JUMPDEST PUSH1 0x40 MLOAD DUP1 SWAP2 SUB SWAP1 RETURN JUMPDEST CALLVALUE DUP1 ISZERO PUSH2 0x277 JUMPI PUSH1 0x0 DUP1 REVERT JUMPDEST POP PUSH2 0x292 PUSH1 0x4 DUP1 CALLDATASIZE SUB DUP2 ADD SWAP1 PUSH2 0x28D SWAP2 SWAP1 PUSH2 0x15F4 JUMP JUMPDEST PUSH2 0x714 JUMP JUMPDEST PUSH1 0x40 MLOAD PUSH2 0x29F SWAP2 SWAP1 PUSH2 0x24B9 JUMP JUMPDEST PUSH1 0x40 MLOAD DUP1 SWAP2 SUB SWAP1 RETURN JUMPDEST CALLVALUE DUP1 ISZERO PUSH2 0x2B4 JUMPI PUSH1 0x0 DUP1 REVERT JUMPDEST POP PUSH2 0x2BD PUSH2 0x748 JUMP JUMPDEST PUSH1 0x40 MLOAD PUSH2 0x2CA SWAP2 SWAP1 PUSH2 0x2230 JUMP JUMPDEST PUSH1 0x40 MLOAD DUP1 SWAP2 SUB SWAP1 RETURN JUMPDEST CALLVALUE DUP1 ISZERO PUSH2 0x2DF JUMPI PUSH1 0x0 DUP1 REVERT JUMPDEST POP PUSH2 0x2E8 PUSH2 0x75B JUMP JUMPDEST PUSH1 0x40 MLOAD PUSH2 0x2F5 SWAP2 SWAP1 PUSH2 0x2475 JUMP JUMPDEST PUSH1 0x40 MLOAD DUP1 SWAP2 SUB SWAP1 RETURN JUMPDEST CALLVALUE DUP1 ISZERO PUSH2 0x30A JUMPI PUSH1 0x0 DUP1 REVERT JUMPDEST POP PUSH2 0x313 PUSH2 0x761 JUMP JUMPDEST PUSH1 0x40 MLOAD PUSH2 0x320 SWAP2 SWAP1 PUSH2 0x24B9 JUMP JUMPDEST PUSH1 0x40 MLOAD DUP1 SWAP2 SUB SWAP1 RETURN JUMPDEST CALLVALUE DUP1 ISZERO PUSH2 0x335 JUMPI PUSH1 0x0 DUP1 REVERT JUMPDEST POP PUSH2 0x33E PUSH2 0x774 JUMP JUMPDEST STOP JUMPDEST CALLVALUE DUP1 ISZERO PUSH2 0x34C JUMPI PUSH1 0x0 DUP1 REVERT JUMPDEST POP PUSH2 0x367 PUSH1 0x4 DUP1 CALLDATASIZE SUB DUP2 ADD SWAP1 PUSH2 0x362 SWAP2 SWAP1 PUSH2 0x15F4 JUMP JUMPDEST PUSH2 0x8C7 JUMP JUMPDEST PUSH1 0x40 MLOAD PUSH2 0x374 SWAP2 SWAP1 PUSH2 0x21AE JUMP JUMPDEST PUSH1 0x40 MLOAD DUP1 SWAP2 SUB SWAP1 RETURN JUMPDEST PUSH2 0x397 PUSH1 0x4 DUP1 CALLDATASIZE SUB DUP2 ADD SWAP1 PUSH2 0x392 SWAP2 SWAP1 PUSH2 0x157E JUMP JUMPDEST PUSH2 0xA17 JUMP JUMPDEST STOP JUMPDEST CALLVALUE DUP1 ISZERO PUSH2 0x3A5 JUMPI PUSH1 0x0 DUP1 REVERT JUMPDEST POP PUSH2 0x3C0 PUSH1 0x4 DUP1 CALLDATASIZE SUB DUP2 ADD SWAP1 PUSH2 0x3BB SWAP2 SWAP1 PUSH2 0x1621 JUMP JUMPDEST PUSH2 0xBB8 JUMP JUMPDEST PUSH1 0x40 MLOAD PUSH2 0x3CD SWAP2 SWAP1 PUSH2 0x2193 JUMP JUMPDEST PUSH1 0x40 MLOAD DUP1 SWAP2 SUB SWAP1 RETURN JUMPDEST CALLVALUE DUP1 ISZERO PUSH2 0x3E2 JUMPI PUSH1 0x0 DUP1 REVERT JUMPDEST POP PUSH2 0x3FD PUSH1 0x4 DUP1 CALLDATASIZE SUB DUP2 ADD SWAP1 PUSH2 0x3F8 SWAP2 SWAP1 PUSH2 0x157E JUMP JUMPDEST PUSH2 0xC06 JUMP JUMPDEST STOP JUMPDEST CALLVALUE DUP1 ISZERO PUSH2 0x40B JUMPI PUSH1 0x0 DUP1 REVERT JUMPDEST POP PUSH2 0x414 PUSH2 0xCA6 JUMP JUMPDEST PUSH1 0x40 MLOAD PUSH2 0x421 SWAP2 SWAP1 PUSH2 0x2475 JUMP JUMPDEST PUSH1 0x40 MLOAD DUP1 SWAP2 SUB SWAP1 RETURN JUMPDEST CALLVALUE DUP1 ISZERO PUSH2 0x436 JUMPI PUSH1 0x0 DUP1 REVERT JUMPDEST POP PUSH2 0x43F PUSH2 0xCAC JUMP JUMPDEST PUSH1 0x40 MLOAD PUSH2 0x44C SWAP2 SWAP1 PUSH2 0x24B9 JUMP JUMPDEST PUSH1 0x40 MLOAD DUP1 SWAP2 SUB SWAP1 RETURN JUMPDEST CALLVALUE DUP1 ISZERO PUSH2 0x461 JUMPI PUSH1 0x0 DUP1 REVERT JUMPDEST POP PUSH2 0x46A PUSH2 0xCBF JUMP JUMPDEST PUSH1 0x40 MLOAD PUSH2 0x477 SWAP2 SWAP1 PUSH2 0x2193 JUMP JUMPDEST PUSH1 0x40 MLOAD DUP1 SWAP2 SUB SWAP1 RETURN JUMPDEST CALLVALUE DUP1 ISZERO PUSH2 0x48C JUMPI PUSH1 0x0 DUP1 REVERT JUMPDEST POP PUSH2 0x495 PUSH2 0xCE5 JUMP JUMPDEST STOP JUMPDEST CALLVALUE DUP1 ISZERO PUSH2 0x4A3 JUMPI PUSH1 0x0 DUP1 REVERT JUMPDEST POP PUSH2 0x4BE PUSH1 0x4 DUP1 CALLDATASIZE SUB DUP2 ADD SWAP1 PUSH2 0x4B9 SWAP2 SWAP1 PUSH2 0x157E JUMP JUMPDEST PUSH2 0xE92 JUMP JUMPDEST PUSH1 0x40 MLOAD PUSH2 0x4CB SWAP2 SWAP1 PUSH2 0x2475 JUMP JUMPDEST PUSH1 0x40 MLOAD DUP1 SWAP2 SUB SWAP1 RETURN JUMPDEST CALLVALUE DUP1 ISZERO PUSH2 0x4E0 JUMPI PUSH1 0x0 DUP1 REVERT JUMPDEST POP PUSH2 0x4E9 PUSH2 0xEFA JUMP JUMPDEST PUSH1 0x40 MLOAD PUSH2 0x4F6 SWAP2 SWAP1 PUSH2 0x2475 JUMP JUMPDEST PUSH1 0x40 MLOAD DUP1 SWAP2 SUB SWAP1 RETURN JUMPDEST CALLVALUE DUP1 ISZERO PUSH2 0x50B JUMPI PUSH1 0x0 DUP1 REVERT JUMPDEST POP PUSH2 0x526 PUSH1 0x4 DUP1 CALLDATASIZE SUB DUP2 ADD SWAP1 PUSH2 0x521 SWAP2 SWAP1 PUSH2 0x15F4 JUMP JUMPDEST PUSH2 0xF00 JUMP JUMPDEST STOP JUMPDEST CALLVALUE DUP1 ISZERO PUSH2 0x534 JUMPI PUSH1 0x0 DUP1 REVERT JUMPDEST POP PUSH2 0x53D PUSH2 0xFF2 JUMP JUMPDEST PUSH1 0x40 MLOAD PUSH2 0x555 SWAP13 SWAP12 SWAP11 SWAP10 SWAP9 SWAP8 SWAP7 SWAP6 SWAP5 SWAP4 SWAP3 SWAP2 SWAP1 PUSH2 0x226D JUMP JUMPDEST PUSH1 0x40 MLOAD DUP1 SWAP2 SUB SWAP1 RETURN JUMPDEST PUSH1 0x7 SLOAD DUP2 JUMP JUMPDEST PUSH1 0x0 DUP1 SLOAD PUSH2 0x571 SWAP1 PUSH2 0x2733 JUMP JUMPDEST DUP1 PUSH1 0x1F ADD PUSH1 0x20 DUP1 SWAP2 DIV MUL PUSH1 0x20 ADD PUSH1 0x40 MLOAD SWAP1 DUP2 ADD PUSH1 0x40 MSTORE DUP1 SWAP3 SWAP2 SWAP1 DUP2 DUP2 MSTORE PUSH1 0x20 ADD DUP3 DUP1 SLOAD PUSH2 0x59D SWAP1 PUSH2 0x2733 JUMP JUMPDEST DUP1 ISZERO PUSH2 0x5EA JUMPI DUP1 PUSH1 0x1F LT PUSH2 0x5BF JUMPI PUSH2 0x100 DUP1 DUP4 SLOAD DIV MUL DUP4 MSTORE SWAP2 PUSH1 0x20 ADD SWAP2 PUSH2 0x5EA JUMP JUMPDEST DUP3 ADD SWAP2 SWAP1 PUSH1 0x0 MSTORE PUSH1 0x20 PUSH1 0x0 KECCAK256 SWAP1 JUMPDEST DUP2 SLOAD DUP2 MSTORE SWAP1 PUSH1 0x1 ADD SWAP1 PUSH1 0x20 ADD DUP1 DUP4 GT PUSH2 0x5CD JUMPI DUP3 SWAP1 SUB PUSH1 0x1F AND DUP3 ADD SWAP2 JUMPDEST POP POP POP POP POP DUP2 JUMP JUMPDEST PUSH1 0x4 SLOAD DUP2 JUMP JUMPDEST PUSH1 0x0 DUP1 PUSH1 0x0 SWAP1 POP JUMPDEST DUP3 MLOAD DUP2 PUSH1 0xFF AND LT ISZERO PUSH2 0x68E JUMPI PUSH1 0x0 DUP4 DUP3 PUSH1 0xFF AND DUP2 MLOAD DUP2 LT PUSH2 0x624 JUMPI PUSH2 0x623 PUSH2 0x2C07 JUMP JUMPDEST JUMPDEST PUSH1 0x20 MUL PUSH1 0x20 ADD ADD MLOAD PUSH1 0xFF AND EQ DUP1 PUSH2 0x66C JUMPI POP PUSH1 0x2 PUSH1 0x0 SWAP1 SLOAD SWAP1 PUSH2 0x100 EXP SWAP1 DIV PUSH1 0xFF AND PUSH1 0xFF AND DUP4 DUP3 PUSH1 0xFF AND DUP2 MLOAD DUP2 LT PUSH2 0x65F JUMPI PUSH2 0x65E PUSH2 0x2C07 JUMP JUMPDEST JUMPDEST PUSH1 0x20 MUL PUSH1 0x20 ADD ADD MLOAD PUSH1 0xFF AND GT JUMPDEST ISZERO PUSH2 0x67B JUMPI PUSH1 0x0 SWAP2 POP POP PUSH2 0x694 JUMP JUMPDEST DUP1 DUP1 PUSH2 0x686 SWAP1 PUSH2 0x2B1F JUMP JUMPDEST SWAP2 POP POP PUSH2 0x600 JUMP JUMPDEST POP PUSH1 0x1 SWAP1 POP JUMPDEST SWAP2 SWAP1 POP JUMP JUMPDEST PUSH1 0xA PUSH1 0x0 SWAP1 SLOAD SWAP1 PUSH2 0x100 EXP SWAP1 DIV PUSH1 0xFF AND DUP2 JUMP JUMPDEST PUSH1 0x0 DUP1 PUSH1 0x0 SWAP1 POP JUMPDEST DUP3 MLOAD DUP2 PUSH1 0xFF AND LT ISZERO PUSH2 0x708 JUMPI DUP4 PUSH1 0xFF AND DUP4 DUP3 PUSH1 0xFF AND DUP2 MLOAD DUP2 LT PUSH2 0x6DA JUMPI PUSH2 0x6D9 PUSH2 0x2C07 JUMP JUMPDEST JUMPDEST PUSH1 0x20 MUL PUSH1 0x20 ADD ADD MLOAD PUSH1 0xFF AND EQ ISZERO PUSH2 0x6F5 JUMPI PUSH1 0x1 SWAP2 POP POP PUSH2 0x70E JUMP JUMPDEST DUP1 DUP1 PUSH2 0x700 SWAP1 PUSH2 0x2B1F JUMP JUMPDEST SWAP2 POP POP PUSH2 0x6B4 JUMP JUMPDEST POP PUSH1 0x0 SWAP1 POP JUMPDEST SWAP3 SWAP2 POP POP JUMP JUMPDEST PUSH1 0x3 DUP2 DUP2 SLOAD DUP2 LT PUSH2 0x724 JUMPI PUSH1 0x0 DUP1 REVERT JUMPDEST SWAP1 PUSH1 0x0 MSTORE PUSH1 0x20 PUSH1 0x0 KECCAK256 SWAP1 PUSH1 0x20 SWAP2 DUP3 DUP3 DIV ADD SWAP2 SWAP1 MOD SWAP2 POP SLOAD SWAP1 PUSH2 0x100 EXP SWAP1 DIV PUSH1 0xFF AND DUP2 JUMP JUMPDEST PUSH1 0x8 PUSH1 0x14 SWAP1 SLOAD SWAP1 PUSH2 0x100 EXP SWAP1 DIV PUSH1 0xFF AND DUP2 JUMP JUMPDEST PUSH1 0x6 SLOAD DUP2 JUMP JUMPDEST PUSH1 0x2 PUSH1 0x0 SWAP1 SLOAD SWAP1 PUSH2 0x100 EXP SWAP1 DIV PUSH1 0xFF AND DUP2 JUMP JUMPDEST PUSH1 0x8 PUSH1 0x14 SWAP1 SLOAD SWAP1 PUSH2 0x100 EXP SWAP1 DIV PUSH1 0xFF AND PUSH2 0x7C3 JUMPI PUSH1 0x40 MLOAD PUSH32 0x8C379A000000000000000000000000000000000000000000000000000000000 DUP2 MSTORE PUSH1 0x4 ADD PUSH2 0x7BA SWAP1 PUSH2 0x2415 JUMP JUMPDEST PUSH1 0x40 MLOAD DUP1 SWAP2 SUB SWAP1 REVERT JUMPDEST PUSH1 0xA PUSH1 0x0 SWAP1 SLOAD SWAP1 PUSH2 0x100 EXP SWAP1 DIV PUSH1 0xFF AND PUSH2 0x812 JUMPI PUSH1 0x40 MLOAD PUSH32 0x8C379A000000000000000000000000000000000000000000000000000000000 DUP2 MSTORE PUSH1 0x4 ADD PUSH2 0x809 SWAP1 PUSH2 0x2435 JUMP JUMPDEST PUSH1 0x40 MLOAD DUP1 SWAP2 SUB SWAP1 REVERT JUMPDEST PUSH2 0x81D PUSH1 0x9 SLOAD PUSH2 0x8C7 JUMP JUMPDEST PUSH1 0x3 SWAP1 DUP1 MLOAD SWAP1 PUSH1 0x20 ADD SWAP1 PUSH2 0x832 SWAP3 SWAP2 SWAP1 PUSH2 0x13DD JUMP JUMPDEST POP PUSH32 0xFEBF534A11985149A5C6F9DB799E3FD83BEE80A2726A5B1EA9AA7FEA0CBE6A21 PUSH1 0x3 PUSH1 0x4 SLOAD PUSH1 0x40 MLOAD PUSH2 0x867 SWAP3 SWAP2 SWAP1 PUSH2 0x2200 JUMP JUMPDEST PUSH1 0x40 MLOAD DUP1 SWAP2 SUB SWAP1 LOG1 PUSH2 0x877 PUSH2 0x1183 JUMP JUMPDEST PUSH1 0x4 PUSH1 0x0 DUP2 SLOAD DUP1 SWAP3 SWAP2 SWAP1 PUSH2 0x88A SWAP1 PUSH2 0x2AD6 JUMP JUMPDEST SWAP2 SWAP1 POP SSTORE POP PUSH1 0x0 PUSH1 0x8 PUSH1 0x14 PUSH2 0x100 EXP DUP2 SLOAD DUP2 PUSH1 0xFF MUL NOT AND SWAP1 DUP4 ISZERO ISZERO MUL OR SWAP1 SSTORE POP PUSH1 0x0 PUSH1 0xA PUSH1 0x0 PUSH2 0x100 EXP DUP2 SLOAD DUP2 PUSH1 0xFF MUL NOT AND SWAP1 DUP4 ISZERO ISZERO MUL OR SWAP1 SSTORE POP JUMP JUMPDEST PUSH1 0x60 PUSH1 0x2 PUSH1 0x1 SWAP1 SLOAD SWAP1 PUSH2 0x100 EXP SWAP1 DIV PUSH1 0xFF AND PUSH1 0xFF AND PUSH8 0xFFFFFFFFFFFFFFFF DUP2 GT ISZERO PUSH2 0x8F5 JUMPI PUSH2 0x8F4 PUSH2 0x2C36 JUMP JUMPDEST JUMPDEST PUSH1 0x40 MLOAD SWAP1 DUP1 DUP3 MSTORE DUP1 PUSH1 0x20 MUL PUSH1 0x20 ADD DUP3 ADD PUSH1 0x40 MSTORE DUP1 ISZERO PUSH2 0x923 JUMPI DUP2 PUSH1 0x20 ADD PUSH1 0x20 DUP3 MUL DUP1 CALLDATASIZE DUP4 CALLDATACOPY DUP1 DUP3 ADD SWAP2 POP POP SWAP1 POP JUMPDEST POP SWAP1 POP PUSH1 0x0 DUP1 JUMPDEST PUSH1 0x2 PUSH1 0x1 SWAP1 SLOAD SWAP1 PUSH2 0x100 EXP SWAP1 DIV PUSH1 0xFF AND PUSH1 0xFF AND DUP3 PUSH1 0xFF AND LT ISZERO PUSH2 0xA10 JUMPI PUSH1 0x0 PUSH1 0x1 PUSH1 0x2 PUSH1 0x0 SWAP1 SLOAD SWAP1 PUSH2 0x100 EXP SWAP1 DIV PUSH1 0xFF AND PUSH1 0xFF AND DUP7 DUP5 PUSH1 0x40 MLOAD PUSH1 0x20 ADD PUSH2 0x971 SWAP3 SWAP2 SWAP1 PUSH2 0x2490 JUMP JUMPDEST PUSH1 0x40 MLOAD PUSH1 0x20 DUP2 DUP4 SUB SUB DUP2 MSTORE SWAP1 PUSH1 0x40 MSTORE DUP1 MLOAD SWAP1 PUSH1 0x20 ADD KECCAK256 PUSH1 0x0 SHR PUSH2 0x994 SWAP2 SWAP1 PUSH2 0x2B49 JUMP JUMPDEST PUSH2 0x99E SWAP2 SWAP1 PUSH2 0x25A5 JUMP JUMPDEST SWAP1 POP PUSH2 0x9AA DUP2 DUP6 PUSH2 0x6AC JUMP JUMPDEST ISZERO PUSH2 0x9C3 JUMPI DUP2 DUP1 PUSH2 0x9BA SWAP1 PUSH2 0x2AD6 JUMP JUMPDEST SWAP3 POP POP POP PUSH2 0x92A JUMP JUMPDEST DUP1 DUP5 DUP5 PUSH1 0xFF AND DUP2 MLOAD DUP2 LT PUSH2 0x9DA JUMPI PUSH2 0x9D9 PUSH2 0x2C07 JUMP JUMPDEST JUMPDEST PUSH1 0x20 MUL PUSH1 0x20 ADD ADD SWAP1 PUSH1 0xFF AND SWAP1 DUP2 PUSH1 0xFF AND DUP2 MSTORE POP POP DUP3 DUP1 PUSH2 0x9F9 SWAP1 PUSH2 0x2B1F JUMP JUMPDEST SWAP4 POP POP DUP2 DUP1 PUSH2 0xA07 SWAP1 PUSH2 0x2AD6 JUMP JUMPDEST SWAP3 POP POP POP PUSH2 0x92A JUMP JUMPDEST POP POP SWAP2 SWAP1 POP JUMP JUMPDEST PUSH1 0x1 SLOAD CALLVALUE EQ PUSH2 0xA5B JUMPI PUSH1 0x40 MLOAD PUSH32 0x8C379A000000000000000000000000000000000000000000000000000000000 DUP2 MSTORE PUSH1 0x4 ADD PUSH2 0xA52 SWAP1 PUSH2 0x2375 JUMP JUMPDEST PUSH1 0x40 MLOAD DUP1 SWAP2 SUB SWAP1 REVERT JUMPDEST PUSH1 0x0 ISZERO ISZERO PUSH1 0x8 PUSH1 0x14 SWAP1 SLOAD SWAP1 PUSH2 0x100 EXP SWAP1 DIV PUSH1 0xFF AND ISZERO ISZERO EQ PUSH2 0xAB1 JUMPI PUSH1 0x40 MLOAD PUSH32 0x8C379A000000000000000000000000000000000000000000000000000000000 DUP2 MSTORE PUSH1 0x4 ADD PUSH2 0xAA8 SWAP1 PUSH2 0x23D5 JUMP JUMPDEST PUSH1 0x40 MLOAD DUP1 SWAP2 SUB SWAP1 REVERT JUMPDEST PUSH2 0xABA DUP2 PUSH2 0xC06 JUMP JUMPDEST PUSH1 0x5 PUSH1 0x0 PUSH2 0xAC7 DUP4 PUSH2 0xE92 JUMP JUMPDEST PUSH1 0x4 SLOAD PUSH1 0x40 MLOAD PUSH1 0x20 ADD PUSH2 0xADB SWAP3 SWAP2 SWAP1 PUSH2 0x2490 JUMP JUMPDEST PUSH1 0x40 MLOAD PUSH1 0x20 DUP2 DUP4 SUB SUB DUP2 MSTORE SWAP1 PUSH1 0x40 MSTORE DUP1 MLOAD SWAP1 PUSH1 0x20 ADD KECCAK256 PUSH1 0x0 SHR DUP2 MSTORE PUSH1 0x20 ADD SWAP1 DUP2 MSTORE PUSH1 0x20 ADD PUSH1 0x0 KECCAK256 CALLER SWAP1 DUP1 PUSH1 0x1 DUP2 SLOAD ADD DUP1 DUP3 SSTORE DUP1 SWAP2 POP POP PUSH1 0x1 SWAP1 SUB SWAP1 PUSH1 0x0 MSTORE PUSH1 0x20 PUSH1 0x0 KECCAK256 ADD PUSH1 0x0 SWAP1 SWAP2 SWAP1 SWAP2 SWAP1 SWAP2 PUSH2 0x100 EXP DUP2 SLOAD DUP2 PUSH20 0xFFFFFFFFFFFFFFFFFFFFFFFFFFFFFFFFFFFFFFFF MUL NOT AND SWAP1 DUP4 PUSH20 0xFFFFFFFFFFFFFFFFFFFFFFFFFFFFFFFFFFFFFFFF AND MUL OR SWAP1 SSTORE POP CALLER PUSH20 0xFFFFFFFFFFFFFFFFFFFFFFFFFFFFFFFFFFFFFFFF AND PUSH32 0xDB457A8286185FE9D46C5C69E68ED86DF699C2C02066412781E9DD9A12AF4B45 DUP3 PUSH1 0x4 SLOAD PUSH1 0x40 MLOAD PUSH2 0xBAD SWAP3 SWAP2 SWAP1 PUSH2 0x21D0 JUMP JUMPDEST PUSH1 0x40 MLOAD DUP1 SWAP2 SUB SWAP1 LOG2 POP JUMP JUMPDEST PUSH1 0x5 PUSH1 0x20 MSTORE DUP2 PUSH1 0x0 MSTORE PUSH1 0x40 PUSH1 0x0 KECCAK256 DUP2 DUP2 SLOAD DUP2 LT PUSH2 0xBD4 JUMPI PUSH1 0x0 DUP1 REVERT JUMPDEST SWAP1 PUSH1 0x0 MSTORE PUSH1 0x20 PUSH1 0x0 KECCAK256 ADD PUSH1 0x0 SWAP2 POP SWAP2 POP SWAP1 SLOAD SWAP1 PUSH2 0x100 EXP SWAP1 DIV PUSH20 0xFFFFFFFFFFFFFFFFFFFFFFFFFFFFFFFFFFFFFFFF AND DUP2 JUMP JUMPDEST PUSH2 0xC0F DUP2 PUSH2 0x5F8 JUMP JUMPDEST PUSH2 0xC4E JUMPI PUSH1 0x40 MLOAD PUSH32 0x8C379A000000000000000000000000000000000000000000000000000000000 DUP2 MSTORE PUSH1 0x4 ADD PUSH2 0xC45 SWAP1 PUSH2 0x2335 JUMP JUMPDEST PUSH1 0x40 MLOAD DUP1 SWAP2 SUB SWAP1 REVERT JUMPDEST PUSH1 0x2 PUSH1 0x1 SWAP1 SLOAD SWAP1 PUSH2 0x100 EXP SWAP1 DIV PUSH1 0xFF AND PUSH1 0xFF AND DUP2 MLOAD EQ PUSH2 0xCA3 JUMPI PUSH1 0x40 MLOAD PUSH32 0x8C379A000000000000000000000000000000000000000000000000000000000 DUP2 MSTORE PUSH1 0x4 ADD PUSH2 0xC9A SWAP1 PUSH2 0x23F5 JUMP JUMPDEST PUSH1 0x40 MLOAD DUP1 SWAP2 SUB SWAP1 REVERT JUMPDEST POP JUMP JUMPDEST PUSH1 0x1 SLOAD DUP2 JUMP JUMPDEST PUSH1 0x2 PUSH1 0x1 SWAP1 SLOAD SWAP1 PUSH2 0x100 EXP SWAP1 DIV PUSH1 0xFF AND DUP2 JUMP JUMPDEST PUSH1 0x8 PUSH1 0x0 SWAP1 SLOAD SWAP1 PUSH2 0x100 EXP SWAP1 DIV PUSH20 0xFFFFFFFFFFFFFFFFFFFFFFFFFFFFFFFFFFFFFFFF AND DUP2 JUMP JUMPDEST PUSH1 0x7 SLOAD PUSH1 0x6 SLOAD TIMESTAMP PUSH2 0xCF6 SWAP2 SWAP1 PUSH2 0x262C JUMP JUMPDEST GT PUSH2 0xD36 JUMPI PUSH1 0x40 MLOAD PUSH32 0x8C379A000000000000000000000000000000000000000000000000000000000 DUP2 MSTORE PUSH1 0x4 ADD PUSH2 0xD2D SWAP1 PUSH2 0x2395 JUMP JUMPDEST PUSH1 0x40 MLOAD DUP1 SWAP2 SUB SWAP1 REVERT JUMPDEST PUSH1 0x0 ISZERO ISZERO PUSH1 0x8 PUSH1 0x14 SWAP1 SLOAD SWAP1 PUSH2 0x100 EXP SWAP1 DIV PUSH1 0xFF AND ISZERO ISZERO EQ PUSH2 0xD8C JUMPI PUSH1 0x40 MLOAD PUSH32 0x8C379A000000000000000000000000000000000000000000000000000000000 DUP2 MSTORE PUSH1 0x4 ADD PUSH2 0xD83 SWAP1 PUSH2 0x23B5 JUMP JUMPDEST PUSH1 0x40 MLOAD DUP1 SWAP2 SUB SWAP1 REVERT JUMPDEST PUSH1 0x1 PUSH1 0x8 PUSH1 0x14 PUSH2 0x100 EXP DUP2 SLOAD DUP2 PUSH1 0xFF MUL NOT AND SWAP1 DUP4 ISZERO ISZERO MUL OR SWAP1 SSTORE POP TIMESTAMP PUSH1 0x6 DUP2 SWAP1 SSTORE POP PUSH1 0x0 PUSH1 0x8 PUSH1 0x0 SWAP1 SLOAD SWAP1 PUSH2 0x100 EXP SWAP1 DIV PUSH20 0xFFFFFFFFFFFFFFFFFFFFFFFFFFFFFFFFFFFFFFFF AND SWAP1 POP DUP1 PUSH20 0xFFFFFFFFFFFFFFFFFFFFFFFFFFFFFFFFFFFFFFFF AND PUSH4 0xDBDFF2C1 PUSH1 0x40 MLOAD DUP2 PUSH4 0xFFFFFFFF AND PUSH1 0xE0 SHL DUP2 MSTORE PUSH1 0x4 ADD PUSH1 0x20 PUSH1 0x40 MLOAD DUP1 DUP4 SUB DUP2 PUSH1 0x0 DUP8 DUP1 EXTCODESIZE ISZERO DUP1 ISZERO PUSH2 0xE1D JUMPI PUSH1 0x0 DUP1 REVERT JUMPDEST POP GAS CALL ISZERO DUP1 ISZERO PUSH2 0xE31 JUMPI RETURNDATASIZE PUSH1 0x0 DUP1 RETURNDATACOPY RETURNDATASIZE PUSH1 0x0 REVERT JUMPDEST POP POP POP POP PUSH1 0x40 MLOAD RETURNDATASIZE PUSH1 0x1F NOT PUSH1 0x1F DUP3 ADD AND DUP3 ADD DUP1 PUSH1 0x40 MSTORE POP DUP2 ADD SWAP1 PUSH2 0xE55 SWAP2 SWAP1 PUSH2 0x15C7 JUMP JUMPDEST POP PUSH32 0x9AC10FB18C93D33AD7B0A941897AEF048D0F8D30756684E82B4552BA12764D45 PUSH1 0x4 SLOAD PUSH1 0x40 MLOAD PUSH2 0xE87 SWAP2 SWAP1 PUSH2 0x2475 JUMP JUMPDEST PUSH1 0x40 MLOAD DUP1 SWAP2 SUB SWAP1 LOG1 POP JUMP JUMPDEST PUSH1 0x0 DUP1 PUSH1 0x0 SWAP1 POP PUSH1 0x0 JUMPDEST DUP4 MLOAD DUP2 PUSH1 0xFF AND LT ISZERO PUSH2 0xEF0 JUMPI PUSH1 0x1 DUP5 DUP3 PUSH1 0xFF AND DUP2 MLOAD DUP2 LT PUSH2 0xEC0 JUMPI PUSH2 0xEBF PUSH2 0x2C07 JUMP JUMPDEST JUMPDEST PUSH1 0x20 MUL PUSH1 0x20 ADD ADD MLOAD PUSH2 0xED2 SWAP2 SWAP1 PUSH2 0x2660 JUMP JUMPDEST PUSH1 0xFF AND PUSH1 0x1 SWAP1 SHL DUP3 OR SWAP2 POP DUP1 DUP1 PUSH2 0xEE8 SWAP1 PUSH2 0x2B1F JUMP JUMPDEST SWAP2 POP POP PUSH2 0xE9C JUMP JUMPDEST POP DUP1 SWAP2 POP POP SWAP2 SWAP1 POP JUMP JUMPDEST PUSH1 0x9 SLOAD DUP2 JUMP JUMPDEST PUSH1 0x8 PUSH1 0x0 SWAP1 SLOAD SWAP1 PUSH2 0x100 EXP SWAP1 DIV PUSH20 0xFFFFFFFFFFFFFFFFFFFFFFFFFFFFFFFFFFFFFFFF AND PUSH20 0xFFFFFFFFFFFFFFFFFFFFFFFFFFFFFFFFFFFFFFFF AND CALLER PUSH20 0xFFFFFFFFFFFFFFFFFFFFFFFFFFFFFFFFFFFFFFFF AND EQ PUSH2 0xF90 JUMPI PUSH1 0x40 MLOAD PUSH32 0x8C379A000000000000000000000000000000000000000000000000000000000 DUP2 MSTORE PUSH1 0x4 ADD PUSH2 0xF87 SWAP1 PUSH2 0x2455 JUMP JUMPDEST PUSH1 0x40 MLOAD DUP1 SWAP2 SUB SWAP1 REVERT JUMPDEST DUP1 PUSH1 0x9 DUP2 SWAP1 SSTORE POP PUSH1 0x1 PUSH1 0xA PUSH1 0x0 PUSH2 0x100 EXP DUP2 SLOAD DUP2 PUSH1 0xFF MUL NOT AND SWAP1 DUP4 ISZERO ISZERO MUL OR SWAP1 SSTORE POP PUSH32 0x546ACA7B2683440B8F02FA95FAEB8EFC79DD0F16AF3D815A002742EA6F76116C PUSH1 0x9 SLOAD PUSH1 0x4 SLOAD PUSH1 0x40 MLOAD PUSH2 0xFE7 SWAP3 SWAP2 SWAP1 PUSH2 0x2490 JUMP JUMPDEST PUSH1 0x40 MLOAD DUP1 SWAP2 SUB SWAP1 LOG1 POP JUMP JUMPDEST PUSH1 0x60 PUSH1 0x0 DUP1 PUSH1 0x0 DUP1 PUSH1 0x0 DUP1 PUSH1 0x0 DUP1 PUSH1 0x60 PUSH1 0x0 DUP1 PUSH1 0x0 PUSH1 0x1 SLOAD PUSH1 0x2 PUSH1 0x0 SWAP1 SLOAD SWAP1 PUSH2 0x100 EXP SWAP1 DIV PUSH1 0xFF AND PUSH1 0x2 PUSH1 0x1 SWAP1 SLOAD SWAP1 PUSH2 0x100 EXP SWAP1 DIV PUSH1 0xFF AND PUSH1 0x7 SLOAD PUSH1 0x6 SLOAD PUSH1 0x8 PUSH1 0x14 SWAP1 SLOAD SWAP1 PUSH2 0x100 EXP SWAP1 DIV PUSH1 0xFF AND PUSH1 0x4 SLOAD SELFBALANCE PUSH1 0x3 PUSH1 0x9 SLOAD PUSH1 0xA PUSH1 0x0 SWAP1 SLOAD SWAP1 PUSH2 0x100 EXP SWAP1 DIV PUSH1 0xFF AND DUP12 DUP1 SLOAD PUSH2 0x1065 SWAP1 PUSH2 0x2733 JUMP JUMPDEST DUP1 PUSH1 0x1F ADD PUSH1 0x20 DUP1 SWAP2 DIV MUL PUSH1 0x20 ADD PUSH1 0x40 MLOAD SWAP1 DUP2 ADD PUSH1 0x40 MSTORE DUP1 SWAP3 SWAP2 SWAP1 DUP2 DUP2 MSTORE PUSH1 0x20 ADD DUP3 DUP1 SLOAD PUSH2 0x1091 SWAP1 PUSH2 0x2733 JUMP JUMPDEST DUP1 ISZERO PUSH2 0x10DE JUMPI DUP1 PUSH1 0x1F LT PUSH2 0x10B3 JUMPI PUSH2 0x100 DUP1 DUP4 SLOAD DIV MUL DUP4 MSTORE SWAP2 PUSH1 0x20 ADD SWAP2 PUSH2 0x10DE JUMP JUMPDEST DUP3 ADD SWAP2 SWAP1 PUSH1 0x0 MSTORE PUSH1 0x20 PUSH1 0x0 KECCAK256 SWAP1 JUMPDEST DUP2 SLOAD DUP2 MSTORE SWAP1 PUSH1 0x1 ADD SWAP1 PUSH1 0x20 ADD DUP1 DUP4 GT PUSH2 0x10C1 JUMPI DUP3 SWAP1 SUB PUSH1 0x1F AND DUP3 ADD SWAP2 JUMPDEST POP POP POP POP POP SWAP12 POP DUP3 DUP1 SLOAD DUP1 PUSH1 0x20 MUL PUSH1 0x20 ADD PUSH1 0x40 MLOAD SWAP1 DUP2 ADD PUSH1 0x40 MSTORE DUP1 SWAP3 SWAP2 SWAP1 DUP2 DUP2 MSTORE PUSH1 0x20 ADD DUP3 DUP1 SLOAD DUP1 ISZERO PUSH2 0x1156 JUMPI PUSH1 0x20 MUL DUP3 ADD SWAP2 SWAP1 PUSH1 0x0 MSTORE PUSH1 0x20 PUSH1 0x0 KECCAK256 SWAP1 PUSH1 0x0 SWAP1 JUMPDEST DUP3 DUP3 SWAP1 SLOAD SWAP1 PUSH2 0x100 EXP SWAP1 DIV PUSH1 0xFF AND PUSH1 0xFF AND DUP2 MSTORE PUSH1 0x20 ADD SWAP1 PUSH1 0x1 ADD SWAP1 PUSH1 0x20 DUP3 PUSH1 0x0 ADD DIV SWAP3 DUP4 ADD SWAP3 PUSH1 0x1 SUB DUP3 MUL SWAP2 POP DUP1 DUP5 GT PUSH2 0x111F JUMPI SWAP1 POP JUMPDEST POP POP POP POP POP SWAP3 POP SWAP12 POP SWAP12 POP SWAP12 POP SWAP12 POP SWAP12 POP SWAP12 POP SWAP12 POP SWAP12 POP SWAP12 POP SWAP12 POP SWAP12 POP SWAP12 POP SWAP1 SWAP2 SWAP3 SWAP4 SWAP5 SWAP6 SWAP7 SWAP8 SWAP9 SWAP10 SWAP11 SWAP12 JUMP JUMPDEST PUSH1 0x0 PUSH1 0x5 PUSH1 0x0 PUSH2 0x1208 PUSH1 0x3 DUP1 SLOAD DUP1 PUSH1 0x20 MUL PUSH1 0x20 ADD PUSH1 0x40 MLOAD SWAP1 DUP2 ADD PUSH1 0x40 MSTORE DUP1 SWAP3 SWAP2 SWAP1 DUP2 DUP2 MSTORE PUSH1 0x20 ADD DUP3 DUP1 SLOAD DUP1 ISZERO PUSH2 0x11FE JUMPI PUSH1 0x20 MUL DUP3 ADD SWAP2 SWAP1 PUSH1 0x0 MSTORE PUSH1 0x20 PUSH1 0x0 KECCAK256 SWAP1 PUSH1 0x0 SWAP1 JUMPDEST DUP3 DUP3 SWAP1 SLOAD SWAP1 PUSH2 0x100 EXP SWAP1 DIV PUSH1 0xFF AND PUSH1 0xFF AND DUP2 MSTORE PUSH1 0x20 ADD SWAP1 PUSH1 0x1 ADD SWAP1 PUSH1 0x20 DUP3 PUSH1 0x0 ADD DIV SWAP3 DUP4 ADD SWAP3 PUSH1 0x1 SUB DUP3 MUL SWAP2 POP DUP1 DUP5 GT PUSH2 0x11C7 JUMPI SWAP1 POP JUMPDEST POP POP POP POP POP PUSH2 0xE92 JUMP JUMPDEST PUSH1 0x4 SLOAD PUSH1 0x40 MLOAD PUSH1 0x20 ADD PUSH2 0x121C SWAP3 SWAP2 SWAP1 PUSH2 0x2490 JUMP JUMPDEST PUSH1 0x40 MLOAD PUSH1 0x20 DUP2 DUP4 SUB SUB DUP2 MSTORE SWAP1 PUSH1 0x40 MSTORE DUP1 MLOAD SWAP1 PUSH1 0x20 ADD KECCAK256 PUSH1 0x0 SHR DUP2 MSTORE PUSH1 0x20 ADD SWAP1 DUP2 MSTORE PUSH1 0x20 ADD PUSH1 0x0 KECCAK256 DUP1 SLOAD DUP1 PUSH1 0x20 MUL PUSH1 0x20 ADD PUSH1 0x40 MLOAD SWAP1 DUP2 ADD PUSH1 0x40 MSTORE DUP1 SWAP3 SWAP2 SWAP1 DUP2 DUP2 MSTORE PUSH1 0x20 ADD DUP3 DUP1 SLOAD DUP1 ISZERO PUSH2 0x12C3 JUMPI PUSH1 0x20 MUL DUP3 ADD SWAP2 SWAP1 PUSH1 0x0 MSTORE PUSH1 0x20 PUSH1 0x0 KECCAK256 SWAP1 JUMPDEST DUP2 PUSH1 0x0 SWAP1 SLOAD SWAP1 PUSH2 0x100 EXP SWAP1 DIV PUSH20 0xFFFFFFFFFFFFFFFFFFFFFFFFFFFFFFFFFFFFFFFF AND PUSH20 0xFFFFFFFFFFFFFFFFFFFFFFFFFFFFFFFFFFFFFFFF AND DUP2 MSTORE PUSH1 0x20 ADD SWAP1 PUSH1 0x1 ADD SWAP1 DUP1 DUP4 GT PUSH2 0x1279 JUMPI JUMPDEST POP POP POP POP POP SWAP1 POP PUSH1 0x0 DUP2 MLOAD EQ ISZERO PUSH2 0x12DA JUMPI POP PUSH2 0x13DB JUMP JUMPDEST PUSH1 0x0 DUP2 MLOAD SELFBALANCE PUSH2 0x12E9 SWAP2 SWAP1 PUSH2 0x25FB JUMP JUMPDEST SWAP1 POP PUSH1 0x0 JUMPDEST DUP3 MLOAD DUP2 LT ISZERO PUSH2 0x13D7 JUMPI PUSH1 0x0 DUP4 DUP3 DUP2 MLOAD DUP2 LT PUSH2 0x130C JUMPI PUSH2 0x130B PUSH2 0x2C07 JUMP JUMPDEST JUMPDEST PUSH1 0x20 MUL PUSH1 0x20 ADD ADD MLOAD SWAP1 POP PUSH1 0x0 DUP2 PUSH20 0xFFFFFFFFFFFFFFFFFFFFFFFFFFFFFFFFFFFFFFFF AND DUP5 PUSH1 0x40 MLOAD PUSH2 0x133C SWAP1 PUSH2 0x217E JUMP JUMPDEST PUSH1 0x0 PUSH1 0x40 MLOAD DUP1 DUP4 SUB DUP2 DUP6 DUP8 GAS CALL SWAP3 POP POP POP RETURNDATASIZE DUP1 PUSH1 0x0 DUP2 EQ PUSH2 0x1379 JUMPI PUSH1 0x40 MLOAD SWAP2 POP PUSH1 0x1F NOT PUSH1 0x3F RETURNDATASIZE ADD AND DUP3 ADD PUSH1 0x40 MSTORE RETURNDATASIZE DUP3 MSTORE RETURNDATASIZE PUSH1 0x0 PUSH1 0x20 DUP5 ADD RETURNDATACOPY PUSH2 0x137E JUMP JUMPDEST PUSH1 0x60 SWAP2 POP JUMPDEST POP POP SWAP1 POP DUP1 PUSH2 0x13C2 JUMPI PUSH1 0x40 MLOAD PUSH32 0x8C379A000000000000000000000000000000000000000000000000000000000 DUP2 MSTORE PUSH1 0x4 ADD PUSH2 0x13B9 SWAP1 PUSH2 0x2355 JUMP JUMPDEST PUSH1 0x40 MLOAD DUP1 SWAP2 SUB SWAP1 REVERT JUMPDEST POP POP DUP1 DUP1 PUSH2 0x13CF SWAP1 PUSH2 0x2AD6 JUMP JUMPDEST SWAP2 POP POP PUSH2 0x12EE JUMP JUMPDEST POP POP POP JUMPDEST JUMP JUMPDEST DUP3 DUP1 SLOAD DUP3 DUP3 SSTORE SWAP1 PUSH1 0x0 MSTORE PUSH1 0x20 PUSH1 0x0 KECCAK256 SWAP1 PUSH1 0x1F ADD PUSH1 0x20 SWAP1 DIV DUP2 ADD SWAP3 DUP3 ISZERO PUSH2 0x1473 JUMPI SWAP2 PUSH1 0x20 MUL DUP3 ADD PUSH1 0x0 JUMPDEST DUP4 DUP3 GT ISZERO PUSH2 0x1444 JUMPI DUP4 MLOAD DUP4 DUP3 PUSH2 0x100 EXP DUP2 SLOAD DUP2 PUSH1 0xFF MUL NOT AND SWAP1 DUP4 PUSH1 0xFF AND MUL OR SWAP1 SSTORE POP SWAP3 PUSH1 0x20 ADD SWAP3 PUSH1 0x1 ADD PUSH1 0x20 DUP2 PUSH1 0x0 ADD DIV SWAP3 DUP4 ADD SWAP3 PUSH1 0x1 SUB MUL PUSH2 0x1406 JUMP JUMPDEST DUP1 ISZERO PUSH2 0x1471 JUMPI DUP3 DUP2 PUSH2 0x100 EXP DUP2 SLOAD SWAP1 PUSH1 0xFF MUL NOT AND SWAP1 SSTORE PUSH1 0x1 ADD PUSH1 0x20 DUP2 PUSH1 0x0 ADD DIV SWAP3 DUP4 ADD SWAP3 PUSH1 0x1 SUB MUL PUSH2 0x1444 JUMP JUMPDEST POP JUMPDEST POP SWAP1 POP PUSH2 0x1480 SWAP2 SWAP1 PUSH2 0x1484 JUMP JUMPDEST POP SWAP1 JUMP JUMPDEST JUMPDEST DUP1 DUP3 GT ISZERO PUSH2 0x149D JUMPI PUSH1 0x0 DUP2 PUSH1 0x0 SWAP1 SSTORE POP PUSH1 0x1 ADD PUSH2 0x1485 JUMP JUMPDEST POP SWAP1 JUMP JUMPDEST PUSH1 0x0 PUSH2 0x14B4 PUSH2 0x14AF DUP5 PUSH2 0x24F9 JUMP JUMPDEST PUSH2 0x24D4 JUMP JUMPDEST SWAP1 POP DUP1 DUP4 DUP3 MSTORE PUSH1 0x20 DUP3 ADD SWAP1 POP DUP3 DUP6 PUSH1 0x20 DUP7 MUL DUP3 ADD GT ISZERO PUSH2 0x14D7 JUMPI PUSH2 0x14D6 PUSH2 0x2C6A JUMP JUMPDEST JUMPDEST PUSH1 0x0 JUMPDEST DUP6 DUP2 LT ISZERO PUSH2 0x1507 JUMPI DUP2 PUSH2 0x14ED DUP9 DUP3 PUSH2 0x1569 JUMP JUMPDEST DUP5 MSTORE PUSH1 0x20 DUP5 ADD SWAP4 POP PUSH1 0x20 DUP4 ADD SWAP3 POP POP PUSH1 0x1 DUP2 ADD SWAP1 POP PUSH2 0x14DA JUMP JUMPDEST POP POP POP SWAP4 SWAP3 POP POP POP JUMP JUMPDEST PUSH1 0x0 DUP3 PUSH1 0x1F DUP4 ADD SLT PUSH2 0x1526 JUMPI PUSH2 0x1525 PUSH2 0x2C65 JUMP JUMPDEST JUMPDEST DUP2 CALLDATALOAD PUSH2 0x1536 DUP5 DUP3 PUSH1 0x20 DUP7 ADD PUSH2 0x14A1 JUMP JUMPDEST SWAP2 POP POP SWAP3 SWAP2 POP POP JUMP JUMPDEST PUSH1 0x0 DUP2 MLOAD SWAP1 POP PUSH2 0x154E DUP2 PUSH2 0x30F7 JUMP JUMPDEST SWAP3 SWAP2 POP POP JUMP JUMPDEST PUSH1 0x0 DUP2 CALLDATALOAD SWAP1 POP PUSH2 0x1563 DUP2 PUSH2 0x310E JUMP JUMPDEST SWAP3 SWAP2 POP POP JUMP JUMPDEST PUSH1 0x0 DUP2 CALLDATALOAD SWAP1 POP PUSH2 0x1578 DUP2 PUSH2 0x3125 JUMP JUMPDEST SWAP3 SWAP2 POP POP JUMP JUMPDEST PUSH1 0x0 PUSH1 0x20 DUP3 DUP5 SUB SLT ISZERO PUSH2 0x1594 JUMPI PUSH2 0x1593 PUSH2 0x2C74 JUMP JUMPDEST JUMPDEST PUSH1 0x0 DUP3 ADD CALLDATALOAD PUSH8 0xFFFFFFFFFFFFFFFF DUP2 GT ISZERO PUSH2 0x15B2 JUMPI PUSH2 0x15B1 PUSH2 0x2C6F JUMP JUMPDEST JUMPDEST PUSH2 0x15BE DUP5 DUP3 DUP6 ADD PUSH2 0x1511 JUMP JUMPDEST SWAP2 POP POP SWAP3 SWAP2 POP POP JUMP JUMPDEST PUSH1 0x0 PUSH1 0x20 DUP3 DUP5 SUB SLT ISZERO PUSH2 0x15DD JUMPI PUSH2 0x15DC PUSH2 0x2C74 JUMP JUMPDEST JUMPDEST PUSH1 0x0 PUSH2 0x15EB DUP5 DUP3 DUP6 ADD PUSH2 0x153F JUMP JUMPDEST SWAP2 POP POP SWAP3 SWAP2 POP POP JUMP JUMPDEST PUSH1 0x0 PUSH1 0x20 DUP3 DUP5 SUB SLT ISZERO PUSH2 0x160A JUMPI PUSH2 0x1609 PUSH2 0x2C74 JUMP JUMPDEST JUMPDEST PUSH1 0x0 PUSH2 0x1618 DUP5 DUP3 DUP6 ADD PUSH2 0x1554 JUMP JUMPDEST SWAP2 POP POP SWAP3 SWAP2 POP POP JUMP JUMPDEST PUSH1 0x0 DUP1 PUSH1 0x40 DUP4 DUP6 SUB SLT ISZERO PUSH2 0x1638 JUMPI PUSH2 0x1637 PUSH2 0x2C74 JUMP JUMPDEST JUMPDEST PUSH1 0x0 PUSH2 0x1646 DUP6 DUP3 DUP7 ADD PUSH2 0x1554 JUMP JUMPDEST SWAP3 POP POP PUSH1 0x20 PUSH2 0x1657 DUP6 DUP3 DUP7 ADD PUSH2 0x1554 JUMP JUMPDEST SWAP2 POP POP SWAP3 POP SWAP3 SWAP1 POP JUMP JUMPDEST PUSH1 0x0 DUP1 PUSH1 0x40 DUP4 DUP6 SUB SLT ISZERO PUSH2 0x1678 JUMPI PUSH2 0x1677 PUSH2 0x2C74 JUMP JUMPDEST JUMPDEST PUSH1 0x0 PUSH2 0x1686 DUP6 DUP3 DUP7 ADD PUSH2 0x1569 JUMP JUMPDEST SWAP3 POP POP PUSH1 0x20 DUP4 ADD CALLDATALOAD PUSH8 0xFFFFFFFFFFFFFFFF DUP2 GT ISZERO PUSH2 0x16A7 JUMPI PUSH2 0x16A6 PUSH2 0x2C6F JUMP JUMPDEST JUMPDEST PUSH2 0x16B3 DUP6 DUP3 DUP7 ADD PUSH2 0x1511 JUMP JUMPDEST SWAP2 POP POP SWAP3 POP SWAP3 SWAP1 POP JUMP JUMPDEST PUSH1 0x0 PUSH2 0x16C9 DUP4 DUP4 PUSH2 0x2160 JUMP JUMPDEST PUSH1 0x20 DUP4 ADD SWAP1 POP SWAP3 SWAP2 POP POP JUMP JUMPDEST PUSH2 0x16DE DUP2 PUSH2 0x26A1 JUMP JUMPDEST DUP3 MSTORE POP POP JUMP JUMPDEST PUSH1 0x0 PUSH2 0x16EF DUP3 PUSH2 0x254A JUMP JUMPDEST PUSH2 0x16F9 DUP2 DUP6 PUSH2 0x2578 JUMP JUMPDEST SWAP4 POP PUSH2 0x1704 DUP4 PUSH2 0x2525 JUMP JUMPDEST DUP1 PUSH1 0x0 JUMPDEST DUP4 DUP2 LT ISZERO PUSH2 0x1735 JUMPI DUP2 MLOAD PUSH2 0x171C DUP9 DUP3 PUSH2 0x16BD JUMP JUMPDEST SWAP8 POP PUSH2 0x1727 DUP4 PUSH2 0x256B JUMP JUMPDEST SWAP3 POP POP PUSH1 0x1 DUP2 ADD SWAP1 POP PUSH2 0x1708 JUMP JUMPDEST POP DUP6 SWAP4 POP POP POP POP SWAP3 SWAP2 POP POP JUMP JUMPDEST PUSH1 0x0 PUSH2 0x174D DUP3 PUSH2 0x2555 JUMP JUMPDEST PUSH2 0x1757 DUP2 DUP6 PUSH2 0x2578 JUMP JUMPDEST SWAP4 POP DUP4 PUSH2 0x1763 DUP5 PUSH2 0x2535 JUMP JUMPDEST PUSH1 0x0 PUSH1 0x1 ISZERO PUSH2 0x1A90 JUMPI JUMPDEST DUP4 PUSH1 0x1 PUSH1 0x20 SUB DUP3 ADD LT ISZERO PUSH2 0x1A8F JUMPI DUP2 SLOAD PUSH2 0x178F DUP9 PUSH2 0x178A DUP4 PUSH2 0x2765 JUMP JUMPDEST PUSH2 0x2160 JUMP JUMPDEST PUSH1 0x20 DUP9 ADD SWAP8 POP PUSH2 0x17A7 DUP9 PUSH2 0x17A2 DUP4 PUSH2 0x2883 JUMP JUMPDEST PUSH2 0x2160 JUMP JUMPDEST PUSH1 0x20 DUP9 ADD SWAP8 POP PUSH2 0x17BF DUP9 PUSH2 0x17BA DUP4 PUSH2 0x29A1 JUMP JUMPDEST PUSH2 0x2160 JUMP JUMPDEST PUSH1 0x20 DUP9 ADD SWAP8 POP PUSH2 0x17D7 DUP9 PUSH2 0x17D2 DUP4 PUSH2 0x29EF JUMP JUMPDEST PUSH2 0x2160 JUMP JUMPDEST PUSH1 0x20 DUP9 ADD SWAP8 POP PUSH2 0x17EF DUP9 PUSH2 0x17EA DUP4 PUSH2 0x2A09 JUMP JUMPDEST PUSH2 0x2160 JUMP JUMPDEST PUSH1 0x20 DUP9 ADD SWAP8 POP PUSH2 0x1807 DUP9 PUSH2 0x1802 DUP4 PUSH2 0x2A23 JUMP JUMPDEST PUSH2 0x2160 JUMP JUMPDEST PUSH1 0x20 DUP9 ADD SWAP8 POP PUSH2 0x181F DUP9 PUSH2 0x181A DUP4 PUSH2 0x2A3D JUMP JUMPDEST PUSH2 0x2160 JUMP JUMPDEST PUSH1 0x20 DUP9 ADD SWAP8 POP PUSH2 0x1837 DUP9 PUSH2 0x1832 DUP4 PUSH2 0x2A57 JUMP JUMPDEST PUSH2 0x2160 JUMP JUMPDEST PUSH1 0x20 DUP9 ADD SWAP8 POP PUSH2 0x184F DUP9 PUSH2 0x184A DUP4 PUSH2 0x2A71 JUMP JUMPDEST PUSH2 0x2160 JUMP JUMPDEST PUSH1 0x20 DUP9 ADD SWAP8 POP PUSH2 0x1867 DUP9 PUSH2 0x1862 DUP4 PUSH2 0x2A8B JUMP JUMPDEST PUSH2 0x2160 JUMP JUMPDEST PUSH1 0x20 DUP9 ADD SWAP8 POP PUSH2 0x187F DUP9 PUSH2 0x187A DUP4 PUSH2 0x277F JUMP JUMPDEST PUSH2 0x2160 JUMP JUMPDEST PUSH1 0x20 DUP9 ADD SWAP8 POP PUSH2 0x1897 DUP9 PUSH2 0x1892 DUP4 PUSH2 0x2799 JUMP JUMPDEST PUSH2 0x2160 JUMP JUMPDEST PUSH1 0x20 DUP9 ADD SWAP8 POP PUSH2 0x18AF DUP9 PUSH2 0x18AA DUP4 PUSH2 0x27B3 JUMP JUMPDEST PUSH2 0x2160 JUMP JUMPDEST PUSH1 0x20 DUP9 ADD SWAP8 POP PUSH2 0x18C7 DUP9 PUSH2 0x18C2 DUP4 PUSH2 0x27CD JUMP JUMPDEST PUSH2 0x2160 JUMP JUMPDEST PUSH1 0x20 DUP9 ADD SWAP8 POP PUSH2 0x18DF DUP9 PUSH2 0x18DA DUP4 PUSH2 0x27E7 JUMP JUMPDEST PUSH2 0x2160 JUMP JUMPDEST PUSH1 0x20 DUP9 ADD SWAP8 POP PUSH2 0x18F7 DUP9 PUSH2 0x18F2 DUP4 PUSH2 0x2801 JUMP JUMPDEST PUSH2 0x2160 JUMP JUMPDEST PUSH1 0x20 DUP9 ADD SWAP8 POP PUSH2 0x190F DUP9 PUSH2 0x190A DUP4 PUSH2 0x281B JUMP JUMPDEST PUSH2 0x2160 JUMP JUMPDEST PUSH1 0x20 DUP9 ADD SWAP8 POP PUSH2 0x1927 DUP9 PUSH2 0x1922 DUP4 PUSH2 0x2835 JUMP JUMPDEST PUSH2 0x2160 JUMP JUMPDEST PUSH1 0x20 DUP9 ADD SWAP8 POP PUSH2 0x193F DUP9 PUSH2 0x193A DUP4 PUSH2 0x284F JUMP JUMPDEST PUSH2 0x2160 JUMP JUMPDEST PUSH1 0x20 DUP9 ADD SWAP8 POP PUSH2 0x1957 DUP9 PUSH2 0x1952 DUP4 PUSH2 0x2869 JUMP JUMPDEST PUSH2 0x2160 JUMP JUMPDEST PUSH1 0x20 DUP9 ADD SWAP8 POP PUSH2 0x196F DUP9 PUSH2 0x196A DUP4 PUSH2 0x289D JUMP JUMPDEST PUSH2 0x2160 JUMP JUMPDEST PUSH1 0x20 DUP9 ADD SWAP8 POP PUSH2 0x1987 DUP9 PUSH2 0x1982 DUP4 PUSH2 0x28B7 JUMP JUMPDEST PUSH2 0x2160 JUMP JUMPDEST PUSH1 0x20 DUP9 ADD SWAP8 POP PUSH2 0x199F DUP9 PUSH2 0x199A DUP4 PUSH2 0x28D1 JUMP JUMPDEST PUSH2 0x2160 JUMP JUMPDEST PUSH1 0x20 DUP9 ADD SWAP8 POP PUSH2 0x19B7 DUP9 PUSH2 0x19B2 DUP4 PUSH2 0x28EB JUMP JUMPDEST PUSH2 0x2160 JUMP JUMPDEST PUSH1 0x20 DUP9 ADD SWAP8 POP PUSH2 0x19CF DUP9 PUSH2 0x19CA DUP4 PUSH2 0x2905 JUMP JUMPDEST PUSH2 0x2160 JUMP JUMPDEST PUSH1 0x20 DUP9 ADD SWAP8 POP PUSH2 0x19E7 DUP9 PUSH2 0x19E2 DUP4 PUSH2 0x291F JUMP JUMPDEST PUSH2 0x2160 JUMP JUMPDEST PUSH1 0x20 DUP9 ADD SWAP8 POP PUSH2 0x19FF DUP9 PUSH2 0x19FA DUP4 PUSH2 0x2939 JUMP JUMPDEST PUSH2 0x2160 JUMP JUMPDEST PUSH1 0x20 DUP9 ADD SWAP8 POP PUSH2 0x1A17 DUP9 PUSH2 0x1A12 DUP4 PUSH2 0x2953 JUMP JUMPDEST PUSH2 0x2160 JUMP JUMPDEST PUSH1 0x20 DUP9 ADD SWAP8 POP PUSH2 0x1A2F DUP9 PUSH2 0x1A2A DUP4 PUSH2 0x296D JUMP JUMPDEST PUSH2 0x2160 JUMP JUMPDEST PUSH1 0x20 DUP9 ADD SWAP8 POP PUSH2 0x1A47 DUP9 PUSH2 0x1A42 DUP4 PUSH2 0x2987 JUMP JUMPDEST PUSH2 0x2160 JUMP JUMPDEST PUSH1 0x20 DUP9 ADD SWAP8 POP PUSH2 0x1A5F DUP9 PUSH2 0x1A5A DUP4 PUSH2 0x29BB JUMP JUMPDEST PUSH2 0x2160 JUMP JUMPDEST PUSH1 0x20 DUP9 ADD SWAP8 POP PUSH2 0x1A77 DUP9 PUSH2 0x1A72 DUP4 PUSH2 0x29D5 JUMP JUMPDEST PUSH2 0x2160 JUMP JUMPDEST PUSH1 0x20 DUP9 ADD SWAP8 POP PUSH1 0x1 DUP4 ADD SWAP3 POP POP PUSH1 0x20 DUP2 ADD SWAP1 POP PUSH2 0x176D JUMP JUMPDEST JUMPDEST PUSH1 0x1 ISZERO PUSH2 0x1F7B JUMPI DUP2 SLOAD DUP5 DUP3 LT ISZERO PUSH2 0x1AC0 JUMPI PUSH2 0x1AB3 DUP9 PUSH2 0x1AAE DUP4 PUSH2 0x2765 JUMP JUMPDEST PUSH2 0x2160 JUMP JUMPDEST PUSH1 0x20 DUP9 ADD SWAP8 POP PUSH1 0x1 DUP3 ADD SWAP2 POP JUMPDEST DUP5 DUP3 LT ISZERO PUSH2 0x1AE7 JUMPI PUSH2 0x1ADA DUP9 PUSH2 0x1AD5 DUP4 PUSH2 0x2883 JUMP JUMPDEST PUSH2 0x2160 JUMP JUMPDEST PUSH1 0x20 DUP9 ADD SWAP8 POP PUSH1 0x1 DUP3 ADD SWAP2 POP JUMPDEST DUP5 DUP3 LT ISZERO PUSH2 0x1B0E JUMPI PUSH2 0x1B01 DUP9 PUSH2 0x1AFC DUP4 PUSH2 0x29A1 JUMP JUMPDEST PUSH2 0x2160 JUMP JUMPDEST PUSH1 0x20 DUP9 ADD SWAP8 POP PUSH1 0x1 DUP3 ADD SWAP2 POP JUMPDEST DUP5 DUP3 LT ISZERO PUSH2 0x1B35 JUMPI PUSH2 0x1B28 DUP9 PUSH2 0x1B23 DUP4 PUSH2 0x29EF JUMP JUMPDEST PUSH2 0x2160 JUMP JUMPDEST PUSH1 0x20 DUP9 ADD SWAP8 POP PUSH1 0x1 DUP3 ADD SWAP2 POP JUMPDEST DUP5 DUP3 LT ISZERO PUSH2 0x1B5C JUMPI PUSH2 0x1B4F DUP9 PUSH2 0x1B4A DUP4 PUSH2 0x2A09 JUMP JUMPDEST PUSH2 0x2160 JUMP JUMPDEST PUSH1 0x20 DUP9 ADD SWAP8 POP PUSH1 0x1 DUP3 ADD SWAP2 POP JUMPDEST DUP5 DUP3 LT ISZERO PUSH2 0x1B83 JUMPI PUSH2 0x1B76 DUP9 PUSH2 0x1B71 DUP4 PUSH2 0x2A23 JUMP JUMPDEST PUSH2 0x2160 JUMP JUMPDEST PUSH1 0x20 DUP9 ADD SWAP8 POP PUSH1 0x1 DUP3 ADD SWAP2 POP JUMPDEST DUP5 DUP3 LT ISZERO PUSH2 0x1BAA JUMPI PUSH2 0x1B9D DUP9 PUSH2 0x1B98 DUP4 PUSH2 0x2A3D JUMP JUMPDEST PUSH2 0x2160 JUMP JUMPDEST PUSH1 0x20 DUP9 ADD SWAP8 POP PUSH1 0x1 DUP3 ADD SWAP2 POP JUMPDEST DUP5 DUP3 LT ISZERO PUSH2 0x1BD1 JUMPI PUSH2 0x1BC4 DUP9 PUSH2 0x1BBF DUP4 PUSH2 0x2A57 JUMP JUMPDEST PUSH2 0x2160 JUMP JUMPDEST PUSH1 0x20 DUP9 ADD SWAP8 POP PUSH1 0x1 DUP3 ADD SWAP2 POP JUMPDEST DUP5 DUP3 LT ISZERO PUSH2 0x1BF8 JUMPI PUSH2 0x1BEB DUP9 PUSH2 0x1BE6 DUP4 PUSH2 0x2A71 JUMP JUMPDEST PUSH2 0x2160 JUMP JUMPDEST PUSH1 0x20 DUP9 ADD SWAP8 POP PUSH1 0x1 DUP3 ADD SWAP2 POP JUMPDEST DUP5 DUP3 LT ISZERO PUSH2 0x1C1F JUMPI PUSH2 0x1C12 DUP9 PUSH2 0x1C0D DUP4 PUSH2 0x2A8B JUMP JUMPDEST PUSH2 0x2160 JUMP JUMPDEST PUSH1 0x20 DUP9 ADD SWAP8 POP PUSH1 0x1 DUP3 ADD SWAP2 POP JUMPDEST DUP5 DUP3 LT ISZERO PUSH2 0x1C46 JUMPI PUSH2 0x1C39 DUP9 PUSH2 0x1C34 DUP4 PUSH2 0x277F JUMP JUMPDEST PUSH2 0x2160 JUMP JUMPDEST PUSH1 0x20 DUP9 ADD SWAP8 POP PUSH1 0x1 DUP3 ADD SWAP2 POP JUMPDEST DUP5 DUP3 LT ISZERO PUSH2 0x1C6D JUMPI PUSH2 0x1C60 DUP9 PUSH2 0x1C5B DUP4 PUSH2 0x2799 JUMP JUMPDEST PUSH2 0x2160 JUMP JUMPDEST PUSH1 0x20 DUP9 ADD SWAP8 POP PUSH1 0x1 DUP3 ADD SWAP2 POP JUMPDEST DUP5 DUP3 LT ISZERO PUSH2 0x1C94 JUMPI PUSH2 0x1C87 DUP9 PUSH2 0x1C82 DUP4 PUSH2 0x27B3 JUMP JUMPDEST PUSH2 0x2160 JUMP JUMPDEST PUSH1 0x20 DUP9 ADD SWAP8 POP PUSH1 0x1 DUP3 ADD SWAP2 POP JUMPDEST DUP5 DUP3 LT ISZERO PUSH2 0x1CBB JUMPI PUSH2 0x1CAE DUP9 PUSH2 0x1CA9 DUP4 PUSH2 0x27CD JUMP JUMPDEST PUSH2 0x2160 JUMP JUMPDEST PUSH1 0x20 DUP9 ADD SWAP8 POP PUSH1 0x1 DUP3 ADD SWAP2 POP JUMPDEST DUP5 DUP3 LT ISZERO PUSH2 0x1CE2 JUMPI PUSH2 0x1CD5 DUP9 PUSH2 0x1CD0 DUP4 PUSH2 0x27E7 JUMP JUMPDEST PUSH2 0x2160 JUMP JUMPDEST PUSH1 0x20 DUP9 ADD SWAP8 POP PUSH1 0x1 DUP3 ADD SWAP2 POP JUMPDEST DUP5 DUP3 LT ISZERO PUSH2 0x1D09 JUMPI PUSH2 0x1CFC DUP9 PUSH2 0x1CF7 DUP4 PUSH2 0x2801 JUMP JUMPDEST PUSH2 0x2160 JUMP JUMPDEST PUSH1 0x20 DUP9 ADD SWAP8 POP PUSH1 0x1 DUP3 ADD SWAP2 POP JUMPDEST DUP5 DUP3 LT ISZERO PUSH2 0x1D30 JUMPI PUSH2 0x1D23 DUP9 PUSH2 0x1D1E DUP4 PUSH2 0x281B JUMP JUMPDEST PUSH2 0x2160 JUMP JUMPDEST PUSH1 0x20 DUP9 ADD SWAP8 POP PUSH1 0x1 DUP3 ADD SWAP2 POP JUMPDEST DUP5 DUP3 LT ISZERO PUSH2 0x1D57 JUMPI PUSH2 0x1D4A DUP9 PUSH2 0x1D45 DUP4 PUSH2 0x2835 JUMP JUMPDEST PUSH2 0x2160 JUMP JUMPDEST PUSH1 0x20 DUP9 ADD SWAP8 POP PUSH1 0x1 DUP3 ADD SWAP2 POP JUMPDEST DUP5 DUP3 LT ISZERO PUSH2 0x1D7E JUMPI PUSH2 0x1D71 DUP9 PUSH2 0x1D6C DUP4 PUSH2 0x284F JUMP JUMPDEST PUSH2 0x2160 JUMP JUMPDEST PUSH1 0x20 DUP9 ADD SWAP8 POP PUSH1 0x1 DUP3 ADD SWAP2 POP JUMPDEST DUP5 DUP3 LT ISZERO PUSH2 0x1DA5 JUMPI PUSH2 0x1D98 DUP9 PUSH2 0x1D93 DUP4 PUSH2 0x2869 JUMP JUMPDEST PUSH2 0x2160 JUMP JUMPDEST PUSH1 0x20 DUP9 ADD SWAP8 POP PUSH1 0x1 DUP3 ADD SWAP2 POP JUMPDEST DUP5 DUP3 LT ISZERO PUSH2 0x1DCC JUMPI PUSH2 0x1DBF DUP9 PUSH2 0x1DBA DUP4 PUSH2 0x289D JUMP JUMPDEST PUSH2 0x2160 JUMP JUMPDEST PUSH1 0x20 DUP9 ADD SWAP8 POP PUSH1 0x1 DUP3 ADD SWAP2 POP JUMPDEST DUP5 DUP3 LT ISZERO PUSH2 0x1DF3 JUMPI PUSH2 0x1DE6 DUP9 PUSH2 0x1DE1 DUP4 PUSH2 0x28B7 JUMP JUMPDEST PUSH2 0x2160 JUMP JUMPDEST PUSH1 0x20 DUP9 ADD SWAP8 POP PUSH1 0x1 DUP3 ADD SWAP2 POP JUMPDEST DUP5 DUP3 LT ISZERO PUSH2 0x1E1A JUMPI PUSH2 0x1E0D DUP9 PUSH2 0x1E08 DUP4 PUSH2 0x28D1 JUMP JUMPDEST PUSH2 0x2160 JUMP JUMPDEST PUSH1 0x20 DUP9 ADD SWAP8 POP PUSH1 0x1 DUP3 ADD SWAP2 POP JUMPDEST DUP5 DUP3 LT ISZERO PUSH2 0x1E41 JUMPI PUSH2 0x1E34 DUP9 PUSH2 0x1E2F DUP4 PUSH2 0x28EB JUMP JUMPDEST PUSH2 0x2160 JUMP JUMPDEST PUSH1 0x20 DUP9 ADD SWAP8 POP PUSH1 0x1 DUP3 ADD SWAP2 POP JUMPDEST DUP5 DUP3 LT ISZERO PUSH2 0x1E68 JUMPI PUSH2 0x1E5B DUP9 PUSH2 0x1E56 DUP4 PUSH2 0x2905 JUMP JUMPDEST PUSH2 0x2160 JUMP JUMPDEST PUSH1 0x20 DUP9 ADD SWAP8 POP PUSH1 0x1 DUP3 ADD SWAP2 POP JUMPDEST DUP5 DUP3 LT ISZERO PUSH2 0x1E8F JUMPI PUSH2 0x1E82 DUP9 PUSH2 0x1E7D DUP4 PUSH2 0x291F JUMP JUMPDEST PUSH2 0x2160 JUMP JUMPDEST PUSH1 0x20 DUP9 ADD SWAP8 POP PUSH1 0x1 DUP3 ADD SWAP2 POP JUMPDEST DUP5 DUP3 LT ISZERO PUSH2 0x1EB6 JUMPI PUSH2 0x1EA9 DUP9 PUSH2 0x1EA4 DUP4 PUSH2 0x2939 JUMP JUMPDEST PUSH2 0x2160 JUMP JUMPDEST PUSH1 0x20 DUP9 ADD SWAP8 POP PUSH1 0x1 DUP3 ADD SWAP2 POP JUMPDEST DUP5 DUP3 LT ISZERO PUSH2 0x1EDD JUMPI PUSH2 0x1ED0 DUP9 PUSH2 0x1ECB DUP4 PUSH2 0x2953 JUMP JUMPDEST PUSH2 0x2160 JUMP JUMPDEST PUSH1 0x20 DUP9 ADD SWAP8 POP PUSH1 0x1 DUP3 ADD SWAP2 POP JUMPDEST DUP5 DUP3 LT ISZERO PUSH2 0x1F04 JUMPI PUSH2 0x1EF7 DUP9 PUSH2 0x1EF2 DUP4 PUSH2 0x296D JUMP JUMPDEST PUSH2 0x2160 JUMP JUMPDEST PUSH1 0x20 DUP9 ADD SWAP8 POP PUSH1 0x1 DUP3 ADD SWAP2 POP JUMPDEST DUP5 DUP3 LT ISZERO PUSH2 0x1F2B JUMPI PUSH2 0x1F1E DUP9 PUSH2 0x1F19 DUP4 PUSH2 0x2987 JUMP JUMPDEST PUSH2 0x2160 JUMP JUMPDEST PUSH1 0x20 DUP9 ADD SWAP8 POP PUSH1 0x1 DUP3 ADD SWAP2 POP JUMPDEST DUP5 DUP3 LT ISZERO PUSH2 0x1F52 JUMPI PUSH2 0x1F45 DUP9 PUSH2 0x1F40 DUP4 PUSH2 0x29BB JUMP JUMPDEST PUSH2 0x2160 JUMP JUMPDEST PUSH1 0x20 DUP9 ADD SWAP8 POP PUSH1 0x1 DUP3 ADD SWAP2 POP JUMPDEST DUP5 DUP3 LT ISZERO PUSH2 0x1F79 JUMPI PUSH2 0x1F6C DUP9 PUSH2 0x1F67 DUP4 PUSH2 0x29D5 JUMP JUMPDEST PUSH2 0x2160 JUMP JUMPDEST PUSH1 0x20 DUP9 ADD SWAP8 POP PUSH1 0x1 DUP3 ADD SWAP2 POP JUMPDEST POP JUMPDEST DUP7 SWAP5 POP POP POP POP POP SWAP3 SWAP2 POP POP JUMP JUMPDEST PUSH2 0x1F91 DUP2 PUSH2 0x26B3 JUMP JUMPDEST DUP3 MSTORE POP POP JUMP JUMPDEST PUSH1 0x0 PUSH2 0x1FA2 DUP3 PUSH2 0x2560 JUMP JUMPDEST PUSH2 0x1FAC DUP2 DUP6 PUSH2 0x2594 JUMP JUMPDEST SWAP4 POP PUSH2 0x1FBC DUP2 DUP6 PUSH1 0x20 DUP7 ADD PUSH2 0x2700 JUMP JUMPDEST PUSH2 0x1FC5 DUP2 PUSH2 0x2C79 JUMP JUMPDEST DUP5 ADD SWAP2 POP POP SWAP3 SWAP2 POP POP JUMP JUMPDEST PUSH1 0x0 PUSH2 0x1FDD PUSH1 0x46 DUP4 PUSH2 0x2594 JUMP JUMPDEST SWAP2 POP PUSH2 0x1FE8 DUP3 PUSH2 0x2E2A JUMP JUMPDEST PUSH1 0x60 DUP3 ADD SWAP1 POP SWAP2 SWAP1 POP JUMP JUMPDEST PUSH1 0x0 PUSH2 0x2000 PUSH1 0x14 DUP4 PUSH2 0x2594 JUMP JUMPDEST SWAP2 POP PUSH2 0x200B DUP3 PUSH2 0x2E9F JUMP JUMPDEST PUSH1 0x20 DUP3 ADD SWAP1 POP SWAP2 SWAP1 POP JUMP JUMPDEST PUSH1 0x0 PUSH2 0x2023 PUSH1 0x20 DUP4 PUSH2 0x2594 JUMP JUMPDEST SWAP2 POP PUSH2 0x202E DUP3 PUSH2 0x2EC8 JUMP JUMPDEST PUSH1 0x20 DUP3 ADD SWAP1 POP SWAP2 SWAP1 POP JUMP JUMPDEST PUSH1 0x0 PUSH2 0x2046 PUSH1 0x36 DUP4 PUSH2 0x2594 JUMP JUMPDEST SWAP2 POP PUSH2 0x2051 DUP3 PUSH2 0x2EF1 JUMP JUMPDEST PUSH1 0x40 DUP3 ADD SWAP1 POP SWAP2 SWAP1 POP JUMP JUMPDEST PUSH1 0x0 PUSH2 0x2069 PUSH1 0x1B DUP4 PUSH2 0x2594 JUMP JUMPDEST SWAP2 POP PUSH2 0x2074 DUP3 PUSH2 0x2F40 JUMP JUMPDEST PUSH1 0x20 DUP3 ADD SWAP1 POP SWAP2 SWAP1 POP JUMP JUMPDEST PUSH1 0x0 PUSH2 0x208C PUSH1 0x24 DUP4 PUSH2 0x2594 JUMP JUMPDEST SWAP2 POP PUSH2 0x2097 DUP3 PUSH2 0x2F69 JUMP JUMPDEST PUSH1 0x40 DUP3 ADD SWAP1 POP SWAP2 SWAP1 POP JUMP JUMPDEST PUSH1 0x0 PUSH2 0x20AF PUSH1 0x0 DUP4 PUSH2 0x2589 JUMP JUMPDEST SWAP2 POP PUSH2 0x20BA DUP3 PUSH2 0x2FB8 JUMP JUMPDEST PUSH1 0x0 DUP3 ADD SWAP1 POP SWAP2 SWAP1 POP JUMP JUMPDEST PUSH1 0x0 PUSH2 0x20D2 PUSH1 0x23 DUP4 PUSH2 0x2594 JUMP JUMPDEST SWAP2 POP PUSH2 0x20DD DUP3 PUSH2 0x2FBB JUMP JUMPDEST PUSH1 0x40 DUP3 ADD SWAP1 POP SWAP2 SWAP1 POP JUMP JUMPDEST PUSH1 0x0 PUSH2 0x20F5 PUSH1 0x32 DUP4 PUSH2 0x2594 JUMP JUMPDEST SWAP2 POP PUSH2 0x2100 DUP3 PUSH2 0x300A JUMP JUMPDEST PUSH1 0x40 DUP3 ADD SWAP1 POP SWAP2 SWAP1 POP JUMP JUMPDEST PUSH1 0x0 PUSH2 0x2118 PUSH1 0x27 DUP4 PUSH2 0x2594 JUMP JUMPDEST SWAP2 POP PUSH2 0x2123 DUP3 PUSH2 0x3059 JUMP JUMPDEST PUSH1 0x40 DUP3 ADD SWAP1 POP SWAP2 SWAP1 POP JUMP JUMPDEST PUSH1 0x0 PUSH2 0x213B PUSH1 0x27 DUP4 PUSH2 0x2594 JUMP JUMPDEST SWAP2 POP PUSH2 0x2146 DUP3 PUSH2 0x30A8 JUMP JUMPDEST PUSH1 0x40 DUP3 ADD SWAP1 POP SWAP2 SWAP1 POP JUMP JUMPDEST PUSH2 0x215A DUP2 PUSH2 0x26E9 JUMP JUMPDEST DUP3 MSTORE POP POP JUMP JUMPDEST PUSH2 0x2169 DUP2 PUSH2 0x26F3 JUMP JUMPDEST DUP3 MSTORE POP POP JUMP JUMPDEST PUSH2 0x2178 DUP2 PUSH2 0x26F3 JUMP JUMPDEST DUP3 MSTORE POP POP JUMP JUMPDEST PUSH1 0x0 PUSH2 0x2189 DUP3 PUSH2 0x20A2 JUMP JUMPDEST SWAP2 POP DUP2 SWAP1 POP SWAP2 SWAP1 POP JUMP JUMPDEST PUSH1 0x0 PUSH1 0x20 DUP3 ADD SWAP1 POP PUSH2 0x21A8 PUSH1 0x0 DUP4 ADD DUP5 PUSH2 0x16D5 JUMP JUMPDEST SWAP3 SWAP2 POP POP JUMP JUMPDEST PUSH1 0x0 PUSH1 0x20 DUP3 ADD SWAP1 POP DUP2 DUP2 SUB PUSH1 0x0 DUP4 ADD MSTORE PUSH2 0x21C8 DUP2 DUP5 PUSH2 0x16E4 JUMP JUMPDEST SWAP1 POP SWAP3 SWAP2 POP POP JUMP JUMPDEST PUSH1 0x0 PUSH1 0x40 DUP3 ADD SWAP1 POP DUP2 DUP2 SUB PUSH1 0x0 DUP4 ADD MSTORE PUSH2 0x21EA DUP2 DUP6 PUSH2 0x16E4 JUMP JUMPDEST SWAP1 POP PUSH2 0x21F9 PUSH1 0x20 DUP4 ADD DUP5 PUSH2 0x2151 JUMP JUMPDEST SWAP4 SWAP3 POP POP POP JUMP JUMPDEST PUSH1 0x0 PUSH1 0x40 DUP3 ADD SWAP1 POP DUP2 DUP2 SUB PUSH1 0x0 DUP4 ADD MSTORE PUSH2 0x221A DUP2 DUP6 PUSH2 0x1742 JUMP JUMPDEST SWAP1 POP PUSH2 0x2229 PUSH1 0x20 DUP4 ADD DUP5 PUSH2 0x2151 JUMP JUMPDEST SWAP4 SWAP3 POP POP POP JUMP JUMPDEST PUSH1 0x0 PUSH1 0x20 DUP3 ADD SWAP1 POP PUSH2 0x2245 PUSH1 0x0 DUP4 ADD DUP5 PUSH2 0x1F88 JUMP JUMPDEST SWAP3 SWAP2 POP POP JUMP JUMPDEST PUSH1 0x0 PUSH1 0x20 DUP3 ADD SWAP1 POP DUP2 DUP2 SUB PUSH1 0x0 DUP4 ADD MSTORE PUSH2 0x2265 DUP2 DUP5 PUSH2 0x1F97 JUMP JUMPDEST SWAP1 POP SWAP3 SWAP2 POP POP JUMP JUMPDEST PUSH1 0x0 PUSH2 0x180 DUP3 ADD SWAP1 POP DUP2 DUP2 SUB PUSH1 0x0 DUP4 ADD MSTORE PUSH2 0x2288 DUP2 DUP16 PUSH2 0x1F97 JUMP JUMPDEST SWAP1 POP PUSH2 0x2297 PUSH1 0x20 DUP4 ADD DUP15 PUSH2 0x2151 JUMP JUMPDEST PUSH2 0x22A4 PUSH1 0x40 DUP4 ADD DUP14 PUSH2 0x216F JUMP JUMPDEST PUSH2 0x22B1 PUSH1 0x60 DUP4 ADD DUP13 PUSH2 0x216F JUMP JUMPDEST PUSH2 0x22BE PUSH1 0x80 DUP4 ADD DUP12 PUSH2 0x2151 JUMP JUMPDEST PUSH2 0x22CB PUSH1 0xA0 DUP4 ADD DUP11 PUSH2 0x2151 JUMP JUMPDEST PUSH2 0x22D8 PUSH1 0xC0 DUP4 ADD DUP10 PUSH2 0x1F88 JUMP JUMPDEST PUSH2 0x22E5 PUSH1 0xE0 DUP4 ADD DUP9 PUSH2 0x2151 JUMP JUMPDEST PUSH2 0x22F3 PUSH2 0x100 DUP4 ADD DUP8 PUSH2 0x2151 JUMP JUMPDEST DUP2 DUP2 SUB PUSH2 0x120 DUP4 ADD MSTORE PUSH2 0x2306 DUP2 DUP7 PUSH2 0x16E4 JUMP JUMPDEST SWAP1 POP PUSH2 0x2316 PUSH2 0x140 DUP4 ADD DUP6 PUSH2 0x2151 JUMP JUMPDEST PUSH2 0x2324 PUSH2 0x160 DUP4 ADD DUP5 PUSH2 0x1F88 JUMP JUMPDEST SWAP14 SWAP13 POP POP POP POP POP POP POP POP POP POP POP POP POP JUMP JUMPDEST PUSH1 0x0 PUSH1 0x20 DUP3 ADD SWAP1 POP DUP2 DUP2 SUB PUSH1 0x0 DUP4 ADD MSTORE PUSH2 0x234E DUP2 PUSH2 0x1FD0 JUMP JUMPDEST SWAP1 POP SWAP2 SWAP1 POP JUMP JUMPDEST PUSH1 0x0 PUSH1 0x20 DUP3 ADD SWAP1 POP DUP2 DUP2 SUB PUSH1 0x0 DUP4 ADD MSTORE PUSH2 0x236E DUP2 PUSH2 0x1FF3 JUMP JUMPDEST SWAP1 POP SWAP2 SWAP1 POP JUMP JUMPDEST PUSH1 0x0 PUSH1 0x20 DUP3 ADD SWAP1 POP DUP2 DUP2 SUB PUSH1 0x0 DUP4 ADD MSTORE PUSH2 0x238E DUP2 PUSH2 0x2016 JUMP JUMPDEST SWAP1 POP SWAP2 SWAP1 POP JUMP JUMPDEST PUSH1 0x0 PUSH1 0x20 DUP3 ADD SWAP1 POP DUP2 DUP2 SUB PUSH1 0x0 DUP4 ADD MSTORE PUSH2 0x23AE DUP2 PUSH2 0x2039 JUMP JUMPDEST SWAP1 POP SWAP2 SWAP1 POP JUMP JUMPDEST PUSH1 0x0 PUSH1 0x20 DUP3 ADD SWAP1 POP DUP2 DUP2 SUB PUSH1 0x0 DUP4 ADD MSTORE PUSH2 0x23CE DUP2 PUSH2 0x205C JUMP JUMPDEST SWAP1 POP SWAP2 SWAP1 POP JUMP JUMPDEST PUSH1 0x0 PUSH1 0x20 DUP3 ADD SWAP1 POP DUP2 DUP2 SUB PUSH1 0x0 DUP4 ADD MSTORE PUSH2 0x23EE DUP2 PUSH2 0x207F JUMP JUMPDEST SWAP1 POP SWAP2 SWAP1 POP JUMP JUMPDEST PUSH1 0x0 PUSH1 0x20 DUP3 ADD SWAP1 POP DUP2 DUP2 SUB PUSH1 0x0 DUP4 ADD MSTORE PUSH2 0x240E DUP2 PUSH2 0x20C5 JUMP JUMPDEST SWAP1 POP SWAP2 SWAP1 POP JUMP JUMPDEST PUSH1 0x0 PUSH1 0x20 DUP3 ADD SWAP1 POP DUP2 DUP2 SUB PUSH1 0x0 DUP4 ADD MSTORE PUSH2 0x242E DUP2 PUSH2 0x20E8 JUMP JUMPDEST SWAP1 POP SWAP2 SWAP1 POP JUMP JUMPDEST PUSH1 0x0 PUSH1 0x20 DUP3 ADD SWAP1 POP DUP2 DUP2 SUB PUSH1 0x0 DUP4 ADD MSTORE PUSH2 0x244E DUP2 PUSH2 0x210B JUMP JUMPDEST SWAP1 POP SWAP2 SWAP1 POP JUMP JUMPDEST PUSH1 0x0 PUSH1 0x20 DUP3 ADD SWAP1 POP DUP2 DUP2 SUB PUSH1 0x0 DUP4 ADD MSTORE PUSH2 0x246E DUP2 PUSH2 0x212E JUMP JUMPDEST SWAP1 POP SWAP2 SWAP1 POP JUMP JUMPDEST PUSH1 0x0 PUSH1 0x20 DUP3 ADD SWAP1 POP PUSH2 0x248A PUSH1 0x0 DUP4 ADD DUP5 PUSH2 0x2151 JUMP JUMPDEST SWAP3 SWAP2 POP POP JUMP JUMPDEST PUSH1 0x0 PUSH1 0x40 DUP3 ADD SWAP1 POP PUSH2 0x24A5 PUSH1 0x0 DUP4 ADD DUP6 PUSH2 0x2151 JUMP JUMPDEST PUSH2 0x24B2 PUSH1 0x20 DUP4 ADD DUP5 PUSH2 0x2151 JUMP JUMPDEST SWAP4 SWAP3 POP POP POP JUMP JUMPDEST PUSH1 0x0 PUSH1 0x20 DUP3 ADD SWAP1 POP PUSH2 0x24CE PUSH1 0x0 DUP4 ADD DUP5 PUSH2 0x216F JUMP JUMPDEST SWAP3 SWAP2 POP POP JUMP JUMPDEST PUSH1 0x0 PUSH2 0x24DE PUSH2 0x24EF JUMP JUMPDEST SWAP1 POP PUSH2 0x24EA DUP3 DUP3 PUSH2 0x2AA5 JUMP JUMPDEST SWAP2 SWAP1 POP JUMP JUMPDEST PUSH1 0x0 PUSH1 0x40 MLOAD SWAP1 POP SWAP1 JUMP JUMPDEST PUSH1 0x0 PUSH8 0xFFFFFFFFFFFFFFFF DUP3 GT ISZERO PUSH2 0x2514 JUMPI PUSH2 0x2513 PUSH2 0x2C36 JUMP JUMPDEST JUMPDEST PUSH1 0x20 DUP3 MUL SWAP1 POP PUSH1 0x20 DUP2 ADD SWAP1 POP SWAP2 SWAP1 POP JUMP JUMPDEST PUSH1 0x0 DUP2 SWAP1 POP PUSH1 0x20 DUP3 ADD SWAP1 POP SWAP2 SWAP1 POP JUMP JUMPDEST PUSH1 0x0 DUP2 SWAP1 POP DUP2 PUSH1 0x0 MSTORE PUSH1 0x20 PUSH1 0x0 KECCAK256 SWAP1 POP SWAP2 SWAP1 POP JUMP JUMPDEST PUSH1 0x0 DUP2 MLOAD SWAP1 POP SWAP2 SWAP1 POP JUMP JUMPDEST PUSH1 0x0 DUP2 SLOAD SWAP1 POP SWAP2 SWAP1 POP JUMP JUMPDEST PUSH1 0x0 DUP2 MLOAD SWAP1 POP SWAP2 SWAP1 POP JUMP JUMPDEST PUSH1 0x0 PUSH1 0x20 DUP3 ADD SWAP1 POP SWAP2 SWAP1 POP JUMP JUMPDEST PUSH1 0x0 DUP3 DUP3 MSTORE PUSH1 0x20 DUP3 ADD SWAP1 POP SWAP3 SWAP2 POP POP JUMP JUMPDEST PUSH1 0x0 DUP2 SWAP1 POP SWAP3 SWAP2 POP POP JUMP JUMPDEST PUSH1 0x0 DUP3 DUP3 MSTORE PUSH1 0x20 DUP3 ADD SWAP1 POP SWAP3 SWAP2 POP POP JUMP JUMPDEST PUSH1 0x0 PUSH2 0x25B0 DUP3 PUSH2 0x26E9 JUMP JUMPDEST SWAP2 POP PUSH2 0x25BB DUP4 PUSH2 0x26E9 JUMP JUMPDEST SWAP3 POP DUP3 PUSH32 0xFFFFFFFFFFFFFFFFFFFFFFFFFFFFFFFFFFFFFFFFFFFFFFFFFFFFFFFFFFFFFFFF SUB DUP3 GT ISZERO PUSH2 0x25F0 JUMPI PUSH2 0x25EF PUSH2 0x2B7A JUMP JUMPDEST JUMPDEST DUP3 DUP3 ADD SWAP1 POP SWAP3 SWAP2 POP POP JUMP JUMPDEST PUSH1 0x0 PUSH2 0x2606 DUP3 PUSH2 0x26E9 JUMP JUMPDEST SWAP2 POP PUSH2 0x2611 DUP4 PUSH2 0x26E9 JUMP JUMPDEST SWAP3 POP DUP3 PUSH2 0x2621 JUMPI PUSH2 0x2620 PUSH2 0x2BA9 JUMP JUMPDEST JUMPDEST DUP3 DUP3 DIV SWAP1 POP SWAP3 SWAP2 POP POP JUMP JUMPDEST PUSH1 0x0 PUSH2 0x2637 DUP3 PUSH2 0x26E9 JUMP JUMPDEST SWAP2 POP PUSH2 0x2642 DUP4 PUSH2 0x26E9 JUMP JUMPDEST SWAP3 POP DUP3 DUP3 LT ISZERO PUSH2 0x2655 JUMPI PUSH2 0x2654 PUSH2 0x2B7A JUMP JUMPDEST JUMPDEST DUP3 DUP3 SUB SWAP1 POP SWAP3 SWAP2 POP POP JUMP JUMPDEST PUSH1 0x0 PUSH2 0x266B DUP3 PUSH2 0x26F3 JUMP JUMPDEST SWAP2 POP PUSH2 0x2676 DUP4 PUSH2 0x26F3 JUMP JUMPDEST SWAP3 POP DUP3 DUP3 LT ISZERO PUSH2 0x2689 JUMPI PUSH2 0x2688 PUSH2 0x2B7A JUMP JUMPDEST JUMPDEST DUP3 DUP3 SUB SWAP1 POP SWAP3 SWAP2 POP POP JUMP JUMPDEST PUSH1 0x0 PUSH1 0xFF DUP3 AND SWAP1 POP SWAP2 SWAP1 POP JUMP JUMPDEST PUSH1 0x0 PUSH2 0x26AC DUP3 PUSH2 0x26C9 JUMP JUMPDEST SWAP1 POP SWAP2 SWAP1 POP JUMP JUMPDEST PUSH1 0x0 DUP2 ISZERO ISZERO SWAP1 POP SWAP2 SWAP1 POP JUMP JUMPDEST PUSH1 0x0 DUP2 SWAP1 POP SWAP2 SWAP1 POP JUMP JUMPDEST PUSH1 0x0 PUSH20 0xFFFFFFFFFFFFFFFFFFFFFFFFFFFFFFFFFFFFFFFF DUP3 AND SWAP1 POP SWAP2 SWAP1 POP JUMP JUMPDEST PUSH1 0x0 DUP2 SWAP1 POP SWAP2 SWAP1 POP JUMP JUMPDEST PUSH1 0x0 PUSH1 0xFF DUP3 AND SWAP1 POP SWAP2 SWAP1 POP JUMP JUMPDEST PUSH1 0x0 JUMPDEST DUP4 DUP2 LT ISZERO PUSH2 0x271E JUMPI DUP1 DUP3 ADD MLOAD DUP2 DUP5 ADD MSTORE PUSH1 0x20 DUP2 ADD SWAP1 POP PUSH2 0x2703 JUMP JUMPDEST DUP4 DUP2 GT ISZERO PUSH2 0x272D JUMPI PUSH1 0x0 DUP5 DUP5 ADD MSTORE JUMPDEST POP POP POP POP JUMP JUMPDEST PUSH1 0x0 PUSH1 0x2 DUP3 DIV SWAP1 POP PUSH1 0x1 DUP3 AND DUP1 PUSH2 0x274B JUMPI PUSH1 0x7F DUP3 AND SWAP2 POP JUMPDEST PUSH1 0x20 DUP3 LT DUP2 EQ ISZERO PUSH2 0x275F JUMPI PUSH2 0x275E PUSH2 0x2BD8 JUMP JUMPDEST JUMPDEST POP SWAP2 SWAP1 POP JUMP JUMPDEST PUSH1 0x0 PUSH2 0x2778 PUSH2 0x2773 DUP4 PUSH2 0x2C8A JUMP JUMPDEST PUSH2 0x2694 JUMP JUMPDEST SWAP1 POP SWAP2 SWAP1 POP JUMP JUMPDEST PUSH1 0x0 PUSH2 0x2792 PUSH2 0x278D DUP4 PUSH2 0x2DF6 JUMP JUMPDEST PUSH2 0x2694 JUMP JUMPDEST SWAP1 POP SWAP2 SWAP1 POP JUMP JUMPDEST PUSH1 0x0 PUSH2 0x27AC PUSH2 0x27A7 DUP4 PUSH2 0x2E03 JUMP JUMPDEST PUSH2 0x2694 JUMP JUMPDEST SWAP1 POP SWAP2 SWAP1 POP JUMP JUMPDEST PUSH1 0x0 PUSH2 0x27C6 PUSH2 0x27C1 DUP4 PUSH2 0x2E1D JUMP JUMPDEST PUSH2 0x2694 JUMP JUMPDEST SWAP1 POP SWAP2 SWAP1 POP JUMP JUMPDEST PUSH1 0x0 PUSH2 0x27E0 PUSH2 0x27DB DUP4 PUSH2 0x2C97 JUMP JUMPDEST PUSH2 0x2694 JUMP JUMPDEST SWAP1 POP SWAP2 SWAP1 POP JUMP JUMPDEST PUSH1 0x0 PUSH2 0x27FA PUSH2 0x27F5 DUP4 PUSH2 0x2CA4 JUMP JUMPDEST PUSH2 0x2694 JUMP JUMPDEST SWAP1 POP SWAP2 SWAP1 POP JUMP JUMPDEST PUSH1 0x0 PUSH2 0x2814 PUSH2 0x280F DUP4 PUSH2 0x2CB1 JUMP JUMPDEST PUSH2 0x2694 JUMP JUMPDEST SWAP1 POP SWAP2 SWAP1 POP JUMP JUMPDEST PUSH1 0x0 PUSH2 0x282E PUSH2 0x2829 DUP4 PUSH2 0x2CBE JUMP JUMPDEST PUSH2 0x2694 JUMP JUMPDEST SWAP1 POP SWAP2 SWAP1 POP JUMP JUMPDEST PUSH1 0x0 PUSH2 0x2848 PUSH2 0x2843 DUP4 PUSH2 0x2CCB JUMP JUMPDEST PUSH2 0x2694 JUMP JUMPDEST SWAP1 POP SWAP2 SWAP1 POP JUMP JUMPDEST PUSH1 0x0 PUSH2 0x2862 PUSH2 0x285D DUP4 PUSH2 0x2CD8 JUMP JUMPDEST PUSH2 0x2694 JUMP JUMPDEST SWAP1 POP SWAP2 SWAP1 POP JUMP JUMPDEST PUSH1 0x0 PUSH2 0x287C PUSH2 0x2877 DUP4 PUSH2 0x2CE5 JUMP JUMPDEST PUSH2 0x2694 JUMP JUMPDEST SWAP1 POP SWAP2 SWAP1 POP JUMP JUMPDEST PUSH1 0x0 PUSH2 0x2896 PUSH2 0x2891 DUP4 PUSH2 0x2E10 JUMP JUMPDEST PUSH2 0x2694 JUMP JUMPDEST SWAP1 POP SWAP2 SWAP1 POP JUMP JUMPDEST PUSH1 0x0 PUSH2 0x28B0 PUSH2 0x28AB DUP4 PUSH2 0x2CF2 JUMP JUMPDEST PUSH2 0x2694 JUMP JUMPDEST SWAP1 POP SWAP2 SWAP1 POP JUMP JUMPDEST PUSH1 0x0 PUSH2 0x28CA PUSH2 0x28C5 DUP4 PUSH2 0x2CFF JUMP JUMPDEST PUSH2 0x2694 JUMP JUMPDEST SWAP1 POP SWAP2 SWAP1 POP JUMP JUMPDEST PUSH1 0x0 PUSH2 0x28E4 PUSH2 0x28DF DUP4 PUSH2 0x2D19 JUMP JUMPDEST PUSH2 0x2694 JUMP JUMPDEST SWAP1 POP SWAP2 SWAP1 POP JUMP JUMPDEST PUSH1 0x0 PUSH2 0x28FE PUSH2 0x28F9 DUP4 PUSH2 0x2D26 JUMP JUMPDEST PUSH2 0x2694 JUMP JUMPDEST SWAP1 POP SWAP2 SWAP1 POP JUMP JUMPDEST PUSH1 0x0 PUSH2 0x2918 PUSH2 0x2913 DUP4 PUSH2 0x2D33 JUMP JUMPDEST PUSH2 0x2694 JUMP JUMPDEST SWAP1 POP SWAP2 SWAP1 POP JUMP JUMPDEST PUSH1 0x0 PUSH2 0x2932 PUSH2 0x292D DUP4 PUSH2 0x2D40 JUMP JUMPDEST PUSH2 0x2694 JUMP JUMPDEST SWAP1 POP SWAP2 SWAP1 POP JUMP JUMPDEST PUSH1 0x0 PUSH2 0x294C PUSH2 0x2947 DUP4 PUSH2 0x2D4D JUMP JUMPDEST PUSH2 0x2694 JUMP JUMPDEST SWAP1 POP SWAP2 SWAP1 POP JUMP JUMPDEST PUSH1 0x0 PUSH2 0x2966 PUSH2 0x2961 DUP4 PUSH2 0x2D5A JUMP JUMPDEST PUSH2 0x2694 JUMP JUMPDEST SWAP1 POP SWAP2 SWAP1 POP JUMP JUMPDEST PUSH1 0x0 PUSH2 0x2980 PUSH2 0x297B DUP4 PUSH2 0x2D67 JUMP JUMPDEST PUSH2 0x2694 JUMP JUMPDEST SWAP1 POP SWAP2 SWAP1 POP JUMP JUMPDEST PUSH1 0x0 PUSH2 0x299A PUSH2 0x2995 DUP4 PUSH2 0x2D74 JUMP JUMPDEST PUSH2 0x2694 JUMP JUMPDEST SWAP1 POP SWAP2 SWAP1 POP JUMP JUMPDEST PUSH1 0x0 PUSH2 0x29B4 PUSH2 0x29AF DUP4 PUSH2 0x2D0C JUMP JUMPDEST PUSH2 0x2694 JUMP JUMPDEST SWAP1 POP SWAP2 SWAP1 POP JUMP JUMPDEST PUSH1 0x0 PUSH2 0x29CE PUSH2 0x29C9 DUP4 PUSH2 0x2D81 JUMP JUMPDEST PUSH2 0x2694 JUMP JUMPDEST SWAP1 POP SWAP2 SWAP1 POP JUMP JUMPDEST PUSH1 0x0 PUSH2 0x29E8 PUSH2 0x29E3 DUP4 PUSH2 0x2D8E JUMP JUMPDEST PUSH2 0x2694 JUMP JUMPDEST SWAP1 POP SWAP2 SWAP1 POP JUMP JUMPDEST PUSH1 0x0 PUSH2 0x2A02 PUSH2 0x29FD DUP4 PUSH2 0x2D9B JUMP JUMPDEST PUSH2 0x2694 JUMP JUMPDEST SWAP1 POP SWAP2 SWAP1 POP JUMP JUMPDEST PUSH1 0x0 PUSH2 0x2A1C PUSH2 0x2A17 DUP4 PUSH2 0x2DA8 JUMP JUMPDEST PUSH2 0x2694 JUMP JUMPDEST SWAP1 POP SWAP2 SWAP1 POP JUMP JUMPDEST PUSH1 0x0 PUSH2 0x2A36 PUSH2 0x2A31 DUP4 PUSH2 0x2DB5 JUMP JUMPDEST PUSH2 0x2694 JUMP JUMPDEST SWAP1 POP SWAP2 SWAP1 POP JUMP JUMPDEST PUSH1 0x0 PUSH2 0x2A50 PUSH2 0x2A4B DUP4 PUSH2 0x2DC2 JUMP JUMPDEST PUSH2 0x2694 JUMP JUMPDEST SWAP1 POP SWAP2 SWAP1 POP JUMP JUMPDEST PUSH1 0x0 PUSH2 0x2A6A PUSH2 0x2A65 DUP4 PUSH2 0x2DCF JUMP JUMPDEST PUSH2 0x2694 JUMP JUMPDEST SWAP1 POP SWAP2 SWAP1 POP JUMP JUMPDEST PUSH1 0x0 PUSH2 0x2A84 PUSH2 0x2A7F DUP4 PUSH2 0x2DDC JUMP JUMPDEST PUSH2 0x2694 JUMP JUMPDEST SWAP1 POP SWAP2 SWAP1 POP JUMP JUMPDEST PUSH1 0x0 PUSH2 0x2A9E PUSH2 0x2A99 DUP4 PUSH2 0x2DE9 JUMP JUMPDEST PUSH2 0x2694 JUMP JUMPDEST SWAP1 POP SWAP2 SWAP1 POP JUMP JUMPDEST PUSH2 0x2AAE DUP3 PUSH2 0x2C79 JUMP JUMPDEST DUP2 ADD DUP2 DUP2 LT PUSH8 0xFFFFFFFFFFFFFFFF DUP3 GT OR ISZERO PUSH2 0x2ACD JUMPI PUSH2 0x2ACC PUSH2 0x2C36 JUMP JUMPDEST JUMPDEST DUP1 PUSH1 0x40 MSTORE POP POP POP JUMP JUMPDEST PUSH1 0x0 PUSH2 0x2AE1 DUP3 PUSH2 0x26E9 JUMP JUMPDEST SWAP2 POP PUSH32 0xFFFFFFFFFFFFFFFFFFFFFFFFFFFFFFFFFFFFFFFFFFFFFFFFFFFFFFFFFFFFFFFF DUP3 EQ ISZERO PUSH2 0x2B14 JUMPI PUSH2 0x2B13 PUSH2 0x2B7A JUMP JUMPDEST JUMPDEST PUSH1 0x1 DUP3 ADD SWAP1 POP SWAP2 SWAP1 POP JUMP JUMPDEST PUSH1 0x0 PUSH2 0x2B2A DUP3 PUSH2 0x26F3 JUMP JUMPDEST SWAP2 POP PUSH1 0xFF DUP3 EQ ISZERO PUSH2 0x2B3E JUMPI PUSH2 0x2B3D PUSH2 0x2B7A JUMP JUMPDEST JUMPDEST PUSH1 0x1 DUP3 ADD SWAP1 POP SWAP2 SWAP1 POP JUMP JUMPDEST PUSH1 0x0 PUSH2 0x2B54 DUP3 PUSH2 0x26E9 JUMP JUMPDEST SWAP2 POP PUSH2 0x2B5F DUP4 PUSH2 0x26E9 JUMP JUMPDEST SWAP3 POP DUP3 PUSH2 0x2B6F JUMPI PUSH2 0x2B6E PUSH2 0x2BA9 JUMP JUMPDEST JUMPDEST DUP3 DUP3 MOD SWAP1 POP SWAP3 SWAP2 POP POP JUMP JUMPDEST PUSH32 0x4E487B7100000000000000000000000000000000000000000000000000000000 PUSH1 0x0 MSTORE PUSH1 0x11 PUSH1 0x4 MSTORE PUSH1 0x24 PUSH1 0x0 REVERT JUMPDEST PUSH32 0x4E487B7100000000000000000000000000000000000000000000000000000000 PUSH1 0x0 MSTORE PUSH1 0x12 PUSH1 0x4 MSTORE PUSH1 0x24 PUSH1 0x0 REVERT JUMPDEST PUSH32 0x4E487B7100000000000000000000000000000000000000000000000000000000 PUSH1 0x0 MSTORE PUSH1 0x22 PUSH1 0x4 MSTORE PUSH1 0x24 PUSH1 0x0 REVERT JUMPDEST PUSH32 0x4E487B7100000000000000000000000000000000000000000000000000000000 PUSH1 0x0 MSTORE PUSH1 0x32 PUSH1 0x4 MSTORE PUSH1 0x24 PUSH1 0x0 REVERT JUMPDEST PUSH32 0x4E487B7100000000000000000000000000000000000000000000000000000000 PUSH1 0x0 MSTORE PUSH1 0x41 PUSH1 0x4 MSTORE PUSH1 0x24 PUSH1 0x0 REVERT JUMPDEST PUSH1 0x0 DUP1 REVERT JUMPDEST PUSH1 0x0 DUP1 REVERT JUMPDEST PUSH1 0x0 DUP1 REVERT JUMPDEST PUSH1 0x0 DUP1 REVERT JUMPDEST PUSH1 0x0 PUSH1 0x1F NOT PUSH1 0x1F DUP4 ADD AND SWAP1 POP SWAP2 SWAP1 POP JUMP JUMPDEST PUSH1 0x0 DUP2 PUSH1 0x0 SHR SWAP1 POP SWAP2 SWAP1 POP JUMP JUMPDEST PUSH1 0x0 DUP2 PUSH1 0x68 SHR SWAP1 POP SWAP2 SWAP1 POP JUMP JUMPDEST PUSH1 0x0 DUP2 PUSH1 0x70 SHR SWAP1 POP SWAP2 SWAP1 POP JUMP JUMPDEST PUSH1 0x0 DUP2 PUSH1 0x78 SHR SWAP1 POP SWAP2 SWAP1 POP JUMP JUMPDEST PUSH1 0x0 DUP2 PUSH1 0x80 SHR SWAP1 POP SWAP2 SWAP1 POP JUMP JUMPDEST PUSH1 0x0 DUP2 PUSH1 0x88 SHR SWAP1 POP SWAP2 SWAP1 POP JUMP JUMPDEST PUSH1 0x0 DUP2 PUSH1 0x90 SHR SWAP1 POP SWAP2 SWAP1 POP JUMP JUMPDEST PUSH1 0x0 DUP2 PUSH1 0x98 SHR SWAP1 POP SWAP2 SWAP1 POP JUMP JUMPDEST PUSH1 0x0 DUP2 PUSH1 0xA0 SHR SWAP1 POP SWAP2 SWAP1 POP JUMP JUMPDEST PUSH1 0x0 DUP2 PUSH1 0xA8 SHR SWAP1 POP SWAP2 SWAP1 POP JUMP JUMPDEST PUSH1 0x0 DUP2 PUSH1 0x10 SHR SWAP1 POP SWAP2 SWAP1 POP JUMP JUMPDEST PUSH1 0x0 DUP2 PUSH1 0xB0 SHR SWAP1 POP SWAP2 SWAP1 POP JUMP JUMPDEST PUSH1 0x0 DUP2 PUSH1 0xB8 SHR SWAP1 POP SWAP2 SWAP1 POP JUMP JUMPDEST PUSH1 0x0 DUP2 PUSH1 0xC0 SHR SWAP1 POP SWAP2 SWAP1 POP JUMP JUMPDEST PUSH1 0x0 DUP2 PUSH1 0xC8 SHR SWAP1 POP SWAP2 SWAP1 POP JUMP JUMPDEST PUSH1 0x0 DUP2 PUSH1 0xD0 SHR SWAP1 POP SWAP2 SWAP1 POP JUMP JUMPDEST PUSH1 0x0 DUP2 PUSH1 0xD8 SHR SWAP1 POP SWAP2 SWAP1 POP JUMP JUMPDEST PUSH1 0x0 DUP2 PUSH1 0xE0 SHR SWAP1 POP SWAP2 SWAP1 POP JUMP JUMPDEST PUSH1 0x0 DUP2 PUSH1 0xE8 SHR SWAP1 POP SWAP2 SWAP1 POP JUMP JUMPDEST PUSH1 0x0 DUP2 PUSH1 0xF0 SHR SWAP1 POP SWAP2 SWAP1 POP JUMP JUMPDEST PUSH1 0x0 DUP2 PUSH1 0xF8 SHR SWAP1 POP SWAP2 SWAP1 POP JUMP JUMPDEST PUSH1 0x0 DUP2 PUSH1 0x18 SHR SWAP1 POP SWAP2 SWAP1 POP JUMP JUMPDEST PUSH1 0x0 DUP2 PUSH1 0x20 SHR SWAP1 POP SWAP2 SWAP1 POP JUMP JUMPDEST PUSH1 0x0 DUP2 PUSH1 0x28 SHR SWAP1 POP SWAP2 SWAP1 POP JUMP JUMPDEST PUSH1 0x0 DUP2 PUSH1 0x30 SHR SWAP1 POP SWAP2 SWAP1 POP JUMP JUMPDEST PUSH1 0x0 DUP2 PUSH1 0x38 SHR SWAP1 POP SWAP2 SWAP1 POP JUMP JUMPDEST PUSH1 0x0 DUP2 PUSH1 0x40 SHR SWAP1 POP SWAP2 SWAP1 POP JUMP JUMPDEST PUSH1 0x0 DUP2 PUSH1 0x48 SHR SWAP1 POP SWAP2 SWAP1 POP JUMP JUMPDEST PUSH1 0x0 DUP2 PUSH1 0x50 SHR SWAP1 POP SWAP2 SWAP1 POP JUMP JUMPDEST PUSH1 0x0 DUP2 PUSH1 0x58 SHR SWAP1 POP SWAP2 SWAP1 POP JUMP JUMPDEST PUSH1 0x0 DUP2 PUSH1 0x8 SHR SWAP1 POP SWAP2 SWAP1 POP JUMP JUMPDEST PUSH1 0x0 DUP2 PUSH1 0x60 SHR SWAP1 POP SWAP2 SWAP1 POP JUMP JUMPDEST PUSH32 0x4E756D62657273206D757374206265206C6172676572207468616E203020616E PUSH1 0x0 DUP3 ADD MSTORE PUSH32 0x64206C657373207468616E206F7220657175616C20746F206D6178696D756D4E PUSH1 0x20 DUP3 ADD MSTORE PUSH32 0x756D6265722E0000000000000000000000000000000000000000000000000000 PUSH1 0x40 DUP3 ADD MSTORE POP JUMP JUMPDEST PUSH32 0x4661696C656420746F2073656E64204574686572000000000000000000000000 PUSH1 0x0 DUP3 ADD MSTORE POP JUMP JUMPDEST PUSH32 0x6D73672E76616C756520646F6573206E6F74206D6174636820626574436F7374 PUSH1 0x0 DUP3 ADD MSTORE POP JUMP JUMPDEST PUSH32 0x596F75206D7573742077616974206C6F6E676572206265666F726520616E6F74 PUSH1 0x0 DUP3 ADD MSTORE PUSH32 0x686572206472617720697320617661696C61626C652E00000000000000000000 PUSH1 0x20 DUP3 ADD MSTORE POP JUMP JUMPDEST PUSH32 0x41206472617720697320616C72656164792068617070656E696E670000000000 PUSH1 0x0 DUP3 ADD MSTORE POP JUMP JUMPDEST PUSH32 0x42657473206172652070617573656420746F206472617720746865206E756D62 PUSH1 0x0 DUP3 ADD MSTORE PUSH32 0x6572732E00000000000000000000000000000000000000000000000000000000 PUSH1 0x20 DUP3 ADD MSTORE POP JUMP JUMPDEST POP JUMP JUMPDEST PUSH32 0x4E756D62657273206D757374206D61746368206578706563746564206C656E67 PUSH1 0x0 DUP3 ADD MSTORE PUSH32 0x74682E0000000000000000000000000000000000000000000000000000000000 PUSH1 0x20 DUP3 ADD MSTORE POP JUMP JUMPDEST PUSH32 0x5468652067616D652068617320746F2062652070617573656420666F72206E75 PUSH1 0x0 DUP3 ADD MSTORE PUSH32 0x6D6265727320746F20626520647261776E2E0000000000000000000000000000 PUSH1 0x20 DUP3 ADD MSTORE POP JUMP JUMPDEST PUSH32 0x5468652072616E646F6D206E756D62657220686173206E6F74206265656E2066 PUSH1 0x0 DUP3 ADD MSTORE PUSH32 0x6574636865642E00000000000000000000000000000000000000000000000000 PUSH1 0x20 DUP3 ADD MSTORE POP JUMP JUMPDEST PUSH32 0x4F6E6C7920746865205652462063616E20736574207468652072616E646F6D20 PUSH1 0x0 DUP3 ADD MSTORE PUSH32 0x6E756D6265722E00000000000000000000000000000000000000000000000000 PUSH1 0x20 DUP3 ADD MSTORE POP JUMP JUMPDEST PUSH2 0x3100 DUP2 PUSH2 0x26BF JUMP JUMPDEST DUP2 EQ PUSH2 0x310B JUMPI PUSH1 0x0 DUP1 REVERT JUMPDEST POP JUMP JUMPDEST PUSH2 0x3117 DUP2 PUSH2 0x26E9 JUMP JUMPDEST DUP2 EQ PUSH2 0x3122 JUMPI PUSH1 0x0 DUP1 REVERT JUMPDEST POP JUMP JUMPDEST PUSH2 0x312E DUP2 PUSH2 0x26F3 JUMP JUMPDEST DUP2 EQ PUSH2 0x3139 JUMPI PUSH1 0x0 DUP1 REVERT JUMPDEST POP JUMP INVALID LOG2 PUSH5 0x6970667358 0x22 SLT KECCAK256 0xD8 0x5D 0x4E ORIGIN CALL 0xF9 0xF9 DUP11 SWAP6 CREATE PUSH32 0xFFEA9FEA7BE78F1EA6A51466DA6B3BDC22BCEEC91064736F6C63430008070033 LOG2 PUSH5 0x6970667358 0x22 SLT KECCAK256 0xB3 RETURNDATACOPY PUSH9 0x5B1A0C230FEF01318A 0xEA CREATE2 SDIV DIFFICULTY PUSH7 0xE55170F894F78D 0xE5 PUSH9 0x3943DB9251B64736F PUSH13 0x63430008070033000000000000 "
        },
        "methodIdentifiers": {
          "contracts(uint256)": "474da79a",
          "newEtherBets(string,uint256,uint8,uint8,uint256,address)": "09c1570e"
        }
      }
    }
  }
}