{
  "contracts/EtherPrediction.sol": {
    "EtherPrediction": {
      "abi": [
        {
          "inputs": [],
          "stateMutability": "nonpayable",
          "type": "constructor"
        },
        {
          "inputs": [],
          "name": "claimPrize",
          "outputs": [],
          "stateMutability": "nonpayable",
          "type": "function"
        },
        {
          "inputs": [],
          "name": "getDetails",
          "outputs": [
            {
              "internalType": "contract AggregatorV3Interface",
              "name": "",
              "type": "address"
            },
            {
              "components": [
                {
                  "internalType": "uint256",
                  "name": "higher",
                  "type": "uint256"
                },
                {
                  "internalType": "uint256",
                  "name": "lower",
                  "type": "uint256"
                }
              ],
              "internalType": "struct EtherPrediction.Bet",
              "name": "",
              "type": "tuple"
            },
            {
              "internalType": "int256",
              "name": "",
              "type": "int256"
            },
            {
              "internalType": "int256",
              "name": "",
              "type": "int256"
            },
            {
              "internalType": "uint256",
              "name": "",
              "type": "uint256"
            },
            {
              "internalType": "uint256",
              "name": "",
              "type": "uint256"
            }
          ],
          "stateMutability": "view",
          "type": "function"
        },
        {
          "inputs": [],
          "name": "getLatestPrice",
          "outputs": [
            {
              "internalType": "int256",
              "name": "",
              "type": "int256"
            }
          ],
          "stateMutability": "view",
          "type": "function"
        },
        {
          "inputs": [
            {
              "internalType": "address",
              "name": "a",
              "type": "address"
            }
          ],
          "name": "getUserBet",
          "outputs": [
            {
              "components": [
                {
                  "internalType": "uint256",
                  "name": "higher",
                  "type": "uint256"
                },
                {
                  "internalType": "uint256",
                  "name": "lower",
                  "type": "uint256"
                }
              ],
              "internalType": "struct EtherPrediction.Bet",
              "name": "",
              "type": "tuple"
            }
          ],
          "stateMutability": "view",
          "type": "function"
        },
        {
          "inputs": [
            {
              "internalType": "bool",
              "name": "higher",
              "type": "bool"
            }
          ],
          "name": "placeBet",
          "outputs": [],
          "stateMutability": "payable",
          "type": "function"
        }
      ],
      "evm": {
        "bytecode": {
          "linkReferences": {},
          "object": "608060405234801561001057600080fd5b50738a753747a1fa494ec906ce90e9f37563a8af630e6000806101000a81548173ffffffffffffffffffffffffffffffffffffffff021916908373ffffffffffffffffffffffffffffffffffffffff160217905550610e24806100746000396000f3fe60806040526004361061004a5760003560e01c8063096a37781461004f57806370740ac91461006b5780638e15f47314610082578063c96adb01146100ad578063fbbf93a0146100ea575b600080fd5b61006960048036038101906100649190610730565b61011a565b005b34801561007757600080fd5b50610080610299565b005b34801561008e57600080fd5b506100976104e2565b6040516100a4919061098b565b60405180910390f35b3480156100b957600080fd5b506100d460048036038101906100cf9190610703565b61059e565b6040516100e19190610a46565b60405180910390f35b3480156100f657600080fd5b506100ff61060b565b6040516101119695949392919061092a565b60405180910390f35b6000341161015d576040517f08c379a000000000000000000000000000000000000000000000000000000000815260040161015490610a06565b60405180910390fd5b60065442106101a1576040517f08c379a000000000000000000000000000000000000000000000000000000000815260040161019890610a26565b60405180910390fd5b80156102215734600760003373ffffffffffffffffffffffffffffffffffffffff1673ffffffffffffffffffffffffffffffffffffffff16815260200190815260200160002060000160008282546101f99190610a7d565b9250508190555034600160000160008282546102159190610a7d565b92505081905550610296565b34600760003373ffffffffffffffffffffffffffffffffffffffff1673ffffffffffffffffffffffffffffffffffffffff16815260200190815260200160002060010160008282546102739190610a7d565b925050819055503460018001600082825461028e9190610a7d565b925050819055505b50565b60055442116102dd576040517f08c379a00000000000000000000000000000000000000000000000000000000081526004016102d4906109c6565b60405180910390fd5b600060035460045413156103555760016000015464e8d4a51000600760003373ffffffffffffffffffffffffffffffffffffffff1673ffffffffffffffffffffffffffffffffffffffff168152602001908152602001600020600001546103449190610b04565b61034e9190610ad3565b90506103ba565b600180015464e8d4a51000600760003373ffffffffffffffffffffffffffffffffffffffff1673ffffffffffffffffffffffffffffffffffffffff168152602001908152602001600020600101546103ad9190610b04565b6103b79190610ad3565b90505b600064e8d4a5100060018001546001600001546103d79190610a7d565b836103e29190610b04565b6103ec9190610ad3565b905060008111610431576040517f08c379a0000000000000000000000000000000000000000000000000000000008152600401610428906109e6565b60405180910390fd5b60003373ffffffffffffffffffffffffffffffffffffffff168260405161045790610915565b60006040518083038185875af1925050503d8060008114610494576040519150601f19603f3d011682016040523d82523d6000602084013e610499565b606091505b50509050806104dd576040517f08c379a00000000000000000000000000000000000000000000000000000000081526004016104d4906109a6565b60405180910390fd5b505050565b60008060008060008060008054906101000a900473ffffffffffffffffffffffffffffffffffffffff1673ffffffffffffffffffffffffffffffffffffffff1663feaf968c6040518163ffffffff1660e01b815260040160a06040518083038186803b15801561055157600080fd5b505afa158015610565573d6000803e3d6000fd5b505050506040513d601f19601f82011682018060405250810190610589919061075d565b94509450945094509450839550505050505090565b6105a6610680565b600760008373ffffffffffffffffffffffffffffffffffffffff1673ffffffffffffffffffffffffffffffffffffffff168152602001908152602001600020604051806040016040529081600082015481526020016001820154815250509050919050565b6000610615610680565b60008060008060008054906101000a900473ffffffffffffffffffffffffffffffffffffffff16600160035460045460055460065484604051806040016040529081600082015481526020016001820154815250509450955095509550955095509550909192939495565b604051806040016040528060008152602001600081525090565b6000813590506106a981610d7b565b92915050565b6000813590506106be81610d92565b92915050565b6000815190506106d381610da9565b92915050565b6000815190506106e881610dc0565b92915050565b6000815190506106fd81610dd7565b92915050565b60006020828403121561071957610718610c5a565b5b60006107278482850161069a565b91505092915050565b60006020828403121561074657610745610c5a565b5b6000610754848285016106af565b91505092915050565b600080600080600060a0868803121561077957610778610c5a565b5b6000610787888289016106ee565b9550506020610798888289016106c4565b94505060406107a9888289016106d9565b93505060606107ba888289016106d9565b92505060806107cb888289016106ee565b9150509295509295909350565b6107e181610bc6565b82525050565b6107f081610b7c565b82525050565b6000610803601483610a6c565b915061080e82610c5f565b602082019050919050565b6000610826602383610a6c565b915061083182610c88565b604082019050919050565b6000610849601983610a6c565b915061085482610cd7565b602082019050919050565b600061086c600083610a61565b915061087782610d00565b600082019050919050565b600061088f601f83610a6c565b915061089a82610d03565b602082019050919050565b60006108b2603383610a6c565b91506108bd82610d2c565b604082019050919050565b6040820160008201516108de60008501826108f7565b5060208201516108f160208501826108f7565b50505050565b61090081610ba6565b82525050565b61090f81610ba6565b82525050565b60006109208261085f565b9150819050919050565b600060e08201905061093f60008301896107d8565b61094c60208301886108c8565b61095960608301876107e7565b61096660808301866107e7565b61097360a0830185610906565b61098060c0830184610906565b979650505050505050565b60006020820190506109a060008301846107e7565b92915050565b600060208201905081810360008301526109bf816107f6565b9050919050565b600060208201905081810360008301526109df81610819565b9050919050565b600060208201905081810360008301526109ff8161083c565b9050919050565b60006020820190508181036000830152610a1f81610882565b9050919050565b60006020820190508181036000830152610a3f816108a5565b9050919050565b6000604082019050610a5b60008301846108c8565b92915050565b600081905092915050565b600082825260208201905092915050565b6000610a8882610ba6565b9150610a9383610ba6565b9250827fffffffffffffffffffffffffffffffffffffffffffffffffffffffffffffffff03821115610ac857610ac7610bfc565b5b828201905092915050565b6000610ade82610ba6565b9150610ae983610ba6565b925082610af957610af8610c2b565b5b828204905092915050565b6000610b0f82610ba6565b9150610b1a83610ba6565b9250817fffffffffffffffffffffffffffffffffffffffffffffffffffffffffffffffff0483118215151615610b5357610b52610bfc565b5b828202905092915050565b6000610b6982610b86565b9050919050565b60008115159050919050565b6000819050919050565b600073ffffffffffffffffffffffffffffffffffffffff82169050919050565b6000819050919050565b600069ffffffffffffffffffff82169050919050565b6000610bd182610bd8565b9050919050565b6000610be382610bea565b9050919050565b6000610bf582610b86565b9050919050565b7f4e487b7100000000000000000000000000000000000000000000000000000000600052601160045260246000fd5b7f4e487b7100000000000000000000000000000000000000000000000000000000600052601260045260246000fd5b600080fd5b7f4661696c656420746f2073656e64204574686572000000000000000000000000600082015250565b7f74617267657454696d6520686173206e6f74206265656e20726561636865642060008201527f7965740000000000000000000000000000000000000000000000000000000000602082015250565b7f596f7520646964206e6f742077696e20616e79207072697a6500000000000000600082015250565b50565b7f6d73672e76616c75652068617320746f206265206d6f7265207468616e203000600082015250565b7f596f752063616e277420706c616365206265747320616e796d6f72652c20646560008201527f61646c696e652077617320726561636865642e00000000000000000000000000602082015250565b610d8481610b5e565b8114610d8f57600080fd5b50565b610d9b81610b70565b8114610da657600080fd5b50565b610db281610b7c565b8114610dbd57600080fd5b50565b610dc981610ba6565b8114610dd457600080fd5b50565b610de081610bb0565b8114610deb57600080fd5b5056fea26469706673582212202d148f7efb0c0c3c1a3172a90edef4c1e8f4d269d7acaee97623a2d4bb983ddd64736f6c63430008070033",
          "opcodes": "PUSH1 0x80 PUSH1 0x40 MSTORE CALLVALUE DUP1 ISZERO PUSH2 0x10 JUMPI PUSH1 0x0 DUP1 REVERT JUMPDEST POP PUSH20 0x8A753747A1FA494EC906CE90E9F37563A8AF630E PUSH1 0x0 DUP1 PUSH2 0x100 EXP DUP2 SLOAD DUP2 PUSH20 0xFFFFFFFFFFFFFFFFFFFFFFFFFFFFFFFFFFFFFFFF MUL NOT AND SWAP1 DUP4 PUSH20 0xFFFFFFFFFFFFFFFFFFFFFFFFFFFFFFFFFFFFFFFF AND MUL OR SWAP1 SSTORE POP PUSH2 0xE24 DUP1 PUSH2 0x74 PUSH1 0x0 CODECOPY PUSH1 0x0 RETURN INVALID PUSH1 0x80 PUSH1 0x40 MSTORE PUSH1 0x4 CALLDATASIZE LT PUSH2 0x4A JUMPI PUSH1 0x0 CALLDATALOAD PUSH1 0xE0 SHR DUP1 PUSH4 0x96A3778 EQ PUSH2 0x4F JUMPI DUP1 PUSH4 0x70740AC9 EQ PUSH2 0x6B JUMPI DUP1 PUSH4 0x8E15F473 EQ PUSH2 0x82 JUMPI DUP1 PUSH4 0xC96ADB01 EQ PUSH2 0xAD JUMPI DUP1 PUSH4 0xFBBF93A0 EQ PUSH2 0xEA JUMPI JUMPDEST PUSH1 0x0 DUP1 REVERT JUMPDEST PUSH2 0x69 PUSH1 0x4 DUP1 CALLDATASIZE SUB DUP2 ADD SWAP1 PUSH2 0x64 SWAP2 SWAP1 PUSH2 0x730 JUMP JUMPDEST PUSH2 0x11A JUMP JUMPDEST STOP JUMPDEST CALLVALUE DUP1 ISZERO PUSH2 0x77 JUMPI PUSH1 0x0 DUP1 REVERT JUMPDEST POP PUSH2 0x80 PUSH2 0x299 JUMP JUMPDEST STOP JUMPDEST CALLVALUE DUP1 ISZERO PUSH2 0x8E JUMPI PUSH1 0x0 DUP1 REVERT JUMPDEST POP PUSH2 0x97 PUSH2 0x4E2 JUMP JUMPDEST PUSH1 0x40 MLOAD PUSH2 0xA4 SWAP2 SWAP1 PUSH2 0x98B JUMP JUMPDEST PUSH1 0x40 MLOAD DUP1 SWAP2 SUB SWAP1 RETURN JUMPDEST CALLVALUE DUP1 ISZERO PUSH2 0xB9 JUMPI PUSH1 0x0 DUP1 REVERT JUMPDEST POP PUSH2 0xD4 PUSH1 0x4 DUP1 CALLDATASIZE SUB DUP2 ADD SWAP1 PUSH2 0xCF SWAP2 SWAP1 PUSH2 0x703 JUMP JUMPDEST PUSH2 0x59E JUMP JUMPDEST PUSH1 0x40 MLOAD PUSH2 0xE1 SWAP2 SWAP1 PUSH2 0xA46 JUMP JUMPDEST PUSH1 0x40 MLOAD DUP1 SWAP2 SUB SWAP1 RETURN JUMPDEST CALLVALUE DUP1 ISZERO PUSH2 0xF6 JUMPI PUSH1 0x0 DUP1 REVERT JUMPDEST POP PUSH2 0xFF PUSH2 0x60B JUMP JUMPDEST PUSH1 0x40 MLOAD PUSH2 0x111 SWAP7 SWAP6 SWAP5 SWAP4 SWAP3 SWAP2 SWAP1 PUSH2 0x92A JUMP JUMPDEST PUSH1 0x40 MLOAD DUP1 SWAP2 SUB SWAP1 RETURN JUMPDEST PUSH1 0x0 CALLVALUE GT PUSH2 0x15D JUMPI PUSH1 0x40 MLOAD PUSH32 0x8C379A000000000000000000000000000000000000000000000000000000000 DUP2 MSTORE PUSH1 0x4 ADD PUSH2 0x154 SWAP1 PUSH2 0xA06 JUMP JUMPDEST PUSH1 0x40 MLOAD DUP1 SWAP2 SUB SWAP1 REVERT JUMPDEST PUSH1 0x6 SLOAD TIMESTAMP LT PUSH2 0x1A1 JUMPI PUSH1 0x40 MLOAD PUSH32 0x8C379A000000000000000000000000000000000000000000000000000000000 DUP2 MSTORE PUSH1 0x4 ADD PUSH2 0x198 SWAP1 PUSH2 0xA26 JUMP JUMPDEST PUSH1 0x40 MLOAD DUP1 SWAP2 SUB SWAP1 REVERT JUMPDEST DUP1 ISZERO PUSH2 0x221 JUMPI CALLVALUE PUSH1 0x7 PUSH1 0x0 CALLER PUSH20 0xFFFFFFFFFFFFFFFFFFFFFFFFFFFFFFFFFFFFFFFF AND PUSH20 0xFFFFFFFFFFFFFFFFFFFFFFFFFFFFFFFFFFFFFFFF AND DUP2 MSTORE PUSH1 0x20 ADD SWAP1 DUP2 MSTORE PUSH1 0x20 ADD PUSH1 0x0 KECCAK256 PUSH1 0x0 ADD PUSH1 0x0 DUP3 DUP3 SLOAD PUSH2 0x1F9 SWAP2 SWAP1 PUSH2 0xA7D JUMP JUMPDEST SWAP3 POP POP DUP2 SWAP1 SSTORE POP CALLVALUE PUSH1 0x1 PUSH1 0x0 ADD PUSH1 0x0 DUP3 DUP3 SLOAD PUSH2 0x215 SWAP2 SWAP1 PUSH2 0xA7D JUMP JUMPDEST SWAP3 POP POP DUP2 SWAP1 SSTORE POP PUSH2 0x296 JUMP JUMPDEST CALLVALUE PUSH1 0x7 PUSH1 0x0 CALLER PUSH20 0xFFFFFFFFFFFFFFFFFFFFFFFFFFFFFFFFFFFFFFFF AND PUSH20 0xFFFFFFFFFFFFFFFFFFFFFFFFFFFFFFFFFFFFFFFF AND DUP2 MSTORE PUSH1 0x20 ADD SWAP1 DUP2 MSTORE PUSH1 0x20 ADD PUSH1 0x0 KECCAK256 PUSH1 0x1 ADD PUSH1 0x0 DUP3 DUP3 SLOAD PUSH2 0x273 SWAP2 SWAP1 PUSH2 0xA7D JUMP JUMPDEST SWAP3 POP POP DUP2 SWAP1 SSTORE POP CALLVALUE PUSH1 0x1 DUP1 ADD PUSH1 0x0 DUP3 DUP3 SLOAD PUSH2 0x28E SWAP2 SWAP1 PUSH2 0xA7D JUMP JUMPDEST SWAP3 POP POP DUP2 SWAP1 SSTORE POP JUMPDEST POP JUMP JUMPDEST PUSH1 0x5 SLOAD TIMESTAMP GT PUSH2 0x2DD JUMPI PUSH1 0x40 MLOAD PUSH32 0x8C379A000000000000000000000000000000000000000000000000000000000 DUP2 MSTORE PUSH1 0x4 ADD PUSH2 0x2D4 SWAP1 PUSH2 0x9C6 JUMP JUMPDEST PUSH1 0x40 MLOAD DUP1 SWAP2 SUB SWAP1 REVERT JUMPDEST PUSH1 0x0 PUSH1 0x3 SLOAD PUSH1 0x4 SLOAD SGT ISZERO PUSH2 0x355 JUMPI PUSH1 0x1 PUSH1 0x0 ADD SLOAD PUSH5 0xE8D4A51000 PUSH1 0x7 PUSH1 0x0 CALLER PUSH20 0xFFFFFFFFFFFFFFFFFFFFFFFFFFFFFFFFFFFFFFFF AND PUSH20 0xFFFFFFFFFFFFFFFFFFFFFFFFFFFFFFFFFFFFFFFF AND DUP2 MSTORE PUSH1 0x20 ADD SWAP1 DUP2 MSTORE PUSH1 0x20 ADD PUSH1 0x0 KECCAK256 PUSH1 0x0 ADD SLOAD PUSH2 0x344 SWAP2 SWAP1 PUSH2 0xB04 JUMP JUMPDEST PUSH2 0x34E SWAP2 SWAP1 PUSH2 0xAD3 JUMP JUMPDEST SWAP1 POP PUSH2 0x3BA JUMP JUMPDEST PUSH1 0x1 DUP1 ADD SLOAD PUSH5 0xE8D4A51000 PUSH1 0x7 PUSH1 0x0 CALLER PUSH20 0xFFFFFFFFFFFFFFFFFFFFFFFFFFFFFFFFFFFFFFFF AND PUSH20 0xFFFFFFFFFFFFFFFFFFFFFFFFFFFFFFFFFFFFFFFF AND DUP2 MSTORE PUSH1 0x20 ADD SWAP1 DUP2 MSTORE PUSH1 0x20 ADD PUSH1 0x0 KECCAK256 PUSH1 0x1 ADD SLOAD PUSH2 0x3AD SWAP2 SWAP1 PUSH2 0xB04 JUMP JUMPDEST PUSH2 0x3B7 SWAP2 SWAP1 PUSH2 0xAD3 JUMP JUMPDEST SWAP1 POP JUMPDEST PUSH1 0x0 PUSH5 0xE8D4A51000 PUSH1 0x1 DUP1 ADD SLOAD PUSH1 0x1 PUSH1 0x0 ADD SLOAD PUSH2 0x3D7 SWAP2 SWAP1 PUSH2 0xA7D JUMP JUMPDEST DUP4 PUSH2 0x3E2 SWAP2 SWAP1 PUSH2 0xB04 JUMP JUMPDEST PUSH2 0x3EC SWAP2 SWAP1 PUSH2 0xAD3 JUMP JUMPDEST SWAP1 POP PUSH1 0x0 DUP2 GT PUSH2 0x431 JUMPI PUSH1 0x40 MLOAD PUSH32 0x8C379A000000000000000000000000000000000000000000000000000000000 DUP2 MSTORE PUSH1 0x4 ADD PUSH2 0x428 SWAP1 PUSH2 0x9E6 JUMP JUMPDEST PUSH1 0x40 MLOAD DUP1 SWAP2 SUB SWAP1 REVERT JUMPDEST PUSH1 0x0 CALLER PUSH20 0xFFFFFFFFFFFFFFFFFFFFFFFFFFFFFFFFFFFFFFFF AND DUP3 PUSH1 0x40 MLOAD PUSH2 0x457 SWAP1 PUSH2 0x915 JUMP JUMPDEST PUSH1 0x0 PUSH1 0x40 MLOAD DUP1 DUP4 SUB DUP2 DUP6 DUP8 GAS CALL SWAP3 POP POP POP RETURNDATASIZE DUP1 PUSH1 0x0 DUP2 EQ PUSH2 0x494 JUMPI PUSH1 0x40 MLOAD SWAP2 POP PUSH1 0x1F NOT PUSH1 0x3F RETURNDATASIZE ADD AND DUP3 ADD PUSH1 0x40 MSTORE RETURNDATASIZE DUP3 MSTORE RETURNDATASIZE PUSH1 0x0 PUSH1 0x20 DUP5 ADD RETURNDATACOPY PUSH2 0x499 JUMP JUMPDEST PUSH1 0x60 SWAP2 POP JUMPDEST POP POP SWAP1 POP DUP1 PUSH2 0x4DD JUMPI PUSH1 0x40 MLOAD PUSH32 0x8C379A000000000000000000000000000000000000000000000000000000000 DUP2 MSTORE PUSH1 0x4 ADD PUSH2 0x4D4 SWAP1 PUSH2 0x9A6 JUMP JUMPDEST PUSH1 0x40 MLOAD DUP1 SWAP2 SUB SWAP1 REVERT JUMPDEST POP POP POP JUMP JUMPDEST PUSH1 0x0 DUP1 PUSH1 0x0 DUP1 PUSH1 0x0 DUP1 PUSH1 0x0 DUP1 SLOAD SWAP1 PUSH2 0x100 EXP SWAP1 DIV PUSH20 0xFFFFFFFFFFFFFFFFFFFFFFFFFFFFFFFFFFFFFFFF AND PUSH20 0xFFFFFFFFFFFFFFFFFFFFFFFFFFFFFFFFFFFFFFFF AND PUSH4 0xFEAF968C PUSH1 0x40 MLOAD DUP2 PUSH4 0xFFFFFFFF AND PUSH1 0xE0 SHL DUP2 MSTORE PUSH1 0x4 ADD PUSH1 0xA0 PUSH1 0x40 MLOAD DUP1 DUP4 SUB DUP2 DUP7 DUP1 EXTCODESIZE ISZERO DUP1 ISZERO PUSH2 0x551 JUMPI PUSH1 0x0 DUP1 REVERT JUMPDEST POP GAS STATICCALL ISZERO DUP1 ISZERO PUSH2 0x565 JUMPI RETURNDATASIZE PUSH1 0x0 DUP1 RETURNDATACOPY RETURNDATASIZE PUSH1 0x0 REVERT JUMPDEST POP POP POP POP PUSH1 0x40 MLOAD RETURNDATASIZE PUSH1 0x1F NOT PUSH1 0x1F DUP3 ADD AND DUP3 ADD DUP1 PUSH1 0x40 MSTORE POP DUP2 ADD SWAP1 PUSH2 0x589 SWAP2 SWAP1 PUSH2 0x75D JUMP JUMPDEST SWAP5 POP SWAP5 POP SWAP5 POP SWAP5 POP SWAP5 POP DUP4 SWAP6 POP POP POP POP POP POP SWAP1 JUMP JUMPDEST PUSH2 0x5A6 PUSH2 0x680 JUMP JUMPDEST PUSH1 0x7 PUSH1 0x0 DUP4 PUSH20 0xFFFFFFFFFFFFFFFFFFFFFFFFFFFFFFFFFFFFFFFF AND PUSH20 0xFFFFFFFFFFFFFFFFFFFFFFFFFFFFFFFFFFFFFFFF AND DUP2 MSTORE PUSH1 0x20 ADD SWAP1 DUP2 MSTORE PUSH1 0x20 ADD PUSH1 0x0 KECCAK256 PUSH1 0x40 MLOAD DUP1 PUSH1 0x40 ADD PUSH1 0x40 MSTORE SWAP1 DUP2 PUSH1 0x0 DUP3 ADD SLOAD DUP2 MSTORE PUSH1 0x20 ADD PUSH1 0x1 DUP3 ADD SLOAD DUP2 MSTORE POP POP SWAP1 POP SWAP2 SWAP1 POP JUMP JUMPDEST PUSH1 0x0 PUSH2 0x615 PUSH2 0x680 JUMP JUMPDEST PUSH1 0x0 DUP1 PUSH1 0x0 DUP1 PUSH1 0x0 DUP1 SLOAD SWAP1 PUSH2 0x100 EXP SWAP1 DIV PUSH20 0xFFFFFFFFFFFFFFFFFFFFFFFFFFFFFFFFFFFFFFFF AND PUSH1 0x1 PUSH1 0x3 SLOAD PUSH1 0x4 SLOAD PUSH1 0x5 SLOAD PUSH1 0x6 SLOAD DUP5 PUSH1 0x40 MLOAD DUP1 PUSH1 0x40 ADD PUSH1 0x40 MSTORE SWAP1 DUP2 PUSH1 0x0 DUP3 ADD SLOAD DUP2 MSTORE PUSH1 0x20 ADD PUSH1 0x1 DUP3 ADD SLOAD DUP2 MSTORE POP POP SWAP5 POP SWAP6 POP SWAP6 POP SWAP6 POP SWAP6 POP SWAP6 POP SWAP6 POP SWAP1 SWAP2 SWAP3 SWAP4 SWAP5 SWAP6 JUMP JUMPDEST PUSH1 0x40 MLOAD DUP1 PUSH1 0x40 ADD PUSH1 0x40 MSTORE DUP1 PUSH1 0x0 DUP2 MSTORE PUSH1 0x20 ADD PUSH1 0x0 DUP2 MSTORE POP SWAP1 JUMP JUMPDEST PUSH1 0x0 DUP2 CALLDATALOAD SWAP1 POP PUSH2 0x6A9 DUP2 PUSH2 0xD7B JUMP JUMPDEST SWAP3 SWAP2 POP POP JUMP JUMPDEST PUSH1 0x0 DUP2 CALLDATALOAD SWAP1 POP PUSH2 0x6BE DUP2 PUSH2 0xD92 JUMP JUMPDEST SWAP3 SWAP2 POP POP JUMP JUMPDEST PUSH1 0x0 DUP2 MLOAD SWAP1 POP PUSH2 0x6D3 DUP2 PUSH2 0xDA9 JUMP JUMPDEST SWAP3 SWAP2 POP POP JUMP JUMPDEST PUSH1 0x0 DUP2 MLOAD SWAP1 POP PUSH2 0x6E8 DUP2 PUSH2 0xDC0 JUMP JUMPDEST SWAP3 SWAP2 POP POP JUMP JUMPDEST PUSH1 0x0 DUP2 MLOAD SWAP1 POP PUSH2 0x6FD DUP2 PUSH2 0xDD7 JUMP JUMPDEST SWAP3 SWAP2 POP POP JUMP JUMPDEST PUSH1 0x0 PUSH1 0x20 DUP3 DUP5 SUB SLT ISZERO PUSH2 0x719 JUMPI PUSH2 0x718 PUSH2 0xC5A JUMP JUMPDEST JUMPDEST PUSH1 0x0 PUSH2 0x727 DUP5 DUP3 DUP6 ADD PUSH2 0x69A JUMP JUMPDEST SWAP2 POP POP SWAP3 SWAP2 POP POP JUMP JUMPDEST PUSH1 0x0 PUSH1 0x20 DUP3 DUP5 SUB SLT ISZERO PUSH2 0x746 JUMPI PUSH2 0x745 PUSH2 0xC5A JUMP JUMPDEST JUMPDEST PUSH1 0x0 PUSH2 0x754 DUP5 DUP3 DUP6 ADD PUSH2 0x6AF JUMP JUMPDEST SWAP2 POP POP SWAP3 SWAP2 POP POP JUMP JUMPDEST PUSH1 0x0 DUP1 PUSH1 0x0 DUP1 PUSH1 0x0 PUSH1 0xA0 DUP7 DUP9 SUB SLT ISZERO PUSH2 0x779 JUMPI PUSH2 0x778 PUSH2 0xC5A JUMP JUMPDEST JUMPDEST PUSH1 0x0 PUSH2 0x787 DUP9 DUP3 DUP10 ADD PUSH2 0x6EE JUMP JUMPDEST SWAP6 POP POP PUSH1 0x20 PUSH2 0x798 DUP9 DUP3 DUP10 ADD PUSH2 0x6C4 JUMP JUMPDEST SWAP5 POP POP PUSH1 0x40 PUSH2 0x7A9 DUP9 DUP3 DUP10 ADD PUSH2 0x6D9 JUMP JUMPDEST SWAP4 POP POP PUSH1 0x60 PUSH2 0x7BA DUP9 DUP3 DUP10 ADD PUSH2 0x6D9 JUMP JUMPDEST SWAP3 POP POP PUSH1 0x80 PUSH2 0x7CB DUP9 DUP3 DUP10 ADD PUSH2 0x6EE JUMP JUMPDEST SWAP2 POP POP SWAP3 SWAP6 POP SWAP3 SWAP6 SWAP1 SWAP4 POP JUMP JUMPDEST PUSH2 0x7E1 DUP2 PUSH2 0xBC6 JUMP JUMPDEST DUP3 MSTORE POP POP JUMP JUMPDEST PUSH2 0x7F0 DUP2 PUSH2 0xB7C JUMP JUMPDEST DUP3 MSTORE POP POP JUMP JUMPDEST PUSH1 0x0 PUSH2 0x803 PUSH1 0x14 DUP4 PUSH2 0xA6C JUMP JUMPDEST SWAP2 POP PUSH2 0x80E DUP3 PUSH2 0xC5F JUMP JUMPDEST PUSH1 0x20 DUP3 ADD SWAP1 POP SWAP2 SWAP1 POP JUMP JUMPDEST PUSH1 0x0 PUSH2 0x826 PUSH1 0x23 DUP4 PUSH2 0xA6C JUMP JUMPDEST SWAP2 POP PUSH2 0x831 DUP3 PUSH2 0xC88 JUMP JUMPDEST PUSH1 0x40 DUP3 ADD SWAP1 POP SWAP2 SWAP1 POP JUMP JUMPDEST PUSH1 0x0 PUSH2 0x849 PUSH1 0x19 DUP4 PUSH2 0xA6C JUMP JUMPDEST SWAP2 POP PUSH2 0x854 DUP3 PUSH2 0xCD7 JUMP JUMPDEST PUSH1 0x20 DUP3 ADD SWAP1 POP SWAP2 SWAP1 POP JUMP JUMPDEST PUSH1 0x0 PUSH2 0x86C PUSH1 0x0 DUP4 PUSH2 0xA61 JUMP JUMPDEST SWAP2 POP PUSH2 0x877 DUP3 PUSH2 0xD00 JUMP JUMPDEST PUSH1 0x0 DUP3 ADD SWAP1 POP SWAP2 SWAP1 POP JUMP JUMPDEST PUSH1 0x0 PUSH2 0x88F PUSH1 0x1F DUP4 PUSH2 0xA6C JUMP JUMPDEST SWAP2 POP PUSH2 0x89A DUP3 PUSH2 0xD03 JUMP JUMPDEST PUSH1 0x20 DUP3 ADD SWAP1 POP SWAP2 SWAP1 POP JUMP JUMPDEST PUSH1 0x0 PUSH2 0x8B2 PUSH1 0x33 DUP4 PUSH2 0xA6C JUMP JUMPDEST SWAP2 POP PUSH2 0x8BD DUP3 PUSH2 0xD2C JUMP JUMPDEST PUSH1 0x40 DUP3 ADD SWAP1 POP SWAP2 SWAP1 POP JUMP JUMPDEST PUSH1 0x40 DUP3 ADD PUSH1 0x0 DUP3 ADD MLOAD PUSH2 0x8DE PUSH1 0x0 DUP6 ADD DUP3 PUSH2 0x8F7 JUMP JUMPDEST POP PUSH1 0x20 DUP3 ADD MLOAD PUSH2 0x8F1 PUSH1 0x20 DUP6 ADD DUP3 PUSH2 0x8F7 JUMP JUMPDEST POP POP POP POP JUMP JUMPDEST PUSH2 0x900 DUP2 PUSH2 0xBA6 JUMP JUMPDEST DUP3 MSTORE POP POP JUMP JUMPDEST PUSH2 0x90F DUP2 PUSH2 0xBA6 JUMP JUMPDEST DUP3 MSTORE POP POP JUMP JUMPDEST PUSH1 0x0 PUSH2 0x920 DUP3 PUSH2 0x85F JUMP JUMPDEST SWAP2 POP DUP2 SWAP1 POP SWAP2 SWAP1 POP JUMP JUMPDEST PUSH1 0x0 PUSH1 0xE0 DUP3 ADD SWAP1 POP PUSH2 0x93F PUSH1 0x0 DUP4 ADD DUP10 PUSH2 0x7D8 JUMP JUMPDEST PUSH2 0x94C PUSH1 0x20 DUP4 ADD DUP9 PUSH2 0x8C8 JUMP JUMPDEST PUSH2 0x959 PUSH1 0x60 DUP4 ADD DUP8 PUSH2 0x7E7 JUMP JUMPDEST PUSH2 0x966 PUSH1 0x80 DUP4 ADD DUP7 PUSH2 0x7E7 JUMP JUMPDEST PUSH2 0x973 PUSH1 0xA0 DUP4 ADD DUP6 PUSH2 0x906 JUMP JUMPDEST PUSH2 0x980 PUSH1 0xC0 DUP4 ADD DUP5 PUSH2 0x906 JUMP JUMPDEST SWAP8 SWAP7 POP POP POP POP POP POP POP JUMP JUMPDEST PUSH1 0x0 PUSH1 0x20 DUP3 ADD SWAP1 POP PUSH2 0x9A0 PUSH1 0x0 DUP4 ADD DUP5 PUSH2 0x7E7 JUMP JUMPDEST SWAP3 SWAP2 POP POP JUMP JUMPDEST PUSH1 0x0 PUSH1 0x20 DUP3 ADD SWAP1 POP DUP2 DUP2 SUB PUSH1 0x0 DUP4 ADD MSTORE PUSH2 0x9BF DUP2 PUSH2 0x7F6 JUMP JUMPDEST SWAP1 POP SWAP2 SWAP1 POP JUMP JUMPDEST PUSH1 0x0 PUSH1 0x20 DUP3 ADD SWAP1 POP DUP2 DUP2 SUB PUSH1 0x0 DUP4 ADD MSTORE PUSH2 0x9DF DUP2 PUSH2 0x819 JUMP JUMPDEST SWAP1 POP SWAP2 SWAP1 POP JUMP JUMPDEST PUSH1 0x0 PUSH1 0x20 DUP3 ADD SWAP1 POP DUP2 DUP2 SUB PUSH1 0x0 DUP4 ADD MSTORE PUSH2 0x9FF DUP2 PUSH2 0x83C JUMP JUMPDEST SWAP1 POP SWAP2 SWAP1 POP JUMP JUMPDEST PUSH1 0x0 PUSH1 0x20 DUP3 ADD SWAP1 POP DUP2 DUP2 SUB PUSH1 0x0 DUP4 ADD MSTORE PUSH2 0xA1F DUP2 PUSH2 0x882 JUMP JUMPDEST SWAP1 POP SWAP2 SWAP1 POP JUMP JUMPDEST PUSH1 0x0 PUSH1 0x20 DUP3 ADD SWAP1 POP DUP2 DUP2 SUB PUSH1 0x0 DUP4 ADD MSTORE PUSH2 0xA3F DUP2 PUSH2 0x8A5 JUMP JUMPDEST SWAP1 POP SWAP2 SWAP1 POP JUMP JUMPDEST PUSH1 0x0 PUSH1 0x40 DUP3 ADD SWAP1 POP PUSH2 0xA5B PUSH1 0x0 DUP4 ADD DUP5 PUSH2 0x8C8 JUMP JUMPDEST SWAP3 SWAP2 POP POP JUMP JUMPDEST PUSH1 0x0 DUP2 SWAP1 POP SWAP3 SWAP2 POP POP JUMP JUMPDEST PUSH1 0x0 DUP3 DUP3 MSTORE PUSH1 0x20 DUP3 ADD SWAP1 POP SWAP3 SWAP2 POP POP JUMP JUMPDEST PUSH1 0x0 PUSH2 0xA88 DUP3 PUSH2 0xBA6 JUMP JUMPDEST SWAP2 POP PUSH2 0xA93 DUP4 PUSH2 0xBA6 JUMP JUMPDEST SWAP3 POP DUP3 PUSH32 0xFFFFFFFFFFFFFFFFFFFFFFFFFFFFFFFFFFFFFFFFFFFFFFFFFFFFFFFFFFFFFFFF SUB DUP3 GT ISZERO PUSH2 0xAC8 JUMPI PUSH2 0xAC7 PUSH2 0xBFC JUMP JUMPDEST JUMPDEST DUP3 DUP3 ADD SWAP1 POP SWAP3 SWAP2 POP POP JUMP JUMPDEST PUSH1 0x0 PUSH2 0xADE DUP3 PUSH2 0xBA6 JUMP JUMPDEST SWAP2 POP PUSH2 0xAE9 DUP4 PUSH2 0xBA6 JUMP JUMPDEST SWAP3 POP DUP3 PUSH2 0xAF9 JUMPI PUSH2 0xAF8 PUSH2 0xC2B JUMP JUMPDEST JUMPDEST DUP3 DUP3 DIV SWAP1 POP SWAP3 SWAP2 POP POP JUMP JUMPDEST PUSH1 0x0 PUSH2 0xB0F DUP3 PUSH2 0xBA6 JUMP JUMPDEST SWAP2 POP PUSH2 0xB1A DUP4 PUSH2 0xBA6 JUMP JUMPDEST SWAP3 POP DUP2 PUSH32 0xFFFFFFFFFFFFFFFFFFFFFFFFFFFFFFFFFFFFFFFFFFFFFFFFFFFFFFFFFFFFFFFF DIV DUP4 GT DUP3 ISZERO ISZERO AND ISZERO PUSH2 0xB53 JUMPI PUSH2 0xB52 PUSH2 0xBFC JUMP JUMPDEST JUMPDEST DUP3 DUP3 MUL SWAP1 POP SWAP3 SWAP2 POP POP JUMP JUMPDEST PUSH1 0x0 PUSH2 0xB69 DUP3 PUSH2 0xB86 JUMP JUMPDEST SWAP1 POP SWAP2 SWAP1 POP JUMP JUMPDEST PUSH1 0x0 DUP2 ISZERO ISZERO SWAP1 POP SWAP2 SWAP1 POP JUMP JUMPDEST PUSH1 0x0 DUP2 SWAP1 POP SWAP2 SWAP1 POP JUMP JUMPDEST PUSH1 0x0 PUSH20 0xFFFFFFFFFFFFFFFFFFFFFFFFFFFFFFFFFFFFFFFF DUP3 AND SWAP1 POP SWAP2 SWAP1 POP JUMP JUMPDEST PUSH1 0x0 DUP2 SWAP1 POP SWAP2 SWAP1 POP JUMP JUMPDEST PUSH1 0x0 PUSH10 0xFFFFFFFFFFFFFFFFFFFF DUP3 AND SWAP1 POP SWAP2 SWAP1 POP JUMP JUMPDEST PUSH1 0x0 PUSH2 0xBD1 DUP3 PUSH2 0xBD8 JUMP JUMPDEST SWAP1 POP SWAP2 SWAP1 POP JUMP JUMPDEST PUSH1 0x0 PUSH2 0xBE3 DUP3 PUSH2 0xBEA JUMP JUMPDEST SWAP1 POP SWAP2 SWAP1 POP JUMP JUMPDEST PUSH1 0x0 PUSH2 0xBF5 DUP3 PUSH2 0xB86 JUMP JUMPDEST SWAP1 POP SWAP2 SWAP1 POP JUMP JUMPDEST PUSH32 0x4E487B7100000000000000000000000000000000000000000000000000000000 PUSH1 0x0 MSTORE PUSH1 0x11 PUSH1 0x4 MSTORE PUSH1 0x24 PUSH1 0x0 REVERT JUMPDEST PUSH32 0x4E487B7100000000000000000000000000000000000000000000000000000000 PUSH1 0x0 MSTORE PUSH1 0x12 PUSH1 0x4 MSTORE PUSH1 0x24 PUSH1 0x0 REVERT JUMPDEST PUSH1 0x0 DUP1 REVERT JUMPDEST PUSH32 0x4661696C656420746F2073656E64204574686572000000000000000000000000 PUSH1 0x0 DUP3 ADD MSTORE POP JUMP JUMPDEST PUSH32 0x74617267657454696D6520686173206E6F74206265656E207265616368656420 PUSH1 0x0 DUP3 ADD MSTORE PUSH32 0x7965740000000000000000000000000000000000000000000000000000000000 PUSH1 0x20 DUP3 ADD MSTORE POP JUMP JUMPDEST PUSH32 0x596F7520646964206E6F742077696E20616E79207072697A6500000000000000 PUSH1 0x0 DUP3 ADD MSTORE POP JUMP JUMPDEST POP JUMP JUMPDEST PUSH32 0x6D73672E76616C75652068617320746F206265206D6F7265207468616E203000 PUSH1 0x0 DUP3 ADD MSTORE POP JUMP JUMPDEST PUSH32 0x596F752063616E277420706C616365206265747320616E796D6F72652C206465 PUSH1 0x0 DUP3 ADD MSTORE PUSH32 0x61646C696E652077617320726561636865642E00000000000000000000000000 PUSH1 0x20 DUP3 ADD MSTORE POP JUMP JUMPDEST PUSH2 0xD84 DUP2 PUSH2 0xB5E JUMP JUMPDEST DUP2 EQ PUSH2 0xD8F JUMPI PUSH1 0x0 DUP1 REVERT JUMPDEST POP JUMP JUMPDEST PUSH2 0xD9B DUP2 PUSH2 0xB70 JUMP JUMPDEST DUP2 EQ PUSH2 0xDA6 JUMPI PUSH1 0x0 DUP1 REVERT JUMPDEST POP JUMP JUMPDEST PUSH2 0xDB2 DUP2 PUSH2 0xB7C JUMP JUMPDEST DUP2 EQ PUSH2 0xDBD JUMPI PUSH1 0x0 DUP1 REVERT JUMPDEST POP JUMP JUMPDEST PUSH2 0xDC9 DUP2 PUSH2 0xBA6 JUMP JUMPDEST DUP2 EQ PUSH2 0xDD4 JUMPI PUSH1 0x0 DUP1 REVERT JUMPDEST POP JUMP JUMPDEST PUSH2 0xDE0 DUP2 PUSH2 0xBB0 JUMP JUMPDEST DUP2 EQ PUSH2 0xDEB JUMPI PUSH1 0x0 DUP1 REVERT JUMPDEST POP JUMP INVALID LOG2 PUSH5 0x6970667358 0x22 SLT KECCAK256 0x2D EQ DUP16 PUSH31 0xFB0C0C3C1A3172A90EDEF4C1E8F4D269D7ACAEE97623A2D4BB983DDD64736F PUSH13 0x63430008070033000000000000 "
        },
        "methodIdentifiers": {
          "claimPrize()": "70740ac9",
          "getDetails()": "fbbf93a0",
          "getLatestPrice()": "8e15f473",
          "getUserBet(address)": "c96adb01",
          "placeBet(bool)": "096a3778"
        }
      }
    }
  }
}