{
  "contracts/EtherBaseballBets.sol": {
    "EtherBaseballBets": {
      "abi": [
        {
          "inputs": [
            {
              "internalType": "address",
              "name": "_link",
              "type": "address"
            },
            {
              "internalType": "address",
              "name": "_oracle",
              "type": "address"
            },
            {
              "internalType": "uint256",
              "name": "_date",
              "type": "uint256"
            },
            {
              "internalType": "uint32",
              "name": "_gameIdSD",
              "type": "uint32"
            },
            {
              "internalType": "bytes32",
              "name": "_gameIdRD",
              "type": "bytes32"
            },
            {
              "internalType": "string",
              "name": "_homeTeam",
              "type": "string"
            },
            {
              "internalType": "string",
              "name": "_awayTeam",
              "type": "string"
            }
          ],
          "stateMutability": "nonpayable",
          "type": "constructor"
        },
        {
          "anonymous": false,
          "inputs": [
            {
              "indexed": true,
              "internalType": "bytes32",
              "name": "id",
              "type": "bytes32"
            }
          ],
          "name": "ChainlinkCancelled",
          "type": "event"
        },
        {
          "anonymous": false,
          "inputs": [
            {
              "indexed": true,
              "internalType": "bytes32",
              "name": "id",
              "type": "bytes32"
            }
          ],
          "name": "ChainlinkFulfilled",
          "type": "event"
        },
        {
          "anonymous": false,
          "inputs": [
            {
              "indexed": true,
              "internalType": "bytes32",
              "name": "id",
              "type": "bytes32"
            }
          ],
          "name": "ChainlinkRequested",
          "type": "event"
        },
        {
          "inputs": [
            {
              "internalType": "uint256",
              "name": "",
              "type": "uint256"
            }
          ],
          "name": "GamesRD",
          "outputs": [
            {
              "internalType": "bytes",
              "name": "",
              "type": "bytes"
            }
          ],
          "stateMutability": "view",
          "type": "function"
        },
        {
          "inputs": [
            {
              "internalType": "uint256",
              "name": "",
              "type": "uint256"
            }
          ],
          "name": "GamesSD",
          "outputs": [
            {
              "internalType": "bytes32",
              "name": "",
              "type": "bytes32"
            }
          ],
          "stateMutability": "view",
          "type": "function"
        },
        {
          "inputs": [],
          "name": "awayTeam",
          "outputs": [
            {
              "internalType": "string",
              "name": "",
              "type": "string"
            }
          ],
          "stateMutability": "view",
          "type": "function"
        },
        {
          "inputs": [],
          "name": "fetchedRD",
          "outputs": [
            {
              "internalType": "bool",
              "name": "",
              "type": "bool"
            }
          ],
          "stateMutability": "view",
          "type": "function"
        },
        {
          "inputs": [],
          "name": "fetchedSD",
          "outputs": [
            {
              "internalType": "bool",
              "name": "",
              "type": "bool"
            }
          ],
          "stateMutability": "view",
          "type": "function"
        },
        {
          "inputs": [
            {
              "internalType": "bytes32",
              "name": "_requestId",
              "type": "bytes32"
            },
            {
              "internalType": "bytes[]",
              "name": "_result",
              "type": "bytes[]"
            }
          ],
          "name": "fulfillGames",
          "outputs": [],
          "stateMutability": "nonpayable",
          "type": "function"
        },
        {
          "inputs": [
            {
              "internalType": "bytes32",
              "name": "_requestId",
              "type": "bytes32"
            },
            {
              "internalType": "bytes32[]",
              "name": "_result",
              "type": "bytes32[]"
            }
          ],
          "name": "fulfillSchedule",
          "outputs": [],
          "stateMutability": "nonpayable",
          "type": "function"
        },
        {
          "inputs": [],
          "name": "gameDate",
          "outputs": [
            {
              "internalType": "uint256",
              "name": "",
              "type": "uint256"
            }
          ],
          "stateMutability": "view",
          "type": "function"
        },
        {
          "inputs": [],
          "name": "gameIdRD",
          "outputs": [
            {
              "internalType": "bytes32",
              "name": "",
              "type": "bytes32"
            }
          ],
          "stateMutability": "view",
          "type": "function"
        },
        {
          "inputs": [],
          "name": "gameIdSD",
          "outputs": [
            {
              "internalType": "uint32",
              "name": "",
              "type": "uint32"
            }
          ],
          "stateMutability": "view",
          "type": "function"
        },
        {
          "inputs": [
            {
              "internalType": "uint256",
              "name": "_idx",
              "type": "uint256"
            }
          ],
          "name": "getGameResolveSD",
          "outputs": [
            {
              "components": [
                {
                  "internalType": "uint32",
                  "name": "gameId",
                  "type": "uint32"
                },
                {
                  "internalType": "uint8",
                  "name": "homeScore",
                  "type": "uint8"
                },
                {
                  "internalType": "uint8",
                  "name": "awayScore",
                  "type": "uint8"
                },
                {
                  "internalType": "bytes20",
                  "name": "status",
                  "type": "bytes20"
                }
              ],
              "internalType": "struct EtherBaseballBets.GameResolveSD",
              "name": "",
              "type": "tuple"
            }
          ],
          "stateMutability": "view",
          "type": "function"
        },
        {
          "inputs": [
            {
              "internalType": "uint256",
              "name": "_idx",
              "type": "uint256"
            }
          ],
          "name": "getGameResolvedRD",
          "outputs": [
            {
              "components": [
                {
                  "internalType": "bytes32",
                  "name": "gameId",
                  "type": "bytes32"
                },
                {
                  "internalType": "uint8",
                  "name": "homeScore",
                  "type": "uint8"
                },
                {
                  "internalType": "uint8",
                  "name": "awayScore",
                  "type": "uint8"
                },
                {
                  "internalType": "uint8",
                  "name": "statusId",
                  "type": "uint8"
                }
              ],
              "internalType": "struct EtherBaseballBets.GameResolveRD",
              "name": "",
              "type": "tuple"
            }
          ],
          "stateMutability": "view",
          "type": "function"
        },
        {
          "inputs": [],
          "name": "homeTeam",
          "outputs": [
            {
              "internalType": "string",
              "name": "",
              "type": "string"
            }
          ],
          "stateMutability": "view",
          "type": "function"
        },
        {
          "inputs": [
            {
              "internalType": "bytes32",
              "name": "_specId",
              "type": "bytes32"
            },
            {
              "internalType": "uint256",
              "name": "_payment",
              "type": "uint256"
            },
            {
              "internalType": "string",
              "name": "_market",
              "type": "string"
            },
            {
              "internalType": "uint256",
              "name": "_sportId",
              "type": "uint256"
            },
            {
              "internalType": "uint256",
              "name": "_date",
              "type": "uint256"
            },
            {
              "internalType": "string[]",
              "name": "_statusIds",
              "type": "string[]"
            },
            {
              "internalType": "string[]",
              "name": "_gameIds",
              "type": "string[]"
            }
          ],
          "name": "requestGamesResolveWithFilters",
          "outputs": [],
          "stateMutability": "nonpayable",
          "type": "function"
        },
        {
          "inputs": [],
          "name": "requestResultFromRD",
          "outputs": [],
          "stateMutability": "nonpayable",
          "type": "function"
        },
        {
          "inputs": [],
          "name": "requestResultFromSD",
          "outputs": [],
          "stateMutability": "nonpayable",
          "type": "function"
        },
        {
          "inputs": [],
          "name": "resultRD",
          "outputs": [
            {
              "internalType": "bytes32",
              "name": "gameId",
              "type": "bytes32"
            },
            {
              "internalType": "uint8",
              "name": "homeScore",
              "type": "uint8"
            },
            {
              "internalType": "uint8",
              "name": "awayScore",
              "type": "uint8"
            },
            {
              "internalType": "uint8",
              "name": "statusId",
              "type": "uint8"
            }
          ],
          "stateMutability": "view",
          "type": "function"
        },
        {
          "inputs": [],
          "name": "resultSD",
          "outputs": [
            {
              "internalType": "uint32",
              "name": "gameId",
              "type": "uint32"
            },
            {
              "internalType": "uint8",
              "name": "homeScore",
              "type": "uint8"
            },
            {
              "internalType": "uint8",
              "name": "awayScore",
              "type": "uint8"
            },
            {
              "internalType": "bytes20",
              "name": "status",
              "type": "bytes20"
            }
          ],
          "stateMutability": "view",
          "type": "function"
        },
        {
          "inputs": [
            {
              "internalType": "address",
              "name": "_oracle",
              "type": "address"
            }
          ],
          "name": "setOracle",
          "outputs": [],
          "stateMutability": "nonpayable",
          "type": "function"
        },
        {
          "inputs": [],
          "name": "total",
          "outputs": [
            {
              "internalType": "uint256",
              "name": "home",
              "type": "uint256"
            },
            {
              "internalType": "uint256",
              "name": "away",
              "type": "uint256"
            }
          ],
          "stateMutability": "view",
          "type": "function"
        },
        {
          "inputs": [],
          "name": "withdrawLink",
          "outputs": [],
          "stateMutability": "nonpayable",
          "type": "function"
        }
      ],
      "evm": {
        "bytecode": {
          "linkReferences": {},
          "object": "608060405260016004553480156200001657600080fd5b5060405162003c5838038062003c5883398181016040528101906200003c9190620002de565b6200004d87620000cc60201b60201c565b6200005e866200011060201b60201c565b8460108190555083601160006101000a81548163ffffffff021916908363ffffffff1602179055508260128190555081600c9080519060200190620000a592919062000154565b5080600d9080519060200190620000be92919062000154565b505050505050505062000613565b80600260006101000a81548173ffffffffffffffffffffffffffffffffffffffff021916908373ffffffffffffffffffffffffffffffffffffffff16021790555050565b80600360006101000a81548173ffffffffffffffffffffffffffffffffffffffff021916908373ffffffffffffffffffffffffffffffffffffffff16021790555050565b8280546200016290620004bc565b90600052602060002090601f016020900481019282620001865760008555620001d2565b82601f10620001a157805160ff1916838001178555620001d2565b82800160010185558215620001d2579182015b82811115620001d1578251825591602001919060010190620001b4565b5b509050620001e19190620001e5565b5090565b5b8082111562000200576000816000905550600101620001e6565b5090565b60006200021b6200021584620003f8565b620003cf565b9050828152602081018484840111156200023a57620002396200058b565b5b6200024784828562000486565b509392505050565b6000815190506200026081620005ab565b92915050565b6000815190506200027781620005c5565b92915050565b600082601f83011262000295576200029462000586565b5b8151620002a784826020860162000204565b91505092915050565b600081519050620002c181620005df565b92915050565b600081519050620002d881620005f9565b92915050565b600080600080600080600060e0888a0312156200030057620002ff62000595565b5b6000620003108a828b016200024f565b9750506020620003238a828b016200024f565b9650506040620003368a828b01620002b0565b9550506060620003498a828b01620002c7565b94505060806200035c8a828b0162000266565b93505060a088015167ffffffffffffffff81111562000380576200037f62000590565b5b6200038e8a828b016200027d565b92505060c088015167ffffffffffffffff811115620003b257620003b162000590565b5b620003c08a828b016200027d565b91505092959891949750929550565b6000620003db620003ee565b9050620003e98282620004f2565b919050565b6000604051905090565b600067ffffffffffffffff82111562000416576200041562000557565b5b62000421826200059a565b9050602081019050919050565b60006200043b826200044c565b9050919050565b6000819050919050565b600073ffffffffffffffffffffffffffffffffffffffff82169050919050565b6000819050919050565b600063ffffffff82169050919050565b60005b83811015620004a657808201518184015260208101905062000489565b83811115620004b6576000848401525b50505050565b60006002820490506001821680620004d557607f821691505b60208210811415620004ec57620004eb62000528565b5b50919050565b620004fd826200059a565b810181811067ffffffffffffffff821117156200051f576200051e62000557565b5b80604052505050565b7f4e487b7100000000000000000000000000000000000000000000000000000000600052602260045260246000fd5b7f4e487b7100000000000000000000000000000000000000000000000000000000600052604160045260246000fd5b600080fd5b600080fd5b600080fd5b600080fd5b6000601f19601f8301169050919050565b620005b6816200042e565b8114620005c257600080fd5b50565b620005d08162000442565b8114620005dc57600080fd5b50565b620005ea816200046c565b8114620005f657600080fd5b50565b620006048162000476565b81146200061057600080fd5b50565b61363580620006236000396000f3fe608060405234801561001057600080fd5b50600436106101375760003560e01c80637d79c192116100b85780638dc654a21161007c5780638dc654a214610308578063a02f71e314610312578063ae989d3614610342578063b57cb55b14610360578063c89197c11461037e578063c989b41f1461039f57610137565b80637d79c19214610276578063821f6b7f1461029457806389907a5d1461029e5780638b1b29e8146102ce5780638dc0ddc0146102fe57610137565b80634d22530e116100ff5780634d22530e146101d25780634eaecd68146101f05780636d1d92471461020c57806374e53ee11461022a5780637adbf9731461025a57610137565b80632ddbd13a1461013c5780632f157b9d1461015b578063397e20fc146101795780633e5bc6bd1461019557806345040746146101b6575b600080fd5b6101446103bd565b604051610152929190612c2f565b60405180910390f35b6101636103cf565b6040516101709190612a5f565b60405180910390f35b610193600480360381019061018e91906123f5565b6103e2565b005b61019d61051e565b6040516101ad9493929190612a95565b60405180910390f35b6101d060048036038101906101cb9190612451565b610563565b005b6101da61069f565b6040516101e79190612c58565b60405180910390f35b61020a600480360381019061020591906124ad565b6106b5565b005b610214610852565b6040516102219190612c14565b60405180910390f35b610244600480360381019061023f91906125d0565b610858565b6040516102519190612bf9565b60405180910390f35b610274600480360381019061026f919061239b565b61088e565b005b61027e61089a565b60405161028b9190612afc565b60405180910390f35b61029c610928565b005b6102b860048036038101906102b391906125d0565b610a93565b6040516102c59190612ada565b60405180910390f35b6102e860048036038101906102e391906125d0565b610b3f565b6040516102f59190612a7a565b60405180910390f35b610306610b63565b005b610310610d13565b005b61032c600480360381019061032791906125d0565b610e76565b6040516103399190612bde565b60405180910390f35b61034a610f45565b6040516103579190612afc565b60405180910390f35b610368610fd3565b6040516103759190612a7a565b60405180910390f35b610386610fd9565b6040516103969493929190612c73565b60405180910390f35b6103a761102e565b6040516103b49190612a5f565b60405180910390f35b60068060000154908060010154905082565b600b60019054906101000a900460ff1681565b816005600082815260200190815260200160002060009054906101000a900473ffffffffffffffffffffffffffffffffffffffff1673ffffffffffffffffffffffffffffffffffffffff163373ffffffffffffffffffffffffffffffffffffffff1614610484576040517f08c379a000000000000000000000000000000000000000000000000000000000815260040161047b90612bbe565b60405180910390fd5b6005600082815260200190815260200160002060006101000a81549073ffffffffffffffffffffffffffffffffffffffff0219169055807f7cc135e0cebb02c3480ae5d74d377283180a2601f8f644edf7987b009316c63a60405160405180910390a281600e90805190602001906104fd929190611ccb565b506001600b60006101000a81548160ff021916908315150217905550505050565b60098060000154908060010160009054906101000a900460ff16908060010160019054906101000a900460ff16908060010160029054906101000a900460ff16905084565b816005600082815260200190815260200160002060009054906101000a900473ffffffffffffffffffffffffffffffffffffffff1673ffffffffffffffffffffffffffffffffffffffff163373ffffffffffffffffffffffffffffffffffffffff1614610605576040517f08c379a00000000000000000000000000000000000000000000000000000000081526004016105fc90612bbe565b60405180910390fd5b6005600082815260200190815260200160002060006101000a81549073ffffffffffffffffffffffffffffffffffffffff0219169055807f7cc135e0cebb02c3480ae5d74d377283180a2601f8f644edf7987b009316c63a60405160405180910390a281600f908051906020019061067e929190611d18565b506001600b60016101000a81548160ff021916908315150217905550505050565b601160009054906101000a900463ffffffff1681565b60006106c98830634504074660e01b611041565b90506107156040518060400160405280600481526020017f646174650000000000000000000000000000000000000000000000000000000081525085836110729092919063ffffffff16565b61075f6040518060400160405280600681526020017f6d61726b6574000000000000000000000000000000000000000000000000000081525087836110a59092919063ffffffff16565b6107a96040518060400160405280600781526020017f73706f727449640000000000000000000000000000000000000000000000000081525086836110729092919063ffffffff16565b6107f36040518060400160405280600981526020017f737461747573496473000000000000000000000000000000000000000000000081525084836110d89092919063ffffffff16565b61083d6040518060400160405280600781526020017f67616d654964730000000000000000000000000000000000000000000000000081525083836110d89092919063ffffffff16565b610847818861115f565b505050505050505050565b60105481565b610860611d78565b610887600e838154811061087757610876613331565b5b9060005260206000200154611196565b9050919050565b610897816111fc565b50565b600d80546108a79061318f565b80601f01602080910402602001604051908101604052809291908181526020018280546108d39061318f565b80156109205780601f106108f557610100808354040283529160200191610920565b820191906000526020600020905b81548152906001019060200180831161090357829003601f168201915b505050505081565b60001515600b60009054906101000a900460ff1615151461097e576040517f08c379a000000000000000000000000000000000000000000000000000000000815260040161097590612b5e565b60405180910390fd5b618ca060105461098e9190612dfb565b42116109cf576040517f08c379a00000000000000000000000000000000000000000000000000000000081526004016109c690612b3e565b60405180910390fd5b6000600167ffffffffffffffff8111156109ec576109eb613360565b5b604051908082528060200260200182016040528015610a1a5781602001602082028036833780820191505090505b509050601160009054906101000a900463ffffffff1663ffffffff1681600081518110610a4a57610a49613331565b5b602002602001018181525050610a907f626164653336303163356666343936353836643633366333393935663036666567016345785d8a00006001600060105486611240565b50565b600f8181548110610aa357600080fd5b906000526020600020016000915090508054610abe9061318f565b80601f0160208091040260200160405190810160405280929190818152602001828054610aea9061318f565b8015610b375780601f10610b0c57610100808354040283529160200191610b37565b820191906000526020600020905b815481529060010190602001808311610b1a57829003601f168201915b505050505081565b600e8181548110610b4f57600080fd5b906000526020600020016000915090505481565b60001515600b60019054906101000a900460ff16151514610bb9576040517f08c379a0000000000000000000000000000000000000000000000000000000008152600401610bb090612b1e565b60405180910390fd5b618ca0601054610bc99190612dfb565b4211610c0a576040517f08c379a0000000000000000000000000000000000000000000000000000000008152600401610c0190612b3e565b60405180910390fd5b60606000600167ffffffffffffffff811115610c2957610c28613360565b5b604051908082528060200260200182016040528015610c5c57816020015b6060815260200190600190039081610c475790505b509050601254604051602001610c729190612911565b60405160208183030381529060405281600081518110610c9557610c94613331565b5b6020026020010181905250610d0f7f396465313733353164666135343339643833663563326633373037666661396567016345785d8a00006040518060400160405280600681526020017f6372656174650000000000000000000000000000000000000000000000000000815250600360105487876106b5565b5050565b6000610d1d611388565b90508073ffffffffffffffffffffffffffffffffffffffff1663a9059cbb338373ffffffffffffffffffffffffffffffffffffffff166370a08231306040518263ffffffff1660e01b8152600401610d759190612958565b60206040518083038186803b158015610d8d57600080fd5b505afa158015610da1573d6000803e3d6000fd5b505050506040513d601f19601f82011682018060405250810190610dc591906125fd565b6040518363ffffffff1660e01b8152600401610de2929190612973565b602060405180830381600087803b158015610dfc57600080fd5b505af1158015610e10573d6000803e3d6000fd5b505050506040513d601f19601f82011682018060405250810190610e3491906123c8565b610e73576040517f08c379a0000000000000000000000000000000000000000000000000000000008152600401610e6a90612b9e565b60405180910390fd5b50565b610e7e611dbb565b6000600f8381548110610e9457610e93613331565b5b906000526020600020018054610ea99061318f565b80601f0160208091040260200160405190810160405280929190818152602001828054610ed59061318f565b8015610f225780601f10610ef757610100808354040283529160200191610f22565b820191906000526020600020905b815481529060010190602001808311610f0557829003601f168201915b5050505050806020019051810190610f3a91906125a3565b905080915050919050565b600c8054610f529061318f565b80601f0160208091040260200160405190810160405280929190818152602001828054610f7e9061318f565b8015610fcb5780601f10610fa057610100808354040283529160200191610fcb565b820191906000526020600020905b815481529060010190602001808311610fae57829003601f168201915b505050505081565b60125481565b60088060000160009054906101000a900463ffffffff16908060000160049054906101000a900460ff16908060000160059054906101000a900460ff16908060000160069054906101000a900460601b905084565b600b60009054906101000a900460ff1681565b611049611def565b611051611def565b611068858585846113b2909392919063ffffffff16565b9150509392505050565b61108982846080015161146290919063ffffffff16565b6110a081846080015161148790919063ffffffff16565b505050565b6110bc82846080015161146290919063ffffffff16565b6110d381846080015161146290919063ffffffff16565b505050565b6110ef82846080015161146290919063ffffffff16565b6110fc83608001516114b7565b60005b815181101561114c5761113982828151811061111e5761111d613331565b5b6020026020010151856080015161146290919063ffffffff16565b8080611144906131f2565b9150506110ff565b5061115a83608001516114c5565b505050565b600061118e600360009054906101000a900473ffffffffffffffffffffffffffffffffffffffff1684846114d3565b905092915050565b61119e611d78565b600060405180608001604052808460e01c63ffffffff168152602001602085901b60f81c60ff168152602001602885901b60f81c60ff168152602001603085901b6bffffffffffffffffffffffff1916815250905080915050919050565b80600360006101000a81548173ffffffffffffffffffffffffffffffffffffffff021916908373ffffffffffffffffffffffffffffffffffffffff16021790555050565b6000611254873063397e20fc60e01b611041565b90506112a06040518060400160405280600681526020017f6d61726b6574000000000000000000000000000000000000000000000000000081525086836110729092919063ffffffff16565b6112ea6040518060400160405280600881526020017f6c6561677565496400000000000000000000000000000000000000000000000081525085836110729092919063ffffffff16565b6113346040518060400160405280600481526020017f646174650000000000000000000000000000000000000000000000000000000081525084836110729092919063ffffffff16565b611374816040518060400160405280600781526020017f67616d65496473000000000000000000000000000000000000000000000000008152508461159f565b61137e818761115f565b5050505050505050565b6000600260009054906101000a900473ffffffffffffffffffffffffffffffffffffffff16905090565b6113ba611def565b6113ca856080015161010061162d565b508385600001818152505082856020019073ffffffffffffffffffffffffffffffffffffffff16908173ffffffffffffffffffffffffffffffffffffffff16815250508185604001907bffffffffffffffffffffffffffffffffffffffffffffffffffffffff191690817bffffffffffffffffffffffffffffffffffffffffffffffffffffffff191681525050849050949350505050565b61146f8260038351611697565b611482818361181c90919063ffffffff16565b505050565b67ffffffffffffffff8111156114a6576114a1828261183e565b6114b3565b6114b282600083611697565b5b5050565b6114c281600461188a565b50565b6114d081600761188a565b50565b60008060045490506001816114e89190612dfb565b6004819055506000634042994660e01b60008087600001513089604001518760018c608001516000015160405160240161152998979695949392919061299c565b604051602081830303815290604052907bffffffffffffffffffffffffffffffffffffffffffffffffffffffff19166020820180517bffffffffffffffffffffffffffffffffffffffffffffffffffffffff83818316178352505050509050611594868386846118ac565b925050509392505050565b60008390506115bb83826080015161146290919063ffffffff16565b6115c881608001516114b7565b60008251905060005b818110156116155761160a8482815181106115ef576115ee613331565b5b6020026020010151846080015161148790919063ffffffff16565b8060010190506115d1565b5061162382608001516114c5565b8194505050505050565b611635611e5c565b60006020836116449190613273565b14611670576020826116569190613273565b6020611662919061301c565b8261166d9190612dfb565b91505b81836020018181525050604051808452600081528281016020016040525082905092915050565b60178167ffffffffffffffff16116116ce576116c88160058460ff16901b60ff161784611a5090919063ffffffff16565b50611817565b60ff8167ffffffffffffffff1611611724576116fd601860058460ff16901b1784611a5090919063ffffffff16565b5061171e8167ffffffffffffffff16600185611a709092919063ffffffff16565b50611816565b61ffff8167ffffffffffffffff161161177b57611754601960058460ff16901b1784611a5090919063ffffffff16565b506117758167ffffffffffffffff16600285611a709092919063ffffffff16565b50611815565b63ffffffff8167ffffffffffffffff16116117d4576117ad601a60058460ff16901b1784611a5090919063ffffffff16565b506117ce8167ffffffffffffffff16600485611a709092919063ffffffff16565b50611814565b6117f1601b60058460ff16901b1784611a5090919063ffffffff16565b506118128167ffffffffffffffff16600885611a709092919063ffffffff16565b505b5b5b5b505050565b611824611e5c565b61183683846000015151848551611a92565b905092915050565b61185c60026005600660ff16901b1783611a5090919063ffffffff16565b5061188682826040516020016118729190612c14565b604051602081830303815290604052611b81565b5050565b6118a7601f60058360ff16901b1783611a5090919063ffffffff16565b505050565b600030846040516020016118c192919061292c565b604051602081830303815290604052805190602001209050846005600083815260200190815260200160002060006101000a81548173ffffffffffffffffffffffffffffffffffffffff021916908373ffffffffffffffffffffffffffffffffffffffff160217905550807fb5e6e01e79f91267dc17b4e6314d5d4d03593d2ceee0fbb452b750bd70ea5af960405160405180910390a2600260009054906101000a900473ffffffffffffffffffffffffffffffffffffffff1673ffffffffffffffffffffffffffffffffffffffff16634000aea08685856040518463ffffffff1660e01b81526004016119b793929190612a21565b602060405180830381600087803b1580156119d157600080fd5b505af11580156119e5573d6000803e3d6000fd5b505050506040513d601f19601f82011682018060405250810190611a0991906123c8565b611a48576040517f08c379a0000000000000000000000000000000000000000000000000000000008152600401611a3f90612b7e565b60405180910390fd5b949350505050565b611a58611e5c565b611a688384600001515184611ba6565b905092915050565b611a78611e5c565b611a89848560000151518585611bfd565b90509392505050565b611a9a611e5c565b8251821115611aa857600080fd5b84602001518285611ab99190612dfb565b1115611aee57611aed856002611ade88602001518887611ad99190612dfb565b611c8b565b611ae89190612fc2565b611ca7565b5b600080865180518760208301019350808887011115611b0d5787860182525b60208701925050505b60208410611b545780518252602082611b2f9190612dfb565b9150602081611b3e9190612dfb565b9050602084611b4d919061301c565b9350611b16565b60006001856020036101000a03905080198251168184511681811785525050508692505050949350505050565b611b8e8260028351611697565b611ba1818361181c90919063ffffffff16565b505050565b611bae611e5c565b83602001518310611bd457611bd38460028660200151611bce9190612fc2565b611ca7565b5b8351805160208583010184815381861415611bf0576001820183525b5050508390509392505050565b611c05611e5c565b84602001518483611c169190612dfb565b1115611c3e57611c3d8560028685611c2e9190612dfb565b611c389190612fc2565b611ca7565b5b6000600183610100611c509190612ea4565b611c5a919061301c565b90508551838682010185831982511617815281518588011115611c7d5784870182525b505085915050949350505050565b600081831115611c9d57829050611ca1565b8190505b92915050565b600082600001519050611cba838361162d565b50611cc5838261181c565b50505050565b828054828255906000526020600020908101928215611d07579160200282015b82811115611d06578251825591602001919060010190611ceb565b5b509050611d149190611e76565b5090565b828054828255906000526020600020908101928215611d67579160200282015b82811115611d66578251829080519060200190611d56929190611e93565b5091602001919060010190611d38565b5b509050611d749190611f19565b5090565b6040518060800160405280600063ffffffff168152602001600060ff168152602001600060ff16815260200160006bffffffffffffffffffffffff191681525090565b604051806080016040528060008019168152602001600060ff168152602001600060ff168152602001600060ff1681525090565b6040518060a0016040528060008019168152602001600073ffffffffffffffffffffffffffffffffffffffff16815260200160007bffffffffffffffffffffffffffffffffffffffffffffffffffffffff1916815260200160008152602001611e56611e5c565b81525090565b604051806040016040528060608152602001600081525090565b5b80821115611e8f576000816000905550600101611e77565b5090565b828054611e9f9061318f565b90600052602060002090601f016020900481019282611ec15760008555611f08565b82601f10611eda57805160ff1916838001178555611f08565b82800160010185558215611f08579182015b82811115611f07578251825591602001919060010190611eec565b5b509050611f159190611f3d565b5090565b5b80821115611f395760008181611f309190611f5a565b50600101611f1a565b5090565b5b80821115611f56576000816000905550600101611f3e565b5090565b508054611f669061318f565b6000825580601f10611f785750611f97565b601f016020900490600052602060002090810190611f969190611f3d565b5b50565b6000611fad611fa884612cdd565b612cb8565b90508083825260208201905082856020860282011115611fd057611fcf613399565b5b60005b858110156120005781611fe6888261225e565b845260208401935060208301925050600181019050611fd3565b5050509392505050565b600061201d61201884612d09565b612cb8565b905080838252602082019050828560208602820111156120405761203f613399565b5b60005b8581101561208e57813567ffffffffffffffff8111156120665761206561338f565b5b8086016120738982612288565b85526020850194506020840193505050600181019050612043565b5050509392505050565b60006120ab6120a684612d35565b612cb8565b905080838252602082019050828560208602820111156120ce576120cd613399565b5b60005b8581101561211c57813567ffffffffffffffff8111156120f4576120f361338f565b5b80860161210189826122b6565b855260208501945060208401935050506001810190506120d1565b5050509392505050565b600061213961213484612d61565b612cb8565b9050828152602081018484840111156121555761215461339e565b5b61216084828561314d565b509392505050565b600061217b61217684612d92565b612cb8565b9050828152602081018484840111156121975761219661339e565b5b6121a284828561314d565b509392505050565b6000813590506121b98161358c565b92915050565b600082601f8301126121d4576121d361338f565b5b81356121e4848260208601611f9a565b91505092915050565b600082601f8301126122025761220161338f565b5b813561221284826020860161200a565b91505092915050565b600082601f8301126122305761222f61338f565b5b8135612240848260208601612098565b91505092915050565b600081519050612258816135a3565b92915050565b60008135905061226d816135ba565b92915050565b600081519050612282816135ba565b92915050565b600082601f83011261229d5761229c61338f565b5b81356122ad848260208601612126565b91505092915050565b600082601f8301126122cb576122ca61338f565b5b81356122db848260208601612168565b91505092915050565b6000608082840312156122fa576122f9613394565b5b6123046080612cb8565b9050600061231484828501612273565b600083015250602061232884828501612386565b602083015250604061233c84828501612386565b604083015250606061235084828501612386565b60608301525092915050565b60008135905061236b816135d1565b92915050565b600081519050612380816135d1565b92915050565b600081519050612395816135e8565b92915050565b6000602082840312156123b1576123b06133a8565b5b60006123bf848285016121aa565b91505092915050565b6000602082840312156123de576123dd6133a8565b5b60006123ec84828501612249565b91505092915050565b6000806040838503121561240c5761240b6133a8565b5b600061241a8582860161225e565b925050602083013567ffffffffffffffff81111561243b5761243a6133a3565b5b612447858286016121bf565b9150509250929050565b60008060408385031215612468576124676133a8565b5b60006124768582860161225e565b925050602083013567ffffffffffffffff811115612497576124966133a3565b5b6124a3858286016121ed565b9150509250929050565b600080600080600080600060e0888a0312156124cc576124cb6133a8565b5b60006124da8a828b0161225e565b97505060206124eb8a828b0161235c565b965050604088013567ffffffffffffffff81111561250c5761250b6133a3565b5b6125188a828b016122b6565b95505060606125298a828b0161235c565b945050608061253a8a828b0161235c565b93505060a088013567ffffffffffffffff81111561255b5761255a6133a3565b5b6125678a828b0161221b565b92505060c088013567ffffffffffffffff811115612588576125876133a3565b5b6125948a828b0161221b565b91505092959891949750929550565b6000608082840312156125b9576125b86133a8565b5b60006125c7848285016122e4565b91505092915050565b6000602082840312156125e6576125e56133a8565b5b60006125f48482850161235c565b91505092915050565b600060208284031215612613576126126133a8565b5b600061262184828501612371565b91505092915050565b61263381613050565b82525050565b61264281613062565b82525050565b6126518161306e565b82525050565b6126608161306e565b82525050565b61266f8161309a565b82525050565b61267e8161309a565b82525050565b6126956126908261309a565b61324d565b82525050565b6126a4816130a4565b82525050565b60006126b582612dc3565b6126bf8185612dd9565b93506126cf81856020860161315c565b6126d8816133ad565b840191505092915050565b6126f46126ef82613117565b61323b565b82525050565b600061270582612dce565b61270f8185612dea565b935061271f81856020860161315c565b612728816133ad565b840191505092915050565b6000612740602383612dea565b915061274b826133d8565b604082019050919050565b6000612763602f83612dea565b915061276e82613427565b604082019050919050565b6000612786602383612dea565b915061279182613476565b604082019050919050565b60006127a9602383612dea565b91506127b4826134c5565b604082019050919050565b60006127cc601283612dea565b91506127d782613514565b602082019050919050565b60006127ef602883612dea565b91506127fa8261353d565b604082019050919050565b60808201600082015161281b6000850182612666565b50602082015161282e60208501826128f3565b50604082015161284160408501826128f3565b50606082015161285460608501826128f3565b50505050565b60808201600082015161287060008501826128d5565b50602082015161288360208501826128f3565b50604082015161289660408501826128f3565b5060608201516128a96060850182612648565b50505050565b6128b8816130f0565b82525050565b6128cf6128ca826130f0565b613269565b82525050565b6128de816130fa565b82525050565b6128ed816130fa565b82525050565b6128fc8161310a565b82525050565b61290b8161310a565b82525050565b600061291d8284612684565b60208201915081905092915050565b600061293882856126e3565b60148201915061294882846128be565b6020820191508190509392505050565b600060208201905061296d600083018461262a565b92915050565b6000604082019050612988600083018561262a565b61299560208301846128af565b9392505050565b6000610100820190506129b2600083018b61262a565b6129bf602083018a6128af565b6129cc6040830189612675565b6129d9606083018861262a565b6129e6608083018761269b565b6129f360a08301866128af565b612a0060c08301856128af565b81810360e0830152612a1281846126aa565b90509998505050505050505050565b6000606082019050612a36600083018661262a565b612a4360208301856128af565b8181036040830152612a5581846126aa565b9050949350505050565b6000602082019050612a746000830184612639565b92915050565b6000602082019050612a8f6000830184612675565b92915050565b6000608082019050612aaa6000830187612675565b612ab76020830186612902565b612ac46040830185612902565b612ad16060830184612902565b95945050505050565b60006020820190508181036000830152612af481846126aa565b905092915050565b60006020820190508181036000830152612b1681846126fa565b905092915050565b60006020820190508181036000830152612b3781612733565b9050919050565b60006020820190508181036000830152612b5781612756565b9050919050565b60006020820190508181036000830152612b7781612779565b9050919050565b60006020820190508181036000830152612b978161279c565b9050919050565b60006020820190508181036000830152612bb7816127bf565b9050919050565b60006020820190508181036000830152612bd7816127e2565b9050919050565b6000608082019050612bf36000830184612805565b92915050565b6000608082019050612c0e600083018461285a565b92915050565b6000602082019050612c2960008301846128af565b92915050565b6000604082019050612c4460008301856128af565b612c5160208301846128af565b9392505050565b6000602082019050612c6d60008301846128e4565b92915050565b6000608082019050612c8860008301876128e4565b612c956020830186612902565b612ca26040830185612902565b612caf6060830184612657565b95945050505050565b6000612cc2612cd3565b9050612cce82826131c1565b919050565b6000604051905090565b600067ffffffffffffffff821115612cf857612cf7613360565b5b602082029050602081019050919050565b600067ffffffffffffffff821115612d2457612d23613360565b5b602082029050602081019050919050565b600067ffffffffffffffff821115612d5057612d4f613360565b5b602082029050602081019050919050565b600067ffffffffffffffff821115612d7c57612d7b613360565b5b612d85826133ad565b9050602081019050919050565b600067ffffffffffffffff821115612dad57612dac613360565b5b612db6826133ad565b9050602081019050919050565b600081519050919050565b600081519050919050565b600082825260208201905092915050565b600082825260208201905092915050565b6000612e06826130f0565b9150612e11836130f0565b9250827fffffffffffffffffffffffffffffffffffffffffffffffffffffffffffffffff03821115612e4657612e456132a4565b5b828201905092915050565b6000808291508390505b6001851115612e9b57808604811115612e7757612e766132a4565b5b6001851615612e865780820291505b8081029050612e94856133cb565b9450612e5b565b94509492505050565b6000612eaf826130f0565b9150612eba836130f0565b9250612ee77fffffffffffffffffffffffffffffffffffffffffffffffffffffffffffffffff8484612eef565b905092915050565b600082612eff5760019050612fbb565b81612f0d5760009050612fbb565b8160018114612f235760028114612f2d57612f5c565b6001915050612fbb565b60ff841115612f3f57612f3e6132a4565b5b8360020a915084821115612f5657612f556132a4565b5b50612fbb565b5060208310610133831016604e8410600b8410161715612f915782820a905083811115612f8c57612f8b6132a4565b5b612fbb565b612f9e8484846001612e51565b92509050818404811115612fb557612fb46132a4565b5b81810290505b9392505050565b6000612fcd826130f0565b9150612fd8836130f0565b9250817fffffffffffffffffffffffffffffffffffffffffffffffffffffffffffffffff0483118215151615613011576130106132a4565b5b828202905092915050565b6000613027826130f0565b9150613032836130f0565b925082821015613045576130446132a4565b5b828203905092915050565b600061305b826130d0565b9050919050565b60008115159050919050565b60007fffffffffffffffffffffffffffffffffffffffff00000000000000000000000082169050919050565b6000819050919050565b60007fffffffff0000000000000000000000000000000000000000000000000000000082169050919050565b600073ffffffffffffffffffffffffffffffffffffffff82169050919050565b6000819050919050565b600063ffffffff82169050919050565b600060ff82169050919050565b600061312282613129565b9050919050565b60006131348261313b565b9050919050565b6000613146826130d0565b9050919050565b82818337600083830152505050565b60005b8381101561317a57808201518184015260208101905061315f565b83811115613189576000848401525b50505050565b600060028204905060018216806131a757607f821691505b602082108114156131bb576131ba613302565b5b50919050565b6131ca826133ad565b810181811067ffffffffffffffff821117156131e9576131e8613360565b5b80604052505050565b60006131fd826130f0565b91507fffffffffffffffffffffffffffffffffffffffffffffffffffffffffffffffff8214156132305761322f6132a4565b5b600182019050919050565b600061324682613257565b9050919050565b6000819050919050565b6000613262826133be565b9050919050565b6000819050919050565b600061327e826130f0565b9150613289836130f0565b925082613299576132986132d3565b5b828206905092915050565b7f4e487b7100000000000000000000000000000000000000000000000000000000600052601160045260246000fd5b7f4e487b7100000000000000000000000000000000000000000000000000000000600052601260045260246000fd5b7f4e487b7100000000000000000000000000000000000000000000000000000000600052602260045260246000fd5b7f4e487b7100000000000000000000000000000000000000000000000000000000600052603260045260246000fd5b7f4e487b7100000000000000000000000000000000000000000000000000000000600052604160045260246000fd5b600080fd5b600080fd5b600080fd5b600080fd5b600080fd5b600080fd5b6000601f19601f8301169050919050565b60008160601b9050919050565b60008160011c9050919050565b7f524420726573756c742068617320616c7265616479206265656e20666574636860008201527f65642e0000000000000000000000000000000000000000000000000000000000602082015250565b7f5761697420756e74696c20313068206166746572207468652067616d6520746f60008201527f20666574636820726573756c74732e0000000000000000000000000000000000602082015250565b7f534420726573756c742068617320616c7265616479206265656e20666574636860008201527f65642e0000000000000000000000000000000000000000000000000000000000602082015250565b7f756e61626c6520746f207472616e73666572416e6443616c6c20746f206f726160008201527f636c650000000000000000000000000000000000000000000000000000000000602082015250565b7f556e61626c6520746f207472616e736665720000000000000000000000000000600082015250565b7f536f75726365206d75737420626520746865206f7261636c65206f662074686560008201527f2072657175657374000000000000000000000000000000000000000000000000602082015250565b61359581613050565b81146135a057600080fd5b50565b6135ac81613062565b81146135b757600080fd5b50565b6135c38161309a565b81146135ce57600080fd5b50565b6135da816130f0565b81146135e557600080fd5b50565b6135f18161310a565b81146135fc57600080fd5b5056fea264697066735822122046309e2fb1a746cf926695bd05536122cdf6cd79ae87e941add93284d28430c164736f6c63430008070033",
          "opcodes": "PUSH1 0x80 PUSH1 0x40 MSTORE PUSH1 0x1 PUSH1 0x4 SSTORE CALLVALUE DUP1 ISZERO PUSH3 0x16 JUMPI PUSH1 0x0 DUP1 REVERT JUMPDEST POP PUSH1 0x40 MLOAD PUSH3 0x3C58 CODESIZE SUB DUP1 PUSH3 0x3C58 DUP4 CODECOPY DUP2 DUP2 ADD PUSH1 0x40 MSTORE DUP2 ADD SWAP1 PUSH3 0x3C SWAP2 SWAP1 PUSH3 0x2DE JUMP JUMPDEST PUSH3 0x4D DUP8 PUSH3 0xCC PUSH1 0x20 SHL PUSH1 0x20 SHR JUMP JUMPDEST PUSH3 0x5E DUP7 PUSH3 0x110 PUSH1 0x20 SHL PUSH1 0x20 SHR JUMP JUMPDEST DUP5 PUSH1 0x10 DUP2 SWAP1 SSTORE POP DUP4 PUSH1 0x11 PUSH1 0x0 PUSH2 0x100 EXP DUP2 SLOAD DUP2 PUSH4 0xFFFFFFFF MUL NOT AND SWAP1 DUP4 PUSH4 0xFFFFFFFF AND MUL OR SWAP1 SSTORE POP DUP3 PUSH1 0x12 DUP2 SWAP1 SSTORE POP DUP2 PUSH1 0xC SWAP1 DUP1 MLOAD SWAP1 PUSH1 0x20 ADD SWAP1 PUSH3 0xA5 SWAP3 SWAP2 SWAP1 PUSH3 0x154 JUMP JUMPDEST POP DUP1 PUSH1 0xD SWAP1 DUP1 MLOAD SWAP1 PUSH1 0x20 ADD SWAP1 PUSH3 0xBE SWAP3 SWAP2 SWAP1 PUSH3 0x154 JUMP JUMPDEST POP POP POP POP POP POP POP POP PUSH3 0x613 JUMP JUMPDEST DUP1 PUSH1 0x2 PUSH1 0x0 PUSH2 0x100 EXP DUP2 SLOAD DUP2 PUSH20 0xFFFFFFFFFFFFFFFFFFFFFFFFFFFFFFFFFFFFFFFF MUL NOT AND SWAP1 DUP4 PUSH20 0xFFFFFFFFFFFFFFFFFFFFFFFFFFFFFFFFFFFFFFFF AND MUL OR SWAP1 SSTORE POP POP JUMP JUMPDEST DUP1 PUSH1 0x3 PUSH1 0x0 PUSH2 0x100 EXP DUP2 SLOAD DUP2 PUSH20 0xFFFFFFFFFFFFFFFFFFFFFFFFFFFFFFFFFFFFFFFF MUL NOT AND SWAP1 DUP4 PUSH20 0xFFFFFFFFFFFFFFFFFFFFFFFFFFFFFFFFFFFFFFFF AND MUL OR SWAP1 SSTORE POP POP JUMP JUMPDEST DUP3 DUP1 SLOAD PUSH3 0x162 SWAP1 PUSH3 0x4BC JUMP JUMPDEST SWAP1 PUSH1 0x0 MSTORE PUSH1 0x20 PUSH1 0x0 KECCAK256 SWAP1 PUSH1 0x1F ADD PUSH1 0x20 SWAP1 DIV DUP2 ADD SWAP3 DUP3 PUSH3 0x186 JUMPI PUSH1 0x0 DUP6 SSTORE PUSH3 0x1D2 JUMP JUMPDEST DUP3 PUSH1 0x1F LT PUSH3 0x1A1 JUMPI DUP1 MLOAD PUSH1 0xFF NOT AND DUP4 DUP1 ADD OR DUP6 SSTORE PUSH3 0x1D2 JUMP JUMPDEST DUP3 DUP1 ADD PUSH1 0x1 ADD DUP6 SSTORE DUP3 ISZERO PUSH3 0x1D2 JUMPI SWAP2 DUP3 ADD JUMPDEST DUP3 DUP2 GT ISZERO PUSH3 0x1D1 JUMPI DUP3 MLOAD DUP3 SSTORE SWAP2 PUSH1 0x20 ADD SWAP2 SWAP1 PUSH1 0x1 ADD SWAP1 PUSH3 0x1B4 JUMP JUMPDEST JUMPDEST POP SWAP1 POP PUSH3 0x1E1 SWAP2 SWAP1 PUSH3 0x1E5 JUMP JUMPDEST POP SWAP1 JUMP JUMPDEST JUMPDEST DUP1 DUP3 GT ISZERO PUSH3 0x200 JUMPI PUSH1 0x0 DUP2 PUSH1 0x0 SWAP1 SSTORE POP PUSH1 0x1 ADD PUSH3 0x1E6 JUMP JUMPDEST POP SWAP1 JUMP JUMPDEST PUSH1 0x0 PUSH3 0x21B PUSH3 0x215 DUP5 PUSH3 0x3F8 JUMP JUMPDEST PUSH3 0x3CF JUMP JUMPDEST SWAP1 POP DUP3 DUP2 MSTORE PUSH1 0x20 DUP2 ADD DUP5 DUP5 DUP5 ADD GT ISZERO PUSH3 0x23A JUMPI PUSH3 0x239 PUSH3 0x58B JUMP JUMPDEST JUMPDEST PUSH3 0x247 DUP5 DUP3 DUP6 PUSH3 0x486 JUMP JUMPDEST POP SWAP4 SWAP3 POP POP POP JUMP JUMPDEST PUSH1 0x0 DUP2 MLOAD SWAP1 POP PUSH3 0x260 DUP2 PUSH3 0x5AB JUMP JUMPDEST SWAP3 SWAP2 POP POP JUMP JUMPDEST PUSH1 0x0 DUP2 MLOAD SWAP1 POP PUSH3 0x277 DUP2 PUSH3 0x5C5 JUMP JUMPDEST SWAP3 SWAP2 POP POP JUMP JUMPDEST PUSH1 0x0 DUP3 PUSH1 0x1F DUP4 ADD SLT PUSH3 0x295 JUMPI PUSH3 0x294 PUSH3 0x586 JUMP JUMPDEST JUMPDEST DUP2 MLOAD PUSH3 0x2A7 DUP5 DUP3 PUSH1 0x20 DUP7 ADD PUSH3 0x204 JUMP JUMPDEST SWAP2 POP POP SWAP3 SWAP2 POP POP JUMP JUMPDEST PUSH1 0x0 DUP2 MLOAD SWAP1 POP PUSH3 0x2C1 DUP2 PUSH3 0x5DF JUMP JUMPDEST SWAP3 SWAP2 POP POP JUMP JUMPDEST PUSH1 0x0 DUP2 MLOAD SWAP1 POP PUSH3 0x2D8 DUP2 PUSH3 0x5F9 JUMP JUMPDEST SWAP3 SWAP2 POP POP JUMP JUMPDEST PUSH1 0x0 DUP1 PUSH1 0x0 DUP1 PUSH1 0x0 DUP1 PUSH1 0x0 PUSH1 0xE0 DUP9 DUP11 SUB SLT ISZERO PUSH3 0x300 JUMPI PUSH3 0x2FF PUSH3 0x595 JUMP JUMPDEST JUMPDEST PUSH1 0x0 PUSH3 0x310 DUP11 DUP3 DUP12 ADD PUSH3 0x24F JUMP JUMPDEST SWAP8 POP POP PUSH1 0x20 PUSH3 0x323 DUP11 DUP3 DUP12 ADD PUSH3 0x24F JUMP JUMPDEST SWAP7 POP POP PUSH1 0x40 PUSH3 0x336 DUP11 DUP3 DUP12 ADD PUSH3 0x2B0 JUMP JUMPDEST SWAP6 POP POP PUSH1 0x60 PUSH3 0x349 DUP11 DUP3 DUP12 ADD PUSH3 0x2C7 JUMP JUMPDEST SWAP5 POP POP PUSH1 0x80 PUSH3 0x35C DUP11 DUP3 DUP12 ADD PUSH3 0x266 JUMP JUMPDEST SWAP4 POP POP PUSH1 0xA0 DUP9 ADD MLOAD PUSH8 0xFFFFFFFFFFFFFFFF DUP2 GT ISZERO PUSH3 0x380 JUMPI PUSH3 0x37F PUSH3 0x590 JUMP JUMPDEST JUMPDEST PUSH3 0x38E DUP11 DUP3 DUP12 ADD PUSH3 0x27D JUMP JUMPDEST SWAP3 POP POP PUSH1 0xC0 DUP9 ADD MLOAD PUSH8 0xFFFFFFFFFFFFFFFF DUP2 GT ISZERO PUSH3 0x3B2 JUMPI PUSH3 0x3B1 PUSH3 0x590 JUMP JUMPDEST JUMPDEST PUSH3 0x3C0 DUP11 DUP3 DUP12 ADD PUSH3 0x27D JUMP JUMPDEST SWAP2 POP POP SWAP3 SWAP6 SWAP9 SWAP2 SWAP5 SWAP8 POP SWAP3 SWAP6 POP JUMP JUMPDEST PUSH1 0x0 PUSH3 0x3DB PUSH3 0x3EE JUMP JUMPDEST SWAP1 POP PUSH3 0x3E9 DUP3 DUP3 PUSH3 0x4F2 JUMP JUMPDEST SWAP2 SWAP1 POP JUMP JUMPDEST PUSH1 0x0 PUSH1 0x40 MLOAD SWAP1 POP SWAP1 JUMP JUMPDEST PUSH1 0x0 PUSH8 0xFFFFFFFFFFFFFFFF DUP3 GT ISZERO PUSH3 0x416 JUMPI PUSH3 0x415 PUSH3 0x557 JUMP JUMPDEST JUMPDEST PUSH3 0x421 DUP3 PUSH3 0x59A JUMP JUMPDEST SWAP1 POP PUSH1 0x20 DUP2 ADD SWAP1 POP SWAP2 SWAP1 POP JUMP JUMPDEST PUSH1 0x0 PUSH3 0x43B DUP3 PUSH3 0x44C JUMP JUMPDEST SWAP1 POP SWAP2 SWAP1 POP JUMP JUMPDEST PUSH1 0x0 DUP2 SWAP1 POP SWAP2 SWAP1 POP JUMP JUMPDEST PUSH1 0x0 PUSH20 0xFFFFFFFFFFFFFFFFFFFFFFFFFFFFFFFFFFFFFFFF DUP3 AND SWAP1 POP SWAP2 SWAP1 POP JUMP JUMPDEST PUSH1 0x0 DUP2 SWAP1 POP SWAP2 SWAP1 POP JUMP JUMPDEST PUSH1 0x0 PUSH4 0xFFFFFFFF DUP3 AND SWAP1 POP SWAP2 SWAP1 POP JUMP JUMPDEST PUSH1 0x0 JUMPDEST DUP4 DUP2 LT ISZERO PUSH3 0x4A6 JUMPI DUP1 DUP3 ADD MLOAD DUP2 DUP5 ADD MSTORE PUSH1 0x20 DUP2 ADD SWAP1 POP PUSH3 0x489 JUMP JUMPDEST DUP4 DUP2 GT ISZERO PUSH3 0x4B6 JUMPI PUSH1 0x0 DUP5 DUP5 ADD MSTORE JUMPDEST POP POP POP POP JUMP JUMPDEST PUSH1 0x0 PUSH1 0x2 DUP3 DIV SWAP1 POP PUSH1 0x1 DUP3 AND DUP1 PUSH3 0x4D5 JUMPI PUSH1 0x7F DUP3 AND SWAP2 POP JUMPDEST PUSH1 0x20 DUP3 LT DUP2 EQ ISZERO PUSH3 0x4EC JUMPI PUSH3 0x4EB PUSH3 0x528 JUMP JUMPDEST JUMPDEST POP SWAP2 SWAP1 POP JUMP JUMPDEST PUSH3 0x4FD DUP3 PUSH3 0x59A JUMP JUMPDEST DUP2 ADD DUP2 DUP2 LT PUSH8 0xFFFFFFFFFFFFFFFF DUP3 GT OR ISZERO PUSH3 0x51F JUMPI PUSH3 0x51E PUSH3 0x557 JUMP JUMPDEST JUMPDEST DUP1 PUSH1 0x40 MSTORE POP POP POP JUMP JUMPDEST PUSH32 0x4E487B7100000000000000000000000000000000000000000000000000000000 PUSH1 0x0 MSTORE PUSH1 0x22 PUSH1 0x4 MSTORE PUSH1 0x24 PUSH1 0x0 REVERT JUMPDEST PUSH32 0x4E487B7100000000000000000000000000000000000000000000000000000000 PUSH1 0x0 MSTORE PUSH1 0x41 PUSH1 0x4 MSTORE PUSH1 0x24 PUSH1 0x0 REVERT JUMPDEST PUSH1 0x0 DUP1 REVERT JUMPDEST PUSH1 0x0 DUP1 REVERT JUMPDEST PUSH1 0x0 DUP1 REVERT JUMPDEST PUSH1 0x0 DUP1 REVERT JUMPDEST PUSH1 0x0 PUSH1 0x1F NOT PUSH1 0x1F DUP4 ADD AND SWAP1 POP SWAP2 SWAP1 POP JUMP JUMPDEST PUSH3 0x5B6 DUP2 PUSH3 0x42E JUMP JUMPDEST DUP2 EQ PUSH3 0x5C2 JUMPI PUSH1 0x0 DUP1 REVERT JUMPDEST POP JUMP JUMPDEST PUSH3 0x5D0 DUP2 PUSH3 0x442 JUMP JUMPDEST DUP2 EQ PUSH3 0x5DC JUMPI PUSH1 0x0 DUP1 REVERT JUMPDEST POP JUMP JUMPDEST PUSH3 0x5EA DUP2 PUSH3 0x46C JUMP JUMPDEST DUP2 EQ PUSH3 0x5F6 JUMPI PUSH1 0x0 DUP1 REVERT JUMPDEST POP JUMP JUMPDEST PUSH3 0x604 DUP2 PUSH3 0x476 JUMP JUMPDEST DUP2 EQ PUSH3 0x610 JUMPI PUSH1 0x0 DUP1 REVERT JUMPDEST POP JUMP JUMPDEST PUSH2 0x3635 DUP1 PUSH3 0x623 PUSH1 0x0 CODECOPY PUSH1 0x0 RETURN INVALID PUSH1 0x80 PUSH1 0x40 MSTORE CALLVALUE DUP1 ISZERO PUSH2 0x10 JUMPI PUSH1 0x0 DUP1 REVERT JUMPDEST POP PUSH1 0x4 CALLDATASIZE LT PUSH2 0x137 JUMPI PUSH1 0x0 CALLDATALOAD PUSH1 0xE0 SHR DUP1 PUSH4 0x7D79C192 GT PUSH2 0xB8 JUMPI DUP1 PUSH4 0x8DC654A2 GT PUSH2 0x7C JUMPI DUP1 PUSH4 0x8DC654A2 EQ PUSH2 0x308 JUMPI DUP1 PUSH4 0xA02F71E3 EQ PUSH2 0x312 JUMPI DUP1 PUSH4 0xAE989D36 EQ PUSH2 0x342 JUMPI DUP1 PUSH4 0xB57CB55B EQ PUSH2 0x360 JUMPI DUP1 PUSH4 0xC89197C1 EQ PUSH2 0x37E JUMPI DUP1 PUSH4 0xC989B41F EQ PUSH2 0x39F JUMPI PUSH2 0x137 JUMP JUMPDEST DUP1 PUSH4 0x7D79C192 EQ PUSH2 0x276 JUMPI DUP1 PUSH4 0x821F6B7F EQ PUSH2 0x294 JUMPI DUP1 PUSH4 0x89907A5D EQ PUSH2 0x29E JUMPI DUP1 PUSH4 0x8B1B29E8 EQ PUSH2 0x2CE JUMPI DUP1 PUSH4 0x8DC0DDC0 EQ PUSH2 0x2FE JUMPI PUSH2 0x137 JUMP JUMPDEST DUP1 PUSH4 0x4D22530E GT PUSH2 0xFF JUMPI DUP1 PUSH4 0x4D22530E EQ PUSH2 0x1D2 JUMPI DUP1 PUSH4 0x4EAECD68 EQ PUSH2 0x1F0 JUMPI DUP1 PUSH4 0x6D1D9247 EQ PUSH2 0x20C JUMPI DUP1 PUSH4 0x74E53EE1 EQ PUSH2 0x22A JUMPI DUP1 PUSH4 0x7ADBF973 EQ PUSH2 0x25A JUMPI PUSH2 0x137 JUMP JUMPDEST DUP1 PUSH4 0x2DDBD13A EQ PUSH2 0x13C JUMPI DUP1 PUSH4 0x2F157B9D EQ PUSH2 0x15B JUMPI DUP1 PUSH4 0x397E20FC EQ PUSH2 0x179 JUMPI DUP1 PUSH4 0x3E5BC6BD EQ PUSH2 0x195 JUMPI DUP1 PUSH4 0x45040746 EQ PUSH2 0x1B6 JUMPI JUMPDEST PUSH1 0x0 DUP1 REVERT JUMPDEST PUSH2 0x144 PUSH2 0x3BD JUMP JUMPDEST PUSH1 0x40 MLOAD PUSH2 0x152 SWAP3 SWAP2 SWAP1 PUSH2 0x2C2F JUMP JUMPDEST PUSH1 0x40 MLOAD DUP1 SWAP2 SUB SWAP1 RETURN JUMPDEST PUSH2 0x163 PUSH2 0x3CF JUMP JUMPDEST PUSH1 0x40 MLOAD PUSH2 0x170 SWAP2 SWAP1 PUSH2 0x2A5F JUMP JUMPDEST PUSH1 0x40 MLOAD DUP1 SWAP2 SUB SWAP1 RETURN JUMPDEST PUSH2 0x193 PUSH1 0x4 DUP1 CALLDATASIZE SUB DUP2 ADD SWAP1 PUSH2 0x18E SWAP2 SWAP1 PUSH2 0x23F5 JUMP JUMPDEST PUSH2 0x3E2 JUMP JUMPDEST STOP JUMPDEST PUSH2 0x19D PUSH2 0x51E JUMP JUMPDEST PUSH1 0x40 MLOAD PUSH2 0x1AD SWAP5 SWAP4 SWAP3 SWAP2 SWAP1 PUSH2 0x2A95 JUMP JUMPDEST PUSH1 0x40 MLOAD DUP1 SWAP2 SUB SWAP1 RETURN JUMPDEST PUSH2 0x1D0 PUSH1 0x4 DUP1 CALLDATASIZE SUB DUP2 ADD SWAP1 PUSH2 0x1CB SWAP2 SWAP1 PUSH2 0x2451 JUMP JUMPDEST PUSH2 0x563 JUMP JUMPDEST STOP JUMPDEST PUSH2 0x1DA PUSH2 0x69F JUMP JUMPDEST PUSH1 0x40 MLOAD PUSH2 0x1E7 SWAP2 SWAP1 PUSH2 0x2C58 JUMP JUMPDEST PUSH1 0x40 MLOAD DUP1 SWAP2 SUB SWAP1 RETURN JUMPDEST PUSH2 0x20A PUSH1 0x4 DUP1 CALLDATASIZE SUB DUP2 ADD SWAP1 PUSH2 0x205 SWAP2 SWAP1 PUSH2 0x24AD JUMP JUMPDEST PUSH2 0x6B5 JUMP JUMPDEST STOP JUMPDEST PUSH2 0x214 PUSH2 0x852 JUMP JUMPDEST PUSH1 0x40 MLOAD PUSH2 0x221 SWAP2 SWAP1 PUSH2 0x2C14 JUMP JUMPDEST PUSH1 0x40 MLOAD DUP1 SWAP2 SUB SWAP1 RETURN JUMPDEST PUSH2 0x244 PUSH1 0x4 DUP1 CALLDATASIZE SUB DUP2 ADD SWAP1 PUSH2 0x23F SWAP2 SWAP1 PUSH2 0x25D0 JUMP JUMPDEST PUSH2 0x858 JUMP JUMPDEST PUSH1 0x40 MLOAD PUSH2 0x251 SWAP2 SWAP1 PUSH2 0x2BF9 JUMP JUMPDEST PUSH1 0x40 MLOAD DUP1 SWAP2 SUB SWAP1 RETURN JUMPDEST PUSH2 0x274 PUSH1 0x4 DUP1 CALLDATASIZE SUB DUP2 ADD SWAP1 PUSH2 0x26F SWAP2 SWAP1 PUSH2 0x239B JUMP JUMPDEST PUSH2 0x88E JUMP JUMPDEST STOP JUMPDEST PUSH2 0x27E PUSH2 0x89A JUMP JUMPDEST PUSH1 0x40 MLOAD PUSH2 0x28B SWAP2 SWAP1 PUSH2 0x2AFC JUMP JUMPDEST PUSH1 0x40 MLOAD DUP1 SWAP2 SUB SWAP1 RETURN JUMPDEST PUSH2 0x29C PUSH2 0x928 JUMP JUMPDEST STOP JUMPDEST PUSH2 0x2B8 PUSH1 0x4 DUP1 CALLDATASIZE SUB DUP2 ADD SWAP1 PUSH2 0x2B3 SWAP2 SWAP1 PUSH2 0x25D0 JUMP JUMPDEST PUSH2 0xA93 JUMP JUMPDEST PUSH1 0x40 MLOAD PUSH2 0x2C5 SWAP2 SWAP1 PUSH2 0x2ADA JUMP JUMPDEST PUSH1 0x40 MLOAD DUP1 SWAP2 SUB SWAP1 RETURN JUMPDEST PUSH2 0x2E8 PUSH1 0x4 DUP1 CALLDATASIZE SUB DUP2 ADD SWAP1 PUSH2 0x2E3 SWAP2 SWAP1 PUSH2 0x25D0 JUMP JUMPDEST PUSH2 0xB3F JUMP JUMPDEST PUSH1 0x40 MLOAD PUSH2 0x2F5 SWAP2 SWAP1 PUSH2 0x2A7A JUMP JUMPDEST PUSH1 0x40 MLOAD DUP1 SWAP2 SUB SWAP1 RETURN JUMPDEST PUSH2 0x306 PUSH2 0xB63 JUMP JUMPDEST STOP JUMPDEST PUSH2 0x310 PUSH2 0xD13 JUMP JUMPDEST STOP JUMPDEST PUSH2 0x32C PUSH1 0x4 DUP1 CALLDATASIZE SUB DUP2 ADD SWAP1 PUSH2 0x327 SWAP2 SWAP1 PUSH2 0x25D0 JUMP JUMPDEST PUSH2 0xE76 JUMP JUMPDEST PUSH1 0x40 MLOAD PUSH2 0x339 SWAP2 SWAP1 PUSH2 0x2BDE JUMP JUMPDEST PUSH1 0x40 MLOAD DUP1 SWAP2 SUB SWAP1 RETURN JUMPDEST PUSH2 0x34A PUSH2 0xF45 JUMP JUMPDEST PUSH1 0x40 MLOAD PUSH2 0x357 SWAP2 SWAP1 PUSH2 0x2AFC JUMP JUMPDEST PUSH1 0x40 MLOAD DUP1 SWAP2 SUB SWAP1 RETURN JUMPDEST PUSH2 0x368 PUSH2 0xFD3 JUMP JUMPDEST PUSH1 0x40 MLOAD PUSH2 0x375 SWAP2 SWAP1 PUSH2 0x2A7A JUMP JUMPDEST PUSH1 0x40 MLOAD DUP1 SWAP2 SUB SWAP1 RETURN JUMPDEST PUSH2 0x386 PUSH2 0xFD9 JUMP JUMPDEST PUSH1 0x40 MLOAD PUSH2 0x396 SWAP5 SWAP4 SWAP3 SWAP2 SWAP1 PUSH2 0x2C73 JUMP JUMPDEST PUSH1 0x40 MLOAD DUP1 SWAP2 SUB SWAP1 RETURN JUMPDEST PUSH2 0x3A7 PUSH2 0x102E JUMP JUMPDEST PUSH1 0x40 MLOAD PUSH2 0x3B4 SWAP2 SWAP1 PUSH2 0x2A5F JUMP JUMPDEST PUSH1 0x40 MLOAD DUP1 SWAP2 SUB SWAP1 RETURN JUMPDEST PUSH1 0x6 DUP1 PUSH1 0x0 ADD SLOAD SWAP1 DUP1 PUSH1 0x1 ADD SLOAD SWAP1 POP DUP3 JUMP JUMPDEST PUSH1 0xB PUSH1 0x1 SWAP1 SLOAD SWAP1 PUSH2 0x100 EXP SWAP1 DIV PUSH1 0xFF AND DUP2 JUMP JUMPDEST DUP2 PUSH1 0x5 PUSH1 0x0 DUP3 DUP2 MSTORE PUSH1 0x20 ADD SWAP1 DUP2 MSTORE PUSH1 0x20 ADD PUSH1 0x0 KECCAK256 PUSH1 0x0 SWAP1 SLOAD SWAP1 PUSH2 0x100 EXP SWAP1 DIV PUSH20 0xFFFFFFFFFFFFFFFFFFFFFFFFFFFFFFFFFFFFFFFF AND PUSH20 0xFFFFFFFFFFFFFFFFFFFFFFFFFFFFFFFFFFFFFFFF AND CALLER PUSH20 0xFFFFFFFFFFFFFFFFFFFFFFFFFFFFFFFFFFFFFFFF AND EQ PUSH2 0x484 JUMPI PUSH1 0x40 MLOAD PUSH32 0x8C379A000000000000000000000000000000000000000000000000000000000 DUP2 MSTORE PUSH1 0x4 ADD PUSH2 0x47B SWAP1 PUSH2 0x2BBE JUMP JUMPDEST PUSH1 0x40 MLOAD DUP1 SWAP2 SUB SWAP1 REVERT JUMPDEST PUSH1 0x5 PUSH1 0x0 DUP3 DUP2 MSTORE PUSH1 0x20 ADD SWAP1 DUP2 MSTORE PUSH1 0x20 ADD PUSH1 0x0 KECCAK256 PUSH1 0x0 PUSH2 0x100 EXP DUP2 SLOAD SWAP1 PUSH20 0xFFFFFFFFFFFFFFFFFFFFFFFFFFFFFFFFFFFFFFFF MUL NOT AND SWAP1 SSTORE DUP1 PUSH32 0x7CC135E0CEBB02C3480AE5D74D377283180A2601F8F644EDF7987B009316C63A PUSH1 0x40 MLOAD PUSH1 0x40 MLOAD DUP1 SWAP2 SUB SWAP1 LOG2 DUP2 PUSH1 0xE SWAP1 DUP1 MLOAD SWAP1 PUSH1 0x20 ADD SWAP1 PUSH2 0x4FD SWAP3 SWAP2 SWAP1 PUSH2 0x1CCB JUMP JUMPDEST POP PUSH1 0x1 PUSH1 0xB PUSH1 0x0 PUSH2 0x100 EXP DUP2 SLOAD DUP2 PUSH1 0xFF MUL NOT AND SWAP1 DUP4 ISZERO ISZERO MUL OR SWAP1 SSTORE POP POP POP POP JUMP JUMPDEST PUSH1 0x9 DUP1 PUSH1 0x0 ADD SLOAD SWAP1 DUP1 PUSH1 0x1 ADD PUSH1 0x0 SWAP1 SLOAD SWAP1 PUSH2 0x100 EXP SWAP1 DIV PUSH1 0xFF AND SWAP1 DUP1 PUSH1 0x1 ADD PUSH1 0x1 SWAP1 SLOAD SWAP1 PUSH2 0x100 EXP SWAP1 DIV PUSH1 0xFF AND SWAP1 DUP1 PUSH1 0x1 ADD PUSH1 0x2 SWAP1 SLOAD SWAP1 PUSH2 0x100 EXP SWAP1 DIV PUSH1 0xFF AND SWAP1 POP DUP5 JUMP JUMPDEST DUP2 PUSH1 0x5 PUSH1 0x0 DUP3 DUP2 MSTORE PUSH1 0x20 ADD SWAP1 DUP2 MSTORE PUSH1 0x20 ADD PUSH1 0x0 KECCAK256 PUSH1 0x0 SWAP1 SLOAD SWAP1 PUSH2 0x100 EXP SWAP1 DIV PUSH20 0xFFFFFFFFFFFFFFFFFFFFFFFFFFFFFFFFFFFFFFFF AND PUSH20 0xFFFFFFFFFFFFFFFFFFFFFFFFFFFFFFFFFFFFFFFF AND CALLER PUSH20 0xFFFFFFFFFFFFFFFFFFFFFFFFFFFFFFFFFFFFFFFF AND EQ PUSH2 0x605 JUMPI PUSH1 0x40 MLOAD PUSH32 0x8C379A000000000000000000000000000000000000000000000000000000000 DUP2 MSTORE PUSH1 0x4 ADD PUSH2 0x5FC SWAP1 PUSH2 0x2BBE JUMP JUMPDEST PUSH1 0x40 MLOAD DUP1 SWAP2 SUB SWAP1 REVERT JUMPDEST PUSH1 0x5 PUSH1 0x0 DUP3 DUP2 MSTORE PUSH1 0x20 ADD SWAP1 DUP2 MSTORE PUSH1 0x20 ADD PUSH1 0x0 KECCAK256 PUSH1 0x0 PUSH2 0x100 EXP DUP2 SLOAD SWAP1 PUSH20 0xFFFFFFFFFFFFFFFFFFFFFFFFFFFFFFFFFFFFFFFF MUL NOT AND SWAP1 SSTORE DUP1 PUSH32 0x7CC135E0CEBB02C3480AE5D74D377283180A2601F8F644EDF7987B009316C63A PUSH1 0x40 MLOAD PUSH1 0x40 MLOAD DUP1 SWAP2 SUB SWAP1 LOG2 DUP2 PUSH1 0xF SWAP1 DUP1 MLOAD SWAP1 PUSH1 0x20 ADD SWAP1 PUSH2 0x67E SWAP3 SWAP2 SWAP1 PUSH2 0x1D18 JUMP JUMPDEST POP PUSH1 0x1 PUSH1 0xB PUSH1 0x1 PUSH2 0x100 EXP DUP2 SLOAD DUP2 PUSH1 0xFF MUL NOT AND SWAP1 DUP4 ISZERO ISZERO MUL OR SWAP1 SSTORE POP POP POP POP JUMP JUMPDEST PUSH1 0x11 PUSH1 0x0 SWAP1 SLOAD SWAP1 PUSH2 0x100 EXP SWAP1 DIV PUSH4 0xFFFFFFFF AND DUP2 JUMP JUMPDEST PUSH1 0x0 PUSH2 0x6C9 DUP9 ADDRESS PUSH4 0x45040746 PUSH1 0xE0 SHL PUSH2 0x1041 JUMP JUMPDEST SWAP1 POP PUSH2 0x715 PUSH1 0x40 MLOAD DUP1 PUSH1 0x40 ADD PUSH1 0x40 MSTORE DUP1 PUSH1 0x4 DUP2 MSTORE PUSH1 0x20 ADD PUSH32 0x6461746500000000000000000000000000000000000000000000000000000000 DUP2 MSTORE POP DUP6 DUP4 PUSH2 0x1072 SWAP1 SWAP3 SWAP2 SWAP1 PUSH4 0xFFFFFFFF AND JUMP JUMPDEST PUSH2 0x75F PUSH1 0x40 MLOAD DUP1 PUSH1 0x40 ADD PUSH1 0x40 MSTORE DUP1 PUSH1 0x6 DUP2 MSTORE PUSH1 0x20 ADD PUSH32 0x6D61726B65740000000000000000000000000000000000000000000000000000 DUP2 MSTORE POP DUP8 DUP4 PUSH2 0x10A5 SWAP1 SWAP3 SWAP2 SWAP1 PUSH4 0xFFFFFFFF AND JUMP JUMPDEST PUSH2 0x7A9 PUSH1 0x40 MLOAD DUP1 PUSH1 0x40 ADD PUSH1 0x40 MSTORE DUP1 PUSH1 0x7 DUP2 MSTORE PUSH1 0x20 ADD PUSH32 0x73706F7274496400000000000000000000000000000000000000000000000000 DUP2 MSTORE POP DUP7 DUP4 PUSH2 0x1072 SWAP1 SWAP3 SWAP2 SWAP1 PUSH4 0xFFFFFFFF AND JUMP JUMPDEST PUSH2 0x7F3 PUSH1 0x40 MLOAD DUP1 PUSH1 0x40 ADD PUSH1 0x40 MSTORE DUP1 PUSH1 0x9 DUP2 MSTORE PUSH1 0x20 ADD PUSH32 0x7374617475734964730000000000000000000000000000000000000000000000 DUP2 MSTORE POP DUP5 DUP4 PUSH2 0x10D8 SWAP1 SWAP3 SWAP2 SWAP1 PUSH4 0xFFFFFFFF AND JUMP JUMPDEST PUSH2 0x83D PUSH1 0x40 MLOAD DUP1 PUSH1 0x40 ADD PUSH1 0x40 MSTORE DUP1 PUSH1 0x7 DUP2 MSTORE PUSH1 0x20 ADD PUSH32 0x67616D6549647300000000000000000000000000000000000000000000000000 DUP2 MSTORE POP DUP4 DUP4 PUSH2 0x10D8 SWAP1 SWAP3 SWAP2 SWAP1 PUSH4 0xFFFFFFFF AND JUMP JUMPDEST PUSH2 0x847 DUP2 DUP9 PUSH2 0x115F JUMP JUMPDEST POP POP POP POP POP POP POP POP POP JUMP JUMPDEST PUSH1 0x10 SLOAD DUP2 JUMP JUMPDEST PUSH2 0x860 PUSH2 0x1D78 JUMP JUMPDEST PUSH2 0x887 PUSH1 0xE DUP4 DUP2 SLOAD DUP2 LT PUSH2 0x877 JUMPI PUSH2 0x876 PUSH2 0x3331 JUMP JUMPDEST JUMPDEST SWAP1 PUSH1 0x0 MSTORE PUSH1 0x20 PUSH1 0x0 KECCAK256 ADD SLOAD PUSH2 0x1196 JUMP JUMPDEST SWAP1 POP SWAP2 SWAP1 POP JUMP JUMPDEST PUSH2 0x897 DUP2 PUSH2 0x11FC JUMP JUMPDEST POP JUMP JUMPDEST PUSH1 0xD DUP1 SLOAD PUSH2 0x8A7 SWAP1 PUSH2 0x318F JUMP JUMPDEST DUP1 PUSH1 0x1F ADD PUSH1 0x20 DUP1 SWAP2 DIV MUL PUSH1 0x20 ADD PUSH1 0x40 MLOAD SWAP1 DUP2 ADD PUSH1 0x40 MSTORE DUP1 SWAP3 SWAP2 SWAP1 DUP2 DUP2 MSTORE PUSH1 0x20 ADD DUP3 DUP1 SLOAD PUSH2 0x8D3 SWAP1 PUSH2 0x318F JUMP JUMPDEST DUP1 ISZERO PUSH2 0x920 JUMPI DUP1 PUSH1 0x1F LT PUSH2 0x8F5 JUMPI PUSH2 0x100 DUP1 DUP4 SLOAD DIV MUL DUP4 MSTORE SWAP2 PUSH1 0x20 ADD SWAP2 PUSH2 0x920 JUMP JUMPDEST DUP3 ADD SWAP2 SWAP1 PUSH1 0x0 MSTORE PUSH1 0x20 PUSH1 0x0 KECCAK256 SWAP1 JUMPDEST DUP2 SLOAD DUP2 MSTORE SWAP1 PUSH1 0x1 ADD SWAP1 PUSH1 0x20 ADD DUP1 DUP4 GT PUSH2 0x903 JUMPI DUP3 SWAP1 SUB PUSH1 0x1F AND DUP3 ADD SWAP2 JUMPDEST POP POP POP POP POP DUP2 JUMP JUMPDEST PUSH1 0x0 ISZERO ISZERO PUSH1 0xB PUSH1 0x0 SWAP1 SLOAD SWAP1 PUSH2 0x100 EXP SWAP1 DIV PUSH1 0xFF AND ISZERO ISZERO EQ PUSH2 0x97E JUMPI PUSH1 0x40 MLOAD PUSH32 0x8C379A000000000000000000000000000000000000000000000000000000000 DUP2 MSTORE PUSH1 0x4 ADD PUSH2 0x975 SWAP1 PUSH2 0x2B5E JUMP JUMPDEST PUSH1 0x40 MLOAD DUP1 SWAP2 SUB SWAP1 REVERT JUMPDEST PUSH2 0x8CA0 PUSH1 0x10 SLOAD PUSH2 0x98E SWAP2 SWAP1 PUSH2 0x2DFB JUMP JUMPDEST TIMESTAMP GT PUSH2 0x9CF JUMPI PUSH1 0x40 MLOAD PUSH32 0x8C379A000000000000000000000000000000000000000000000000000000000 DUP2 MSTORE PUSH1 0x4 ADD PUSH2 0x9C6 SWAP1 PUSH2 0x2B3E JUMP JUMPDEST PUSH1 0x40 MLOAD DUP1 SWAP2 SUB SWAP1 REVERT JUMPDEST PUSH1 0x0 PUSH1 0x1 PUSH8 0xFFFFFFFFFFFFFFFF DUP2 GT ISZERO PUSH2 0x9EC JUMPI PUSH2 0x9EB PUSH2 0x3360 JUMP JUMPDEST JUMPDEST PUSH1 0x40 MLOAD SWAP1 DUP1 DUP3 MSTORE DUP1 PUSH1 0x20 MUL PUSH1 0x20 ADD DUP3 ADD PUSH1 0x40 MSTORE DUP1 ISZERO PUSH2 0xA1A JUMPI DUP2 PUSH1 0x20 ADD PUSH1 0x20 DUP3 MUL DUP1 CALLDATASIZE DUP4 CALLDATACOPY DUP1 DUP3 ADD SWAP2 POP POP SWAP1 POP JUMPDEST POP SWAP1 POP PUSH1 0x11 PUSH1 0x0 SWAP1 SLOAD SWAP1 PUSH2 0x100 EXP SWAP1 DIV PUSH4 0xFFFFFFFF AND PUSH4 0xFFFFFFFF AND DUP2 PUSH1 0x0 DUP2 MLOAD DUP2 LT PUSH2 0xA4A JUMPI PUSH2 0xA49 PUSH2 0x3331 JUMP JUMPDEST JUMPDEST PUSH1 0x20 MUL PUSH1 0x20 ADD ADD DUP2 DUP2 MSTORE POP POP PUSH2 0xA90 PUSH32 0x6261646533363031633566663439363538366436333663333939356630366665 PUSH8 0x16345785D8A0000 PUSH1 0x1 PUSH1 0x0 PUSH1 0x10 SLOAD DUP7 PUSH2 0x1240 JUMP JUMPDEST POP JUMP JUMPDEST PUSH1 0xF DUP2 DUP2 SLOAD DUP2 LT PUSH2 0xAA3 JUMPI PUSH1 0x0 DUP1 REVERT JUMPDEST SWAP1 PUSH1 0x0 MSTORE PUSH1 0x20 PUSH1 0x0 KECCAK256 ADD PUSH1 0x0 SWAP2 POP SWAP1 POP DUP1 SLOAD PUSH2 0xABE SWAP1 PUSH2 0x318F JUMP JUMPDEST DUP1 PUSH1 0x1F ADD PUSH1 0x20 DUP1 SWAP2 DIV MUL PUSH1 0x20 ADD PUSH1 0x40 MLOAD SWAP1 DUP2 ADD PUSH1 0x40 MSTORE DUP1 SWAP3 SWAP2 SWAP1 DUP2 DUP2 MSTORE PUSH1 0x20 ADD DUP3 DUP1 SLOAD PUSH2 0xAEA SWAP1 PUSH2 0x318F JUMP JUMPDEST DUP1 ISZERO PUSH2 0xB37 JUMPI DUP1 PUSH1 0x1F LT PUSH2 0xB0C JUMPI PUSH2 0x100 DUP1 DUP4 SLOAD DIV MUL DUP4 MSTORE SWAP2 PUSH1 0x20 ADD SWAP2 PUSH2 0xB37 JUMP JUMPDEST DUP3 ADD SWAP2 SWAP1 PUSH1 0x0 MSTORE PUSH1 0x20 PUSH1 0x0 KECCAK256 SWAP1 JUMPDEST DUP2 SLOAD DUP2 MSTORE SWAP1 PUSH1 0x1 ADD SWAP1 PUSH1 0x20 ADD DUP1 DUP4 GT PUSH2 0xB1A JUMPI DUP3 SWAP1 SUB PUSH1 0x1F AND DUP3 ADD SWAP2 JUMPDEST POP POP POP POP POP DUP2 JUMP JUMPDEST PUSH1 0xE DUP2 DUP2 SLOAD DUP2 LT PUSH2 0xB4F JUMPI PUSH1 0x0 DUP1 REVERT JUMPDEST SWAP1 PUSH1 0x0 MSTORE PUSH1 0x20 PUSH1 0x0 KECCAK256 ADD PUSH1 0x0 SWAP2 POP SWAP1 POP SLOAD DUP2 JUMP JUMPDEST PUSH1 0x0 ISZERO ISZERO PUSH1 0xB PUSH1 0x1 SWAP1 SLOAD SWAP1 PUSH2 0x100 EXP SWAP1 DIV PUSH1 0xFF AND ISZERO ISZERO EQ PUSH2 0xBB9 JUMPI PUSH1 0x40 MLOAD PUSH32 0x8C379A000000000000000000000000000000000000000000000000000000000 DUP2 MSTORE PUSH1 0x4 ADD PUSH2 0xBB0 SWAP1 PUSH2 0x2B1E JUMP JUMPDEST PUSH1 0x40 MLOAD DUP1 SWAP2 SUB SWAP1 REVERT JUMPDEST PUSH2 0x8CA0 PUSH1 0x10 SLOAD PUSH2 0xBC9 SWAP2 SWAP1 PUSH2 0x2DFB JUMP JUMPDEST TIMESTAMP GT PUSH2 0xC0A JUMPI PUSH1 0x40 MLOAD PUSH32 0x8C379A000000000000000000000000000000000000000000000000000000000 DUP2 MSTORE PUSH1 0x4 ADD PUSH2 0xC01 SWAP1 PUSH2 0x2B3E JUMP JUMPDEST PUSH1 0x40 MLOAD DUP1 SWAP2 SUB SWAP1 REVERT JUMPDEST PUSH1 0x60 PUSH1 0x0 PUSH1 0x1 PUSH8 0xFFFFFFFFFFFFFFFF DUP2 GT ISZERO PUSH2 0xC29 JUMPI PUSH2 0xC28 PUSH2 0x3360 JUMP JUMPDEST JUMPDEST PUSH1 0x40 MLOAD SWAP1 DUP1 DUP3 MSTORE DUP1 PUSH1 0x20 MUL PUSH1 0x20 ADD DUP3 ADD PUSH1 0x40 MSTORE DUP1 ISZERO PUSH2 0xC5C JUMPI DUP2 PUSH1 0x20 ADD JUMPDEST PUSH1 0x60 DUP2 MSTORE PUSH1 0x20 ADD SWAP1 PUSH1 0x1 SWAP1 SUB SWAP1 DUP2 PUSH2 0xC47 JUMPI SWAP1 POP JUMPDEST POP SWAP1 POP PUSH1 0x12 SLOAD PUSH1 0x40 MLOAD PUSH1 0x20 ADD PUSH2 0xC72 SWAP2 SWAP1 PUSH2 0x2911 JUMP JUMPDEST PUSH1 0x40 MLOAD PUSH1 0x20 DUP2 DUP4 SUB SUB DUP2 MSTORE SWAP1 PUSH1 0x40 MSTORE DUP2 PUSH1 0x0 DUP2 MLOAD DUP2 LT PUSH2 0xC95 JUMPI PUSH2 0xC94 PUSH2 0x3331 JUMP JUMPDEST JUMPDEST PUSH1 0x20 MUL PUSH1 0x20 ADD ADD DUP2 SWAP1 MSTORE POP PUSH2 0xD0F PUSH32 0x3964653137333531646661353433396438336635633266333730376666613965 PUSH8 0x16345785D8A0000 PUSH1 0x40 MLOAD DUP1 PUSH1 0x40 ADD PUSH1 0x40 MSTORE DUP1 PUSH1 0x6 DUP2 MSTORE PUSH1 0x20 ADD PUSH32 0x6372656174650000000000000000000000000000000000000000000000000000 DUP2 MSTORE POP PUSH1 0x3 PUSH1 0x10 SLOAD DUP8 DUP8 PUSH2 0x6B5 JUMP JUMPDEST POP POP JUMP JUMPDEST PUSH1 0x0 PUSH2 0xD1D PUSH2 0x1388 JUMP JUMPDEST SWAP1 POP DUP1 PUSH20 0xFFFFFFFFFFFFFFFFFFFFFFFFFFFFFFFFFFFFFFFF AND PUSH4 0xA9059CBB CALLER DUP4 PUSH20 0xFFFFFFFFFFFFFFFFFFFFFFFFFFFFFFFFFFFFFFFF AND PUSH4 0x70A08231 ADDRESS PUSH1 0x40 MLOAD DUP3 PUSH4 0xFFFFFFFF AND PUSH1 0xE0 SHL DUP2 MSTORE PUSH1 0x4 ADD PUSH2 0xD75 SWAP2 SWAP1 PUSH2 0x2958 JUMP JUMPDEST PUSH1 0x20 PUSH1 0x40 MLOAD DUP1 DUP4 SUB DUP2 DUP7 DUP1 EXTCODESIZE ISZERO DUP1 ISZERO PUSH2 0xD8D JUMPI PUSH1 0x0 DUP1 REVERT JUMPDEST POP GAS STATICCALL ISZERO DUP1 ISZERO PUSH2 0xDA1 JUMPI RETURNDATASIZE PUSH1 0x0 DUP1 RETURNDATACOPY RETURNDATASIZE PUSH1 0x0 REVERT JUMPDEST POP POP POP POP PUSH1 0x40 MLOAD RETURNDATASIZE PUSH1 0x1F NOT PUSH1 0x1F DUP3 ADD AND DUP3 ADD DUP1 PUSH1 0x40 MSTORE POP DUP2 ADD SWAP1 PUSH2 0xDC5 SWAP2 SWAP1 PUSH2 0x25FD JUMP JUMPDEST PUSH1 0x40 MLOAD DUP4 PUSH4 0xFFFFFFFF AND PUSH1 0xE0 SHL DUP2 MSTORE PUSH1 0x4 ADD PUSH2 0xDE2 SWAP3 SWAP2 SWAP1 PUSH2 0x2973 JUMP JUMPDEST PUSH1 0x20 PUSH1 0x40 MLOAD DUP1 DUP4 SUB DUP2 PUSH1 0x0 DUP8 DUP1 EXTCODESIZE ISZERO DUP1 ISZERO PUSH2 0xDFC JUMPI PUSH1 0x0 DUP1 REVERT JUMPDEST POP GAS CALL ISZERO DUP1 ISZERO PUSH2 0xE10 JUMPI RETURNDATASIZE PUSH1 0x0 DUP1 RETURNDATACOPY RETURNDATASIZE PUSH1 0x0 REVERT JUMPDEST POP POP POP POP PUSH1 0x40 MLOAD RETURNDATASIZE PUSH1 0x1F NOT PUSH1 0x1F DUP3 ADD AND DUP3 ADD DUP1 PUSH1 0x40 MSTORE POP DUP2 ADD SWAP1 PUSH2 0xE34 SWAP2 SWAP1 PUSH2 0x23C8 JUMP JUMPDEST PUSH2 0xE73 JUMPI PUSH1 0x40 MLOAD PUSH32 0x8C379A000000000000000000000000000000000000000000000000000000000 DUP2 MSTORE PUSH1 0x4 ADD PUSH2 0xE6A SWAP1 PUSH2 0x2B9E JUMP JUMPDEST PUSH1 0x40 MLOAD DUP1 SWAP2 SUB SWAP1 REVERT JUMPDEST POP JUMP JUMPDEST PUSH2 0xE7E PUSH2 0x1DBB JUMP JUMPDEST PUSH1 0x0 PUSH1 0xF DUP4 DUP2 SLOAD DUP2 LT PUSH2 0xE94 JUMPI PUSH2 0xE93 PUSH2 0x3331 JUMP JUMPDEST JUMPDEST SWAP1 PUSH1 0x0 MSTORE PUSH1 0x20 PUSH1 0x0 KECCAK256 ADD DUP1 SLOAD PUSH2 0xEA9 SWAP1 PUSH2 0x318F JUMP JUMPDEST DUP1 PUSH1 0x1F ADD PUSH1 0x20 DUP1 SWAP2 DIV MUL PUSH1 0x20 ADD PUSH1 0x40 MLOAD SWAP1 DUP2 ADD PUSH1 0x40 MSTORE DUP1 SWAP3 SWAP2 SWAP1 DUP2 DUP2 MSTORE PUSH1 0x20 ADD DUP3 DUP1 SLOAD PUSH2 0xED5 SWAP1 PUSH2 0x318F JUMP JUMPDEST DUP1 ISZERO PUSH2 0xF22 JUMPI DUP1 PUSH1 0x1F LT PUSH2 0xEF7 JUMPI PUSH2 0x100 DUP1 DUP4 SLOAD DIV MUL DUP4 MSTORE SWAP2 PUSH1 0x20 ADD SWAP2 PUSH2 0xF22 JUMP JUMPDEST DUP3 ADD SWAP2 SWAP1 PUSH1 0x0 MSTORE PUSH1 0x20 PUSH1 0x0 KECCAK256 SWAP1 JUMPDEST DUP2 SLOAD DUP2 MSTORE SWAP1 PUSH1 0x1 ADD SWAP1 PUSH1 0x20 ADD DUP1 DUP4 GT PUSH2 0xF05 JUMPI DUP3 SWAP1 SUB PUSH1 0x1F AND DUP3 ADD SWAP2 JUMPDEST POP POP POP POP POP DUP1 PUSH1 0x20 ADD SWAP1 MLOAD DUP2 ADD SWAP1 PUSH2 0xF3A SWAP2 SWAP1 PUSH2 0x25A3 JUMP JUMPDEST SWAP1 POP DUP1 SWAP2 POP POP SWAP2 SWAP1 POP JUMP JUMPDEST PUSH1 0xC DUP1 SLOAD PUSH2 0xF52 SWAP1 PUSH2 0x318F JUMP JUMPDEST DUP1 PUSH1 0x1F ADD PUSH1 0x20 DUP1 SWAP2 DIV MUL PUSH1 0x20 ADD PUSH1 0x40 MLOAD SWAP1 DUP2 ADD PUSH1 0x40 MSTORE DUP1 SWAP3 SWAP2 SWAP1 DUP2 DUP2 MSTORE PUSH1 0x20 ADD DUP3 DUP1 SLOAD PUSH2 0xF7E SWAP1 PUSH2 0x318F JUMP JUMPDEST DUP1 ISZERO PUSH2 0xFCB JUMPI DUP1 PUSH1 0x1F LT PUSH2 0xFA0 JUMPI PUSH2 0x100 DUP1 DUP4 SLOAD DIV MUL DUP4 MSTORE SWAP2 PUSH1 0x20 ADD SWAP2 PUSH2 0xFCB JUMP JUMPDEST DUP3 ADD SWAP2 SWAP1 PUSH1 0x0 MSTORE PUSH1 0x20 PUSH1 0x0 KECCAK256 SWAP1 JUMPDEST DUP2 SLOAD DUP2 MSTORE SWAP1 PUSH1 0x1 ADD SWAP1 PUSH1 0x20 ADD DUP1 DUP4 GT PUSH2 0xFAE JUMPI DUP3 SWAP1 SUB PUSH1 0x1F AND DUP3 ADD SWAP2 JUMPDEST POP POP POP POP POP DUP2 JUMP JUMPDEST PUSH1 0x12 SLOAD DUP2 JUMP JUMPDEST PUSH1 0x8 DUP1 PUSH1 0x0 ADD PUSH1 0x0 SWAP1 SLOAD SWAP1 PUSH2 0x100 EXP SWAP1 DIV PUSH4 0xFFFFFFFF AND SWAP1 DUP1 PUSH1 0x0 ADD PUSH1 0x4 SWAP1 SLOAD SWAP1 PUSH2 0x100 EXP SWAP1 DIV PUSH1 0xFF AND SWAP1 DUP1 PUSH1 0x0 ADD PUSH1 0x5 SWAP1 SLOAD SWAP1 PUSH2 0x100 EXP SWAP1 DIV PUSH1 0xFF AND SWAP1 DUP1 PUSH1 0x0 ADD PUSH1 0x6 SWAP1 SLOAD SWAP1 PUSH2 0x100 EXP SWAP1 DIV PUSH1 0x60 SHL SWAP1 POP DUP5 JUMP JUMPDEST PUSH1 0xB PUSH1 0x0 SWAP1 SLOAD SWAP1 PUSH2 0x100 EXP SWAP1 DIV PUSH1 0xFF AND DUP2 JUMP JUMPDEST PUSH2 0x1049 PUSH2 0x1DEF JUMP JUMPDEST PUSH2 0x1051 PUSH2 0x1DEF JUMP JUMPDEST PUSH2 0x1068 DUP6 DUP6 DUP6 DUP5 PUSH2 0x13B2 SWAP1 SWAP4 SWAP3 SWAP2 SWAP1 PUSH4 0xFFFFFFFF AND JUMP JUMPDEST SWAP2 POP POP SWAP4 SWAP3 POP POP POP JUMP JUMPDEST PUSH2 0x1089 DUP3 DUP5 PUSH1 0x80 ADD MLOAD PUSH2 0x1462 SWAP1 SWAP2 SWAP1 PUSH4 0xFFFFFFFF AND JUMP JUMPDEST PUSH2 0x10A0 DUP2 DUP5 PUSH1 0x80 ADD MLOAD PUSH2 0x1487 SWAP1 SWAP2 SWAP1 PUSH4 0xFFFFFFFF AND JUMP JUMPDEST POP POP POP JUMP JUMPDEST PUSH2 0x10BC DUP3 DUP5 PUSH1 0x80 ADD MLOAD PUSH2 0x1462 SWAP1 SWAP2 SWAP1 PUSH4 0xFFFFFFFF AND JUMP JUMPDEST PUSH2 0x10D3 DUP2 DUP5 PUSH1 0x80 ADD MLOAD PUSH2 0x1462 SWAP1 SWAP2 SWAP1 PUSH4 0xFFFFFFFF AND JUMP JUMPDEST POP POP POP JUMP JUMPDEST PUSH2 0x10EF DUP3 DUP5 PUSH1 0x80 ADD MLOAD PUSH2 0x1462 SWAP1 SWAP2 SWAP1 PUSH4 0xFFFFFFFF AND JUMP JUMPDEST PUSH2 0x10FC DUP4 PUSH1 0x80 ADD MLOAD PUSH2 0x14B7 JUMP JUMPDEST PUSH1 0x0 JUMPDEST DUP2 MLOAD DUP2 LT ISZERO PUSH2 0x114C JUMPI PUSH2 0x1139 DUP3 DUP3 DUP2 MLOAD DUP2 LT PUSH2 0x111E JUMPI PUSH2 0x111D PUSH2 0x3331 JUMP JUMPDEST JUMPDEST PUSH1 0x20 MUL PUSH1 0x20 ADD ADD MLOAD DUP6 PUSH1 0x80 ADD MLOAD PUSH2 0x1462 SWAP1 SWAP2 SWAP1 PUSH4 0xFFFFFFFF AND JUMP JUMPDEST DUP1 DUP1 PUSH2 0x1144 SWAP1 PUSH2 0x31F2 JUMP JUMPDEST SWAP2 POP POP PUSH2 0x10FF JUMP JUMPDEST POP PUSH2 0x115A DUP4 PUSH1 0x80 ADD MLOAD PUSH2 0x14C5 JUMP JUMPDEST POP POP POP JUMP JUMPDEST PUSH1 0x0 PUSH2 0x118E PUSH1 0x3 PUSH1 0x0 SWAP1 SLOAD SWAP1 PUSH2 0x100 EXP SWAP1 DIV PUSH20 0xFFFFFFFFFFFFFFFFFFFFFFFFFFFFFFFFFFFFFFFF AND DUP5 DUP5 PUSH2 0x14D3 JUMP JUMPDEST SWAP1 POP SWAP3 SWAP2 POP POP JUMP JUMPDEST PUSH2 0x119E PUSH2 0x1D78 JUMP JUMPDEST PUSH1 0x0 PUSH1 0x40 MLOAD DUP1 PUSH1 0x80 ADD PUSH1 0x40 MSTORE DUP1 DUP5 PUSH1 0xE0 SHR PUSH4 0xFFFFFFFF AND DUP2 MSTORE PUSH1 0x20 ADD PUSH1 0x20 DUP6 SWAP1 SHL PUSH1 0xF8 SHR PUSH1 0xFF AND DUP2 MSTORE PUSH1 0x20 ADD PUSH1 0x28 DUP6 SWAP1 SHL PUSH1 0xF8 SHR PUSH1 0xFF AND DUP2 MSTORE PUSH1 0x20 ADD PUSH1 0x30 DUP6 SWAP1 SHL PUSH12 0xFFFFFFFFFFFFFFFFFFFFFFFF NOT AND DUP2 MSTORE POP SWAP1 POP DUP1 SWAP2 POP POP SWAP2 SWAP1 POP JUMP JUMPDEST DUP1 PUSH1 0x3 PUSH1 0x0 PUSH2 0x100 EXP DUP2 SLOAD DUP2 PUSH20 0xFFFFFFFFFFFFFFFFFFFFFFFFFFFFFFFFFFFFFFFF MUL NOT AND SWAP1 DUP4 PUSH20 0xFFFFFFFFFFFFFFFFFFFFFFFFFFFFFFFFFFFFFFFF AND MUL OR SWAP1 SSTORE POP POP JUMP JUMPDEST PUSH1 0x0 PUSH2 0x1254 DUP8 ADDRESS PUSH4 0x397E20FC PUSH1 0xE0 SHL PUSH2 0x1041 JUMP JUMPDEST SWAP1 POP PUSH2 0x12A0 PUSH1 0x40 MLOAD DUP1 PUSH1 0x40 ADD PUSH1 0x40 MSTORE DUP1 PUSH1 0x6 DUP2 MSTORE PUSH1 0x20 ADD PUSH32 0x6D61726B65740000000000000000000000000000000000000000000000000000 DUP2 MSTORE POP DUP7 DUP4 PUSH2 0x1072 SWAP1 SWAP3 SWAP2 SWAP1 PUSH4 0xFFFFFFFF AND JUMP JUMPDEST PUSH2 0x12EA PUSH1 0x40 MLOAD DUP1 PUSH1 0x40 ADD PUSH1 0x40 MSTORE DUP1 PUSH1 0x8 DUP2 MSTORE PUSH1 0x20 ADD PUSH32 0x6C65616775654964000000000000000000000000000000000000000000000000 DUP2 MSTORE POP DUP6 DUP4 PUSH2 0x1072 SWAP1 SWAP3 SWAP2 SWAP1 PUSH4 0xFFFFFFFF AND JUMP JUMPDEST PUSH2 0x1334 PUSH1 0x40 MLOAD DUP1 PUSH1 0x40 ADD PUSH1 0x40 MSTORE DUP1 PUSH1 0x4 DUP2 MSTORE PUSH1 0x20 ADD PUSH32 0x6461746500000000000000000000000000000000000000000000000000000000 DUP2 MSTORE POP DUP5 DUP4 PUSH2 0x1072 SWAP1 SWAP3 SWAP2 SWAP1 PUSH4 0xFFFFFFFF AND JUMP JUMPDEST PUSH2 0x1374 DUP2 PUSH1 0x40 MLOAD DUP1 PUSH1 0x40 ADD PUSH1 0x40 MSTORE DUP1 PUSH1 0x7 DUP2 MSTORE PUSH1 0x20 ADD PUSH32 0x67616D6549647300000000000000000000000000000000000000000000000000 DUP2 MSTORE POP DUP5 PUSH2 0x159F JUMP JUMPDEST PUSH2 0x137E DUP2 DUP8 PUSH2 0x115F JUMP JUMPDEST POP POP POP POP POP POP POP POP JUMP JUMPDEST PUSH1 0x0 PUSH1 0x2 PUSH1 0x0 SWAP1 SLOAD SWAP1 PUSH2 0x100 EXP SWAP1 DIV PUSH20 0xFFFFFFFFFFFFFFFFFFFFFFFFFFFFFFFFFFFFFFFF AND SWAP1 POP SWAP1 JUMP JUMPDEST PUSH2 0x13BA PUSH2 0x1DEF JUMP JUMPDEST PUSH2 0x13CA DUP6 PUSH1 0x80 ADD MLOAD PUSH2 0x100 PUSH2 0x162D JUMP JUMPDEST POP DUP4 DUP6 PUSH1 0x0 ADD DUP2 DUP2 MSTORE POP POP DUP3 DUP6 PUSH1 0x20 ADD SWAP1 PUSH20 0xFFFFFFFFFFFFFFFFFFFFFFFFFFFFFFFFFFFFFFFF AND SWAP1 DUP2 PUSH20 0xFFFFFFFFFFFFFFFFFFFFFFFFFFFFFFFFFFFFFFFF AND DUP2 MSTORE POP POP DUP2 DUP6 PUSH1 0x40 ADD SWAP1 PUSH28 0xFFFFFFFFFFFFFFFFFFFFFFFFFFFFFFFFFFFFFFFFFFFFFFFFFFFFFFFF NOT AND SWAP1 DUP2 PUSH28 0xFFFFFFFFFFFFFFFFFFFFFFFFFFFFFFFFFFFFFFFFFFFFFFFFFFFFFFFF NOT AND DUP2 MSTORE POP POP DUP5 SWAP1 POP SWAP5 SWAP4 POP POP POP POP JUMP JUMPDEST PUSH2 0x146F DUP3 PUSH1 0x3 DUP4 MLOAD PUSH2 0x1697 JUMP JUMPDEST PUSH2 0x1482 DUP2 DUP4 PUSH2 0x181C SWAP1 SWAP2 SWAP1 PUSH4 0xFFFFFFFF AND JUMP JUMPDEST POP POP POP JUMP JUMPDEST PUSH8 0xFFFFFFFFFFFFFFFF DUP2 GT ISZERO PUSH2 0x14A6 JUMPI PUSH2 0x14A1 DUP3 DUP3 PUSH2 0x183E JUMP JUMPDEST PUSH2 0x14B3 JUMP JUMPDEST PUSH2 0x14B2 DUP3 PUSH1 0x0 DUP4 PUSH2 0x1697 JUMP JUMPDEST JUMPDEST POP POP JUMP JUMPDEST PUSH2 0x14C2 DUP2 PUSH1 0x4 PUSH2 0x188A JUMP JUMPDEST POP JUMP JUMPDEST PUSH2 0x14D0 DUP2 PUSH1 0x7 PUSH2 0x188A JUMP JUMPDEST POP JUMP JUMPDEST PUSH1 0x0 DUP1 PUSH1 0x4 SLOAD SWAP1 POP PUSH1 0x1 DUP2 PUSH2 0x14E8 SWAP2 SWAP1 PUSH2 0x2DFB JUMP JUMPDEST PUSH1 0x4 DUP2 SWAP1 SSTORE POP PUSH1 0x0 PUSH4 0x40429946 PUSH1 0xE0 SHL PUSH1 0x0 DUP1 DUP8 PUSH1 0x0 ADD MLOAD ADDRESS DUP10 PUSH1 0x40 ADD MLOAD DUP8 PUSH1 0x1 DUP13 PUSH1 0x80 ADD MLOAD PUSH1 0x0 ADD MLOAD PUSH1 0x40 MLOAD PUSH1 0x24 ADD PUSH2 0x1529 SWAP9 SWAP8 SWAP7 SWAP6 SWAP5 SWAP4 SWAP3 SWAP2 SWAP1 PUSH2 0x299C JUMP JUMPDEST PUSH1 0x40 MLOAD PUSH1 0x20 DUP2 DUP4 SUB SUB DUP2 MSTORE SWAP1 PUSH1 0x40 MSTORE SWAP1 PUSH28 0xFFFFFFFFFFFFFFFFFFFFFFFFFFFFFFFFFFFFFFFFFFFFFFFFFFFFFFFF NOT AND PUSH1 0x20 DUP3 ADD DUP1 MLOAD PUSH28 0xFFFFFFFFFFFFFFFFFFFFFFFFFFFFFFFFFFFFFFFFFFFFFFFFFFFFFFFF DUP4 DUP2 DUP4 AND OR DUP4 MSTORE POP POP POP POP SWAP1 POP PUSH2 0x1594 DUP7 DUP4 DUP7 DUP5 PUSH2 0x18AC JUMP JUMPDEST SWAP3 POP POP POP SWAP4 SWAP3 POP POP POP JUMP JUMPDEST PUSH1 0x0 DUP4 SWAP1 POP PUSH2 0x15BB DUP4 DUP3 PUSH1 0x80 ADD MLOAD PUSH2 0x1462 SWAP1 SWAP2 SWAP1 PUSH4 0xFFFFFFFF AND JUMP JUMPDEST PUSH2 0x15C8 DUP2 PUSH1 0x80 ADD MLOAD PUSH2 0x14B7 JUMP JUMPDEST PUSH1 0x0 DUP3 MLOAD SWAP1 POP PUSH1 0x0 JUMPDEST DUP2 DUP2 LT ISZERO PUSH2 0x1615 JUMPI PUSH2 0x160A DUP5 DUP3 DUP2 MLOAD DUP2 LT PUSH2 0x15EF JUMPI PUSH2 0x15EE PUSH2 0x3331 JUMP JUMPDEST JUMPDEST PUSH1 0x20 MUL PUSH1 0x20 ADD ADD MLOAD DUP5 PUSH1 0x80 ADD MLOAD PUSH2 0x1487 SWAP1 SWAP2 SWAP1 PUSH4 0xFFFFFFFF AND JUMP JUMPDEST DUP1 PUSH1 0x1 ADD SWAP1 POP PUSH2 0x15D1 JUMP JUMPDEST POP PUSH2 0x1623 DUP3 PUSH1 0x80 ADD MLOAD PUSH2 0x14C5 JUMP JUMPDEST DUP2 SWAP5 POP POP POP POP POP POP JUMP JUMPDEST PUSH2 0x1635 PUSH2 0x1E5C JUMP JUMPDEST PUSH1 0x0 PUSH1 0x20 DUP4 PUSH2 0x1644 SWAP2 SWAP1 PUSH2 0x3273 JUMP JUMPDEST EQ PUSH2 0x1670 JUMPI PUSH1 0x20 DUP3 PUSH2 0x1656 SWAP2 SWAP1 PUSH2 0x3273 JUMP JUMPDEST PUSH1 0x20 PUSH2 0x1662 SWAP2 SWAP1 PUSH2 0x301C JUMP JUMPDEST DUP3 PUSH2 0x166D SWAP2 SWAP1 PUSH2 0x2DFB JUMP JUMPDEST SWAP2 POP JUMPDEST DUP2 DUP4 PUSH1 0x20 ADD DUP2 DUP2 MSTORE POP POP PUSH1 0x40 MLOAD DUP1 DUP5 MSTORE PUSH1 0x0 DUP2 MSTORE DUP3 DUP2 ADD PUSH1 0x20 ADD PUSH1 0x40 MSTORE POP DUP3 SWAP1 POP SWAP3 SWAP2 POP POP JUMP JUMPDEST PUSH1 0x17 DUP2 PUSH8 0xFFFFFFFFFFFFFFFF AND GT PUSH2 0x16CE JUMPI PUSH2 0x16C8 DUP2 PUSH1 0x5 DUP5 PUSH1 0xFF AND SWAP1 SHL PUSH1 0xFF AND OR DUP5 PUSH2 0x1A50 SWAP1 SWAP2 SWAP1 PUSH4 0xFFFFFFFF AND JUMP JUMPDEST POP PUSH2 0x1817 JUMP JUMPDEST PUSH1 0xFF DUP2 PUSH8 0xFFFFFFFFFFFFFFFF AND GT PUSH2 0x1724 JUMPI PUSH2 0x16FD PUSH1 0x18 PUSH1 0x5 DUP5 PUSH1 0xFF AND SWAP1 SHL OR DUP5 PUSH2 0x1A50 SWAP1 SWAP2 SWAP1 PUSH4 0xFFFFFFFF AND JUMP JUMPDEST POP PUSH2 0x171E DUP2 PUSH8 0xFFFFFFFFFFFFFFFF AND PUSH1 0x1 DUP6 PUSH2 0x1A70 SWAP1 SWAP3 SWAP2 SWAP1 PUSH4 0xFFFFFFFF AND JUMP JUMPDEST POP PUSH2 0x1816 JUMP JUMPDEST PUSH2 0xFFFF DUP2 PUSH8 0xFFFFFFFFFFFFFFFF AND GT PUSH2 0x177B JUMPI PUSH2 0x1754 PUSH1 0x19 PUSH1 0x5 DUP5 PUSH1 0xFF AND SWAP1 SHL OR DUP5 PUSH2 0x1A50 SWAP1 SWAP2 SWAP1 PUSH4 0xFFFFFFFF AND JUMP JUMPDEST POP PUSH2 0x1775 DUP2 PUSH8 0xFFFFFFFFFFFFFFFF AND PUSH1 0x2 DUP6 PUSH2 0x1A70 SWAP1 SWAP3 SWAP2 SWAP1 PUSH4 0xFFFFFFFF AND JUMP JUMPDEST POP PUSH2 0x1815 JUMP JUMPDEST PUSH4 0xFFFFFFFF DUP2 PUSH8 0xFFFFFFFFFFFFFFFF AND GT PUSH2 0x17D4 JUMPI PUSH2 0x17AD PUSH1 0x1A PUSH1 0x5 DUP5 PUSH1 0xFF AND SWAP1 SHL OR DUP5 PUSH2 0x1A50 SWAP1 SWAP2 SWAP1 PUSH4 0xFFFFFFFF AND JUMP JUMPDEST POP PUSH2 0x17CE DUP2 PUSH8 0xFFFFFFFFFFFFFFFF AND PUSH1 0x4 DUP6 PUSH2 0x1A70 SWAP1 SWAP3 SWAP2 SWAP1 PUSH4 0xFFFFFFFF AND JUMP JUMPDEST POP PUSH2 0x1814 JUMP JUMPDEST PUSH2 0x17F1 PUSH1 0x1B PUSH1 0x5 DUP5 PUSH1 0xFF AND SWAP1 SHL OR DUP5 PUSH2 0x1A50 SWAP1 SWAP2 SWAP1 PUSH4 0xFFFFFFFF AND JUMP JUMPDEST POP PUSH2 0x1812 DUP2 PUSH8 0xFFFFFFFFFFFFFFFF AND PUSH1 0x8 DUP6 PUSH2 0x1A70 SWAP1 SWAP3 SWAP2 SWAP1 PUSH4 0xFFFFFFFF AND JUMP JUMPDEST POP JUMPDEST JUMPDEST JUMPDEST JUMPDEST POP POP POP JUMP JUMPDEST PUSH2 0x1824 PUSH2 0x1E5C JUMP JUMPDEST PUSH2 0x1836 DUP4 DUP5 PUSH1 0x0 ADD MLOAD MLOAD DUP5 DUP6 MLOAD PUSH2 0x1A92 JUMP JUMPDEST SWAP1 POP SWAP3 SWAP2 POP POP JUMP JUMPDEST PUSH2 0x185C PUSH1 0x2 PUSH1 0x5 PUSH1 0x6 PUSH1 0xFF AND SWAP1 SHL OR DUP4 PUSH2 0x1A50 SWAP1 SWAP2 SWAP1 PUSH4 0xFFFFFFFF AND JUMP JUMPDEST POP PUSH2 0x1886 DUP3 DUP3 PUSH1 0x40 MLOAD PUSH1 0x20 ADD PUSH2 0x1872 SWAP2 SWAP1 PUSH2 0x2C14 JUMP JUMPDEST PUSH1 0x40 MLOAD PUSH1 0x20 DUP2 DUP4 SUB SUB DUP2 MSTORE SWAP1 PUSH1 0x40 MSTORE PUSH2 0x1B81 JUMP JUMPDEST POP POP JUMP JUMPDEST PUSH2 0x18A7 PUSH1 0x1F PUSH1 0x5 DUP4 PUSH1 0xFF AND SWAP1 SHL OR DUP4 PUSH2 0x1A50 SWAP1 SWAP2 SWAP1 PUSH4 0xFFFFFFFF AND JUMP JUMPDEST POP POP POP JUMP JUMPDEST PUSH1 0x0 ADDRESS DUP5 PUSH1 0x40 MLOAD PUSH1 0x20 ADD PUSH2 0x18C1 SWAP3 SWAP2 SWAP1 PUSH2 0x292C JUMP JUMPDEST PUSH1 0x40 MLOAD PUSH1 0x20 DUP2 DUP4 SUB SUB DUP2 MSTORE SWAP1 PUSH1 0x40 MSTORE DUP1 MLOAD SWAP1 PUSH1 0x20 ADD KECCAK256 SWAP1 POP DUP5 PUSH1 0x5 PUSH1 0x0 DUP4 DUP2 MSTORE PUSH1 0x20 ADD SWAP1 DUP2 MSTORE PUSH1 0x20 ADD PUSH1 0x0 KECCAK256 PUSH1 0x0 PUSH2 0x100 EXP DUP2 SLOAD DUP2 PUSH20 0xFFFFFFFFFFFFFFFFFFFFFFFFFFFFFFFFFFFFFFFF MUL NOT AND SWAP1 DUP4 PUSH20 0xFFFFFFFFFFFFFFFFFFFFFFFFFFFFFFFFFFFFFFFF AND MUL OR SWAP1 SSTORE POP DUP1 PUSH32 0xB5E6E01E79F91267DC17B4E6314D5D4D03593D2CEEE0FBB452B750BD70EA5AF9 PUSH1 0x40 MLOAD PUSH1 0x40 MLOAD DUP1 SWAP2 SUB SWAP1 LOG2 PUSH1 0x2 PUSH1 0x0 SWAP1 SLOAD SWAP1 PUSH2 0x100 EXP SWAP1 DIV PUSH20 0xFFFFFFFFFFFFFFFFFFFFFFFFFFFFFFFFFFFFFFFF AND PUSH20 0xFFFFFFFFFFFFFFFFFFFFFFFFFFFFFFFFFFFFFFFF AND PUSH4 0x4000AEA0 DUP7 DUP6 DUP6 PUSH1 0x40 MLOAD DUP5 PUSH4 0xFFFFFFFF AND PUSH1 0xE0 SHL DUP2 MSTORE PUSH1 0x4 ADD PUSH2 0x19B7 SWAP4 SWAP3 SWAP2 SWAP1 PUSH2 0x2A21 JUMP JUMPDEST PUSH1 0x20 PUSH1 0x40 MLOAD DUP1 DUP4 SUB DUP2 PUSH1 0x0 DUP8 DUP1 EXTCODESIZE ISZERO DUP1 ISZERO PUSH2 0x19D1 JUMPI PUSH1 0x0 DUP1 REVERT JUMPDEST POP GAS CALL ISZERO DUP1 ISZERO PUSH2 0x19E5 JUMPI RETURNDATASIZE PUSH1 0x0 DUP1 RETURNDATACOPY RETURNDATASIZE PUSH1 0x0 REVERT JUMPDEST POP POP POP POP PUSH1 0x40 MLOAD RETURNDATASIZE PUSH1 0x1F NOT PUSH1 0x1F DUP3 ADD AND DUP3 ADD DUP1 PUSH1 0x40 MSTORE POP DUP2 ADD SWAP1 PUSH2 0x1A09 SWAP2 SWAP1 PUSH2 0x23C8 JUMP JUMPDEST PUSH2 0x1A48 JUMPI PUSH1 0x40 MLOAD PUSH32 0x8C379A000000000000000000000000000000000000000000000000000000000 DUP2 MSTORE PUSH1 0x4 ADD PUSH2 0x1A3F SWAP1 PUSH2 0x2B7E JUMP JUMPDEST PUSH1 0x40 MLOAD DUP1 SWAP2 SUB SWAP1 REVERT JUMPDEST SWAP5 SWAP4 POP POP POP POP JUMP JUMPDEST PUSH2 0x1A58 PUSH2 0x1E5C JUMP JUMPDEST PUSH2 0x1A68 DUP4 DUP5 PUSH1 0x0 ADD MLOAD MLOAD DUP5 PUSH2 0x1BA6 JUMP JUMPDEST SWAP1 POP SWAP3 SWAP2 POP POP JUMP JUMPDEST PUSH2 0x1A78 PUSH2 0x1E5C JUMP JUMPDEST PUSH2 0x1A89 DUP5 DUP6 PUSH1 0x0 ADD MLOAD MLOAD DUP6 DUP6 PUSH2 0x1BFD JUMP JUMPDEST SWAP1 POP SWAP4 SWAP3 POP POP POP JUMP JUMPDEST PUSH2 0x1A9A PUSH2 0x1E5C JUMP JUMPDEST DUP3 MLOAD DUP3 GT ISZERO PUSH2 0x1AA8 JUMPI PUSH1 0x0 DUP1 REVERT JUMPDEST DUP5 PUSH1 0x20 ADD MLOAD DUP3 DUP6 PUSH2 0x1AB9 SWAP2 SWAP1 PUSH2 0x2DFB JUMP JUMPDEST GT ISZERO PUSH2 0x1AEE JUMPI PUSH2 0x1AED DUP6 PUSH1 0x2 PUSH2 0x1ADE DUP9 PUSH1 0x20 ADD MLOAD DUP9 DUP8 PUSH2 0x1AD9 SWAP2 SWAP1 PUSH2 0x2DFB JUMP JUMPDEST PUSH2 0x1C8B JUMP JUMPDEST PUSH2 0x1AE8 SWAP2 SWAP1 PUSH2 0x2FC2 JUMP JUMPDEST PUSH2 0x1CA7 JUMP JUMPDEST JUMPDEST PUSH1 0x0 DUP1 DUP7 MLOAD DUP1 MLOAD DUP8 PUSH1 0x20 DUP4 ADD ADD SWAP4 POP DUP1 DUP9 DUP8 ADD GT ISZERO PUSH2 0x1B0D JUMPI DUP8 DUP7 ADD DUP3 MSTORE JUMPDEST PUSH1 0x20 DUP8 ADD SWAP3 POP POP POP JUMPDEST PUSH1 0x20 DUP5 LT PUSH2 0x1B54 JUMPI DUP1 MLOAD DUP3 MSTORE PUSH1 0x20 DUP3 PUSH2 0x1B2F SWAP2 SWAP1 PUSH2 0x2DFB JUMP JUMPDEST SWAP2 POP PUSH1 0x20 DUP2 PUSH2 0x1B3E SWAP2 SWAP1 PUSH2 0x2DFB JUMP JUMPDEST SWAP1 POP PUSH1 0x20 DUP5 PUSH2 0x1B4D SWAP2 SWAP1 PUSH2 0x301C JUMP JUMPDEST SWAP4 POP PUSH2 0x1B16 JUMP JUMPDEST PUSH1 0x0 PUSH1 0x1 DUP6 PUSH1 0x20 SUB PUSH2 0x100 EXP SUB SWAP1 POP DUP1 NOT DUP3 MLOAD AND DUP2 DUP5 MLOAD AND DUP2 DUP2 OR DUP6 MSTORE POP POP POP DUP7 SWAP3 POP POP POP SWAP5 SWAP4 POP POP POP POP JUMP JUMPDEST PUSH2 0x1B8E DUP3 PUSH1 0x2 DUP4 MLOAD PUSH2 0x1697 JUMP JUMPDEST PUSH2 0x1BA1 DUP2 DUP4 PUSH2 0x181C SWAP1 SWAP2 SWAP1 PUSH4 0xFFFFFFFF AND JUMP JUMPDEST POP POP POP JUMP JUMPDEST PUSH2 0x1BAE PUSH2 0x1E5C JUMP JUMPDEST DUP4 PUSH1 0x20 ADD MLOAD DUP4 LT PUSH2 0x1BD4 JUMPI PUSH2 0x1BD3 DUP5 PUSH1 0x2 DUP7 PUSH1 0x20 ADD MLOAD PUSH2 0x1BCE SWAP2 SWAP1 PUSH2 0x2FC2 JUMP JUMPDEST PUSH2 0x1CA7 JUMP JUMPDEST JUMPDEST DUP4 MLOAD DUP1 MLOAD PUSH1 0x20 DUP6 DUP4 ADD ADD DUP5 DUP2 MSTORE8 DUP2 DUP7 EQ ISZERO PUSH2 0x1BF0 JUMPI PUSH1 0x1 DUP3 ADD DUP4 MSTORE JUMPDEST POP POP POP DUP4 SWAP1 POP SWAP4 SWAP3 POP POP POP JUMP JUMPDEST PUSH2 0x1C05 PUSH2 0x1E5C JUMP JUMPDEST DUP5 PUSH1 0x20 ADD MLOAD DUP5 DUP4 PUSH2 0x1C16 SWAP2 SWAP1 PUSH2 0x2DFB JUMP JUMPDEST GT ISZERO PUSH2 0x1C3E JUMPI PUSH2 0x1C3D DUP6 PUSH1 0x2 DUP7 DUP6 PUSH2 0x1C2E SWAP2 SWAP1 PUSH2 0x2DFB JUMP JUMPDEST PUSH2 0x1C38 SWAP2 SWAP1 PUSH2 0x2FC2 JUMP JUMPDEST PUSH2 0x1CA7 JUMP JUMPDEST JUMPDEST PUSH1 0x0 PUSH1 0x1 DUP4 PUSH2 0x100 PUSH2 0x1C50 SWAP2 SWAP1 PUSH2 0x2EA4 JUMP JUMPDEST PUSH2 0x1C5A SWAP2 SWAP1 PUSH2 0x301C JUMP JUMPDEST SWAP1 POP DUP6 MLOAD DUP4 DUP7 DUP3 ADD ADD DUP6 DUP4 NOT DUP3 MLOAD AND OR DUP2 MSTORE DUP2 MLOAD DUP6 DUP9 ADD GT ISZERO PUSH2 0x1C7D JUMPI DUP5 DUP8 ADD DUP3 MSTORE JUMPDEST POP POP DUP6 SWAP2 POP POP SWAP5 SWAP4 POP POP POP POP JUMP JUMPDEST PUSH1 0x0 DUP2 DUP4 GT ISZERO PUSH2 0x1C9D JUMPI DUP3 SWAP1 POP PUSH2 0x1CA1 JUMP JUMPDEST DUP2 SWAP1 POP JUMPDEST SWAP3 SWAP2 POP POP JUMP JUMPDEST PUSH1 0x0 DUP3 PUSH1 0x0 ADD MLOAD SWAP1 POP PUSH2 0x1CBA DUP4 DUP4 PUSH2 0x162D JUMP JUMPDEST POP PUSH2 0x1CC5 DUP4 DUP3 PUSH2 0x181C JUMP JUMPDEST POP POP POP POP JUMP JUMPDEST DUP3 DUP1 SLOAD DUP3 DUP3 SSTORE SWAP1 PUSH1 0x0 MSTORE PUSH1 0x20 PUSH1 0x0 KECCAK256 SWAP1 DUP2 ADD SWAP3 DUP3 ISZERO PUSH2 0x1D07 JUMPI SWAP2 PUSH1 0x20 MUL DUP3 ADD JUMPDEST DUP3 DUP2 GT ISZERO PUSH2 0x1D06 JUMPI DUP3 MLOAD DUP3 SSTORE SWAP2 PUSH1 0x20 ADD SWAP2 SWAP1 PUSH1 0x1 ADD SWAP1 PUSH2 0x1CEB JUMP JUMPDEST JUMPDEST POP SWAP1 POP PUSH2 0x1D14 SWAP2 SWAP1 PUSH2 0x1E76 JUMP JUMPDEST POP SWAP1 JUMP JUMPDEST DUP3 DUP1 SLOAD DUP3 DUP3 SSTORE SWAP1 PUSH1 0x0 MSTORE PUSH1 0x20 PUSH1 0x0 KECCAK256 SWAP1 DUP2 ADD SWAP3 DUP3 ISZERO PUSH2 0x1D67 JUMPI SWAP2 PUSH1 0x20 MUL DUP3 ADD JUMPDEST DUP3 DUP2 GT ISZERO PUSH2 0x1D66 JUMPI DUP3 MLOAD DUP3 SWAP1 DUP1 MLOAD SWAP1 PUSH1 0x20 ADD SWAP1 PUSH2 0x1D56 SWAP3 SWAP2 SWAP1 PUSH2 0x1E93 JUMP JUMPDEST POP SWAP2 PUSH1 0x20 ADD SWAP2 SWAP1 PUSH1 0x1 ADD SWAP1 PUSH2 0x1D38 JUMP JUMPDEST JUMPDEST POP SWAP1 POP PUSH2 0x1D74 SWAP2 SWAP1 PUSH2 0x1F19 JUMP JUMPDEST POP SWAP1 JUMP JUMPDEST PUSH1 0x40 MLOAD DUP1 PUSH1 0x80 ADD PUSH1 0x40 MSTORE DUP1 PUSH1 0x0 PUSH4 0xFFFFFFFF AND DUP2 MSTORE PUSH1 0x20 ADD PUSH1 0x0 PUSH1 0xFF AND DUP2 MSTORE PUSH1 0x20 ADD PUSH1 0x0 PUSH1 0xFF AND DUP2 MSTORE PUSH1 0x20 ADD PUSH1 0x0 PUSH12 0xFFFFFFFFFFFFFFFFFFFFFFFF NOT AND DUP2 MSTORE POP SWAP1 JUMP JUMPDEST PUSH1 0x40 MLOAD DUP1 PUSH1 0x80 ADD PUSH1 0x40 MSTORE DUP1 PUSH1 0x0 DUP1 NOT AND DUP2 MSTORE PUSH1 0x20 ADD PUSH1 0x0 PUSH1 0xFF AND DUP2 MSTORE PUSH1 0x20 ADD PUSH1 0x0 PUSH1 0xFF AND DUP2 MSTORE PUSH1 0x20 ADD PUSH1 0x0 PUSH1 0xFF AND DUP2 MSTORE POP SWAP1 JUMP JUMPDEST PUSH1 0x40 MLOAD DUP1 PUSH1 0xA0 ADD PUSH1 0x40 MSTORE DUP1 PUSH1 0x0 DUP1 NOT AND DUP2 MSTORE PUSH1 0x20 ADD PUSH1 0x0 PUSH20 0xFFFFFFFFFFFFFFFFFFFFFFFFFFFFFFFFFFFFFFFF AND DUP2 MSTORE PUSH1 0x20 ADD PUSH1 0x0 PUSH28 0xFFFFFFFFFFFFFFFFFFFFFFFFFFFFFFFFFFFFFFFFFFFFFFFFFFFFFFFF NOT AND DUP2 MSTORE PUSH1 0x20 ADD PUSH1 0x0 DUP2 MSTORE PUSH1 0x20 ADD PUSH2 0x1E56 PUSH2 0x1E5C JUMP JUMPDEST DUP2 MSTORE POP SWAP1 JUMP JUMPDEST PUSH1 0x40 MLOAD DUP1 PUSH1 0x40 ADD PUSH1 0x40 MSTORE DUP1 PUSH1 0x60 DUP2 MSTORE PUSH1 0x20 ADD PUSH1 0x0 DUP2 MSTORE POP SWAP1 JUMP JUMPDEST JUMPDEST DUP1 DUP3 GT ISZERO PUSH2 0x1E8F JUMPI PUSH1 0x0 DUP2 PUSH1 0x0 SWAP1 SSTORE POP PUSH1 0x1 ADD PUSH2 0x1E77 JUMP JUMPDEST POP SWAP1 JUMP JUMPDEST DUP3 DUP1 SLOAD PUSH2 0x1E9F SWAP1 PUSH2 0x318F JUMP JUMPDEST SWAP1 PUSH1 0x0 MSTORE PUSH1 0x20 PUSH1 0x0 KECCAK256 SWAP1 PUSH1 0x1F ADD PUSH1 0x20 SWAP1 DIV DUP2 ADD SWAP3 DUP3 PUSH2 0x1EC1 JUMPI PUSH1 0x0 DUP6 SSTORE PUSH2 0x1F08 JUMP JUMPDEST DUP3 PUSH1 0x1F LT PUSH2 0x1EDA JUMPI DUP1 MLOAD PUSH1 0xFF NOT AND DUP4 DUP1 ADD OR DUP6 SSTORE PUSH2 0x1F08 JUMP JUMPDEST DUP3 DUP1 ADD PUSH1 0x1 ADD DUP6 SSTORE DUP3 ISZERO PUSH2 0x1F08 JUMPI SWAP2 DUP3 ADD JUMPDEST DUP3 DUP2 GT ISZERO PUSH2 0x1F07 JUMPI DUP3 MLOAD DUP3 SSTORE SWAP2 PUSH1 0x20 ADD SWAP2 SWAP1 PUSH1 0x1 ADD SWAP1 PUSH2 0x1EEC JUMP JUMPDEST JUMPDEST POP SWAP1 POP PUSH2 0x1F15 SWAP2 SWAP1 PUSH2 0x1F3D JUMP JUMPDEST POP SWAP1 JUMP JUMPDEST JUMPDEST DUP1 DUP3 GT ISZERO PUSH2 0x1F39 JUMPI PUSH1 0x0 DUP2 DUP2 PUSH2 0x1F30 SWAP2 SWAP1 PUSH2 0x1F5A JUMP JUMPDEST POP PUSH1 0x1 ADD PUSH2 0x1F1A JUMP JUMPDEST POP SWAP1 JUMP JUMPDEST JUMPDEST DUP1 DUP3 GT ISZERO PUSH2 0x1F56 JUMPI PUSH1 0x0 DUP2 PUSH1 0x0 SWAP1 SSTORE POP PUSH1 0x1 ADD PUSH2 0x1F3E JUMP JUMPDEST POP SWAP1 JUMP JUMPDEST POP DUP1 SLOAD PUSH2 0x1F66 SWAP1 PUSH2 0x318F JUMP JUMPDEST PUSH1 0x0 DUP3 SSTORE DUP1 PUSH1 0x1F LT PUSH2 0x1F78 JUMPI POP PUSH2 0x1F97 JUMP JUMPDEST PUSH1 0x1F ADD PUSH1 0x20 SWAP1 DIV SWAP1 PUSH1 0x0 MSTORE PUSH1 0x20 PUSH1 0x0 KECCAK256 SWAP1 DUP2 ADD SWAP1 PUSH2 0x1F96 SWAP2 SWAP1 PUSH2 0x1F3D JUMP JUMPDEST JUMPDEST POP JUMP JUMPDEST PUSH1 0x0 PUSH2 0x1FAD PUSH2 0x1FA8 DUP5 PUSH2 0x2CDD JUMP JUMPDEST PUSH2 0x2CB8 JUMP JUMPDEST SWAP1 POP DUP1 DUP4 DUP3 MSTORE PUSH1 0x20 DUP3 ADD SWAP1 POP DUP3 DUP6 PUSH1 0x20 DUP7 MUL DUP3 ADD GT ISZERO PUSH2 0x1FD0 JUMPI PUSH2 0x1FCF PUSH2 0x3399 JUMP JUMPDEST JUMPDEST PUSH1 0x0 JUMPDEST DUP6 DUP2 LT ISZERO PUSH2 0x2000 JUMPI DUP2 PUSH2 0x1FE6 DUP9 DUP3 PUSH2 0x225E JUMP JUMPDEST DUP5 MSTORE PUSH1 0x20 DUP5 ADD SWAP4 POP PUSH1 0x20 DUP4 ADD SWAP3 POP POP PUSH1 0x1 DUP2 ADD SWAP1 POP PUSH2 0x1FD3 JUMP JUMPDEST POP POP POP SWAP4 SWAP3 POP POP POP JUMP JUMPDEST PUSH1 0x0 PUSH2 0x201D PUSH2 0x2018 DUP5 PUSH2 0x2D09 JUMP JUMPDEST PUSH2 0x2CB8 JUMP JUMPDEST SWAP1 POP DUP1 DUP4 DUP3 MSTORE PUSH1 0x20 DUP3 ADD SWAP1 POP DUP3 DUP6 PUSH1 0x20 DUP7 MUL DUP3 ADD GT ISZERO PUSH2 0x2040 JUMPI PUSH2 0x203F PUSH2 0x3399 JUMP JUMPDEST JUMPDEST PUSH1 0x0 JUMPDEST DUP6 DUP2 LT ISZERO PUSH2 0x208E JUMPI DUP2 CALLDATALOAD PUSH8 0xFFFFFFFFFFFFFFFF DUP2 GT ISZERO PUSH2 0x2066 JUMPI PUSH2 0x2065 PUSH2 0x338F JUMP JUMPDEST JUMPDEST DUP1 DUP7 ADD PUSH2 0x2073 DUP10 DUP3 PUSH2 0x2288 JUMP JUMPDEST DUP6 MSTORE PUSH1 0x20 DUP6 ADD SWAP5 POP PUSH1 0x20 DUP5 ADD SWAP4 POP POP POP PUSH1 0x1 DUP2 ADD SWAP1 POP PUSH2 0x2043 JUMP JUMPDEST POP POP POP SWAP4 SWAP3 POP POP POP JUMP JUMPDEST PUSH1 0x0 PUSH2 0x20AB PUSH2 0x20A6 DUP5 PUSH2 0x2D35 JUMP JUMPDEST PUSH2 0x2CB8 JUMP JUMPDEST SWAP1 POP DUP1 DUP4 DUP3 MSTORE PUSH1 0x20 DUP3 ADD SWAP1 POP DUP3 DUP6 PUSH1 0x20 DUP7 MUL DUP3 ADD GT ISZERO PUSH2 0x20CE JUMPI PUSH2 0x20CD PUSH2 0x3399 JUMP JUMPDEST JUMPDEST PUSH1 0x0 JUMPDEST DUP6 DUP2 LT ISZERO PUSH2 0x211C JUMPI DUP2 CALLDATALOAD PUSH8 0xFFFFFFFFFFFFFFFF DUP2 GT ISZERO PUSH2 0x20F4 JUMPI PUSH2 0x20F3 PUSH2 0x338F JUMP JUMPDEST JUMPDEST DUP1 DUP7 ADD PUSH2 0x2101 DUP10 DUP3 PUSH2 0x22B6 JUMP JUMPDEST DUP6 MSTORE PUSH1 0x20 DUP6 ADD SWAP5 POP PUSH1 0x20 DUP5 ADD SWAP4 POP POP POP PUSH1 0x1 DUP2 ADD SWAP1 POP PUSH2 0x20D1 JUMP JUMPDEST POP POP POP SWAP4 SWAP3 POP POP POP JUMP JUMPDEST PUSH1 0x0 PUSH2 0x2139 PUSH2 0x2134 DUP5 PUSH2 0x2D61 JUMP JUMPDEST PUSH2 0x2CB8 JUMP JUMPDEST SWAP1 POP DUP3 DUP2 MSTORE PUSH1 0x20 DUP2 ADD DUP5 DUP5 DUP5 ADD GT ISZERO PUSH2 0x2155 JUMPI PUSH2 0x2154 PUSH2 0x339E JUMP JUMPDEST JUMPDEST PUSH2 0x2160 DUP5 DUP3 DUP6 PUSH2 0x314D JUMP JUMPDEST POP SWAP4 SWAP3 POP POP POP JUMP JUMPDEST PUSH1 0x0 PUSH2 0x217B PUSH2 0x2176 DUP5 PUSH2 0x2D92 JUMP JUMPDEST PUSH2 0x2CB8 JUMP JUMPDEST SWAP1 POP DUP3 DUP2 MSTORE PUSH1 0x20 DUP2 ADD DUP5 DUP5 DUP5 ADD GT ISZERO PUSH2 0x2197 JUMPI PUSH2 0x2196 PUSH2 0x339E JUMP JUMPDEST JUMPDEST PUSH2 0x21A2 DUP5 DUP3 DUP6 PUSH2 0x314D JUMP JUMPDEST POP SWAP4 SWAP3 POP POP POP JUMP JUMPDEST PUSH1 0x0 DUP2 CALLDATALOAD SWAP1 POP PUSH2 0x21B9 DUP2 PUSH2 0x358C JUMP JUMPDEST SWAP3 SWAP2 POP POP JUMP JUMPDEST PUSH1 0x0 DUP3 PUSH1 0x1F DUP4 ADD SLT PUSH2 0x21D4 JUMPI PUSH2 0x21D3 PUSH2 0x338F JUMP JUMPDEST JUMPDEST DUP2 CALLDATALOAD PUSH2 0x21E4 DUP5 DUP3 PUSH1 0x20 DUP7 ADD PUSH2 0x1F9A JUMP JUMPDEST SWAP2 POP POP SWAP3 SWAP2 POP POP JUMP JUMPDEST PUSH1 0x0 DUP3 PUSH1 0x1F DUP4 ADD SLT PUSH2 0x2202 JUMPI PUSH2 0x2201 PUSH2 0x338F JUMP JUMPDEST JUMPDEST DUP2 CALLDATALOAD PUSH2 0x2212 DUP5 DUP3 PUSH1 0x20 DUP7 ADD PUSH2 0x200A JUMP JUMPDEST SWAP2 POP POP SWAP3 SWAP2 POP POP JUMP JUMPDEST PUSH1 0x0 DUP3 PUSH1 0x1F DUP4 ADD SLT PUSH2 0x2230 JUMPI PUSH2 0x222F PUSH2 0x338F JUMP JUMPDEST JUMPDEST DUP2 CALLDATALOAD PUSH2 0x2240 DUP5 DUP3 PUSH1 0x20 DUP7 ADD PUSH2 0x2098 JUMP JUMPDEST SWAP2 POP POP SWAP3 SWAP2 POP POP JUMP JUMPDEST PUSH1 0x0 DUP2 MLOAD SWAP1 POP PUSH2 0x2258 DUP2 PUSH2 0x35A3 JUMP JUMPDEST SWAP3 SWAP2 POP POP JUMP JUMPDEST PUSH1 0x0 DUP2 CALLDATALOAD SWAP1 POP PUSH2 0x226D DUP2 PUSH2 0x35BA JUMP JUMPDEST SWAP3 SWAP2 POP POP JUMP JUMPDEST PUSH1 0x0 DUP2 MLOAD SWAP1 POP PUSH2 0x2282 DUP2 PUSH2 0x35BA JUMP JUMPDEST SWAP3 SWAP2 POP POP JUMP JUMPDEST PUSH1 0x0 DUP3 PUSH1 0x1F DUP4 ADD SLT PUSH2 0x229D JUMPI PUSH2 0x229C PUSH2 0x338F JUMP JUMPDEST JUMPDEST DUP2 CALLDATALOAD PUSH2 0x22AD DUP5 DUP3 PUSH1 0x20 DUP7 ADD PUSH2 0x2126 JUMP JUMPDEST SWAP2 POP POP SWAP3 SWAP2 POP POP JUMP JUMPDEST PUSH1 0x0 DUP3 PUSH1 0x1F DUP4 ADD SLT PUSH2 0x22CB JUMPI PUSH2 0x22CA PUSH2 0x338F JUMP JUMPDEST JUMPDEST DUP2 CALLDATALOAD PUSH2 0x22DB DUP5 DUP3 PUSH1 0x20 DUP7 ADD PUSH2 0x2168 JUMP JUMPDEST SWAP2 POP POP SWAP3 SWAP2 POP POP JUMP JUMPDEST PUSH1 0x0 PUSH1 0x80 DUP3 DUP5 SUB SLT ISZERO PUSH2 0x22FA JUMPI PUSH2 0x22F9 PUSH2 0x3394 JUMP JUMPDEST JUMPDEST PUSH2 0x2304 PUSH1 0x80 PUSH2 0x2CB8 JUMP JUMPDEST SWAP1 POP PUSH1 0x0 PUSH2 0x2314 DUP5 DUP3 DUP6 ADD PUSH2 0x2273 JUMP JUMPDEST PUSH1 0x0 DUP4 ADD MSTORE POP PUSH1 0x20 PUSH2 0x2328 DUP5 DUP3 DUP6 ADD PUSH2 0x2386 JUMP JUMPDEST PUSH1 0x20 DUP4 ADD MSTORE POP PUSH1 0x40 PUSH2 0x233C DUP5 DUP3 DUP6 ADD PUSH2 0x2386 JUMP JUMPDEST PUSH1 0x40 DUP4 ADD MSTORE POP PUSH1 0x60 PUSH2 0x2350 DUP5 DUP3 DUP6 ADD PUSH2 0x2386 JUMP JUMPDEST PUSH1 0x60 DUP4 ADD MSTORE POP SWAP3 SWAP2 POP POP JUMP JUMPDEST PUSH1 0x0 DUP2 CALLDATALOAD SWAP1 POP PUSH2 0x236B DUP2 PUSH2 0x35D1 JUMP JUMPDEST SWAP3 SWAP2 POP POP JUMP JUMPDEST PUSH1 0x0 DUP2 MLOAD SWAP1 POP PUSH2 0x2380 DUP2 PUSH2 0x35D1 JUMP JUMPDEST SWAP3 SWAP2 POP POP JUMP JUMPDEST PUSH1 0x0 DUP2 MLOAD SWAP1 POP PUSH2 0x2395 DUP2 PUSH2 0x35E8 JUMP JUMPDEST SWAP3 SWAP2 POP POP JUMP JUMPDEST PUSH1 0x0 PUSH1 0x20 DUP3 DUP5 SUB SLT ISZERO PUSH2 0x23B1 JUMPI PUSH2 0x23B0 PUSH2 0x33A8 JUMP JUMPDEST JUMPDEST PUSH1 0x0 PUSH2 0x23BF DUP5 DUP3 DUP6 ADD PUSH2 0x21AA JUMP JUMPDEST SWAP2 POP POP SWAP3 SWAP2 POP POP JUMP JUMPDEST PUSH1 0x0 PUSH1 0x20 DUP3 DUP5 SUB SLT ISZERO PUSH2 0x23DE JUMPI PUSH2 0x23DD PUSH2 0x33A8 JUMP JUMPDEST JUMPDEST PUSH1 0x0 PUSH2 0x23EC DUP5 DUP3 DUP6 ADD PUSH2 0x2249 JUMP JUMPDEST SWAP2 POP POP SWAP3 SWAP2 POP POP JUMP JUMPDEST PUSH1 0x0 DUP1 PUSH1 0x40 DUP4 DUP6 SUB SLT ISZERO PUSH2 0x240C JUMPI PUSH2 0x240B PUSH2 0x33A8 JUMP JUMPDEST JUMPDEST PUSH1 0x0 PUSH2 0x241A DUP6 DUP3 DUP7 ADD PUSH2 0x225E JUMP JUMPDEST SWAP3 POP POP PUSH1 0x20 DUP4 ADD CALLDATALOAD PUSH8 0xFFFFFFFFFFFFFFFF DUP2 GT ISZERO PUSH2 0x243B JUMPI PUSH2 0x243A PUSH2 0x33A3 JUMP JUMPDEST JUMPDEST PUSH2 0x2447 DUP6 DUP3 DUP7 ADD PUSH2 0x21BF JUMP JUMPDEST SWAP2 POP POP SWAP3 POP SWAP3 SWAP1 POP JUMP JUMPDEST PUSH1 0x0 DUP1 PUSH1 0x40 DUP4 DUP6 SUB SLT ISZERO PUSH2 0x2468 JUMPI PUSH2 0x2467 PUSH2 0x33A8 JUMP JUMPDEST JUMPDEST PUSH1 0x0 PUSH2 0x2476 DUP6 DUP3 DUP7 ADD PUSH2 0x225E JUMP JUMPDEST SWAP3 POP POP PUSH1 0x20 DUP4 ADD CALLDATALOAD PUSH8 0xFFFFFFFFFFFFFFFF DUP2 GT ISZERO PUSH2 0x2497 JUMPI PUSH2 0x2496 PUSH2 0x33A3 JUMP JUMPDEST JUMPDEST PUSH2 0x24A3 DUP6 DUP3 DUP7 ADD PUSH2 0x21ED JUMP JUMPDEST SWAP2 POP POP SWAP3 POP SWAP3 SWAP1 POP JUMP JUMPDEST PUSH1 0x0 DUP1 PUSH1 0x0 DUP1 PUSH1 0x0 DUP1 PUSH1 0x0 PUSH1 0xE0 DUP9 DUP11 SUB SLT ISZERO PUSH2 0x24CC JUMPI PUSH2 0x24CB PUSH2 0x33A8 JUMP JUMPDEST JUMPDEST PUSH1 0x0 PUSH2 0x24DA DUP11 DUP3 DUP12 ADD PUSH2 0x225E JUMP JUMPDEST SWAP8 POP POP PUSH1 0x20 PUSH2 0x24EB DUP11 DUP3 DUP12 ADD PUSH2 0x235C JUMP JUMPDEST SWAP7 POP POP PUSH1 0x40 DUP9 ADD CALLDATALOAD PUSH8 0xFFFFFFFFFFFFFFFF DUP2 GT ISZERO PUSH2 0x250C JUMPI PUSH2 0x250B PUSH2 0x33A3 JUMP JUMPDEST JUMPDEST PUSH2 0x2518 DUP11 DUP3 DUP12 ADD PUSH2 0x22B6 JUMP JUMPDEST SWAP6 POP POP PUSH1 0x60 PUSH2 0x2529 DUP11 DUP3 DUP12 ADD PUSH2 0x235C JUMP JUMPDEST SWAP5 POP POP PUSH1 0x80 PUSH2 0x253A DUP11 DUP3 DUP12 ADD PUSH2 0x235C JUMP JUMPDEST SWAP4 POP POP PUSH1 0xA0 DUP9 ADD CALLDATALOAD PUSH8 0xFFFFFFFFFFFFFFFF DUP2 GT ISZERO PUSH2 0x255B JUMPI PUSH2 0x255A PUSH2 0x33A3 JUMP JUMPDEST JUMPDEST PUSH2 0x2567 DUP11 DUP3 DUP12 ADD PUSH2 0x221B JUMP JUMPDEST SWAP3 POP POP PUSH1 0xC0 DUP9 ADD CALLDATALOAD PUSH8 0xFFFFFFFFFFFFFFFF DUP2 GT ISZERO PUSH2 0x2588 JUMPI PUSH2 0x2587 PUSH2 0x33A3 JUMP JUMPDEST JUMPDEST PUSH2 0x2594 DUP11 DUP3 DUP12 ADD PUSH2 0x221B JUMP JUMPDEST SWAP2 POP POP SWAP3 SWAP6 SWAP9 SWAP2 SWAP5 SWAP8 POP SWAP3 SWAP6 POP JUMP JUMPDEST PUSH1 0x0 PUSH1 0x80 DUP3 DUP5 SUB SLT ISZERO PUSH2 0x25B9 JUMPI PUSH2 0x25B8 PUSH2 0x33A8 JUMP JUMPDEST JUMPDEST PUSH1 0x0 PUSH2 0x25C7 DUP5 DUP3 DUP6 ADD PUSH2 0x22E4 JUMP JUMPDEST SWAP2 POP POP SWAP3 SWAP2 POP POP JUMP JUMPDEST PUSH1 0x0 PUSH1 0x20 DUP3 DUP5 SUB SLT ISZERO PUSH2 0x25E6 JUMPI PUSH2 0x25E5 PUSH2 0x33A8 JUMP JUMPDEST JUMPDEST PUSH1 0x0 PUSH2 0x25F4 DUP5 DUP3 DUP6 ADD PUSH2 0x235C JUMP JUMPDEST SWAP2 POP POP SWAP3 SWAP2 POP POP JUMP JUMPDEST PUSH1 0x0 PUSH1 0x20 DUP3 DUP5 SUB SLT ISZERO PUSH2 0x2613 JUMPI PUSH2 0x2612 PUSH2 0x33A8 JUMP JUMPDEST JUMPDEST PUSH1 0x0 PUSH2 0x2621 DUP5 DUP3 DUP6 ADD PUSH2 0x2371 JUMP JUMPDEST SWAP2 POP POP SWAP3 SWAP2 POP POP JUMP JUMPDEST PUSH2 0x2633 DUP2 PUSH2 0x3050 JUMP JUMPDEST DUP3 MSTORE POP POP JUMP JUMPDEST PUSH2 0x2642 DUP2 PUSH2 0x3062 JUMP JUMPDEST DUP3 MSTORE POP POP JUMP JUMPDEST PUSH2 0x2651 DUP2 PUSH2 0x306E JUMP JUMPDEST DUP3 MSTORE POP POP JUMP JUMPDEST PUSH2 0x2660 DUP2 PUSH2 0x306E JUMP JUMPDEST DUP3 MSTORE POP POP JUMP JUMPDEST PUSH2 0x266F DUP2 PUSH2 0x309A JUMP JUMPDEST DUP3 MSTORE POP POP JUMP JUMPDEST PUSH2 0x267E DUP2 PUSH2 0x309A JUMP JUMPDEST DUP3 MSTORE POP POP JUMP JUMPDEST PUSH2 0x2695 PUSH2 0x2690 DUP3 PUSH2 0x309A JUMP JUMPDEST PUSH2 0x324D JUMP JUMPDEST DUP3 MSTORE POP POP JUMP JUMPDEST PUSH2 0x26A4 DUP2 PUSH2 0x30A4 JUMP JUMPDEST DUP3 MSTORE POP POP JUMP JUMPDEST PUSH1 0x0 PUSH2 0x26B5 DUP3 PUSH2 0x2DC3 JUMP JUMPDEST PUSH2 0x26BF DUP2 DUP6 PUSH2 0x2DD9 JUMP JUMPDEST SWAP4 POP PUSH2 0x26CF DUP2 DUP6 PUSH1 0x20 DUP7 ADD PUSH2 0x315C JUMP JUMPDEST PUSH2 0x26D8 DUP2 PUSH2 0x33AD JUMP JUMPDEST DUP5 ADD SWAP2 POP POP SWAP3 SWAP2 POP POP JUMP JUMPDEST PUSH2 0x26F4 PUSH2 0x26EF DUP3 PUSH2 0x3117 JUMP JUMPDEST PUSH2 0x323B JUMP JUMPDEST DUP3 MSTORE POP POP JUMP JUMPDEST PUSH1 0x0 PUSH2 0x2705 DUP3 PUSH2 0x2DCE JUMP JUMPDEST PUSH2 0x270F DUP2 DUP6 PUSH2 0x2DEA JUMP JUMPDEST SWAP4 POP PUSH2 0x271F DUP2 DUP6 PUSH1 0x20 DUP7 ADD PUSH2 0x315C JUMP JUMPDEST PUSH2 0x2728 DUP2 PUSH2 0x33AD JUMP JUMPDEST DUP5 ADD SWAP2 POP POP SWAP3 SWAP2 POP POP JUMP JUMPDEST PUSH1 0x0 PUSH2 0x2740 PUSH1 0x23 DUP4 PUSH2 0x2DEA JUMP JUMPDEST SWAP2 POP PUSH2 0x274B DUP3 PUSH2 0x33D8 JUMP JUMPDEST PUSH1 0x40 DUP3 ADD SWAP1 POP SWAP2 SWAP1 POP JUMP JUMPDEST PUSH1 0x0 PUSH2 0x2763 PUSH1 0x2F DUP4 PUSH2 0x2DEA JUMP JUMPDEST SWAP2 POP PUSH2 0x276E DUP3 PUSH2 0x3427 JUMP JUMPDEST PUSH1 0x40 DUP3 ADD SWAP1 POP SWAP2 SWAP1 POP JUMP JUMPDEST PUSH1 0x0 PUSH2 0x2786 PUSH1 0x23 DUP4 PUSH2 0x2DEA JUMP JUMPDEST SWAP2 POP PUSH2 0x2791 DUP3 PUSH2 0x3476 JUMP JUMPDEST PUSH1 0x40 DUP3 ADD SWAP1 POP SWAP2 SWAP1 POP JUMP JUMPDEST PUSH1 0x0 PUSH2 0x27A9 PUSH1 0x23 DUP4 PUSH2 0x2DEA JUMP JUMPDEST SWAP2 POP PUSH2 0x27B4 DUP3 PUSH2 0x34C5 JUMP JUMPDEST PUSH1 0x40 DUP3 ADD SWAP1 POP SWAP2 SWAP1 POP JUMP JUMPDEST PUSH1 0x0 PUSH2 0x27CC PUSH1 0x12 DUP4 PUSH2 0x2DEA JUMP JUMPDEST SWAP2 POP PUSH2 0x27D7 DUP3 PUSH2 0x3514 JUMP JUMPDEST PUSH1 0x20 DUP3 ADD SWAP1 POP SWAP2 SWAP1 POP JUMP JUMPDEST PUSH1 0x0 PUSH2 0x27EF PUSH1 0x28 DUP4 PUSH2 0x2DEA JUMP JUMPDEST SWAP2 POP PUSH2 0x27FA DUP3 PUSH2 0x353D JUMP JUMPDEST PUSH1 0x40 DUP3 ADD SWAP1 POP SWAP2 SWAP1 POP JUMP JUMPDEST PUSH1 0x80 DUP3 ADD PUSH1 0x0 DUP3 ADD MLOAD PUSH2 0x281B PUSH1 0x0 DUP6 ADD DUP3 PUSH2 0x2666 JUMP JUMPDEST POP PUSH1 0x20 DUP3 ADD MLOAD PUSH2 0x282E PUSH1 0x20 DUP6 ADD DUP3 PUSH2 0x28F3 JUMP JUMPDEST POP PUSH1 0x40 DUP3 ADD MLOAD PUSH2 0x2841 PUSH1 0x40 DUP6 ADD DUP3 PUSH2 0x28F3 JUMP JUMPDEST POP PUSH1 0x60 DUP3 ADD MLOAD PUSH2 0x2854 PUSH1 0x60 DUP6 ADD DUP3 PUSH2 0x28F3 JUMP JUMPDEST POP POP POP POP JUMP JUMPDEST PUSH1 0x80 DUP3 ADD PUSH1 0x0 DUP3 ADD MLOAD PUSH2 0x2870 PUSH1 0x0 DUP6 ADD DUP3 PUSH2 0x28D5 JUMP JUMPDEST POP PUSH1 0x20 DUP3 ADD MLOAD PUSH2 0x2883 PUSH1 0x20 DUP6 ADD DUP3 PUSH2 0x28F3 JUMP JUMPDEST POP PUSH1 0x40 DUP3 ADD MLOAD PUSH2 0x2896 PUSH1 0x40 DUP6 ADD DUP3 PUSH2 0x28F3 JUMP JUMPDEST POP PUSH1 0x60 DUP3 ADD MLOAD PUSH2 0x28A9 PUSH1 0x60 DUP6 ADD DUP3 PUSH2 0x2648 JUMP JUMPDEST POP POP POP POP JUMP JUMPDEST PUSH2 0x28B8 DUP2 PUSH2 0x30F0 JUMP JUMPDEST DUP3 MSTORE POP POP JUMP JUMPDEST PUSH2 0x28CF PUSH2 0x28CA DUP3 PUSH2 0x30F0 JUMP JUMPDEST PUSH2 0x3269 JUMP JUMPDEST DUP3 MSTORE POP POP JUMP JUMPDEST PUSH2 0x28DE DUP2 PUSH2 0x30FA JUMP JUMPDEST DUP3 MSTORE POP POP JUMP JUMPDEST PUSH2 0x28ED DUP2 PUSH2 0x30FA JUMP JUMPDEST DUP3 MSTORE POP POP JUMP JUMPDEST PUSH2 0x28FC DUP2 PUSH2 0x310A JUMP JUMPDEST DUP3 MSTORE POP POP JUMP JUMPDEST PUSH2 0x290B DUP2 PUSH2 0x310A JUMP JUMPDEST DUP3 MSTORE POP POP JUMP JUMPDEST PUSH1 0x0 PUSH2 0x291D DUP3 DUP5 PUSH2 0x2684 JUMP JUMPDEST PUSH1 0x20 DUP3 ADD SWAP2 POP DUP2 SWAP1 POP SWAP3 SWAP2 POP POP JUMP JUMPDEST PUSH1 0x0 PUSH2 0x2938 DUP3 DUP6 PUSH2 0x26E3 JUMP JUMPDEST PUSH1 0x14 DUP3 ADD SWAP2 POP PUSH2 0x2948 DUP3 DUP5 PUSH2 0x28BE JUMP JUMPDEST PUSH1 0x20 DUP3 ADD SWAP2 POP DUP2 SWAP1 POP SWAP4 SWAP3 POP POP POP JUMP JUMPDEST PUSH1 0x0 PUSH1 0x20 DUP3 ADD SWAP1 POP PUSH2 0x296D PUSH1 0x0 DUP4 ADD DUP5 PUSH2 0x262A JUMP JUMPDEST SWAP3 SWAP2 POP POP JUMP JUMPDEST PUSH1 0x0 PUSH1 0x40 DUP3 ADD SWAP1 POP PUSH2 0x2988 PUSH1 0x0 DUP4 ADD DUP6 PUSH2 0x262A JUMP JUMPDEST PUSH2 0x2995 PUSH1 0x20 DUP4 ADD DUP5 PUSH2 0x28AF JUMP JUMPDEST SWAP4 SWAP3 POP POP POP JUMP JUMPDEST PUSH1 0x0 PUSH2 0x100 DUP3 ADD SWAP1 POP PUSH2 0x29B2 PUSH1 0x0 DUP4 ADD DUP12 PUSH2 0x262A JUMP JUMPDEST PUSH2 0x29BF PUSH1 0x20 DUP4 ADD DUP11 PUSH2 0x28AF JUMP JUMPDEST PUSH2 0x29CC PUSH1 0x40 DUP4 ADD DUP10 PUSH2 0x2675 JUMP JUMPDEST PUSH2 0x29D9 PUSH1 0x60 DUP4 ADD DUP9 PUSH2 0x262A JUMP JUMPDEST PUSH2 0x29E6 PUSH1 0x80 DUP4 ADD DUP8 PUSH2 0x269B JUMP JUMPDEST PUSH2 0x29F3 PUSH1 0xA0 DUP4 ADD DUP7 PUSH2 0x28AF JUMP JUMPDEST PUSH2 0x2A00 PUSH1 0xC0 DUP4 ADD DUP6 PUSH2 0x28AF JUMP JUMPDEST DUP2 DUP2 SUB PUSH1 0xE0 DUP4 ADD MSTORE PUSH2 0x2A12 DUP2 DUP5 PUSH2 0x26AA JUMP JUMPDEST SWAP1 POP SWAP10 SWAP9 POP POP POP POP POP POP POP POP POP JUMP JUMPDEST PUSH1 0x0 PUSH1 0x60 DUP3 ADD SWAP1 POP PUSH2 0x2A36 PUSH1 0x0 DUP4 ADD DUP7 PUSH2 0x262A JUMP JUMPDEST PUSH2 0x2A43 PUSH1 0x20 DUP4 ADD DUP6 PUSH2 0x28AF JUMP JUMPDEST DUP2 DUP2 SUB PUSH1 0x40 DUP4 ADD MSTORE PUSH2 0x2A55 DUP2 DUP5 PUSH2 0x26AA JUMP JUMPDEST SWAP1 POP SWAP5 SWAP4 POP POP POP POP JUMP JUMPDEST PUSH1 0x0 PUSH1 0x20 DUP3 ADD SWAP1 POP PUSH2 0x2A74 PUSH1 0x0 DUP4 ADD DUP5 PUSH2 0x2639 JUMP JUMPDEST SWAP3 SWAP2 POP POP JUMP JUMPDEST PUSH1 0x0 PUSH1 0x20 DUP3 ADD SWAP1 POP PUSH2 0x2A8F PUSH1 0x0 DUP4 ADD DUP5 PUSH2 0x2675 JUMP JUMPDEST SWAP3 SWAP2 POP POP JUMP JUMPDEST PUSH1 0x0 PUSH1 0x80 DUP3 ADD SWAP1 POP PUSH2 0x2AAA PUSH1 0x0 DUP4 ADD DUP8 PUSH2 0x2675 JUMP JUMPDEST PUSH2 0x2AB7 PUSH1 0x20 DUP4 ADD DUP7 PUSH2 0x2902 JUMP JUMPDEST PUSH2 0x2AC4 PUSH1 0x40 DUP4 ADD DUP6 PUSH2 0x2902 JUMP JUMPDEST PUSH2 0x2AD1 PUSH1 0x60 DUP4 ADD DUP5 PUSH2 0x2902 JUMP JUMPDEST SWAP6 SWAP5 POP POP POP POP POP JUMP JUMPDEST PUSH1 0x0 PUSH1 0x20 DUP3 ADD SWAP1 POP DUP2 DUP2 SUB PUSH1 0x0 DUP4 ADD MSTORE PUSH2 0x2AF4 DUP2 DUP5 PUSH2 0x26AA JUMP JUMPDEST SWAP1 POP SWAP3 SWAP2 POP POP JUMP JUMPDEST PUSH1 0x0 PUSH1 0x20 DUP3 ADD SWAP1 POP DUP2 DUP2 SUB PUSH1 0x0 DUP4 ADD MSTORE PUSH2 0x2B16 DUP2 DUP5 PUSH2 0x26FA JUMP JUMPDEST SWAP1 POP SWAP3 SWAP2 POP POP JUMP JUMPDEST PUSH1 0x0 PUSH1 0x20 DUP3 ADD SWAP1 POP DUP2 DUP2 SUB PUSH1 0x0 DUP4 ADD MSTORE PUSH2 0x2B37 DUP2 PUSH2 0x2733 JUMP JUMPDEST SWAP1 POP SWAP2 SWAP1 POP JUMP JUMPDEST PUSH1 0x0 PUSH1 0x20 DUP3 ADD SWAP1 POP DUP2 DUP2 SUB PUSH1 0x0 DUP4 ADD MSTORE PUSH2 0x2B57 DUP2 PUSH2 0x2756 JUMP JUMPDEST SWAP1 POP SWAP2 SWAP1 POP JUMP JUMPDEST PUSH1 0x0 PUSH1 0x20 DUP3 ADD SWAP1 POP DUP2 DUP2 SUB PUSH1 0x0 DUP4 ADD MSTORE PUSH2 0x2B77 DUP2 PUSH2 0x2779 JUMP JUMPDEST SWAP1 POP SWAP2 SWAP1 POP JUMP JUMPDEST PUSH1 0x0 PUSH1 0x20 DUP3 ADD SWAP1 POP DUP2 DUP2 SUB PUSH1 0x0 DUP4 ADD MSTORE PUSH2 0x2B97 DUP2 PUSH2 0x279C JUMP JUMPDEST SWAP1 POP SWAP2 SWAP1 POP JUMP JUMPDEST PUSH1 0x0 PUSH1 0x20 DUP3 ADD SWAP1 POP DUP2 DUP2 SUB PUSH1 0x0 DUP4 ADD MSTORE PUSH2 0x2BB7 DUP2 PUSH2 0x27BF JUMP JUMPDEST SWAP1 POP SWAP2 SWAP1 POP JUMP JUMPDEST PUSH1 0x0 PUSH1 0x20 DUP3 ADD SWAP1 POP DUP2 DUP2 SUB PUSH1 0x0 DUP4 ADD MSTORE PUSH2 0x2BD7 DUP2 PUSH2 0x27E2 JUMP JUMPDEST SWAP1 POP SWAP2 SWAP1 POP JUMP JUMPDEST PUSH1 0x0 PUSH1 0x80 DUP3 ADD SWAP1 POP PUSH2 0x2BF3 PUSH1 0x0 DUP4 ADD DUP5 PUSH2 0x2805 JUMP JUMPDEST SWAP3 SWAP2 POP POP JUMP JUMPDEST PUSH1 0x0 PUSH1 0x80 DUP3 ADD SWAP1 POP PUSH2 0x2C0E PUSH1 0x0 DUP4 ADD DUP5 PUSH2 0x285A JUMP JUMPDEST SWAP3 SWAP2 POP POP JUMP JUMPDEST PUSH1 0x0 PUSH1 0x20 DUP3 ADD SWAP1 POP PUSH2 0x2C29 PUSH1 0x0 DUP4 ADD DUP5 PUSH2 0x28AF JUMP JUMPDEST SWAP3 SWAP2 POP POP JUMP JUMPDEST PUSH1 0x0 PUSH1 0x40 DUP3 ADD SWAP1 POP PUSH2 0x2C44 PUSH1 0x0 DUP4 ADD DUP6 PUSH2 0x28AF JUMP JUMPDEST PUSH2 0x2C51 PUSH1 0x20 DUP4 ADD DUP5 PUSH2 0x28AF JUMP JUMPDEST SWAP4 SWAP3 POP POP POP JUMP JUMPDEST PUSH1 0x0 PUSH1 0x20 DUP3 ADD SWAP1 POP PUSH2 0x2C6D PUSH1 0x0 DUP4 ADD DUP5 PUSH2 0x28E4 JUMP JUMPDEST SWAP3 SWAP2 POP POP JUMP JUMPDEST PUSH1 0x0 PUSH1 0x80 DUP3 ADD SWAP1 POP PUSH2 0x2C88 PUSH1 0x0 DUP4 ADD DUP8 PUSH2 0x28E4 JUMP JUMPDEST PUSH2 0x2C95 PUSH1 0x20 DUP4 ADD DUP7 PUSH2 0x2902 JUMP JUMPDEST PUSH2 0x2CA2 PUSH1 0x40 DUP4 ADD DUP6 PUSH2 0x2902 JUMP JUMPDEST PUSH2 0x2CAF PUSH1 0x60 DUP4 ADD DUP5 PUSH2 0x2657 JUMP JUMPDEST SWAP6 SWAP5 POP POP POP POP POP JUMP JUMPDEST PUSH1 0x0 PUSH2 0x2CC2 PUSH2 0x2CD3 JUMP JUMPDEST SWAP1 POP PUSH2 0x2CCE DUP3 DUP3 PUSH2 0x31C1 JUMP JUMPDEST SWAP2 SWAP1 POP JUMP JUMPDEST PUSH1 0x0 PUSH1 0x40 MLOAD SWAP1 POP SWAP1 JUMP JUMPDEST PUSH1 0x0 PUSH8 0xFFFFFFFFFFFFFFFF DUP3 GT ISZERO PUSH2 0x2CF8 JUMPI PUSH2 0x2CF7 PUSH2 0x3360 JUMP JUMPDEST JUMPDEST PUSH1 0x20 DUP3 MUL SWAP1 POP PUSH1 0x20 DUP2 ADD SWAP1 POP SWAP2 SWAP1 POP JUMP JUMPDEST PUSH1 0x0 PUSH8 0xFFFFFFFFFFFFFFFF DUP3 GT ISZERO PUSH2 0x2D24 JUMPI PUSH2 0x2D23 PUSH2 0x3360 JUMP JUMPDEST JUMPDEST PUSH1 0x20 DUP3 MUL SWAP1 POP PUSH1 0x20 DUP2 ADD SWAP1 POP SWAP2 SWAP1 POP JUMP JUMPDEST PUSH1 0x0 PUSH8 0xFFFFFFFFFFFFFFFF DUP3 GT ISZERO PUSH2 0x2D50 JUMPI PUSH2 0x2D4F PUSH2 0x3360 JUMP JUMPDEST JUMPDEST PUSH1 0x20 DUP3 MUL SWAP1 POP PUSH1 0x20 DUP2 ADD SWAP1 POP SWAP2 SWAP1 POP JUMP JUMPDEST PUSH1 0x0 PUSH8 0xFFFFFFFFFFFFFFFF DUP3 GT ISZERO PUSH2 0x2D7C JUMPI PUSH2 0x2D7B PUSH2 0x3360 JUMP JUMPDEST JUMPDEST PUSH2 0x2D85 DUP3 PUSH2 0x33AD JUMP JUMPDEST SWAP1 POP PUSH1 0x20 DUP2 ADD SWAP1 POP SWAP2 SWAP1 POP JUMP JUMPDEST PUSH1 0x0 PUSH8 0xFFFFFFFFFFFFFFFF DUP3 GT ISZERO PUSH2 0x2DAD JUMPI PUSH2 0x2DAC PUSH2 0x3360 JUMP JUMPDEST JUMPDEST PUSH2 0x2DB6 DUP3 PUSH2 0x33AD JUMP JUMPDEST SWAP1 POP PUSH1 0x20 DUP2 ADD SWAP1 POP SWAP2 SWAP1 POP JUMP JUMPDEST PUSH1 0x0 DUP2 MLOAD SWAP1 POP SWAP2 SWAP1 POP JUMP JUMPDEST PUSH1 0x0 DUP2 MLOAD SWAP1 POP SWAP2 SWAP1 POP JUMP JUMPDEST PUSH1 0x0 DUP3 DUP3 MSTORE PUSH1 0x20 DUP3 ADD SWAP1 POP SWAP3 SWAP2 POP POP JUMP JUMPDEST PUSH1 0x0 DUP3 DUP3 MSTORE PUSH1 0x20 DUP3 ADD SWAP1 POP SWAP3 SWAP2 POP POP JUMP JUMPDEST PUSH1 0x0 PUSH2 0x2E06 DUP3 PUSH2 0x30F0 JUMP JUMPDEST SWAP2 POP PUSH2 0x2E11 DUP4 PUSH2 0x30F0 JUMP JUMPDEST SWAP3 POP DUP3 PUSH32 0xFFFFFFFFFFFFFFFFFFFFFFFFFFFFFFFFFFFFFFFFFFFFFFFFFFFFFFFFFFFFFFFF SUB DUP3 GT ISZERO PUSH2 0x2E46 JUMPI PUSH2 0x2E45 PUSH2 0x32A4 JUMP JUMPDEST JUMPDEST DUP3 DUP3 ADD SWAP1 POP SWAP3 SWAP2 POP POP JUMP JUMPDEST PUSH1 0x0 DUP1 DUP3 SWAP2 POP DUP4 SWAP1 POP JUMPDEST PUSH1 0x1 DUP6 GT ISZERO PUSH2 0x2E9B JUMPI DUP1 DUP7 DIV DUP2 GT ISZERO PUSH2 0x2E77 JUMPI PUSH2 0x2E76 PUSH2 0x32A4 JUMP JUMPDEST JUMPDEST PUSH1 0x1 DUP6 AND ISZERO PUSH2 0x2E86 JUMPI DUP1 DUP3 MUL SWAP2 POP JUMPDEST DUP1 DUP2 MUL SWAP1 POP PUSH2 0x2E94 DUP6 PUSH2 0x33CB JUMP JUMPDEST SWAP5 POP PUSH2 0x2E5B JUMP JUMPDEST SWAP5 POP SWAP5 SWAP3 POP POP POP JUMP JUMPDEST PUSH1 0x0 PUSH2 0x2EAF DUP3 PUSH2 0x30F0 JUMP JUMPDEST SWAP2 POP PUSH2 0x2EBA DUP4 PUSH2 0x30F0 JUMP JUMPDEST SWAP3 POP PUSH2 0x2EE7 PUSH32 0xFFFFFFFFFFFFFFFFFFFFFFFFFFFFFFFFFFFFFFFFFFFFFFFFFFFFFFFFFFFFFFFF DUP5 DUP5 PUSH2 0x2EEF JUMP JUMPDEST SWAP1 POP SWAP3 SWAP2 POP POP JUMP JUMPDEST PUSH1 0x0 DUP3 PUSH2 0x2EFF JUMPI PUSH1 0x1 SWAP1 POP PUSH2 0x2FBB JUMP JUMPDEST DUP2 PUSH2 0x2F0D JUMPI PUSH1 0x0 SWAP1 POP PUSH2 0x2FBB JUMP JUMPDEST DUP2 PUSH1 0x1 DUP2 EQ PUSH2 0x2F23 JUMPI PUSH1 0x2 DUP2 EQ PUSH2 0x2F2D JUMPI PUSH2 0x2F5C JUMP JUMPDEST PUSH1 0x1 SWAP2 POP POP PUSH2 0x2FBB JUMP JUMPDEST PUSH1 0xFF DUP5 GT ISZERO PUSH2 0x2F3F JUMPI PUSH2 0x2F3E PUSH2 0x32A4 JUMP JUMPDEST JUMPDEST DUP4 PUSH1 0x2 EXP SWAP2 POP DUP5 DUP3 GT ISZERO PUSH2 0x2F56 JUMPI PUSH2 0x2F55 PUSH2 0x32A4 JUMP JUMPDEST JUMPDEST POP PUSH2 0x2FBB JUMP JUMPDEST POP PUSH1 0x20 DUP4 LT PUSH2 0x133 DUP4 LT AND PUSH1 0x4E DUP5 LT PUSH1 0xB DUP5 LT AND OR ISZERO PUSH2 0x2F91 JUMPI DUP3 DUP3 EXP SWAP1 POP DUP4 DUP2 GT ISZERO PUSH2 0x2F8C JUMPI PUSH2 0x2F8B PUSH2 0x32A4 JUMP JUMPDEST JUMPDEST PUSH2 0x2FBB JUMP JUMPDEST PUSH2 0x2F9E DUP5 DUP5 DUP5 PUSH1 0x1 PUSH2 0x2E51 JUMP JUMPDEST SWAP3 POP SWAP1 POP DUP2 DUP5 DIV DUP2 GT ISZERO PUSH2 0x2FB5 JUMPI PUSH2 0x2FB4 PUSH2 0x32A4 JUMP JUMPDEST JUMPDEST DUP2 DUP2 MUL SWAP1 POP JUMPDEST SWAP4 SWAP3 POP POP POP JUMP JUMPDEST PUSH1 0x0 PUSH2 0x2FCD DUP3 PUSH2 0x30F0 JUMP JUMPDEST SWAP2 POP PUSH2 0x2FD8 DUP4 PUSH2 0x30F0 JUMP JUMPDEST SWAP3 POP DUP2 PUSH32 0xFFFFFFFFFFFFFFFFFFFFFFFFFFFFFFFFFFFFFFFFFFFFFFFFFFFFFFFFFFFFFFFF DIV DUP4 GT DUP3 ISZERO ISZERO AND ISZERO PUSH2 0x3011 JUMPI PUSH2 0x3010 PUSH2 0x32A4 JUMP JUMPDEST JUMPDEST DUP3 DUP3 MUL SWAP1 POP SWAP3 SWAP2 POP POP JUMP JUMPDEST PUSH1 0x0 PUSH2 0x3027 DUP3 PUSH2 0x30F0 JUMP JUMPDEST SWAP2 POP PUSH2 0x3032 DUP4 PUSH2 0x30F0 JUMP JUMPDEST SWAP3 POP DUP3 DUP3 LT ISZERO PUSH2 0x3045 JUMPI PUSH2 0x3044 PUSH2 0x32A4 JUMP JUMPDEST JUMPDEST DUP3 DUP3 SUB SWAP1 POP SWAP3 SWAP2 POP POP JUMP JUMPDEST PUSH1 0x0 PUSH2 0x305B DUP3 PUSH2 0x30D0 JUMP JUMPDEST SWAP1 POP SWAP2 SWAP1 POP JUMP JUMPDEST PUSH1 0x0 DUP2 ISZERO ISZERO SWAP1 POP SWAP2 SWAP1 POP JUMP JUMPDEST PUSH1 0x0 PUSH32 0xFFFFFFFFFFFFFFFFFFFFFFFFFFFFFFFFFFFFFFFF000000000000000000000000 DUP3 AND SWAP1 POP SWAP2 SWAP1 POP JUMP JUMPDEST PUSH1 0x0 DUP2 SWAP1 POP SWAP2 SWAP1 POP JUMP JUMPDEST PUSH1 0x0 PUSH32 0xFFFFFFFF00000000000000000000000000000000000000000000000000000000 DUP3 AND SWAP1 POP SWAP2 SWAP1 POP JUMP JUMPDEST PUSH1 0x0 PUSH20 0xFFFFFFFFFFFFFFFFFFFFFFFFFFFFFFFFFFFFFFFF DUP3 AND SWAP1 POP SWAP2 SWAP1 POP JUMP JUMPDEST PUSH1 0x0 DUP2 SWAP1 POP SWAP2 SWAP1 POP JUMP JUMPDEST PUSH1 0x0 PUSH4 0xFFFFFFFF DUP3 AND SWAP1 POP SWAP2 SWAP1 POP JUMP JUMPDEST PUSH1 0x0 PUSH1 0xFF DUP3 AND SWAP1 POP SWAP2 SWAP1 POP JUMP JUMPDEST PUSH1 0x0 PUSH2 0x3122 DUP3 PUSH2 0x3129 JUMP JUMPDEST SWAP1 POP SWAP2 SWAP1 POP JUMP JUMPDEST PUSH1 0x0 PUSH2 0x3134 DUP3 PUSH2 0x313B JUMP JUMPDEST SWAP1 POP SWAP2 SWAP1 POP JUMP JUMPDEST PUSH1 0x0 PUSH2 0x3146 DUP3 PUSH2 0x30D0 JUMP JUMPDEST SWAP1 POP SWAP2 SWAP1 POP JUMP JUMPDEST DUP3 DUP2 DUP4 CALLDATACOPY PUSH1 0x0 DUP4 DUP4 ADD MSTORE POP POP POP JUMP JUMPDEST PUSH1 0x0 JUMPDEST DUP4 DUP2 LT ISZERO PUSH2 0x317A JUMPI DUP1 DUP3 ADD MLOAD DUP2 DUP5 ADD MSTORE PUSH1 0x20 DUP2 ADD SWAP1 POP PUSH2 0x315F JUMP JUMPDEST DUP4 DUP2 GT ISZERO PUSH2 0x3189 JUMPI PUSH1 0x0 DUP5 DUP5 ADD MSTORE JUMPDEST POP POP POP POP JUMP JUMPDEST PUSH1 0x0 PUSH1 0x2 DUP3 DIV SWAP1 POP PUSH1 0x1 DUP3 AND DUP1 PUSH2 0x31A7 JUMPI PUSH1 0x7F DUP3 AND SWAP2 POP JUMPDEST PUSH1 0x20 DUP3 LT DUP2 EQ ISZERO PUSH2 0x31BB JUMPI PUSH2 0x31BA PUSH2 0x3302 JUMP JUMPDEST JUMPDEST POP SWAP2 SWAP1 POP JUMP JUMPDEST PUSH2 0x31CA DUP3 PUSH2 0x33AD JUMP JUMPDEST DUP2 ADD DUP2 DUP2 LT PUSH8 0xFFFFFFFFFFFFFFFF DUP3 GT OR ISZERO PUSH2 0x31E9 JUMPI PUSH2 0x31E8 PUSH2 0x3360 JUMP JUMPDEST JUMPDEST DUP1 PUSH1 0x40 MSTORE POP POP POP JUMP JUMPDEST PUSH1 0x0 PUSH2 0x31FD DUP3 PUSH2 0x30F0 JUMP JUMPDEST SWAP2 POP PUSH32 0xFFFFFFFFFFFFFFFFFFFFFFFFFFFFFFFFFFFFFFFFFFFFFFFFFFFFFFFFFFFFFFFF DUP3 EQ ISZERO PUSH2 0x3230 JUMPI PUSH2 0x322F PUSH2 0x32A4 JUMP JUMPDEST JUMPDEST PUSH1 0x1 DUP3 ADD SWAP1 POP SWAP2 SWAP1 POP JUMP JUMPDEST PUSH1 0x0 PUSH2 0x3246 DUP3 PUSH2 0x3257 JUMP JUMPDEST SWAP1 POP SWAP2 SWAP1 POP JUMP JUMPDEST PUSH1 0x0 DUP2 SWAP1 POP SWAP2 SWAP1 POP JUMP JUMPDEST PUSH1 0x0 PUSH2 0x3262 DUP3 PUSH2 0x33BE JUMP JUMPDEST SWAP1 POP SWAP2 SWAP1 POP JUMP JUMPDEST PUSH1 0x0 DUP2 SWAP1 POP SWAP2 SWAP1 POP JUMP JUMPDEST PUSH1 0x0 PUSH2 0x327E DUP3 PUSH2 0x30F0 JUMP JUMPDEST SWAP2 POP PUSH2 0x3289 DUP4 PUSH2 0x30F0 JUMP JUMPDEST SWAP3 POP DUP3 PUSH2 0x3299 JUMPI PUSH2 0x3298 PUSH2 0x32D3 JUMP JUMPDEST JUMPDEST DUP3 DUP3 MOD SWAP1 POP SWAP3 SWAP2 POP POP JUMP JUMPDEST PUSH32 0x4E487B7100000000000000000000000000000000000000000000000000000000 PUSH1 0x0 MSTORE PUSH1 0x11 PUSH1 0x4 MSTORE PUSH1 0x24 PUSH1 0x0 REVERT JUMPDEST PUSH32 0x4E487B7100000000000000000000000000000000000000000000000000000000 PUSH1 0x0 MSTORE PUSH1 0x12 PUSH1 0x4 MSTORE PUSH1 0x24 PUSH1 0x0 REVERT JUMPDEST PUSH32 0x4E487B7100000000000000000000000000000000000000000000000000000000 PUSH1 0x0 MSTORE PUSH1 0x22 PUSH1 0x4 MSTORE PUSH1 0x24 PUSH1 0x0 REVERT JUMPDEST PUSH32 0x4E487B7100000000000000000000000000000000000000000000000000000000 PUSH1 0x0 MSTORE PUSH1 0x32 PUSH1 0x4 MSTORE PUSH1 0x24 PUSH1 0x0 REVERT JUMPDEST PUSH32 0x4E487B7100000000000000000000000000000000000000000000000000000000 PUSH1 0x0 MSTORE PUSH1 0x41 PUSH1 0x4 MSTORE PUSH1 0x24 PUSH1 0x0 REVERT JUMPDEST PUSH1 0x0 DUP1 REVERT JUMPDEST PUSH1 0x0 DUP1 REVERT JUMPDEST PUSH1 0x0 DUP1 REVERT JUMPDEST PUSH1 0x0 DUP1 REVERT JUMPDEST PUSH1 0x0 DUP1 REVERT JUMPDEST PUSH1 0x0 DUP1 REVERT JUMPDEST PUSH1 0x0 PUSH1 0x1F NOT PUSH1 0x1F DUP4 ADD AND SWAP1 POP SWAP2 SWAP1 POP JUMP JUMPDEST PUSH1 0x0 DUP2 PUSH1 0x60 SHL SWAP1 POP SWAP2 SWAP1 POP JUMP JUMPDEST PUSH1 0x0 DUP2 PUSH1 0x1 SHR SWAP1 POP SWAP2 SWAP1 POP JUMP JUMPDEST PUSH32 0x524420726573756C742068617320616C7265616479206265656E206665746368 PUSH1 0x0 DUP3 ADD MSTORE PUSH32 0x65642E0000000000000000000000000000000000000000000000000000000000 PUSH1 0x20 DUP3 ADD MSTORE POP JUMP JUMPDEST PUSH32 0x5761697420756E74696C20313068206166746572207468652067616D6520746F PUSH1 0x0 DUP3 ADD MSTORE PUSH32 0x20666574636820726573756C74732E0000000000000000000000000000000000 PUSH1 0x20 DUP3 ADD MSTORE POP JUMP JUMPDEST PUSH32 0x534420726573756C742068617320616C7265616479206265656E206665746368 PUSH1 0x0 DUP3 ADD MSTORE PUSH32 0x65642E0000000000000000000000000000000000000000000000000000000000 PUSH1 0x20 DUP3 ADD MSTORE POP JUMP JUMPDEST PUSH32 0x756E61626C6520746F207472616E73666572416E6443616C6C20746F206F7261 PUSH1 0x0 DUP3 ADD MSTORE PUSH32 0x636C650000000000000000000000000000000000000000000000000000000000 PUSH1 0x20 DUP3 ADD MSTORE POP JUMP JUMPDEST PUSH32 0x556E61626C6520746F207472616E736665720000000000000000000000000000 PUSH1 0x0 DUP3 ADD MSTORE POP JUMP JUMPDEST PUSH32 0x536F75726365206D75737420626520746865206F7261636C65206F6620746865 PUSH1 0x0 DUP3 ADD MSTORE PUSH32 0x2072657175657374000000000000000000000000000000000000000000000000 PUSH1 0x20 DUP3 ADD MSTORE POP JUMP JUMPDEST PUSH2 0x3595 DUP2 PUSH2 0x3050 JUMP JUMPDEST DUP2 EQ PUSH2 0x35A0 JUMPI PUSH1 0x0 DUP1 REVERT JUMPDEST POP JUMP JUMPDEST PUSH2 0x35AC DUP2 PUSH2 0x3062 JUMP JUMPDEST DUP2 EQ PUSH2 0x35B7 JUMPI PUSH1 0x0 DUP1 REVERT JUMPDEST POP JUMP JUMPDEST PUSH2 0x35C3 DUP2 PUSH2 0x309A JUMP JUMPDEST DUP2 EQ PUSH2 0x35CE JUMPI PUSH1 0x0 DUP1 REVERT JUMPDEST POP JUMP JUMPDEST PUSH2 0x35DA DUP2 PUSH2 0x30F0 JUMP JUMPDEST DUP2 EQ PUSH2 0x35E5 JUMPI PUSH1 0x0 DUP1 REVERT JUMPDEST POP JUMP JUMPDEST PUSH2 0x35F1 DUP2 PUSH2 0x310A JUMP JUMPDEST DUP2 EQ PUSH2 0x35FC JUMPI PUSH1 0x0 DUP1 REVERT JUMPDEST POP JUMP INVALID LOG2 PUSH5 0x6970667358 0x22 SLT KECCAK256 CHAINID ADDRESS SWAP15 0x2F 0xB1 0xA7 CHAINID 0xCF SWAP3 PUSH7 0x95BD05536122CD 0xF6 0xCD PUSH26 0xAE87E941ADD93284D28430C164736F6C63430008070033000000 "
        },
        "methodIdentifiers": {
          "GamesRD(uint256)": "89907a5d",
          "GamesSD(uint256)": "8b1b29e8",
          "awayTeam()": "7d79c192",
          "fetchedRD()": "2f157b9d",
          "fetchedSD()": "c989b41f",
          "fulfillGames(bytes32,bytes[])": "45040746",
          "fulfillSchedule(bytes32,bytes32[])": "397e20fc",
          "gameDate()": "6d1d9247",
          "gameIdRD()": "b57cb55b",
          "gameIdSD()": "4d22530e",
          "getGameResolveSD(uint256)": "74e53ee1",
          "getGameResolvedRD(uint256)": "a02f71e3",
          "homeTeam()": "ae989d36",
          "requestGamesResolveWithFilters(bytes32,uint256,string,uint256,uint256,string[],string[])": "4eaecd68",
          "requestResultFromRD()": "8dc0ddc0",
          "requestResultFromSD()": "821f6b7f",
          "resultRD()": "3e5bc6bd",
          "resultSD()": "c89197c1",
          "setOracle(address)": "7adbf973",
          "total()": "2ddbd13a",
          "withdrawLink()": "8dc654a2"
        }
      }
    }
  }
}