{
  "contracts/SportsDataIOConsumer.sol": {
    "SportsdataioLinkPoolConsumerOracle": {
      "abi": [
        {
          "inputs": [
            {
              "internalType": "address",
              "name": "_link",
              "type": "address"
            },
            {
              "internalType": "address",
              "name": "_oracle",
              "type": "address"
            }
          ],
          "stateMutability": "nonpayable",
          "type": "constructor"
        },
        {
          "inputs": [
            {
              "internalType": "address",
              "name": "to",
              "type": "address"
            },
            {
              "internalType": "uint256",
              "name": "amount",
              "type": "uint256"
            }
          ],
          "name": "FailedTransferLINK",
          "type": "error"
        },
        {
          "anonymous": false,
          "inputs": [
            {
              "indexed": true,
              "internalType": "bytes32",
              "name": "id",
              "type": "bytes32"
            }
          ],
          "name": "ChainlinkCancelled",
          "type": "event"
        },
        {
          "anonymous": false,
          "inputs": [
            {
              "indexed": true,
              "internalType": "bytes32",
              "name": "id",
              "type": "bytes32"
            }
          ],
          "name": "ChainlinkFulfilled",
          "type": "event"
        },
        {
          "anonymous": false,
          "inputs": [
            {
              "indexed": true,
              "internalType": "bytes32",
              "name": "id",
              "type": "bytes32"
            }
          ],
          "name": "ChainlinkRequested",
          "type": "event"
        },
        {
          "inputs": [
            {
              "internalType": "bytes32",
              "name": "_requestId",
              "type": "bytes32"
            },
            {
              "internalType": "uint256",
              "name": "_payment",
              "type": "uint256"
            },
            {
              "internalType": "bytes4",
              "name": "_callbackFunctionId",
              "type": "bytes4"
            },
            {
              "internalType": "uint256",
              "name": "_expiration",
              "type": "uint256"
            }
          ],
          "name": "cancelRequest",
          "outputs": [],
          "stateMutability": "nonpayable",
          "type": "function"
        },
        {
          "inputs": [
            {
              "internalType": "bytes32",
              "name": "_requestId",
              "type": "bytes32"
            },
            {
              "internalType": "bytes32[]",
              "name": "_result",
              "type": "bytes32[]"
            }
          ],
          "name": "fulfillSchedule",
          "outputs": [],
          "stateMutability": "nonpayable",
          "type": "function"
        },
        {
          "inputs": [
            {
              "internalType": "bytes32",
              "name": "_requestId",
              "type": "bytes32"
            },
            {
              "internalType": "uint256",
              "name": "_idx",
              "type": "uint256"
            }
          ],
          "name": "getGameCreateMlb",
          "outputs": [
            {
              "components": [
                {
                  "internalType": "uint32",
                  "name": "gameId",
                  "type": "uint32"
                },
                {
                  "internalType": "uint40",
                  "name": "startTime",
                  "type": "uint40"
                },
                {
                  "internalType": "string",
                  "name": "homeTeam",
                  "type": "string"
                },
                {
                  "internalType": "string",
                  "name": "awayTeam",
                  "type": "string"
                }
              ],
              "internalType": "struct SportsdataioLinkPoolConsumerOracle.GameCreateMlb",
              "name": "",
              "type": "tuple"
            }
          ],
          "stateMutability": "view",
          "type": "function"
        },
        {
          "inputs": [
            {
              "internalType": "bytes32",
              "name": "_requestId",
              "type": "bytes32"
            },
            {
              "internalType": "uint256",
              "name": "_idx",
              "type": "uint256"
            }
          ],
          "name": "getGameResolveMlb",
          "outputs": [
            {
              "components": [
                {
                  "internalType": "uint32",
                  "name": "gameId",
                  "type": "uint32"
                },
                {
                  "internalType": "uint8",
                  "name": "homeScore",
                  "type": "uint8"
                },
                {
                  "internalType": "uint8",
                  "name": "awayScore",
                  "type": "uint8"
                },
                {
                  "internalType": "bytes20",
                  "name": "status",
                  "type": "bytes20"
                }
              ],
              "internalType": "struct SportsdataioLinkPoolConsumerOracle.GameResolveMlb",
              "name": "",
              "type": "tuple"
            }
          ],
          "stateMutability": "view",
          "type": "function"
        },
        {
          "inputs": [],
          "name": "getOracleAddress",
          "outputs": [
            {
              "internalType": "address",
              "name": "",
              "type": "address"
            }
          ],
          "stateMutability": "view",
          "type": "function"
        },
        {
          "inputs": [
            {
              "internalType": "bytes32",
              "name": "",
              "type": "bytes32"
            },
            {
              "internalType": "uint256",
              "name": "",
              "type": "uint256"
            }
          ],
          "name": "requestIdGames",
          "outputs": [
            {
              "internalType": "bytes32",
              "name": "",
              "type": "bytes32"
            }
          ],
          "stateMutability": "view",
          "type": "function"
        },
        {
          "inputs": [
            {
              "internalType": "bytes32",
              "name": "_specId",
              "type": "bytes32"
            },
            {
              "internalType": "uint256",
              "name": "_payment",
              "type": "uint256"
            },
            {
              "internalType": "uint256",
              "name": "_market",
              "type": "uint256"
            },
            {
              "internalType": "uint256",
              "name": "_leagueId",
              "type": "uint256"
            },
            {
              "internalType": "uint256",
              "name": "_date",
              "type": "uint256"
            }
          ],
          "name": "requestSchedule",
          "outputs": [],
          "stateMutability": "nonpayable",
          "type": "function"
        },
        {
          "inputs": [
            {
              "internalType": "bytes32",
              "name": "_specId",
              "type": "bytes32"
            },
            {
              "internalType": "uint256",
              "name": "_payment",
              "type": "uint256"
            },
            {
              "internalType": "uint256",
              "name": "_market",
              "type": "uint256"
            },
            {
              "internalType": "uint256",
              "name": "_leagueId",
              "type": "uint256"
            },
            {
              "internalType": "uint256",
              "name": "_date",
              "type": "uint256"
            },
            {
              "internalType": "uint256[]",
              "name": "_gameIds",
              "type": "uint256[]"
            }
          ],
          "name": "requestSchedule",
          "outputs": [],
          "stateMutability": "nonpayable",
          "type": "function"
        },
        {
          "inputs": [
            {
              "internalType": "address",
              "name": "_oracle",
              "type": "address"
            }
          ],
          "name": "setOracle",
          "outputs": [],
          "stateMutability": "nonpayable",
          "type": "function"
        },
        {
          "inputs": [
            {
              "internalType": "uint256",
              "name": "_amount",
              "type": "uint256"
            },
            {
              "internalType": "address payable",
              "name": "_payee",
              "type": "address"
            }
          ],
          "name": "withdrawLink",
          "outputs": [],
          "stateMutability": "nonpayable",
          "type": "function"
        }
      ],
      "evm": {
        "bytecode": {
          "linkReferences": {},
          "object": "608060405260016004553480156200001657600080fd5b506040516200276d3803806200276d83398181016040528101906200003c919062000105565b6200004d826200006660201b60201c565b6200005e81620000aa60201b60201c565b50506200019f565b80600260006101000a81548173ffffffffffffffffffffffffffffffffffffffff021916908373ffffffffffffffffffffffffffffffffffffffff16021790555050565b80600360006101000a81548173ffffffffffffffffffffffffffffffffffffffff021916908373ffffffffffffffffffffffffffffffffffffffff16021790555050565b600081519050620000ff8162000185565b92915050565b600080604083850312156200011f576200011e62000180565b5b60006200012f85828601620000ee565b92505060206200014285828601620000ee565b9150509250929050565b6000620001598262000160565b9050919050565b600073ffffffffffffffffffffffffffffffffffffffff82169050919050565b600080fd5b62000190816200014c565b81146200019c57600080fd5b50565b6125be80620001af6000396000f3fe608060405234801561001057600080fd5b506004361061009d5760003560e01c80637adbf973116100665780637adbf973146101425780639fd344e81461015e578063a29436081461018e578063b18b78dd146101be578063ec65d0f8146101dc5761009d565b8062aa2967146100a2578063397e20fc146100be57806341ea27ca146100da57806349687cca146100f65780636621409714610112575b600080fd5b6100bc60048036038101906100b7919061182a565b6101f8565b005b6100d860048036038101906100d39190611727565b6102ff565b005b6100f460048036038101906100ef9190611954565b610431565b005b610110600480360381019061010b91906118a5565b6104d9565b005b61012c60048036038101906101279190611783565b610663565b6040516101399190611dee565b60405180910390f35b61015c600480360381019061015791906116cd565b6106ab565b005b61017860048036038101906101739190611783565b6106b7565b6040516101859190611e10565b60405180910390f35b6101a860048036038101906101a39190611783565b6106ff565b6040516101b59190611d4e565b60405180910390f35b6101c6610730565b6040516101d39190611c1e565b60405180910390f35b6101f660048036038101906101f191906117c3565b61073f565b005b600061020c863063397e20fc60e01b610751565b90506102586040518060400160405280600681526020017f6d61726b6574000000000000000000000000000000000000000000000000000081525085836107829092919063ffffffff16565b6102a26040518060400160405280600881526020017f6c6561677565496400000000000000000000000000000000000000000000000081525084836107829092919063ffffffff16565b6102ec6040518060400160405280600481526020017f646174650000000000000000000000000000000000000000000000000000000081525083836107829092919063ffffffff16565b6102f681866107b5565b50505050505050565b816005600082815260200190815260200160002060009054906101000a900473ffffffffffffffffffffffffffffffffffffffff1673ffffffffffffffffffffffffffffffffffffffff163373ffffffffffffffffffffffffffffffffffffffff16146103a1576040517f08c379a000000000000000000000000000000000000000000000000000000000815260040161039890611dce565b60405180910390fd5b6005600082815260200190815260200160002060006101000a81549073ffffffffffffffffffffffffffffffffffffffff0219169055807f7cc135e0cebb02c3480ae5d74d377283180a2601f8f644edf7987b009316c63a60405160405180910390a28160066000858152602001908152602001600020908051906020019061042b9291906113f2565b50505050565b600061043b6107ec565b90506104d48173ffffffffffffffffffffffffffffffffffffffff1663a9059cbb84866040518363ffffffff1660e01b815260040161047b929190611c39565b602060405180830381600087803b15801561049557600080fd5b505af11580156104a9573d6000803e3d6000fd5b505050506040513d601f19601f820116820180604052508101906104cd91906116fa565b8385610816565b505050565b60006104ed883063397e20fc60e01b610751565b90506105396040518060400160405280600681526020017f6d61726b6574000000000000000000000000000000000000000000000000000081525087836107829092919063ffffffff16565b6105836040518060400160405280600881526020017f6c6561677565496400000000000000000000000000000000000000000000000081525086836107829092919063ffffffff16565b6105cd6040518060400160405280600481526020017f646174650000000000000000000000000000000000000000000000000000000081525085836107829092919063ffffffff16565b61064e816040518060400160405280600781526020017f67616d6549647300000000000000000000000000000000000000000000000000815250858580806020026020016040519081016040528093929190818152602001838360200280828437600081840152601f19601f8201169050808301925050505050505061085f565b61065881886107b5565b505050505050505050565b61066b61143f565b6106a3600660008581526020019081526020016000208381548110610693576106926123be565b5b90600052602060002001546108ed565b905092915050565b6106b481610980565b50565b6106bf611474565b6106f76006600085815260200190815260200160002083815481106106e7576106e66123be565b5b90600052602060002001546109c4565b905092915050565b6006602052816000526040600020818154811061071b57600080fd5b90600052602060002001600091509150505481565b600061073a610a2a565b905090565b61074b84848484610a54565b50505050565b6107596114b7565b6107616114b7565b61077885858584610b67909392919063ffffffff16565b9150509392505050565b610799828460800151610c1790919063ffffffff16565b6107b0818460800151610c3c90919063ffffffff16565b505050565b60006107e4600360009054906101000a900473ffffffffffffffffffffffffffffffffffffffff168484610c6c565b905092915050565b6000600260009054906101000a900473ffffffffffffffffffffffffffffffffffffffff16905090565b8261085a5781816040517f7ab2f977000000000000000000000000000000000000000000000000000000008152600401610851929190611c62565b60405180910390fd5b505050565b600083905061087b838260800151610c1790919063ffffffff16565b6108888160800151610d38565b60008251905060005b818110156108d5576108ca8482815181106108af576108ae6123be565b5b60200260200101518460800151610c3c90919063ffffffff16565b806001019050610891565b506108e38260800151610d46565b8194505050505050565b6108f561143f565b600060405180608001604052808460e01c63ffffffff168152602001602085901b60d81c64ffffffffff168152602001604885901b60405160200161093a9190611bd7565b6040516020818303038152906040528152602001609885901b6040516020016109639190611bd7565b604051602081830303815290604052815250905080915050919050565b80600360006101000a81548173ffffffffffffffffffffffffffffffffffffffff021916908373ffffffffffffffffffffffffffffffffffffffff16021790555050565b6109cc611474565b600060405180608001604052808460e01c63ffffffff168152602001602085901b60f81c60ff168152602001602885901b60f81c60ff168152602001603085901b6bffffffffffffffffffffffff1916815250905080915050919050565b6000600360009054906101000a900473ffffffffffffffffffffffffffffffffffffffff16905090565b60006005600086815260200190815260200160002060009054906101000a900473ffffffffffffffffffffffffffffffffffffffff1690506005600086815260200190815260200160002060006101000a81549073ffffffffffffffffffffffffffffffffffffffff0219169055847fe1fe3afa0f7f761ff0a8b89086790efd5140d2907ebd5b7ff6bfcb5e075fd4c560405160405180910390a28073ffffffffffffffffffffffffffffffffffffffff16636ee4d553868686866040518563ffffffff1660e01b8152600401610b2e9493929190611d69565b600060405180830381600087803b158015610b4857600080fd5b505af1158015610b5c573d6000803e3d6000fd5b505050505050505050565b610b6f6114b7565b610b7f8560800151610100610d54565b508385600001818152505082856020019073ffffffffffffffffffffffffffffffffffffffff16908173ffffffffffffffffffffffffffffffffffffffff16815250508185604001907bffffffffffffffffffffffffffffffffffffffffffffffffffffffff191690817bffffffffffffffffffffffffffffffffffffffffffffffffffffffff191681525050849050949350505050565b610c248260038351610dbe565b610c378183610f4390919063ffffffff16565b505050565b67ffffffffffffffff811115610c5b57610c568282610f65565b610c68565b610c6782600083610dbe565b5b5050565b6000806004549050600181610c819190611ee0565b6004819055506000634042994660e01b60008087600001513089604001518760018c6080015160000151604051602401610cc2989796959493929190611c8b565b604051602081830303815290604052907bffffffffffffffffffffffffffffffffffffffffffffffffffffffff19166020820180517bffffffffffffffffffffffffffffffffffffffffffffffffffffffff83818316178352505050509050610d2d86838684610fb1565b925050509392505050565b610d43816004611155565b50565b610d51816007611155565b50565b610d5c611524565b6000602083610d6b919061232f565b14610d9757602082610d7d919061232f565b6020610d899190612101565b82610d949190611ee0565b91505b81836020018181525050604051808452600081528281016020016040525082905092915050565b60178167ffffffffffffffff1611610df557610def8160058460ff16901b60ff16178461117790919063ffffffff16565b50610f3e565b60ff8167ffffffffffffffff1611610e4b57610e24601860058460ff16901b178461117790919063ffffffff16565b50610e458167ffffffffffffffff166001856111979092919063ffffffff16565b50610f3d565b61ffff8167ffffffffffffffff1611610ea257610e7b601960058460ff16901b178461117790919063ffffffff16565b50610e9c8167ffffffffffffffff166002856111979092919063ffffffff16565b50610f3c565b63ffffffff8167ffffffffffffffff1611610efb57610ed4601a60058460ff16901b178461117790919063ffffffff16565b50610ef58167ffffffffffffffff166004856111979092919063ffffffff16565b50610f3b565b610f18601b60058460ff16901b178461117790919063ffffffff16565b50610f398167ffffffffffffffff166008856111979092919063ffffffff16565b505b5b5b5b505050565b610f4b611524565b610f5d838460000151518485516111b9565b905092915050565b610f8360026005600660ff16901b178361117790919063ffffffff16565b50610fad8282604051602001610f999190611e2b565b6040516020818303038152906040526112a8565b5050565b60003084604051602001610fc6929190611bf2565b604051602081830303815290604052805190602001209050846005600083815260200190815260200160002060006101000a81548173ffffffffffffffffffffffffffffffffffffffff021916908373ffffffffffffffffffffffffffffffffffffffff160217905550807fb5e6e01e79f91267dc17b4e6314d5d4d03593d2ceee0fbb452b750bd70ea5af960405160405180910390a2600260009054906101000a900473ffffffffffffffffffffffffffffffffffffffff1673ffffffffffffffffffffffffffffffffffffffff16634000aea08685856040518463ffffffff1660e01b81526004016110bc93929190611d10565b602060405180830381600087803b1580156110d657600080fd5b505af11580156110ea573d6000803e3d6000fd5b505050506040513d601f19601f8201168201806040525081019061110e91906116fa565b61114d576040517f08c379a000000000000000000000000000000000000000000000000000000000815260040161114490611dae565b60405180910390fd5b949350505050565b611172601f60058360ff16901b178361117790919063ffffffff16565b505050565b61117f611524565b61118f83846000015151846112cd565b905092915050565b61119f611524565b6111b0848560000151518585611324565b90509392505050565b6111c1611524565b82518211156111cf57600080fd5b846020015182856111e09190611ee0565b111561121557611214856002611205886020015188876112009190611ee0565b6113b2565b61120f91906120a7565b6113ce565b5b6000808651805187602083010193508088870111156112345787860182525b60208701925050505b6020841061127b57805182526020826112569190611ee0565b91506020816112659190611ee0565b90506020846112749190612101565b935061123d565b60006001856020036101000a03905080198251168184511681811785525050508692505050949350505050565b6112b58260028351610dbe565b6112c88183610f4390919063ffffffff16565b505050565b6112d5611524565b836020015183106112fb576112fa84600286602001516112f591906120a7565b6113ce565b5b8351805160208583010184815381861415611317576001820183525b5050508390509392505050565b61132c611524565b8460200151848361133d9190611ee0565b11156113655761136485600286856113559190611ee0565b61135f91906120a7565b6113ce565b5b60006001836101006113779190611f89565b6113819190612101565b905085518386820101858319825116178152815185880111156113a45784870182525b505085915050949350505050565b6000818311156113c4578290506113c8565b8190505b92915050565b6000826000015190506113e18383610d54565b506113ec8382610f43565b50505050565b82805482825590600052602060002090810192821561142e579160200282015b8281111561142d578251825591602001919060010190611412565b5b50905061143b919061153e565b5090565b6040518060800160405280600063ffffffff168152602001600064ffffffffff16815260200160608152602001606081525090565b6040518060800160405280600063ffffffff168152602001600060ff168152602001600060ff16815260200160006bffffffffffffffffffffffff191681525090565b6040518060a0016040528060008019168152602001600073ffffffffffffffffffffffffffffffffffffffff16815260200160007bffffffffffffffffffffffffffffffffffffffffffffffffffffffff191681526020016000815260200161151e611524565b81525090565b604051806040016040528060608152602001600081525090565b5b8082111561155757600081600090555060010161153f565b5090565b600061156e61156984611e6b565b611e46565b9050808382526020820190508285602086028201111561159157611590612426565b5b60005b858110156115c157816115a7888261168e565b845260208401935060208301925050600181019050611594565b5050509392505050565b6000813590506115da816124fe565b92915050565b6000813590506115ef81612515565b92915050565b600082601f83011261160a57611609612421565b5b813561161a84826020860161155b565b91505092915050565b60008083601f84011261163957611638612421565b5b8235905067ffffffffffffffff8111156116565761165561241c565b5b60208301915083602082028301111561167257611671612426565b5b9250929050565b6000815190506116888161252c565b92915050565b60008135905061169d81612543565b92915050565b6000813590506116b28161255a565b92915050565b6000813590506116c781612571565b92915050565b6000602082840312156116e3576116e2612430565b5b60006116f1848285016115cb565b91505092915050565b6000602082840312156117105761170f612430565b5b600061171e84828501611679565b91505092915050565b6000806040838503121561173e5761173d612430565b5b600061174c8582860161168e565b925050602083013567ffffffffffffffff81111561176d5761176c61242b565b5b611779858286016115f5565b9150509250929050565b6000806040838503121561179a57611799612430565b5b60006117a88582860161168e565b92505060206117b9858286016116b8565b9150509250929050565b600080600080608085870312156117dd576117dc612430565b5b60006117eb8782880161168e565b94505060206117fc878288016116b8565b935050604061180d878288016116a3565b925050606061181e878288016116b8565b91505092959194509250565b600080600080600060a0868803121561184657611845612430565b5b60006118548882890161168e565b9550506020611865888289016116b8565b9450506040611876888289016116b8565b9350506060611887888289016116b8565b9250506080611898888289016116b8565b9150509295509295909350565b600080600080600080600060c0888a0312156118c4576118c3612430565b5b60006118d28a828b0161168e565b97505060206118e38a828b016116b8565b96505060406118f48a828b016116b8565b95505060606119058a828b016116b8565b94505060806119168a828b016116b8565b93505060a088013567ffffffffffffffff8111156119375761193661242b565b5b6119438a828b01611623565b925092505092959891949750929550565b6000806040838503121561196b5761196a612430565b5b6000611979858286016116b8565b925050602061198a858286016115e0565b9150509250929050565b61199d8161224b565b82525050565b6119ac81612135565b82525050565b6119c36119be82612165565b612309565b82525050565b6119d281612191565b82525050565b6119e1816121bd565b82525050565b6119f0816121c7565b82525050565b6000611a0182611e97565b611a0b8185611ead565b9350611a1b818560208601612293565b611a2481612435565b840191505092915050565b611a40611a3b8261225d565b6122f7565b82525050565b6000611a5182611ea2565b611a5b8185611ebe565b9350611a6b818560208601612293565b611a7481612435565b840191505092915050565b6000611a8c602383611ecf565b9150611a9782612460565b604082019050919050565b6000611aaf602883611ecf565b9150611aba826124af565b604082019050919050565b6000608083016000830151611add6000860182611baa565b506020830151611af06020860182611bb9565b5060408301518482036040860152611b088282611a46565b91505060608301518482036060860152611b228282611a46565b9150508091505092915050565b608082016000820151611b456000850182611baa565b506020820151611b586020850182611bc8565b506040820151611b6b6040850182611bc8565b506060820151611b7e60608501826119c9565b50505050565b611b8d81612213565b82525050565b611ba4611b9f82612213565b612325565b82525050565b611bb38161221d565b82525050565b611bc28161222d565b82525050565b611bd18161223e565b82525050565b6000611be382846119b2565b600a8201915081905092915050565b6000611bfe8285611a2f565b601482019150611c0e8284611b93565b6020820191508190509392505050565b6000602082019050611c3360008301846119a3565b92915050565b6000604082019050611c4e6000830185611994565b611c5b6020830184611b84565b9392505050565b6000604082019050611c7760008301856119a3565b611c846020830184611b84565b9392505050565b600061010082019050611ca1600083018b6119a3565b611cae602083018a611b84565b611cbb60408301896119d8565b611cc860608301886119a3565b611cd560808301876119e7565b611ce260a0830186611b84565b611cef60c0830185611b84565b81810360e0830152611d0181846119f6565b90509998505050505050505050565b6000606082019050611d2560008301866119a3565b611d326020830185611b84565b8181036040830152611d4481846119f6565b9050949350505050565b6000602082019050611d6360008301846119d8565b92915050565b6000608082019050611d7e60008301876119d8565b611d8b6020830186611b84565b611d9860408301856119e7565b611da56060830184611b84565b95945050505050565b60006020820190508181036000830152611dc781611a7f565b9050919050565b60006020820190508181036000830152611de781611aa2565b9050919050565b60006020820190508181036000830152611e088184611ac5565b905092915050565b6000608082019050611e256000830184611b2f565b92915050565b6000602082019050611e406000830184611b84565b92915050565b6000611e50611e61565b9050611e5c82826122c6565b919050565b6000604051905090565b600067ffffffffffffffff821115611e8657611e856123ed565b5b602082029050602081019050919050565b600081519050919050565b600081519050919050565b600082825260208201905092915050565b600082825260208201905092915050565b600082825260208201905092915050565b6000611eeb82612213565b9150611ef683612213565b9250827fffffffffffffffffffffffffffffffffffffffffffffffffffffffffffffffff03821115611f2b57611f2a612360565b5b828201905092915050565b6000808291508390505b6001851115611f8057808604811115611f5c57611f5b612360565b5b6001851615611f6b5780820291505b8081029050611f7985612453565b9450611f40565b94509492505050565b6000611f9482612213565b9150611f9f83612213565b9250611fcc7fffffffffffffffffffffffffffffffffffffffffffffffffffffffffffffffff8484611fd4565b905092915050565b600082611fe457600190506120a0565b81611ff257600090506120a0565b8160018114612008576002811461201257612041565b60019150506120a0565b60ff84111561202457612023612360565b5b8360020a91508482111561203b5761203a612360565b5b506120a0565b5060208310610133831016604e8410600b84101617156120765782820a90508381111561207157612070612360565b5b6120a0565b6120838484846001611f36565b9250905081840481111561209a57612099612360565b5b81810290505b9392505050565b60006120b282612213565b91506120bd83612213565b9250817fffffffffffffffffffffffffffffffffffffffffffffffffffffffffffffffff04831182151516156120f6576120f5612360565b5b828202905092915050565b600061210c82612213565b915061211783612213565b92508282101561212a57612129612360565b5b828203905092915050565b6000612140826121f3565b9050919050565b6000612152826121f3565b9050919050565b60008115159050919050565b60007fffffffffffffffffffff0000000000000000000000000000000000000000000082169050919050565b60007fffffffffffffffffffffffffffffffffffffffff00000000000000000000000082169050919050565b6000819050919050565b60007fffffffff0000000000000000000000000000000000000000000000000000000082169050919050565b600073ffffffffffffffffffffffffffffffffffffffff82169050919050565b6000819050919050565b600063ffffffff82169050919050565b600064ffffffffff82169050919050565b600060ff82169050919050565b60006122568261226f565b9050919050565b60006122688261226f565b9050919050565b600061227a82612281565b9050919050565b600061228c826121f3565b9050919050565b60005b838110156122b1578082015181840152602081019050612296565b838111156122c0576000848401525b50505050565b6122cf82612435565b810181811067ffffffffffffffff821117156122ee576122ed6123ed565b5b80604052505050565b600061230282612313565b9050919050565b6000819050919050565b600061231e82612446565b9050919050565b6000819050919050565b600061233a82612213565b915061234583612213565b9250826123555761235461238f565b5b828206905092915050565b7f4e487b7100000000000000000000000000000000000000000000000000000000600052601160045260246000fd5b7f4e487b7100000000000000000000000000000000000000000000000000000000600052601260045260246000fd5b7f4e487b7100000000000000000000000000000000000000000000000000000000600052603260045260246000fd5b7f4e487b7100000000000000000000000000000000000000000000000000000000600052604160045260246000fd5b600080fd5b600080fd5b600080fd5b600080fd5b600080fd5b6000601f19601f8301169050919050565b60008160601b9050919050565b60008160011c9050919050565b7f756e61626c6520746f207472616e73666572416e6443616c6c20746f206f726160008201527f636c650000000000000000000000000000000000000000000000000000000000602082015250565b7f536f75726365206d75737420626520746865206f7261636c65206f662074686560008201527f2072657175657374000000000000000000000000000000000000000000000000602082015250565b61250781612135565b811461251257600080fd5b50565b61251e81612147565b811461252957600080fd5b50565b61253581612159565b811461254057600080fd5b50565b61254c816121bd565b811461255757600080fd5b50565b612563816121c7565b811461256e57600080fd5b50565b61257a81612213565b811461258557600080fd5b5056fea2646970667358221220ba5de23428bf64fd5effed630b2c0180a2e2482ac4556acdc2209cb36ff86f5b64736f6c63430008070033",
          "opcodes": "PUSH1 0x80 PUSH1 0x40 MSTORE PUSH1 0x1 PUSH1 0x4 SSTORE CALLVALUE DUP1 ISZERO PUSH3 0x16 JUMPI PUSH1 0x0 DUP1 REVERT JUMPDEST POP PUSH1 0x40 MLOAD PUSH3 0x276D CODESIZE SUB DUP1 PUSH3 0x276D DUP4 CODECOPY DUP2 DUP2 ADD PUSH1 0x40 MSTORE DUP2 ADD SWAP1 PUSH3 0x3C SWAP2 SWAP1 PUSH3 0x105 JUMP JUMPDEST PUSH3 0x4D DUP3 PUSH3 0x66 PUSH1 0x20 SHL PUSH1 0x20 SHR JUMP JUMPDEST PUSH3 0x5E DUP2 PUSH3 0xAA PUSH1 0x20 SHL PUSH1 0x20 SHR JUMP JUMPDEST POP POP PUSH3 0x19F JUMP JUMPDEST DUP1 PUSH1 0x2 PUSH1 0x0 PUSH2 0x100 EXP DUP2 SLOAD DUP2 PUSH20 0xFFFFFFFFFFFFFFFFFFFFFFFFFFFFFFFFFFFFFFFF MUL NOT AND SWAP1 DUP4 PUSH20 0xFFFFFFFFFFFFFFFFFFFFFFFFFFFFFFFFFFFFFFFF AND MUL OR SWAP1 SSTORE POP POP JUMP JUMPDEST DUP1 PUSH1 0x3 PUSH1 0x0 PUSH2 0x100 EXP DUP2 SLOAD DUP2 PUSH20 0xFFFFFFFFFFFFFFFFFFFFFFFFFFFFFFFFFFFFFFFF MUL NOT AND SWAP1 DUP4 PUSH20 0xFFFFFFFFFFFFFFFFFFFFFFFFFFFFFFFFFFFFFFFF AND MUL OR SWAP1 SSTORE POP POP JUMP JUMPDEST PUSH1 0x0 DUP2 MLOAD SWAP1 POP PUSH3 0xFF DUP2 PUSH3 0x185 JUMP JUMPDEST SWAP3 SWAP2 POP POP JUMP JUMPDEST PUSH1 0x0 DUP1 PUSH1 0x40 DUP4 DUP6 SUB SLT ISZERO PUSH3 0x11F JUMPI PUSH3 0x11E PUSH3 0x180 JUMP JUMPDEST JUMPDEST PUSH1 0x0 PUSH3 0x12F DUP6 DUP3 DUP7 ADD PUSH3 0xEE JUMP JUMPDEST SWAP3 POP POP PUSH1 0x20 PUSH3 0x142 DUP6 DUP3 DUP7 ADD PUSH3 0xEE JUMP JUMPDEST SWAP2 POP POP SWAP3 POP SWAP3 SWAP1 POP JUMP JUMPDEST PUSH1 0x0 PUSH3 0x159 DUP3 PUSH3 0x160 JUMP JUMPDEST SWAP1 POP SWAP2 SWAP1 POP JUMP JUMPDEST PUSH1 0x0 PUSH20 0xFFFFFFFFFFFFFFFFFFFFFFFFFFFFFFFFFFFFFFFF DUP3 AND SWAP1 POP SWAP2 SWAP1 POP JUMP JUMPDEST PUSH1 0x0 DUP1 REVERT JUMPDEST PUSH3 0x190 DUP2 PUSH3 0x14C JUMP JUMPDEST DUP2 EQ PUSH3 0x19C JUMPI PUSH1 0x0 DUP1 REVERT JUMPDEST POP JUMP JUMPDEST PUSH2 0x25BE DUP1 PUSH3 0x1AF PUSH1 0x0 CODECOPY PUSH1 0x0 RETURN INVALID PUSH1 0x80 PUSH1 0x40 MSTORE CALLVALUE DUP1 ISZERO PUSH2 0x10 JUMPI PUSH1 0x0 DUP1 REVERT JUMPDEST POP PUSH1 0x4 CALLDATASIZE LT PUSH2 0x9D JUMPI PUSH1 0x0 CALLDATALOAD PUSH1 0xE0 SHR DUP1 PUSH4 0x7ADBF973 GT PUSH2 0x66 JUMPI DUP1 PUSH4 0x7ADBF973 EQ PUSH2 0x142 JUMPI DUP1 PUSH4 0x9FD344E8 EQ PUSH2 0x15E JUMPI DUP1 PUSH4 0xA2943608 EQ PUSH2 0x18E JUMPI DUP1 PUSH4 0xB18B78DD EQ PUSH2 0x1BE JUMPI DUP1 PUSH4 0xEC65D0F8 EQ PUSH2 0x1DC JUMPI PUSH2 0x9D JUMP JUMPDEST DUP1 PUSH3 0xAA2967 EQ PUSH2 0xA2 JUMPI DUP1 PUSH4 0x397E20FC EQ PUSH2 0xBE JUMPI DUP1 PUSH4 0x41EA27CA EQ PUSH2 0xDA JUMPI DUP1 PUSH4 0x49687CCA EQ PUSH2 0xF6 JUMPI DUP1 PUSH4 0x66214097 EQ PUSH2 0x112 JUMPI JUMPDEST PUSH1 0x0 DUP1 REVERT JUMPDEST PUSH2 0xBC PUSH1 0x4 DUP1 CALLDATASIZE SUB DUP2 ADD SWAP1 PUSH2 0xB7 SWAP2 SWAP1 PUSH2 0x182A JUMP JUMPDEST PUSH2 0x1F8 JUMP JUMPDEST STOP JUMPDEST PUSH2 0xD8 PUSH1 0x4 DUP1 CALLDATASIZE SUB DUP2 ADD SWAP1 PUSH2 0xD3 SWAP2 SWAP1 PUSH2 0x1727 JUMP JUMPDEST PUSH2 0x2FF JUMP JUMPDEST STOP JUMPDEST PUSH2 0xF4 PUSH1 0x4 DUP1 CALLDATASIZE SUB DUP2 ADD SWAP1 PUSH2 0xEF SWAP2 SWAP1 PUSH2 0x1954 JUMP JUMPDEST PUSH2 0x431 JUMP JUMPDEST STOP JUMPDEST PUSH2 0x110 PUSH1 0x4 DUP1 CALLDATASIZE SUB DUP2 ADD SWAP1 PUSH2 0x10B SWAP2 SWAP1 PUSH2 0x18A5 JUMP JUMPDEST PUSH2 0x4D9 JUMP JUMPDEST STOP JUMPDEST PUSH2 0x12C PUSH1 0x4 DUP1 CALLDATASIZE SUB DUP2 ADD SWAP1 PUSH2 0x127 SWAP2 SWAP1 PUSH2 0x1783 JUMP JUMPDEST PUSH2 0x663 JUMP JUMPDEST PUSH1 0x40 MLOAD PUSH2 0x139 SWAP2 SWAP1 PUSH2 0x1DEE JUMP JUMPDEST PUSH1 0x40 MLOAD DUP1 SWAP2 SUB SWAP1 RETURN JUMPDEST PUSH2 0x15C PUSH1 0x4 DUP1 CALLDATASIZE SUB DUP2 ADD SWAP1 PUSH2 0x157 SWAP2 SWAP1 PUSH2 0x16CD JUMP JUMPDEST PUSH2 0x6AB JUMP JUMPDEST STOP JUMPDEST PUSH2 0x178 PUSH1 0x4 DUP1 CALLDATASIZE SUB DUP2 ADD SWAP1 PUSH2 0x173 SWAP2 SWAP1 PUSH2 0x1783 JUMP JUMPDEST PUSH2 0x6B7 JUMP JUMPDEST PUSH1 0x40 MLOAD PUSH2 0x185 SWAP2 SWAP1 PUSH2 0x1E10 JUMP JUMPDEST PUSH1 0x40 MLOAD DUP1 SWAP2 SUB SWAP1 RETURN JUMPDEST PUSH2 0x1A8 PUSH1 0x4 DUP1 CALLDATASIZE SUB DUP2 ADD SWAP1 PUSH2 0x1A3 SWAP2 SWAP1 PUSH2 0x1783 JUMP JUMPDEST PUSH2 0x6FF JUMP JUMPDEST PUSH1 0x40 MLOAD PUSH2 0x1B5 SWAP2 SWAP1 PUSH2 0x1D4E JUMP JUMPDEST PUSH1 0x40 MLOAD DUP1 SWAP2 SUB SWAP1 RETURN JUMPDEST PUSH2 0x1C6 PUSH2 0x730 JUMP JUMPDEST PUSH1 0x40 MLOAD PUSH2 0x1D3 SWAP2 SWAP1 PUSH2 0x1C1E JUMP JUMPDEST PUSH1 0x40 MLOAD DUP1 SWAP2 SUB SWAP1 RETURN JUMPDEST PUSH2 0x1F6 PUSH1 0x4 DUP1 CALLDATASIZE SUB DUP2 ADD SWAP1 PUSH2 0x1F1 SWAP2 SWAP1 PUSH2 0x17C3 JUMP JUMPDEST PUSH2 0x73F JUMP JUMPDEST STOP JUMPDEST PUSH1 0x0 PUSH2 0x20C DUP7 ADDRESS PUSH4 0x397E20FC PUSH1 0xE0 SHL PUSH2 0x751 JUMP JUMPDEST SWAP1 POP PUSH2 0x258 PUSH1 0x40 MLOAD DUP1 PUSH1 0x40 ADD PUSH1 0x40 MSTORE DUP1 PUSH1 0x6 DUP2 MSTORE PUSH1 0x20 ADD PUSH32 0x6D61726B65740000000000000000000000000000000000000000000000000000 DUP2 MSTORE POP DUP6 DUP4 PUSH2 0x782 SWAP1 SWAP3 SWAP2 SWAP1 PUSH4 0xFFFFFFFF AND JUMP JUMPDEST PUSH2 0x2A2 PUSH1 0x40 MLOAD DUP1 PUSH1 0x40 ADD PUSH1 0x40 MSTORE DUP1 PUSH1 0x8 DUP2 MSTORE PUSH1 0x20 ADD PUSH32 0x6C65616775654964000000000000000000000000000000000000000000000000 DUP2 MSTORE POP DUP5 DUP4 PUSH2 0x782 SWAP1 SWAP3 SWAP2 SWAP1 PUSH4 0xFFFFFFFF AND JUMP JUMPDEST PUSH2 0x2EC PUSH1 0x40 MLOAD DUP1 PUSH1 0x40 ADD PUSH1 0x40 MSTORE DUP1 PUSH1 0x4 DUP2 MSTORE PUSH1 0x20 ADD PUSH32 0x6461746500000000000000000000000000000000000000000000000000000000 DUP2 MSTORE POP DUP4 DUP4 PUSH2 0x782 SWAP1 SWAP3 SWAP2 SWAP1 PUSH4 0xFFFFFFFF AND JUMP JUMPDEST PUSH2 0x2F6 DUP2 DUP7 PUSH2 0x7B5 JUMP JUMPDEST POP POP POP POP POP POP POP JUMP JUMPDEST DUP2 PUSH1 0x5 PUSH1 0x0 DUP3 DUP2 MSTORE PUSH1 0x20 ADD SWAP1 DUP2 MSTORE PUSH1 0x20 ADD PUSH1 0x0 KECCAK256 PUSH1 0x0 SWAP1 SLOAD SWAP1 PUSH2 0x100 EXP SWAP1 DIV PUSH20 0xFFFFFFFFFFFFFFFFFFFFFFFFFFFFFFFFFFFFFFFF AND PUSH20 0xFFFFFFFFFFFFFFFFFFFFFFFFFFFFFFFFFFFFFFFF AND CALLER PUSH20 0xFFFFFFFFFFFFFFFFFFFFFFFFFFFFFFFFFFFFFFFF AND EQ PUSH2 0x3A1 JUMPI PUSH1 0x40 MLOAD PUSH32 0x8C379A000000000000000000000000000000000000000000000000000000000 DUP2 MSTORE PUSH1 0x4 ADD PUSH2 0x398 SWAP1 PUSH2 0x1DCE JUMP JUMPDEST PUSH1 0x40 MLOAD DUP1 SWAP2 SUB SWAP1 REVERT JUMPDEST PUSH1 0x5 PUSH1 0x0 DUP3 DUP2 MSTORE PUSH1 0x20 ADD SWAP1 DUP2 MSTORE PUSH1 0x20 ADD PUSH1 0x0 KECCAK256 PUSH1 0x0 PUSH2 0x100 EXP DUP2 SLOAD SWAP1 PUSH20 0xFFFFFFFFFFFFFFFFFFFFFFFFFFFFFFFFFFFFFFFF MUL NOT AND SWAP1 SSTORE DUP1 PUSH32 0x7CC135E0CEBB02C3480AE5D74D377283180A2601F8F644EDF7987B009316C63A PUSH1 0x40 MLOAD PUSH1 0x40 MLOAD DUP1 SWAP2 SUB SWAP1 LOG2 DUP2 PUSH1 0x6 PUSH1 0x0 DUP6 DUP2 MSTORE PUSH1 0x20 ADD SWAP1 DUP2 MSTORE PUSH1 0x20 ADD PUSH1 0x0 KECCAK256 SWAP1 DUP1 MLOAD SWAP1 PUSH1 0x20 ADD SWAP1 PUSH2 0x42B SWAP3 SWAP2 SWAP1 PUSH2 0x13F2 JUMP JUMPDEST POP POP POP POP JUMP JUMPDEST PUSH1 0x0 PUSH2 0x43B PUSH2 0x7EC JUMP JUMPDEST SWAP1 POP PUSH2 0x4D4 DUP2 PUSH20 0xFFFFFFFFFFFFFFFFFFFFFFFFFFFFFFFFFFFFFFFF AND PUSH4 0xA9059CBB DUP5 DUP7 PUSH1 0x40 MLOAD DUP4 PUSH4 0xFFFFFFFF AND PUSH1 0xE0 SHL DUP2 MSTORE PUSH1 0x4 ADD PUSH2 0x47B SWAP3 SWAP2 SWAP1 PUSH2 0x1C39 JUMP JUMPDEST PUSH1 0x20 PUSH1 0x40 MLOAD DUP1 DUP4 SUB DUP2 PUSH1 0x0 DUP8 DUP1 EXTCODESIZE ISZERO DUP1 ISZERO PUSH2 0x495 JUMPI PUSH1 0x0 DUP1 REVERT JUMPDEST POP GAS CALL ISZERO DUP1 ISZERO PUSH2 0x4A9 JUMPI RETURNDATASIZE PUSH1 0x0 DUP1 RETURNDATACOPY RETURNDATASIZE PUSH1 0x0 REVERT JUMPDEST POP POP POP POP PUSH1 0x40 MLOAD RETURNDATASIZE PUSH1 0x1F NOT PUSH1 0x1F DUP3 ADD AND DUP3 ADD DUP1 PUSH1 0x40 MSTORE POP DUP2 ADD SWAP1 PUSH2 0x4CD SWAP2 SWAP1 PUSH2 0x16FA JUMP JUMPDEST DUP4 DUP6 PUSH2 0x816 JUMP JUMPDEST POP POP POP JUMP JUMPDEST PUSH1 0x0 PUSH2 0x4ED DUP9 ADDRESS PUSH4 0x397E20FC PUSH1 0xE0 SHL PUSH2 0x751 JUMP JUMPDEST SWAP1 POP PUSH2 0x539 PUSH1 0x40 MLOAD DUP1 PUSH1 0x40 ADD PUSH1 0x40 MSTORE DUP1 PUSH1 0x6 DUP2 MSTORE PUSH1 0x20 ADD PUSH32 0x6D61726B65740000000000000000000000000000000000000000000000000000 DUP2 MSTORE POP DUP8 DUP4 PUSH2 0x782 SWAP1 SWAP3 SWAP2 SWAP1 PUSH4 0xFFFFFFFF AND JUMP JUMPDEST PUSH2 0x583 PUSH1 0x40 MLOAD DUP1 PUSH1 0x40 ADD PUSH1 0x40 MSTORE DUP1 PUSH1 0x8 DUP2 MSTORE PUSH1 0x20 ADD PUSH32 0x6C65616775654964000000000000000000000000000000000000000000000000 DUP2 MSTORE POP DUP7 DUP4 PUSH2 0x782 SWAP1 SWAP3 SWAP2 SWAP1 PUSH4 0xFFFFFFFF AND JUMP JUMPDEST PUSH2 0x5CD PUSH1 0x40 MLOAD DUP1 PUSH1 0x40 ADD PUSH1 0x40 MSTORE DUP1 PUSH1 0x4 DUP2 MSTORE PUSH1 0x20 ADD PUSH32 0x6461746500000000000000000000000000000000000000000000000000000000 DUP2 MSTORE POP DUP6 DUP4 PUSH2 0x782 SWAP1 SWAP3 SWAP2 SWAP1 PUSH4 0xFFFFFFFF AND JUMP JUMPDEST PUSH2 0x64E DUP2 PUSH1 0x40 MLOAD DUP1 PUSH1 0x40 ADD PUSH1 0x40 MSTORE DUP1 PUSH1 0x7 DUP2 MSTORE PUSH1 0x20 ADD PUSH32 0x67616D6549647300000000000000000000000000000000000000000000000000 DUP2 MSTORE POP DUP6 DUP6 DUP1 DUP1 PUSH1 0x20 MUL PUSH1 0x20 ADD PUSH1 0x40 MLOAD SWAP1 DUP2 ADD PUSH1 0x40 MSTORE DUP1 SWAP4 SWAP3 SWAP2 SWAP1 DUP2 DUP2 MSTORE PUSH1 0x20 ADD DUP4 DUP4 PUSH1 0x20 MUL DUP1 DUP3 DUP5 CALLDATACOPY PUSH1 0x0 DUP2 DUP5 ADD MSTORE PUSH1 0x1F NOT PUSH1 0x1F DUP3 ADD AND SWAP1 POP DUP1 DUP4 ADD SWAP3 POP POP POP POP POP POP POP PUSH2 0x85F JUMP JUMPDEST PUSH2 0x658 DUP2 DUP9 PUSH2 0x7B5 JUMP JUMPDEST POP POP POP POP POP POP POP POP POP JUMP JUMPDEST PUSH2 0x66B PUSH2 0x143F JUMP JUMPDEST PUSH2 0x6A3 PUSH1 0x6 PUSH1 0x0 DUP6 DUP2 MSTORE PUSH1 0x20 ADD SWAP1 DUP2 MSTORE PUSH1 0x20 ADD PUSH1 0x0 KECCAK256 DUP4 DUP2 SLOAD DUP2 LT PUSH2 0x693 JUMPI PUSH2 0x692 PUSH2 0x23BE JUMP JUMPDEST JUMPDEST SWAP1 PUSH1 0x0 MSTORE PUSH1 0x20 PUSH1 0x0 KECCAK256 ADD SLOAD PUSH2 0x8ED JUMP JUMPDEST SWAP1 POP SWAP3 SWAP2 POP POP JUMP JUMPDEST PUSH2 0x6B4 DUP2 PUSH2 0x980 JUMP JUMPDEST POP JUMP JUMPDEST PUSH2 0x6BF PUSH2 0x1474 JUMP JUMPDEST PUSH2 0x6F7 PUSH1 0x6 PUSH1 0x0 DUP6 DUP2 MSTORE PUSH1 0x20 ADD SWAP1 DUP2 MSTORE PUSH1 0x20 ADD PUSH1 0x0 KECCAK256 DUP4 DUP2 SLOAD DUP2 LT PUSH2 0x6E7 JUMPI PUSH2 0x6E6 PUSH2 0x23BE JUMP JUMPDEST JUMPDEST SWAP1 PUSH1 0x0 MSTORE PUSH1 0x20 PUSH1 0x0 KECCAK256 ADD SLOAD PUSH2 0x9C4 JUMP JUMPDEST SWAP1 POP SWAP3 SWAP2 POP POP JUMP JUMPDEST PUSH1 0x6 PUSH1 0x20 MSTORE DUP2 PUSH1 0x0 MSTORE PUSH1 0x40 PUSH1 0x0 KECCAK256 DUP2 DUP2 SLOAD DUP2 LT PUSH2 0x71B JUMPI PUSH1 0x0 DUP1 REVERT JUMPDEST SWAP1 PUSH1 0x0 MSTORE PUSH1 0x20 PUSH1 0x0 KECCAK256 ADD PUSH1 0x0 SWAP2 POP SWAP2 POP POP SLOAD DUP2 JUMP JUMPDEST PUSH1 0x0 PUSH2 0x73A PUSH2 0xA2A JUMP JUMPDEST SWAP1 POP SWAP1 JUMP JUMPDEST PUSH2 0x74B DUP5 DUP5 DUP5 DUP5 PUSH2 0xA54 JUMP JUMPDEST POP POP POP POP JUMP JUMPDEST PUSH2 0x759 PUSH2 0x14B7 JUMP JUMPDEST PUSH2 0x761 PUSH2 0x14B7 JUMP JUMPDEST PUSH2 0x778 DUP6 DUP6 DUP6 DUP5 PUSH2 0xB67 SWAP1 SWAP4 SWAP3 SWAP2 SWAP1 PUSH4 0xFFFFFFFF AND JUMP JUMPDEST SWAP2 POP POP SWAP4 SWAP3 POP POP POP JUMP JUMPDEST PUSH2 0x799 DUP3 DUP5 PUSH1 0x80 ADD MLOAD PUSH2 0xC17 SWAP1 SWAP2 SWAP1 PUSH4 0xFFFFFFFF AND JUMP JUMPDEST PUSH2 0x7B0 DUP2 DUP5 PUSH1 0x80 ADD MLOAD PUSH2 0xC3C SWAP1 SWAP2 SWAP1 PUSH4 0xFFFFFFFF AND JUMP JUMPDEST POP POP POP JUMP JUMPDEST PUSH1 0x0 PUSH2 0x7E4 PUSH1 0x3 PUSH1 0x0 SWAP1 SLOAD SWAP1 PUSH2 0x100 EXP SWAP1 DIV PUSH20 0xFFFFFFFFFFFFFFFFFFFFFFFFFFFFFFFFFFFFFFFF AND DUP5 DUP5 PUSH2 0xC6C JUMP JUMPDEST SWAP1 POP SWAP3 SWAP2 POP POP JUMP JUMPDEST PUSH1 0x0 PUSH1 0x2 PUSH1 0x0 SWAP1 SLOAD SWAP1 PUSH2 0x100 EXP SWAP1 DIV PUSH20 0xFFFFFFFFFFFFFFFFFFFFFFFFFFFFFFFFFFFFFFFF AND SWAP1 POP SWAP1 JUMP JUMPDEST DUP3 PUSH2 0x85A JUMPI DUP2 DUP2 PUSH1 0x40 MLOAD PUSH32 0x7AB2F97700000000000000000000000000000000000000000000000000000000 DUP2 MSTORE PUSH1 0x4 ADD PUSH2 0x851 SWAP3 SWAP2 SWAP1 PUSH2 0x1C62 JUMP JUMPDEST PUSH1 0x40 MLOAD DUP1 SWAP2 SUB SWAP1 REVERT JUMPDEST POP POP POP JUMP JUMPDEST PUSH1 0x0 DUP4 SWAP1 POP PUSH2 0x87B DUP4 DUP3 PUSH1 0x80 ADD MLOAD PUSH2 0xC17 SWAP1 SWAP2 SWAP1 PUSH4 0xFFFFFFFF AND JUMP JUMPDEST PUSH2 0x888 DUP2 PUSH1 0x80 ADD MLOAD PUSH2 0xD38 JUMP JUMPDEST PUSH1 0x0 DUP3 MLOAD SWAP1 POP PUSH1 0x0 JUMPDEST DUP2 DUP2 LT ISZERO PUSH2 0x8D5 JUMPI PUSH2 0x8CA DUP5 DUP3 DUP2 MLOAD DUP2 LT PUSH2 0x8AF JUMPI PUSH2 0x8AE PUSH2 0x23BE JUMP JUMPDEST JUMPDEST PUSH1 0x20 MUL PUSH1 0x20 ADD ADD MLOAD DUP5 PUSH1 0x80 ADD MLOAD PUSH2 0xC3C SWAP1 SWAP2 SWAP1 PUSH4 0xFFFFFFFF AND JUMP JUMPDEST DUP1 PUSH1 0x1 ADD SWAP1 POP PUSH2 0x891 JUMP JUMPDEST POP PUSH2 0x8E3 DUP3 PUSH1 0x80 ADD MLOAD PUSH2 0xD46 JUMP JUMPDEST DUP2 SWAP5 POP POP POP POP POP POP JUMP JUMPDEST PUSH2 0x8F5 PUSH2 0x143F JUMP JUMPDEST PUSH1 0x0 PUSH1 0x40 MLOAD DUP1 PUSH1 0x80 ADD PUSH1 0x40 MSTORE DUP1 DUP5 PUSH1 0xE0 SHR PUSH4 0xFFFFFFFF AND DUP2 MSTORE PUSH1 0x20 ADD PUSH1 0x20 DUP6 SWAP1 SHL PUSH1 0xD8 SHR PUSH5 0xFFFFFFFFFF AND DUP2 MSTORE PUSH1 0x20 ADD PUSH1 0x48 DUP6 SWAP1 SHL PUSH1 0x40 MLOAD PUSH1 0x20 ADD PUSH2 0x93A SWAP2 SWAP1 PUSH2 0x1BD7 JUMP JUMPDEST PUSH1 0x40 MLOAD PUSH1 0x20 DUP2 DUP4 SUB SUB DUP2 MSTORE SWAP1 PUSH1 0x40 MSTORE DUP2 MSTORE PUSH1 0x20 ADD PUSH1 0x98 DUP6 SWAP1 SHL PUSH1 0x40 MLOAD PUSH1 0x20 ADD PUSH2 0x963 SWAP2 SWAP1 PUSH2 0x1BD7 JUMP JUMPDEST PUSH1 0x40 MLOAD PUSH1 0x20 DUP2 DUP4 SUB SUB DUP2 MSTORE SWAP1 PUSH1 0x40 MSTORE DUP2 MSTORE POP SWAP1 POP DUP1 SWAP2 POP POP SWAP2 SWAP1 POP JUMP JUMPDEST DUP1 PUSH1 0x3 PUSH1 0x0 PUSH2 0x100 EXP DUP2 SLOAD DUP2 PUSH20 0xFFFFFFFFFFFFFFFFFFFFFFFFFFFFFFFFFFFFFFFF MUL NOT AND SWAP1 DUP4 PUSH20 0xFFFFFFFFFFFFFFFFFFFFFFFFFFFFFFFFFFFFFFFF AND MUL OR SWAP1 SSTORE POP POP JUMP JUMPDEST PUSH2 0x9CC PUSH2 0x1474 JUMP JUMPDEST PUSH1 0x0 PUSH1 0x40 MLOAD DUP1 PUSH1 0x80 ADD PUSH1 0x40 MSTORE DUP1 DUP5 PUSH1 0xE0 SHR PUSH4 0xFFFFFFFF AND DUP2 MSTORE PUSH1 0x20 ADD PUSH1 0x20 DUP6 SWAP1 SHL PUSH1 0xF8 SHR PUSH1 0xFF AND DUP2 MSTORE PUSH1 0x20 ADD PUSH1 0x28 DUP6 SWAP1 SHL PUSH1 0xF8 SHR PUSH1 0xFF AND DUP2 MSTORE PUSH1 0x20 ADD PUSH1 0x30 DUP6 SWAP1 SHL PUSH12 0xFFFFFFFFFFFFFFFFFFFFFFFF NOT AND DUP2 MSTORE POP SWAP1 POP DUP1 SWAP2 POP POP SWAP2 SWAP1 POP JUMP JUMPDEST PUSH1 0x0 PUSH1 0x3 PUSH1 0x0 SWAP1 SLOAD SWAP1 PUSH2 0x100 EXP SWAP1 DIV PUSH20 0xFFFFFFFFFFFFFFFFFFFFFFFFFFFFFFFFFFFFFFFF AND SWAP1 POP SWAP1 JUMP JUMPDEST PUSH1 0x0 PUSH1 0x5 PUSH1 0x0 DUP7 DUP2 MSTORE PUSH1 0x20 ADD SWAP1 DUP2 MSTORE PUSH1 0x20 ADD PUSH1 0x0 KECCAK256 PUSH1 0x0 SWAP1 SLOAD SWAP1 PUSH2 0x100 EXP SWAP1 DIV PUSH20 0xFFFFFFFFFFFFFFFFFFFFFFFFFFFFFFFFFFFFFFFF AND SWAP1 POP PUSH1 0x5 PUSH1 0x0 DUP7 DUP2 MSTORE PUSH1 0x20 ADD SWAP1 DUP2 MSTORE PUSH1 0x20 ADD PUSH1 0x0 KECCAK256 PUSH1 0x0 PUSH2 0x100 EXP DUP2 SLOAD SWAP1 PUSH20 0xFFFFFFFFFFFFFFFFFFFFFFFFFFFFFFFFFFFFFFFF MUL NOT AND SWAP1 SSTORE DUP5 PUSH32 0xE1FE3AFA0F7F761FF0A8B89086790EFD5140D2907EBD5B7FF6BFCB5E075FD4C5 PUSH1 0x40 MLOAD PUSH1 0x40 MLOAD DUP1 SWAP2 SUB SWAP1 LOG2 DUP1 PUSH20 0xFFFFFFFFFFFFFFFFFFFFFFFFFFFFFFFFFFFFFFFF AND PUSH4 0x6EE4D553 DUP7 DUP7 DUP7 DUP7 PUSH1 0x40 MLOAD DUP6 PUSH4 0xFFFFFFFF AND PUSH1 0xE0 SHL DUP2 MSTORE PUSH1 0x4 ADD PUSH2 0xB2E SWAP5 SWAP4 SWAP3 SWAP2 SWAP1 PUSH2 0x1D69 JUMP JUMPDEST PUSH1 0x0 PUSH1 0x40 MLOAD DUP1 DUP4 SUB DUP2 PUSH1 0x0 DUP8 DUP1 EXTCODESIZE ISZERO DUP1 ISZERO PUSH2 0xB48 JUMPI PUSH1 0x0 DUP1 REVERT JUMPDEST POP GAS CALL ISZERO DUP1 ISZERO PUSH2 0xB5C JUMPI RETURNDATASIZE PUSH1 0x0 DUP1 RETURNDATACOPY RETURNDATASIZE PUSH1 0x0 REVERT JUMPDEST POP POP POP POP POP POP POP POP POP JUMP JUMPDEST PUSH2 0xB6F PUSH2 0x14B7 JUMP JUMPDEST PUSH2 0xB7F DUP6 PUSH1 0x80 ADD MLOAD PUSH2 0x100 PUSH2 0xD54 JUMP JUMPDEST POP DUP4 DUP6 PUSH1 0x0 ADD DUP2 DUP2 MSTORE POP POP DUP3 DUP6 PUSH1 0x20 ADD SWAP1 PUSH20 0xFFFFFFFFFFFFFFFFFFFFFFFFFFFFFFFFFFFFFFFF AND SWAP1 DUP2 PUSH20 0xFFFFFFFFFFFFFFFFFFFFFFFFFFFFFFFFFFFFFFFF AND DUP2 MSTORE POP POP DUP2 DUP6 PUSH1 0x40 ADD SWAP1 PUSH28 0xFFFFFFFFFFFFFFFFFFFFFFFFFFFFFFFFFFFFFFFFFFFFFFFFFFFFFFFF NOT AND SWAP1 DUP2 PUSH28 0xFFFFFFFFFFFFFFFFFFFFFFFFFFFFFFFFFFFFFFFFFFFFFFFFFFFFFFFF NOT AND DUP2 MSTORE POP POP DUP5 SWAP1 POP SWAP5 SWAP4 POP POP POP POP JUMP JUMPDEST PUSH2 0xC24 DUP3 PUSH1 0x3 DUP4 MLOAD PUSH2 0xDBE JUMP JUMPDEST PUSH2 0xC37 DUP2 DUP4 PUSH2 0xF43 SWAP1 SWAP2 SWAP1 PUSH4 0xFFFFFFFF AND JUMP JUMPDEST POP POP POP JUMP JUMPDEST PUSH8 0xFFFFFFFFFFFFFFFF DUP2 GT ISZERO PUSH2 0xC5B JUMPI PUSH2 0xC56 DUP3 DUP3 PUSH2 0xF65 JUMP JUMPDEST PUSH2 0xC68 JUMP JUMPDEST PUSH2 0xC67 DUP3 PUSH1 0x0 DUP4 PUSH2 0xDBE JUMP JUMPDEST JUMPDEST POP POP JUMP JUMPDEST PUSH1 0x0 DUP1 PUSH1 0x4 SLOAD SWAP1 POP PUSH1 0x1 DUP2 PUSH2 0xC81 SWAP2 SWAP1 PUSH2 0x1EE0 JUMP JUMPDEST PUSH1 0x4 DUP2 SWAP1 SSTORE POP PUSH1 0x0 PUSH4 0x40429946 PUSH1 0xE0 SHL PUSH1 0x0 DUP1 DUP8 PUSH1 0x0 ADD MLOAD ADDRESS DUP10 PUSH1 0x40 ADD MLOAD DUP8 PUSH1 0x1 DUP13 PUSH1 0x80 ADD MLOAD PUSH1 0x0 ADD MLOAD PUSH1 0x40 MLOAD PUSH1 0x24 ADD PUSH2 0xCC2 SWAP9 SWAP8 SWAP7 SWAP6 SWAP5 SWAP4 SWAP3 SWAP2 SWAP1 PUSH2 0x1C8B JUMP JUMPDEST PUSH1 0x40 MLOAD PUSH1 0x20 DUP2 DUP4 SUB SUB DUP2 MSTORE SWAP1 PUSH1 0x40 MSTORE SWAP1 PUSH28 0xFFFFFFFFFFFFFFFFFFFFFFFFFFFFFFFFFFFFFFFFFFFFFFFFFFFFFFFF NOT AND PUSH1 0x20 DUP3 ADD DUP1 MLOAD PUSH28 0xFFFFFFFFFFFFFFFFFFFFFFFFFFFFFFFFFFFFFFFFFFFFFFFFFFFFFFFF DUP4 DUP2 DUP4 AND OR DUP4 MSTORE POP POP POP POP SWAP1 POP PUSH2 0xD2D DUP7 DUP4 DUP7 DUP5 PUSH2 0xFB1 JUMP JUMPDEST SWAP3 POP POP POP SWAP4 SWAP3 POP POP POP JUMP JUMPDEST PUSH2 0xD43 DUP2 PUSH1 0x4 PUSH2 0x1155 JUMP JUMPDEST POP JUMP JUMPDEST PUSH2 0xD51 DUP2 PUSH1 0x7 PUSH2 0x1155 JUMP JUMPDEST POP JUMP JUMPDEST PUSH2 0xD5C PUSH2 0x1524 JUMP JUMPDEST PUSH1 0x0 PUSH1 0x20 DUP4 PUSH2 0xD6B SWAP2 SWAP1 PUSH2 0x232F JUMP JUMPDEST EQ PUSH2 0xD97 JUMPI PUSH1 0x20 DUP3 PUSH2 0xD7D SWAP2 SWAP1 PUSH2 0x232F JUMP JUMPDEST PUSH1 0x20 PUSH2 0xD89 SWAP2 SWAP1 PUSH2 0x2101 JUMP JUMPDEST DUP3 PUSH2 0xD94 SWAP2 SWAP1 PUSH2 0x1EE0 JUMP JUMPDEST SWAP2 POP JUMPDEST DUP2 DUP4 PUSH1 0x20 ADD DUP2 DUP2 MSTORE POP POP PUSH1 0x40 MLOAD DUP1 DUP5 MSTORE PUSH1 0x0 DUP2 MSTORE DUP3 DUP2 ADD PUSH1 0x20 ADD PUSH1 0x40 MSTORE POP DUP3 SWAP1 POP SWAP3 SWAP2 POP POP JUMP JUMPDEST PUSH1 0x17 DUP2 PUSH8 0xFFFFFFFFFFFFFFFF AND GT PUSH2 0xDF5 JUMPI PUSH2 0xDEF DUP2 PUSH1 0x5 DUP5 PUSH1 0xFF AND SWAP1 SHL PUSH1 0xFF AND OR DUP5 PUSH2 0x1177 SWAP1 SWAP2 SWAP1 PUSH4 0xFFFFFFFF AND JUMP JUMPDEST POP PUSH2 0xF3E JUMP JUMPDEST PUSH1 0xFF DUP2 PUSH8 0xFFFFFFFFFFFFFFFF AND GT PUSH2 0xE4B JUMPI PUSH2 0xE24 PUSH1 0x18 PUSH1 0x5 DUP5 PUSH1 0xFF AND SWAP1 SHL OR DUP5 PUSH2 0x1177 SWAP1 SWAP2 SWAP1 PUSH4 0xFFFFFFFF AND JUMP JUMPDEST POP PUSH2 0xE45 DUP2 PUSH8 0xFFFFFFFFFFFFFFFF AND PUSH1 0x1 DUP6 PUSH2 0x1197 SWAP1 SWAP3 SWAP2 SWAP1 PUSH4 0xFFFFFFFF AND JUMP JUMPDEST POP PUSH2 0xF3D JUMP JUMPDEST PUSH2 0xFFFF DUP2 PUSH8 0xFFFFFFFFFFFFFFFF AND GT PUSH2 0xEA2 JUMPI PUSH2 0xE7B PUSH1 0x19 PUSH1 0x5 DUP5 PUSH1 0xFF AND SWAP1 SHL OR DUP5 PUSH2 0x1177 SWAP1 SWAP2 SWAP1 PUSH4 0xFFFFFFFF AND JUMP JUMPDEST POP PUSH2 0xE9C DUP2 PUSH8 0xFFFFFFFFFFFFFFFF AND PUSH1 0x2 DUP6 PUSH2 0x1197 SWAP1 SWAP3 SWAP2 SWAP1 PUSH4 0xFFFFFFFF AND JUMP JUMPDEST POP PUSH2 0xF3C JUMP JUMPDEST PUSH4 0xFFFFFFFF DUP2 PUSH8 0xFFFFFFFFFFFFFFFF AND GT PUSH2 0xEFB JUMPI PUSH2 0xED4 PUSH1 0x1A PUSH1 0x5 DUP5 PUSH1 0xFF AND SWAP1 SHL OR DUP5 PUSH2 0x1177 SWAP1 SWAP2 SWAP1 PUSH4 0xFFFFFFFF AND JUMP JUMPDEST POP PUSH2 0xEF5 DUP2 PUSH8 0xFFFFFFFFFFFFFFFF AND PUSH1 0x4 DUP6 PUSH2 0x1197 SWAP1 SWAP3 SWAP2 SWAP1 PUSH4 0xFFFFFFFF AND JUMP JUMPDEST POP PUSH2 0xF3B JUMP JUMPDEST PUSH2 0xF18 PUSH1 0x1B PUSH1 0x5 DUP5 PUSH1 0xFF AND SWAP1 SHL OR DUP5 PUSH2 0x1177 SWAP1 SWAP2 SWAP1 PUSH4 0xFFFFFFFF AND JUMP JUMPDEST POP PUSH2 0xF39 DUP2 PUSH8 0xFFFFFFFFFFFFFFFF AND PUSH1 0x8 DUP6 PUSH2 0x1197 SWAP1 SWAP3 SWAP2 SWAP1 PUSH4 0xFFFFFFFF AND JUMP JUMPDEST POP JUMPDEST JUMPDEST JUMPDEST JUMPDEST POP POP POP JUMP JUMPDEST PUSH2 0xF4B PUSH2 0x1524 JUMP JUMPDEST PUSH2 0xF5D DUP4 DUP5 PUSH1 0x0 ADD MLOAD MLOAD DUP5 DUP6 MLOAD PUSH2 0x11B9 JUMP JUMPDEST SWAP1 POP SWAP3 SWAP2 POP POP JUMP JUMPDEST PUSH2 0xF83 PUSH1 0x2 PUSH1 0x5 PUSH1 0x6 PUSH1 0xFF AND SWAP1 SHL OR DUP4 PUSH2 0x1177 SWAP1 SWAP2 SWAP1 PUSH4 0xFFFFFFFF AND JUMP JUMPDEST POP PUSH2 0xFAD DUP3 DUP3 PUSH1 0x40 MLOAD PUSH1 0x20 ADD PUSH2 0xF99 SWAP2 SWAP1 PUSH2 0x1E2B JUMP JUMPDEST PUSH1 0x40 MLOAD PUSH1 0x20 DUP2 DUP4 SUB SUB DUP2 MSTORE SWAP1 PUSH1 0x40 MSTORE PUSH2 0x12A8 JUMP JUMPDEST POP POP JUMP JUMPDEST PUSH1 0x0 ADDRESS DUP5 PUSH1 0x40 MLOAD PUSH1 0x20 ADD PUSH2 0xFC6 SWAP3 SWAP2 SWAP1 PUSH2 0x1BF2 JUMP JUMPDEST PUSH1 0x40 MLOAD PUSH1 0x20 DUP2 DUP4 SUB SUB DUP2 MSTORE SWAP1 PUSH1 0x40 MSTORE DUP1 MLOAD SWAP1 PUSH1 0x20 ADD KECCAK256 SWAP1 POP DUP5 PUSH1 0x5 PUSH1 0x0 DUP4 DUP2 MSTORE PUSH1 0x20 ADD SWAP1 DUP2 MSTORE PUSH1 0x20 ADD PUSH1 0x0 KECCAK256 PUSH1 0x0 PUSH2 0x100 EXP DUP2 SLOAD DUP2 PUSH20 0xFFFFFFFFFFFFFFFFFFFFFFFFFFFFFFFFFFFFFFFF MUL NOT AND SWAP1 DUP4 PUSH20 0xFFFFFFFFFFFFFFFFFFFFFFFFFFFFFFFFFFFFFFFF AND MUL OR SWAP1 SSTORE POP DUP1 PUSH32 0xB5E6E01E79F91267DC17B4E6314D5D4D03593D2CEEE0FBB452B750BD70EA5AF9 PUSH1 0x40 MLOAD PUSH1 0x40 MLOAD DUP1 SWAP2 SUB SWAP1 LOG2 PUSH1 0x2 PUSH1 0x0 SWAP1 SLOAD SWAP1 PUSH2 0x100 EXP SWAP1 DIV PUSH20 0xFFFFFFFFFFFFFFFFFFFFFFFFFFFFFFFFFFFFFFFF AND PUSH20 0xFFFFFFFFFFFFFFFFFFFFFFFFFFFFFFFFFFFFFFFF AND PUSH4 0x4000AEA0 DUP7 DUP6 DUP6 PUSH1 0x40 MLOAD DUP5 PUSH4 0xFFFFFFFF AND PUSH1 0xE0 SHL DUP2 MSTORE PUSH1 0x4 ADD PUSH2 0x10BC SWAP4 SWAP3 SWAP2 SWAP1 PUSH2 0x1D10 JUMP JUMPDEST PUSH1 0x20 PUSH1 0x40 MLOAD DUP1 DUP4 SUB DUP2 PUSH1 0x0 DUP8 DUP1 EXTCODESIZE ISZERO DUP1 ISZERO PUSH2 0x10D6 JUMPI PUSH1 0x0 DUP1 REVERT JUMPDEST POP GAS CALL ISZERO DUP1 ISZERO PUSH2 0x10EA JUMPI RETURNDATASIZE PUSH1 0x0 DUP1 RETURNDATACOPY RETURNDATASIZE PUSH1 0x0 REVERT JUMPDEST POP POP POP POP PUSH1 0x40 MLOAD RETURNDATASIZE PUSH1 0x1F NOT PUSH1 0x1F DUP3 ADD AND DUP3 ADD DUP1 PUSH1 0x40 MSTORE POP DUP2 ADD SWAP1 PUSH2 0x110E SWAP2 SWAP1 PUSH2 0x16FA JUMP JUMPDEST PUSH2 0x114D JUMPI PUSH1 0x40 MLOAD PUSH32 0x8C379A000000000000000000000000000000000000000000000000000000000 DUP2 MSTORE PUSH1 0x4 ADD PUSH2 0x1144 SWAP1 PUSH2 0x1DAE JUMP JUMPDEST PUSH1 0x40 MLOAD DUP1 SWAP2 SUB SWAP1 REVERT JUMPDEST SWAP5 SWAP4 POP POP POP POP JUMP JUMPDEST PUSH2 0x1172 PUSH1 0x1F PUSH1 0x5 DUP4 PUSH1 0xFF AND SWAP1 SHL OR DUP4 PUSH2 0x1177 SWAP1 SWAP2 SWAP1 PUSH4 0xFFFFFFFF AND JUMP JUMPDEST POP POP POP JUMP JUMPDEST PUSH2 0x117F PUSH2 0x1524 JUMP JUMPDEST PUSH2 0x118F DUP4 DUP5 PUSH1 0x0 ADD MLOAD MLOAD DUP5 PUSH2 0x12CD JUMP JUMPDEST SWAP1 POP SWAP3 SWAP2 POP POP JUMP JUMPDEST PUSH2 0x119F PUSH2 0x1524 JUMP JUMPDEST PUSH2 0x11B0 DUP5 DUP6 PUSH1 0x0 ADD MLOAD MLOAD DUP6 DUP6 PUSH2 0x1324 JUMP JUMPDEST SWAP1 POP SWAP4 SWAP3 POP POP POP JUMP JUMPDEST PUSH2 0x11C1 PUSH2 0x1524 JUMP JUMPDEST DUP3 MLOAD DUP3 GT ISZERO PUSH2 0x11CF JUMPI PUSH1 0x0 DUP1 REVERT JUMPDEST DUP5 PUSH1 0x20 ADD MLOAD DUP3 DUP6 PUSH2 0x11E0 SWAP2 SWAP1 PUSH2 0x1EE0 JUMP JUMPDEST GT ISZERO PUSH2 0x1215 JUMPI PUSH2 0x1214 DUP6 PUSH1 0x2 PUSH2 0x1205 DUP9 PUSH1 0x20 ADD MLOAD DUP9 DUP8 PUSH2 0x1200 SWAP2 SWAP1 PUSH2 0x1EE0 JUMP JUMPDEST PUSH2 0x13B2 JUMP JUMPDEST PUSH2 0x120F SWAP2 SWAP1 PUSH2 0x20A7 JUMP JUMPDEST PUSH2 0x13CE JUMP JUMPDEST JUMPDEST PUSH1 0x0 DUP1 DUP7 MLOAD DUP1 MLOAD DUP8 PUSH1 0x20 DUP4 ADD ADD SWAP4 POP DUP1 DUP9 DUP8 ADD GT ISZERO PUSH2 0x1234 JUMPI DUP8 DUP7 ADD DUP3 MSTORE JUMPDEST PUSH1 0x20 DUP8 ADD SWAP3 POP POP POP JUMPDEST PUSH1 0x20 DUP5 LT PUSH2 0x127B JUMPI DUP1 MLOAD DUP3 MSTORE PUSH1 0x20 DUP3 PUSH2 0x1256 SWAP2 SWAP1 PUSH2 0x1EE0 JUMP JUMPDEST SWAP2 POP PUSH1 0x20 DUP2 PUSH2 0x1265 SWAP2 SWAP1 PUSH2 0x1EE0 JUMP JUMPDEST SWAP1 POP PUSH1 0x20 DUP5 PUSH2 0x1274 SWAP2 SWAP1 PUSH2 0x2101 JUMP JUMPDEST SWAP4 POP PUSH2 0x123D JUMP JUMPDEST PUSH1 0x0 PUSH1 0x1 DUP6 PUSH1 0x20 SUB PUSH2 0x100 EXP SUB SWAP1 POP DUP1 NOT DUP3 MLOAD AND DUP2 DUP5 MLOAD AND DUP2 DUP2 OR DUP6 MSTORE POP POP POP DUP7 SWAP3 POP POP POP SWAP5 SWAP4 POP POP POP POP JUMP JUMPDEST PUSH2 0x12B5 DUP3 PUSH1 0x2 DUP4 MLOAD PUSH2 0xDBE JUMP JUMPDEST PUSH2 0x12C8 DUP2 DUP4 PUSH2 0xF43 SWAP1 SWAP2 SWAP1 PUSH4 0xFFFFFFFF AND JUMP JUMPDEST POP POP POP JUMP JUMPDEST PUSH2 0x12D5 PUSH2 0x1524 JUMP JUMPDEST DUP4 PUSH1 0x20 ADD MLOAD DUP4 LT PUSH2 0x12FB JUMPI PUSH2 0x12FA DUP5 PUSH1 0x2 DUP7 PUSH1 0x20 ADD MLOAD PUSH2 0x12F5 SWAP2 SWAP1 PUSH2 0x20A7 JUMP JUMPDEST PUSH2 0x13CE JUMP JUMPDEST JUMPDEST DUP4 MLOAD DUP1 MLOAD PUSH1 0x20 DUP6 DUP4 ADD ADD DUP5 DUP2 MSTORE8 DUP2 DUP7 EQ ISZERO PUSH2 0x1317 JUMPI PUSH1 0x1 DUP3 ADD DUP4 MSTORE JUMPDEST POP POP POP DUP4 SWAP1 POP SWAP4 SWAP3 POP POP POP JUMP JUMPDEST PUSH2 0x132C PUSH2 0x1524 JUMP JUMPDEST DUP5 PUSH1 0x20 ADD MLOAD DUP5 DUP4 PUSH2 0x133D SWAP2 SWAP1 PUSH2 0x1EE0 JUMP JUMPDEST GT ISZERO PUSH2 0x1365 JUMPI PUSH2 0x1364 DUP6 PUSH1 0x2 DUP7 DUP6 PUSH2 0x1355 SWAP2 SWAP1 PUSH2 0x1EE0 JUMP JUMPDEST PUSH2 0x135F SWAP2 SWAP1 PUSH2 0x20A7 JUMP JUMPDEST PUSH2 0x13CE JUMP JUMPDEST JUMPDEST PUSH1 0x0 PUSH1 0x1 DUP4 PUSH2 0x100 PUSH2 0x1377 SWAP2 SWAP1 PUSH2 0x1F89 JUMP JUMPDEST PUSH2 0x1381 SWAP2 SWAP1 PUSH2 0x2101 JUMP JUMPDEST SWAP1 POP DUP6 MLOAD DUP4 DUP7 DUP3 ADD ADD DUP6 DUP4 NOT DUP3 MLOAD AND OR DUP2 MSTORE DUP2 MLOAD DUP6 DUP9 ADD GT ISZERO PUSH2 0x13A4 JUMPI DUP5 DUP8 ADD DUP3 MSTORE JUMPDEST POP POP DUP6 SWAP2 POP POP SWAP5 SWAP4 POP POP POP POP JUMP JUMPDEST PUSH1 0x0 DUP2 DUP4 GT ISZERO PUSH2 0x13C4 JUMPI DUP3 SWAP1 POP PUSH2 0x13C8 JUMP JUMPDEST DUP2 SWAP1 POP JUMPDEST SWAP3 SWAP2 POP POP JUMP JUMPDEST PUSH1 0x0 DUP3 PUSH1 0x0 ADD MLOAD SWAP1 POP PUSH2 0x13E1 DUP4 DUP4 PUSH2 0xD54 JUMP JUMPDEST POP PUSH2 0x13EC DUP4 DUP3 PUSH2 0xF43 JUMP JUMPDEST POP POP POP POP JUMP JUMPDEST DUP3 DUP1 SLOAD DUP3 DUP3 SSTORE SWAP1 PUSH1 0x0 MSTORE PUSH1 0x20 PUSH1 0x0 KECCAK256 SWAP1 DUP2 ADD SWAP3 DUP3 ISZERO PUSH2 0x142E JUMPI SWAP2 PUSH1 0x20 MUL DUP3 ADD JUMPDEST DUP3 DUP2 GT ISZERO PUSH2 0x142D JUMPI DUP3 MLOAD DUP3 SSTORE SWAP2 PUSH1 0x20 ADD SWAP2 SWAP1 PUSH1 0x1 ADD SWAP1 PUSH2 0x1412 JUMP JUMPDEST JUMPDEST POP SWAP1 POP PUSH2 0x143B SWAP2 SWAP1 PUSH2 0x153E JUMP JUMPDEST POP SWAP1 JUMP JUMPDEST PUSH1 0x40 MLOAD DUP1 PUSH1 0x80 ADD PUSH1 0x40 MSTORE DUP1 PUSH1 0x0 PUSH4 0xFFFFFFFF AND DUP2 MSTORE PUSH1 0x20 ADD PUSH1 0x0 PUSH5 0xFFFFFFFFFF AND DUP2 MSTORE PUSH1 0x20 ADD PUSH1 0x60 DUP2 MSTORE PUSH1 0x20 ADD PUSH1 0x60 DUP2 MSTORE POP SWAP1 JUMP JUMPDEST PUSH1 0x40 MLOAD DUP1 PUSH1 0x80 ADD PUSH1 0x40 MSTORE DUP1 PUSH1 0x0 PUSH4 0xFFFFFFFF AND DUP2 MSTORE PUSH1 0x20 ADD PUSH1 0x0 PUSH1 0xFF AND DUP2 MSTORE PUSH1 0x20 ADD PUSH1 0x0 PUSH1 0xFF AND DUP2 MSTORE PUSH1 0x20 ADD PUSH1 0x0 PUSH12 0xFFFFFFFFFFFFFFFFFFFFFFFF NOT AND DUP2 MSTORE POP SWAP1 JUMP JUMPDEST PUSH1 0x40 MLOAD DUP1 PUSH1 0xA0 ADD PUSH1 0x40 MSTORE DUP1 PUSH1 0x0 DUP1 NOT AND DUP2 MSTORE PUSH1 0x20 ADD PUSH1 0x0 PUSH20 0xFFFFFFFFFFFFFFFFFFFFFFFFFFFFFFFFFFFFFFFF AND DUP2 MSTORE PUSH1 0x20 ADD PUSH1 0x0 PUSH28 0xFFFFFFFFFFFFFFFFFFFFFFFFFFFFFFFFFFFFFFFFFFFFFFFFFFFFFFFF NOT AND DUP2 MSTORE PUSH1 0x20 ADD PUSH1 0x0 DUP2 MSTORE PUSH1 0x20 ADD PUSH2 0x151E PUSH2 0x1524 JUMP JUMPDEST DUP2 MSTORE POP SWAP1 JUMP JUMPDEST PUSH1 0x40 MLOAD DUP1 PUSH1 0x40 ADD PUSH1 0x40 MSTORE DUP1 PUSH1 0x60 DUP2 MSTORE PUSH1 0x20 ADD PUSH1 0x0 DUP2 MSTORE POP SWAP1 JUMP JUMPDEST JUMPDEST DUP1 DUP3 GT ISZERO PUSH2 0x1557 JUMPI PUSH1 0x0 DUP2 PUSH1 0x0 SWAP1 SSTORE POP PUSH1 0x1 ADD PUSH2 0x153F JUMP JUMPDEST POP SWAP1 JUMP JUMPDEST PUSH1 0x0 PUSH2 0x156E PUSH2 0x1569 DUP5 PUSH2 0x1E6B JUMP JUMPDEST PUSH2 0x1E46 JUMP JUMPDEST SWAP1 POP DUP1 DUP4 DUP3 MSTORE PUSH1 0x20 DUP3 ADD SWAP1 POP DUP3 DUP6 PUSH1 0x20 DUP7 MUL DUP3 ADD GT ISZERO PUSH2 0x1591 JUMPI PUSH2 0x1590 PUSH2 0x2426 JUMP JUMPDEST JUMPDEST PUSH1 0x0 JUMPDEST DUP6 DUP2 LT ISZERO PUSH2 0x15C1 JUMPI DUP2 PUSH2 0x15A7 DUP9 DUP3 PUSH2 0x168E JUMP JUMPDEST DUP5 MSTORE PUSH1 0x20 DUP5 ADD SWAP4 POP PUSH1 0x20 DUP4 ADD SWAP3 POP POP PUSH1 0x1 DUP2 ADD SWAP1 POP PUSH2 0x1594 JUMP JUMPDEST POP POP POP SWAP4 SWAP3 POP POP POP JUMP JUMPDEST PUSH1 0x0 DUP2 CALLDATALOAD SWAP1 POP PUSH2 0x15DA DUP2 PUSH2 0x24FE JUMP JUMPDEST SWAP3 SWAP2 POP POP JUMP JUMPDEST PUSH1 0x0 DUP2 CALLDATALOAD SWAP1 POP PUSH2 0x15EF DUP2 PUSH2 0x2515 JUMP JUMPDEST SWAP3 SWAP2 POP POP JUMP JUMPDEST PUSH1 0x0 DUP3 PUSH1 0x1F DUP4 ADD SLT PUSH2 0x160A JUMPI PUSH2 0x1609 PUSH2 0x2421 JUMP JUMPDEST JUMPDEST DUP2 CALLDATALOAD PUSH2 0x161A DUP5 DUP3 PUSH1 0x20 DUP7 ADD PUSH2 0x155B JUMP JUMPDEST SWAP2 POP POP SWAP3 SWAP2 POP POP JUMP JUMPDEST PUSH1 0x0 DUP1 DUP4 PUSH1 0x1F DUP5 ADD SLT PUSH2 0x1639 JUMPI PUSH2 0x1638 PUSH2 0x2421 JUMP JUMPDEST JUMPDEST DUP3 CALLDATALOAD SWAP1 POP PUSH8 0xFFFFFFFFFFFFFFFF DUP2 GT ISZERO PUSH2 0x1656 JUMPI PUSH2 0x1655 PUSH2 0x241C JUMP JUMPDEST JUMPDEST PUSH1 0x20 DUP4 ADD SWAP2 POP DUP4 PUSH1 0x20 DUP3 MUL DUP4 ADD GT ISZERO PUSH2 0x1672 JUMPI PUSH2 0x1671 PUSH2 0x2426 JUMP JUMPDEST JUMPDEST SWAP3 POP SWAP3 SWAP1 POP JUMP JUMPDEST PUSH1 0x0 DUP2 MLOAD SWAP1 POP PUSH2 0x1688 DUP2 PUSH2 0x252C JUMP JUMPDEST SWAP3 SWAP2 POP POP JUMP JUMPDEST PUSH1 0x0 DUP2 CALLDATALOAD SWAP1 POP PUSH2 0x169D DUP2 PUSH2 0x2543 JUMP JUMPDEST SWAP3 SWAP2 POP POP JUMP JUMPDEST PUSH1 0x0 DUP2 CALLDATALOAD SWAP1 POP PUSH2 0x16B2 DUP2 PUSH2 0x255A JUMP JUMPDEST SWAP3 SWAP2 POP POP JUMP JUMPDEST PUSH1 0x0 DUP2 CALLDATALOAD SWAP1 POP PUSH2 0x16C7 DUP2 PUSH2 0x2571 JUMP JUMPDEST SWAP3 SWAP2 POP POP JUMP JUMPDEST PUSH1 0x0 PUSH1 0x20 DUP3 DUP5 SUB SLT ISZERO PUSH2 0x16E3 JUMPI PUSH2 0x16E2 PUSH2 0x2430 JUMP JUMPDEST JUMPDEST PUSH1 0x0 PUSH2 0x16F1 DUP5 DUP3 DUP6 ADD PUSH2 0x15CB JUMP JUMPDEST SWAP2 POP POP SWAP3 SWAP2 POP POP JUMP JUMPDEST PUSH1 0x0 PUSH1 0x20 DUP3 DUP5 SUB SLT ISZERO PUSH2 0x1710 JUMPI PUSH2 0x170F PUSH2 0x2430 JUMP JUMPDEST JUMPDEST PUSH1 0x0 PUSH2 0x171E DUP5 DUP3 DUP6 ADD PUSH2 0x1679 JUMP JUMPDEST SWAP2 POP POP SWAP3 SWAP2 POP POP JUMP JUMPDEST PUSH1 0x0 DUP1 PUSH1 0x40 DUP4 DUP6 SUB SLT ISZERO PUSH2 0x173E JUMPI PUSH2 0x173D PUSH2 0x2430 JUMP JUMPDEST JUMPDEST PUSH1 0x0 PUSH2 0x174C DUP6 DUP3 DUP7 ADD PUSH2 0x168E JUMP JUMPDEST SWAP3 POP POP PUSH1 0x20 DUP4 ADD CALLDATALOAD PUSH8 0xFFFFFFFFFFFFFFFF DUP2 GT ISZERO PUSH2 0x176D JUMPI PUSH2 0x176C PUSH2 0x242B JUMP JUMPDEST JUMPDEST PUSH2 0x1779 DUP6 DUP3 DUP7 ADD PUSH2 0x15F5 JUMP JUMPDEST SWAP2 POP POP SWAP3 POP SWAP3 SWAP1 POP JUMP JUMPDEST PUSH1 0x0 DUP1 PUSH1 0x40 DUP4 DUP6 SUB SLT ISZERO PUSH2 0x179A JUMPI PUSH2 0x1799 PUSH2 0x2430 JUMP JUMPDEST JUMPDEST PUSH1 0x0 PUSH2 0x17A8 DUP6 DUP3 DUP7 ADD PUSH2 0x168E JUMP JUMPDEST SWAP3 POP POP PUSH1 0x20 PUSH2 0x17B9 DUP6 DUP3 DUP7 ADD PUSH2 0x16B8 JUMP JUMPDEST SWAP2 POP POP SWAP3 POP SWAP3 SWAP1 POP JUMP JUMPDEST PUSH1 0x0 DUP1 PUSH1 0x0 DUP1 PUSH1 0x80 DUP6 DUP8 SUB SLT ISZERO PUSH2 0x17DD JUMPI PUSH2 0x17DC PUSH2 0x2430 JUMP JUMPDEST JUMPDEST PUSH1 0x0 PUSH2 0x17EB DUP8 DUP3 DUP9 ADD PUSH2 0x168E JUMP JUMPDEST SWAP5 POP POP PUSH1 0x20 PUSH2 0x17FC DUP8 DUP3 DUP9 ADD PUSH2 0x16B8 JUMP JUMPDEST SWAP4 POP POP PUSH1 0x40 PUSH2 0x180D DUP8 DUP3 DUP9 ADD PUSH2 0x16A3 JUMP JUMPDEST SWAP3 POP POP PUSH1 0x60 PUSH2 0x181E DUP8 DUP3 DUP9 ADD PUSH2 0x16B8 JUMP JUMPDEST SWAP2 POP POP SWAP3 SWAP6 SWAP2 SWAP5 POP SWAP3 POP JUMP JUMPDEST PUSH1 0x0 DUP1 PUSH1 0x0 DUP1 PUSH1 0x0 PUSH1 0xA0 DUP7 DUP9 SUB SLT ISZERO PUSH2 0x1846 JUMPI PUSH2 0x1845 PUSH2 0x2430 JUMP JUMPDEST JUMPDEST PUSH1 0x0 PUSH2 0x1854 DUP9 DUP3 DUP10 ADD PUSH2 0x168E JUMP JUMPDEST SWAP6 POP POP PUSH1 0x20 PUSH2 0x1865 DUP9 DUP3 DUP10 ADD PUSH2 0x16B8 JUMP JUMPDEST SWAP5 POP POP PUSH1 0x40 PUSH2 0x1876 DUP9 DUP3 DUP10 ADD PUSH2 0x16B8 JUMP JUMPDEST SWAP4 POP POP PUSH1 0x60 PUSH2 0x1887 DUP9 DUP3 DUP10 ADD PUSH2 0x16B8 JUMP JUMPDEST SWAP3 POP POP PUSH1 0x80 PUSH2 0x1898 DUP9 DUP3 DUP10 ADD PUSH2 0x16B8 JUMP JUMPDEST SWAP2 POP POP SWAP3 SWAP6 POP SWAP3 SWAP6 SWAP1 SWAP4 POP JUMP JUMPDEST PUSH1 0x0 DUP1 PUSH1 0x0 DUP1 PUSH1 0x0 DUP1 PUSH1 0x0 PUSH1 0xC0 DUP9 DUP11 SUB SLT ISZERO PUSH2 0x18C4 JUMPI PUSH2 0x18C3 PUSH2 0x2430 JUMP JUMPDEST JUMPDEST PUSH1 0x0 PUSH2 0x18D2 DUP11 DUP3 DUP12 ADD PUSH2 0x168E JUMP JUMPDEST SWAP8 POP POP PUSH1 0x20 PUSH2 0x18E3 DUP11 DUP3 DUP12 ADD PUSH2 0x16B8 JUMP JUMPDEST SWAP7 POP POP PUSH1 0x40 PUSH2 0x18F4 DUP11 DUP3 DUP12 ADD PUSH2 0x16B8 JUMP JUMPDEST SWAP6 POP POP PUSH1 0x60 PUSH2 0x1905 DUP11 DUP3 DUP12 ADD PUSH2 0x16B8 JUMP JUMPDEST SWAP5 POP POP PUSH1 0x80 PUSH2 0x1916 DUP11 DUP3 DUP12 ADD PUSH2 0x16B8 JUMP JUMPDEST SWAP4 POP POP PUSH1 0xA0 DUP9 ADD CALLDATALOAD PUSH8 0xFFFFFFFFFFFFFFFF DUP2 GT ISZERO PUSH2 0x1937 JUMPI PUSH2 0x1936 PUSH2 0x242B JUMP JUMPDEST JUMPDEST PUSH2 0x1943 DUP11 DUP3 DUP12 ADD PUSH2 0x1623 JUMP JUMPDEST SWAP3 POP SWAP3 POP POP SWAP3 SWAP6 SWAP9 SWAP2 SWAP5 SWAP8 POP SWAP3 SWAP6 POP JUMP JUMPDEST PUSH1 0x0 DUP1 PUSH1 0x40 DUP4 DUP6 SUB SLT ISZERO PUSH2 0x196B JUMPI PUSH2 0x196A PUSH2 0x2430 JUMP JUMPDEST JUMPDEST PUSH1 0x0 PUSH2 0x1979 DUP6 DUP3 DUP7 ADD PUSH2 0x16B8 JUMP JUMPDEST SWAP3 POP POP PUSH1 0x20 PUSH2 0x198A DUP6 DUP3 DUP7 ADD PUSH2 0x15E0 JUMP JUMPDEST SWAP2 POP POP SWAP3 POP SWAP3 SWAP1 POP JUMP JUMPDEST PUSH2 0x199D DUP2 PUSH2 0x224B JUMP JUMPDEST DUP3 MSTORE POP POP JUMP JUMPDEST PUSH2 0x19AC DUP2 PUSH2 0x2135 JUMP JUMPDEST DUP3 MSTORE POP POP JUMP JUMPDEST PUSH2 0x19C3 PUSH2 0x19BE DUP3 PUSH2 0x2165 JUMP JUMPDEST PUSH2 0x2309 JUMP JUMPDEST DUP3 MSTORE POP POP JUMP JUMPDEST PUSH2 0x19D2 DUP2 PUSH2 0x2191 JUMP JUMPDEST DUP3 MSTORE POP POP JUMP JUMPDEST PUSH2 0x19E1 DUP2 PUSH2 0x21BD JUMP JUMPDEST DUP3 MSTORE POP POP JUMP JUMPDEST PUSH2 0x19F0 DUP2 PUSH2 0x21C7 JUMP JUMPDEST DUP3 MSTORE POP POP JUMP JUMPDEST PUSH1 0x0 PUSH2 0x1A01 DUP3 PUSH2 0x1E97 JUMP JUMPDEST PUSH2 0x1A0B DUP2 DUP6 PUSH2 0x1EAD JUMP JUMPDEST SWAP4 POP PUSH2 0x1A1B DUP2 DUP6 PUSH1 0x20 DUP7 ADD PUSH2 0x2293 JUMP JUMPDEST PUSH2 0x1A24 DUP2 PUSH2 0x2435 JUMP JUMPDEST DUP5 ADD SWAP2 POP POP SWAP3 SWAP2 POP POP JUMP JUMPDEST PUSH2 0x1A40 PUSH2 0x1A3B DUP3 PUSH2 0x225D JUMP JUMPDEST PUSH2 0x22F7 JUMP JUMPDEST DUP3 MSTORE POP POP JUMP JUMPDEST PUSH1 0x0 PUSH2 0x1A51 DUP3 PUSH2 0x1EA2 JUMP JUMPDEST PUSH2 0x1A5B DUP2 DUP6 PUSH2 0x1EBE JUMP JUMPDEST SWAP4 POP PUSH2 0x1A6B DUP2 DUP6 PUSH1 0x20 DUP7 ADD PUSH2 0x2293 JUMP JUMPDEST PUSH2 0x1A74 DUP2 PUSH2 0x2435 JUMP JUMPDEST DUP5 ADD SWAP2 POP POP SWAP3 SWAP2 POP POP JUMP JUMPDEST PUSH1 0x0 PUSH2 0x1A8C PUSH1 0x23 DUP4 PUSH2 0x1ECF JUMP JUMPDEST SWAP2 POP PUSH2 0x1A97 DUP3 PUSH2 0x2460 JUMP JUMPDEST PUSH1 0x40 DUP3 ADD SWAP1 POP SWAP2 SWAP1 POP JUMP JUMPDEST PUSH1 0x0 PUSH2 0x1AAF PUSH1 0x28 DUP4 PUSH2 0x1ECF JUMP JUMPDEST SWAP2 POP PUSH2 0x1ABA DUP3 PUSH2 0x24AF JUMP JUMPDEST PUSH1 0x40 DUP3 ADD SWAP1 POP SWAP2 SWAP1 POP JUMP JUMPDEST PUSH1 0x0 PUSH1 0x80 DUP4 ADD PUSH1 0x0 DUP4 ADD MLOAD PUSH2 0x1ADD PUSH1 0x0 DUP7 ADD DUP3 PUSH2 0x1BAA JUMP JUMPDEST POP PUSH1 0x20 DUP4 ADD MLOAD PUSH2 0x1AF0 PUSH1 0x20 DUP7 ADD DUP3 PUSH2 0x1BB9 JUMP JUMPDEST POP PUSH1 0x40 DUP4 ADD MLOAD DUP5 DUP3 SUB PUSH1 0x40 DUP7 ADD MSTORE PUSH2 0x1B08 DUP3 DUP3 PUSH2 0x1A46 JUMP JUMPDEST SWAP2 POP POP PUSH1 0x60 DUP4 ADD MLOAD DUP5 DUP3 SUB PUSH1 0x60 DUP7 ADD MSTORE PUSH2 0x1B22 DUP3 DUP3 PUSH2 0x1A46 JUMP JUMPDEST SWAP2 POP POP DUP1 SWAP2 POP POP SWAP3 SWAP2 POP POP JUMP JUMPDEST PUSH1 0x80 DUP3 ADD PUSH1 0x0 DUP3 ADD MLOAD PUSH2 0x1B45 PUSH1 0x0 DUP6 ADD DUP3 PUSH2 0x1BAA JUMP JUMPDEST POP PUSH1 0x20 DUP3 ADD MLOAD PUSH2 0x1B58 PUSH1 0x20 DUP6 ADD DUP3 PUSH2 0x1BC8 JUMP JUMPDEST POP PUSH1 0x40 DUP3 ADD MLOAD PUSH2 0x1B6B PUSH1 0x40 DUP6 ADD DUP3 PUSH2 0x1BC8 JUMP JUMPDEST POP PUSH1 0x60 DUP3 ADD MLOAD PUSH2 0x1B7E PUSH1 0x60 DUP6 ADD DUP3 PUSH2 0x19C9 JUMP JUMPDEST POP POP POP POP JUMP JUMPDEST PUSH2 0x1B8D DUP2 PUSH2 0x2213 JUMP JUMPDEST DUP3 MSTORE POP POP JUMP JUMPDEST PUSH2 0x1BA4 PUSH2 0x1B9F DUP3 PUSH2 0x2213 JUMP JUMPDEST PUSH2 0x2325 JUMP JUMPDEST DUP3 MSTORE POP POP JUMP JUMPDEST PUSH2 0x1BB3 DUP2 PUSH2 0x221D JUMP JUMPDEST DUP3 MSTORE POP POP JUMP JUMPDEST PUSH2 0x1BC2 DUP2 PUSH2 0x222D JUMP JUMPDEST DUP3 MSTORE POP POP JUMP JUMPDEST PUSH2 0x1BD1 DUP2 PUSH2 0x223E JUMP JUMPDEST DUP3 MSTORE POP POP JUMP JUMPDEST PUSH1 0x0 PUSH2 0x1BE3 DUP3 DUP5 PUSH2 0x19B2 JUMP JUMPDEST PUSH1 0xA DUP3 ADD SWAP2 POP DUP2 SWAP1 POP SWAP3 SWAP2 POP POP JUMP JUMPDEST PUSH1 0x0 PUSH2 0x1BFE DUP3 DUP6 PUSH2 0x1A2F JUMP JUMPDEST PUSH1 0x14 DUP3 ADD SWAP2 POP PUSH2 0x1C0E DUP3 DUP5 PUSH2 0x1B93 JUMP JUMPDEST PUSH1 0x20 DUP3 ADD SWAP2 POP DUP2 SWAP1 POP SWAP4 SWAP3 POP POP POP JUMP JUMPDEST PUSH1 0x0 PUSH1 0x20 DUP3 ADD SWAP1 POP PUSH2 0x1C33 PUSH1 0x0 DUP4 ADD DUP5 PUSH2 0x19A3 JUMP JUMPDEST SWAP3 SWAP2 POP POP JUMP JUMPDEST PUSH1 0x0 PUSH1 0x40 DUP3 ADD SWAP1 POP PUSH2 0x1C4E PUSH1 0x0 DUP4 ADD DUP6 PUSH2 0x1994 JUMP JUMPDEST PUSH2 0x1C5B PUSH1 0x20 DUP4 ADD DUP5 PUSH2 0x1B84 JUMP JUMPDEST SWAP4 SWAP3 POP POP POP JUMP JUMPDEST PUSH1 0x0 PUSH1 0x40 DUP3 ADD SWAP1 POP PUSH2 0x1C77 PUSH1 0x0 DUP4 ADD DUP6 PUSH2 0x19A3 JUMP JUMPDEST PUSH2 0x1C84 PUSH1 0x20 DUP4 ADD DUP5 PUSH2 0x1B84 JUMP JUMPDEST SWAP4 SWAP3 POP POP POP JUMP JUMPDEST PUSH1 0x0 PUSH2 0x100 DUP3 ADD SWAP1 POP PUSH2 0x1CA1 PUSH1 0x0 DUP4 ADD DUP12 PUSH2 0x19A3 JUMP JUMPDEST PUSH2 0x1CAE PUSH1 0x20 DUP4 ADD DUP11 PUSH2 0x1B84 JUMP JUMPDEST PUSH2 0x1CBB PUSH1 0x40 DUP4 ADD DUP10 PUSH2 0x19D8 JUMP JUMPDEST PUSH2 0x1CC8 PUSH1 0x60 DUP4 ADD DUP9 PUSH2 0x19A3 JUMP JUMPDEST PUSH2 0x1CD5 PUSH1 0x80 DUP4 ADD DUP8 PUSH2 0x19E7 JUMP JUMPDEST PUSH2 0x1CE2 PUSH1 0xA0 DUP4 ADD DUP7 PUSH2 0x1B84 JUMP JUMPDEST PUSH2 0x1CEF PUSH1 0xC0 DUP4 ADD DUP6 PUSH2 0x1B84 JUMP JUMPDEST DUP2 DUP2 SUB PUSH1 0xE0 DUP4 ADD MSTORE PUSH2 0x1D01 DUP2 DUP5 PUSH2 0x19F6 JUMP JUMPDEST SWAP1 POP SWAP10 SWAP9 POP POP POP POP POP POP POP POP POP JUMP JUMPDEST PUSH1 0x0 PUSH1 0x60 DUP3 ADD SWAP1 POP PUSH2 0x1D25 PUSH1 0x0 DUP4 ADD DUP7 PUSH2 0x19A3 JUMP JUMPDEST PUSH2 0x1D32 PUSH1 0x20 DUP4 ADD DUP6 PUSH2 0x1B84 JUMP JUMPDEST DUP2 DUP2 SUB PUSH1 0x40 DUP4 ADD MSTORE PUSH2 0x1D44 DUP2 DUP5 PUSH2 0x19F6 JUMP JUMPDEST SWAP1 POP SWAP5 SWAP4 POP POP POP POP JUMP JUMPDEST PUSH1 0x0 PUSH1 0x20 DUP3 ADD SWAP1 POP PUSH2 0x1D63 PUSH1 0x0 DUP4 ADD DUP5 PUSH2 0x19D8 JUMP JUMPDEST SWAP3 SWAP2 POP POP JUMP JUMPDEST PUSH1 0x0 PUSH1 0x80 DUP3 ADD SWAP1 POP PUSH2 0x1D7E PUSH1 0x0 DUP4 ADD DUP8 PUSH2 0x19D8 JUMP JUMPDEST PUSH2 0x1D8B PUSH1 0x20 DUP4 ADD DUP7 PUSH2 0x1B84 JUMP JUMPDEST PUSH2 0x1D98 PUSH1 0x40 DUP4 ADD DUP6 PUSH2 0x19E7 JUMP JUMPDEST PUSH2 0x1DA5 PUSH1 0x60 DUP4 ADD DUP5 PUSH2 0x1B84 JUMP JUMPDEST SWAP6 SWAP5 POP POP POP POP POP JUMP JUMPDEST PUSH1 0x0 PUSH1 0x20 DUP3 ADD SWAP1 POP DUP2 DUP2 SUB PUSH1 0x0 DUP4 ADD MSTORE PUSH2 0x1DC7 DUP2 PUSH2 0x1A7F JUMP JUMPDEST SWAP1 POP SWAP2 SWAP1 POP JUMP JUMPDEST PUSH1 0x0 PUSH1 0x20 DUP3 ADD SWAP1 POP DUP2 DUP2 SUB PUSH1 0x0 DUP4 ADD MSTORE PUSH2 0x1DE7 DUP2 PUSH2 0x1AA2 JUMP JUMPDEST SWAP1 POP SWAP2 SWAP1 POP JUMP JUMPDEST PUSH1 0x0 PUSH1 0x20 DUP3 ADD SWAP1 POP DUP2 DUP2 SUB PUSH1 0x0 DUP4 ADD MSTORE PUSH2 0x1E08 DUP2 DUP5 PUSH2 0x1AC5 JUMP JUMPDEST SWAP1 POP SWAP3 SWAP2 POP POP JUMP JUMPDEST PUSH1 0x0 PUSH1 0x80 DUP3 ADD SWAP1 POP PUSH2 0x1E25 PUSH1 0x0 DUP4 ADD DUP5 PUSH2 0x1B2F JUMP JUMPDEST SWAP3 SWAP2 POP POP JUMP JUMPDEST PUSH1 0x0 PUSH1 0x20 DUP3 ADD SWAP1 POP PUSH2 0x1E40 PUSH1 0x0 DUP4 ADD DUP5 PUSH2 0x1B84 JUMP JUMPDEST SWAP3 SWAP2 POP POP JUMP JUMPDEST PUSH1 0x0 PUSH2 0x1E50 PUSH2 0x1E61 JUMP JUMPDEST SWAP1 POP PUSH2 0x1E5C DUP3 DUP3 PUSH2 0x22C6 JUMP JUMPDEST SWAP2 SWAP1 POP JUMP JUMPDEST PUSH1 0x0 PUSH1 0x40 MLOAD SWAP1 POP SWAP1 JUMP JUMPDEST PUSH1 0x0 PUSH8 0xFFFFFFFFFFFFFFFF DUP3 GT ISZERO PUSH2 0x1E86 JUMPI PUSH2 0x1E85 PUSH2 0x23ED JUMP JUMPDEST JUMPDEST PUSH1 0x20 DUP3 MUL SWAP1 POP PUSH1 0x20 DUP2 ADD SWAP1 POP SWAP2 SWAP1 POP JUMP JUMPDEST PUSH1 0x0 DUP2 MLOAD SWAP1 POP SWAP2 SWAP1 POP JUMP JUMPDEST PUSH1 0x0 DUP2 MLOAD SWAP1 POP SWAP2 SWAP1 POP JUMP JUMPDEST PUSH1 0x0 DUP3 DUP3 MSTORE PUSH1 0x20 DUP3 ADD SWAP1 POP SWAP3 SWAP2 POP POP JUMP JUMPDEST PUSH1 0x0 DUP3 DUP3 MSTORE PUSH1 0x20 DUP3 ADD SWAP1 POP SWAP3 SWAP2 POP POP JUMP JUMPDEST PUSH1 0x0 DUP3 DUP3 MSTORE PUSH1 0x20 DUP3 ADD SWAP1 POP SWAP3 SWAP2 POP POP JUMP JUMPDEST PUSH1 0x0 PUSH2 0x1EEB DUP3 PUSH2 0x2213 JUMP JUMPDEST SWAP2 POP PUSH2 0x1EF6 DUP4 PUSH2 0x2213 JUMP JUMPDEST SWAP3 POP DUP3 PUSH32 0xFFFFFFFFFFFFFFFFFFFFFFFFFFFFFFFFFFFFFFFFFFFFFFFFFFFFFFFFFFFFFFFF SUB DUP3 GT ISZERO PUSH2 0x1F2B JUMPI PUSH2 0x1F2A PUSH2 0x2360 JUMP JUMPDEST JUMPDEST DUP3 DUP3 ADD SWAP1 POP SWAP3 SWAP2 POP POP JUMP JUMPDEST PUSH1 0x0 DUP1 DUP3 SWAP2 POP DUP4 SWAP1 POP JUMPDEST PUSH1 0x1 DUP6 GT ISZERO PUSH2 0x1F80 JUMPI DUP1 DUP7 DIV DUP2 GT ISZERO PUSH2 0x1F5C JUMPI PUSH2 0x1F5B PUSH2 0x2360 JUMP JUMPDEST JUMPDEST PUSH1 0x1 DUP6 AND ISZERO PUSH2 0x1F6B JUMPI DUP1 DUP3 MUL SWAP2 POP JUMPDEST DUP1 DUP2 MUL SWAP1 POP PUSH2 0x1F79 DUP6 PUSH2 0x2453 JUMP JUMPDEST SWAP5 POP PUSH2 0x1F40 JUMP JUMPDEST SWAP5 POP SWAP5 SWAP3 POP POP POP JUMP JUMPDEST PUSH1 0x0 PUSH2 0x1F94 DUP3 PUSH2 0x2213 JUMP JUMPDEST SWAP2 POP PUSH2 0x1F9F DUP4 PUSH2 0x2213 JUMP JUMPDEST SWAP3 POP PUSH2 0x1FCC PUSH32 0xFFFFFFFFFFFFFFFFFFFFFFFFFFFFFFFFFFFFFFFFFFFFFFFFFFFFFFFFFFFFFFFF DUP5 DUP5 PUSH2 0x1FD4 JUMP JUMPDEST SWAP1 POP SWAP3 SWAP2 POP POP JUMP JUMPDEST PUSH1 0x0 DUP3 PUSH2 0x1FE4 JUMPI PUSH1 0x1 SWAP1 POP PUSH2 0x20A0 JUMP JUMPDEST DUP2 PUSH2 0x1FF2 JUMPI PUSH1 0x0 SWAP1 POP PUSH2 0x20A0 JUMP JUMPDEST DUP2 PUSH1 0x1 DUP2 EQ PUSH2 0x2008 JUMPI PUSH1 0x2 DUP2 EQ PUSH2 0x2012 JUMPI PUSH2 0x2041 JUMP JUMPDEST PUSH1 0x1 SWAP2 POP POP PUSH2 0x20A0 JUMP JUMPDEST PUSH1 0xFF DUP5 GT ISZERO PUSH2 0x2024 JUMPI PUSH2 0x2023 PUSH2 0x2360 JUMP JUMPDEST JUMPDEST DUP4 PUSH1 0x2 EXP SWAP2 POP DUP5 DUP3 GT ISZERO PUSH2 0x203B JUMPI PUSH2 0x203A PUSH2 0x2360 JUMP JUMPDEST JUMPDEST POP PUSH2 0x20A0 JUMP JUMPDEST POP PUSH1 0x20 DUP4 LT PUSH2 0x133 DUP4 LT AND PUSH1 0x4E DUP5 LT PUSH1 0xB DUP5 LT AND OR ISZERO PUSH2 0x2076 JUMPI DUP3 DUP3 EXP SWAP1 POP DUP4 DUP2 GT ISZERO PUSH2 0x2071 JUMPI PUSH2 0x2070 PUSH2 0x2360 JUMP JUMPDEST JUMPDEST PUSH2 0x20A0 JUMP JUMPDEST PUSH2 0x2083 DUP5 DUP5 DUP5 PUSH1 0x1 PUSH2 0x1F36 JUMP JUMPDEST SWAP3 POP SWAP1 POP DUP2 DUP5 DIV DUP2 GT ISZERO PUSH2 0x209A JUMPI PUSH2 0x2099 PUSH2 0x2360 JUMP JUMPDEST JUMPDEST DUP2 DUP2 MUL SWAP1 POP JUMPDEST SWAP4 SWAP3 POP POP POP JUMP JUMPDEST PUSH1 0x0 PUSH2 0x20B2 DUP3 PUSH2 0x2213 JUMP JUMPDEST SWAP2 POP PUSH2 0x20BD DUP4 PUSH2 0x2213 JUMP JUMPDEST SWAP3 POP DUP2 PUSH32 0xFFFFFFFFFFFFFFFFFFFFFFFFFFFFFFFFFFFFFFFFFFFFFFFFFFFFFFFFFFFFFFFF DIV DUP4 GT DUP3 ISZERO ISZERO AND ISZERO PUSH2 0x20F6 JUMPI PUSH2 0x20F5 PUSH2 0x2360 JUMP JUMPDEST JUMPDEST DUP3 DUP3 MUL SWAP1 POP SWAP3 SWAP2 POP POP JUMP JUMPDEST PUSH1 0x0 PUSH2 0x210C DUP3 PUSH2 0x2213 JUMP JUMPDEST SWAP2 POP PUSH2 0x2117 DUP4 PUSH2 0x2213 JUMP JUMPDEST SWAP3 POP DUP3 DUP3 LT ISZERO PUSH2 0x212A JUMPI PUSH2 0x2129 PUSH2 0x2360 JUMP JUMPDEST JUMPDEST DUP3 DUP3 SUB SWAP1 POP SWAP3 SWAP2 POP POP JUMP JUMPDEST PUSH1 0x0 PUSH2 0x2140 DUP3 PUSH2 0x21F3 JUMP JUMPDEST SWAP1 POP SWAP2 SWAP1 POP JUMP JUMPDEST PUSH1 0x0 PUSH2 0x2152 DUP3 PUSH2 0x21F3 JUMP JUMPDEST SWAP1 POP SWAP2 SWAP1 POP JUMP JUMPDEST PUSH1 0x0 DUP2 ISZERO ISZERO SWAP1 POP SWAP2 SWAP1 POP JUMP JUMPDEST PUSH1 0x0 PUSH32 0xFFFFFFFFFFFFFFFFFFFF00000000000000000000000000000000000000000000 DUP3 AND SWAP1 POP SWAP2 SWAP1 POP JUMP JUMPDEST PUSH1 0x0 PUSH32 0xFFFFFFFFFFFFFFFFFFFFFFFFFFFFFFFFFFFFFFFF000000000000000000000000 DUP3 AND SWAP1 POP SWAP2 SWAP1 POP JUMP JUMPDEST PUSH1 0x0 DUP2 SWAP1 POP SWAP2 SWAP1 POP JUMP JUMPDEST PUSH1 0x0 PUSH32 0xFFFFFFFF00000000000000000000000000000000000000000000000000000000 DUP3 AND SWAP1 POP SWAP2 SWAP1 POP JUMP JUMPDEST PUSH1 0x0 PUSH20 0xFFFFFFFFFFFFFFFFFFFFFFFFFFFFFFFFFFFFFFFF DUP3 AND SWAP1 POP SWAP2 SWAP1 POP JUMP JUMPDEST PUSH1 0x0 DUP2 SWAP1 POP SWAP2 SWAP1 POP JUMP JUMPDEST PUSH1 0x0 PUSH4 0xFFFFFFFF DUP3 AND SWAP1 POP SWAP2 SWAP1 POP JUMP JUMPDEST PUSH1 0x0 PUSH5 0xFFFFFFFFFF DUP3 AND SWAP1 POP SWAP2 SWAP1 POP JUMP JUMPDEST PUSH1 0x0 PUSH1 0xFF DUP3 AND SWAP1 POP SWAP2 SWAP1 POP JUMP JUMPDEST PUSH1 0x0 PUSH2 0x2256 DUP3 PUSH2 0x226F JUMP JUMPDEST SWAP1 POP SWAP2 SWAP1 POP JUMP JUMPDEST PUSH1 0x0 PUSH2 0x2268 DUP3 PUSH2 0x226F JUMP JUMPDEST SWAP1 POP SWAP2 SWAP1 POP JUMP JUMPDEST PUSH1 0x0 PUSH2 0x227A DUP3 PUSH2 0x2281 JUMP JUMPDEST SWAP1 POP SWAP2 SWAP1 POP JUMP JUMPDEST PUSH1 0x0 PUSH2 0x228C DUP3 PUSH2 0x21F3 JUMP JUMPDEST SWAP1 POP SWAP2 SWAP1 POP JUMP JUMPDEST PUSH1 0x0 JUMPDEST DUP4 DUP2 LT ISZERO PUSH2 0x22B1 JUMPI DUP1 DUP3 ADD MLOAD DUP2 DUP5 ADD MSTORE PUSH1 0x20 DUP2 ADD SWAP1 POP PUSH2 0x2296 JUMP JUMPDEST DUP4 DUP2 GT ISZERO PUSH2 0x22C0 JUMPI PUSH1 0x0 DUP5 DUP5 ADD MSTORE JUMPDEST POP POP POP POP JUMP JUMPDEST PUSH2 0x22CF DUP3 PUSH2 0x2435 JUMP JUMPDEST DUP2 ADD DUP2 DUP2 LT PUSH8 0xFFFFFFFFFFFFFFFF DUP3 GT OR ISZERO PUSH2 0x22EE JUMPI PUSH2 0x22ED PUSH2 0x23ED JUMP JUMPDEST JUMPDEST DUP1 PUSH1 0x40 MSTORE POP POP POP JUMP JUMPDEST PUSH1 0x0 PUSH2 0x2302 DUP3 PUSH2 0x2313 JUMP JUMPDEST SWAP1 POP SWAP2 SWAP1 POP JUMP JUMPDEST PUSH1 0x0 DUP2 SWAP1 POP SWAP2 SWAP1 POP JUMP JUMPDEST PUSH1 0x0 PUSH2 0x231E DUP3 PUSH2 0x2446 JUMP JUMPDEST SWAP1 POP SWAP2 SWAP1 POP JUMP JUMPDEST PUSH1 0x0 DUP2 SWAP1 POP SWAP2 SWAP1 POP JUMP JUMPDEST PUSH1 0x0 PUSH2 0x233A DUP3 PUSH2 0x2213 JUMP JUMPDEST SWAP2 POP PUSH2 0x2345 DUP4 PUSH2 0x2213 JUMP JUMPDEST SWAP3 POP DUP3 PUSH2 0x2355 JUMPI PUSH2 0x2354 PUSH2 0x238F JUMP JUMPDEST JUMPDEST DUP3 DUP3 MOD SWAP1 POP SWAP3 SWAP2 POP POP JUMP JUMPDEST PUSH32 0x4E487B7100000000000000000000000000000000000000000000000000000000 PUSH1 0x0 MSTORE PUSH1 0x11 PUSH1 0x4 MSTORE PUSH1 0x24 PUSH1 0x0 REVERT JUMPDEST PUSH32 0x4E487B7100000000000000000000000000000000000000000000000000000000 PUSH1 0x0 MSTORE PUSH1 0x12 PUSH1 0x4 MSTORE PUSH1 0x24 PUSH1 0x0 REVERT JUMPDEST PUSH32 0x4E487B7100000000000000000000000000000000000000000000000000000000 PUSH1 0x0 MSTORE PUSH1 0x32 PUSH1 0x4 MSTORE PUSH1 0x24 PUSH1 0x0 REVERT JUMPDEST PUSH32 0x4E487B7100000000000000000000000000000000000000000000000000000000 PUSH1 0x0 MSTORE PUSH1 0x41 PUSH1 0x4 MSTORE PUSH1 0x24 PUSH1 0x0 REVERT JUMPDEST PUSH1 0x0 DUP1 REVERT JUMPDEST PUSH1 0x0 DUP1 REVERT JUMPDEST PUSH1 0x0 DUP1 REVERT JUMPDEST PUSH1 0x0 DUP1 REVERT JUMPDEST PUSH1 0x0 DUP1 REVERT JUMPDEST PUSH1 0x0 PUSH1 0x1F NOT PUSH1 0x1F DUP4 ADD AND SWAP1 POP SWAP2 SWAP1 POP JUMP JUMPDEST PUSH1 0x0 DUP2 PUSH1 0x60 SHL SWAP1 POP SWAP2 SWAP1 POP JUMP JUMPDEST PUSH1 0x0 DUP2 PUSH1 0x1 SHR SWAP1 POP SWAP2 SWAP1 POP JUMP JUMPDEST PUSH32 0x756E61626C6520746F207472616E73666572416E6443616C6C20746F206F7261 PUSH1 0x0 DUP3 ADD MSTORE PUSH32 0x636C650000000000000000000000000000000000000000000000000000000000 PUSH1 0x20 DUP3 ADD MSTORE POP JUMP JUMPDEST PUSH32 0x536F75726365206D75737420626520746865206F7261636C65206F6620746865 PUSH1 0x0 DUP3 ADD MSTORE PUSH32 0x2072657175657374000000000000000000000000000000000000000000000000 PUSH1 0x20 DUP3 ADD MSTORE POP JUMP JUMPDEST PUSH2 0x2507 DUP2 PUSH2 0x2135 JUMP JUMPDEST DUP2 EQ PUSH2 0x2512 JUMPI PUSH1 0x0 DUP1 REVERT JUMPDEST POP JUMP JUMPDEST PUSH2 0x251E DUP2 PUSH2 0x2147 JUMP JUMPDEST DUP2 EQ PUSH2 0x2529 JUMPI PUSH1 0x0 DUP1 REVERT JUMPDEST POP JUMP JUMPDEST PUSH2 0x2535 DUP2 PUSH2 0x2159 JUMP JUMPDEST DUP2 EQ PUSH2 0x2540 JUMPI PUSH1 0x0 DUP1 REVERT JUMPDEST POP JUMP JUMPDEST PUSH2 0x254C DUP2 PUSH2 0x21BD JUMP JUMPDEST DUP2 EQ PUSH2 0x2557 JUMPI PUSH1 0x0 DUP1 REVERT JUMPDEST POP JUMP JUMPDEST PUSH2 0x2563 DUP2 PUSH2 0x21C7 JUMP JUMPDEST DUP2 EQ PUSH2 0x256E JUMPI PUSH1 0x0 DUP1 REVERT JUMPDEST POP JUMP JUMPDEST PUSH2 0x257A DUP2 PUSH2 0x2213 JUMP JUMPDEST DUP2 EQ PUSH2 0x2585 JUMPI PUSH1 0x0 DUP1 REVERT JUMPDEST POP JUMP INVALID LOG2 PUSH5 0x6970667358 0x22 SLT KECCAK256 0xBA 0x5D 0xE2 CALLVALUE 0x28 0xBF PUSH5 0xFD5EFFED63 SIGNEXTEND 0x2C ADD DUP1 LOG2 0xE2 BASEFEE 0x2A 0xC4 SSTORE PUSH11 0xCDC2209CB36FF86F5B6473 PUSH16 0x6C634300080700330000000000000000 "
        },
        "methodIdentifiers": {
          "cancelRequest(bytes32,uint256,bytes4,uint256)": "ec65d0f8",
          "fulfillSchedule(bytes32,bytes32[])": "397e20fc",
          "getGameCreateMlb(bytes32,uint256)": "66214097",
          "getGameResolveMlb(bytes32,uint256)": "9fd344e8",
          "getOracleAddress()": "b18b78dd",
          "requestIdGames(bytes32,uint256)": "a2943608",
          "requestSchedule(bytes32,uint256,uint256,uint256,uint256)": "00aa2967",
          "requestSchedule(bytes32,uint256,uint256,uint256,uint256,uint256[])": "49687cca",
          "setOracle(address)": "7adbf973",
          "withdrawLink(uint256,address)": "41ea27ca"
        }
      }
    }
  }
}