{
  "_format": "hh-sol-artifact-1",
  "contractName": "TherundownConsumer",
  "sourceName": "contracts/TheRundownConsumer.sol",
  "abi": [
    {
      "inputs": [
        {
          "internalType": "address",
          "name": "_link",
          "type": "address"
        },
        {
          "internalType": "address",
          "name": "_oracle",
          "type": "address"
        }
      ],
      "stateMutability": "nonpayable",
      "type": "constructor"
    },
    {
      "anonymous": false,
      "inputs": [
        {
          "indexed": true,
          "internalType": "bytes32",
          "name": "id",
          "type": "bytes32"
        }
      ],
      "name": "ChainlinkCancelled",
      "type": "event"
    },
    {
      "anonymous": false,
      "inputs": [
        {
          "indexed": true,
          "internalType": "bytes32",
          "name": "id",
          "type": "bytes32"
        }
      ],
      "name": "ChainlinkFulfilled",
      "type": "event"
    },
    {
      "anonymous": false,
      "inputs": [
        {
          "indexed": true,
          "internalType": "bytes32",
          "name": "id",
          "type": "bytes32"
        }
      ],
      "name": "ChainlinkRequested",
      "type": "event"
    },
    {
      "inputs": [
        {
          "internalType": "bytes32",
          "name": "_requestId",
          "type": "bytes32"
        },
        {
          "internalType": "bytes[]",
          "name": "_games",
          "type": "bytes[]"
        }
      ],
      "name": "fulfillGames",
      "outputs": [],
      "stateMutability": "nonpayable",
      "type": "function"
    },
    {
      "inputs": [
        {
          "internalType": "bytes32",
          "name": "_requestId",
          "type": "bytes32"
        },
        {
          "internalType": "uint256",
          "name": "_idx",
          "type": "uint256"
        }
      ],
      "name": "getGamesCreated",
      "outputs": [
        {
          "components": [
            {
              "internalType": "bytes32",
              "name": "gameId",
              "type": "bytes32"
            },
            {
              "internalType": "uint256",
              "name": "startTime",
              "type": "uint256"
            },
            {
              "internalType": "string",
              "name": "homeTeam",
              "type": "string"
            },
            {
              "internalType": "string",
              "name": "awayTeam",
              "type": "string"
            }
          ],
          "internalType": "struct TherundownConsumer.GameCreate",
          "name": "",
          "type": "tuple"
        }
      ],
      "stateMutability": "view",
      "type": "function"
    },
    {
      "inputs": [
        {
          "internalType": "bytes32",
          "name": "_requestId",
          "type": "bytes32"
        },
        {
          "internalType": "uint256",
          "name": "_idx",
          "type": "uint256"
        }
      ],
      "name": "getGamesResolved",
      "outputs": [
        {
          "components": [
            {
              "internalType": "bytes32",
              "name": "gameId",
              "type": "bytes32"
            },
            {
              "internalType": "uint8",
              "name": "homeScore",
              "type": "uint8"
            },
            {
              "internalType": "uint8",
              "name": "awayScore",
              "type": "uint8"
            },
            {
              "internalType": "uint8",
              "name": "statusId",
              "type": "uint8"
            }
          ],
          "internalType": "struct TherundownConsumer.GameResolve",
          "name": "",
          "type": "tuple"
        }
      ],
      "stateMutability": "view",
      "type": "function"
    },
    {
      "inputs": [],
      "name": "getOracleAddress",
      "outputs": [
        {
          "internalType": "address",
          "name": "",
          "type": "address"
        }
      ],
      "stateMutability": "view",
      "type": "function"
    },
    {
      "inputs": [
        {
          "internalType": "bytes32",
          "name": "_specId",
          "type": "bytes32"
        },
        {
          "internalType": "uint256",
          "name": "_payment",
          "type": "uint256"
        },
        {
          "internalType": "string",
          "name": "_market",
          "type": "string"
        },
        {
          "internalType": "uint256",
          "name": "_sportId",
          "type": "uint256"
        },
        {
          "internalType": "uint256",
          "name": "_date",
          "type": "uint256"
        }
      ],
      "name": "requestGames",
      "outputs": [],
      "stateMutability": "nonpayable",
      "type": "function"
    },
    {
      "inputs": [
        {
          "internalType": "bytes32",
          "name": "_specId",
          "type": "bytes32"
        },
        {
          "internalType": "uint256",
          "name": "_payment",
          "type": "uint256"
        },
        {
          "internalType": "string",
          "name": "_market",
          "type": "string"
        },
        {
          "internalType": "uint256",
          "name": "_sportId",
          "type": "uint256"
        },
        {
          "internalType": "uint256",
          "name": "_date",
          "type": "uint256"
        },
        {
          "internalType": "string[]",
          "name": "_statusIds",
          "type": "string[]"
        },
        {
          "internalType": "string[]",
          "name": "_gameIds",
          "type": "string[]"
        }
      ],
      "name": "requestGamesResolveWithFilters",
      "outputs": [],
      "stateMutability": "nonpayable",
      "type": "function"
    },
    {
      "inputs": [
        {
          "internalType": "bytes32",
          "name": "",
          "type": "bytes32"
        },
        {
          "internalType": "uint256",
          "name": "",
          "type": "uint256"
        }
      ],
      "name": "requestIdGames",
      "outputs": [
        {
          "internalType": "bytes",
          "name": "",
          "type": "bytes"
        }
      ],
      "stateMutability": "view",
      "type": "function"
    },
    {
      "inputs": [
        {
          "internalType": "address",
          "name": "_oracle",
          "type": "address"
        }
      ],
      "name": "setOracle",
      "outputs": [],
      "stateMutability": "nonpayable",
      "type": "function"
    },
    {
      "inputs": [],
      "name": "withdrawLink",
      "outputs": [],
      "stateMutability": "nonpayable",
      "type": "function"
    }
  ],
  "bytecode": "0x608060405260016004553480156200001657600080fd5b5060405162002c1e38038062002c1e83398181016040528101906200003c919062000105565b6200004d826200006660201b60201c565b6200005e81620000aa60201b60201c565b50506200019f565b80600260006101000a81548173ffffffffffffffffffffffffffffffffffffffff021916908373ffffffffffffffffffffffffffffffffffffffff16021790555050565b80600360006101000a81548173ffffffffffffffffffffffffffffffffffffffff021916908373ffffffffffffffffffffffffffffffffffffffff16021790555050565b600081519050620000ff8162000185565b92915050565b600080604083850312156200011f576200011e62000180565b5b60006200012f85828601620000ee565b92505060206200014285828601620000ee565b9150509250929050565b6000620001598262000160565b9050919050565b600073ffffffffffffffffffffffffffffffffffffffff82169050919050565b600080fd5b62000190816200014c565b81146200019c57600080fd5b50565b612a6f80620001af6000396000f3fe608060405234801561001057600080fd5b50600436106100935760003560e01c80637adbf973116100665780637adbf9731461011c578063800fd8da146101385780638dc654a214610168578063a294360814610172578063b18b78dd146101a257610093565b8063131be6cc1461009857806345040746146100b45780634eaecd68146100d05780634fe7b644146100ec575b600080fd5b6100b260048036038101906100ad9190611bcd565b6101c0565b005b6100ce60048036038101906100c99190611b31565b6102c7565b005b6100ea60048036038101906100e59190611c64565b6103f9565b005b61010660048036038101906101019190611b8d565b610596565b60405161011391906121e3565b60405180910390f35b61013660048036038101906101319190611ad7565b610677565b005b610152600480360381019061014d9190611b8d565b610683565b60405161015f9190612205565b60405180910390f35b610170610764565b005b61018c60048036038101906101879190611b8d565b6108c7565b6040516101999190612161565b60405180910390f35b6101aa610980565b6040516101b7919061205a565b60405180910390f35b60006101d48630634504074660e01b61098f565b90506102206040518060400160405280600481526020017f646174650000000000000000000000000000000000000000000000000000000081525083836109c09092919063ffffffff16565b61026a6040518060400160405280600681526020017f6d61726b6574000000000000000000000000000000000000000000000000000081525085836109f39092919063ffffffff16565b6102b46040518060400160405280600781526020017f73706f727449640000000000000000000000000000000000000000000000000081525084836109c09092919063ffffffff16565b6102be8186610a26565b50505050505050565b816005600082815260200190815260200160002060009054906101000a900473ffffffffffffffffffffffffffffffffffffffff1673ffffffffffffffffffffffffffffffffffffffff163373ffffffffffffffffffffffffffffffffffffffff1614610369576040517f08c379a0000000000000000000000000000000000000000000000000000000008152600401610360906121c3565b60405180910390fd5b6005600082815260200190815260200160002060006101000a81549073ffffffffffffffffffffffffffffffffffffffff0219169055807f7cc135e0cebb02c3480ae5d74d377283180a2601f8f644edf7987b009316c63a60405160405180910390a2816006600085815260200190815260200160002090805190602001906103f3929190611407565b50505050565b600061040d8830634504074660e01b61098f565b90506104596040518060400160405280600481526020017f646174650000000000000000000000000000000000000000000000000000000081525085836109c09092919063ffffffff16565b6104a36040518060400160405280600681526020017f6d61726b6574000000000000000000000000000000000000000000000000000081525087836109f39092919063ffffffff16565b6104ed6040518060400160405280600781526020017f73706f727449640000000000000000000000000000000000000000000000000081525086836109c09092919063ffffffff16565b6105376040518060400160405280600981526020017f73746174757349647300000000000000000000000000000000000000000000008152508483610a5d9092919063ffffffff16565b6105816040518060400160405280600781526020017f67616d65496473000000000000000000000000000000000000000000000000008152508383610a5d9092919063ffffffff16565b61058b8188610a26565b505050505050505050565b61059e611467565b60006006600085815260200190815260200160002083815481106105c5576105c4612853565b5b9060005260206000200180546105da906126bb565b80601f0160208091040260200160405190810160405280929190818152602001828054610606906126bb565b80156106535780601f1061062857610100808354040283529160200191610653565b820191906000526020600020905b81548152906001019060200180831161063657829003601f168201915b505050505080602001905181019061066b9190611d5a565b90508091505092915050565b61068081610ae4565b50565b61068b611492565b60006006600085815260200190815260200160002083815481106106b2576106b1612853565b5b9060005260206000200180546106c7906126bb565b80601f01602080910402602001604051908101604052809291908181526020018280546106f3906126bb565b80156107405780601f1061071557610100808354040283529160200191610740565b820191906000526020600020905b81548152906001019060200180831161072357829003601f168201915b50505050508060200190518101906107589190611da3565b90508091505092915050565b600061076e610b28565b90508073ffffffffffffffffffffffffffffffffffffffff1663a9059cbb338373ffffffffffffffffffffffffffffffffffffffff166370a08231306040518263ffffffff1660e01b81526004016107c6919061205a565b60206040518083038186803b1580156107de57600080fd5b505afa1580156107f2573d6000803e3d6000fd5b505050506040513d601f19601f820116820180604052508101906108169190611dd0565b6040518363ffffffff1660e01b8152600401610833929190612075565b602060405180830381600087803b15801561084d57600080fd5b505af1158015610861573d6000803e3d6000fd5b505050506040513d601f19601f820116820180604052508101906108859190611b04565b6108c4576040517f08c379a00000000000000000000000000000000000000000000000000000000081526004016108bb906121a3565b60405180910390fd5b50565b600660205281600052604060002081815481106108e357600080fd5b906000526020600020016000915091505080546108ff906126bb565b80601f016020809104026020016040519081016040528092919081815260200182805461092b906126bb565b80156109785780601f1061094d57610100808354040283529160200191610978565b820191906000526020600020905b81548152906001019060200180831161095b57829003601f168201915b505050505081565b600061098a610b52565b905090565b6109976114c6565b61099f6114c6565b6109b685858584610b7c909392919063ffffffff16565b9150509392505050565b6109d7828460800151610c2c90919063ffffffff16565b6109ee818460800151610c5190919063ffffffff16565b505050565b610a0a828460800151610c2c90919063ffffffff16565b610a21818460800151610c2c90919063ffffffff16565b505050565b6000610a55600360009054906101000a900473ffffffffffffffffffffffffffffffffffffffff168484610c81565b905092915050565b610a74828460800151610c2c90919063ffffffff16565b610a818360800151610d4d565b60005b8151811015610ad157610abe828281518110610aa357610aa2612853565b5b60200260200101518560800151610c2c90919063ffffffff16565b8080610ac99061271e565b915050610a84565b50610adf8360800151610d5b565b505050565b80600360006101000a81548173ffffffffffffffffffffffffffffffffffffffff021916908373ffffffffffffffffffffffffffffffffffffffff16021790555050565b6000600260009054906101000a900473ffffffffffffffffffffffffffffffffffffffff16905090565b6000600360009054906101000a900473ffffffffffffffffffffffffffffffffffffffff16905090565b610b846114c6565b610b948560800151610100610d69565b508385600001818152505082856020019073ffffffffffffffffffffffffffffffffffffffff16908173ffffffffffffffffffffffffffffffffffffffff16815250508185604001907bffffffffffffffffffffffffffffffffffffffffffffffffffffffff191690817bffffffffffffffffffffffffffffffffffffffffffffffffffffffff191681525050849050949350505050565b610c398260038351610dd3565b610c4c8183610f5890919063ffffffff16565b505050565b67ffffffffffffffff811115610c7057610c6b8282610f7a565b610c7d565b610c7c82600083610dd3565b5b5050565b6000806004549050600181610c969190612363565b6004819055506000634042994660e01b60008087600001513089604001518760018c6080015160000151604051602401610cd798979695949392919061209e565b604051602081830303815290604052907bffffffffffffffffffffffffffffffffffffffffffffffffffffffff19166020820180517bffffffffffffffffffffffffffffffffffffffffffffffffffffffff83818316178352505050509050610d4286838684610fc6565b925050509392505050565b610d5881600461116a565b50565b610d6681600761116a565b50565b610d71611533565b6000602083610d809190612795565b14610dac57602082610d929190612795565b6020610d9e9190612584565b82610da99190612363565b91505b81836020018181525050604051808452600081528281016020016040525082905092915050565b60178167ffffffffffffffff1611610e0a57610e048160058460ff16901b60ff16178461118c90919063ffffffff16565b50610f53565b60ff8167ffffffffffffffff1611610e6057610e39601860058460ff16901b178461118c90919063ffffffff16565b50610e5a8167ffffffffffffffff166001856111ac9092919063ffffffff16565b50610f52565b61ffff8167ffffffffffffffff1611610eb757610e90601960058460ff16901b178461118c90919063ffffffff16565b50610eb18167ffffffffffffffff166002856111ac9092919063ffffffff16565b50610f51565b63ffffffff8167ffffffffffffffff1611610f1057610ee9601a60058460ff16901b178461118c90919063ffffffff16565b50610f0a8167ffffffffffffffff166004856111ac9092919063ffffffff16565b50610f50565b610f2d601b60058460ff16901b178461118c90919063ffffffff16565b50610f4e8167ffffffffffffffff166008856111ac9092919063ffffffff16565b505b5b5b5b505050565b610f60611533565b610f72838460000151518485516111ce565b905092915050565b610f9860026005600660ff16901b178361118c90919063ffffffff16565b50610fc28282604051602001610fae9190612220565b6040516020818303038152906040526112bd565b5050565b60003084604051602001610fdb92919061202e565b604051602081830303815290604052805190602001209050846005600083815260200190815260200160002060006101000a81548173ffffffffffffffffffffffffffffffffffffffff021916908373ffffffffffffffffffffffffffffffffffffffff160217905550807fb5e6e01e79f91267dc17b4e6314d5d4d03593d2ceee0fbb452b750bd70ea5af960405160405180910390a2600260009054906101000a900473ffffffffffffffffffffffffffffffffffffffff1673ffffffffffffffffffffffffffffffffffffffff16634000aea08685856040518463ffffffff1660e01b81526004016110d193929190612123565b602060405180830381600087803b1580156110eb57600080fd5b505af11580156110ff573d6000803e3d6000fd5b505050506040513d601f19601f820116820180604052508101906111239190611b04565b611162576040517f08c379a000000000000000000000000000000000000000000000000000000000815260040161115990612183565b60405180910390fd5b949350505050565b611187601f60058360ff16901b178361118c90919063ffffffff16565b505050565b611194611533565b6111a483846000015151846112e2565b905092915050565b6111b4611533565b6111c5848560000151518585611339565b90509392505050565b6111d6611533565b82518211156111e457600080fd5b846020015182856111f59190612363565b111561122a5761122985600261121a886020015188876112159190612363565b6113c7565b611224919061252a565b6113e3565b5b6000808651805187602083010193508088870111156112495787860182525b60208701925050505b60208410611290578051825260208261126b9190612363565b915060208161127a9190612363565b90506020846112899190612584565b9350611252565b60006001856020036101000a03905080198251168184511681811785525050508692505050949350505050565b6112ca8260028351610dd3565b6112dd8183610f5890919063ffffffff16565b505050565b6112ea611533565b836020015183106113105761130f846002866020015161130a919061252a565b6113e3565b5b835180516020858301018481538186141561132c576001820183525b5050508390509392505050565b611341611533565b846020015184836113529190612363565b111561137a57611379856002868561136a9190612363565b611374919061252a565b6113e3565b5b600060018361010061138c919061240c565b6113969190612584565b905085518386820101858319825116178152815185880111156113b95784870182525b505085915050949350505050565b6000818311156113d9578290506113dd565b8190505b92915050565b6000826000015190506113f68383610d69565b506114018382610f58565b50505050565b828054828255906000526020600020908101928215611456579160200282015b8281111561145557825182908051906020019061144592919061154d565b5091602001919060010190611427565b5b50905061146391906115d3565b5090565b6040518060800160405280600080191681526020016000815260200160608152602001606081525090565b604051806080016040528060008019168152602001600060ff168152602001600060ff168152602001600060ff1681525090565b6040518060a0016040528060008019168152602001600073ffffffffffffffffffffffffffffffffffffffff16815260200160007bffffffffffffffffffffffffffffffffffffffffffffffffffffffff191681526020016000815260200161152d611533565b81525090565b604051806040016040528060608152602001600081525090565b828054611559906126bb565b90600052602060002090601f01602090048101928261157b57600085556115c2565b82601f1061159457805160ff19168380011785556115c2565b828001600101855582156115c2579182015b828111156115c15782518255916020019190600101906115a6565b5b5090506115cf91906115f7565b5090565b5b808211156115f357600081816115ea9190611614565b506001016115d4565b5090565b5b808211156116105760008160009055506001016115f8565b5090565b508054611620906126bb565b6000825580601f106116325750611651565b601f01602090049060005260206000209081019061165091906115f7565b5b50565b600061166761166284612260565b61223b565b9050808382526020820190508285602086028201111561168a576116896128c0565b5b60005b858110156116d857813567ffffffffffffffff8111156116b0576116af6128b1565b5b8086016116bd89826118e6565b8552602085019450602084019350505060018101905061168d565b5050509392505050565b60006116f56116f08461228c565b61223b565b90508083825260208201905082856020860282011115611718576117176128c0565b5b60005b8581101561176657813567ffffffffffffffff81111561173e5761173d6128b1565b5b80860161174b8982611914565b8552602085019450602084019350505060018101905061171b565b5050509392505050565b600061178361177e846122b8565b61223b565b90508281526020810184848401111561179f5761179e6128c5565b5b6117aa848285612679565b509392505050565b60006117c56117c0846122e9565b61223b565b9050828152602081018484840111156117e1576117e06128c5565b5b6117ec848285612679565b509392505050565b6000611807611802846122e9565b61223b565b905082815260208101848484011115611823576118226128c5565b5b61182e848285612688565b509392505050565b600081359050611845816129c6565b92915050565b600082601f8301126118605761185f6128b1565b5b8135611870848260208601611654565b91505092915050565b600082601f83011261188e5761188d6128b1565b5b813561189e8482602086016116e2565b91505092915050565b6000815190506118b6816129dd565b92915050565b6000813590506118cb816129f4565b92915050565b6000815190506118e0816129f4565b92915050565b600082601f8301126118fb576118fa6128b1565b5b813561190b848260208601611770565b91505092915050565b600082601f830112611929576119286128b1565b5b81356119398482602086016117b2565b91505092915050565b600082601f830112611957576119566128b1565b5b81516119678482602086016117f4565b91505092915050565b600060808284031215611986576119856128b6565b5b611990608061223b565b905060006119a0848285016118d1565b60008301525060206119b484828501611aad565b602083015250604082015167ffffffffffffffff8111156119d8576119d76128bb565b5b6119e484828501611942565b604083015250606082015167ffffffffffffffff811115611a0857611a076128bb565b5b611a1484828501611942565b60608301525092915050565b600060808284031215611a3657611a356128b6565b5b611a40608061223b565b90506000611a50848285016118d1565b6000830152506020611a6484828501611ac2565b6020830152506040611a7884828501611ac2565b6040830152506060611a8c84828501611ac2565b60608301525092915050565b600081359050611aa781612a0b565b92915050565b600081519050611abc81612a0b565b92915050565b600081519050611ad181612a22565b92915050565b600060208284031215611aed57611aec6128cf565b5b6000611afb84828501611836565b91505092915050565b600060208284031215611b1a57611b196128cf565b5b6000611b28848285016118a7565b91505092915050565b60008060408385031215611b4857611b476128cf565b5b6000611b56858286016118bc565b925050602083013567ffffffffffffffff811115611b7757611b766128ca565b5b611b838582860161184b565b9150509250929050565b60008060408385031215611ba457611ba36128cf565b5b6000611bb2858286016118bc565b9250506020611bc385828601611a98565b9150509250929050565b600080600080600060a08688031215611be957611be86128cf565b5b6000611bf7888289016118bc565b9550506020611c0888828901611a98565b945050604086013567ffffffffffffffff811115611c2957611c286128ca565b5b611c3588828901611914565b9350506060611c4688828901611a98565b9250506080611c5788828901611a98565b9150509295509295909350565b600080600080600080600060e0888a031215611c8357611c826128cf565b5b6000611c918a828b016118bc565b9750506020611ca28a828b01611a98565b965050604088013567ffffffffffffffff811115611cc357611cc26128ca565b5b611ccf8a828b01611914565b9550506060611ce08a828b01611a98565b9450506080611cf18a828b01611a98565b93505060a088013567ffffffffffffffff811115611d1257611d116128ca565b5b611d1e8a828b01611879565b92505060c088013567ffffffffffffffff811115611d3f57611d3e6128ca565b5b611d4b8a828b01611879565b91505092959891949750929550565b600060208284031215611d7057611d6f6128cf565b5b600082015167ffffffffffffffff811115611d8e57611d8d6128ca565b5b611d9a84828501611970565b91505092915050565b600060808284031215611db957611db86128cf565b5b6000611dc784828501611a20565b91505092915050565b600060208284031215611de657611de56128cf565b5b6000611df484828501611aad565b91505092915050565b611e06816125b8565b82525050565b611e15816125d6565b82525050565b611e24816125d6565b82525050565b611e33816125e0565b82525050565b6000611e448261231a565b611e4e8185612330565b9350611e5e818560208601612688565b611e67816128d4565b840191505092915050565b611e83611e7e82612643565b612767565b82525050565b6000611e9482612325565b611e9e8185612341565b9350611eae818560208601612688565b611eb7816128d4565b840191505092915050565b6000611ecf602383612352565b9150611eda826128ff565b604082019050919050565b6000611ef2601283612352565b9150611efd8261294e565b602082019050919050565b6000611f15602883612352565b9150611f2082612977565b604082019050919050565b6000608083016000830151611f436000860182611e0c565b506020830151611f566020860182611fea565b5060408301518482036040860152611f6e8282611e89565b91505060608301518482036060860152611f888282611e89565b9150508091505092915050565b608082016000820151611fab6000850182611e0c565b506020820151611fbe602085018261201f565b506040820151611fd1604085018261201f565b506060820151611fe4606085018261201f565b50505050565b611ff38161262c565b82525050565b6120028161262c565b82525050565b6120196120148261262c565b61278b565b82525050565b61202881612636565b82525050565b600061203a8285611e72565b60148201915061204a8284612008565b6020820191508190509392505050565b600060208201905061206f6000830184611dfd565b92915050565b600060408201905061208a6000830185611dfd565b6120976020830184611ff9565b9392505050565b6000610100820190506120b4600083018b611dfd565b6120c1602083018a611ff9565b6120ce6040830189611e1b565b6120db6060830188611dfd565b6120e86080830187611e2a565b6120f560a0830186611ff9565b61210260c0830185611ff9565b81810360e08301526121148184611e39565b90509998505050505050505050565b60006060820190506121386000830186611dfd565b6121456020830185611ff9565b81810360408301526121578184611e39565b9050949350505050565b6000602082019050818103600083015261217b8184611e39565b905092915050565b6000602082019050818103600083015261219c81611ec2565b9050919050565b600060208201905081810360008301526121bc81611ee5565b9050919050565b600060208201905081810360008301526121dc81611f08565b9050919050565b600060208201905081810360008301526121fd8184611f2b565b905092915050565b600060808201905061221a6000830184611f95565b92915050565b60006020820190506122356000830184611ff9565b92915050565b6000612245612256565b905061225182826126ed565b919050565b6000604051905090565b600067ffffffffffffffff82111561227b5761227a612882565b5b602082029050602081019050919050565b600067ffffffffffffffff8211156122a7576122a6612882565b5b602082029050602081019050919050565b600067ffffffffffffffff8211156122d3576122d2612882565b5b6122dc826128d4565b9050602081019050919050565b600067ffffffffffffffff82111561230457612303612882565b5b61230d826128d4565b9050602081019050919050565b600081519050919050565b600081519050919050565b600082825260208201905092915050565b600082825260208201905092915050565b600082825260208201905092915050565b600061236e8261262c565b91506123798361262c565b9250827fffffffffffffffffffffffffffffffffffffffffffffffffffffffffffffffff038211156123ae576123ad6127c6565b5b828201905092915050565b6000808291508390505b6001851115612403578086048111156123df576123de6127c6565b5b60018516156123ee5780820291505b80810290506123fc856128f2565b94506123c3565b94509492505050565b60006124178261262c565b91506124228361262c565b925061244f7fffffffffffffffffffffffffffffffffffffffffffffffffffffffffffffffff8484612457565b905092915050565b6000826124675760019050612523565b816124755760009050612523565b816001811461248b5760028114612495576124c4565b6001915050612523565b60ff8411156124a7576124a66127c6565b5b8360020a9150848211156124be576124bd6127c6565b5b50612523565b5060208310610133831016604e8410600b84101617156124f95782820a9050838111156124f4576124f36127c6565b5b612523565b61250684848460016123b9565b9250905081840481111561251d5761251c6127c6565b5b81810290505b9392505050565b60006125358261262c565b91506125408361262c565b9250817fffffffffffffffffffffffffffffffffffffffffffffffffffffffffffffffff0483118215151615612579576125786127c6565b5b828202905092915050565b600061258f8261262c565b915061259a8361262c565b9250828210156125ad576125ac6127c6565b5b828203905092915050565b60006125c38261260c565b9050919050565b60008115159050919050565b6000819050919050565b60007fffffffff0000000000000000000000000000000000000000000000000000000082169050919050565b600073ffffffffffffffffffffffffffffffffffffffff82169050919050565b6000819050919050565b600060ff82169050919050565b600061264e82612655565b9050919050565b600061266082612667565b9050919050565b60006126728261260c565b9050919050565b82818337600083830152505050565b60005b838110156126a657808201518184015260208101905061268b565b838111156126b5576000848401525b50505050565b600060028204905060018216806126d357607f821691505b602082108114156126e7576126e6612824565b5b50919050565b6126f6826128d4565b810181811067ffffffffffffffff8211171561271557612714612882565b5b80604052505050565b60006127298261262c565b91507fffffffffffffffffffffffffffffffffffffffffffffffffffffffffffffffff82141561275c5761275b6127c6565b5b600182019050919050565b600061277282612779565b9050919050565b6000612784826128e5565b9050919050565b6000819050919050565b60006127a08261262c565b91506127ab8361262c565b9250826127bb576127ba6127f5565b5b828206905092915050565b7f4e487b7100000000000000000000000000000000000000000000000000000000600052601160045260246000fd5b7f4e487b7100000000000000000000000000000000000000000000000000000000600052601260045260246000fd5b7f4e487b7100000000000000000000000000000000000000000000000000000000600052602260045260246000fd5b7f4e487b7100000000000000000000000000000000000000000000000000000000600052603260045260246000fd5b7f4e487b7100000000000000000000000000000000000000000000000000000000600052604160045260246000fd5b600080fd5b600080fd5b600080fd5b600080fd5b600080fd5b600080fd5b600080fd5b6000601f19601f8301169050919050565b60008160601b9050919050565b60008160011c9050919050565b7f756e61626c6520746f207472616e73666572416e6443616c6c20746f206f726160008201527f636c650000000000000000000000000000000000000000000000000000000000602082015250565b7f556e61626c6520746f207472616e736665720000000000000000000000000000600082015250565b7f536f75726365206d75737420626520746865206f7261636c65206f662074686560008201527f2072657175657374000000000000000000000000000000000000000000000000602082015250565b6129cf816125b8565b81146129da57600080fd5b50565b6129e6816125ca565b81146129f157600080fd5b50565b6129fd816125d6565b8114612a0857600080fd5b50565b612a148161262c565b8114612a1f57600080fd5b50565b612a2b81612636565b8114612a3657600080fd5b5056fea2646970667358221220337731b30c2742428853839bb284c028ebe1650e699b591bd53333d41e9a6a7064736f6c63430008070033",
  "linkReferences": {},
  "deployedLinkReferences": {}
}