{
  "_format": "hh-sol-artifact-1",
  "contractName": "TherundownConsumer",
  "sourceName": "contracts/TheRundownConsumer.sol",
  "abi": [
    {
      "inputs": [
        {
          "internalType": "address",
          "name": "_link",
          "type": "address"
        },
        {
          "internalType": "address",
          "name": "_oracle",
          "type": "address"
        }
      ],
      "stateMutability": "nonpayable",
      "type": "constructor"
    },
    {
      "anonymous": false,
      "inputs": [
        {
          "indexed": true,
          "internalType": "bytes32",
          "name": "id",
          "type": "bytes32"
        }
      ],
      "name": "ChainlinkCancelled",
      "type": "event"
    },
    {
      "anonymous": false,
      "inputs": [
        {
          "indexed": true,
          "internalType": "bytes32",
          "name": "id",
          "type": "bytes32"
        }
      ],
      "name": "ChainlinkFulfilled",
      "type": "event"
    },
    {
      "anonymous": false,
      "inputs": [
        {
          "indexed": true,
          "internalType": "bytes32",
          "name": "id",
          "type": "bytes32"
        }
      ],
      "name": "ChainlinkRequested",
      "type": "event"
    },
    {
      "inputs": [
        {
          "internalType": "bytes32",
          "name": "_requestId",
          "type": "bytes32"
        },
        {
          "internalType": "bytes[]",
          "name": "_games",
          "type": "bytes[]"
        }
      ],
      "name": "fulfillGames",
      "outputs": [],
      "stateMutability": "nonpayable",
      "type": "function"
    },
    {
      "inputs": [
        {
          "internalType": "bytes32",
          "name": "_requestId",
          "type": "bytes32"
        },
        {
          "internalType": "uint256",
          "name": "_idx",
          "type": "uint256"
        }
      ],
      "name": "getGamesCreated",
      "outputs": [
        {
          "components": [
            {
              "internalType": "bytes32",
              "name": "gameId",
              "type": "bytes32"
            },
            {
              "internalType": "uint256",
              "name": "startTime",
              "type": "uint256"
            },
            {
              "internalType": "string",
              "name": "homeTeam",
              "type": "string"
            },
            {
              "internalType": "string",
              "name": "awayTeam",
              "type": "string"
            }
          ],
          "internalType": "struct TherundownConsumer.GameCreate",
          "name": "",
          "type": "tuple"
        }
      ],
      "stateMutability": "view",
      "type": "function"
    },
    {
      "inputs": [
        {
          "internalType": "bytes32",
          "name": "_requestId",
          "type": "bytes32"
        },
        {
          "internalType": "uint256",
          "name": "_idx",
          "type": "uint256"
        }
      ],
      "name": "getGamesResolved",
      "outputs": [
        {
          "components": [
            {
              "internalType": "bytes32",
              "name": "gameId",
              "type": "bytes32"
            },
            {
              "internalType": "uint8",
              "name": "homeScore",
              "type": "uint8"
            },
            {
              "internalType": "uint8",
              "name": "awayScore",
              "type": "uint8"
            },
            {
              "internalType": "uint8",
              "name": "statusId",
              "type": "uint8"
            }
          ],
          "internalType": "struct TherundownConsumer.GameResolve",
          "name": "",
          "type": "tuple"
        }
      ],
      "stateMutability": "view",
      "type": "function"
    },
    {
      "inputs": [],
      "name": "getOracleAddress",
      "outputs": [
        {
          "internalType": "address",
          "name": "",
          "type": "address"
        }
      ],
      "stateMutability": "view",
      "type": "function"
    },
    {
      "inputs": [
        {
          "internalType": "bytes32",
          "name": "_specId",
          "type": "bytes32"
        },
        {
          "internalType": "uint256",
          "name": "_payment",
          "type": "uint256"
        },
        {
          "internalType": "string",
          "name": "_market",
          "type": "string"
        },
        {
          "internalType": "uint256",
          "name": "_sportId",
          "type": "uint256"
        },
        {
          "internalType": "uint256",
          "name": "_date",
          "type": "uint256"
        }
      ],
      "name": "requestGames",
      "outputs": [],
      "stateMutability": "nonpayable",
      "type": "function"
    },
    {
      "inputs": [
        {
          "internalType": "bytes32",
          "name": "_specId",
          "type": "bytes32"
        },
        {
          "internalType": "uint256",
          "name": "_payment",
          "type": "uint256"
        },
        {
          "internalType": "string",
          "name": "_market",
          "type": "string"
        },
        {
          "internalType": "uint256",
          "name": "_sportId",
          "type": "uint256"
        },
        {
          "internalType": "uint256",
          "name": "_date",
          "type": "uint256"
        },
        {
          "internalType": "string[]",
          "name": "_statusIds",
          "type": "string[]"
        },
        {
          "internalType": "string[]",
          "name": "_gameIds",
          "type": "string[]"
        }
      ],
      "name": "requestGamesResolveWithFilters",
      "outputs": [],
      "stateMutability": "nonpayable",
      "type": "function"
    },
    {
      "inputs": [
        {
          "internalType": "bytes32",
          "name": "",
          "type": "bytes32"
        },
        {
          "internalType": "uint256",
          "name": "",
          "type": "uint256"
        }
      ],
      "name": "requestIdGames",
      "outputs": [
        {
          "internalType": "bytes",
          "name": "",
          "type": "bytes"
        }
      ],
      "stateMutability": "view",
      "type": "function"
    },
    {
      "inputs": [
        {
          "internalType": "address",
          "name": "_oracle",
          "type": "address"
        }
      ],
      "name": "setOracle",
      "outputs": [],
      "stateMutability": "nonpayable",
      "type": "function"
    },
    {
      "inputs": [],
      "name": "withdrawLink",
      "outputs": [],
      "stateMutability": "nonpayable",
      "type": "function"
    }
  ],
  "bytecode": "0x608060405260016004553480156200001657600080fd5b5060405162002c2a38038062002c2a83398181016040528101906200003c919062000158565b6200004d826200006660201b60201c565b6200005e81620000aa60201b60201c565b50506200019f565b80600260006101000a81548173ffffffffffffffffffffffffffffffffffffffff021916908373ffffffffffffffffffffffffffffffffffffffff16021790555050565b80600360006101000a81548173ffffffffffffffffffffffffffffffffffffffff021916908373ffffffffffffffffffffffffffffffffffffffff16021790555050565b600080fd5b600073ffffffffffffffffffffffffffffffffffffffff82169050919050565b60006200012082620000f3565b9050919050565b620001328162000113565b81146200013e57600080fd5b50565b600081519050620001528162000127565b92915050565b60008060408385031215620001725762000171620000ee565b5b6000620001828582860162000141565b9250506020620001958582860162000141565b9150509250929050565b612a7b80620001af6000396000f3fe608060405234801561001057600080fd5b50600436106100935760003560e01c80637adbf973116100665780637adbf9731461011c578063800fd8da146101385780638dc654a214610168578063a294360814610172578063b18b78dd146101a257610093565b8063131be6cc1461009857806345040746146100b45780634eaecd68146100d05780634fe7b644146100ec575b600080fd5b6100b260048036038101906100ad919061181a565b6101c0565b005b6100ce60048036038101906100c99190611a38565b6102c7565b005b6100ea60048036038101906100e59190611b75565b6103f9565b005b61010660048036038101906101019190611c6b565b610596565b6040516101139190611dbb565b60405180910390f35b61013660048036038101906101319190611e3b565b610677565b005b610152600480360381019061014d9190611c6b565b610683565b60405161015f9190611ed9565b60405180910390f35b610170610764565b005b61018c60048036038101906101879190611c6b565b6108c7565b6040516101999190611f49565b60405180910390f35b6101aa610980565b6040516101b79190611f7a565b60405180910390f35b60006101d48630634504074660e01b61098f565b90506102206040518060400160405280600481526020017f646174650000000000000000000000000000000000000000000000000000000081525083836109c09092919063ffffffff16565b61026a6040518060400160405280600681526020017f6d61726b6574000000000000000000000000000000000000000000000000000081525085836109f39092919063ffffffff16565b6102b46040518060400160405280600781526020017f73706f727449640000000000000000000000000000000000000000000000000081525084836109c09092919063ffffffff16565b6102be8186610a26565b50505050505050565b816005600082815260200190815260200160002060009054906101000a900473ffffffffffffffffffffffffffffffffffffffff1673ffffffffffffffffffffffffffffffffffffffff163373ffffffffffffffffffffffffffffffffffffffff1614610369576040517f08c379a000000000000000000000000000000000000000000000000000000000815260040161036090612018565b60405180910390fd5b6005600082815260200190815260200160002060006101000a81549073ffffffffffffffffffffffffffffffffffffffff0219169055807f7cc135e0cebb02c3480ae5d74d377283180a2601f8f644edf7987b009316c63a60405160405180910390a2816006600085815260200190815260200160002090805190602001906103f3929190611407565b50505050565b600061040d8830634504074660e01b61098f565b90506104596040518060400160405280600481526020017f646174650000000000000000000000000000000000000000000000000000000081525085836109c09092919063ffffffff16565b6104a36040518060400160405280600681526020017f6d61726b6574000000000000000000000000000000000000000000000000000081525087836109f39092919063ffffffff16565b6104ed6040518060400160405280600781526020017f73706f727449640000000000000000000000000000000000000000000000000081525086836109c09092919063ffffffff16565b6105376040518060400160405280600981526020017f73746174757349647300000000000000000000000000000000000000000000008152508483610a5d9092919063ffffffff16565b6105816040518060400160405280600781526020017f67616d65496473000000000000000000000000000000000000000000000000008152508383610a5d9092919063ffffffff16565b61058b8188610a26565b505050505050505050565b61059e611467565b60006006600085815260200190815260200160002083815481106105c5576105c4612038565b5b9060005260206000200180546105da90612096565b80601f016020809104026020016040519081016040528092919081815260200182805461060690612096565b80156106535780601f1061062857610100808354040283529160200191610653565b820191906000526020600020905b81548152906001019060200180831161063657829003601f168201915b505050505080602001905181019061066b919061221c565b90508091505092915050565b61068081610ae4565b50565b61068b611492565b60006006600085815260200190815260200160002083815481106106b2576106b1612038565b5b9060005260206000200180546106c790612096565b80601f01602080910402602001604051908101604052809291908181526020018280546106f390612096565b80156107405780601f1061071557610100808354040283529160200191610740565b820191906000526020600020905b81548152906001019060200180831161072357829003601f168201915b50505050508060200190518101906107589190612309565b90508091505092915050565b600061076e610b28565b90508073ffffffffffffffffffffffffffffffffffffffff1663a9059cbb338373ffffffffffffffffffffffffffffffffffffffff166370a08231306040518263ffffffff1660e01b81526004016107c69190611f7a565b60206040518083038186803b1580156107de57600080fd5b505afa1580156107f2573d6000803e3d6000fd5b505050506040513d601f19601f820116820180604052508101906108169190612336565b6040518363ffffffff1660e01b8152600401610833929190612372565b602060405180830381600087803b15801561084d57600080fd5b505af1158015610861573d6000803e3d6000fd5b505050506040513d601f19601f8201168201806040525081019061088591906123d3565b6108c4576040517f08c379a00000000000000000000000000000000000000000000000000000000081526004016108bb9061244c565b60405180910390fd5b50565b600660205281600052604060002081815481106108e357600080fd5b906000526020600020016000915091505080546108ff90612096565b80601f016020809104026020016040519081016040528092919081815260200182805461092b90612096565b80156109785780601f1061094d57610100808354040283529160200191610978565b820191906000526020600020905b81548152906001019060200180831161095b57829003601f168201915b505050505081565b600061098a610b52565b905090565b6109976114c6565b61099f6114c6565b6109b685858584610b7c909392919063ffffffff16565b9150509392505050565b6109d7828460800151610c2c90919063ffffffff16565b6109ee818460800151610c5190919063ffffffff16565b505050565b610a0a828460800151610c2c90919063ffffffff16565b610a21818460800151610c2c90919063ffffffff16565b505050565b6000610a55600360009054906101000a900473ffffffffffffffffffffffffffffffffffffffff168484610c81565b905092915050565b610a74828460800151610c2c90919063ffffffff16565b610a818360800151610d4d565b60005b8151811015610ad157610abe828281518110610aa357610aa2612038565b5b60200260200101518560800151610c2c90919063ffffffff16565b8080610ac99061249b565b915050610a84565b50610adf8360800151610d5b565b505050565b80600360006101000a81548173ffffffffffffffffffffffffffffffffffffffff021916908373ffffffffffffffffffffffffffffffffffffffff16021790555050565b6000600260009054906101000a900473ffffffffffffffffffffffffffffffffffffffff16905090565b6000600360009054906101000a900473ffffffffffffffffffffffffffffffffffffffff16905090565b610b846114c6565b610b948560800151610100610d69565b508385600001818152505082856020019073ffffffffffffffffffffffffffffffffffffffff16908173ffffffffffffffffffffffffffffffffffffffff16815250508185604001907bffffffffffffffffffffffffffffffffffffffffffffffffffffffff191690817bffffffffffffffffffffffffffffffffffffffffffffffffffffffff191681525050849050949350505050565b610c398260038351610dd3565b610c4c8183610f5890919063ffffffff16565b505050565b67ffffffffffffffff811115610c7057610c6b8282610f7a565b610c7d565b610c7c82600083610dd3565b5b5050565b6000806004549050600181610c9691906124e4565b6004819055506000634042994660e01b60008087600001513089604001518760018c6080015160000151604051602401610cd7989796959493929190612584565b604051602081830303815290604052907bffffffffffffffffffffffffffffffffffffffffffffffffffffffff19166020820180517bffffffffffffffffffffffffffffffffffffffffffffffffffffffff83818316178352505050509050610d4286838684610fc6565b925050509392505050565b610d5881600461116a565b50565b610d6681600761116a565b50565b610d71611533565b6000602083610d809190612638565b14610dac57602082610d929190612638565b6020610d9e9190612669565b82610da991906124e4565b91505b81836020018181525050604051808452600081528281016020016040525082905092915050565b60178167ffffffffffffffff1611610e0a57610e048160058460ff16901b60ff16178461118c90919063ffffffff16565b50610f53565b60ff8167ffffffffffffffff1611610e6057610e39601860058460ff16901b178461118c90919063ffffffff16565b50610e5a8167ffffffffffffffff166001856111ac9092919063ffffffff16565b50610f52565b61ffff8167ffffffffffffffff1611610eb757610e90601960058460ff16901b178461118c90919063ffffffff16565b50610eb18167ffffffffffffffff166002856111ac9092919063ffffffff16565b50610f51565b63ffffffff8167ffffffffffffffff1611610f1057610ee9601a60058460ff16901b178461118c90919063ffffffff16565b50610f0a8167ffffffffffffffff166004856111ac9092919063ffffffff16565b50610f50565b610f2d601b60058460ff16901b178461118c90919063ffffffff16565b50610f4e8167ffffffffffffffff166008856111ac9092919063ffffffff16565b505b5b5b5b505050565b610f60611533565b610f72838460000151518485516111ce565b905092915050565b610f9860026005600660ff16901b178361118c90919063ffffffff16565b50610fc28282604051602001610fae919061269d565b6040516020818303038152906040526112bd565b5050565b60003084604051602001610fdb929190612771565b604051602081830303815290604052805190602001209050846005600083815260200190815260200160002060006101000a81548173ffffffffffffffffffffffffffffffffffffffff021916908373ffffffffffffffffffffffffffffffffffffffff160217905550807fb5e6e01e79f91267dc17b4e6314d5d4d03593d2ceee0fbb452b750bd70ea5af960405160405180910390a2600260009054906101000a900473ffffffffffffffffffffffffffffffffffffffff1673ffffffffffffffffffffffffffffffffffffffff16634000aea08685856040518463ffffffff1660e01b81526004016110d19392919061279d565b602060405180830381600087803b1580156110eb57600080fd5b505af11580156110ff573d6000803e3d6000fd5b505050506040513d601f19601f8201168201806040525081019061112391906123d3565b611162576040517f08c379a00000000000000000000000000000000000000000000000000000000081526004016111599061284d565b60405180910390fd5b949350505050565b611187601f60058360ff16901b178361118c90919063ffffffff16565b505050565b611194611533565b6111a483846000015151846112e2565b905092915050565b6111b4611533565b6111c5848560000151518585611339565b90509392505050565b6111d6611533565b82518211156111e457600080fd5b846020015182856111f591906124e4565b111561122a5761122985600261121a8860200151888761121591906124e4565b6113c7565b611224919061286d565b6113e3565b5b6000808651805187602083010193508088870111156112495787860182525b60208701925050505b60208410611290578051825260208261126b91906124e4565b915060208161127a91906124e4565b90506020846112899190612669565b9350611252565b60006001856020036101000a03905080198251168184511681811785525050508692505050949350505050565b6112ca8260028351610dd3565b6112dd8183610f5890919063ffffffff16565b505050565b6112ea611533565b836020015183106113105761130f846002866020015161130a919061286d565b6113e3565b5b835180516020858301018481538186141561132c576001820183525b5050508390509392505050565b611341611533565b8460200151848361135291906124e4565b111561137a57611379856002868561136a91906124e4565b611374919061286d565b6113e3565b5b600060018361010061138c91906129fa565b6113969190612669565b905085518386820101858319825116178152815185880111156113b95784870182525b505085915050949350505050565b6000818311156113d9578290506113dd565b8190505b92915050565b6000826000015190506113f68383610d69565b506114018382610f58565b50505050565b828054828255906000526020600020908101928215611456579160200282015b8281111561145557825182908051906020019061144592919061154d565b5091602001919060010190611427565b5b50905061146391906115d3565b5090565b6040518060800160405280600080191681526020016000815260200160608152602001606081525090565b604051806080016040528060008019168152602001600060ff168152602001600060ff168152602001600060ff1681525090565b6040518060a0016040528060008019168152602001600073ffffffffffffffffffffffffffffffffffffffff16815260200160007bffffffffffffffffffffffffffffffffffffffffffffffffffffffff191681526020016000815260200161152d611533565b81525090565b604051806040016040528060608152602001600081525090565b82805461155990612096565b90600052602060002090601f01602090048101928261157b57600085556115c2565b82601f1061159457805160ff19168380011785556115c2565b828001600101855582156115c2579182015b828111156115c15782518255916020019190600101906115a6565b5b5090506115cf91906115f7565b5090565b5b808211156115f357600081816115ea9190611614565b506001016115d4565b5090565b5b808211156116105760008160009055506001016115f8565b5090565b50805461162090612096565b6000825580601f106116325750611651565b601f01602090049060005260206000209081019061165091906115f7565b5b50565b6000604051905090565b600080fd5b600080fd5b6000819050919050565b61167b81611668565b811461168657600080fd5b50565b60008135905061169881611672565b92915050565b6000819050919050565b6116b18161169e565b81146116bc57600080fd5b50565b6000813590506116ce816116a8565b92915050565b600080fd5b600080fd5b6000601f19601f8301169050919050565b7f4e487b7100000000000000000000000000000000000000000000000000000000600052604160045260246000fd5b611727826116de565b810181811067ffffffffffffffff82111715611746576117456116ef565b5b80604052505050565b6000611759611654565b9050611765828261171e565b919050565b600067ffffffffffffffff821115611785576117846116ef565b5b61178e826116de565b9050602081019050919050565b82818337600083830152505050565b60006117bd6117b88461176a565b61174f565b9050828152602081018484840111156117d9576117d86116d9565b5b6117e484828561179b565b509392505050565b600082601f830112611801576118006116d4565b5b81356118118482602086016117aa565b91505092915050565b600080600080600060a086880312156118365761183561165e565b5b600061184488828901611689565b9550506020611855888289016116bf565b945050604086013567ffffffffffffffff81111561187657611875611663565b5b611882888289016117ec565b9350506060611893888289016116bf565b92505060806118a4888289016116bf565b9150509295509295909350565b600067ffffffffffffffff8211156118cc576118cb6116ef565b5b602082029050602081019050919050565b600080fd5b600067ffffffffffffffff8211156118fd576118fc6116ef565b5b611906826116de565b9050602081019050919050565b6000611926611921846118e2565b61174f565b905082815260208101848484011115611942576119416116d9565b5b61194d84828561179b565b509392505050565b600082601f83011261196a576119696116d4565b5b813561197a848260208601611913565b91505092915050565b6000611996611991846118b1565b61174f565b905080838252602082019050602084028301858111156119b9576119b86118dd565b5b835b81811015611a0057803567ffffffffffffffff8111156119de576119dd6116d4565b5b8086016119eb8982611955565b855260208501945050506020810190506119bb565b5050509392505050565b600082601f830112611a1f57611a1e6116d4565b5b8135611a2f848260208601611983565b91505092915050565b60008060408385031215611a4f57611a4e61165e565b5b6000611a5d85828601611689565b925050602083013567ffffffffffffffff811115611a7e57611a7d611663565b5b611a8a85828601611a0a565b9150509250929050565b600067ffffffffffffffff821115611aaf57611aae6116ef565b5b602082029050602081019050919050565b6000611ad3611ace84611a94565b61174f565b90508083825260208201905060208402830185811115611af657611af56118dd565b5b835b81811015611b3d57803567ffffffffffffffff811115611b1b57611b1a6116d4565b5b808601611b2889826117ec565b85526020850194505050602081019050611af8565b5050509392505050565b600082601f830112611b5c57611b5b6116d4565b5b8135611b6c848260208601611ac0565b91505092915050565b600080600080600080600060e0888a031215611b9457611b9361165e565b5b6000611ba28a828b01611689565b9750506020611bb38a828b016116bf565b965050604088013567ffffffffffffffff811115611bd457611bd3611663565b5b611be08a828b016117ec565b9550506060611bf18a828b016116bf565b9450506080611c028a828b016116bf565b93505060a088013567ffffffffffffffff811115611c2357611c22611663565b5b611c2f8a828b01611b47565b92505060c088013567ffffffffffffffff811115611c5057611c4f611663565b5b611c5c8a828b01611b47565b91505092959891949750929550565b60008060408385031215611c8257611c8161165e565b5b6000611c9085828601611689565b9250506020611ca1858286016116bf565b9150509250929050565b611cb481611668565b82525050565b611cc38161169e565b82525050565b600081519050919050565b600082825260208201905092915050565b60005b83811015611d03578082015181840152602081019050611ce8565b83811115611d12576000848401525b50505050565b6000611d2382611cc9565b611d2d8185611cd4565b9350611d3d818560208601611ce5565b611d46816116de565b840191505092915050565b6000608083016000830151611d696000860182611cab565b506020830151611d7c6020860182611cba565b5060408301518482036040860152611d948282611d18565b91505060608301518482036060860152611dae8282611d18565b9150508091505092915050565b60006020820190508181036000830152611dd58184611d51565b905092915050565b600073ffffffffffffffffffffffffffffffffffffffff82169050919050565b6000611e0882611ddd565b9050919050565b611e1881611dfd565b8114611e2357600080fd5b50565b600081359050611e3581611e0f565b92915050565b600060208284031215611e5157611e5061165e565b5b6000611e5f84828501611e26565b91505092915050565b600060ff82169050919050565b611e7e81611e68565b82525050565b608082016000820151611e9a6000850182611cab565b506020820151611ead6020850182611e75565b506040820151611ec06040850182611e75565b506060820151611ed36060850182611e75565b50505050565b6000608082019050611eee6000830184611e84565b92915050565b600081519050919050565b600082825260208201905092915050565b6000611f1b82611ef4565b611f258185611eff565b9350611f35818560208601611ce5565b611f3e816116de565b840191505092915050565b60006020820190508181036000830152611f638184611f10565b905092915050565b611f7481611dfd565b82525050565b6000602082019050611f8f6000830184611f6b565b92915050565b600082825260208201905092915050565b7f536f75726365206d75737420626520746865206f7261636c65206f662074686560008201527f2072657175657374000000000000000000000000000000000000000000000000602082015250565b6000612002602883611f95565b915061200d82611fa6565b604082019050919050565b6000602082019050818103600083015261203181611ff5565b9050919050565b7f4e487b7100000000000000000000000000000000000000000000000000000000600052603260045260246000fd5b7f4e487b7100000000000000000000000000000000000000000000000000000000600052602260045260246000fd5b600060028204905060018216806120ae57607f821691505b602082108114156120c2576120c1612067565b5b50919050565b600080fd5b600080fd5b6000815190506120e181611672565b92915050565b6000815190506120f6816116a8565b92915050565b600061210f61210a8461176a565b61174f565b90508281526020810184848401111561212b5761212a6116d9565b5b612136848285611ce5565b509392505050565b600082601f830112612153576121526116d4565b5b81516121638482602086016120fc565b91505092915050565b600060808284031215612182576121816120c8565b5b61218c608061174f565b9050600061219c848285016120d2565b60008301525060206121b0848285016120e7565b602083015250604082015167ffffffffffffffff8111156121d4576121d36120cd565b5b6121e08482850161213e565b604083015250606082015167ffffffffffffffff811115612204576122036120cd565b5b6122108482850161213e565b60608301525092915050565b6000602082840312156122325761223161165e565b5b600082015167ffffffffffffffff8111156122505761224f611663565b5b61225c8482850161216c565b91505092915050565b61226e81611e68565b811461227957600080fd5b50565b60008151905061228b81612265565b92915050565b6000608082840312156122a7576122a66120c8565b5b6122b1608061174f565b905060006122c1848285016120d2565b60008301525060206122d58482850161227c565b60208301525060406122e98482850161227c565b60408301525060606122fd8482850161227c565b60608301525092915050565b60006080828403121561231f5761231e61165e565b5b600061232d84828501612291565b91505092915050565b60006020828403121561234c5761234b61165e565b5b600061235a848285016120e7565b91505092915050565b61236c8161169e565b82525050565b60006040820190506123876000830185611f6b565b6123946020830184612363565b9392505050565b60008115159050919050565b6123b08161239b565b81146123bb57600080fd5b50565b6000815190506123cd816123a7565b92915050565b6000602082840312156123e9576123e861165e565b5b60006123f7848285016123be565b91505092915050565b7f556e61626c6520746f207472616e736665720000000000000000000000000000600082015250565b6000612436601283611f95565b915061244182612400565b602082019050919050565b6000602082019050818103600083015261246581612429565b9050919050565b7f4e487b7100000000000000000000000000000000000000000000000000000000600052601160045260246000fd5b60006124a68261169e565b91507fffffffffffffffffffffffffffffffffffffffffffffffffffffffffffffffff8214156124d9576124d861246c565b5b600182019050919050565b60006124ef8261169e565b91506124fa8361169e565b9250827fffffffffffffffffffffffffffffffffffffffffffffffffffffffffffffffff0382111561252f5761252e61246c565b5b828201905092915050565b61254381611668565b82525050565b60007fffffffff0000000000000000000000000000000000000000000000000000000082169050919050565b61257e81612549565b82525050565b60006101008201905061259a600083018b611f6b565b6125a7602083018a612363565b6125b4604083018961253a565b6125c16060830188611f6b565b6125ce6080830187612575565b6125db60a0830186612363565b6125e860c0830185612363565b81810360e08301526125fa8184611f10565b90509998505050505050505050565b7f4e487b7100000000000000000000000000000000000000000000000000000000600052601260045260246000fd5b60006126438261169e565b915061264e8361169e565b92508261265e5761265d612609565b5b828206905092915050565b60006126748261169e565b915061267f8361169e565b9250828210156126925761269161246c565b5b828203905092915050565b60006020820190506126b26000830184612363565b92915050565b6000819050919050565b60006126dd6126d86126d384611ddd565b6126b8565b611ddd565b9050919050565b60006126ef826126c2565b9050919050565b6000612701826126e4565b9050919050565b60008160601b9050919050565b600061272082612708565b9050919050565b600061273282612715565b9050919050565b61274a612745826126f6565b612727565b82525050565b6000819050919050565b61276b6127668261169e565b612750565b82525050565b600061277d8285612739565b60148201915061278d828461275a565b6020820191508190509392505050565b60006060820190506127b26000830186611f6b565b6127bf6020830185612363565b81810360408301526127d18184611f10565b9050949350505050565b7f756e61626c6520746f207472616e73666572416e6443616c6c20746f206f726160008201527f636c650000000000000000000000000000000000000000000000000000000000602082015250565b6000612837602383611f95565b9150612842826127db565b604082019050919050565b600060208201905081810360008301526128668161282a565b9050919050565b60006128788261169e565b91506128838361169e565b9250817fffffffffffffffffffffffffffffffffffffffffffffffffffffffffffffffff04831182151516156128bc576128bb61246c565b5b828202905092915050565b60008160011c9050919050565b6000808291508390505b600185111561291e578086048111156128fa576128f961246c565b5b60018516156129095780820291505b8081029050612917856128c7565b94506128de565b94509492505050565b60008261293757600190506129f3565b8161294557600090506129f3565b816001811461295b576002811461296557612994565b60019150506129f3565b60ff8411156129775761297661246c565b5b8360020a91508482111561298e5761298d61246c565b5b506129f3565b5060208310610133831016604e8410600b84101617156129c95782820a9050838111156129c4576129c361246c565b5b6129f3565b6129d684848460016128d4565b925090508184048111156129ed576129ec61246c565b5b81810290505b9392505050565b6000612a058261169e565b9150612a108361169e565b9250612a3d7fffffffffffffffffffffffffffffffffffffffffffffffffffffffffffffffff8484612927565b90509291505056fea26469706673582212201737142b9285fd3c911b32dcbe6b4b9b53af92b5b7f68f1604a76854caf4489864736f6c63430008090033",
  "linkReferences": {},
  "deployedLinkReferences": {}
}