{
  "_format": "hh-sol-artifact-1",
  "contractName": "EtherBaseballBets",
  "sourceName": "contracts/EtherBaseballBets.sol",
  "abi": [
    {
      "inputs": [
        {
          "internalType": "address",
          "name": "_link",
          "type": "address"
        },
        {
          "internalType": "address",
          "name": "_oracle",
          "type": "address"
        },
        {
          "internalType": "uint256",
          "name": "_date",
          "type": "uint256"
        },
        {
          "internalType": "uint32",
          "name": "_gameIdSD",
          "type": "uint32"
        },
        {
          "internalType": "bytes32",
          "name": "_gameIdRD",
          "type": "bytes32"
        },
        {
          "internalType": "string",
          "name": "_homeTeam",
          "type": "string"
        },
        {
          "internalType": "string",
          "name": "_awayTeam",
          "type": "string"
        }
      ],
      "stateMutability": "nonpayable",
      "type": "constructor"
    },
    {
      "anonymous": false,
      "inputs": [
        {
          "indexed": true,
          "internalType": "bytes32",
          "name": "id",
          "type": "bytes32"
        }
      ],
      "name": "ChainlinkCancelled",
      "type": "event"
    },
    {
      "anonymous": false,
      "inputs": [
        {
          "indexed": true,
          "internalType": "bytes32",
          "name": "id",
          "type": "bytes32"
        }
      ],
      "name": "ChainlinkFulfilled",
      "type": "event"
    },
    {
      "anonymous": false,
      "inputs": [
        {
          "indexed": true,
          "internalType": "bytes32",
          "name": "id",
          "type": "bytes32"
        }
      ],
      "name": "ChainlinkRequested",
      "type": "event"
    },
    {
      "inputs": [],
      "name": "aggregateResults",
      "outputs": [],
      "stateMutability": "nonpayable",
      "type": "function"
    },
    {
      "inputs": [],
      "name": "awayTeam",
      "outputs": [
        {
          "internalType": "string",
          "name": "",
          "type": "string"
        }
      ],
      "stateMutability": "view",
      "type": "function"
    },
    {
      "inputs": [],
      "name": "claimPrize",
      "outputs": [],
      "stateMutability": "nonpayable",
      "type": "function"
    },
    {
      "inputs": [
        {
          "internalType": "address",
          "name": "user",
          "type": "address"
        }
      ],
      "name": "claimablePrize",
      "outputs": [
        {
          "internalType": "uint256",
          "name": "",
          "type": "uint256"
        }
      ],
      "stateMutability": "view",
      "type": "function"
    },
    {
      "inputs": [],
      "name": "fetchedRD",
      "outputs": [
        {
          "internalType": "bool",
          "name": "",
          "type": "bool"
        }
      ],
      "stateMutability": "view",
      "type": "function"
    },
    {
      "inputs": [],
      "name": "fetchedSD",
      "outputs": [
        {
          "internalType": "bool",
          "name": "",
          "type": "bool"
        }
      ],
      "stateMutability": "view",
      "type": "function"
    },
    {
      "inputs": [
        {
          "internalType": "bytes32",
          "name": "_requestId",
          "type": "bytes32"
        },
        {
          "internalType": "bytes[]",
          "name": "_games",
          "type": "bytes[]"
        }
      ],
      "name": "fulfillGames",
      "outputs": [],
      "stateMutability": "nonpayable",
      "type": "function"
    },
    {
      "inputs": [
        {
          "internalType": "bytes32",
          "name": "_requestId",
          "type": "bytes32"
        },
        {
          "internalType": "bytes32[]",
          "name": "_result",
          "type": "bytes32[]"
        }
      ],
      "name": "fulfillSchedule",
      "outputs": [],
      "stateMutability": "nonpayable",
      "type": "function"
    },
    {
      "inputs": [],
      "name": "gameDate",
      "outputs": [
        {
          "internalType": "uint256",
          "name": "",
          "type": "uint256"
        }
      ],
      "stateMutability": "view",
      "type": "function"
    },
    {
      "inputs": [],
      "name": "gameIdRD",
      "outputs": [
        {
          "internalType": "bytes32",
          "name": "",
          "type": "bytes32"
        }
      ],
      "stateMutability": "view",
      "type": "function"
    },
    {
      "inputs": [],
      "name": "gameIdSD",
      "outputs": [
        {
          "internalType": "uint32",
          "name": "",
          "type": "uint32"
        }
      ],
      "stateMutability": "view",
      "type": "function"
    },
    {
      "inputs": [],
      "name": "homeTeam",
      "outputs": [
        {
          "internalType": "string",
          "name": "",
          "type": "string"
        }
      ],
      "stateMutability": "view",
      "type": "function"
    },
    {
      "inputs": [],
      "name": "homeWinner",
      "outputs": [
        {
          "internalType": "bool",
          "name": "",
          "type": "bool"
        }
      ],
      "stateMutability": "view",
      "type": "function"
    },
    {
      "inputs": [
        {
          "internalType": "bool",
          "name": "home",
          "type": "bool"
        }
      ],
      "name": "placeBet",
      "outputs": [],
      "stateMutability": "payable",
      "type": "function"
    },
    {
      "inputs": [
        {
          "internalType": "bytes32",
          "name": "_specId",
          "type": "bytes32"
        },
        {
          "internalType": "uint256",
          "name": "_payment",
          "type": "uint256"
        },
        {
          "internalType": "string",
          "name": "_market",
          "type": "string"
        },
        {
          "internalType": "uint256",
          "name": "_sportId",
          "type": "uint256"
        },
        {
          "internalType": "uint256",
          "name": "_date",
          "type": "uint256"
        },
        {
          "internalType": "string[]",
          "name": "_statusIds",
          "type": "string[]"
        },
        {
          "internalType": "string[]",
          "name": "_gameIds",
          "type": "string[]"
        }
      ],
      "name": "requestGamesResolveWithFilters",
      "outputs": [],
      "stateMutability": "nonpayable",
      "type": "function"
    },
    {
      "inputs": [],
      "name": "requestResultFromRD",
      "outputs": [],
      "stateMutability": "nonpayable",
      "type": "function"
    },
    {
      "inputs": [],
      "name": "requestResultFromSD",
      "outputs": [],
      "stateMutability": "nonpayable",
      "type": "function"
    },
    {
      "inputs": [],
      "name": "resultConsensus",
      "outputs": [
        {
          "internalType": "bool",
          "name": "",
          "type": "bool"
        }
      ],
      "stateMutability": "view",
      "type": "function"
    },
    {
      "inputs": [],
      "name": "resultRD",
      "outputs": [
        {
          "internalType": "bytes32",
          "name": "gameId",
          "type": "bytes32"
        },
        {
          "internalType": "uint8",
          "name": "homeScore",
          "type": "uint8"
        },
        {
          "internalType": "uint8",
          "name": "awayScore",
          "type": "uint8"
        },
        {
          "internalType": "uint8",
          "name": "statusId",
          "type": "uint8"
        }
      ],
      "stateMutability": "view",
      "type": "function"
    },
    {
      "inputs": [],
      "name": "resultSD",
      "outputs": [
        {
          "internalType": "uint32",
          "name": "gameId",
          "type": "uint32"
        },
        {
          "internalType": "uint8",
          "name": "homeScore",
          "type": "uint8"
        },
        {
          "internalType": "uint8",
          "name": "awayScore",
          "type": "uint8"
        },
        {
          "internalType": "bytes20",
          "name": "status",
          "type": "bytes20"
        }
      ],
      "stateMutability": "view",
      "type": "function"
    },
    {
      "inputs": [],
      "name": "resultsAggregated",
      "outputs": [
        {
          "internalType": "bool",
          "name": "",
          "type": "bool"
        }
      ],
      "stateMutability": "view",
      "type": "function"
    },
    {
      "inputs": [
        {
          "internalType": "address",
          "name": "_oracle",
          "type": "address"
        }
      ],
      "name": "setOracle",
      "outputs": [],
      "stateMutability": "nonpayable",
      "type": "function"
    },
    {
      "inputs": [],
      "name": "total",
      "outputs": [
        {
          "internalType": "uint256",
          "name": "home",
          "type": "uint256"
        },
        {
          "internalType": "uint256",
          "name": "away",
          "type": "uint256"
        }
      ],
      "stateMutability": "view",
      "type": "function"
    },
    {
      "inputs": [],
      "name": "withdrawLink",
      "outputs": [],
      "stateMutability": "nonpayable",
      "type": "function"
    }
  ],
  "bytecode": "0x608060405260016004553480156200001657600080fd5b506040516200445c3803806200445c83398181016040528101906200003c9190620004bd565b6200004d87620000cc60201b60201c565b6200005e866200011060201b60201c565b84600e8190555083600f60006101000a81548163ffffffff021916908363ffffffff1602179055508260108190555081600c9080519060200190620000a592919062000154565b5080600d9080519060200190620000be92919062000154565b505050505050505062000613565b80600260006101000a81548173ffffffffffffffffffffffffffffffffffffffff021916908373ffffffffffffffffffffffffffffffffffffffff16021790555050565b80600360006101000a81548173ffffffffffffffffffffffffffffffffffffffff021916908373ffffffffffffffffffffffffffffffffffffffff16021790555050565b8280546200016290620005dd565b90600052602060002090601f016020900481019282620001865760008555620001d2565b82601f10620001a157805160ff1916838001178555620001d2565b82800160010185558215620001d2579182015b82811115620001d1578251825591602001919060010190620001b4565b5b509050620001e19190620001e5565b5090565b5b8082111562000200576000816000905550600101620001e6565b5090565b6000604051905090565b600080fd5b600080fd5b600073ffffffffffffffffffffffffffffffffffffffff82169050919050565b6000620002458262000218565b9050919050565b620002578162000238565b81146200026357600080fd5b50565b60008151905062000277816200024c565b92915050565b6000819050919050565b62000292816200027d565b81146200029e57600080fd5b50565b600081519050620002b28162000287565b92915050565b600063ffffffff82169050919050565b620002d381620002b8565b8114620002df57600080fd5b50565b600081519050620002f381620002c8565b92915050565b6000819050919050565b6200030e81620002f9565b81146200031a57600080fd5b50565b6000815190506200032e8162000303565b92915050565b600080fd5b600080fd5b6000601f19601f8301169050919050565b7f4e487b7100000000000000000000000000000000000000000000000000000000600052604160045260246000fd5b62000389826200033e565b810181811067ffffffffffffffff82111715620003ab57620003aa6200034f565b5b80604052505050565b6000620003c062000204565b9050620003ce82826200037e565b919050565b600067ffffffffffffffff821115620003f157620003f06200034f565b5b620003fc826200033e565b9050602081019050919050565b60005b83811015620004295780820151818401526020810190506200040c565b8381111562000439576000848401525b50505050565b6000620004566200045084620003d3565b620003b4565b90508281526020810184848401111562000475576200047462000339565b5b6200048284828562000409565b509392505050565b600082601f830112620004a257620004a162000334565b5b8151620004b48482602086016200043f565b91505092915050565b600080600080600080600060e0888a031215620004df57620004de6200020e565b5b6000620004ef8a828b0162000266565b9750506020620005028a828b0162000266565b9650506040620005158a828b01620002a1565b9550506060620005288a828b01620002e2565b94505060806200053b8a828b016200031d565b93505060a088015167ffffffffffffffff8111156200055f576200055e62000213565b5b6200056d8a828b016200048a565b92505060c088015167ffffffffffffffff81111562000591576200059062000213565b5b6200059f8a828b016200048a565b91505092959891949750929550565b7f4e487b7100000000000000000000000000000000000000000000000000000000600052602260045260246000fd5b60006002820490506001821680620005f657607f821691505b602082108114156200060d576200060c620005ae565b5b50919050565b613e3980620006236000396000f3fe60806040526004361061014b5760003560e01c806370740ac9116100b65780638dc654a21161006f5780638dc654a214610405578063968452e01461041c578063ae989d3614610447578063b57cb55b14610472578063c89197c11461049d578063c989b41f146104cb5761014b565b806370740ac9146103415780637adbf973146103585780637d79c19214610381578063821f6b7f146103ac578063822c7f77146103c35780638dc0ddc0146103ee5761014b565b8063397e20fc11610108578063397e20fc146102425780633e5bc6bd1461026b57806345040746146102995780634d22530e146102c25780634eaecd68146102ed5780636d1d9247146103165761014b565b806307e3dee514610150578063096a37781461018d57806329c38e9b146101a95780632ddbd13a146101c05780632f157b9d146101ec5780633615709a14610217575b600080fd5b34801561015c57600080fd5b50610177600480360381019061017291906124c5565b6104f6565b604051610184919061250b565b60405180910390f35b6101a760048036038101906101a2919061255e565b610686565b005b3480156101b557600080fd5b506101be610806565b005b3480156101cc57600080fd5b506101d561099b565b6040516101e392919061258b565b60405180910390f35b3480156101f857600080fd5b506102016109ad565b60405161020e91906125c3565b60405180910390f35b34801561022357600080fd5b5061022c6109c0565b60405161023991906125c3565b60405180910390f35b34801561024e57600080fd5b506102696004803603810190610264919061276d565b6109d3565b005b34801561027757600080fd5b50610280610c0c565b60405161029094939291906127f4565b60405180910390f35b3480156102a557600080fd5b506102c060048036038101906102bb91906129cf565b610c51565b005b3480156102ce57600080fd5b506102d7610e17565b6040516102e49190612a4a565b60405180910390f35b3480156102f957600080fd5b50610314600480360381019061030f9190612c13565b610e2d565b005b34801561032257600080fd5b5061032b610fca565b604051610338919061250b565b60405180910390f35b34801561034d57600080fd5b50610356610fd0565b005b34801561036457600080fd5b5061037f600480360381019061037a91906124c5565b61116e565b005b34801561038d57600080fd5b5061039661117a565b6040516103a39190612d91565b60405180910390f35b3480156103b857600080fd5b506103c1611208565b005b3480156103cf57600080fd5b506103d8611373565b6040516103e591906125c3565b60405180910390f35b3480156103fa57600080fd5b50610403611386565b005b34801561041157600080fd5b5061041a611536565b005b34801561042857600080fd5b50610431611699565b60405161043e91906125c3565b60405180910390f35b34801561045357600080fd5b5061045c6116ac565b6040516104699190612d91565b60405180910390f35b34801561047e57600080fd5b5061048761173a565b6040516104949190612db3565b60405180910390f35b3480156104a957600080fd5b506104b2611740565b6040516104c29493929190612e09565b60405180910390f35b3480156104d757600080fd5b506104e0611795565b6040516104ed91906125c3565b60405180910390f35b6000601160009054906101000a900460ff1615806105215750601160019054906101000a900460ff16155b1561052f5760009050610681565b6000601160029054906101000a900460ff16156105c857600060066000015411156105be5760066000015464e8d4a51000601260008673ffffffffffffffffffffffffffffffffffffffff1673ffffffffffffffffffffffffffffffffffffffff168152602001908152602001600020600001546105ad9190612e7d565b6105b79190612f06565b90506105c3565b600090505b610646565b600060066001015411156106405760066001015464e8d4a51000601260008673ffffffffffffffffffffffffffffffffffffffff1673ffffffffffffffffffffffffffffffffffffffff1681526020019081526020016000206001015461062f9190612e7d565b6106399190612f06565b9050610645565b600090505b5b600064e8d4a510006006600101546006600001546106649190612f37565b8361066f9190612e7d565b6106799190612f06565b905080925050505b919050565b600034116106c9576040517f08c379a00000000000000000000000000000000000000000000000000000000081526004016106c090612fd9565b60405180910390fd5b600e54421061070d576040517f08c379a00000000000000000000000000000000000000000000000000000000081526004016107049061306b565b60405180910390fd5b801561078d5734601260003373ffffffffffffffffffffffffffffffffffffffff1673ffffffffffffffffffffffffffffffffffffffff16815260200190815260200160002060000160008282546107659190612f37565b9250508190555034600660000160008282546107819190612f37565b92505081905550610803565b34601260003373ffffffffffffffffffffffffffffffffffffffff1673ffffffffffffffffffffffffffffffffffffffff16815260200190815260200160002060010160008282546107df9190612f37565b9250508190555034600660010160008282546107fb9190612f37565b925050819055505b50565b601160009054906101000a900460ff1615610856576040517f08c379a000000000000000000000000000000000000000000000000000000000815260040161084d906130fd565b60405180910390fd5b600b60019054906101000a900460ff16801561087e5750600b60009054906101000a900460ff165b6108bd576040517f08c379a00000000000000000000000000000000000000000000000000000000081526004016108b49061318f565b60405180910390fd5b6001601160006101000a81548160ff021916908315150217905550600960010160009054906101000a900460ff1660ff16600860000160049054906101000a900460ff1660ff1614801561093a5750600960010160019054906101000a900460ff1660ff16600860000160059054906101000a900460ff1660ff16145b601160016101000a81548160ff021916908315150217905550600860000160059054906101000a900460ff1660ff16600860000160049054906101000a900460ff1660ff1611601160026101000a81548160ff021916908315150217905550565b60068060000154908060010154905082565b600b60019054906101000a900460ff1681565b601160009054906101000a900460ff1681565b816005600082815260200190815260200160002060009054906101000a900473ffffffffffffffffffffffffffffffffffffffff1673ffffffffffffffffffffffffffffffffffffffff163373ffffffffffffffffffffffffffffffffffffffff1614610a75576040517f08c379a0000000000000000000000000000000000000000000000000000000008152600401610a6c90613221565b60405180910390fd5b6005600082815260200190815260200160002060006101000a81549073ffffffffffffffffffffffffffffffffffffffff0219169055807f7cc135e0cebb02c3480ae5d74d377283180a2601f8f644edf7987b009316c63a60405160405180910390a2600082600081518110610aee57610aed613241565b5b6020026020010151905060405180608001604052808260e01c63ffffffff168152602001602083901b60f81c60ff168152602001602883901b60f81c60ff168152602001603083901b6bffffffffffffffffffffffff1916815250600860008201518160000160006101000a81548163ffffffff021916908363ffffffff16021790555060208201518160000160046101000a81548160ff021916908360ff16021790555060408201518160000160056101000a81548160ff021916908360ff16021790555060608201518160000160066101000a81548173ffffffffffffffffffffffffffffffffffffffff021916908360601c02179055509050506001600b60006101000a81548160ff02191690831515021790555050505050565b60098060000154908060010160009054906101000a900460ff16908060010160019054906101000a900460ff16908060010160029054906101000a900460ff16905084565b816005600082815260200190815260200160002060009054906101000a900473ffffffffffffffffffffffffffffffffffffffff1673ffffffffffffffffffffffffffffffffffffffff163373ffffffffffffffffffffffffffffffffffffffff1614610cf3576040517f08c379a0000000000000000000000000000000000000000000000000000000008152600401610cea90613221565b60405180910390fd5b6005600082815260200190815260200160002060006101000a81549073ffffffffffffffffffffffffffffffffffffffff0219169055807f7cc135e0cebb02c3480ae5d74d377283180a2601f8f644edf7987b009316c63a60405160405180910390a281600081518110610d6a57610d69613241565b5b6020026020010151806020019051810190610d85919061332e565b60096000820151816000015560208201518160010160006101000a81548160ff021916908360ff16021790555060408201518160010160016101000a81548160ff021916908360ff16021790555060608201518160010160026101000a81548160ff021916908360ff1602179055509050506001600b60016101000a81548160ff021916908315150217905550505050565b600f60009054906101000a900463ffffffff1681565b6000610e418830634504074660e01b6117a8565b9050610e8d6040518060400160405280600481526020017f646174650000000000000000000000000000000000000000000000000000000081525085836117d99092919063ffffffff16565b610ed76040518060400160405280600681526020017f6d61726b65740000000000000000000000000000000000000000000000000000815250878361180c9092919063ffffffff16565b610f216040518060400160405280600781526020017f73706f727449640000000000000000000000000000000000000000000000000081525086836117d99092919063ffffffff16565b610f6b6040518060400160405280600981526020017f7374617475734964730000000000000000000000000000000000000000000000815250848361183f9092919063ffffffff16565b610fb56040518060400160405280600781526020017f67616d6549647300000000000000000000000000000000000000000000000000815250838361183f9092919063ffffffff16565b610fbf81886118c6565b505050505050505050565b600e5481565b601160009054906101000a900460ff1661101f576040517f08c379a0000000000000000000000000000000000000000000000000000000008152600401611016906133cd565b60405180910390fd5b601160019054906101000a900460ff1661106e576040517f08c379a000000000000000000000000000000000000000000000000000000000815260040161106590613439565b60405180910390fd5b6000611079336104f6565b9050600081116110be576040517f08c379a00000000000000000000000000000000000000000000000000000000081526004016110b5906134a5565b60405180910390fd5b60003373ffffffffffffffffffffffffffffffffffffffff16826040516110e4906134f6565b60006040518083038185875af1925050503d8060008114611121576040519150601f19603f3d011682016040523d82523d6000602084013e611126565b606091505b505090508061116a576040517f08c379a000000000000000000000000000000000000000000000000000000000815260040161116190613557565b60405180910390fd5b5050565b611177816118fd565b50565b600d8054611187906135a6565b80601f01602080910402602001604051908101604052809291908181526020018280546111b3906135a6565b80156112005780601f106111d557610100808354040283529160200191611200565b820191906000526020600020905b8154815290600101906020018083116111e357829003601f168201915b505050505081565b60001515600b60009054906101000a900460ff1615151461125e576040517f08c379a00000000000000000000000000000000000000000000000000000000081526004016112559061364a565b60405180910390fd5b618ca0600e5461126e9190612f37565b42116112af576040517f08c379a00000000000000000000000000000000000000000000000000000000081526004016112a6906136dc565b60405180910390fd5b6000600167ffffffffffffffff8111156112cc576112cb61262a565b5b6040519080825280602002602001820160405280156112fa5781602001602082028036833780820191505090505b509050600f60009054906101000a900463ffffffff1663ffffffff168160008151811061132a57611329613241565b5b6020026020010181815250506113707f626164653336303163356666343936353836643633366333393935663036666567016345785d8a000060016000600e5486611941565b50565b601160019054906101000a900460ff1681565b60001515600b60019054906101000a900460ff161515146113dc576040517f08c379a00000000000000000000000000000000000000000000000000000000081526004016113d39061376e565b60405180910390fd5b618ca0600e546113ec9190612f37565b421161142d576040517f08c379a0000000000000000000000000000000000000000000000000000000008152600401611424906136dc565b60405180910390fd5b60606000600167ffffffffffffffff81111561144c5761144b61262a565b5b60405190808252806020026020018201604052801561147f57816020015b606081526020019060019003908161146a5790505b50905060105460405160200161149591906137af565b604051602081830303815290604052816000815181106114b8576114b7613241565b5b60200260200101819052506115327f396465313733353164666135343339643833663563326633373037666661396567016345785d8a00006040518060400160405280600781526020017f7265736f6c7665000000000000000000000000000000000000000000000000008152506003600e548787610e2d565b5050565b6000611540611a89565b90508073ffffffffffffffffffffffffffffffffffffffff1663a9059cbb338373ffffffffffffffffffffffffffffffffffffffff166370a08231306040518263ffffffff1660e01b815260040161159891906137d9565b60206040518083038186803b1580156115b057600080fd5b505afa1580156115c4573d6000803e3d6000fd5b505050506040513d601f19601f820116820180604052508101906115e89190613809565b6040518363ffffffff1660e01b8152600401611605929190613836565b602060405180830381600087803b15801561161f57600080fd5b505af1158015611633573d6000803e3d6000fd5b505050506040513d601f19601f820116820180604052508101906116579190613874565b611696576040517f08c379a000000000000000000000000000000000000000000000000000000000815260040161168d906138ed565b60405180910390fd5b50565b601160029054906101000a900460ff1681565b600c80546116b9906135a6565b80601f01602080910402602001604051908101604052809291908181526020018280546116e5906135a6565b80156117325780601f1061170757610100808354040283529160200191611732565b820191906000526020600020905b81548152906001019060200180831161171557829003601f168201915b505050505081565b60105481565b60088060000160009054906101000a900463ffffffff16908060000160049054906101000a900460ff16908060000160059054906101000a900460ff16908060000160069054906101000a900460601b905084565b600b60009054906101000a900460ff1681565b6117b06123cc565b6117b86123cc565b6117cf85858584611ab3909392919063ffffffff16565b9150509392505050565b6117f0828460800151611b6390919063ffffffff16565b611807818460800151611b8890919063ffffffff16565b505050565b611823828460800151611b6390919063ffffffff16565b61183a818460800151611b6390919063ffffffff16565b505050565b611856828460800151611b6390919063ffffffff16565b6118638360800151611bb8565b60005b81518110156118b3576118a082828151811061188557611884613241565b5b60200260200101518560800151611b6390919063ffffffff16565b80806118ab9061390d565b915050611866565b506118c18360800151611bc6565b505050565b60006118f5600360009054906101000a900473ffffffffffffffffffffffffffffffffffffffff168484611bd4565b905092915050565b80600360006101000a81548173ffffffffffffffffffffffffffffffffffffffff021916908373ffffffffffffffffffffffffffffffffffffffff16021790555050565b6000611955873063397e20fc60e01b6117a8565b90506119a16040518060400160405280600681526020017f6d61726b6574000000000000000000000000000000000000000000000000000081525086836117d99092919063ffffffff16565b6119eb6040518060400160405280600881526020017f6c6561677565496400000000000000000000000000000000000000000000000081525085836117d99092919063ffffffff16565b611a356040518060400160405280600481526020017f646174650000000000000000000000000000000000000000000000000000000081525084836117d99092919063ffffffff16565b611a75816040518060400160405280600781526020017f67616d654964730000000000000000000000000000000000000000000000000081525084611ca0565b611a7f81876118c6565b5050505050505050565b6000600260009054906101000a900473ffffffffffffffffffffffffffffffffffffffff16905090565b611abb6123cc565b611acb8560800151610100611d2e565b508385600001818152505082856020019073ffffffffffffffffffffffffffffffffffffffff16908173ffffffffffffffffffffffffffffffffffffffff16815250508185604001907bffffffffffffffffffffffffffffffffffffffffffffffffffffffff191690817bffffffffffffffffffffffffffffffffffffffffffffffffffffffff191681525050849050949350505050565b611b708260038351611d98565b611b838183611f1d90919063ffffffff16565b505050565b67ffffffffffffffff811115611ba757611ba28282611f3f565b611bb4565b611bb382600083611d98565b5b5050565b611bc3816004611f8b565b50565b611bd1816007611f8b565b50565b6000806004549050600181611be99190612f37565b6004819055506000634042994660e01b60008087600001513089604001518760018c6080015160000151604051602401611c2a9897969594939291906139e6565b604051602081830303815290604052907bffffffffffffffffffffffffffffffffffffffffffffffffffffffff19166020820180517bffffffffffffffffffffffffffffffffffffffffffffffffffffffff83818316178352505050509050611c9586838684611fad565b925050509392505050565b6000839050611cbc838260800151611b6390919063ffffffff16565b611cc98160800151611bb8565b60008251905060005b81811015611d1657611d0b848281518110611cf057611cef613241565b5b60200260200101518460800151611b8890919063ffffffff16565b806001019050611cd2565b50611d248260800151611bc6565b8194505050505050565b611d36612439565b6000602083611d459190613a6b565b14611d7157602082611d579190613a6b565b6020611d639190613a9c565b82611d6e9190612f37565b91505b81836020018181525050604051808452600081528281016020016040525082905092915050565b60178167ffffffffffffffff1611611dcf57611dc98160058460ff16901b60ff16178461215190919063ffffffff16565b50611f18565b60ff8167ffffffffffffffff1611611e2557611dfe601860058460ff16901b178461215190919063ffffffff16565b50611e1f8167ffffffffffffffff166001856121719092919063ffffffff16565b50611f17565b61ffff8167ffffffffffffffff1611611e7c57611e55601960058460ff16901b178461215190919063ffffffff16565b50611e768167ffffffffffffffff166002856121719092919063ffffffff16565b50611f16565b63ffffffff8167ffffffffffffffff1611611ed557611eae601a60058460ff16901b178461215190919063ffffffff16565b50611ecf8167ffffffffffffffff166004856121719092919063ffffffff16565b50611f15565b611ef2601b60058460ff16901b178461215190919063ffffffff16565b50611f138167ffffffffffffffff166008856121719092919063ffffffff16565b505b5b5b5b505050565b611f25612439565b611f3783846000015151848551612193565b905092915050565b611f5d60026005600660ff16901b178361215190919063ffffffff16565b50611f878282604051602001611f73919061250b565b604051602081830303815290604052612282565b5050565b611fa8601f60058360ff16901b178361215190919063ffffffff16565b505050565b60003084604051602001611fc2929190613b89565b604051602081830303815290604052805190602001209050846005600083815260200190815260200160002060006101000a81548173ffffffffffffffffffffffffffffffffffffffff021916908373ffffffffffffffffffffffffffffffffffffffff160217905550807fb5e6e01e79f91267dc17b4e6314d5d4d03593d2ceee0fbb452b750bd70ea5af960405160405180910390a2600260009054906101000a900473ffffffffffffffffffffffffffffffffffffffff1673ffffffffffffffffffffffffffffffffffffffff16634000aea08685856040518463ffffffff1660e01b81526004016120b893929190613bb5565b602060405180830381600087803b1580156120d257600080fd5b505af11580156120e6573d6000803e3d6000fd5b505050506040513d601f19601f8201168201806040525081019061210a9190613874565b612149576040517f08c379a000000000000000000000000000000000000000000000000000000000815260040161214090613c65565b60405180910390fd5b949350505050565b612159612439565b61216983846000015151846122a7565b905092915050565b612179612439565b61218a8485600001515185856122fe565b90509392505050565b61219b612439565b82518211156121a957600080fd5b846020015182856121ba9190612f37565b11156121ef576121ee8560026121df886020015188876121da9190612f37565b61238c565b6121e99190612e7d565b6123a8565b5b60008086518051876020830101935080888701111561220e5787860182525b60208701925050505b6020841061225557805182526020826122309190612f37565b915060208161223f9190612f37565b905060208461224e9190613a9c565b9350612217565b60006001856020036101000a03905080198251168184511681811785525050508692505050949350505050565b61228f8260028351611d98565b6122a28183611f1d90919063ffffffff16565b505050565b6122af612439565b836020015183106122d5576122d484600286602001516122cf9190612e7d565b6123a8565b5b83518051602085830101848153818614156122f1576001820183525b5050508390509392505050565b612306612439565b846020015184836123179190612f37565b111561233f5761233e856002868561232f9190612f37565b6123399190612e7d565b6123a8565b5b60006001836101006123519190613db8565b61235b9190613a9c565b9050855183868201018583198251161781528151858801111561237e5784870182525b505085915050949350505050565b60008183111561239e578290506123a2565b8190505b92915050565b6000826000015190506123bb8383611d2e565b506123c68382611f1d565b50505050565b6040518060a0016040528060008019168152602001600073ffffffffffffffffffffffffffffffffffffffff16815260200160007bffffffffffffffffffffffffffffffffffffffffffffffffffffffff1916815260200160008152602001612433612439565b81525090565b604051806040016040528060608152602001600081525090565b6000604051905090565b600080fd5b600080fd5b600073ffffffffffffffffffffffffffffffffffffffff82169050919050565b600061249282612467565b9050919050565b6124a281612487565b81146124ad57600080fd5b50565b6000813590506124bf81612499565b92915050565b6000602082840312156124db576124da61245d565b5b60006124e9848285016124b0565b91505092915050565b6000819050919050565b612505816124f2565b82525050565b600060208201905061252060008301846124fc565b92915050565b60008115159050919050565b61253b81612526565b811461254657600080fd5b50565b60008135905061255881612532565b92915050565b6000602082840312156125745761257361245d565b5b600061258284828501612549565b91505092915050565b60006040820190506125a060008301856124fc565b6125ad60208301846124fc565b9392505050565b6125bd81612526565b82525050565b60006020820190506125d860008301846125b4565b92915050565b6000819050919050565b6125f1816125de565b81146125fc57600080fd5b50565b60008135905061260e816125e8565b92915050565b600080fd5b6000601f19601f8301169050919050565b7f4e487b7100000000000000000000000000000000000000000000000000000000600052604160045260246000fd5b61266282612619565b810181811067ffffffffffffffff821117156126815761268061262a565b5b80604052505050565b6000612694612453565b90506126a08282612659565b919050565b600067ffffffffffffffff8211156126c0576126bf61262a565b5b602082029050602081019050919050565b600080fd5b60006126e96126e4846126a5565b61268a565b9050808382526020820190506020840283018581111561270c5761270b6126d1565b5b835b81811015612735578061272188826125ff565b84526020840193505060208101905061270e565b5050509392505050565b600082601f83011261275457612753612614565b5b81356127648482602086016126d6565b91505092915050565b600080604083850312156127845761278361245d565b5b6000612792858286016125ff565b925050602083013567ffffffffffffffff8111156127b3576127b2612462565b5b6127bf8582860161273f565b9150509250929050565b6127d2816125de565b82525050565b600060ff82169050919050565b6127ee816127d8565b82525050565b600060808201905061280960008301876127c9565b61281660208301866127e5565b61282360408301856127e5565b61283060608301846127e5565b95945050505050565b600067ffffffffffffffff8211156128545761285361262a565b5b602082029050602081019050919050565b600080fd5b600067ffffffffffffffff8211156128855761288461262a565b5b61288e82612619565b9050602081019050919050565b82818337600083830152505050565b60006128bd6128b88461286a565b61268a565b9050828152602081018484840111156128d9576128d8612865565b5b6128e484828561289b565b509392505050565b600082601f83011261290157612900612614565b5b81356129118482602086016128aa565b91505092915050565b600061292d61292884612839565b61268a565b905080838252602082019050602084028301858111156129505761294f6126d1565b5b835b8181101561299757803567ffffffffffffffff81111561297557612974612614565b5b80860161298289826128ec565b85526020850194505050602081019050612952565b5050509392505050565b600082601f8301126129b6576129b5612614565b5b81356129c684826020860161291a565b91505092915050565b600080604083850312156129e6576129e561245d565b5b60006129f4858286016125ff565b925050602083013567ffffffffffffffff811115612a1557612a14612462565b5b612a21858286016129a1565b9150509250929050565b600063ffffffff82169050919050565b612a4481612a2b565b82525050565b6000602082019050612a5f6000830184612a3b565b92915050565b612a6e816124f2565b8114612a7957600080fd5b50565b600081359050612a8b81612a65565b92915050565b600067ffffffffffffffff821115612aac57612aab61262a565b5b612ab582612619565b9050602081019050919050565b6000612ad5612ad084612a91565b61268a565b905082815260208101848484011115612af157612af0612865565b5b612afc84828561289b565b509392505050565b600082601f830112612b1957612b18612614565b5b8135612b29848260208601612ac2565b91505092915050565b600067ffffffffffffffff821115612b4d57612b4c61262a565b5b602082029050602081019050919050565b6000612b71612b6c84612b32565b61268a565b90508083825260208201905060208402830185811115612b9457612b936126d1565b5b835b81811015612bdb57803567ffffffffffffffff811115612bb957612bb8612614565b5b808601612bc68982612b04565b85526020850194505050602081019050612b96565b5050509392505050565b600082601f830112612bfa57612bf9612614565b5b8135612c0a848260208601612b5e565b91505092915050565b600080600080600080600060e0888a031215612c3257612c3161245d565b5b6000612c408a828b016125ff565b9750506020612c518a828b01612a7c565b965050604088013567ffffffffffffffff811115612c7257612c71612462565b5b612c7e8a828b01612b04565b9550506060612c8f8a828b01612a7c565b9450506080612ca08a828b01612a7c565b93505060a088013567ffffffffffffffff811115612cc157612cc0612462565b5b612ccd8a828b01612be5565b92505060c088013567ffffffffffffffff811115612cee57612ced612462565b5b612cfa8a828b01612be5565b91505092959891949750929550565b600081519050919050565b600082825260208201905092915050565b60005b83811015612d43578082015181840152602081019050612d28565b83811115612d52576000848401525b50505050565b6000612d6382612d09565b612d6d8185612d14565b9350612d7d818560208601612d25565b612d8681612619565b840191505092915050565b60006020820190508181036000830152612dab8184612d58565b905092915050565b6000602082019050612dc860008301846127c9565b92915050565b60007fffffffffffffffffffffffffffffffffffffffff00000000000000000000000082169050919050565b612e0381612dce565b82525050565b6000608082019050612e1e6000830187612a3b565b612e2b60208301866127e5565b612e3860408301856127e5565b612e456060830184612dfa565b95945050505050565b7f4e487b7100000000000000000000000000000000000000000000000000000000600052601160045260246000fd5b6000612e88826124f2565b9150612e93836124f2565b9250817fffffffffffffffffffffffffffffffffffffffffffffffffffffffffffffffff0483118215151615612ecc57612ecb612e4e565b5b828202905092915050565b7f4e487b7100000000000000000000000000000000000000000000000000000000600052601260045260246000fd5b6000612f11826124f2565b9150612f1c836124f2565b925082612f2c57612f2b612ed7565b5b828204905092915050565b6000612f42826124f2565b9150612f4d836124f2565b9250827fffffffffffffffffffffffffffffffffffffffffffffffffffffffffffffffff03821115612f8257612f81612e4e565b5b828201905092915050565b7f6d73672e76616c75652068617320746f206265206d6f7265207468616e203000600082015250565b6000612fc3601f83612d14565b9150612fce82612f8d565b602082019050919050565b60006020820190508181036000830152612ff281612fb6565b9050919050565b7f596f752063616e277420706c616365206265747320616e796d6f72652c20676160008201527f6d652068617320737461727465642e0000000000000000000000000000000000602082015250565b6000613055602f83612d14565b915061306082612ff9565b604082019050919050565b6000602082019050818103600083015261308481613048565b9050919050565b7f526573756c7473206861766520616c7265616479206265656e2061676772656760008201527f617465642e000000000000000000000000000000000000000000000000000000602082015250565b60006130e7602583612d14565b91506130f28261308b565b604082019050919050565b60006020820190508181036000830152613116816130da565b9050919050565b7f526573756c7473206861766520746f20626520666574636865642066726f6d2060008201527f626f7468206f7261636c6573206265666f7265206167677265676174696f6e2e602082015250565b6000613179604083612d14565b91506131848261311d565b604082019050919050565b600060208201905081810360008301526131a88161316c565b9050919050565b7f536f75726365206d75737420626520746865206f7261636c65206f662074686560008201527f2072657175657374000000000000000000000000000000000000000000000000602082015250565b600061320b602883612d14565b9150613216826131af565b604082019050919050565b6000602082019050818103600083015261323a816131fe565b9050919050565b7f4e487b7100000000000000000000000000000000000000000000000000000000600052603260045260246000fd5b600080fd5b600081519050613284816125e8565b92915050565b613293816127d8565b811461329e57600080fd5b50565b6000815190506132b08161328a565b92915050565b6000608082840312156132cc576132cb613270565b5b6132d6608061268a565b905060006132e684828501613275565b60008301525060206132fa848285016132a1565b602083015250604061330e848285016132a1565b6040830152506060613322848285016132a1565b60608301525092915050565b6000608082840312156133445761334361245d565b5b6000613352848285016132b6565b91505092915050565b7f526573756c74732068617665206e6f74206265656e206167677265676174656460008201527f207965742e000000000000000000000000000000000000000000000000000000602082015250565b60006133b7602583612d14565b91506133c28261335b565b604082019050919050565b600060208201905081810360008301526133e6816133aa565b9050919050565b7f526573756c74732068617665206e6f20636f6e73656e7375732e000000000000600082015250565b6000613423601a83612d14565b915061342e826133ed565b602082019050919050565b6000602082019050818103600083015261345281613416565b9050919050565b7f596f7520646964206e6f742077696e20616e79207072697a652e000000000000600082015250565b600061348f601a83612d14565b915061349a82613459565b602082019050919050565b600060208201905081810360008301526134be81613482565b9050919050565b600081905092915050565b50565b60006134e06000836134c5565b91506134eb826134d0565b600082019050919050565b6000613501826134d3565b9150819050919050565b7f4661696c656420746f2073656e642045746865722e0000000000000000000000600082015250565b6000613541601583612d14565b915061354c8261350b565b602082019050919050565b6000602082019050818103600083015261357081613534565b9050919050565b7f4e487b7100000000000000000000000000000000000000000000000000000000600052602260045260246000fd5b600060028204905060018216806135be57607f821691505b602082108114156135d2576135d1613577565b5b50919050565b7f534420726573756c742068617320616c7265616479206265656e20666574636860008201527f65642e0000000000000000000000000000000000000000000000000000000000602082015250565b6000613634602383612d14565b915061363f826135d8565b604082019050919050565b6000602082019050818103600083015261366381613627565b9050919050565b7f5761697420756e74696c20313068206166746572207468652067616d6520746f60008201527f20666574636820726573756c74732e0000000000000000000000000000000000602082015250565b60006136c6602f83612d14565b91506136d18261366a565b604082019050919050565b600060208201905081810360008301526136f5816136b9565b9050919050565b7f524420726573756c742068617320616c7265616479206265656e20666574636860008201527f65642e0000000000000000000000000000000000000000000000000000000000602082015250565b6000613758602383612d14565b9150613763826136fc565b604082019050919050565b600060208201905081810360008301526137878161374b565b9050919050565b6000819050919050565b6137a96137a4826125de565b61378e565b82525050565b60006137bb8284613798565b60208201915081905092915050565b6137d381612487565b82525050565b60006020820190506137ee60008301846137ca565b92915050565b60008151905061380381612a65565b92915050565b60006020828403121561381f5761381e61245d565b5b600061382d848285016137f4565b91505092915050565b600060408201905061384b60008301856137ca565b61385860208301846124fc565b9392505050565b60008151905061386e81612532565b92915050565b60006020828403121561388a5761388961245d565b5b60006138988482850161385f565b91505092915050565b7f556e61626c6520746f207472616e736665720000000000000000000000000000600082015250565b60006138d7601283612d14565b91506138e2826138a1565b602082019050919050565b60006020820190508181036000830152613906816138ca565b9050919050565b6000613918826124f2565b91507fffffffffffffffffffffffffffffffffffffffffffffffffffffffffffffffff82141561394b5761394a612e4e565b5b600182019050919050565b60007fffffffff0000000000000000000000000000000000000000000000000000000082169050919050565b61398b81613956565b82525050565b600081519050919050565b600082825260208201905092915050565b60006139b882613991565b6139c2818561399c565b93506139d2818560208601612d25565b6139db81612619565b840191505092915050565b6000610100820190506139fc600083018b6137ca565b613a09602083018a6124fc565b613a1660408301896127c9565b613a2360608301886137ca565b613a306080830187613982565b613a3d60a08301866124fc565b613a4a60c08301856124fc565b81810360e0830152613a5c81846139ad565b90509998505050505050505050565b6000613a76826124f2565b9150613a81836124f2565b925082613a9157613a90612ed7565b5b828206905092915050565b6000613aa7826124f2565b9150613ab2836124f2565b925082821015613ac557613ac4612e4e565b5b828203905092915050565b6000819050919050565b6000613af5613af0613aeb84612467565b613ad0565b612467565b9050919050565b6000613b0782613ada565b9050919050565b6000613b1982613afc565b9050919050565b60008160601b9050919050565b6000613b3882613b20565b9050919050565b6000613b4a82613b2d565b9050919050565b613b62613b5d82613b0e565b613b3f565b82525050565b6000819050919050565b613b83613b7e826124f2565b613b68565b82525050565b6000613b958285613b51565b601482019150613ba58284613b72565b6020820191508190509392505050565b6000606082019050613bca60008301866137ca565b613bd760208301856124fc565b8181036040830152613be981846139ad565b9050949350505050565b7f756e61626c6520746f207472616e73666572416e6443616c6c20746f206f726160008201527f636c650000000000000000000000000000000000000000000000000000000000602082015250565b6000613c4f602383612d14565b9150613c5a82613bf3565b604082019050919050565b60006020820190508181036000830152613c7e81613c42565b9050919050565b60008160011c9050919050565b6000808291508390505b6001851115613cdc57808604811115613cb857613cb7612e4e565b5b6001851615613cc75780820291505b8081029050613cd585613c85565b9450613c9c565b94509492505050565b600082613cf55760019050613db1565b81613d035760009050613db1565b8160018114613d195760028114613d2357613d52565b6001915050613db1565b60ff841115613d3557613d34612e4e565b5b8360020a915084821115613d4c57613d4b612e4e565b5b50613db1565b5060208310610133831016604e8410600b8410161715613d875782820a905083811115613d8257613d81612e4e565b5b613db1565b613d948484846001613c92565b92509050818404811115613dab57613daa612e4e565b5b81810290505b9392505050565b6000613dc3826124f2565b9150613dce836124f2565b9250613dfb7fffffffffffffffffffffffffffffffffffffffffffffffffffffffffffffffff8484613ce5565b90509291505056fea2646970667358221220fe4614b458c376a1261bd7ab565cb19aed6b458b76c11f33642b963a15fe15fb64736f6c63430008090033",
  "linkReferences": {},
  "deployedLinkReferences": {}
}