{
  "_format": "hh-sol-artifact-1",
  "contractName": "EtherBaseballBets",
  "sourceName": "contracts/EtherBaseballBets.sol",
  "abi": [
    {
      "inputs": [
        {
          "internalType": "address",
          "name": "_link",
          "type": "address"
        },
        {
          "internalType": "address",
          "name": "_oracle",
          "type": "address"
        },
        {
          "internalType": "uint256",
          "name": "_date",
          "type": "uint256"
        },
        {
          "internalType": "uint32",
          "name": "_gameIdSD",
          "type": "uint32"
        },
        {
          "internalType": "bytes32",
          "name": "_gameIdRD",
          "type": "bytes32"
        },
        {
          "internalType": "string",
          "name": "_homeTeam",
          "type": "string"
        },
        {
          "internalType": "string",
          "name": "_awayTeam",
          "type": "string"
        }
      ],
      "stateMutability": "nonpayable",
      "type": "constructor"
    },
    {
      "anonymous": false,
      "inputs": [
        {
          "indexed": true,
          "internalType": "bytes32",
          "name": "id",
          "type": "bytes32"
        }
      ],
      "name": "ChainlinkCancelled",
      "type": "event"
    },
    {
      "anonymous": false,
      "inputs": [
        {
          "indexed": true,
          "internalType": "bytes32",
          "name": "id",
          "type": "bytes32"
        }
      ],
      "name": "ChainlinkFulfilled",
      "type": "event"
    },
    {
      "anonymous": false,
      "inputs": [
        {
          "indexed": true,
          "internalType": "bytes32",
          "name": "id",
          "type": "bytes32"
        }
      ],
      "name": "ChainlinkRequested",
      "type": "event"
    },
    {
      "inputs": [
        {
          "internalType": "uint256",
          "name": "",
          "type": "uint256"
        }
      ],
      "name": "GamesRD",
      "outputs": [
        {
          "internalType": "bytes",
          "name": "",
          "type": "bytes"
        }
      ],
      "stateMutability": "view",
      "type": "function"
    },
    {
      "inputs": [
        {
          "internalType": "uint256",
          "name": "",
          "type": "uint256"
        }
      ],
      "name": "GamesSD",
      "outputs": [
        {
          "internalType": "bytes32",
          "name": "",
          "type": "bytes32"
        }
      ],
      "stateMutability": "view",
      "type": "function"
    },
    {
      "inputs": [],
      "name": "awayTeam",
      "outputs": [
        {
          "internalType": "string",
          "name": "",
          "type": "string"
        }
      ],
      "stateMutability": "view",
      "type": "function"
    },
    {
      "inputs": [],
      "name": "fetchedRD",
      "outputs": [
        {
          "internalType": "bool",
          "name": "",
          "type": "bool"
        }
      ],
      "stateMutability": "view",
      "type": "function"
    },
    {
      "inputs": [],
      "name": "fetchedSD",
      "outputs": [
        {
          "internalType": "bool",
          "name": "",
          "type": "bool"
        }
      ],
      "stateMutability": "view",
      "type": "function"
    },
    {
      "inputs": [
        {
          "internalType": "bytes32",
          "name": "_requestId",
          "type": "bytes32"
        },
        {
          "internalType": "bytes[]",
          "name": "_result",
          "type": "bytes[]"
        }
      ],
      "name": "fulfillGames",
      "outputs": [],
      "stateMutability": "nonpayable",
      "type": "function"
    },
    {
      "inputs": [
        {
          "internalType": "bytes32",
          "name": "_requestId",
          "type": "bytes32"
        },
        {
          "internalType": "bytes32[]",
          "name": "_result",
          "type": "bytes32[]"
        }
      ],
      "name": "fulfillSchedule",
      "outputs": [],
      "stateMutability": "nonpayable",
      "type": "function"
    },
    {
      "inputs": [],
      "name": "gameDate",
      "outputs": [
        {
          "internalType": "uint256",
          "name": "",
          "type": "uint256"
        }
      ],
      "stateMutability": "view",
      "type": "function"
    },
    {
      "inputs": [],
      "name": "gameIdRD",
      "outputs": [
        {
          "internalType": "bytes32",
          "name": "",
          "type": "bytes32"
        }
      ],
      "stateMutability": "view",
      "type": "function"
    },
    {
      "inputs": [],
      "name": "gameIdSD",
      "outputs": [
        {
          "internalType": "uint32",
          "name": "",
          "type": "uint32"
        }
      ],
      "stateMutability": "view",
      "type": "function"
    },
    {
      "inputs": [
        {
          "internalType": "uint256",
          "name": "_idx",
          "type": "uint256"
        }
      ],
      "name": "getGameResolveSD",
      "outputs": [
        {
          "components": [
            {
              "internalType": "uint32",
              "name": "gameId",
              "type": "uint32"
            },
            {
              "internalType": "uint8",
              "name": "homeScore",
              "type": "uint8"
            },
            {
              "internalType": "uint8",
              "name": "awayScore",
              "type": "uint8"
            },
            {
              "internalType": "bytes20",
              "name": "status",
              "type": "bytes20"
            }
          ],
          "internalType": "struct EtherBaseballBets.GameResolveSD",
          "name": "",
          "type": "tuple"
        }
      ],
      "stateMutability": "view",
      "type": "function"
    },
    {
      "inputs": [
        {
          "internalType": "uint256",
          "name": "_idx",
          "type": "uint256"
        }
      ],
      "name": "getGameResolvedRD",
      "outputs": [
        {
          "components": [
            {
              "internalType": "bytes32",
              "name": "gameId",
              "type": "bytes32"
            },
            {
              "internalType": "uint8",
              "name": "homeScore",
              "type": "uint8"
            },
            {
              "internalType": "uint8",
              "name": "awayScore",
              "type": "uint8"
            },
            {
              "internalType": "uint8",
              "name": "statusId",
              "type": "uint8"
            }
          ],
          "internalType": "struct EtherBaseballBets.GameResolveRD",
          "name": "",
          "type": "tuple"
        }
      ],
      "stateMutability": "view",
      "type": "function"
    },
    {
      "inputs": [],
      "name": "homeTeam",
      "outputs": [
        {
          "internalType": "string",
          "name": "",
          "type": "string"
        }
      ],
      "stateMutability": "view",
      "type": "function"
    },
    {
      "inputs": [
        {
          "internalType": "bytes32",
          "name": "_specId",
          "type": "bytes32"
        },
        {
          "internalType": "uint256",
          "name": "_payment",
          "type": "uint256"
        },
        {
          "internalType": "string",
          "name": "_market",
          "type": "string"
        },
        {
          "internalType": "uint256",
          "name": "_sportId",
          "type": "uint256"
        },
        {
          "internalType": "uint256",
          "name": "_date",
          "type": "uint256"
        },
        {
          "internalType": "string[]",
          "name": "_statusIds",
          "type": "string[]"
        },
        {
          "internalType": "string[]",
          "name": "_gameIds",
          "type": "string[]"
        }
      ],
      "name": "requestGamesResolveWithFilters",
      "outputs": [],
      "stateMutability": "nonpayable",
      "type": "function"
    },
    {
      "inputs": [],
      "name": "requestResultFromRD",
      "outputs": [],
      "stateMutability": "nonpayable",
      "type": "function"
    },
    {
      "inputs": [],
      "name": "requestResultFromSD",
      "outputs": [],
      "stateMutability": "nonpayable",
      "type": "function"
    },
    {
      "inputs": [],
      "name": "resultRD",
      "outputs": [
        {
          "internalType": "bytes32",
          "name": "gameId",
          "type": "bytes32"
        },
        {
          "internalType": "uint8",
          "name": "homeScore",
          "type": "uint8"
        },
        {
          "internalType": "uint8",
          "name": "awayScore",
          "type": "uint8"
        },
        {
          "internalType": "uint8",
          "name": "statusId",
          "type": "uint8"
        }
      ],
      "stateMutability": "view",
      "type": "function"
    },
    {
      "inputs": [],
      "name": "resultSD",
      "outputs": [
        {
          "internalType": "uint32",
          "name": "gameId",
          "type": "uint32"
        },
        {
          "internalType": "uint8",
          "name": "homeScore",
          "type": "uint8"
        },
        {
          "internalType": "uint8",
          "name": "awayScore",
          "type": "uint8"
        },
        {
          "internalType": "bytes20",
          "name": "status",
          "type": "bytes20"
        }
      ],
      "stateMutability": "view",
      "type": "function"
    },
    {
      "inputs": [
        {
          "internalType": "address",
          "name": "_oracle",
          "type": "address"
        }
      ],
      "name": "setOracle",
      "outputs": [],
      "stateMutability": "nonpayable",
      "type": "function"
    },
    {
      "inputs": [],
      "name": "total",
      "outputs": [
        {
          "internalType": "uint256",
          "name": "home",
          "type": "uint256"
        },
        {
          "internalType": "uint256",
          "name": "away",
          "type": "uint256"
        }
      ],
      "stateMutability": "view",
      "type": "function"
    },
    {
      "inputs": [],
      "name": "withdrawLink",
      "outputs": [],
      "stateMutability": "nonpayable",
      "type": "function"
    }
  ],
  "bytecode": "0x608060405260016004553480156200001657600080fd5b5060405162003c5838038062003c5883398181016040528101906200003c9190620002de565b6200004d87620000cc60201b60201c565b6200005e866200011060201b60201c565b8460108190555083601160006101000a81548163ffffffff021916908363ffffffff1602179055508260128190555081600c9080519060200190620000a592919062000154565b5080600d9080519060200190620000be92919062000154565b505050505050505062000613565b80600260006101000a81548173ffffffffffffffffffffffffffffffffffffffff021916908373ffffffffffffffffffffffffffffffffffffffff16021790555050565b80600360006101000a81548173ffffffffffffffffffffffffffffffffffffffff021916908373ffffffffffffffffffffffffffffffffffffffff16021790555050565b8280546200016290620004bc565b90600052602060002090601f016020900481019282620001865760008555620001d2565b82601f10620001a157805160ff1916838001178555620001d2565b82800160010185558215620001d2579182015b82811115620001d1578251825591602001919060010190620001b4565b5b509050620001e19190620001e5565b5090565b5b8082111562000200576000816000905550600101620001e6565b5090565b60006200021b6200021584620003f8565b620003cf565b9050828152602081018484840111156200023a57620002396200058b565b5b6200024784828562000486565b509392505050565b6000815190506200026081620005ab565b92915050565b6000815190506200027781620005c5565b92915050565b600082601f83011262000295576200029462000586565b5b8151620002a784826020860162000204565b91505092915050565b600081519050620002c181620005df565b92915050565b600081519050620002d881620005f9565b92915050565b600080600080600080600060e0888a0312156200030057620002ff62000595565b5b6000620003108a828b016200024f565b9750506020620003238a828b016200024f565b9650506040620003368a828b01620002b0565b9550506060620003498a828b01620002c7565b94505060806200035c8a828b0162000266565b93505060a088015167ffffffffffffffff81111562000380576200037f62000590565b5b6200038e8a828b016200027d565b92505060c088015167ffffffffffffffff811115620003b257620003b162000590565b5b620003c08a828b016200027d565b91505092959891949750929550565b6000620003db620003ee565b9050620003e98282620004f2565b919050565b6000604051905090565b600067ffffffffffffffff82111562000416576200041562000557565b5b62000421826200059a565b9050602081019050919050565b60006200043b826200044c565b9050919050565b6000819050919050565b600073ffffffffffffffffffffffffffffffffffffffff82169050919050565b6000819050919050565b600063ffffffff82169050919050565b60005b83811015620004a657808201518184015260208101905062000489565b83811115620004b6576000848401525b50505050565b60006002820490506001821680620004d557607f821691505b60208210811415620004ec57620004eb62000528565b5b50919050565b620004fd826200059a565b810181811067ffffffffffffffff821117156200051f576200051e62000557565b5b80604052505050565b7f4e487b7100000000000000000000000000000000000000000000000000000000600052602260045260246000fd5b7f4e487b7100000000000000000000000000000000000000000000000000000000600052604160045260246000fd5b600080fd5b600080fd5b600080fd5b600080fd5b6000601f19601f8301169050919050565b620005b6816200042e565b8114620005c257600080fd5b50565b620005d08162000442565b8114620005dc57600080fd5b50565b620005ea816200046c565b8114620005f657600080fd5b50565b620006048162000476565b81146200061057600080fd5b50565b61363580620006236000396000f3fe608060405234801561001057600080fd5b50600436106101375760003560e01c80637d79c192116100b85780638dc654a21161007c5780638dc654a214610308578063a02f71e314610312578063ae989d3614610342578063b57cb55b14610360578063c89197c11461037e578063c989b41f1461039f57610137565b80637d79c19214610276578063821f6b7f1461029457806389907a5d1461029e5780638b1b29e8146102ce5780638dc0ddc0146102fe57610137565b80634d22530e116100ff5780634d22530e146101d25780634eaecd68146101f05780636d1d92471461020c57806374e53ee11461022a5780637adbf9731461025a57610137565b80632ddbd13a1461013c5780632f157b9d1461015b578063397e20fc146101795780633e5bc6bd1461019557806345040746146101b6575b600080fd5b6101446103bd565b604051610152929190612c2f565b60405180910390f35b6101636103cf565b6040516101709190612a5f565b60405180910390f35b610193600480360381019061018e91906123f5565b6103e2565b005b61019d61051e565b6040516101ad9493929190612a95565b60405180910390f35b6101d060048036038101906101cb9190612451565b610563565b005b6101da61069f565b6040516101e79190612c58565b60405180910390f35b61020a600480360381019061020591906124ad565b6106b5565b005b610214610852565b6040516102219190612c14565b60405180910390f35b610244600480360381019061023f91906125d0565b610858565b6040516102519190612bf9565b60405180910390f35b610274600480360381019061026f919061239b565b61088e565b005b61027e61089a565b60405161028b9190612afc565b60405180910390f35b61029c610928565b005b6102b860048036038101906102b391906125d0565b610a93565b6040516102c59190612ada565b60405180910390f35b6102e860048036038101906102e391906125d0565b610b3f565b6040516102f59190612a7a565b60405180910390f35b610306610b63565b005b610310610d13565b005b61032c600480360381019061032791906125d0565b610e76565b6040516103399190612bde565b60405180910390f35b61034a610f45565b6040516103579190612afc565b60405180910390f35b610368610fd3565b6040516103759190612a7a565b60405180910390f35b610386610fd9565b6040516103969493929190612c73565b60405180910390f35b6103a761102e565b6040516103b49190612a5f565b60405180910390f35b60068060000154908060010154905082565b600b60019054906101000a900460ff1681565b816005600082815260200190815260200160002060009054906101000a900473ffffffffffffffffffffffffffffffffffffffff1673ffffffffffffffffffffffffffffffffffffffff163373ffffffffffffffffffffffffffffffffffffffff1614610484576040517f08c379a000000000000000000000000000000000000000000000000000000000815260040161047b90612bbe565b60405180910390fd5b6005600082815260200190815260200160002060006101000a81549073ffffffffffffffffffffffffffffffffffffffff0219169055807f7cc135e0cebb02c3480ae5d74d377283180a2601f8f644edf7987b009316c63a60405160405180910390a281600e90805190602001906104fd929190611ccb565b506001600b60006101000a81548160ff021916908315150217905550505050565b60098060000154908060010160009054906101000a900460ff16908060010160019054906101000a900460ff16908060010160029054906101000a900460ff16905084565b816005600082815260200190815260200160002060009054906101000a900473ffffffffffffffffffffffffffffffffffffffff1673ffffffffffffffffffffffffffffffffffffffff163373ffffffffffffffffffffffffffffffffffffffff1614610605576040517f08c379a00000000000000000000000000000000000000000000000000000000081526004016105fc90612bbe565b60405180910390fd5b6005600082815260200190815260200160002060006101000a81549073ffffffffffffffffffffffffffffffffffffffff0219169055807f7cc135e0cebb02c3480ae5d74d377283180a2601f8f644edf7987b009316c63a60405160405180910390a281600f908051906020019061067e929190611d18565b506001600b60016101000a81548160ff021916908315150217905550505050565b601160009054906101000a900463ffffffff1681565b60006106c98830634504074660e01b611041565b90506107156040518060400160405280600481526020017f646174650000000000000000000000000000000000000000000000000000000081525085836110729092919063ffffffff16565b61075f6040518060400160405280600681526020017f6d61726b6574000000000000000000000000000000000000000000000000000081525087836110a59092919063ffffffff16565b6107a96040518060400160405280600781526020017f73706f727449640000000000000000000000000000000000000000000000000081525086836110729092919063ffffffff16565b6107f36040518060400160405280600981526020017f737461747573496473000000000000000000000000000000000000000000000081525084836110d89092919063ffffffff16565b61083d6040518060400160405280600781526020017f67616d654964730000000000000000000000000000000000000000000000000081525083836110d89092919063ffffffff16565b610847818861115f565b505050505050505050565b60105481565b610860611d78565b610887600e838154811061087757610876613331565b5b9060005260206000200154611196565b9050919050565b610897816111fc565b50565b600d80546108a79061318f565b80601f01602080910402602001604051908101604052809291908181526020018280546108d39061318f565b80156109205780601f106108f557610100808354040283529160200191610920565b820191906000526020600020905b81548152906001019060200180831161090357829003601f168201915b505050505081565b60001515600b60009054906101000a900460ff1615151461097e576040517f08c379a000000000000000000000000000000000000000000000000000000000815260040161097590612b5e565b60405180910390fd5b618ca060105461098e9190612dfb565b42116109cf576040517f08c379a00000000000000000000000000000000000000000000000000000000081526004016109c690612b3e565b60405180910390fd5b6000600167ffffffffffffffff8111156109ec576109eb613360565b5b604051908082528060200260200182016040528015610a1a5781602001602082028036833780820191505090505b509050601160009054906101000a900463ffffffff1663ffffffff1681600081518110610a4a57610a49613331565b5b602002602001018181525050610a907f626164653336303163356666343936353836643633366333393935663036666567016345785d8a00006001600060105486611240565b50565b600f8181548110610aa357600080fd5b906000526020600020016000915090508054610abe9061318f565b80601f0160208091040260200160405190810160405280929190818152602001828054610aea9061318f565b8015610b375780601f10610b0c57610100808354040283529160200191610b37565b820191906000526020600020905b815481529060010190602001808311610b1a57829003601f168201915b505050505081565b600e8181548110610b4f57600080fd5b906000526020600020016000915090505481565b60001515600b60019054906101000a900460ff16151514610bb9576040517f08c379a0000000000000000000000000000000000000000000000000000000008152600401610bb090612b1e565b60405180910390fd5b618ca0601054610bc99190612dfb565b4211610c0a576040517f08c379a0000000000000000000000000000000000000000000000000000000008152600401610c0190612b3e565b60405180910390fd5b60606000600167ffffffffffffffff811115610c2957610c28613360565b5b604051908082528060200260200182016040528015610c5c57816020015b6060815260200190600190039081610c475790505b509050601254604051602001610c729190612911565b60405160208183030381529060405281600081518110610c9557610c94613331565b5b6020026020010181905250610d0f7f396465313733353164666135343339643833663563326633373037666661396567016345785d8a00006040518060400160405280600681526020017f6372656174650000000000000000000000000000000000000000000000000000815250600360105487876106b5565b5050565b6000610d1d611388565b90508073ffffffffffffffffffffffffffffffffffffffff1663a9059cbb338373ffffffffffffffffffffffffffffffffffffffff166370a08231306040518263ffffffff1660e01b8152600401610d759190612958565b60206040518083038186803b158015610d8d57600080fd5b505afa158015610da1573d6000803e3d6000fd5b505050506040513d601f19601f82011682018060405250810190610dc591906125fd565b6040518363ffffffff1660e01b8152600401610de2929190612973565b602060405180830381600087803b158015610dfc57600080fd5b505af1158015610e10573d6000803e3d6000fd5b505050506040513d601f19601f82011682018060405250810190610e3491906123c8565b610e73576040517f08c379a0000000000000000000000000000000000000000000000000000000008152600401610e6a90612b9e565b60405180910390fd5b50565b610e7e611dbb565b6000600f8381548110610e9457610e93613331565b5b906000526020600020018054610ea99061318f565b80601f0160208091040260200160405190810160405280929190818152602001828054610ed59061318f565b8015610f225780601f10610ef757610100808354040283529160200191610f22565b820191906000526020600020905b815481529060010190602001808311610f0557829003601f168201915b5050505050806020019051810190610f3a91906125a3565b905080915050919050565b600c8054610f529061318f565b80601f0160208091040260200160405190810160405280929190818152602001828054610f7e9061318f565b8015610fcb5780601f10610fa057610100808354040283529160200191610fcb565b820191906000526020600020905b815481529060010190602001808311610fae57829003601f168201915b505050505081565b60125481565b60088060000160009054906101000a900463ffffffff16908060000160049054906101000a900460ff16908060000160059054906101000a900460ff16908060000160069054906101000a900460601b905084565b600b60009054906101000a900460ff1681565b611049611def565b611051611def565b611068858585846113b2909392919063ffffffff16565b9150509392505050565b61108982846080015161146290919063ffffffff16565b6110a081846080015161148790919063ffffffff16565b505050565b6110bc82846080015161146290919063ffffffff16565b6110d381846080015161146290919063ffffffff16565b505050565b6110ef82846080015161146290919063ffffffff16565b6110fc83608001516114b7565b60005b815181101561114c5761113982828151811061111e5761111d613331565b5b6020026020010151856080015161146290919063ffffffff16565b8080611144906131f2565b9150506110ff565b5061115a83608001516114c5565b505050565b600061118e600360009054906101000a900473ffffffffffffffffffffffffffffffffffffffff1684846114d3565b905092915050565b61119e611d78565b600060405180608001604052808460e01c63ffffffff168152602001602085901b60f81c60ff168152602001602885901b60f81c60ff168152602001603085901b6bffffffffffffffffffffffff1916815250905080915050919050565b80600360006101000a81548173ffffffffffffffffffffffffffffffffffffffff021916908373ffffffffffffffffffffffffffffffffffffffff16021790555050565b6000611254873063397e20fc60e01b611041565b90506112a06040518060400160405280600681526020017f6d61726b6574000000000000000000000000000000000000000000000000000081525086836110729092919063ffffffff16565b6112ea6040518060400160405280600881526020017f6c6561677565496400000000000000000000000000000000000000000000000081525085836110729092919063ffffffff16565b6113346040518060400160405280600481526020017f646174650000000000000000000000000000000000000000000000000000000081525084836110729092919063ffffffff16565b611374816040518060400160405280600781526020017f67616d65496473000000000000000000000000000000000000000000000000008152508461159f565b61137e818761115f565b5050505050505050565b6000600260009054906101000a900473ffffffffffffffffffffffffffffffffffffffff16905090565b6113ba611def565b6113ca856080015161010061162d565b508385600001818152505082856020019073ffffffffffffffffffffffffffffffffffffffff16908173ffffffffffffffffffffffffffffffffffffffff16815250508185604001907bffffffffffffffffffffffffffffffffffffffffffffffffffffffff191690817bffffffffffffffffffffffffffffffffffffffffffffffffffffffff191681525050849050949350505050565b61146f8260038351611697565b611482818361181c90919063ffffffff16565b505050565b67ffffffffffffffff8111156114a6576114a1828261183e565b6114b3565b6114b282600083611697565b5b5050565b6114c281600461188a565b50565b6114d081600761188a565b50565b60008060045490506001816114e89190612dfb565b6004819055506000634042994660e01b60008087600001513089604001518760018c608001516000015160405160240161152998979695949392919061299c565b604051602081830303815290604052907bffffffffffffffffffffffffffffffffffffffffffffffffffffffff19166020820180517bffffffffffffffffffffffffffffffffffffffffffffffffffffffff83818316178352505050509050611594868386846118ac565b925050509392505050565b60008390506115bb83826080015161146290919063ffffffff16565b6115c881608001516114b7565b60008251905060005b818110156116155761160a8482815181106115ef576115ee613331565b5b6020026020010151846080015161148790919063ffffffff16565b8060010190506115d1565b5061162382608001516114c5565b8194505050505050565b611635611e5c565b60006020836116449190613273565b14611670576020826116569190613273565b6020611662919061301c565b8261166d9190612dfb565b91505b81836020018181525050604051808452600081528281016020016040525082905092915050565b60178167ffffffffffffffff16116116ce576116c88160058460ff16901b60ff161784611a5090919063ffffffff16565b50611817565b60ff8167ffffffffffffffff1611611724576116fd601860058460ff16901b1784611a5090919063ffffffff16565b5061171e8167ffffffffffffffff16600185611a709092919063ffffffff16565b50611816565b61ffff8167ffffffffffffffff161161177b57611754601960058460ff16901b1784611a5090919063ffffffff16565b506117758167ffffffffffffffff16600285611a709092919063ffffffff16565b50611815565b63ffffffff8167ffffffffffffffff16116117d4576117ad601a60058460ff16901b1784611a5090919063ffffffff16565b506117ce8167ffffffffffffffff16600485611a709092919063ffffffff16565b50611814565b6117f1601b60058460ff16901b1784611a5090919063ffffffff16565b506118128167ffffffffffffffff16600885611a709092919063ffffffff16565b505b5b5b5b505050565b611824611e5c565b61183683846000015151848551611a92565b905092915050565b61185c60026005600660ff16901b1783611a5090919063ffffffff16565b5061188682826040516020016118729190612c14565b604051602081830303815290604052611b81565b5050565b6118a7601f60058360ff16901b1783611a5090919063ffffffff16565b505050565b600030846040516020016118c192919061292c565b604051602081830303815290604052805190602001209050846005600083815260200190815260200160002060006101000a81548173ffffffffffffffffffffffffffffffffffffffff021916908373ffffffffffffffffffffffffffffffffffffffff160217905550807fb5e6e01e79f91267dc17b4e6314d5d4d03593d2ceee0fbb452b750bd70ea5af960405160405180910390a2600260009054906101000a900473ffffffffffffffffffffffffffffffffffffffff1673ffffffffffffffffffffffffffffffffffffffff16634000aea08685856040518463ffffffff1660e01b81526004016119b793929190612a21565b602060405180830381600087803b1580156119d157600080fd5b505af11580156119e5573d6000803e3d6000fd5b505050506040513d601f19601f82011682018060405250810190611a0991906123c8565b611a48576040517f08c379a0000000000000000000000000000000000000000000000000000000008152600401611a3f90612b7e565b60405180910390fd5b949350505050565b611a58611e5c565b611a688384600001515184611ba6565b905092915050565b611a78611e5c565b611a89848560000151518585611bfd565b90509392505050565b611a9a611e5c565b8251821115611aa857600080fd5b84602001518285611ab99190612dfb565b1115611aee57611aed856002611ade88602001518887611ad99190612dfb565b611c8b565b611ae89190612fc2565b611ca7565b5b600080865180518760208301019350808887011115611b0d5787860182525b60208701925050505b60208410611b545780518252602082611b2f9190612dfb565b9150602081611b3e9190612dfb565b9050602084611b4d919061301c565b9350611b16565b60006001856020036101000a03905080198251168184511681811785525050508692505050949350505050565b611b8e8260028351611697565b611ba1818361181c90919063ffffffff16565b505050565b611bae611e5c565b83602001518310611bd457611bd38460028660200151611bce9190612fc2565b611ca7565b5b8351805160208583010184815381861415611bf0576001820183525b5050508390509392505050565b611c05611e5c565b84602001518483611c169190612dfb565b1115611c3e57611c3d8560028685611c2e9190612dfb565b611c389190612fc2565b611ca7565b5b6000600183610100611c509190612ea4565b611c5a919061301c565b90508551838682010185831982511617815281518588011115611c7d5784870182525b505085915050949350505050565b600081831115611c9d57829050611ca1565b8190505b92915050565b600082600001519050611cba838361162d565b50611cc5838261181c565b50505050565b828054828255906000526020600020908101928215611d07579160200282015b82811115611d06578251825591602001919060010190611ceb565b5b509050611d149190611e76565b5090565b828054828255906000526020600020908101928215611d67579160200282015b82811115611d66578251829080519060200190611d56929190611e93565b5091602001919060010190611d38565b5b509050611d749190611f19565b5090565b6040518060800160405280600063ffffffff168152602001600060ff168152602001600060ff16815260200160006bffffffffffffffffffffffff191681525090565b604051806080016040528060008019168152602001600060ff168152602001600060ff168152602001600060ff1681525090565b6040518060a0016040528060008019168152602001600073ffffffffffffffffffffffffffffffffffffffff16815260200160007bffffffffffffffffffffffffffffffffffffffffffffffffffffffff1916815260200160008152602001611e56611e5c565b81525090565b604051806040016040528060608152602001600081525090565b5b80821115611e8f576000816000905550600101611e77565b5090565b828054611e9f9061318f565b90600052602060002090601f016020900481019282611ec15760008555611f08565b82601f10611eda57805160ff1916838001178555611f08565b82800160010185558215611f08579182015b82811115611f07578251825591602001919060010190611eec565b5b509050611f159190611f3d565b5090565b5b80821115611f395760008181611f309190611f5a565b50600101611f1a565b5090565b5b80821115611f56576000816000905550600101611f3e565b5090565b508054611f669061318f565b6000825580601f10611f785750611f97565b601f016020900490600052602060002090810190611f969190611f3d565b5b50565b6000611fad611fa884612cdd565b612cb8565b90508083825260208201905082856020860282011115611fd057611fcf613399565b5b60005b858110156120005781611fe6888261225e565b845260208401935060208301925050600181019050611fd3565b5050509392505050565b600061201d61201884612d09565b612cb8565b905080838252602082019050828560208602820111156120405761203f613399565b5b60005b8581101561208e57813567ffffffffffffffff8111156120665761206561338f565b5b8086016120738982612288565b85526020850194506020840193505050600181019050612043565b5050509392505050565b60006120ab6120a684612d35565b612cb8565b905080838252602082019050828560208602820111156120ce576120cd613399565b5b60005b8581101561211c57813567ffffffffffffffff8111156120f4576120f361338f565b5b80860161210189826122b6565b855260208501945060208401935050506001810190506120d1565b5050509392505050565b600061213961213484612d61565b612cb8565b9050828152602081018484840111156121555761215461339e565b5b61216084828561314d565b509392505050565b600061217b61217684612d92565b612cb8565b9050828152602081018484840111156121975761219661339e565b5b6121a284828561314d565b509392505050565b6000813590506121b98161358c565b92915050565b600082601f8301126121d4576121d361338f565b5b81356121e4848260208601611f9a565b91505092915050565b600082601f8301126122025761220161338f565b5b813561221284826020860161200a565b91505092915050565b600082601f8301126122305761222f61338f565b5b8135612240848260208601612098565b91505092915050565b600081519050612258816135a3565b92915050565b60008135905061226d816135ba565b92915050565b600081519050612282816135ba565b92915050565b600082601f83011261229d5761229c61338f565b5b81356122ad848260208601612126565b91505092915050565b600082601f8301126122cb576122ca61338f565b5b81356122db848260208601612168565b91505092915050565b6000608082840312156122fa576122f9613394565b5b6123046080612cb8565b9050600061231484828501612273565b600083015250602061232884828501612386565b602083015250604061233c84828501612386565b604083015250606061235084828501612386565b60608301525092915050565b60008135905061236b816135d1565b92915050565b600081519050612380816135d1565b92915050565b600081519050612395816135e8565b92915050565b6000602082840312156123b1576123b06133a8565b5b60006123bf848285016121aa565b91505092915050565b6000602082840312156123de576123dd6133a8565b5b60006123ec84828501612249565b91505092915050565b6000806040838503121561240c5761240b6133a8565b5b600061241a8582860161225e565b925050602083013567ffffffffffffffff81111561243b5761243a6133a3565b5b612447858286016121bf565b9150509250929050565b60008060408385031215612468576124676133a8565b5b60006124768582860161225e565b925050602083013567ffffffffffffffff811115612497576124966133a3565b5b6124a3858286016121ed565b9150509250929050565b600080600080600080600060e0888a0312156124cc576124cb6133a8565b5b60006124da8a828b0161225e565b97505060206124eb8a828b0161235c565b965050604088013567ffffffffffffffff81111561250c5761250b6133a3565b5b6125188a828b016122b6565b95505060606125298a828b0161235c565b945050608061253a8a828b0161235c565b93505060a088013567ffffffffffffffff81111561255b5761255a6133a3565b5b6125678a828b0161221b565b92505060c088013567ffffffffffffffff811115612588576125876133a3565b5b6125948a828b0161221b565b91505092959891949750929550565b6000608082840312156125b9576125b86133a8565b5b60006125c7848285016122e4565b91505092915050565b6000602082840312156125e6576125e56133a8565b5b60006125f48482850161235c565b91505092915050565b600060208284031215612613576126126133a8565b5b600061262184828501612371565b91505092915050565b61263381613050565b82525050565b61264281613062565b82525050565b6126518161306e565b82525050565b6126608161306e565b82525050565b61266f8161309a565b82525050565b61267e8161309a565b82525050565b6126956126908261309a565b61324d565b82525050565b6126a4816130a4565b82525050565b60006126b582612dc3565b6126bf8185612dd9565b93506126cf81856020860161315c565b6126d8816133ad565b840191505092915050565b6126f46126ef82613117565b61323b565b82525050565b600061270582612dce565b61270f8185612dea565b935061271f81856020860161315c565b612728816133ad565b840191505092915050565b6000612740602383612dea565b915061274b826133d8565b604082019050919050565b6000612763602f83612dea565b915061276e82613427565b604082019050919050565b6000612786602383612dea565b915061279182613476565b604082019050919050565b60006127a9602383612dea565b91506127b4826134c5565b604082019050919050565b60006127cc601283612dea565b91506127d782613514565b602082019050919050565b60006127ef602883612dea565b91506127fa8261353d565b604082019050919050565b60808201600082015161281b6000850182612666565b50602082015161282e60208501826128f3565b50604082015161284160408501826128f3565b50606082015161285460608501826128f3565b50505050565b60808201600082015161287060008501826128d5565b50602082015161288360208501826128f3565b50604082015161289660408501826128f3565b5060608201516128a96060850182612648565b50505050565b6128b8816130f0565b82525050565b6128cf6128ca826130f0565b613269565b82525050565b6128de816130fa565b82525050565b6128ed816130fa565b82525050565b6128fc8161310a565b82525050565b61290b8161310a565b82525050565b600061291d8284612684565b60208201915081905092915050565b600061293882856126e3565b60148201915061294882846128be565b6020820191508190509392505050565b600060208201905061296d600083018461262a565b92915050565b6000604082019050612988600083018561262a565b61299560208301846128af565b9392505050565b6000610100820190506129b2600083018b61262a565b6129bf602083018a6128af565b6129cc6040830189612675565b6129d9606083018861262a565b6129e6608083018761269b565b6129f360a08301866128af565b612a0060c08301856128af565b81810360e0830152612a1281846126aa565b90509998505050505050505050565b6000606082019050612a36600083018661262a565b612a4360208301856128af565b8181036040830152612a5581846126aa565b9050949350505050565b6000602082019050612a746000830184612639565b92915050565b6000602082019050612a8f6000830184612675565b92915050565b6000608082019050612aaa6000830187612675565b612ab76020830186612902565b612ac46040830185612902565b612ad16060830184612902565b95945050505050565b60006020820190508181036000830152612af481846126aa565b905092915050565b60006020820190508181036000830152612b1681846126fa565b905092915050565b60006020820190508181036000830152612b3781612733565b9050919050565b60006020820190508181036000830152612b5781612756565b9050919050565b60006020820190508181036000830152612b7781612779565b9050919050565b60006020820190508181036000830152612b978161279c565b9050919050565b60006020820190508181036000830152612bb7816127bf565b9050919050565b60006020820190508181036000830152612bd7816127e2565b9050919050565b6000608082019050612bf36000830184612805565b92915050565b6000608082019050612c0e600083018461285a565b92915050565b6000602082019050612c2960008301846128af565b92915050565b6000604082019050612c4460008301856128af565b612c5160208301846128af565b9392505050565b6000602082019050612c6d60008301846128e4565b92915050565b6000608082019050612c8860008301876128e4565b612c956020830186612902565b612ca26040830185612902565b612caf6060830184612657565b95945050505050565b6000612cc2612cd3565b9050612cce82826131c1565b919050565b6000604051905090565b600067ffffffffffffffff821115612cf857612cf7613360565b5b602082029050602081019050919050565b600067ffffffffffffffff821115612d2457612d23613360565b5b602082029050602081019050919050565b600067ffffffffffffffff821115612d5057612d4f613360565b5b602082029050602081019050919050565b600067ffffffffffffffff821115612d7c57612d7b613360565b5b612d85826133ad565b9050602081019050919050565b600067ffffffffffffffff821115612dad57612dac613360565b5b612db6826133ad565b9050602081019050919050565b600081519050919050565b600081519050919050565b600082825260208201905092915050565b600082825260208201905092915050565b6000612e06826130f0565b9150612e11836130f0565b9250827fffffffffffffffffffffffffffffffffffffffffffffffffffffffffffffffff03821115612e4657612e456132a4565b5b828201905092915050565b6000808291508390505b6001851115612e9b57808604811115612e7757612e766132a4565b5b6001851615612e865780820291505b8081029050612e94856133cb565b9450612e5b565b94509492505050565b6000612eaf826130f0565b9150612eba836130f0565b9250612ee77fffffffffffffffffffffffffffffffffffffffffffffffffffffffffffffffff8484612eef565b905092915050565b600082612eff5760019050612fbb565b81612f0d5760009050612fbb565b8160018114612f235760028114612f2d57612f5c565b6001915050612fbb565b60ff841115612f3f57612f3e6132a4565b5b8360020a915084821115612f5657612f556132a4565b5b50612fbb565b5060208310610133831016604e8410600b8410161715612f915782820a905083811115612f8c57612f8b6132a4565b5b612fbb565b612f9e8484846001612e51565b92509050818404811115612fb557612fb46132a4565b5b81810290505b9392505050565b6000612fcd826130f0565b9150612fd8836130f0565b9250817fffffffffffffffffffffffffffffffffffffffffffffffffffffffffffffffff0483118215151615613011576130106132a4565b5b828202905092915050565b6000613027826130f0565b9150613032836130f0565b925082821015613045576130446132a4565b5b828203905092915050565b600061305b826130d0565b9050919050565b60008115159050919050565b60007fffffffffffffffffffffffffffffffffffffffff00000000000000000000000082169050919050565b6000819050919050565b60007fffffffff0000000000000000000000000000000000000000000000000000000082169050919050565b600073ffffffffffffffffffffffffffffffffffffffff82169050919050565b6000819050919050565b600063ffffffff82169050919050565b600060ff82169050919050565b600061312282613129565b9050919050565b60006131348261313b565b9050919050565b6000613146826130d0565b9050919050565b82818337600083830152505050565b60005b8381101561317a57808201518184015260208101905061315f565b83811115613189576000848401525b50505050565b600060028204905060018216806131a757607f821691505b602082108114156131bb576131ba613302565b5b50919050565b6131ca826133ad565b810181811067ffffffffffffffff821117156131e9576131e8613360565b5b80604052505050565b60006131fd826130f0565b91507fffffffffffffffffffffffffffffffffffffffffffffffffffffffffffffffff8214156132305761322f6132a4565b5b600182019050919050565b600061324682613257565b9050919050565b6000819050919050565b6000613262826133be565b9050919050565b6000819050919050565b600061327e826130f0565b9150613289836130f0565b925082613299576132986132d3565b5b828206905092915050565b7f4e487b7100000000000000000000000000000000000000000000000000000000600052601160045260246000fd5b7f4e487b7100000000000000000000000000000000000000000000000000000000600052601260045260246000fd5b7f4e487b7100000000000000000000000000000000000000000000000000000000600052602260045260246000fd5b7f4e487b7100000000000000000000000000000000000000000000000000000000600052603260045260246000fd5b7f4e487b7100000000000000000000000000000000000000000000000000000000600052604160045260246000fd5b600080fd5b600080fd5b600080fd5b600080fd5b600080fd5b600080fd5b6000601f19601f8301169050919050565b60008160601b9050919050565b60008160011c9050919050565b7f524420726573756c742068617320616c7265616479206265656e20666574636860008201527f65642e0000000000000000000000000000000000000000000000000000000000602082015250565b7f5761697420756e74696c20313068206166746572207468652067616d6520746f60008201527f20666574636820726573756c74732e0000000000000000000000000000000000602082015250565b7f534420726573756c742068617320616c7265616479206265656e20666574636860008201527f65642e0000000000000000000000000000000000000000000000000000000000602082015250565b7f756e61626c6520746f207472616e73666572416e6443616c6c20746f206f726160008201527f636c650000000000000000000000000000000000000000000000000000000000602082015250565b7f556e61626c6520746f207472616e736665720000000000000000000000000000600082015250565b7f536f75726365206d75737420626520746865206f7261636c65206f662074686560008201527f2072657175657374000000000000000000000000000000000000000000000000602082015250565b61359581613050565b81146135a057600080fd5b50565b6135ac81613062565b81146135b757600080fd5b50565b6135c38161309a565b81146135ce57600080fd5b50565b6135da816130f0565b81146135e557600080fd5b50565b6135f18161310a565b81146135fc57600080fd5b5056fea264697066735822122046309e2fb1a746cf926695bd05536122cdf6cd79ae87e941add93284d28430c164736f6c63430008070033",
  "linkReferences": {},
  "deployedLinkReferences": {}
}