{
  "_format": "hh-sol-artifact-1",
  "contractName": "SportsdataioLinkPoolConsumerOracle",
  "sourceName": "contracts/SportsDataIOConsumer.sol",
  "abi": [
    {
      "inputs": [
        {
          "internalType": "address",
          "name": "_link",
          "type": "address"
        },
        {
          "internalType": "address",
          "name": "_oracle",
          "type": "address"
        }
      ],
      "stateMutability": "nonpayable",
      "type": "constructor"
    },
    {
      "inputs": [
        {
          "internalType": "address",
          "name": "to",
          "type": "address"
        },
        {
          "internalType": "uint256",
          "name": "amount",
          "type": "uint256"
        }
      ],
      "name": "FailedTransferLINK",
      "type": "error"
    },
    {
      "anonymous": false,
      "inputs": [
        {
          "indexed": true,
          "internalType": "bytes32",
          "name": "id",
          "type": "bytes32"
        }
      ],
      "name": "ChainlinkCancelled",
      "type": "event"
    },
    {
      "anonymous": false,
      "inputs": [
        {
          "indexed": true,
          "internalType": "bytes32",
          "name": "id",
          "type": "bytes32"
        }
      ],
      "name": "ChainlinkFulfilled",
      "type": "event"
    },
    {
      "anonymous": false,
      "inputs": [
        {
          "indexed": true,
          "internalType": "bytes32",
          "name": "id",
          "type": "bytes32"
        }
      ],
      "name": "ChainlinkRequested",
      "type": "event"
    },
    {
      "inputs": [
        {
          "internalType": "bytes32",
          "name": "_requestId",
          "type": "bytes32"
        },
        {
          "internalType": "uint256",
          "name": "_payment",
          "type": "uint256"
        },
        {
          "internalType": "bytes4",
          "name": "_callbackFunctionId",
          "type": "bytes4"
        },
        {
          "internalType": "uint256",
          "name": "_expiration",
          "type": "uint256"
        }
      ],
      "name": "cancelRequest",
      "outputs": [],
      "stateMutability": "nonpayable",
      "type": "function"
    },
    {
      "inputs": [
        {
          "internalType": "bytes32",
          "name": "_requestId",
          "type": "bytes32"
        },
        {
          "internalType": "bytes32[]",
          "name": "_result",
          "type": "bytes32[]"
        }
      ],
      "name": "fulfillSchedule",
      "outputs": [],
      "stateMutability": "nonpayable",
      "type": "function"
    },
    {
      "inputs": [
        {
          "internalType": "bytes32",
          "name": "_requestId",
          "type": "bytes32"
        },
        {
          "internalType": "uint256",
          "name": "_idx",
          "type": "uint256"
        }
      ],
      "name": "getGameCreateMlb",
      "outputs": [
        {
          "components": [
            {
              "internalType": "uint32",
              "name": "gameId",
              "type": "uint32"
            },
            {
              "internalType": "uint40",
              "name": "startTime",
              "type": "uint40"
            },
            {
              "internalType": "string",
              "name": "homeTeam",
              "type": "string"
            },
            {
              "internalType": "string",
              "name": "awayTeam",
              "type": "string"
            }
          ],
          "internalType": "struct SportsdataioLinkPoolConsumerOracle.GameCreateMlb",
          "name": "",
          "type": "tuple"
        }
      ],
      "stateMutability": "view",
      "type": "function"
    },
    {
      "inputs": [
        {
          "internalType": "bytes32",
          "name": "_requestId",
          "type": "bytes32"
        },
        {
          "internalType": "uint256",
          "name": "_idx",
          "type": "uint256"
        }
      ],
      "name": "getGameResolveMlb",
      "outputs": [
        {
          "components": [
            {
              "internalType": "uint32",
              "name": "gameId",
              "type": "uint32"
            },
            {
              "internalType": "uint8",
              "name": "homeScore",
              "type": "uint8"
            },
            {
              "internalType": "uint8",
              "name": "awayScore",
              "type": "uint8"
            },
            {
              "internalType": "bytes20",
              "name": "status",
              "type": "bytes20"
            }
          ],
          "internalType": "struct SportsdataioLinkPoolConsumerOracle.GameResolveMlb",
          "name": "",
          "type": "tuple"
        }
      ],
      "stateMutability": "view",
      "type": "function"
    },
    {
      "inputs": [],
      "name": "getOracleAddress",
      "outputs": [
        {
          "internalType": "address",
          "name": "",
          "type": "address"
        }
      ],
      "stateMutability": "view",
      "type": "function"
    },
    {
      "inputs": [
        {
          "internalType": "bytes32",
          "name": "",
          "type": "bytes32"
        },
        {
          "internalType": "uint256",
          "name": "",
          "type": "uint256"
        }
      ],
      "name": "requestIdGames",
      "outputs": [
        {
          "internalType": "bytes32",
          "name": "",
          "type": "bytes32"
        }
      ],
      "stateMutability": "view",
      "type": "function"
    },
    {
      "inputs": [
        {
          "internalType": "bytes32",
          "name": "_specId",
          "type": "bytes32"
        },
        {
          "internalType": "uint256",
          "name": "_payment",
          "type": "uint256"
        },
        {
          "internalType": "uint256",
          "name": "_market",
          "type": "uint256"
        },
        {
          "internalType": "uint256",
          "name": "_leagueId",
          "type": "uint256"
        },
        {
          "internalType": "uint256",
          "name": "_date",
          "type": "uint256"
        }
      ],
      "name": "requestSchedule",
      "outputs": [],
      "stateMutability": "nonpayable",
      "type": "function"
    },
    {
      "inputs": [
        {
          "internalType": "bytes32",
          "name": "_specId",
          "type": "bytes32"
        },
        {
          "internalType": "uint256",
          "name": "_payment",
          "type": "uint256"
        },
        {
          "internalType": "uint256",
          "name": "_market",
          "type": "uint256"
        },
        {
          "internalType": "uint256",
          "name": "_leagueId",
          "type": "uint256"
        },
        {
          "internalType": "uint256",
          "name": "_date",
          "type": "uint256"
        },
        {
          "internalType": "uint256[]",
          "name": "_gameIds",
          "type": "uint256[]"
        }
      ],
      "name": "requestSchedule",
      "outputs": [],
      "stateMutability": "nonpayable",
      "type": "function"
    },
    {
      "inputs": [
        {
          "internalType": "address",
          "name": "_oracle",
          "type": "address"
        }
      ],
      "name": "setOracle",
      "outputs": [],
      "stateMutability": "nonpayable",
      "type": "function"
    },
    {
      "inputs": [
        {
          "internalType": "uint256",
          "name": "_amount",
          "type": "uint256"
        },
        {
          "internalType": "address payable",
          "name": "_payee",
          "type": "address"
        }
      ],
      "name": "withdrawLink",
      "outputs": [],
      "stateMutability": "nonpayable",
      "type": "function"
    }
  ],
  "bytecode": "0x608060405260016004553480156200001657600080fd5b506040516200276d3803806200276d83398181016040528101906200003c919062000105565b6200004d826200006660201b60201c565b6200005e81620000aa60201b60201c565b50506200019f565b80600260006101000a81548173ffffffffffffffffffffffffffffffffffffffff021916908373ffffffffffffffffffffffffffffffffffffffff16021790555050565b80600360006101000a81548173ffffffffffffffffffffffffffffffffffffffff021916908373ffffffffffffffffffffffffffffffffffffffff16021790555050565b600081519050620000ff8162000185565b92915050565b600080604083850312156200011f576200011e62000180565b5b60006200012f85828601620000ee565b92505060206200014285828601620000ee565b9150509250929050565b6000620001598262000160565b9050919050565b600073ffffffffffffffffffffffffffffffffffffffff82169050919050565b600080fd5b62000190816200014c565b81146200019c57600080fd5b50565b6125be80620001af6000396000f3fe608060405234801561001057600080fd5b506004361061009d5760003560e01c80637adbf973116100665780637adbf973146101425780639fd344e81461015e578063a29436081461018e578063b18b78dd146101be578063ec65d0f8146101dc5761009d565b8062aa2967146100a2578063397e20fc146100be57806341ea27ca146100da57806349687cca146100f65780636621409714610112575b600080fd5b6100bc60048036038101906100b7919061182a565b6101f8565b005b6100d860048036038101906100d39190611727565b6102ff565b005b6100f460048036038101906100ef9190611954565b610431565b005b610110600480360381019061010b91906118a5565b6104d9565b005b61012c60048036038101906101279190611783565b610663565b6040516101399190611dee565b60405180910390f35b61015c600480360381019061015791906116cd565b6106ab565b005b61017860048036038101906101739190611783565b6106b7565b6040516101859190611e10565b60405180910390f35b6101a860048036038101906101a39190611783565b6106ff565b6040516101b59190611d4e565b60405180910390f35b6101c6610730565b6040516101d39190611c1e565b60405180910390f35b6101f660048036038101906101f191906117c3565b61073f565b005b600061020c863063397e20fc60e01b610751565b90506102586040518060400160405280600681526020017f6d61726b6574000000000000000000000000000000000000000000000000000081525085836107829092919063ffffffff16565b6102a26040518060400160405280600881526020017f6c6561677565496400000000000000000000000000000000000000000000000081525084836107829092919063ffffffff16565b6102ec6040518060400160405280600481526020017f646174650000000000000000000000000000000000000000000000000000000081525083836107829092919063ffffffff16565b6102f681866107b5565b50505050505050565b816005600082815260200190815260200160002060009054906101000a900473ffffffffffffffffffffffffffffffffffffffff1673ffffffffffffffffffffffffffffffffffffffff163373ffffffffffffffffffffffffffffffffffffffff16146103a1576040517f08c379a000000000000000000000000000000000000000000000000000000000815260040161039890611dce565b60405180910390fd5b6005600082815260200190815260200160002060006101000a81549073ffffffffffffffffffffffffffffffffffffffff0219169055807f7cc135e0cebb02c3480ae5d74d377283180a2601f8f644edf7987b009316c63a60405160405180910390a28160066000858152602001908152602001600020908051906020019061042b9291906113f2565b50505050565b600061043b6107ec565b90506104d48173ffffffffffffffffffffffffffffffffffffffff1663a9059cbb84866040518363ffffffff1660e01b815260040161047b929190611c39565b602060405180830381600087803b15801561049557600080fd5b505af11580156104a9573d6000803e3d6000fd5b505050506040513d601f19601f820116820180604052508101906104cd91906116fa565b8385610816565b505050565b60006104ed883063397e20fc60e01b610751565b90506105396040518060400160405280600681526020017f6d61726b6574000000000000000000000000000000000000000000000000000081525087836107829092919063ffffffff16565b6105836040518060400160405280600881526020017f6c6561677565496400000000000000000000000000000000000000000000000081525086836107829092919063ffffffff16565b6105cd6040518060400160405280600481526020017f646174650000000000000000000000000000000000000000000000000000000081525085836107829092919063ffffffff16565b61064e816040518060400160405280600781526020017f67616d6549647300000000000000000000000000000000000000000000000000815250858580806020026020016040519081016040528093929190818152602001838360200280828437600081840152601f19601f8201169050808301925050505050505061085f565b61065881886107b5565b505050505050505050565b61066b61143f565b6106a3600660008581526020019081526020016000208381548110610693576106926123be565b5b90600052602060002001546108ed565b905092915050565b6106b481610980565b50565b6106bf611474565b6106f76006600085815260200190815260200160002083815481106106e7576106e66123be565b5b90600052602060002001546109c4565b905092915050565b6006602052816000526040600020818154811061071b57600080fd5b90600052602060002001600091509150505481565b600061073a610a2a565b905090565b61074b84848484610a54565b50505050565b6107596114b7565b6107616114b7565b61077885858584610b67909392919063ffffffff16565b9150509392505050565b610799828460800151610c1790919063ffffffff16565b6107b0818460800151610c3c90919063ffffffff16565b505050565b60006107e4600360009054906101000a900473ffffffffffffffffffffffffffffffffffffffff168484610c6c565b905092915050565b6000600260009054906101000a900473ffffffffffffffffffffffffffffffffffffffff16905090565b8261085a5781816040517f7ab2f977000000000000000000000000000000000000000000000000000000008152600401610851929190611c62565b60405180910390fd5b505050565b600083905061087b838260800151610c1790919063ffffffff16565b6108888160800151610d38565b60008251905060005b818110156108d5576108ca8482815181106108af576108ae6123be565b5b60200260200101518460800151610c3c90919063ffffffff16565b806001019050610891565b506108e38260800151610d46565b8194505050505050565b6108f561143f565b600060405180608001604052808460e01c63ffffffff168152602001602085901b60d81c64ffffffffff168152602001604885901b60405160200161093a9190611bd7565b6040516020818303038152906040528152602001609885901b6040516020016109639190611bd7565b604051602081830303815290604052815250905080915050919050565b80600360006101000a81548173ffffffffffffffffffffffffffffffffffffffff021916908373ffffffffffffffffffffffffffffffffffffffff16021790555050565b6109cc611474565b600060405180608001604052808460e01c63ffffffff168152602001602085901b60f81c60ff168152602001602885901b60f81c60ff168152602001603085901b6bffffffffffffffffffffffff1916815250905080915050919050565b6000600360009054906101000a900473ffffffffffffffffffffffffffffffffffffffff16905090565b60006005600086815260200190815260200160002060009054906101000a900473ffffffffffffffffffffffffffffffffffffffff1690506005600086815260200190815260200160002060006101000a81549073ffffffffffffffffffffffffffffffffffffffff0219169055847fe1fe3afa0f7f761ff0a8b89086790efd5140d2907ebd5b7ff6bfcb5e075fd4c560405160405180910390a28073ffffffffffffffffffffffffffffffffffffffff16636ee4d553868686866040518563ffffffff1660e01b8152600401610b2e9493929190611d69565b600060405180830381600087803b158015610b4857600080fd5b505af1158015610b5c573d6000803e3d6000fd5b505050505050505050565b610b6f6114b7565b610b7f8560800151610100610d54565b508385600001818152505082856020019073ffffffffffffffffffffffffffffffffffffffff16908173ffffffffffffffffffffffffffffffffffffffff16815250508185604001907bffffffffffffffffffffffffffffffffffffffffffffffffffffffff191690817bffffffffffffffffffffffffffffffffffffffffffffffffffffffff191681525050849050949350505050565b610c248260038351610dbe565b610c378183610f4390919063ffffffff16565b505050565b67ffffffffffffffff811115610c5b57610c568282610f65565b610c68565b610c6782600083610dbe565b5b5050565b6000806004549050600181610c819190611ee0565b6004819055506000634042994660e01b60008087600001513089604001518760018c6080015160000151604051602401610cc2989796959493929190611c8b565b604051602081830303815290604052907bffffffffffffffffffffffffffffffffffffffffffffffffffffffff19166020820180517bffffffffffffffffffffffffffffffffffffffffffffffffffffffff83818316178352505050509050610d2d86838684610fb1565b925050509392505050565b610d43816004611155565b50565b610d51816007611155565b50565b610d5c611524565b6000602083610d6b919061232f565b14610d9757602082610d7d919061232f565b6020610d899190612101565b82610d949190611ee0565b91505b81836020018181525050604051808452600081528281016020016040525082905092915050565b60178167ffffffffffffffff1611610df557610def8160058460ff16901b60ff16178461117790919063ffffffff16565b50610f3e565b60ff8167ffffffffffffffff1611610e4b57610e24601860058460ff16901b178461117790919063ffffffff16565b50610e458167ffffffffffffffff166001856111979092919063ffffffff16565b50610f3d565b61ffff8167ffffffffffffffff1611610ea257610e7b601960058460ff16901b178461117790919063ffffffff16565b50610e9c8167ffffffffffffffff166002856111979092919063ffffffff16565b50610f3c565b63ffffffff8167ffffffffffffffff1611610efb57610ed4601a60058460ff16901b178461117790919063ffffffff16565b50610ef58167ffffffffffffffff166004856111979092919063ffffffff16565b50610f3b565b610f18601b60058460ff16901b178461117790919063ffffffff16565b50610f398167ffffffffffffffff166008856111979092919063ffffffff16565b505b5b5b5b505050565b610f4b611524565b610f5d838460000151518485516111b9565b905092915050565b610f8360026005600660ff16901b178361117790919063ffffffff16565b50610fad8282604051602001610f999190611e2b565b6040516020818303038152906040526112a8565b5050565b60003084604051602001610fc6929190611bf2565b604051602081830303815290604052805190602001209050846005600083815260200190815260200160002060006101000a81548173ffffffffffffffffffffffffffffffffffffffff021916908373ffffffffffffffffffffffffffffffffffffffff160217905550807fb5e6e01e79f91267dc17b4e6314d5d4d03593d2ceee0fbb452b750bd70ea5af960405160405180910390a2600260009054906101000a900473ffffffffffffffffffffffffffffffffffffffff1673ffffffffffffffffffffffffffffffffffffffff16634000aea08685856040518463ffffffff1660e01b81526004016110bc93929190611d10565b602060405180830381600087803b1580156110d657600080fd5b505af11580156110ea573d6000803e3d6000fd5b505050506040513d601f19601f8201168201806040525081019061110e91906116fa565b61114d576040517f08c379a000000000000000000000000000000000000000000000000000000000815260040161114490611dae565b60405180910390fd5b949350505050565b611172601f60058360ff16901b178361117790919063ffffffff16565b505050565b61117f611524565b61118f83846000015151846112cd565b905092915050565b61119f611524565b6111b0848560000151518585611324565b90509392505050565b6111c1611524565b82518211156111cf57600080fd5b846020015182856111e09190611ee0565b111561121557611214856002611205886020015188876112009190611ee0565b6113b2565b61120f91906120a7565b6113ce565b5b6000808651805187602083010193508088870111156112345787860182525b60208701925050505b6020841061127b57805182526020826112569190611ee0565b91506020816112659190611ee0565b90506020846112749190612101565b935061123d565b60006001856020036101000a03905080198251168184511681811785525050508692505050949350505050565b6112b58260028351610dbe565b6112c88183610f4390919063ffffffff16565b505050565b6112d5611524565b836020015183106112fb576112fa84600286602001516112f591906120a7565b6113ce565b5b8351805160208583010184815381861415611317576001820183525b5050508390509392505050565b61132c611524565b8460200151848361133d9190611ee0565b11156113655761136485600286856113559190611ee0565b61135f91906120a7565b6113ce565b5b60006001836101006113779190611f89565b6113819190612101565b905085518386820101858319825116178152815185880111156113a45784870182525b505085915050949350505050565b6000818311156113c4578290506113c8565b8190505b92915050565b6000826000015190506113e18383610d54565b506113ec8382610f43565b50505050565b82805482825590600052602060002090810192821561142e579160200282015b8281111561142d578251825591602001919060010190611412565b5b50905061143b919061153e565b5090565b6040518060800160405280600063ffffffff168152602001600064ffffffffff16815260200160608152602001606081525090565b6040518060800160405280600063ffffffff168152602001600060ff168152602001600060ff16815260200160006bffffffffffffffffffffffff191681525090565b6040518060a0016040528060008019168152602001600073ffffffffffffffffffffffffffffffffffffffff16815260200160007bffffffffffffffffffffffffffffffffffffffffffffffffffffffff191681526020016000815260200161151e611524565b81525090565b604051806040016040528060608152602001600081525090565b5b8082111561155757600081600090555060010161153f565b5090565b600061156e61156984611e6b565b611e46565b9050808382526020820190508285602086028201111561159157611590612426565b5b60005b858110156115c157816115a7888261168e565b845260208401935060208301925050600181019050611594565b5050509392505050565b6000813590506115da816124fe565b92915050565b6000813590506115ef81612515565b92915050565b600082601f83011261160a57611609612421565b5b813561161a84826020860161155b565b91505092915050565b60008083601f84011261163957611638612421565b5b8235905067ffffffffffffffff8111156116565761165561241c565b5b60208301915083602082028301111561167257611671612426565b5b9250929050565b6000815190506116888161252c565b92915050565b60008135905061169d81612543565b92915050565b6000813590506116b28161255a565b92915050565b6000813590506116c781612571565b92915050565b6000602082840312156116e3576116e2612430565b5b60006116f1848285016115cb565b91505092915050565b6000602082840312156117105761170f612430565b5b600061171e84828501611679565b91505092915050565b6000806040838503121561173e5761173d612430565b5b600061174c8582860161168e565b925050602083013567ffffffffffffffff81111561176d5761176c61242b565b5b611779858286016115f5565b9150509250929050565b6000806040838503121561179a57611799612430565b5b60006117a88582860161168e565b92505060206117b9858286016116b8565b9150509250929050565b600080600080608085870312156117dd576117dc612430565b5b60006117eb8782880161168e565b94505060206117fc878288016116b8565b935050604061180d878288016116a3565b925050606061181e878288016116b8565b91505092959194509250565b600080600080600060a0868803121561184657611845612430565b5b60006118548882890161168e565b9550506020611865888289016116b8565b9450506040611876888289016116b8565b9350506060611887888289016116b8565b9250506080611898888289016116b8565b9150509295509295909350565b600080600080600080600060c0888a0312156118c4576118c3612430565b5b60006118d28a828b0161168e565b97505060206118e38a828b016116b8565b96505060406118f48a828b016116b8565b95505060606119058a828b016116b8565b94505060806119168a828b016116b8565b93505060a088013567ffffffffffffffff8111156119375761193661242b565b5b6119438a828b01611623565b925092505092959891949750929550565b6000806040838503121561196b5761196a612430565b5b6000611979858286016116b8565b925050602061198a858286016115e0565b9150509250929050565b61199d8161224b565b82525050565b6119ac81612135565b82525050565b6119c36119be82612165565b612309565b82525050565b6119d281612191565b82525050565b6119e1816121bd565b82525050565b6119f0816121c7565b82525050565b6000611a0182611e97565b611a0b8185611ead565b9350611a1b818560208601612293565b611a2481612435565b840191505092915050565b611a40611a3b8261225d565b6122f7565b82525050565b6000611a5182611ea2565b611a5b8185611ebe565b9350611a6b818560208601612293565b611a7481612435565b840191505092915050565b6000611a8c602383611ecf565b9150611a9782612460565b604082019050919050565b6000611aaf602883611ecf565b9150611aba826124af565b604082019050919050565b6000608083016000830151611add6000860182611baa565b506020830151611af06020860182611bb9565b5060408301518482036040860152611b088282611a46565b91505060608301518482036060860152611b228282611a46565b9150508091505092915050565b608082016000820151611b456000850182611baa565b506020820151611b586020850182611bc8565b506040820151611b6b6040850182611bc8565b506060820151611b7e60608501826119c9565b50505050565b611b8d81612213565b82525050565b611ba4611b9f82612213565b612325565b82525050565b611bb38161221d565b82525050565b611bc28161222d565b82525050565b611bd18161223e565b82525050565b6000611be382846119b2565b600a8201915081905092915050565b6000611bfe8285611a2f565b601482019150611c0e8284611b93565b6020820191508190509392505050565b6000602082019050611c3360008301846119a3565b92915050565b6000604082019050611c4e6000830185611994565b611c5b6020830184611b84565b9392505050565b6000604082019050611c7760008301856119a3565b611c846020830184611b84565b9392505050565b600061010082019050611ca1600083018b6119a3565b611cae602083018a611b84565b611cbb60408301896119d8565b611cc860608301886119a3565b611cd560808301876119e7565b611ce260a0830186611b84565b611cef60c0830185611b84565b81810360e0830152611d0181846119f6565b90509998505050505050505050565b6000606082019050611d2560008301866119a3565b611d326020830185611b84565b8181036040830152611d4481846119f6565b9050949350505050565b6000602082019050611d6360008301846119d8565b92915050565b6000608082019050611d7e60008301876119d8565b611d8b6020830186611b84565b611d9860408301856119e7565b611da56060830184611b84565b95945050505050565b60006020820190508181036000830152611dc781611a7f565b9050919050565b60006020820190508181036000830152611de781611aa2565b9050919050565b60006020820190508181036000830152611e088184611ac5565b905092915050565b6000608082019050611e256000830184611b2f565b92915050565b6000602082019050611e406000830184611b84565b92915050565b6000611e50611e61565b9050611e5c82826122c6565b919050565b6000604051905090565b600067ffffffffffffffff821115611e8657611e856123ed565b5b602082029050602081019050919050565b600081519050919050565b600081519050919050565b600082825260208201905092915050565b600082825260208201905092915050565b600082825260208201905092915050565b6000611eeb82612213565b9150611ef683612213565b9250827fffffffffffffffffffffffffffffffffffffffffffffffffffffffffffffffff03821115611f2b57611f2a612360565b5b828201905092915050565b6000808291508390505b6001851115611f8057808604811115611f5c57611f5b612360565b5b6001851615611f6b5780820291505b8081029050611f7985612453565b9450611f40565b94509492505050565b6000611f9482612213565b9150611f9f83612213565b9250611fcc7fffffffffffffffffffffffffffffffffffffffffffffffffffffffffffffffff8484611fd4565b905092915050565b600082611fe457600190506120a0565b81611ff257600090506120a0565b8160018114612008576002811461201257612041565b60019150506120a0565b60ff84111561202457612023612360565b5b8360020a91508482111561203b5761203a612360565b5b506120a0565b5060208310610133831016604e8410600b84101617156120765782820a90508381111561207157612070612360565b5b6120a0565b6120838484846001611f36565b9250905081840481111561209a57612099612360565b5b81810290505b9392505050565b60006120b282612213565b91506120bd83612213565b9250817fffffffffffffffffffffffffffffffffffffffffffffffffffffffffffffffff04831182151516156120f6576120f5612360565b5b828202905092915050565b600061210c82612213565b915061211783612213565b92508282101561212a57612129612360565b5b828203905092915050565b6000612140826121f3565b9050919050565b6000612152826121f3565b9050919050565b60008115159050919050565b60007fffffffffffffffffffff0000000000000000000000000000000000000000000082169050919050565b60007fffffffffffffffffffffffffffffffffffffffff00000000000000000000000082169050919050565b6000819050919050565b60007fffffffff0000000000000000000000000000000000000000000000000000000082169050919050565b600073ffffffffffffffffffffffffffffffffffffffff82169050919050565b6000819050919050565b600063ffffffff82169050919050565b600064ffffffffff82169050919050565b600060ff82169050919050565b60006122568261226f565b9050919050565b60006122688261226f565b9050919050565b600061227a82612281565b9050919050565b600061228c826121f3565b9050919050565b60005b838110156122b1578082015181840152602081019050612296565b838111156122c0576000848401525b50505050565b6122cf82612435565b810181811067ffffffffffffffff821117156122ee576122ed6123ed565b5b80604052505050565b600061230282612313565b9050919050565b6000819050919050565b600061231e82612446565b9050919050565b6000819050919050565b600061233a82612213565b915061234583612213565b9250826123555761235461238f565b5b828206905092915050565b7f4e487b7100000000000000000000000000000000000000000000000000000000600052601160045260246000fd5b7f4e487b7100000000000000000000000000000000000000000000000000000000600052601260045260246000fd5b7f4e487b7100000000000000000000000000000000000000000000000000000000600052603260045260246000fd5b7f4e487b7100000000000000000000000000000000000000000000000000000000600052604160045260246000fd5b600080fd5b600080fd5b600080fd5b600080fd5b600080fd5b6000601f19601f8301169050919050565b60008160601b9050919050565b60008160011c9050919050565b7f756e61626c6520746f207472616e73666572416e6443616c6c20746f206f726160008201527f636c650000000000000000000000000000000000000000000000000000000000602082015250565b7f536f75726365206d75737420626520746865206f7261636c65206f662074686560008201527f2072657175657374000000000000000000000000000000000000000000000000602082015250565b61250781612135565b811461251257600080fd5b50565b61251e81612147565b811461252957600080fd5b50565b61253581612159565b811461254057600080fd5b50565b61254c816121bd565b811461255757600080fd5b50565b612563816121c7565b811461256e57600080fd5b50565b61257a81612213565b811461258557600080fd5b5056fea2646970667358221220ba5de23428bf64fd5effed630b2c0180a2e2482ac4556acdc2209cb36ff86f5b64736f6c63430008070033",
  "linkReferences": {},
  "deployedLinkReferences": {}
}