{
  "_format": "hh-sol-artifact-1",
  "contractName": "SportsdataioLinkPoolConsumerOracle",
  "sourceName": "contracts/SportsDataIOConsumer.sol",
  "abi": [
    {
      "inputs": [
        {
          "internalType": "address",
          "name": "_link",
          "type": "address"
        },
        {
          "internalType": "address",
          "name": "_oracle",
          "type": "address"
        }
      ],
      "stateMutability": "nonpayable",
      "type": "constructor"
    },
    {
      "inputs": [
        {
          "internalType": "address",
          "name": "to",
          "type": "address"
        },
        {
          "internalType": "uint256",
          "name": "amount",
          "type": "uint256"
        }
      ],
      "name": "FailedTransferLINK",
      "type": "error"
    },
    {
      "anonymous": false,
      "inputs": [
        {
          "indexed": true,
          "internalType": "bytes32",
          "name": "id",
          "type": "bytes32"
        }
      ],
      "name": "ChainlinkCancelled",
      "type": "event"
    },
    {
      "anonymous": false,
      "inputs": [
        {
          "indexed": true,
          "internalType": "bytes32",
          "name": "id",
          "type": "bytes32"
        }
      ],
      "name": "ChainlinkFulfilled",
      "type": "event"
    },
    {
      "anonymous": false,
      "inputs": [
        {
          "indexed": true,
          "internalType": "bytes32",
          "name": "id",
          "type": "bytes32"
        }
      ],
      "name": "ChainlinkRequested",
      "type": "event"
    },
    {
      "inputs": [
        {
          "internalType": "bytes32",
          "name": "_requestId",
          "type": "bytes32"
        },
        {
          "internalType": "uint256",
          "name": "_payment",
          "type": "uint256"
        },
        {
          "internalType": "bytes4",
          "name": "_callbackFunctionId",
          "type": "bytes4"
        },
        {
          "internalType": "uint256",
          "name": "_expiration",
          "type": "uint256"
        }
      ],
      "name": "cancelRequest",
      "outputs": [],
      "stateMutability": "nonpayable",
      "type": "function"
    },
    {
      "inputs": [
        {
          "internalType": "bytes32",
          "name": "_requestId",
          "type": "bytes32"
        },
        {
          "internalType": "bytes32[]",
          "name": "_result",
          "type": "bytes32[]"
        }
      ],
      "name": "fulfillSchedule",
      "outputs": [],
      "stateMutability": "nonpayable",
      "type": "function"
    },
    {
      "inputs": [
        {
          "internalType": "bytes32",
          "name": "_requestId",
          "type": "bytes32"
        },
        {
          "internalType": "uint256",
          "name": "_idx",
          "type": "uint256"
        }
      ],
      "name": "getGameCreateMlb",
      "outputs": [
        {
          "components": [
            {
              "internalType": "uint32",
              "name": "gameId",
              "type": "uint32"
            },
            {
              "internalType": "uint40",
              "name": "startTime",
              "type": "uint40"
            },
            {
              "internalType": "string",
              "name": "homeTeam",
              "type": "string"
            },
            {
              "internalType": "string",
              "name": "awayTeam",
              "type": "string"
            }
          ],
          "internalType": "struct SportsdataioLinkPoolConsumerOracle.GameCreateMlb",
          "name": "",
          "type": "tuple"
        }
      ],
      "stateMutability": "view",
      "type": "function"
    },
    {
      "inputs": [
        {
          "internalType": "bytes32",
          "name": "_requestId",
          "type": "bytes32"
        },
        {
          "internalType": "uint256",
          "name": "_idx",
          "type": "uint256"
        }
      ],
      "name": "getGameResolveMlb",
      "outputs": [
        {
          "components": [
            {
              "internalType": "uint32",
              "name": "gameId",
              "type": "uint32"
            },
            {
              "internalType": "uint8",
              "name": "homeScore",
              "type": "uint8"
            },
            {
              "internalType": "uint8",
              "name": "awayScore",
              "type": "uint8"
            },
            {
              "internalType": "bytes20",
              "name": "status",
              "type": "bytes20"
            }
          ],
          "internalType": "struct SportsdataioLinkPoolConsumerOracle.GameResolveMlb",
          "name": "",
          "type": "tuple"
        }
      ],
      "stateMutability": "view",
      "type": "function"
    },
    {
      "inputs": [],
      "name": "getOracleAddress",
      "outputs": [
        {
          "internalType": "address",
          "name": "",
          "type": "address"
        }
      ],
      "stateMutability": "view",
      "type": "function"
    },
    {
      "inputs": [
        {
          "internalType": "bytes32",
          "name": "",
          "type": "bytes32"
        },
        {
          "internalType": "uint256",
          "name": "",
          "type": "uint256"
        }
      ],
      "name": "requestIdGames",
      "outputs": [
        {
          "internalType": "bytes32",
          "name": "",
          "type": "bytes32"
        }
      ],
      "stateMutability": "view",
      "type": "function"
    },
    {
      "inputs": [
        {
          "internalType": "bytes32",
          "name": "_specId",
          "type": "bytes32"
        },
        {
          "internalType": "uint256",
          "name": "_payment",
          "type": "uint256"
        },
        {
          "internalType": "uint256",
          "name": "_market",
          "type": "uint256"
        },
        {
          "internalType": "uint256",
          "name": "_leagueId",
          "type": "uint256"
        },
        {
          "internalType": "uint256",
          "name": "_date",
          "type": "uint256"
        }
      ],
      "name": "requestSchedule",
      "outputs": [],
      "stateMutability": "nonpayable",
      "type": "function"
    },
    {
      "inputs": [
        {
          "internalType": "bytes32",
          "name": "_specId",
          "type": "bytes32"
        },
        {
          "internalType": "uint256",
          "name": "_payment",
          "type": "uint256"
        },
        {
          "internalType": "uint256",
          "name": "_market",
          "type": "uint256"
        },
        {
          "internalType": "uint256",
          "name": "_leagueId",
          "type": "uint256"
        },
        {
          "internalType": "uint256",
          "name": "_date",
          "type": "uint256"
        },
        {
          "internalType": "uint256[]",
          "name": "_gameIds",
          "type": "uint256[]"
        }
      ],
      "name": "requestSchedule",
      "outputs": [],
      "stateMutability": "nonpayable",
      "type": "function"
    },
    {
      "inputs": [
        {
          "internalType": "address",
          "name": "_oracle",
          "type": "address"
        }
      ],
      "name": "setOracle",
      "outputs": [],
      "stateMutability": "nonpayable",
      "type": "function"
    },
    {
      "inputs": [
        {
          "internalType": "uint256",
          "name": "_amount",
          "type": "uint256"
        },
        {
          "internalType": "address payable",
          "name": "_payee",
          "type": "address"
        }
      ],
      "name": "withdrawLink",
      "outputs": [],
      "stateMutability": "nonpayable",
      "type": "function"
    }
  ],
  "bytecode": "0x608060405260016004553480156200001657600080fd5b50604051620027803803806200278083398181016040528101906200003c919062000158565b6200004d826200006660201b60201c565b6200005e81620000aa60201b60201c565b50506200019f565b80600260006101000a81548173ffffffffffffffffffffffffffffffffffffffff021916908373ffffffffffffffffffffffffffffffffffffffff16021790555050565b80600360006101000a81548173ffffffffffffffffffffffffffffffffffffffff021916908373ffffffffffffffffffffffffffffffffffffffff16021790555050565b600080fd5b600073ffffffffffffffffffffffffffffffffffffffff82169050919050565b60006200012082620000f3565b9050919050565b620001328162000113565b81146200013e57600080fd5b50565b600081519050620001528162000127565b92915050565b60008060408385031215620001725762000171620000ee565b5b6000620001828582860162000141565b9250506020620001958582860162000141565b9150509250929050565b6125d180620001af6000396000f3fe608060405234801561001057600080fd5b506004361061009d5760003560e01c80637adbf973116100665780637adbf973146101425780639fd344e81461015e578063a29436081461018e578063b18b78dd146101be578063ec65d0f8146101dc5761009d565b8062aa2967146100a2578063397e20fc146100be57806341ea27ca146100da57806349687cca146100f65780636621409714610112575b600080fd5b6100bc60048036038101906100b791906115db565b6101f8565b005b6100d860048036038101906100d391906117af565b6102ff565b005b6100f460048036038101906100ef9190611869565b610431565b005b610110600480360381019061010b9190611904565b6104d9565b005b61012c600480360381019061012791906119b3565b610663565b6040516101399190611b24565b60405180910390f35b61015c60048036038101906101579190611b84565b6106ab565b005b610178600480360381019061017391906119b3565b6106b7565b6040516101859190611c5d565b60405180910390f35b6101a860048036038101906101a391906119b3565b6106ff565b6040516101b59190611c87565b60405180910390f35b6101c6610730565b6040516101d39190611cb1565b60405180910390f35b6101f660048036038101906101f19190611d24565b61073f565b005b600061020c863063397e20fc60e01b610751565b90506102586040518060400160405280600681526020017f6d61726b6574000000000000000000000000000000000000000000000000000081525085836107829092919063ffffffff16565b6102a26040518060400160405280600881526020017f6c6561677565496400000000000000000000000000000000000000000000000081525084836107829092919063ffffffff16565b6102ec6040518060400160405280600481526020017f646174650000000000000000000000000000000000000000000000000000000081525083836107829092919063ffffffff16565b6102f681866107b5565b50505050505050565b816005600082815260200190815260200160002060009054906101000a900473ffffffffffffffffffffffffffffffffffffffff1673ffffffffffffffffffffffffffffffffffffffff163373ffffffffffffffffffffffffffffffffffffffff16146103a1576040517f08c379a000000000000000000000000000000000000000000000000000000000815260040161039890611e0e565b60405180910390fd5b6005600082815260200190815260200160002060006101000a81549073ffffffffffffffffffffffffffffffffffffffff0219169055807f7cc135e0cebb02c3480ae5d74d377283180a2601f8f644edf7987b009316c63a60405160405180910390a28160066000858152602001908152602001600020908051906020019061042b9291906113f2565b50505050565b600061043b6107ec565b90506104d48173ffffffffffffffffffffffffffffffffffffffff1663a9059cbb84866040518363ffffffff1660e01b815260040161047b929190611e9c565b602060405180830381600087803b15801561049557600080fd5b505af11580156104a9573d6000803e3d6000fd5b505050506040513d601f19601f820116820180604052508101906104cd9190611efd565b8385610816565b505050565b60006104ed883063397e20fc60e01b610751565b90506105396040518060400160405280600681526020017f6d61726b6574000000000000000000000000000000000000000000000000000081525087836107829092919063ffffffff16565b6105836040518060400160405280600881526020017f6c6561677565496400000000000000000000000000000000000000000000000081525086836107829092919063ffffffff16565b6105cd6040518060400160405280600481526020017f646174650000000000000000000000000000000000000000000000000000000081525085836107829092919063ffffffff16565b61064e816040518060400160405280600781526020017f67616d6549647300000000000000000000000000000000000000000000000000815250858580806020026020016040519081016040528093929190818152602001838360200280828437600081840152601f19601f8201169050808301925050505050505061085f565b61065881886107b5565b505050505050505050565b61066b61143f565b6106a360066000858152602001908152602001600020838154811061069357610692611f2a565b5b90600052602060002001546108ed565b905092915050565b6106b481610980565b50565b6106bf611474565b6106f76006600085815260200190815260200160002083815481106106e7576106e6611f2a565b5b90600052602060002001546109c4565b905092915050565b6006602052816000526040600020818154811061071b57600080fd5b90600052602060002001600091509150505481565b600061073a610a2a565b905090565b61074b84848484610a54565b50505050565b6107596114b7565b6107616114b7565b61077885858584610b67909392919063ffffffff16565b9150509392505050565b610799828460800151610c1790919063ffffffff16565b6107b0818460800151610c3c90919063ffffffff16565b505050565b60006107e4600360009054906101000a900473ffffffffffffffffffffffffffffffffffffffff168484610c6c565b905092915050565b6000600260009054906101000a900473ffffffffffffffffffffffffffffffffffffffff16905090565b8261085a5781816040517f7ab2f977000000000000000000000000000000000000000000000000000000008152600401610851929190611f59565b60405180910390fd5b505050565b600083905061087b838260800151610c1790919063ffffffff16565b6108888160800151610d38565b60008251905060005b818110156108d5576108ca8482815181106108af576108ae611f2a565b5b60200260200101518460800151610c3c90919063ffffffff16565b806001019050610891565b506108e38260800151610d46565b8194505050505050565b6108f561143f565b600060405180608001604052808460e01c63ffffffff168152602001602085901b60d81c64ffffffffff168152602001604885901b60405160200161093a9190611fcf565b6040516020818303038152906040528152602001609885901b6040516020016109639190611fcf565b604051602081830303815290604052815250905080915050919050565b80600360006101000a81548173ffffffffffffffffffffffffffffffffffffffff021916908373ffffffffffffffffffffffffffffffffffffffff16021790555050565b6109cc611474565b600060405180608001604052808460e01c63ffffffff168152602001602085901b60f81c60ff168152602001602885901b60f81c60ff168152602001603085901b6bffffffffffffffffffffffff1916815250905080915050919050565b6000600360009054906101000a900473ffffffffffffffffffffffffffffffffffffffff16905090565b60006005600086815260200190815260200160002060009054906101000a900473ffffffffffffffffffffffffffffffffffffffff1690506005600086815260200190815260200160002060006101000a81549073ffffffffffffffffffffffffffffffffffffffff0219169055847fe1fe3afa0f7f761ff0a8b89086790efd5140d2907ebd5b7ff6bfcb5e075fd4c560405160405180910390a28073ffffffffffffffffffffffffffffffffffffffff16636ee4d553868686866040518563ffffffff1660e01b8152600401610b2e9493929190611ff9565b600060405180830381600087803b158015610b4857600080fd5b505af1158015610b5c573d6000803e3d6000fd5b505050505050505050565b610b6f6114b7565b610b7f8560800151610100610d54565b508385600001818152505082856020019073ffffffffffffffffffffffffffffffffffffffff16908173ffffffffffffffffffffffffffffffffffffffff16815250508185604001907bffffffffffffffffffffffffffffffffffffffffffffffffffffffff191690817bffffffffffffffffffffffffffffffffffffffffffffffffffffffff191681525050849050949350505050565b610c248260038351610dbe565b610c378183610f4390919063ffffffff16565b505050565b67ffffffffffffffff811115610c5b57610c568282610f65565b610c68565b610c6782600083610dbe565b5b5050565b6000806004549050600181610c81919061206d565b6004819055506000634042994660e01b60008087600001513089604001518760018c6080015160000151604051602401610cc2989796959493929190612118565b604051602081830303815290604052907bffffffffffffffffffffffffffffffffffffffffffffffffffffffff19166020820180517bffffffffffffffffffffffffffffffffffffffffffffffffffffffff83818316178352505050509050610d2d86838684610fb1565b925050509392505050565b610d43816004611155565b50565b610d51816007611155565b50565b610d5c611524565b6000602083610d6b91906121cc565b14610d9757602082610d7d91906121cc565b6020610d8991906121fd565b82610d94919061206d565b91505b81836020018181525050604051808452600081528281016020016040525082905092915050565b60178167ffffffffffffffff1611610df557610def8160058460ff16901b60ff16178461117790919063ffffffff16565b50610f3e565b60ff8167ffffffffffffffff1611610e4b57610e24601860058460ff16901b178461117790919063ffffffff16565b50610e458167ffffffffffffffff166001856111979092919063ffffffff16565b50610f3d565b61ffff8167ffffffffffffffff1611610ea257610e7b601960058460ff16901b178461117790919063ffffffff16565b50610e9c8167ffffffffffffffff166002856111979092919063ffffffff16565b50610f3c565b63ffffffff8167ffffffffffffffff1611610efb57610ed4601a60058460ff16901b178461117790919063ffffffff16565b50610ef58167ffffffffffffffff166004856111979092919063ffffffff16565b50610f3b565b610f18601b60058460ff16901b178461117790919063ffffffff16565b50610f398167ffffffffffffffff166008856111979092919063ffffffff16565b505b5b5b5b505050565b610f4b611524565b610f5d838460000151518485516111b9565b905092915050565b610f8360026005600660ff16901b178361117790919063ffffffff16565b50610fad8282604051602001610f999190612231565b6040516020818303038152906040526112a8565b5050565b60003084604051602001610fc69291906122c7565b604051602081830303815290604052805190602001209050846005600083815260200190815260200160002060006101000a81548173ffffffffffffffffffffffffffffffffffffffff021916908373ffffffffffffffffffffffffffffffffffffffff160217905550807fb5e6e01e79f91267dc17b4e6314d5d4d03593d2ceee0fbb452b750bd70ea5af960405160405180910390a2600260009054906101000a900473ffffffffffffffffffffffffffffffffffffffff1673ffffffffffffffffffffffffffffffffffffffff16634000aea08685856040518463ffffffff1660e01b81526004016110bc939291906122f3565b602060405180830381600087803b1580156110d657600080fd5b505af11580156110ea573d6000803e3d6000fd5b505050506040513d601f19601f8201168201806040525081019061110e9190611efd565b61114d576040517f08c379a0000000000000000000000000000000000000000000000000000000008152600401611144906123a3565b60405180910390fd5b949350505050565b611172601f60058360ff16901b178361117790919063ffffffff16565b505050565b61117f611524565b61118f83846000015151846112cd565b905092915050565b61119f611524565b6111b0848560000151518585611324565b90509392505050565b6111c1611524565b82518211156111cf57600080fd5b846020015182856111e0919061206d565b11156112155761121485600261120588602001518887611200919061206d565b6113b2565b61120f91906123c3565b6113ce565b5b6000808651805187602083010193508088870111156112345787860182525b60208701925050505b6020841061127b5780518252602082611256919061206d565b9150602081611265919061206d565b905060208461127491906121fd565b935061123d565b60006001856020036101000a03905080198251168184511681811785525050508692505050949350505050565b6112b58260028351610dbe565b6112c88183610f4390919063ffffffff16565b505050565b6112d5611524565b836020015183106112fb576112fa84600286602001516112f591906123c3565b6113ce565b5b8351805160208583010184815381861415611317576001820183525b5050508390509392505050565b61132c611524565b8460200151848361133d919061206d565b1115611365576113648560028685611355919061206d565b61135f91906123c3565b6113ce565b5b60006001836101006113779190612550565b61138191906121fd565b905085518386820101858319825116178152815185880111156113a45784870182525b505085915050949350505050565b6000818311156113c4578290506113c8565b8190505b92915050565b6000826000015190506113e18383610d54565b506113ec8382610f43565b50505050565b82805482825590600052602060002090810192821561142e579160200282015b8281111561142d578251825591602001919060010190611412565b5b50905061143b919061153e565b5090565b6040518060800160405280600063ffffffff168152602001600064ffffffffff16815260200160608152602001606081525090565b6040518060800160405280600063ffffffff168152602001600060ff168152602001600060ff16815260200160006bffffffffffffffffffffffff191681525090565b6040518060a0016040528060008019168152602001600073ffffffffffffffffffffffffffffffffffffffff16815260200160007bffffffffffffffffffffffffffffffffffffffffffffffffffffffff191681526020016000815260200161151e611524565b81525090565b604051806040016040528060608152602001600081525090565b5b8082111561155757600081600090555060010161153f565b5090565b6000604051905090565b600080fd5b600080fd5b6000819050919050565b6115828161156f565b811461158d57600080fd5b50565b60008135905061159f81611579565b92915050565b6000819050919050565b6115b8816115a5565b81146115c357600080fd5b50565b6000813590506115d5816115af565b92915050565b600080600080600060a086880312156115f7576115f6611565565b5b600061160588828901611590565b9550506020611616888289016115c6565b9450506040611627888289016115c6565b9350506060611638888289016115c6565b9250506080611649888289016115c6565b9150509295509295909350565b600080fd5b6000601f19601f8301169050919050565b7f4e487b7100000000000000000000000000000000000000000000000000000000600052604160045260246000fd5b6116a48261165b565b810181811067ffffffffffffffff821117156116c3576116c261166c565b5b80604052505050565b60006116d661155b565b90506116e2828261169b565b919050565b600067ffffffffffffffff8211156117025761170161166c565b5b602082029050602081019050919050565b600080fd5b600061172b611726846116e7565b6116cc565b9050808382526020820190506020840283018581111561174e5761174d611713565b5b835b8181101561177757806117638882611590565b845260208401935050602081019050611750565b5050509392505050565b600082601f83011261179657611795611656565b5b81356117a6848260208601611718565b91505092915050565b600080604083850312156117c6576117c5611565565b5b60006117d485828601611590565b925050602083013567ffffffffffffffff8111156117f5576117f461156a565b5b61180185828601611781565b9150509250929050565b600073ffffffffffffffffffffffffffffffffffffffff82169050919050565b60006118368261180b565b9050919050565b6118468161182b565b811461185157600080fd5b50565b6000813590506118638161183d565b92915050565b600080604083850312156118805761187f611565565b5b600061188e858286016115c6565b925050602061189f85828601611854565b9150509250929050565b600080fd5b60008083601f8401126118c4576118c3611656565b5b8235905067ffffffffffffffff8111156118e1576118e06118a9565b5b6020830191508360208202830111156118fd576118fc611713565b5b9250929050565b600080600080600080600060c0888a03121561192357611922611565565b5b60006119318a828b01611590565b97505060206119428a828b016115c6565b96505060406119538a828b016115c6565b95505060606119648a828b016115c6565b94505060806119758a828b016115c6565b93505060a088013567ffffffffffffffff8111156119965761199561156a565b5b6119a28a828b016118ae565b925092505092959891949750929550565b600080604083850312156119ca576119c9611565565b5b60006119d885828601611590565b92505060206119e9858286016115c6565b9150509250929050565b600063ffffffff82169050919050565b611a0c816119f3565b82525050565b600064ffffffffff82169050919050565b611a2c81611a12565b82525050565b600081519050919050565b600082825260208201905092915050565b60005b83811015611a6c578082015181840152602081019050611a51565b83811115611a7b576000848401525b50505050565b6000611a8c82611a32565b611a968185611a3d565b9350611aa6818560208601611a4e565b611aaf8161165b565b840191505092915050565b6000608083016000830151611ad26000860182611a03565b506020830151611ae56020860182611a23565b5060408301518482036040860152611afd8282611a81565b91505060608301518482036060860152611b178282611a81565b9150508091505092915050565b60006020820190508181036000830152611b3e8184611aba565b905092915050565b6000611b518261180b565b9050919050565b611b6181611b46565b8114611b6c57600080fd5b50565b600081359050611b7e81611b58565b92915050565b600060208284031215611b9a57611b99611565565b5b6000611ba884828501611b6f565b91505092915050565b600060ff82169050919050565b611bc781611bb1565b82525050565b60007fffffffffffffffffffffffffffffffffffffffff00000000000000000000000082169050919050565b611c0281611bcd565b82525050565b608082016000820151611c1e6000850182611a03565b506020820151611c316020850182611bbe565b506040820151611c446040850182611bbe565b506060820151611c576060850182611bf9565b50505050565b6000608082019050611c726000830184611c08565b92915050565b611c818161156f565b82525050565b6000602082019050611c9c6000830184611c78565b92915050565b611cab81611b46565b82525050565b6000602082019050611cc66000830184611ca2565b92915050565b60007fffffffff0000000000000000000000000000000000000000000000000000000082169050919050565b611d0181611ccc565b8114611d0c57600080fd5b50565b600081359050611d1e81611cf8565b92915050565b60008060008060808587031215611d3e57611d3d611565565b5b6000611d4c87828801611590565b9450506020611d5d878288016115c6565b9350506040611d6e87828801611d0f565b9250506060611d7f878288016115c6565b91505092959194509250565b600082825260208201905092915050565b7f536f75726365206d75737420626520746865206f7261636c65206f662074686560008201527f2072657175657374000000000000000000000000000000000000000000000000602082015250565b6000611df8602883611d8b565b9150611e0382611d9c565b604082019050919050565b60006020820190508181036000830152611e2781611deb565b9050919050565b6000819050919050565b6000611e53611e4e611e498461180b565b611e2e565b61180b565b9050919050565b6000611e6582611e38565b9050919050565b6000611e7782611e5a565b9050919050565b611e8781611e6c565b82525050565b611e96816115a5565b82525050565b6000604082019050611eb16000830185611e7e565b611ebe6020830184611e8d565b9392505050565b60008115159050919050565b611eda81611ec5565b8114611ee557600080fd5b50565b600081519050611ef781611ed1565b92915050565b600060208284031215611f1357611f12611565565b5b6000611f2184828501611ee8565b91505092915050565b7f4e487b7100000000000000000000000000000000000000000000000000000000600052603260045260246000fd5b6000604082019050611f6e6000830185611ca2565b611f7b6020830184611e8d565b9392505050565b60007fffffffffffffffffffff0000000000000000000000000000000000000000000082169050919050565b6000819050919050565b611fc9611fc482611f82565b611fae565b82525050565b6000611fdb8284611fb8565b600a8201915081905092915050565b611ff381611ccc565b82525050565b600060808201905061200e6000830187611c78565b61201b6020830186611e8d565b6120286040830185611fea565b6120356060830184611e8d565b95945050505050565b7f4e487b7100000000000000000000000000000000000000000000000000000000600052601160045260246000fd5b6000612078826115a5565b9150612083836115a5565b9250827fffffffffffffffffffffffffffffffffffffffffffffffffffffffffffffffff038211156120b8576120b761203e565b5b828201905092915050565b600081519050919050565b600082825260208201905092915050565b60006120ea826120c3565b6120f481856120ce565b9350612104818560208601611a4e565b61210d8161165b565b840191505092915050565b60006101008201905061212e600083018b611ca2565b61213b602083018a611e8d565b6121486040830189611c78565b6121556060830188611ca2565b6121626080830187611fea565b61216f60a0830186611e8d565b61217c60c0830185611e8d565b81810360e083015261218e81846120df565b90509998505050505050505050565b7f4e487b7100000000000000000000000000000000000000000000000000000000600052601260045260246000fd5b60006121d7826115a5565b91506121e2836115a5565b9250826121f2576121f161219d565b5b828206905092915050565b6000612208826115a5565b9150612213836115a5565b9250828210156122265761222561203e565b5b828203905092915050565b60006020820190506122466000830184611e8d565b92915050565b600061225782611e5a565b9050919050565b60008160601b9050919050565b60006122768261225e565b9050919050565b60006122888261226b565b9050919050565b6122a061229b8261224c565b61227d565b82525050565b6000819050919050565b6122c16122bc826115a5565b6122a6565b82525050565b60006122d3828561228f565b6014820191506122e382846122b0565b6020820191508190509392505050565b60006060820190506123086000830186611ca2565b6123156020830185611e8d565b818103604083015261232781846120df565b9050949350505050565b7f756e61626c6520746f207472616e73666572416e6443616c6c20746f206f726160008201527f636c650000000000000000000000000000000000000000000000000000000000602082015250565b600061238d602383611d8b565b915061239882612331565b604082019050919050565b600060208201905081810360008301526123bc81612380565b9050919050565b60006123ce826115a5565b91506123d9836115a5565b9250817fffffffffffffffffffffffffffffffffffffffffffffffffffffffffffffffff04831182151516156124125761241161203e565b5b828202905092915050565b60008160011c9050919050565b6000808291508390505b6001851115612474578086048111156124505761244f61203e565b5b600185161561245f5780820291505b808102905061246d8561241d565b9450612434565b94509492505050565b60008261248d5760019050612549565b8161249b5760009050612549565b81600181146124b157600281146124bb576124ea565b6001915050612549565b60ff8411156124cd576124cc61203e565b5b8360020a9150848211156124e4576124e361203e565b5b50612549565b5060208310610133831016604e8410600b841016171561251f5782820a90508381111561251a5761251961203e565b5b612549565b61252c848484600161242a565b925090508184048111156125435761254261203e565b5b81810290505b9392505050565b600061255b826115a5565b9150612566836115a5565b92506125937fffffffffffffffffffffffffffffffffffffffffffffffffffffffffffffffff848461247d565b90509291505056fea26469706673582212204cd6b50578cb39ce1e7ad0d9f879bfe0c2652b5fb1c25441e9693789696a966c64736f6c63430008090033",
  "linkReferences": {},
  "deployedLinkReferences": {}
}