{
  "_format": "hh-sol-artifact-1",
  "contractName": "EtherPredictionFactory",
  "sourceName": "contracts/EtherPrediction.sol",
  "abi": [
    {
      "anonymous": false,
      "inputs": [
        {
          "indexed": false,
          "internalType": "address",
          "name": "prediction",
          "type": "address"
        }
      ],
      "name": "NewPrediction",
      "type": "event"
    },
    {
      "inputs": [
        {
          "internalType": "uint256",
          "name": "",
          "type": "uint256"
        }
      ],
      "name": "contracts",
      "outputs": [
        {
          "internalType": "address",
          "name": "",
          "type": "address"
        }
      ],
      "stateMutability": "view",
      "type": "function"
    },
    {
      "inputs": [
        {
          "internalType": "address",
          "name": "aggregator",
          "type": "address"
        },
        {
          "internalType": "int256",
          "name": "targetPrice",
          "type": "int256"
        },
        {
          "internalType": "uint256",
          "name": "targetTime",
          "type": "uint256"
        },
        {
          "internalType": "uint256",
          "name": "deadline",
          "type": "uint256"
        }
      ],
      "name": "newEtherPrediction",
      "outputs": [
        {
          "internalType": "address",
          "name": "",
          "type": "address"
        }
      ],
      "stateMutability": "nonpayable",
      "type": "function"
    }
  ],
  "bytecode": "0x608060405234801561001057600080fd5b50611850806100206000396000f3fe608060405234801561001057600080fd5b50600436106100365760003560e01c8063474da79a1461003b578063f980a2301461006b575b600080fd5b61005560048036038101906100509190610272565b61009b565b60405161006291906102cc565b60405180910390f35b6100856004803603810190610080919061020b565b6100da565b60405161009291906102cc565b60405180910390f35b600081815481106100ab57600080fd5b906000526020600020016000915054906101000a900473ffffffffffffffffffffffffffffffffffffffff1681565b600080858585856040516100ed906101bf565b6100fa94939291906102e7565b604051809103906000f080158015610116573d6000803e3d6000fd5b5090506000819080600181540180825580915050600190039060005260206000200160009091909190916101000a81548173ffffffffffffffffffffffffffffffffffffffff021916908373ffffffffffffffffffffffffffffffffffffffff1602179055507f2b067a0be8f3588b3696809730fddf8770dbc11ed78594347985d63ea693441d816040516101ab91906102cc565b60405180910390a180915050949350505050565b61145e806103bd83390190565b6000813590506101db81610377565b92915050565b6000813590506101f08161038e565b92915050565b600081359050610205816103a5565b92915050565b6000806000806080858703121561022557610224610372565b5b6000610233878288016101cc565b9450506020610244878288016101e1565b9350506040610255878288016101f6565b9250506060610266878288016101f6565b91505092959194509250565b60006020828403121561028857610287610372565b5b6000610296848285016101f6565b91505092915050565b6102a88161032c565b82525050565b6102b78161033e565b82525050565b6102c681610368565b82525050565b60006020820190506102e1600083018461029f565b92915050565b60006080820190506102fc600083018761029f565b61030960208301866102ae565b61031660408301856102bd565b61032360608301846102bd565b95945050505050565b600061033782610348565b9050919050565b6000819050919050565b600073ffffffffffffffffffffffffffffffffffffffff82169050919050565b6000819050919050565b600080fd5b6103808161032c565b811461038b57600080fd5b50565b6103978161033e565b81146103a257600080fd5b50565b6103ae81610368565b81146103b957600080fd5b5056fe60806040523480156200001157600080fd5b506040516200145e3803806200145e833981810160405281019062000037919062000120565b8181106200007c576040517f08c379a00000000000000000000000000000000000000000000000000000000081526004016200007390620001b9565b60405180910390fd5b836000806101000a81548173ffffffffffffffffffffffffffffffffffffffff021916908373ffffffffffffffffffffffffffffffffffffffff16021790555082600581905550816006819055508060078190555050505050620002d6565b600081519050620000ec8162000288565b92915050565b6000815190506200010381620002a2565b92915050565b6000815190506200011a81620002bc565b92915050565b600080600080608085870312156200013d576200013c62000234565b5b60006200014d87828801620000db565b94505060206200016087828801620000f2565b9350506040620001738782880162000109565b9250506060620001868782880162000109565b91505092959194509250565b6000620001a1602d83620001db565b9150620001ae8262000239565b604082019050919050565b60006020820190508181036000830152620001d48162000192565b9050919050565b600082825260208201905092915050565b6000620001f9826200020a565b9050919050565b6000819050919050565b600073ffffffffffffffffffffffffffffffffffffffff82169050919050565b6000819050919050565b600080fd5b7f54686520646561646c696e652068617320746f206265206265666f726520746860008201527f652074617267657454696d652e00000000000000000000000000000000000000602082015250565b6200029381620001ec565b81146200029f57600080fd5b50565b620002ad8162000200565b8114620002b957600080fd5b50565b620002c7816200022a565b8114620002d357600080fd5b50565b61117880620002e66000396000f3fe6080604052600436106100705760003560e01c80638e15f4731161004e5780638e15f473146100e5578063c96adb0114610110578063ecfe99021461014d578063fbbf93a01461016457610070565b806307e3dee514610075578063096a3778146100b257806370740ac9146100ce575b600080fd5b34801561008157600080fd5b5061009c60048036038101906100979190610928565b610197565b6040516100a99190610d48565b60405180910390f35b6100cc60048036038101906100c79190610955565b610308565b005b3480156100da57600080fd5b506100e3610487565b005b3480156100f157600080fd5b506100fa61061a565b6040516101079190610c32565b60405180910390f35b34801561011c57600080fd5b5061013760048036038101906101329190610928565b6106c8565b6040516101449190610d2d565b60405180910390f35b34801561015957600080fd5b50610162610735565b005b34801561017057600080fd5b506101796107fa565b60405161018e99989796959493929190610ba4565b60405180910390f35b6000801515600360009054906101000a900460ff16151514156101bd5760009050610303565b6000600554600454131561024d57600060016000015411156102435760016000015464e8d4a51000600860008673ffffffffffffffffffffffffffffffffffffffff1673ffffffffffffffffffffffffffffffffffffffff168152602001908152602001600020600001546102329190610e06565b61023c9190610dd5565b9050610248565b600090505b6102c9565b6000600180015411156102c357600180015464e8d4a51000600860008673ffffffffffffffffffffffffffffffffffffffff1673ffffffffffffffffffffffffffffffffffffffff168152602001908152602001600020600101546102b29190610e06565b6102bc9190610dd5565b90506102c8565b600090505b5b600064e8d4a5100060018001546001600001546102e69190610d7f565b836102f19190610e06565b6102fb9190610dd5565b905080925050505b919050565b6000341161034b576040517f08c379a000000000000000000000000000000000000000000000000000000000815260040161034290610cad565b60405180910390fd5b600754421061038f576040517f08c379a000000000000000000000000000000000000000000000000000000000815260040161038690610ced565b60405180910390fd5b801561040f5734600860003373ffffffffffffffffffffffffffffffffffffffff1673ffffffffffffffffffffffffffffffffffffffff16815260200190815260200160002060000160008282546103e79190610d7f565b9250508190555034600160000160008282546104039190610d7f565b92505081905550610484565b34600860003373ffffffffffffffffffffffffffffffffffffffff1673ffffffffffffffffffffffffffffffffffffffff16815260200190815260200160002060010160008282546104619190610d7f565b925050819055503460018001600082825461047c9190610d7f565b925050819055505b50565b60065442116104cb576040517f08c379a00000000000000000000000000000000000000000000000000000000081526004016104c290610c8d565b60405180910390fd5b600360009054906101000a900460ff1661051a576040517f08c379a000000000000000000000000000000000000000000000000000000000815260040161051190610c4d565b60405180910390fd5b600061052533610197565b90506000811161056a576040517f08c379a000000000000000000000000000000000000000000000000000000000815260040161056190610d0d565b60405180910390fd5b60003373ffffffffffffffffffffffffffffffffffffffff168260405161059090610b8f565b60006040518083038185875af1925050503d80600081146105cd576040519150601f19603f3d011682016040523d82523d6000602084013e6105d2565b606091505b5050905080610616576040517f08c379a000000000000000000000000000000000000000000000000000000000815260040161060d90610ccd565b60405180910390fd5b5050565b60008060008054906101000a900473ffffffffffffffffffffffffffffffffffffffff1673ffffffffffffffffffffffffffffffffffffffff1663feaf968c6040518163ffffffff1660e01b815260040160a06040518083038186803b15801561068357600080fd5b505afa158015610697573d6000803e3d6000fd5b505050506040513d601f19601f820116820180604052508101906106bb9190610982565b5050509150508091505090565b6106d06108a5565b600860008373ffffffffffffffffffffffffffffffffffffffff1673ffffffffffffffffffffffffffffffffffffffff168152602001908152602001600020604051806040016040529081600082015481526020016001820154815250509050919050565b6006544211610779576040517f08c379a000000000000000000000000000000000000000000000000000000000815260040161077090610c8d565b60405180910390fd5b60001515600360009054906101000a900460ff161515146107cf576040517f08c379a00000000000000000000000000000000000000000000000000000000081526004016107c690610c6d565b60405180910390fd5b6107d761061a565b6004819055506001600360006101000a81548160ff021916908315150217905550565b60006108046108a5565b6000806000806000806108156108a5565b60008054906101000a900473ffffffffffffffffffffffffffffffffffffffff166001600454600554600654600754600360009054906101000a900460ff1661085d33610197565b610866336106c8565b87604051806040016040529081600082015481526020016001820154815250509750985098509850985098509850985098509850909192939495969798565b604051806040016040528060008152602001600081525090565b6000813590506108ce816110cf565b92915050565b6000813590506108e3816110e6565b92915050565b6000815190506108f8816110fd565b92915050565b60008151905061090d81611114565b92915050565b6000815190506109228161112b565b92915050565b60006020828403121561093e5761093d610f5c565b5b600061094c848285016108bf565b91505092915050565b60006020828403121561096b5761096a610f5c565b5b6000610979848285016108d4565b91505092915050565b600080600080600060a0868803121561099e5761099d610f5c565b5b60006109ac88828901610913565b95505060206109bd888289016108e9565b94505060406109ce888289016108fe565b93505060606109df888289016108fe565b92505060806109f088828901610913565b9150509295509295909350565b610a0681610e72565b82525050565b610a1581610ec8565b82525050565b610a2481610e7e565b82525050565b6000610a37602083610d6e565b9150610a4282610f61565b602082019050919050565b6000610a5a602083610d6e565b9150610a6582610f8a565b602082019050919050565b6000610a7d602483610d6e565b9150610a8882610fb3565b604082019050919050565b6000610aa0600083610d63565b9150610aab82611002565b600082019050919050565b6000610ac3601f83610d6e565b9150610ace82611005565b602082019050919050565b6000610ae6601583610d6e565b9150610af18261102e565b602082019050919050565b6000610b09603383610d6e565b9150610b1482611057565b604082019050919050565b6000610b2c601a83610d6e565b9150610b37826110a6565b602082019050919050565b604082016000820151610b586000850182610b71565b506020820151610b6b6020850182610b71565b50505050565b610b7a81610ea8565b82525050565b610b8981610ea8565b82525050565b6000610b9a82610a93565b9150819050919050565b600061016082019050610bba600083018c610a0c565b610bc7602083018b610b42565b610bd4606083018a610a1b565b610be16080830189610a1b565b610bee60a0830188610b80565b610bfb60c0830187610b80565b610c0860e08301866109fd565b610c16610100830185610b80565b610c24610120830184610b42565b9a9950505050505050505050565b6000602082019050610c476000830184610a1b565b92915050565b60006020820190508181036000830152610c6681610a2a565b9050919050565b60006020820190508181036000830152610c8681610a4d565b9050919050565b60006020820190508181036000830152610ca681610a70565b9050919050565b60006020820190508181036000830152610cc681610ab6565b9050919050565b60006020820190508181036000830152610ce681610ad9565b9050919050565b60006020820190508181036000830152610d0681610afc565b9050919050565b60006020820190508181036000830152610d2681610b1f565b9050919050565b6000604082019050610d426000830184610b42565b92915050565b6000602082019050610d5d6000830184610b80565b92915050565b600081905092915050565b600082825260208201905092915050565b6000610d8a82610ea8565b9150610d9583610ea8565b9250827fffffffffffffffffffffffffffffffffffffffffffffffffffffffffffffffff03821115610dca57610dc9610efe565b5b828201905092915050565b6000610de082610ea8565b9150610deb83610ea8565b925082610dfb57610dfa610f2d565b5b828204905092915050565b6000610e1182610ea8565b9150610e1c83610ea8565b9250817fffffffffffffffffffffffffffffffffffffffffffffffffffffffffffffffff0483118215151615610e5557610e54610efe565b5b828202905092915050565b6000610e6b82610e88565b9050919050565b60008115159050919050565b6000819050919050565b600073ffffffffffffffffffffffffffffffffffffffff82169050919050565b6000819050919050565b600069ffffffffffffffffffff82169050919050565b6000610ed382610eda565b9050919050565b6000610ee582610eec565b9050919050565b6000610ef782610e88565b9050919050565b7f4e487b7100000000000000000000000000000000000000000000000000000000600052601160045260246000fd5b7f4e487b7100000000000000000000000000000000000000000000000000000000600052601260045260246000fd5b600080fd5b7f507269636520686173206e6f74206265656e206f627461696e6564207965742e600082015250565b7f50726963652068617320616c7265616479206265656e206f627461696e65642e600082015250565b7f74617267657454696d6520686173206e6f74206265656e20726561636865642060008201527f7965742e00000000000000000000000000000000000000000000000000000000602082015250565b50565b7f6d73672e76616c75652068617320746f206265206d6f7265207468616e203000600082015250565b7f4661696c656420746f2073656e642045746865722e0000000000000000000000600082015250565b7f596f752063616e277420706c616365206265747320616e796d6f72652c20646560008201527f61646c696e652077617320726561636865642e00000000000000000000000000602082015250565b7f596f7520646964206e6f742077696e20616e79207072697a652e000000000000600082015250565b6110d881610e60565b81146110e357600080fd5b50565b6110ef81610e72565b81146110fa57600080fd5b50565b61110681610e7e565b811461111157600080fd5b50565b61111d81610ea8565b811461112857600080fd5b50565b61113481610eb2565b811461113f57600080fd5b5056fea26469706673582212203f2e43363929cbbbe474586209fa5bc0b61fe011349979f0573c86b3014ae35b64736f6c63430008070033a26469706673582212205f5cda7153c514ff351e54bef30c7eb3355fa949499185563f6c75b8ce9b608364736f6c63430008070033",
  "linkReferences": {},
  "deployedLinkReferences": {}
}