{
  "_format": "hh-sol-artifact-1",
  "contractName": "EtherPrediction",
  "sourceName": "contracts/EtherPrediction.sol",
  "abi": [
    {
      "inputs": [
        {
          "internalType": "address",
          "name": "aggregator",
          "type": "address"
        },
        {
          "internalType": "int256",
          "name": "_targetPrice",
          "type": "int256"
        },
        {
          "internalType": "uint256",
          "name": "_targetTime",
          "type": "uint256"
        },
        {
          "internalType": "uint256",
          "name": "_deadline",
          "type": "uint256"
        }
      ],
      "stateMutability": "nonpayable",
      "type": "constructor"
    },
    {
      "inputs": [],
      "name": "claimPrize",
      "outputs": [],
      "stateMutability": "nonpayable",
      "type": "function"
    },
    {
      "inputs": [
        {
          "internalType": "address",
          "name": "user",
          "type": "address"
        }
      ],
      "name": "claimablePrize",
      "outputs": [
        {
          "internalType": "uint256",
          "name": "",
          "type": "uint256"
        }
      ],
      "stateMutability": "view",
      "type": "function"
    },
    {
      "inputs": [],
      "name": "getDetails",
      "outputs": [
        {
          "internalType": "contract AggregatorV3Interface",
          "name": "",
          "type": "address"
        },
        {
          "components": [
            {
              "internalType": "uint256",
              "name": "higher",
              "type": "uint256"
            },
            {
              "internalType": "uint256",
              "name": "lower",
              "type": "uint256"
            }
          ],
          "internalType": "struct EtherPrediction.Bet",
          "name": "",
          "type": "tuple"
        },
        {
          "internalType": "int256",
          "name": "",
          "type": "int256"
        },
        {
          "internalType": "int256",
          "name": "",
          "type": "int256"
        },
        {
          "internalType": "uint256",
          "name": "",
          "type": "uint256"
        },
        {
          "internalType": "uint256",
          "name": "",
          "type": "uint256"
        },
        {
          "internalType": "bool",
          "name": "",
          "type": "bool"
        },
        {
          "internalType": "uint256",
          "name": "",
          "type": "uint256"
        },
        {
          "components": [
            {
              "internalType": "uint256",
              "name": "higher",
              "type": "uint256"
            },
            {
              "internalType": "uint256",
              "name": "lower",
              "type": "uint256"
            }
          ],
          "internalType": "struct EtherPrediction.Bet",
          "name": "",
          "type": "tuple"
        }
      ],
      "stateMutability": "view",
      "type": "function"
    },
    {
      "inputs": [],
      "name": "getLatestPrice",
      "outputs": [
        {
          "internalType": "int256",
          "name": "",
          "type": "int256"
        }
      ],
      "stateMutability": "view",
      "type": "function"
    },
    {
      "inputs": [
        {
          "internalType": "address",
          "name": "a",
          "type": "address"
        }
      ],
      "name": "getUserBet",
      "outputs": [
        {
          "components": [
            {
              "internalType": "uint256",
              "name": "higher",
              "type": "uint256"
            },
            {
              "internalType": "uint256",
              "name": "lower",
              "type": "uint256"
            }
          ],
          "internalType": "struct EtherPrediction.Bet",
          "name": "",
          "type": "tuple"
        }
      ],
      "stateMutability": "view",
      "type": "function"
    },
    {
      "inputs": [],
      "name": "obtainPrice",
      "outputs": [],
      "stateMutability": "nonpayable",
      "type": "function"
    },
    {
      "inputs": [
        {
          "internalType": "bool",
          "name": "higher",
          "type": "bool"
        }
      ],
      "name": "placeBet",
      "outputs": [],
      "stateMutability": "payable",
      "type": "function"
    }
  ],
  "bytecode": "0x60806040523480156200001157600080fd5b5060405162001478380380620014788339818101604052810190620000379190620001bb565b8181106200007c576040517f08c379a00000000000000000000000000000000000000000000000000000000081526004016200007390620002b4565b60405180910390fd5b836000806101000a81548173ffffffffffffffffffffffffffffffffffffffff021916908373ffffffffffffffffffffffffffffffffffffffff16021790555082600581905550816006819055508060078190555050505050620002d6565b600080fd5b600073ffffffffffffffffffffffffffffffffffffffff82169050919050565b60006200010d82620000e0565b9050919050565b6200011f8162000100565b81146200012b57600080fd5b50565b6000815190506200013f8162000114565b92915050565b6000819050919050565b6200015a8162000145565b81146200016657600080fd5b50565b6000815190506200017a816200014f565b92915050565b6000819050919050565b620001958162000180565b8114620001a157600080fd5b50565b600081519050620001b5816200018a565b92915050565b60008060008060808587031215620001d857620001d7620000db565b5b6000620001e8878288016200012e565b9450506020620001fb8782880162000169565b93505060406200020e87828801620001a4565b92505060606200022187828801620001a4565b91505092959194509250565b600082825260208201905092915050565b7f54686520646561646c696e652068617320746f206265206265666f726520746860008201527f652074617267657454696d652e00000000000000000000000000000000000000602082015250565b60006200029c602d836200022d565b9150620002a9826200023e565b604082019050919050565b60006020820190508181036000830152620002cf816200028d565b9050919050565b61119280620002e66000396000f3fe6080604052600436106100705760003560e01c80638e15f4731161004e5780638e15f473146100e5578063c96adb0114610110578063ecfe99021461014d578063fbbf93a01461016457610070565b806307e3dee514610075578063096a3778146100b257806370740ac9146100ce575b600080fd5b34801561008157600080fd5b5061009c60048036038101906100979190610922565b610197565b6040516100a99190610968565b60405180910390f35b6100cc60048036038101906100c791906109bb565b610308565b005b3480156100da57600080fd5b506100e3610487565b005b3480156100f157600080fd5b506100fa61061a565b6040516101079190610a01565b60405180910390f35b34801561011c57600080fd5b5061013760048036038101906101329190610922565b6106c8565b6040516101449190610a5a565b60405180910390f35b34801561015957600080fd5b50610162610735565b005b34801561017057600080fd5b506101796107fa565b60405161018e99989796959493929190610ae3565b60405180910390f35b6000801515600360009054906101000a900460ff16151514156101bd5760009050610303565b6000600554600454131561024d57600060016000015411156102435760016000015464e8d4a51000600860008673ffffffffffffffffffffffffffffffffffffffff1673ffffffffffffffffffffffffffffffffffffffff168152602001908152602001600020600001546102329190610ba0565b61023c9190610c29565b9050610248565b600090505b6102c9565b6000600180015411156102c357600180015464e8d4a51000600860008673ffffffffffffffffffffffffffffffffffffffff1673ffffffffffffffffffffffffffffffffffffffff168152602001908152602001600020600101546102b29190610ba0565b6102bc9190610c29565b90506102c8565b600090505b5b600064e8d4a5100060018001546001600001546102e69190610c5a565b836102f19190610ba0565b6102fb9190610c29565b905080925050505b919050565b6000341161034b576040517f08c379a000000000000000000000000000000000000000000000000000000000815260040161034290610d0d565b60405180910390fd5b600754421061038f576040517f08c379a000000000000000000000000000000000000000000000000000000000815260040161038690610d9f565b60405180910390fd5b801561040f5734600860003373ffffffffffffffffffffffffffffffffffffffff1673ffffffffffffffffffffffffffffffffffffffff16815260200190815260200160002060000160008282546103e79190610c5a565b9250508190555034600160000160008282546104039190610c5a565b92505081905550610484565b34600860003373ffffffffffffffffffffffffffffffffffffffff1673ffffffffffffffffffffffffffffffffffffffff16815260200190815260200160002060010160008282546104619190610c5a565b925050819055503460018001600082825461047c9190610c5a565b925050819055505b50565b60065442116104cb576040517f08c379a00000000000000000000000000000000000000000000000000000000081526004016104c290610e31565b60405180910390fd5b600360009054906101000a900460ff1661051a576040517f08c379a000000000000000000000000000000000000000000000000000000000815260040161051190610e9d565b60405180910390fd5b600061052533610197565b90506000811161056a576040517f08c379a000000000000000000000000000000000000000000000000000000000815260040161056190610f09565b60405180910390fd5b60003373ffffffffffffffffffffffffffffffffffffffff168260405161059090610f5a565b60006040518083038185875af1925050503d80600081146105cd576040519150601f19603f3d011682016040523d82523d6000602084013e6105d2565b606091505b5050905080610616576040517f08c379a000000000000000000000000000000000000000000000000000000000815260040161060d90610fbb565b60405180910390fd5b5050565b60008060008054906101000a900473ffffffffffffffffffffffffffffffffffffffff1673ffffffffffffffffffffffffffffffffffffffff1663feaf968c6040518163ffffffff1660e01b815260040160a06040518083038186803b15801561068357600080fd5b505afa158015610697573d6000803e3d6000fd5b505050506040513d601f19601f820116820180604052508101906106bb9190611075565b5050509150508091505090565b6106d06108a5565b600860008373ffffffffffffffffffffffffffffffffffffffff1673ffffffffffffffffffffffffffffffffffffffff168152602001908152602001600020604051806040016040529081600082015481526020016001820154815250509050919050565b6006544211610779576040517f08c379a000000000000000000000000000000000000000000000000000000000815260040161077090610e31565b60405180910390fd5b60001515600360009054906101000a900460ff161515146107cf576040517f08c379a00000000000000000000000000000000000000000000000000000000081526004016107c69061113c565b60405180910390fd5b6107d761061a565b6004819055506001600360006101000a81548160ff021916908315150217905550565b60006108046108a5565b6000806000806000806108156108a5565b60008054906101000a900473ffffffffffffffffffffffffffffffffffffffff166001600454600554600654600754600360009054906101000a900460ff1661085d33610197565b610866336106c8565b87604051806040016040529081600082015481526020016001820154815250509750985098509850985098509850985098509850909192939495969798565b604051806040016040528060008152602001600081525090565b600080fd5b600073ffffffffffffffffffffffffffffffffffffffff82169050919050565b60006108ef826108c4565b9050919050565b6108ff816108e4565b811461090a57600080fd5b50565b60008135905061091c816108f6565b92915050565b600060208284031215610938576109376108bf565b5b60006109468482850161090d565b91505092915050565b6000819050919050565b6109628161094f565b82525050565b600060208201905061097d6000830184610959565b92915050565b60008115159050919050565b61099881610983565b81146109a357600080fd5b50565b6000813590506109b58161098f565b92915050565b6000602082840312156109d1576109d06108bf565b5b60006109df848285016109a6565b91505092915050565b6000819050919050565b6109fb816109e8565b82525050565b6000602082019050610a1660008301846109f2565b92915050565b610a258161094f565b82525050565b604082016000820151610a416000850182610a1c565b506020820151610a546020850182610a1c565b50505050565b6000604082019050610a6f6000830184610a2b565b92915050565b6000819050919050565b6000610a9a610a95610a90846108c4565b610a75565b6108c4565b9050919050565b6000610aac82610a7f565b9050919050565b6000610abe82610aa1565b9050919050565b610ace81610ab3565b82525050565b610add81610983565b82525050565b600061016082019050610af9600083018c610ac5565b610b06602083018b610a2b565b610b13606083018a6109f2565b610b2060808301896109f2565b610b2d60a0830188610959565b610b3a60c0830187610959565b610b4760e0830186610ad4565b610b55610100830185610959565b610b63610120830184610a2b565b9a9950505050505050505050565b7f4e487b7100000000000000000000000000000000000000000000000000000000600052601160045260246000fd5b6000610bab8261094f565b9150610bb68361094f565b9250817fffffffffffffffffffffffffffffffffffffffffffffffffffffffffffffffff0483118215151615610bef57610bee610b71565b5b828202905092915050565b7f4e487b7100000000000000000000000000000000000000000000000000000000600052601260045260246000fd5b6000610c348261094f565b9150610c3f8361094f565b925082610c4f57610c4e610bfa565b5b828204905092915050565b6000610c658261094f565b9150610c708361094f565b9250827fffffffffffffffffffffffffffffffffffffffffffffffffffffffffffffffff03821115610ca557610ca4610b71565b5b828201905092915050565b600082825260208201905092915050565b7f6d73672e76616c75652068617320746f206265206d6f7265207468616e203000600082015250565b6000610cf7601f83610cb0565b9150610d0282610cc1565b602082019050919050565b60006020820190508181036000830152610d2681610cea565b9050919050565b7f596f752063616e277420706c616365206265747320616e796d6f72652c20646560008201527f61646c696e652077617320726561636865642e00000000000000000000000000602082015250565b6000610d89603383610cb0565b9150610d9482610d2d565b604082019050919050565b60006020820190508181036000830152610db881610d7c565b9050919050565b7f74617267657454696d6520686173206e6f74206265656e20726561636865642060008201527f7965742e00000000000000000000000000000000000000000000000000000000602082015250565b6000610e1b602483610cb0565b9150610e2682610dbf565b604082019050919050565b60006020820190508181036000830152610e4a81610e0e565b9050919050565b7f507269636520686173206e6f74206265656e206f627461696e6564207965742e600082015250565b6000610e87602083610cb0565b9150610e9282610e51565b602082019050919050565b60006020820190508181036000830152610eb681610e7a565b9050919050565b7f596f7520646964206e6f742077696e20616e79207072697a652e000000000000600082015250565b6000610ef3601a83610cb0565b9150610efe82610ebd565b602082019050919050565b60006020820190508181036000830152610f2281610ee6565b9050919050565b600081905092915050565b50565b6000610f44600083610f29565b9150610f4f82610f34565b600082019050919050565b6000610f6582610f37565b9150819050919050565b7f4661696c656420746f2073656e642045746865722e0000000000000000000000600082015250565b6000610fa5601583610cb0565b9150610fb082610f6f565b602082019050919050565b60006020820190508181036000830152610fd481610f98565b9050919050565b600069ffffffffffffffffffff82169050919050565b610ffa81610fdb565b811461100557600080fd5b50565b60008151905061101781610ff1565b92915050565b611026816109e8565b811461103157600080fd5b50565b6000815190506110438161101d565b92915050565b6110528161094f565b811461105d57600080fd5b50565b60008151905061106f81611049565b92915050565b600080600080600060a08688031215611091576110906108bf565b5b600061109f88828901611008565b95505060206110b088828901611034565b94505060406110c188828901611060565b93505060606110d288828901611060565b92505060806110e388828901611008565b9150509295509295909350565b7f50726963652068617320616c7265616479206265656e206f627461696e65642e600082015250565b6000611126602083610cb0565b9150611131826110f0565b602082019050919050565b6000602082019050818103600083015261115581611119565b905091905056fea264697066735822122060af0042dddc097bf3a19b868860111f2400f83ca1d3aa7a06a9d2d0473b63b964736f6c63430008090033",
  "linkReferences": {},
  "deployedLinkReferences": {}
}