{
  "_format": "hh-sol-artifact-1",
  "contractName": "EtherBetsFactory",
  "sourceName": "contracts/EtherBets.sol",
  "abi": [
    {
      "anonymous": false,
      "inputs": [
        {
          "indexed": false,
          "internalType": "address",
          "name": "lottery",
          "type": "address"
        }
      ],
      "name": "NewLottery",
      "type": "event"
    },
    {
      "inputs": [
        {
          "internalType": "uint256",
          "name": "",
          "type": "uint256"
        }
      ],
      "name": "contracts",
      "outputs": [
        {
          "internalType": "address",
          "name": "",
          "type": "address"
        }
      ],
      "stateMutability": "view",
      "type": "function"
    },
    {
      "inputs": [
        {
          "internalType": "string",
          "name": "_name",
          "type": "string"
        },
        {
          "internalType": "uint256",
          "name": "_betCost",
          "type": "uint256"
        },
        {
          "internalType": "uint8",
          "name": "_maximumNumber",
          "type": "uint8"
        },
        {
          "internalType": "uint8",
          "name": "_picks",
          "type": "uint8"
        },
        {
          "internalType": "uint256",
          "name": "_timeBetweenDraws",
          "type": "uint256"
        },
        {
          "internalType": "address",
          "name": "_VRF",
          "type": "address"
        }
      ],
      "name": "newEtherBets",
      "outputs": [
        {
          "internalType": "address",
          "name": "",
          "type": "address"
        }
      ],
      "stateMutability": "nonpayable",
      "type": "function"
    }
  ],
  "bytecode": "0x608060405234801561001057600080fd5b50613d67806100206000396000f3fe60806040523480156200001157600080fd5b50600436106200003a5760003560e01c806309c1570e146200003f578063474da79a1462000075575b600080fd5b6200005d6004803603810190620000579190620002ae565b620000ab565b6040516200006c91906200040f565b60405180910390f35b6200009360048036038101906200008d919062000369565b6200019d565b604051620000a291906200040f565b60405180910390f35b600080878787878787604051620000c290620001dd565b620000d3969594939291906200042c565b604051809103906000f080158015620000f0573d6000803e3d6000fd5b5090506000819080600181540180825580915050600190039060005260206000200160009091909190916101000a81548173ffffffffffffffffffffffffffffffffffffffff021916908373ffffffffffffffffffffffffffffffffffffffff1602179055507fdbb18653dafc4962dc966dac250a14155f0c8a5040e55c5c59ed5f4acb69f5be816040516200018791906200040f565b60405180910390a1809150509695505050505050565b60008181548110620001ae57600080fd5b906000526020600020016000915054906101000a900473ffffffffffffffffffffffffffffffffffffffff1681565b6136ae806200068483390190565b600062000202620001fc84620004c9565b620004a0565b90508281526020810184848401111562000221576200022062000615565b5b6200022e84828562000566565b509392505050565b600081359050620002478162000635565b92915050565b600082601f83011262000265576200026462000610565b5b813562000277848260208601620001eb565b91505092915050565b60008135905062000291816200064f565b92915050565b600081359050620002a88162000669565b92915050565b60008060008060008060c08789031215620002ce57620002cd6200061f565b5b600087013567ffffffffffffffff811115620002ef57620002ee6200061a565b5b620002fd89828a016200024d565b96505060206200031089828a0162000280565b95505060406200032389828a0162000297565b94505060606200033689828a0162000297565b93505060806200034989828a0162000280565b92505060a06200035c89828a0162000236565b9150509295509295509295565b6000602082840312156200038257620003816200061f565b5b6000620003928482850162000280565b91505092915050565b620003a6816200051b565b82525050565b6000620003b982620004ff565b620003c581856200050a565b9350620003d781856020860162000575565b620003e28162000624565b840191505092915050565b620003f8816200054f565b82525050565b620004098162000559565b82525050565b60006020820190506200042660008301846200039b565b92915050565b600060c0820190508181036000830152620004488189620003ac565b9050620004596020830188620003ed565b620004686040830187620003fe565b620004776060830186620003fe565b620004866080830185620003ed565b6200049560a08301846200039b565b979650505050505050565b6000620004ac620004bf565b9050620004ba8282620005ab565b919050565b6000604051905090565b600067ffffffffffffffff821115620004e757620004e6620005e1565b5b620004f28262000624565b9050602081019050919050565b600081519050919050565b600082825260208201905092915050565b600062000528826200052f565b9050919050565b600073ffffffffffffffffffffffffffffffffffffffff82169050919050565b6000819050919050565b600060ff82169050919050565b82818337600083830152505050565b60005b838110156200059557808201518184015260208101905062000578565b83811115620005a5576000848401525b50505050565b620005b68262000624565b810181811067ffffffffffffffff82111715620005d857620005d7620005e1565b5b80604052505050565b7f4e487b7100000000000000000000000000000000000000000000000000000000600052604160045260246000fd5b600080fd5b600080fd5b600080fd5b600080fd5b6000601f19601f8301169050919050565b62000640816200051b565b81146200064c57600080fd5b50565b6200065a816200054f565b81146200066657600080fd5b50565b620006748162000559565b81146200068057600080fd5b5056fe60806040523480156200001157600080fd5b50604051620036ae380380620036ae833981810160405281019062000037919062000254565b85600090805190602001906200004f929190620000e1565b508460018190555083600260006101000a81548160ff021916908360ff16021790555082600260016101000a81548160ff021916908360ff1602179055508160078190555080600860006101000a81548173ffffffffffffffffffffffffffffffffffffffff021916908373ffffffffffffffffffffffffffffffffffffffff1602179055505050505050506200052c565b828054620000ef90620003ef565b90600052602060002090601f0160209004810192826200011357600085556200015f565b82601f106200012e57805160ff19168380011785556200015f565b828001600101855582156200015f579182015b828111156200015e57825182559160200191906001019062000141565b5b5090506200016e919062000172565b5090565b5b808211156200018d57600081600090555060010162000173565b5090565b6000620001a8620001a28462000338565b6200030f565b905082815260208101848484011115620001c757620001c6620004be565b5b620001d4848285620003b9565b509392505050565b600081519050620001ed81620004de565b92915050565b600082601f8301126200020b576200020a620004b9565b5b81516200021d84826020860162000191565b91505092915050565b6000815190506200023781620004f8565b92915050565b6000815190506200024e8162000512565b92915050565b60008060008060008060c08789031215620002745762000273620004c8565b5b600087015167ffffffffffffffff811115620002955762000294620004c3565b5b620002a389828a01620001f3565b9650506020620002b689828a0162000226565b9550506040620002c989828a016200023d565b9450506060620002dc89828a016200023d565b9350506080620002ef89828a0162000226565b92505060a06200030289828a01620001dc565b9150509295509295509295565b60006200031b6200032e565b905062000329828262000425565b919050565b6000604051905090565b600067ffffffffffffffff8211156200035657620003556200048a565b5b6200036182620004cd565b9050602081019050919050565b60006200037b8262000382565b9050919050565b600073ffffffffffffffffffffffffffffffffffffffff82169050919050565b6000819050919050565b600060ff82169050919050565b60005b83811015620003d9578082015181840152602081019050620003bc565b83811115620003e9576000848401525b50505050565b600060028204905060018216806200040857607f821691505b602082108114156200041f576200041e6200045b565b5b50919050565b6200043082620004cd565b810181811067ffffffffffffffff821117156200045257620004516200048a565b5b80604052505050565b7f4e487b7100000000000000000000000000000000000000000000000000000000600052602260045260246000fd5b7f4e487b7100000000000000000000000000000000000000000000000000000000600052604160045260246000fd5b600080fd5b600080fd5b600080fd5b600080fd5b6000601f19601f8301169050919050565b620004e9816200036e565b8114620004f557600080fd5b50565b6200050381620003a2565b81146200050f57600080fd5b50565b6200051d81620003ac565b81146200052957600080fd5b50565b613172806200053c6000396000f3fe6080604052600436106101405760003560e01c8063682904a5116100b6578063a126285b1161006f578063a126285b14610455578063a195bcca14610480578063c45821f414610497578063ccbac9f5146104d4578063d6bfea28146104ff578063fbbf93a01461052857610140565b8063682904a5146103405780636a93111c1461037d578063752ca00414610399578063780d8b73146103d65780637aa2a299146103ff5780639204c9b71461042a57610140565b806339b522251161010857806339b522251461022e5780634e45f0951461026b5780635c975abb146102a85780635cbbd635146102d3578063650a031a146102fe578063676c902f1461032957610140565b806306c5c0c81461014557806306fdde03146101705780630eecae211461019b578063113da88a146101c657806332a6d97914610203575b600080fd5b34801561015157600080fd5b5061015a61055e565b6040516101679190612475565b60405180910390f35b34801561017c57600080fd5b50610185610564565b604051610192919061224b565b60405180910390f35b3480156101a757600080fd5b506101b06105f2565b6040516101bd9190612475565b60405180910390f35b3480156101d257600080fd5b506101ed60048036038101906101e8919061157e565b6105f8565b6040516101fa9190612230565b60405180910390f35b34801561020f57600080fd5b50610218610699565b6040516102259190612230565b60405180910390f35b34801561023a57600080fd5b5061025560048036038101906102509190611661565b6106ac565b6040516102629190612230565b60405180910390f35b34801561027757600080fd5b50610292600480360381019061028d91906115f4565b610714565b60405161029f91906124b9565b60405180910390f35b3480156102b457600080fd5b506102bd610748565b6040516102ca9190612230565b60405180910390f35b3480156102df57600080fd5b506102e861075b565b6040516102f59190612475565b60405180910390f35b34801561030a57600080fd5b50610313610761565b60405161032091906124b9565b60405180910390f35b34801561033557600080fd5b5061033e610774565b005b34801561034c57600080fd5b50610367600480360381019061036291906115f4565b6108c7565b60405161037491906121ae565b60405180910390f35b6103976004803603810190610392919061157e565b610a17565b005b3480156103a557600080fd5b506103c060048036038101906103bb9190611621565b610bb8565b6040516103cd9190612193565b60405180910390f35b3480156103e257600080fd5b506103fd60048036038101906103f8919061157e565b610c06565b005b34801561040b57600080fd5b50610414610ca6565b6040516104219190612475565b60405180910390f35b34801561043657600080fd5b5061043f610cac565b60405161044c91906124b9565b60405180910390f35b34801561046157600080fd5b5061046a610cbf565b6040516104779190612193565b60405180910390f35b34801561048c57600080fd5b50610495610ce5565b005b3480156104a357600080fd5b506104be60048036038101906104b9919061157e565b610e92565b6040516104cb9190612475565b60405180910390f35b3480156104e057600080fd5b506104e9610efa565b6040516104f69190612475565b60405180910390f35b34801561050b57600080fd5b50610526600480360381019061052191906115f4565b610f00565b005b34801561053457600080fd5b5061053d610ff2565b6040516105559c9b9a9998979695949392919061226d565b60405180910390f35b60075481565b6000805461057190612733565b80601f016020809104026020016040519081016040528092919081815260200182805461059d90612733565b80156105ea5780601f106105bf576101008083540402835291602001916105ea565b820191906000526020600020905b8154815290600101906020018083116105cd57829003601f168201915b505050505081565b60045481565b600080600090505b82518160ff16101561068e576000838260ff168151811061062457610623612c07565b5b602002602001015160ff16148061066c5750600260009054906101000a900460ff1660ff16838260ff168151811061065f5761065e612c07565b5b602002602001015160ff16115b1561067b576000915050610694565b808061068690612b1f565b915050610600565b50600190505b919050565b600a60009054906101000a900460ff1681565b600080600090505b82518160ff161015610708578360ff16838260ff16815181106106da576106d9612c07565b5b602002602001015160ff1614156106f557600191505061070e565b808061070090612b1f565b9150506106b4565b50600090505b92915050565b6003818154811061072457600080fd5b9060005260206000209060209182820401919006915054906101000a900460ff1681565b600860149054906101000a900460ff1681565b60065481565b600260009054906101000a900460ff1681565b600860149054906101000a900460ff166107c3576040517f08c379a00000000000000000000000000000000000000000000000000000000081526004016107ba90612415565b60405180910390fd5b600a60009054906101000a900460ff16610812576040517f08c379a000000000000000000000000000000000000000000000000000000000815260040161080990612435565b60405180910390fd5b61081d6009546108c7565b600390805190602001906108329291906113dd565b507ffebf534a11985149a5c6f9db799e3fd83bee80a2726a5b1ea9aa7fea0cbe6a216003600454604051610867929190612200565b60405180910390a1610877611183565b6004600081548092919061088a90612ad6565b91905055506000600860146101000a81548160ff0219169083151502179055506000600a60006101000a81548160ff021916908315150217905550565b6060600260019054906101000a900460ff1660ff1667ffffffffffffffff8111156108f5576108f4612c36565b5b6040519080825280602002602001820160405280156109235781602001602082028036833780820191505090505b5090506000805b600260019054906101000a900460ff1660ff168260ff161015610a105760006001600260009054906101000a900460ff1660ff168684604051602001610971929190612490565b6040516020818303038152906040528051906020012060001c6109949190612b49565b61099e91906125a5565b90506109aa81856106ac565b156109c35781806109ba90612ad6565b9250505061092a565b80848460ff16815181106109da576109d9612c07565b5b602002602001019060ff16908160ff168152505082806109f990612b1f565b9350508180610a0790612ad6565b9250505061092a565b5050919050565b6001543414610a5b576040517f08c379a0000000000000000000000000000000000000000000000000000000008152600401610a5290612375565b60405180910390fd5b60001515600860149054906101000a900460ff16151514610ab1576040517f08c379a0000000000000000000000000000000000000000000000000000000008152600401610aa8906123d5565b60405180910390fd5b610aba81610c06565b60056000610ac783610e92565b600454604051602001610adb929190612490565b6040516020818303038152906040528051906020012060001c8152602001908152602001600020339080600181540180825580915050600190039060005260206000200160009091909190916101000a81548173ffffffffffffffffffffffffffffffffffffffff021916908373ffffffffffffffffffffffffffffffffffffffff1602179055503373ffffffffffffffffffffffffffffffffffffffff167fdb457a8286185fe9d46c5c69e68ed86df699c2c02066412781e9dd9a12af4b4582600454604051610bad9291906121d0565b60405180910390a250565b60056020528160005260406000208181548110610bd457600080fd5b906000526020600020016000915091509054906101000a900473ffffffffffffffffffffffffffffffffffffffff1681565b610c0f816105f8565b610c4e576040517f08c379a0000000000000000000000000000000000000000000000000000000008152600401610c4590612335565b60405180910390fd5b600260019054906101000a900460ff1660ff16815114610ca3576040517f08c379a0000000000000000000000000000000000000000000000000000000008152600401610c9a906123f5565b60405180910390fd5b50565b60015481565b600260019054906101000a900460ff1681565b600860009054906101000a900473ffffffffffffffffffffffffffffffffffffffff1681565b60075460065442610cf6919061262c565b11610d36576040517f08c379a0000000000000000000000000000000000000000000000000000000008152600401610d2d90612395565b60405180910390fd5b60001515600860149054906101000a900460ff16151514610d8c576040517f08c379a0000000000000000000000000000000000000000000000000000000008152600401610d83906123b5565b60405180910390fd5b6001600860146101000a81548160ff021916908315150217905550426006819055506000600860009054906101000a900473ffffffffffffffffffffffffffffffffffffffff1690508073ffffffffffffffffffffffffffffffffffffffff1663dbdff2c16040518163ffffffff1660e01b8152600401602060405180830381600087803b158015610e1d57600080fd5b505af1158015610e31573d6000803e3d6000fd5b505050506040513d601f19601f82011682018060405250810190610e5591906115c7565b507f9ac10fb18c93d33ad7b0a941897aef048d0f8d30756684e82b4552ba12764d45600454604051610e879190612475565b60405180910390a150565b6000806000905060005b83518160ff161015610ef0576001848260ff1681518110610ec057610ebf612c07565b5b6020026020010151610ed29190612660565b60ff166001901b821791508080610ee890612b1f565b915050610e9c565b5080915050919050565b60095481565b600860009054906101000a900473ffffffffffffffffffffffffffffffffffffffff1673ffffffffffffffffffffffffffffffffffffffff163373ffffffffffffffffffffffffffffffffffffffff1614610f90576040517f08c379a0000000000000000000000000000000000000000000000000000000008152600401610f8790612455565b60405180910390fd5b806009819055506001600a60006101000a81548160ff0219169083151502179055507f546aca7b2683440b8f02fa95faeb8efc79dd0f16af3d815a002742ea6f76116c600954600454604051610fe7929190612490565b60405180910390a150565b606060008060008060008060008060606000806000600154600260009054906101000a900460ff16600260019054906101000a900460ff16600754600654600860149054906101000a900460ff16600454476003600954600a60009054906101000a900460ff168b805461106590612733565b80601f016020809104026020016040519081016040528092919081815260200182805461109190612733565b80156110de5780601f106110b3576101008083540402835291602001916110de565b820191906000526020600020905b8154815290600101906020018083116110c157829003601f168201915b50505050509b508280548060200260200160405190810160405280929190818152602001828054801561115657602002820191906000526020600020906000905b82829054906101000a900460ff1660ff168152602001906001019060208260000104928301926001038202915080841161111f5790505b505050505092509b509b509b509b509b509b509b509b509b509b509b509b50909192939495969798999a9b565b60006005600061120860038054806020026020016040519081016040528092919081815260200182805480156111fe57602002820191906000526020600020906000905b82829054906101000a900460ff1660ff16815260200190600101906020826000010492830192600103820291508084116111c75790505b5050505050610e92565b60045460405160200161121c929190612490565b6040516020818303038152906040528051906020012060001c81526020019081526020016000208054806020026020016040519081016040528092919081815260200182805480156112c357602002820191906000526020600020905b8160009054906101000a900473ffffffffffffffffffffffffffffffffffffffff1673ffffffffffffffffffffffffffffffffffffffff1681526020019060010190808311611279575b505050505090506000815114156112da57506113db565b60008151476112e991906125fb565b905060005b82518110156113d757600083828151811061130c5761130b612c07565b5b6020026020010151905060008173ffffffffffffffffffffffffffffffffffffffff168460405161133c9061217e565b60006040518083038185875af1925050503d8060008114611379576040519150601f19603f3d011682016040523d82523d6000602084013e61137e565b606091505b50509050806113c2576040517f08c379a00000000000000000000000000000000000000000000000000000000081526004016113b990612355565b60405180910390fd5b505080806113cf90612ad6565b9150506112ee565b5050505b565b82805482825590600052602060002090601f016020900481019282156114735791602002820160005b8382111561144457835183826101000a81548160ff021916908360ff1602179055509260200192600101602081600001049283019260010302611406565b80156114715782816101000a81549060ff0219169055600101602081600001049283019260010302611444565b505b5090506114809190611484565b5090565b5b8082111561149d576000816000905550600101611485565b5090565b60006114b46114af846124f9565b6124d4565b905080838252602082019050828560208602820111156114d7576114d6612c6a565b5b60005b8581101561150757816114ed8882611569565b8452602084019350602083019250506001810190506114da565b5050509392505050565b600082601f83011261152657611525612c65565b5b81356115368482602086016114a1565b91505092915050565b60008151905061154e816130f7565b92915050565b6000813590506115638161310e565b92915050565b60008135905061157881613125565b92915050565b60006020828403121561159457611593612c74565b5b600082013567ffffffffffffffff8111156115b2576115b1612c6f565b5b6115be84828501611511565b91505092915050565b6000602082840312156115dd576115dc612c74565b5b60006115eb8482850161153f565b91505092915050565b60006020828403121561160a57611609612c74565b5b600061161884828501611554565b91505092915050565b6000806040838503121561163857611637612c74565b5b600061164685828601611554565b925050602061165785828601611554565b9150509250929050565b6000806040838503121561167857611677612c74565b5b600061168685828601611569565b925050602083013567ffffffffffffffff8111156116a7576116a6612c6f565b5b6116b385828601611511565b9150509250929050565b60006116c98383612160565b60208301905092915050565b6116de816126a1565b82525050565b60006116ef8261254a565b6116f98185612578565b935061170483612525565b8060005b8381101561173557815161171c88826116bd565b97506117278361256b565b925050600181019050611708565b5085935050505092915050565b600061174d82612555565b6117578185612578565b93508361176384612535565b6000600115611a90575b83600160200382011015611a8f57815461178f8861178a83612765565b612160565b6020880197506117a7886117a283612883565b612160565b6020880197506117bf886117ba836129a1565b612160565b6020880197506117d7886117d2836129ef565b612160565b6020880197506117ef886117ea83612a09565b612160565b6020880197506118078861180283612a23565b612160565b60208801975061181f8861181a83612a3d565b612160565b6020880197506118378861183283612a57565b612160565b60208801975061184f8861184a83612a71565b612160565b6020880197506118678861186283612a8b565b612160565b60208801975061187f8861187a8361277f565b612160565b6020880197506118978861189283612799565b612160565b6020880197506118af886118aa836127b3565b612160565b6020880197506118c7886118c2836127cd565b612160565b6020880197506118df886118da836127e7565b612160565b6020880197506118f7886118f283612801565b612160565b60208801975061190f8861190a8361281b565b612160565b6020880197506119278861192283612835565b612160565b60208801975061193f8861193a8361284f565b612160565b6020880197506119578861195283612869565b612160565b60208801975061196f8861196a8361289d565b612160565b60208801975061198788611982836128b7565b612160565b60208801975061199f8861199a836128d1565b612160565b6020880197506119b7886119b2836128eb565b612160565b6020880197506119cf886119ca83612905565b612160565b6020880197506119e7886119e28361291f565b612160565b6020880197506119ff886119fa83612939565b612160565b602088019750611a1788611a1283612953565b612160565b602088019750611a2f88611a2a8361296d565b612160565b602088019750611a4788611a4283612987565b612160565b602088019750611a5f88611a5a836129bb565b612160565b602088019750611a7788611a72836129d5565b612160565b6020880197506001830192505060208101905061176d565b5b600115611f7b57815484821015611ac057611ab388611aae83612765565b612160565b6020880197506001820191505b84821015611ae757611ada88611ad583612883565b612160565b6020880197506001820191505b84821015611b0e57611b0188611afc836129a1565b612160565b6020880197506001820191505b84821015611b3557611b2888611b23836129ef565b612160565b6020880197506001820191505b84821015611b5c57611b4f88611b4a83612a09565b612160565b6020880197506001820191505b84821015611b8357611b7688611b7183612a23565b612160565b6020880197506001820191505b84821015611baa57611b9d88611b9883612a3d565b612160565b6020880197506001820191505b84821015611bd157611bc488611bbf83612a57565b612160565b6020880197506001820191505b84821015611bf857611beb88611be683612a71565b612160565b6020880197506001820191505b84821015611c1f57611c1288611c0d83612a8b565b612160565b6020880197506001820191505b84821015611c4657611c3988611c348361277f565b612160565b6020880197506001820191505b84821015611c6d57611c6088611c5b83612799565b612160565b6020880197506001820191505b84821015611c9457611c8788611c82836127b3565b612160565b6020880197506001820191505b84821015611cbb57611cae88611ca9836127cd565b612160565b6020880197506001820191505b84821015611ce257611cd588611cd0836127e7565b612160565b6020880197506001820191505b84821015611d0957611cfc88611cf783612801565b612160565b6020880197506001820191505b84821015611d3057611d2388611d1e8361281b565b612160565b6020880197506001820191505b84821015611d5757611d4a88611d4583612835565b612160565b6020880197506001820191505b84821015611d7e57611d7188611d6c8361284f565b612160565b6020880197506001820191505b84821015611da557611d9888611d9383612869565b612160565b6020880197506001820191505b84821015611dcc57611dbf88611dba8361289d565b612160565b6020880197506001820191505b84821015611df357611de688611de1836128b7565b612160565b6020880197506001820191505b84821015611e1a57611e0d88611e08836128d1565b612160565b6020880197506001820191505b84821015611e4157611e3488611e2f836128eb565b612160565b6020880197506001820191505b84821015611e6857611e5b88611e5683612905565b612160565b6020880197506001820191505b84821015611e8f57611e8288611e7d8361291f565b612160565b6020880197506001820191505b84821015611eb657611ea988611ea483612939565b612160565b6020880197506001820191505b84821015611edd57611ed088611ecb83612953565b612160565b6020880197506001820191505b84821015611f0457611ef788611ef28361296d565b612160565b6020880197506001820191505b84821015611f2b57611f1e88611f1983612987565b612160565b6020880197506001820191505b84821015611f5257611f4588611f40836129bb565b612160565b6020880197506001820191505b84821015611f7957611f6c88611f67836129d5565b612160565b6020880197506001820191505b505b8694505050505092915050565b611f91816126b3565b82525050565b6000611fa282612560565b611fac8185612594565b9350611fbc818560208601612700565b611fc581612c79565b840191505092915050565b6000611fdd604683612594565b9150611fe882612e2a565b606082019050919050565b6000612000601483612594565b915061200b82612e9f565b602082019050919050565b6000612023602083612594565b915061202e82612ec8565b602082019050919050565b6000612046603683612594565b915061205182612ef1565b604082019050919050565b6000612069601b83612594565b915061207482612f40565b602082019050919050565b600061208c602483612594565b915061209782612f69565b604082019050919050565b60006120af600083612589565b91506120ba82612fb8565b600082019050919050565b60006120d2602383612594565b91506120dd82612fbb565b604082019050919050565b60006120f5603283612594565b91506121008261300a565b604082019050919050565b6000612118602783612594565b915061212382613059565b604082019050919050565b600061213b602783612594565b9150612146826130a8565b604082019050919050565b61215a816126e9565b82525050565b612169816126f3565b82525050565b612178816126f3565b82525050565b6000612189826120a2565b9150819050919050565b60006020820190506121a860008301846116d5565b92915050565b600060208201905081810360008301526121c881846116e4565b905092915050565b600060408201905081810360008301526121ea81856116e4565b90506121f96020830184612151565b9392505050565b6000604082019050818103600083015261221a8185611742565b90506122296020830184612151565b9392505050565b60006020820190506122456000830184611f88565b92915050565b600060208201905081810360008301526122658184611f97565b905092915050565b6000610180820190508181036000830152612288818f611f97565b9050612297602083018e612151565b6122a4604083018d61216f565b6122b1606083018c61216f565b6122be608083018b612151565b6122cb60a083018a612151565b6122d860c0830189611f88565b6122e560e0830188612151565b6122f3610100830187612151565b81810361012083015261230681866116e4565b9050612316610140830185612151565b612324610160830184611f88565b9d9c50505050505050505050505050565b6000602082019050818103600083015261234e81611fd0565b9050919050565b6000602082019050818103600083015261236e81611ff3565b9050919050565b6000602082019050818103600083015261238e81612016565b9050919050565b600060208201905081810360008301526123ae81612039565b9050919050565b600060208201905081810360008301526123ce8161205c565b9050919050565b600060208201905081810360008301526123ee8161207f565b9050919050565b6000602082019050818103600083015261240e816120c5565b9050919050565b6000602082019050818103600083015261242e816120e8565b9050919050565b6000602082019050818103600083015261244e8161210b565b9050919050565b6000602082019050818103600083015261246e8161212e565b9050919050565b600060208201905061248a6000830184612151565b92915050565b60006040820190506124a56000830185612151565b6124b26020830184612151565b9392505050565b60006020820190506124ce600083018461216f565b92915050565b60006124de6124ef565b90506124ea8282612aa5565b919050565b6000604051905090565b600067ffffffffffffffff82111561251457612513612c36565b5b602082029050602081019050919050565b6000819050602082019050919050565b60008190508160005260206000209050919050565b600081519050919050565b600081549050919050565b600081519050919050565b6000602082019050919050565b600082825260208201905092915050565b600081905092915050565b600082825260208201905092915050565b60006125b0826126e9565b91506125bb836126e9565b9250827fffffffffffffffffffffffffffffffffffffffffffffffffffffffffffffffff038211156125f0576125ef612b7a565b5b828201905092915050565b6000612606826126e9565b9150612611836126e9565b92508261262157612620612ba9565b5b828204905092915050565b6000612637826126e9565b9150612642836126e9565b92508282101561265557612654612b7a565b5b828203905092915050565b600061266b826126f3565b9150612676836126f3565b92508282101561268957612688612b7a565b5b828203905092915050565b600060ff82169050919050565b60006126ac826126c9565b9050919050565b60008115159050919050565b6000819050919050565b600073ffffffffffffffffffffffffffffffffffffffff82169050919050565b6000819050919050565b600060ff82169050919050565b60005b8381101561271e578082015181840152602081019050612703565b8381111561272d576000848401525b50505050565b6000600282049050600182168061274b57607f821691505b6020821081141561275f5761275e612bd8565b5b50919050565b600061277861277383612c8a565b612694565b9050919050565b600061279261278d83612df6565b612694565b9050919050565b60006127ac6127a783612e03565b612694565b9050919050565b60006127c66127c183612e1d565b612694565b9050919050565b60006127e06127db83612c97565b612694565b9050919050565b60006127fa6127f583612ca4565b612694565b9050919050565b600061281461280f83612cb1565b612694565b9050919050565b600061282e61282983612cbe565b612694565b9050919050565b600061284861284383612ccb565b612694565b9050919050565b600061286261285d83612cd8565b612694565b9050919050565b600061287c61287783612ce5565b612694565b9050919050565b600061289661289183612e10565b612694565b9050919050565b60006128b06128ab83612cf2565b612694565b9050919050565b60006128ca6128c583612cff565b612694565b9050919050565b60006128e46128df83612d19565b612694565b9050919050565b60006128fe6128f983612d26565b612694565b9050919050565b600061291861291383612d33565b612694565b9050919050565b600061293261292d83612d40565b612694565b9050919050565b600061294c61294783612d4d565b612694565b9050919050565b600061296661296183612d5a565b612694565b9050919050565b600061298061297b83612d67565b612694565b9050919050565b600061299a61299583612d74565b612694565b9050919050565b60006129b46129af83612d0c565b612694565b9050919050565b60006129ce6129c983612d81565b612694565b9050919050565b60006129e86129e383612d8e565b612694565b9050919050565b6000612a026129fd83612d9b565b612694565b9050919050565b6000612a1c612a1783612da8565b612694565b9050919050565b6000612a36612a3183612db5565b612694565b9050919050565b6000612a50612a4b83612dc2565b612694565b9050919050565b6000612a6a612a6583612dcf565b612694565b9050919050565b6000612a84612a7f83612ddc565b612694565b9050919050565b6000612a9e612a9983612de9565b612694565b9050919050565b612aae82612c79565b810181811067ffffffffffffffff82111715612acd57612acc612c36565b5b80604052505050565b6000612ae1826126e9565b91507fffffffffffffffffffffffffffffffffffffffffffffffffffffffffffffffff821415612b1457612b13612b7a565b5b600182019050919050565b6000612b2a826126f3565b915060ff821415612b3e57612b3d612b7a565b5b600182019050919050565b6000612b54826126e9565b9150612b5f836126e9565b925082612b6f57612b6e612ba9565b5b828206905092915050565b7f4e487b7100000000000000000000000000000000000000000000000000000000600052601160045260246000fd5b7f4e487b7100000000000000000000000000000000000000000000000000000000600052601260045260246000fd5b7f4e487b7100000000000000000000000000000000000000000000000000000000600052602260045260246000fd5b7f4e487b7100000000000000000000000000000000000000000000000000000000600052603260045260246000fd5b7f4e487b7100000000000000000000000000000000000000000000000000000000600052604160045260246000fd5b600080fd5b600080fd5b600080fd5b600080fd5b6000601f19601f8301169050919050565b60008160001c9050919050565b60008160681c9050919050565b60008160701c9050919050565b60008160781c9050919050565b60008160801c9050919050565b60008160881c9050919050565b60008160901c9050919050565b60008160981c9050919050565b60008160a01c9050919050565b60008160a81c9050919050565b60008160101c9050919050565b60008160b01c9050919050565b60008160b81c9050919050565b60008160c01c9050919050565b60008160c81c9050919050565b60008160d01c9050919050565b60008160d81c9050919050565b60008160e01c9050919050565b60008160e81c9050919050565b60008160f01c9050919050565b60008160f81c9050919050565b60008160181c9050919050565b60008160201c9050919050565b60008160281c9050919050565b60008160301c9050919050565b60008160381c9050919050565b60008160401c9050919050565b60008160481c9050919050565b60008160501c9050919050565b60008160581c9050919050565b60008160081c9050919050565b60008160601c9050919050565b7f4e756d62657273206d757374206265206c6172676572207468616e203020616e60008201527f64206c657373207468616e206f7220657175616c20746f206d6178696d756d4e60208201527f756d6265722e0000000000000000000000000000000000000000000000000000604082015250565b7f4661696c656420746f2073656e64204574686572000000000000000000000000600082015250565b7f6d73672e76616c756520646f6573206e6f74206d6174636820626574436f7374600082015250565b7f596f75206d7573742077616974206c6f6e676572206265666f726520616e6f7460008201527f686572206472617720697320617661696c61626c652e00000000000000000000602082015250565b7f41206472617720697320616c72656164792068617070656e696e670000000000600082015250565b7f42657473206172652070617573656420746f206472617720746865206e756d6260008201527f6572732e00000000000000000000000000000000000000000000000000000000602082015250565b50565b7f4e756d62657273206d757374206d61746368206578706563746564206c656e6760008201527f74682e0000000000000000000000000000000000000000000000000000000000602082015250565b7f5468652067616d652068617320746f2062652070617573656420666f72206e7560008201527f6d6265727320746f20626520647261776e2e0000000000000000000000000000602082015250565b7f5468652072616e646f6d206e756d62657220686173206e6f74206265656e206660008201527f6574636865642e00000000000000000000000000000000000000000000000000602082015250565b7f4f6e6c7920746865205652462063616e20736574207468652072616e646f6d2060008201527f6e756d6265722e00000000000000000000000000000000000000000000000000602082015250565b613100816126bf565b811461310b57600080fd5b50565b613117816126e9565b811461312257600080fd5b50565b61312e816126f3565b811461313957600080fd5b5056fea2646970667358221220d85d4e32f1f9f98a95f07fffea9fea7be78f1ea6a51466da6b3bdc22bceec91064736f6c63430008070033a2646970667358221220b33e685b1a0c230fef01318aeaf5054466e55170f894f78de56803943db9251b64736f6c63430008070033",
  "linkReferences": {},
  "deployedLinkReferences": {}
}