{
  "_format": "hh-sol-artifact-1",
  "contractName": "EtherBets",
  "sourceName": "contracts/EtherBets.sol",
  "abi": [
    {
      "inputs": [
        {
          "internalType": "string",
          "name": "_name",
          "type": "string"
        },
        {
          "internalType": "uint256",
          "name": "_betCost",
          "type": "uint256"
        },
        {
          "internalType": "uint8",
          "name": "_maximumNumber",
          "type": "uint8"
        },
        {
          "internalType": "uint8",
          "name": "_picks",
          "type": "uint8"
        },
        {
          "internalType": "uint256",
          "name": "_timeBetweenDraws",
          "type": "uint256"
        },
        {
          "internalType": "address",
          "name": "_VRF",
          "type": "address"
        }
      ],
      "stateMutability": "nonpayable",
      "type": "constructor"
    },
    {
      "anonymous": false,
      "inputs": [
        {
          "indexed": true,
          "internalType": "address",
          "name": "sender",
          "type": "address"
        },
        {
          "indexed": false,
          "internalType": "uint8[]",
          "name": "numbers",
          "type": "uint8[]"
        },
        {
          "indexed": false,
          "internalType": "uint256",
          "name": "draw",
          "type": "uint256"
        }
      ],
      "name": "BetPlaced",
      "type": "event"
    },
    {
      "anonymous": false,
      "inputs": [
        {
          "indexed": false,
          "internalType": "uint8[]",
          "name": "winningNumbers",
          "type": "uint8[]"
        },
        {
          "indexed": false,
          "internalType": "uint256",
          "name": "draw",
          "type": "uint256"
        }
      ],
      "name": "NumbersDrawn",
      "type": "event"
    },
    {
      "anonymous": false,
      "inputs": [
        {
          "indexed": false,
          "internalType": "uint256",
          "name": "randomness",
          "type": "uint256"
        },
        {
          "indexed": false,
          "internalType": "uint256",
          "name": "draw",
          "type": "uint256"
        }
      ],
      "name": "RandomnessFulfilled",
      "type": "event"
    },
    {
      "anonymous": false,
      "inputs": [
        {
          "indexed": false,
          "internalType": "uint256",
          "name": "draw",
          "type": "uint256"
        }
      ],
      "name": "RandomnessRequested",
      "type": "event"
    },
    {
      "inputs": [],
      "name": "VRF",
      "outputs": [
        {
          "internalType": "address",
          "name": "",
          "type": "address"
        }
      ],
      "stateMutability": "view",
      "type": "function"
    },
    {
      "inputs": [
        {
          "internalType": "uint8[]",
          "name": "arr",
          "type": "uint8[]"
        }
      ],
      "name": "arrayToUint",
      "outputs": [
        {
          "internalType": "uint256",
          "name": "",
          "type": "uint256"
        }
      ],
      "stateMutability": "pure",
      "type": "function"
    },
    {
      "inputs": [],
      "name": "beginDraw",
      "outputs": [],
      "stateMutability": "nonpayable",
      "type": "function"
    },
    {
      "inputs": [],
      "name": "betCost",
      "outputs": [
        {
          "internalType": "uint256",
          "name": "",
          "type": "uint256"
        }
      ],
      "stateMutability": "view",
      "type": "function"
    },
    {
      "inputs": [
        {
          "internalType": "uint256",
          "name": "",
          "type": "uint256"
        },
        {
          "internalType": "uint256",
          "name": "",
          "type": "uint256"
        }
      ],
      "name": "betToAddresses",
      "outputs": [
        {
          "internalType": "address",
          "name": "",
          "type": "address"
        }
      ],
      "stateMutability": "view",
      "type": "function"
    },
    {
      "inputs": [
        {
          "internalType": "uint8[]",
          "name": "arr",
          "type": "uint8[]"
        }
      ],
      "name": "checkRequirements",
      "outputs": [],
      "stateMutability": "view",
      "type": "function"
    },
    {
      "inputs": [
        {
          "internalType": "uint8",
          "name": "n",
          "type": "uint8"
        },
        {
          "internalType": "uint8[]",
          "name": "arr",
          "type": "uint8[]"
        }
      ],
      "name": "contains",
      "outputs": [
        {
          "internalType": "bool",
          "name": "",
          "type": "bool"
        }
      ],
      "stateMutability": "pure",
      "type": "function"
    },
    {
      "inputs": [],
      "name": "draw",
      "outputs": [
        {
          "internalType": "uint256",
          "name": "",
          "type": "uint256"
        }
      ],
      "stateMutability": "view",
      "type": "function"
    },
    {
      "inputs": [],
      "name": "drawNumbers",
      "outputs": [],
      "stateMutability": "nonpayable",
      "type": "function"
    },
    {
      "inputs": [
        {
          "internalType": "uint256",
          "name": "randomValue",
          "type": "uint256"
        }
      ],
      "name": "expand",
      "outputs": [
        {
          "internalType": "uint8[]",
          "name": "expandedValues",
          "type": "uint8[]"
        }
      ],
      "stateMutability": "view",
      "type": "function"
    },
    {
      "inputs": [],
      "name": "getDetails",
      "outputs": [
        {
          "internalType": "string",
          "name": "",
          "type": "string"
        },
        {
          "internalType": "uint256",
          "name": "",
          "type": "uint256"
        },
        {
          "internalType": "uint8",
          "name": "",
          "type": "uint8"
        },
        {
          "internalType": "uint8",
          "name": "",
          "type": "uint8"
        },
        {
          "internalType": "uint256",
          "name": "",
          "type": "uint256"
        },
        {
          "internalType": "uint256",
          "name": "",
          "type": "uint256"
        },
        {
          "internalType": "bool",
          "name": "",
          "type": "bool"
        },
        {
          "internalType": "uint256",
          "name": "",
          "type": "uint256"
        },
        {
          "internalType": "uint256",
          "name": "",
          "type": "uint256"
        },
        {
          "internalType": "uint8[]",
          "name": "",
          "type": "uint8[]"
        },
        {
          "internalType": "uint256",
          "name": "",
          "type": "uint256"
        },
        {
          "internalType": "bool",
          "name": "",
          "type": "bool"
        }
      ],
      "stateMutability": "view",
      "type": "function"
    },
    {
      "inputs": [
        {
          "internalType": "uint8[]",
          "name": "arr",
          "type": "uint8[]"
        }
      ],
      "name": "inAcceptableRange",
      "outputs": [
        {
          "internalType": "bool",
          "name": "",
          "type": "bool"
        }
      ],
      "stateMutability": "view",
      "type": "function"
    },
    {
      "inputs": [],
      "name": "lastDrawTime",
      "outputs": [
        {
          "internalType": "uint256",
          "name": "",
          "type": "uint256"
        }
      ],
      "stateMutability": "view",
      "type": "function"
    },
    {
      "inputs": [],
      "name": "maximumNumber",
      "outputs": [
        {
          "internalType": "uint8",
          "name": "",
          "type": "uint8"
        }
      ],
      "stateMutability": "view",
      "type": "function"
    },
    {
      "inputs": [],
      "name": "name",
      "outputs": [
        {
          "internalType": "string",
          "name": "",
          "type": "string"
        }
      ],
      "stateMutability": "view",
      "type": "function"
    },
    {
      "inputs": [],
      "name": "paused",
      "outputs": [
        {
          "internalType": "bool",
          "name": "",
          "type": "bool"
        }
      ],
      "stateMutability": "view",
      "type": "function"
    },
    {
      "inputs": [],
      "name": "picks",
      "outputs": [
        {
          "internalType": "uint8",
          "name": "",
          "type": "uint8"
        }
      ],
      "stateMutability": "view",
      "type": "function"
    },
    {
      "inputs": [
        {
          "internalType": "uint8[]",
          "name": "numbers",
          "type": "uint8[]"
        }
      ],
      "name": "placeBet",
      "outputs": [],
      "stateMutability": "payable",
      "type": "function"
    },
    {
      "inputs": [],
      "name": "randomNumber",
      "outputs": [
        {
          "internalType": "uint256",
          "name": "",
          "type": "uint256"
        }
      ],
      "stateMutability": "view",
      "type": "function"
    },
    {
      "inputs": [],
      "name": "randomNumberFetched",
      "outputs": [
        {
          "internalType": "bool",
          "name": "",
          "type": "bool"
        }
      ],
      "stateMutability": "view",
      "type": "function"
    },
    {
      "inputs": [
        {
          "internalType": "uint256",
          "name": "_randomNumber",
          "type": "uint256"
        }
      ],
      "name": "setRandomNumber",
      "outputs": [],
      "stateMutability": "nonpayable",
      "type": "function"
    },
    {
      "inputs": [],
      "name": "timeBetweenDraws",
      "outputs": [
        {
          "internalType": "uint256",
          "name": "",
          "type": "uint256"
        }
      ],
      "stateMutability": "view",
      "type": "function"
    },
    {
      "inputs": [
        {
          "internalType": "uint256",
          "name": "",
          "type": "uint256"
        }
      ],
      "name": "winningNumbers",
      "outputs": [
        {
          "internalType": "uint8",
          "name": "",
          "type": "uint8"
        }
      ],
      "stateMutability": "view",
      "type": "function"
    }
  ],
  "bytecode": "0x60806040523480156200001157600080fd5b50604051620036a7380380620036a783398181016040528101906200003791906200040c565b85600090805190602001906200004f929190620000e1565b508460018190555083600260006101000a81548160ff021916908360ff16021790555082600260016101000a81548160ff021916908360ff1602179055508160078190555080600860006101000a81548173ffffffffffffffffffffffffffffffffffffffff021916908373ffffffffffffffffffffffffffffffffffffffff1602179055505050505050506200052c565b828054620000ef90620004f6565b90600052602060002090601f0160209004810192826200011357600085556200015f565b82601f106200012e57805160ff19168380011785556200015f565b828001600101855582156200015f579182015b828111156200015e57825182559160200191906001019062000141565b5b5090506200016e919062000172565b5090565b5b808211156200018d57600081600090555060010162000173565b5090565b6000604051905090565b600080fd5b600080fd5b600080fd5b600080fd5b6000601f19601f8301169050919050565b7f4e487b7100000000000000000000000000000000000000000000000000000000600052604160045260246000fd5b620001fa82620001af565b810181811067ffffffffffffffff821117156200021c576200021b620001c0565b5b80604052505050565b60006200023162000191565b90506200023f8282620001ef565b919050565b600067ffffffffffffffff821115620002625762000261620001c0565b5b6200026d82620001af565b9050602081019050919050565b60005b838110156200029a5780820151818401526020810190506200027d565b83811115620002aa576000848401525b50505050565b6000620002c7620002c18462000244565b62000225565b905082815260208101848484011115620002e657620002e5620001aa565b5b620002f38482856200027a565b509392505050565b600082601f830112620003135762000312620001a5565b5b815162000325848260208601620002b0565b91505092915050565b6000819050919050565b62000343816200032e565b81146200034f57600080fd5b50565b600081519050620003638162000338565b92915050565b600060ff82169050919050565b620003818162000369565b81146200038d57600080fd5b50565b600081519050620003a18162000376565b92915050565b600073ffffffffffffffffffffffffffffffffffffffff82169050919050565b6000620003d482620003a7565b9050919050565b620003e681620003c7565b8114620003f257600080fd5b50565b6000815190506200040681620003db565b92915050565b60008060008060008060c087890312156200042c576200042b6200019b565b5b600087015167ffffffffffffffff8111156200044d576200044c620001a0565b5b6200045b89828a01620002fb565b96505060206200046e89828a0162000352565b95505060406200048189828a0162000390565b94505060606200049489828a0162000390565b9350506080620004a789828a0162000352565b92505060a0620004ba89828a01620003f5565b9150509295509295509295565b7f4e487b7100000000000000000000000000000000000000000000000000000000600052602260045260246000fd5b600060028204905060018216806200050f57607f821691505b60208210811415620005265762000525620004c7565b5b50919050565b61316b806200053c6000396000f3fe6080604052600436106101405760003560e01c8063682904a5116100b6578063a126285b1161006f578063a126285b14610455578063a195bcca14610480578063c45821f414610497578063ccbac9f5146104d4578063d6bfea28146104ff578063fbbf93a01461052857610140565b8063682904a5146103405780636a93111c1461037d578063752ca00414610399578063780d8b73146103d65780637aa2a299146103ff5780639204c9b71461042a57610140565b806339b522251161010857806339b522251461022e5780634e45f0951461026b5780635c975abb146102a85780635cbbd635146102d3578063650a031a146102fe578063676c902f1461032957610140565b806306c5c0c81461014557806306fdde03146101705780630eecae211461019b578063113da88a146101c657806332a6d97914610203575b600080fd5b34801561015157600080fd5b5061015a61055e565b60405161016791906114ba565b60405180910390f35b34801561017c57600080fd5b50610185610564565b604051610192919061156e565b60405180910390f35b3480156101a757600080fd5b506101b06105f2565b6040516101bd91906114ba565b60405180910390f35b3480156101d257600080fd5b506101ed60048036038101906101e89190611725565b6105f8565b6040516101fa9190611789565b60405180910390f35b34801561020f57600080fd5b50610218610699565b6040516102259190611789565b60405180910390f35b34801561023a57600080fd5b50610255600480360381019061025091906117a4565b6106ac565b6040516102629190611789565b60405180910390f35b34801561027757600080fd5b50610292600480360381019061028d919061182c565b610714565b60405161029f9190611868565b60405180910390f35b3480156102b457600080fd5b506102bd610748565b6040516102ca9190611789565b60405180910390f35b3480156102df57600080fd5b506102e861075b565b6040516102f591906114ba565b60405180910390f35b34801561030a57600080fd5b50610313610761565b6040516103209190611868565b60405180910390f35b34801561033557600080fd5b5061033e610774565b005b34801561034c57600080fd5b506103676004803603810190610362919061182c565b6108c7565b6040516103749190611941565b60405180910390f35b61039760048036038101906103929190611725565b610a17565b005b3480156103a557600080fd5b506103c060048036038101906103bb9190611963565b610bb8565b6040516103cd91906119e4565b60405180910390f35b3480156103e257600080fd5b506103fd60048036038101906103f89190611725565b610c06565b005b34801561040b57600080fd5b50610414610ca6565b60405161042191906114ba565b60405180910390f35b34801561043657600080fd5b5061043f610cac565b60405161044c9190611868565b60405180910390f35b34801561046157600080fd5b5061046a610cbf565b60405161047791906119e4565b60405180910390f35b34801561048c57600080fd5b50610495610ce5565b005b3480156104a357600080fd5b506104be60048036038101906104b99190611725565b610e92565b6040516104cb91906114ba565b60405180910390f35b3480156104e057600080fd5b506104e9610efa565b6040516104f691906114ba565b60405180910390f35b34801561050b57600080fd5b506105266004803603810190610521919061182c565b610f00565b005b34801561053457600080fd5b5061053d610ff2565b6040516105559c9b9a999897969594939291906119ff565b60405180910390f35b60075481565b6000805461057190611af6565b80601f016020809104026020016040519081016040528092919081815260200182805461059d90611af6565b80156105ea5780601f106105bf576101008083540402835291602001916105ea565b820191906000526020600020905b8154815290600101906020018083116105cd57829003601f168201915b505050505081565b60045481565b600080600090505b82518160ff16101561068e576000838260ff168151811061062457610623611b28565b5b602002602001015160ff16148061066c5750600260009054906101000a900460ff1660ff16838260ff168151811061065f5761065e611b28565b5b602002602001015160ff16115b1561067b576000915050610694565b808061068690611b86565b915050610600565b50600190505b919050565b600a60009054906101000a900460ff1681565b600080600090505b82518160ff161015610708578360ff16838260ff16815181106106da576106d9611b28565b5b602002602001015160ff1614156106f557600191505061070e565b808061070090611b86565b9150506106b4565b50600090505b92915050565b6003818154811061072457600080fd5b9060005260206000209060209182820401919006915054906101000a900460ff1681565b600860149054906101000a900460ff1681565b60065481565b600260009054906101000a900460ff1681565b600860149054906101000a900460ff166107c3576040517f08c379a00000000000000000000000000000000000000000000000000000000081526004016107ba90611c22565b60405180910390fd5b600a60009054906101000a900460ff16610812576040517f08c379a000000000000000000000000000000000000000000000000000000000815260040161080990611cb4565b60405180910390fd5b61081d6009546108c7565b600390805190602001906108329291906113dd565b507ffebf534a11985149a5c6f9db799e3fd83bee80a2726a5b1ea9aa7fea0cbe6a216003600454604051610867929190612a27565b60405180910390a1610877611183565b6004600081548092919061088a90612a57565b91905055506000600860146101000a81548160ff0219169083151502179055506000600a60006101000a81548160ff021916908315150217905550565b6060600260019054906101000a900460ff1660ff1667ffffffffffffffff8111156108f5576108f46115a9565b5b6040519080825280602002602001820160405280156109235781602001602082028036833780820191505090505b5090506000805b600260019054906101000a900460ff1660ff168260ff161015610a105760006001600260009054906101000a900460ff1660ff168684604051602001610971929190612aa0565b6040516020818303038152906040528051906020012060001c6109949190612af8565b61099e9190612b29565b90506109aa81856106ac565b156109c35781806109ba90612a57565b9250505061092a565b80848460ff16815181106109da576109d9611b28565b5b602002602001019060ff16908160ff168152505082806109f990611b86565b9350508180610a0790612a57565b9250505061092a565b5050919050565b6001543414610a5b576040517f08c379a0000000000000000000000000000000000000000000000000000000008152600401610a5290612bcb565b60405180910390fd5b60001515600860149054906101000a900460ff16151514610ab1576040517f08c379a0000000000000000000000000000000000000000000000000000000008152600401610aa890612c5d565b60405180910390fd5b610aba81610c06565b60056000610ac783610e92565b600454604051602001610adb929190612aa0565b6040516020818303038152906040528051906020012060001c8152602001908152602001600020339080600181540180825580915050600190039060005260206000200160009091909190916101000a81548173ffffffffffffffffffffffffffffffffffffffff021916908373ffffffffffffffffffffffffffffffffffffffff1602179055503373ffffffffffffffffffffffffffffffffffffffff167fdb457a8286185fe9d46c5c69e68ed86df699c2c02066412781e9dd9a12af4b4582600454604051610bad929190612c7d565b60405180910390a250565b60056020528160005260406000208181548110610bd457600080fd5b906000526020600020016000915091509054906101000a900473ffffffffffffffffffffffffffffffffffffffff1681565b610c0f816105f8565b610c4e576040517f08c379a0000000000000000000000000000000000000000000000000000000008152600401610c4590612d45565b60405180910390fd5b600260019054906101000a900460ff1660ff16815114610ca3576040517f08c379a0000000000000000000000000000000000000000000000000000000008152600401610c9a90612dd7565b60405180910390fd5b50565b60015481565b600260019054906101000a900460ff1681565b600860009054906101000a900473ffffffffffffffffffffffffffffffffffffffff1681565b60075460065442610cf69190612df7565b11610d36576040517f08c379a0000000000000000000000000000000000000000000000000000000008152600401610d2d90612e9d565b60405180910390fd5b60001515600860149054906101000a900460ff16151514610d8c576040517f08c379a0000000000000000000000000000000000000000000000000000000008152600401610d8390612f09565b60405180910390fd5b6001600860146101000a81548160ff021916908315150217905550426006819055506000600860009054906101000a900473ffffffffffffffffffffffffffffffffffffffff1690508073ffffffffffffffffffffffffffffffffffffffff1663dbdff2c16040518163ffffffff1660e01b8152600401602060405180830381600087803b158015610e1d57600080fd5b505af1158015610e31573d6000803e3d6000fd5b505050506040513d601f19601f82011682018060405250810190610e559190612f5f565b507f9ac10fb18c93d33ad7b0a941897aef048d0f8d30756684e82b4552ba12764d45600454604051610e8791906114ba565b60405180910390a150565b6000806000905060005b83518160ff161015610ef0576001848260ff1681518110610ec057610ebf611b28565b5b6020026020010151610ed29190612f8c565b60ff166001901b821791508080610ee890611b86565b915050610e9c565b5080915050919050565b60095481565b600860009054906101000a900473ffffffffffffffffffffffffffffffffffffffff1673ffffffffffffffffffffffffffffffffffffffff163373ffffffffffffffffffffffffffffffffffffffff1614610f90576040517f08c379a0000000000000000000000000000000000000000000000000000000008152600401610f8790613032565b60405180910390fd5b806009819055506001600a60006101000a81548160ff0219169083151502179055507f546aca7b2683440b8f02fa95faeb8efc79dd0f16af3d815a002742ea6f76116c600954600454604051610fe7929190612aa0565b60405180910390a150565b606060008060008060008060008060606000806000600154600260009054906101000a900460ff16600260019054906101000a900460ff16600754600654600860149054906101000a900460ff16600454476003600954600a60009054906101000a900460ff168b805461106590611af6565b80601f016020809104026020016040519081016040528092919081815260200182805461109190611af6565b80156110de5780601f106110b3576101008083540402835291602001916110de565b820191906000526020600020905b8154815290600101906020018083116110c157829003601f168201915b50505050509b508280548060200260200160405190810160405280929190818152602001828054801561115657602002820191906000526020600020906000905b82829054906101000a900460ff1660ff168152602001906001019060208260000104928301926001038202915080841161111f5790505b505050505092509b509b509b509b509b509b509b509b509b509b509b509b50909192939495969798999a9b565b60006005600061120860038054806020026020016040519081016040528092919081815260200182805480156111fe57602002820191906000526020600020906000905b82829054906101000a900460ff1660ff16815260200190600101906020826000010492830192600103820291508084116111c75790505b5050505050610e92565b60045460405160200161121c929190612aa0565b6040516020818303038152906040528051906020012060001c81526020019081526020016000208054806020026020016040519081016040528092919081815260200182805480156112c357602002820191906000526020600020905b8160009054906101000a900473ffffffffffffffffffffffffffffffffffffffff1673ffffffffffffffffffffffffffffffffffffffff1681526020019060010190808311611279575b505050505090506000815114156112da57506113db565b60008151476112e99190613052565b905060005b82518110156113d757600083828151811061130c5761130b611b28565b5b6020026020010151905060008173ffffffffffffffffffffffffffffffffffffffff168460405161133c906130b4565b60006040518083038185875af1925050503d8060008114611379576040519150601f19603f3d011682016040523d82523d6000602084013e61137e565b606091505b50509050806113c2576040517f08c379a00000000000000000000000000000000000000000000000000000000081526004016113b990613115565b60405180910390fd5b505080806113cf90612a57565b9150506112ee565b5050505b565b82805482825590600052602060002090601f016020900481019282156114735791602002820160005b8382111561144457835183826101000a81548160ff021916908360ff1602179055509260200192600101602081600001049283019260010302611406565b80156114715782816101000a81549060ff0219169055600101602081600001049283019260010302611444565b505b5090506114809190611484565b5090565b5b8082111561149d576000816000905550600101611485565b5090565b6000819050919050565b6114b4816114a1565b82525050565b60006020820190506114cf60008301846114ab565b92915050565b600081519050919050565b600082825260208201905092915050565b60005b8381101561150f5780820151818401526020810190506114f4565b8381111561151e576000848401525b50505050565b6000601f19601f8301169050919050565b6000611540826114d5565b61154a81856114e0565b935061155a8185602086016114f1565b61156381611524565b840191505092915050565b600060208201905081810360008301526115888184611535565b905092915050565b6000604051905090565b600080fd5b600080fd5b600080fd5b7f4e487b7100000000000000000000000000000000000000000000000000000000600052604160045260246000fd5b6115e182611524565b810181811067ffffffffffffffff82111715611600576115ff6115a9565b5b80604052505050565b6000611613611590565b905061161f82826115d8565b919050565b600067ffffffffffffffff82111561163f5761163e6115a9565b5b602082029050602081019050919050565b600080fd5b600060ff82169050919050565b61166b81611655565b811461167657600080fd5b50565b60008135905061168881611662565b92915050565b60006116a161169c84611624565b611609565b905080838252602082019050602084028301858111156116c4576116c3611650565b5b835b818110156116ed57806116d98882611679565b8452602084019350506020810190506116c6565b5050509392505050565b600082601f83011261170c5761170b6115a4565b5b813561171c84826020860161168e565b91505092915050565b60006020828403121561173b5761173a61159a565b5b600082013567ffffffffffffffff8111156117595761175861159f565b5b611765848285016116f7565b91505092915050565b60008115159050919050565b6117838161176e565b82525050565b600060208201905061179e600083018461177a565b92915050565b600080604083850312156117bb576117ba61159a565b5b60006117c985828601611679565b925050602083013567ffffffffffffffff8111156117ea576117e961159f565b5b6117f6858286016116f7565b9150509250929050565b611809816114a1565b811461181457600080fd5b50565b60008135905061182681611800565b92915050565b6000602082840312156118425761184161159a565b5b600061185084828501611817565b91505092915050565b61186281611655565b82525050565b600060208201905061187d6000830184611859565b92915050565b600081519050919050565b600082825260208201905092915050565b6000819050602082019050919050565b6118b881611655565b82525050565b60006118ca83836118af565b60208301905092915050565b6000602082019050919050565b60006118ee82611883565b6118f8818561188e565b93506119038361189f565b8060005b8381101561193457815161191b88826118be565b9750611926836118d6565b925050600181019050611907565b5085935050505092915050565b6000602082019050818103600083015261195b81846118e3565b905092915050565b6000806040838503121561197a5761197961159a565b5b600061198885828601611817565b925050602061199985828601611817565b9150509250929050565b600073ffffffffffffffffffffffffffffffffffffffff82169050919050565b60006119ce826119a3565b9050919050565b6119de816119c3565b82525050565b60006020820190506119f960008301846119d5565b92915050565b6000610180820190508181036000830152611a1a818f611535565b9050611a29602083018e6114ab565b611a36604083018d611859565b611a43606083018c611859565b611a50608083018b6114ab565b611a5d60a083018a6114ab565b611a6a60c083018961177a565b611a7760e08301886114ab565b611a856101008301876114ab565b818103610120830152611a9881866118e3565b9050611aa86101408301856114ab565b611ab661016083018461177a565b9d9c50505050505050505050505050565b7f4e487b7100000000000000000000000000000000000000000000000000000000600052602260045260246000fd5b60006002820490506001821680611b0e57607f821691505b60208210811415611b2257611b21611ac7565b5b50919050565b7f4e487b7100000000000000000000000000000000000000000000000000000000600052603260045260246000fd5b7f4e487b7100000000000000000000000000000000000000000000000000000000600052601160045260246000fd5b6000611b9182611655565b915060ff821415611ba557611ba4611b57565b5b600182019050919050565b7f5468652067616d652068617320746f2062652070617573656420666f72206e7560008201527f6d6265727320746f20626520647261776e2e0000000000000000000000000000602082015250565b6000611c0c6032836114e0565b9150611c1782611bb0565b604082019050919050565b60006020820190508181036000830152611c3b81611bff565b9050919050565b7f5468652072616e646f6d206e756d62657220686173206e6f74206265656e206660008201527f6574636865642e00000000000000000000000000000000000000000000000000602082015250565b6000611c9e6027836114e0565b9150611ca982611c42565b604082019050919050565b60006020820190508181036000830152611ccd81611c91565b9050919050565b600081549050919050565b60008190508160005260206000209050919050565b60008160001c9050919050565b600060ff82169050919050565b6000611d21611d1c83611cf4565b611d01565b9050919050565b60008160081c9050919050565b6000611d48611d4383611d28565b611d01565b9050919050565b60008160101c9050919050565b6000611d6f611d6a83611d4f565b611d01565b9050919050565b60008160181c9050919050565b6000611d96611d9183611d76565b611d01565b9050919050565b60008160201c9050919050565b6000611dbd611db883611d9d565b611d01565b9050919050565b60008160281c9050919050565b6000611de4611ddf83611dc4565b611d01565b9050919050565b60008160301c9050919050565b6000611e0b611e0683611deb565b611d01565b9050919050565b60008160381c9050919050565b6000611e32611e2d83611e12565b611d01565b9050919050565b60008160401c9050919050565b6000611e59611e5483611e39565b611d01565b9050919050565b60008160481c9050919050565b6000611e80611e7b83611e60565b611d01565b9050919050565b60008160501c9050919050565b6000611ea7611ea283611e87565b611d01565b9050919050565b60008160581c9050919050565b6000611ece611ec983611eae565b611d01565b9050919050565b60008160601c9050919050565b6000611ef5611ef083611ed5565b611d01565b9050919050565b60008160681c9050919050565b6000611f1c611f1783611efc565b611d01565b9050919050565b60008160701c9050919050565b6000611f43611f3e83611f23565b611d01565b9050919050565b60008160781c9050919050565b6000611f6a611f6583611f4a565b611d01565b9050919050565b60008160801c9050919050565b6000611f91611f8c83611f71565b611d01565b9050919050565b60008160881c9050919050565b6000611fb8611fb383611f98565b611d01565b9050919050565b60008160901c9050919050565b6000611fdf611fda83611fbf565b611d01565b9050919050565b60008160981c9050919050565b600061200661200183611fe6565b611d01565b9050919050565b60008160a01c9050919050565b600061202d6120288361200d565b611d01565b9050919050565b60008160a81c9050919050565b600061205461204f83612034565b611d01565b9050919050565b60008160b01c9050919050565b600061207b6120768361205b565b611d01565b9050919050565b60008160b81c9050919050565b60006120a261209d83612082565b611d01565b9050919050565b60008160c01c9050919050565b60006120c96120c4836120a9565b611d01565b9050919050565b60008160c81c9050919050565b60006120f06120eb836120d0565b611d01565b9050919050565b60008160d01c9050919050565b6000612117612112836120f7565b611d01565b9050919050565b60008160d81c9050919050565b600061213e6121398361211e565b611d01565b9050919050565b60008160e01c9050919050565b600061216561216083612145565b611d01565b9050919050565b60008160e81c9050919050565b600061218c6121878361216c565b611d01565b9050919050565b60008160f01c9050919050565b60006121b36121ae83612193565b611d01565b9050919050565b60008160f81c9050919050565b60006121da6121d5836121ba565b611d01565b9050919050565b60006121ec82611cd4565b6121f6818561188e565b93508361220284611cdf565b600060011561252f575b8360016020038201101561252e57815461222e8861222983611d0e565b6118af565b6020880197506122468861224183611d35565b6118af565b60208801975061225e8861225983611d5c565b6118af565b6020880197506122768861227183611d83565b6118af565b60208801975061228e8861228983611daa565b6118af565b6020880197506122a6886122a183611dd1565b6118af565b6020880197506122be886122b983611df8565b6118af565b6020880197506122d6886122d183611e1f565b6118af565b6020880197506122ee886122e983611e46565b6118af565b6020880197506123068861230183611e6d565b6118af565b60208801975061231e8861231983611e94565b6118af565b6020880197506123368861233183611ebb565b6118af565b60208801975061234e8861234983611ee2565b6118af565b6020880197506123668861236183611f09565b6118af565b60208801975061237e8861237983611f30565b6118af565b6020880197506123968861239183611f57565b6118af565b6020880197506123ae886123a983611f7e565b6118af565b6020880197506123c6886123c183611fa5565b6118af565b6020880197506123de886123d983611fcc565b6118af565b6020880197506123f6886123f183611ff3565b6118af565b60208801975061240e886124098361201a565b6118af565b6020880197506124268861242183612041565b6118af565b60208801975061243e8861243983612068565b6118af565b602088019750612456886124518361208f565b6118af565b60208801975061246e88612469836120b6565b6118af565b60208801975061248688612481836120dd565b6118af565b60208801975061249e8861249983612104565b6118af565b6020880197506124b6886124b18361212b565b6118af565b6020880197506124ce886124c983612152565b6118af565b6020880197506124e6886124e183612179565b6118af565b6020880197506124fe886124f9836121a0565b6118af565b60208801975061251688612511836121c7565b6118af565b6020880197506001830192505060208101905061220c565b5b600115612a1a5781548482101561255f576125528861254d83611d0e565b6118af565b6020880197506001820191505b84821015612586576125798861257483611d35565b6118af565b6020880197506001820191505b848210156125ad576125a08861259b83611d5c565b6118af565b6020880197506001820191505b848210156125d4576125c7886125c283611d83565b6118af565b6020880197506001820191505b848210156125fb576125ee886125e983611daa565b6118af565b6020880197506001820191505b84821015612622576126158861261083611dd1565b6118af565b6020880197506001820191505b848210156126495761263c8861263783611df8565b6118af565b6020880197506001820191505b84821015612670576126638861265e83611e1f565b6118af565b6020880197506001820191505b848210156126975761268a8861268583611e46565b6118af565b6020880197506001820191505b848210156126be576126b1886126ac83611e6d565b6118af565b6020880197506001820191505b848210156126e5576126d8886126d383611e94565b6118af565b6020880197506001820191505b8482101561270c576126ff886126fa83611ebb565b6118af565b6020880197506001820191505b84821015612733576127268861272183611ee2565b6118af565b6020880197506001820191505b8482101561275a5761274d8861274883611f09565b6118af565b6020880197506001820191505b84821015612781576127748861276f83611f30565b6118af565b6020880197506001820191505b848210156127a85761279b8861279683611f57565b6118af565b6020880197506001820191505b848210156127cf576127c2886127bd83611f7e565b6118af565b6020880197506001820191505b848210156127f6576127e9886127e483611fa5565b6118af565b6020880197506001820191505b8482101561281d576128108861280b83611fcc565b6118af565b6020880197506001820191505b84821015612844576128378861283283611ff3565b6118af565b6020880197506001820191505b8482101561286b5761285e886128598361201a565b6118af565b6020880197506001820191505b84821015612892576128858861288083612041565b6118af565b6020880197506001820191505b848210156128b9576128ac886128a783612068565b6118af565b6020880197506001820191505b848210156128e0576128d3886128ce8361208f565b6118af565b6020880197506001820191505b84821015612907576128fa886128f5836120b6565b6118af565b6020880197506001820191505b8482101561292e576129218861291c836120dd565b6118af565b6020880197506001820191505b84821015612955576129488861294383612104565b6118af565b6020880197506001820191505b8482101561297c5761296f8861296a8361212b565b6118af565b6020880197506001820191505b848210156129a3576129968861299183612152565b6118af565b6020880197506001820191505b848210156129ca576129bd886129b883612179565b6118af565b6020880197506001820191505b848210156129f1576129e4886129df836121a0565b6118af565b6020880197506001820191505b84821015612a1857612a0b88612a06836121c7565b6118af565b6020880197506001820191505b505b8694505050505092915050565b60006040820190508181036000830152612a4181856121e1565b9050612a5060208301846114ab565b9392505050565b6000612a62826114a1565b91507fffffffffffffffffffffffffffffffffffffffffffffffffffffffffffffffff821415612a9557612a94611b57565b5b600182019050919050565b6000604082019050612ab560008301856114ab565b612ac260208301846114ab565b9392505050565b7f4e487b7100000000000000000000000000000000000000000000000000000000600052601260045260246000fd5b6000612b03826114a1565b9150612b0e836114a1565b925082612b1e57612b1d612ac9565b5b828206905092915050565b6000612b34826114a1565b9150612b3f836114a1565b9250827fffffffffffffffffffffffffffffffffffffffffffffffffffffffffffffffff03821115612b7457612b73611b57565b5b828201905092915050565b7f6d73672e76616c756520646f6573206e6f74206d6174636820626574436f7374600082015250565b6000612bb56020836114e0565b9150612bc082612b7f565b602082019050919050565b60006020820190508181036000830152612be481612ba8565b9050919050565b7f42657473206172652070617573656420746f206472617720746865206e756d6260008201527f6572732e00000000000000000000000000000000000000000000000000000000602082015250565b6000612c476024836114e0565b9150612c5282612beb565b604082019050919050565b60006020820190508181036000830152612c7681612c3a565b9050919050565b60006040820190508181036000830152612c9781856118e3565b9050612ca660208301846114ab565b9392505050565b7f4e756d62657273206d757374206265206c6172676572207468616e203020616e60008201527f64206c657373207468616e206f7220657175616c20746f206d6178696d756d4e60208201527f756d6265722e0000000000000000000000000000000000000000000000000000604082015250565b6000612d2f6046836114e0565b9150612d3a82612cad565b606082019050919050565b60006020820190508181036000830152612d5e81612d22565b9050919050565b7f4e756d62657273206d757374206d61746368206578706563746564206c656e6760008201527f74682e0000000000000000000000000000000000000000000000000000000000602082015250565b6000612dc16023836114e0565b9150612dcc82612d65565b604082019050919050565b60006020820190508181036000830152612df081612db4565b9050919050565b6000612e02826114a1565b9150612e0d836114a1565b925082821015612e2057612e1f611b57565b5b828203905092915050565b7f596f75206d7573742077616974206c6f6e676572206265666f726520616e6f7460008201527f686572206472617720697320617661696c61626c652e00000000000000000000602082015250565b6000612e876036836114e0565b9150612e9282612e2b565b604082019050919050565b60006020820190508181036000830152612eb681612e7a565b9050919050565b7f41206472617720697320616c72656164792068617070656e696e670000000000600082015250565b6000612ef3601b836114e0565b9150612efe82612ebd565b602082019050919050565b60006020820190508181036000830152612f2281612ee6565b9050919050565b6000819050919050565b612f3c81612f29565b8114612f4757600080fd5b50565b600081519050612f5981612f33565b92915050565b600060208284031215612f7557612f7461159a565b5b6000612f8384828501612f4a565b91505092915050565b6000612f9782611655565b9150612fa283611655565b925082821015612fb557612fb4611b57565b5b828203905092915050565b7f4f6e6c7920746865205652462063616e20736574207468652072616e646f6d2060008201527f6e756d6265722e00000000000000000000000000000000000000000000000000602082015250565b600061301c6027836114e0565b915061302782612fc0565b604082019050919050565b6000602082019050818103600083015261304b8161300f565b9050919050565b600061305d826114a1565b9150613068836114a1565b92508261307857613077612ac9565b5b828204905092915050565b600081905092915050565b50565b600061309e600083613083565b91506130a98261308e565b600082019050919050565b60006130bf82613091565b9150819050919050565b7f4661696c656420746f2073656e64204574686572000000000000000000000000600082015250565b60006130ff6014836114e0565b915061310a826130c9565b602082019050919050565b6000602082019050818103600083015261312e816130f2565b905091905056fea2646970667358221220255589bf1d3a9841d737944a915e056a630442f7887e2da26a11d64e929d539a64736f6c63430008090033",
  "linkReferences": {},
  "deployedLinkReferences": {}
}